:100000000C9431010C94B7130C94DE130C9405146A
:100010000C942C140C9478010C9478010C945314C7
:100020000C9478010C944E0D0C940A1E0C94991C9F
:100030000C9478010C9478010C9478010C9478015C
:100040000C9478010C9478010C9478010C9478014C
:100050000C9478010C9478010C9478010C947A1427
:100060000C9478010C9439180C946B180C9478014A
:100070000C9478010C9478010C9478010C9478011C
:100080000C9478010C9478010C9478010C942E0552
:100090000C943C0B0C9478010C9478010C9478012E
:1000A0000C9478010C9478010C9478019F15A2159A
:1000B000911595159B15C315C315C315A615AA153E
:1000C000AE15B415B815C315BE1553656E736F72B2
:1000D00020656E61626C65643A20004465766963F0
:1000E000652049443A200047593932353020696E3D
:1000F000697469616C697A696E672E2E2E2E0047CD
:10010000593932353020636F6E6E656374696F6E76
:10011000207375636365737366756C6C792E004923
:100120006E697469616C6C697A696E6720425420EB
:1001300053657269616C20706F72742E2E2E00539D
:10014000657269616C2072656164792E000000003F
:100150000200090F0000030401000C000000000071
:100160000000000000000000000000000408020180
:1001700010408040102040804080080204018040F0
:1001800020100201108010204040200404040404C8
:10019000030405020202020403020202020606062A
:1001A0000606060404020202040400000000230004
:1001B000260029002C002F00000000002500280048
:1001C0002B002E00310000000000240027002A0030
:1001D0002D003000080B000202020100090400009B
:1001E00001020200000524001001052401010104A0
:1001F00024020605240600010705810310004009BA
:10020000040100020A000000070502024000000786
:1002100005830240000012010002EF020140EB03DF
:100220000424000101020301120100020000004049
:10023000EB030424000101020301556E6B6E6F771E
:100240006E00426C656E644D6963726F20384D4874
:100250007A00040309043C05620A180F5E179B1814
:10026000270611241FBECFEFDAE0DEBFCDBF94B763
:1002700084B7877F84BF0FB6F894A89580916000FB
:10028000886180936000109260000FBE93FF0EC0E3
:100290008091AB059091AC0582349C4D39F410925D
:1002A000AC051092AB05E0E0F0E7099511E0A0E0A5
:1002B000B1E0E2E7F6E402C005900D92A83BB10779
:1002C000D9F725E0A8EBB1E001C01D92AB3AB20727
:1002D000E1F711E0C0E3D1E004C02197FE010E94E4
:1002E000B121CB32D107C9F70E949D130C942C2366
:1002F0000C9400002F923F924F925F926F927F92E8
:100300008F929F92AF92BF92CF92DF92EF92FF9225
:100310000F931F93CF93DF93CDB7DEB72A970FB616
:10032000F894DEBF0FBECDBF9A8789876C012AE69D
:10033000C20ED11C7C0138E6E30EF11C8C010A5977
:100340001F4F8C599F4F9A83898329843A8442E6B0
:10035000240E311C89859A85805A9F4F9E838D83F8
:1003600029813A81A101BC0189859A858B569F4FCD
:100370000E94FA10E985FA85EC55FF4F108110FFB5
:100380004DC1E985FA8544885588668877888088D4
:100390009188A288B388C484D584E684F784E981EF
:1003A000FA8160817181072E000C880B990B0E94E5
:1003B0002A2020E03CE249E456E40E94441F2DEC50
:1003C0003CEC4CE951EC0E94DF2020E031E942E0B6
:1003D00057EC0E94B61F2DEC3CEC4CE151E40E941E
:1003E000451FA30192010E94441F2FE832EC45EF04
:1003F0005CE30E94DF202AEA3AE84AE65EE30E94D4
:10040000B61F9B01AC01C301B2010E94451F2B0125
:100410003C01F10160817181072E000C880B990B62
:100420000E942A2020E030E14BE856E40E94441F5D
:100430002DEC3CEC4CE951EC0E94DF2020E030E256
:1004400040E057EC0E94B61F2DEC3CEC4CE151E42F
:100450000E94451FA50194010E94441F2FE832EC21
:1004600045EF5CE30E94DF202AEA3AE84AE65EE3D1
:100470000E94B61F9B01AC01C501B4010E94451F3B
:100480004B015C01ED81FE8160817181072E000CC2
:10049000880B990B0E942A2020E03CE742E956E4B1
:1004A0000E94441F2DEC3CEC4CE951EC0E94DF20F3
:1004B00020E038E74FEF56EC0E94B61F2DEC3CECE5
:1004C0004CE151E40E94451FA70196010E94441F80
:1004D0002FE832EC45EF5CE30E94DF202AEA3AE89D
:1004E0004AE65EE30E94B61F9B01AC01C701B6015C
:1004F0000E94451FE985FA85608371838283938317
:1005000084829582A682B7824086518662867386EF
:1005100024A535A546A557A529833A834B835C833B
:1005200020A531A542A553A52D833E834F8358872F
:10053000C4A0D5A0E6A0F7A0A70196010E94441F81
:100540002FE832EC45EF5CE30E94DF2025ED3AE630
:1005500042EB5EE30E94B61F9B01AC01C701B601EE
:100560000E94451FE985FA85608F718F828F938F76
:100570002D813E814F815885C501B4010E94441FE1
:100580002FE832EC45EF5CE30E94DF2025ED3AE6F0
:1005900042EB5EE30E94B61F9B01AC016D817E8140
:1005A0008F8198850E94451FE985FA85648F758F34
:1005B000868F978F29813A814B815C81C301B2017B
:1005C0000E94441F2FE832EC45EF5CE30E94DF20DD
:1005D00025ED3AE642EB5EE30E94B61F9B01AC01BB
:1005E00069817A818B819C810E94451FE985FA850A
:1005F00060A371A382A393A38CE0DF011C960190FA
:100600000D928A95E1F78CE0E985FA857896A985BF
:10061000BA85949601900D928A95E1F711FF95C0E5
:10062000E985FA85EC5BFF4F80809180A280B380E2
:10063000E985FA85E05CFF4F4080518062807380DD
:10064000E985FA85C4ACD5ACE6ACF7ACE659FF4F0A
:1006500060817181072E000C880B990B0E942A2063
:10066000A50194010E94441F2FE832EC45EF5CE3A2
:100670000E94DF202AEA3AE84AE65EE30E94B61FBB
:100680009B01AC01C501B4010E94451F4B015C01F7
:10069000E985FA85E859FF4F60817181072E000CCA
:1006A000880B990B0E942A20A30192010E94441FEB
:1006B0002FE832EC45EF5CE30E94DF202AEA3AE8BB
:1006C0004AE65EE30E94B61F9B01AC01C301B20182
:1006D0000E94451F2B013C01E985FA85EA59FF4F2D
:1006E00060817181072E000C880B990B0E942A20D3
:1006F000A70196010E94441F2FE832EC45EF5CE30E
:100700000E94DF202AEA3AE84AE65EE30E94B61F2A
:100710009B01AC01C701B6010E94451FE985FA851E
:1007200060AB71AB82AB93AB44AA55AA66AA77AA19
:1007300080AE91AEA2AEB3AE8CE0F096A985BA853C
:10074000DC9601900D928A95E1F72A960FB6F894FF
:10075000DEBF0FBECDBFDF91CF911F910F91FF90F4
:10076000EF90DF90CF90BF90AF909F908F907F9051
:100770006F905F904F903F902F9008958F929F922F
:10078000AF92BF92CF92DF92EF92FF920F931F939F
:10079000CF93DF93EC016A017B0148015901C90144
:1007A000B80120E831E541E050E00E9470218881E5
:1007B0009981AA81BB81281739074A075B0731F461
:1007C000CC82DD82EE82FF8281E00BC08885998534
:1007D000009731F095018401B701A6010E94BE0384
:1007E00080E0DF91CF911F910F91FF90EF90DF900C
:1007F000CF90BF90AF909F908F9008950F931F93CD
:10080000FC0160E070E0CB01019120ED200F2A3067
:10081000C0F4AAE0B0E09B01AC010E94C621AB018C
:10082000BC014053510961097109002E000C110BE4
:10083000220B330BCB01BA01600F711F821F931F74
:10084000E3CF1F910F9108950F931F930E94C4143B
:100850006093C5017093C6018093C7019093C8014E
:100860000091C1011091C2012091C3013091C401D6
:10087000DC01CB01801B910BA20BB30B86399105D8
:10088000A105B10590F1EDEDF1E001900020E9F74F
:100890003197BF016D5D71404AE050E082EA94E01B
:1008A0000E94361A8091C5019091C601A091C7019E
:1008B000B091C8018093C1019093C201A093C3017C
:1008C000B093C4018091F2019091F301A091F401E1
:1008D000B091F5010196A11DB11D8093F201909395
:1008E000F301A093F401B093F5011F910F910895C6
:1008F00061E08DE00E94C41561E082E10E94C415B0
:1009000062E089E00E94C41561E08DE00E9400165B
:1009100061E082E10E94001640E052EC61E070E08C
:1009200082EA94E00E94491782EA94E00E944F17FD
:10093000811105C089E00E943016892BA9F76FE369
:1009400071E082EA94E00E943D196FE171E082EA71
:1009500094E00E940C1940E855E260E070E086EFF8
:1009600091E00E944C0E69E271E082EA94E00E94FC
:100970004F1967EE70E082EA94E00E943D1980EB27
:1009800092E00E94741168EE73E080E090E00E94B3
:10099000F5146BED70E082EA94E00E940C1980EB94
:1009A00092E00E94B21140E150E0682F82EA94E0A8
:1009B0000E941F1A6FEF70E082EA94E00E943D19D6
:1009C00083E08093BF0260E080EB92E00E94881198
:1009D00060E080EB92E00E948F1160E080EB92E09B
:1009E0000E9496118091BF0281FF0FC060E080EBF2
:1009F00092E00E949D1160E080EB92E00E94A411C1
:100A000060E080EB92E00E94AB116AEC70E082EA59
:100A100094E00E940C196091BF0261704AE050E0BE
:100A200070E082EA94E00E94F4196091BF02627063
:100A300070E04AE050E082EA94E00E94FB19F894EA
:100A4000809171008160809371008091900080910D
:100A50009100836080939100789408951F920F9283
:100A60000FB60F9211241092C1021092C0020F9083
:100A70000FBE0F901F901895CF93DF93EBE1F2E03C
:100A800010821182128213821482158216821782BA
:100A9000108611861286138614861586168617868A
:100AA000108A118A128A138A148A158A168A178A5A
:100AB000108E118E128E138E148E158E168E178E2A
:100AC00010A211A212A213A214A215A216A217A27A
:100AD00010A611A612A613A614A615A616A617A64A
:100AE00010AA11AA12AA13AA14AA15AA16AA17AA1A
:100AF00010AE11AE12AE13AE14AE15AE16AE17AEEA
:100B000010925B0210925C0210925D0210925E02E3
:100B100010925F02109260021092610210926202C3
:100B200010926302109264021092650210926602A3
:100B300010926702109268021092690210926A0283
:100B400010926B0210926C0210926D0210926E0263
:100B500010926F0210927002109271021092720243
:100B60001092730210927402109275021092760223
:100B700010927702109278021092790210927A0203
:100B8000D2E1EBE7F2E0DF018D2F1D928A95E9F7C4
:100B900081E080938D0280938E0280938F02CCE05F
:100BA000E0E9F2E0DF018C2F1D928A95E9F7ECE98C
:100BB000F2E0DF018C2F1D928A95E9F71092A802CE
:100BC0001092A9021092AA021092AB021092AC02EB
:100BD0001092AD021092AE021092AF0280EB92E042
:100BE0000E94E0101092BF0281E090E09093C10259
:100BF0008093C002E7E1F2E0118213828DE08083EE
:100C0000D283E5E1F2E01082118260E088E00E9488
:100C1000C41560E085E00E94C41520E046E16BE069
:100C200086EF91E00E94210E8CE090E00E94C818AF
:100C3000DC011D92CA95E9F79093DC018093DB01FA
:100C40009093DA018093D901DF91CF91089586EFD7
:100C500091E00C94C80D4F925F926F927F928F92A9
:100C60009F92AF92BF92CF92DF92EF92FF920F933B
:100C70001F93CF93DF938091C0029091C102892B83
:100C800009F0EDC28091D10181110DC00E94C41400
:100C90006093BD017093BE018093BF019093C0012A
:100CA00081E08093D1010E94C4140091BD01109194
:100CB000BE012091BF013091C001DC01CB01801B3E
:100CC000910BA20BB30B4F97A105B10508F4E6C039
:100CD0000E94C4146093BD017093BE018093BF0154
:100CE0009093C00160E082E10E9400168BE192E0E7
:100CF0000E947A0180918D0220E030E040E85FE3BD
:100D00008823E1F0609133027091340280913502C2
:100D1000909136020E94451F9B01AC0160911B021D
:100D200070911C0280911D0290911E020E94DA2097
:100D300018160CF09BC010928D0298C0609133027F
:100D40007091340280913502909136020E94441FC6
:100D50009B01AC0160911B0270911C0280911D02ED
:100D600090911E020E94B11F87FF80C081E0809396
:100D70008D020E94C4148090900290909102A090E5
:100D80009202B09093026B017C01C818D908EA085E
:100D9000FB0880919C0290919D02A0919E02B091CF
:100DA0009F02A5019401281B390B4A0B5B0BCA015A
:100DB000B9010E9428202B013C01C701B6010E9405
:100DC00028209B01AC01C301B2010E94B61F2B0178
:100DD0003C012DEC3CEC4CE45FE30E94DA20181659
:100DE00084F52AE939E949E95FE3C301B2010E94C8
:100DF000B11F87FF26C037EEC31AD108E108F108FA
:100E000049EEC41646E0D406E104F104D0F4209182
:100E1000AB022F5F8091AC029091AD02A091AE0227
:100E2000B091AF02820F911DA11DB11D8093AC0244
:100E30009093AD02A093AE02B093AF021092AB02BA
:100E400003C082E08093AB0280929C0290929D024C
:100E5000A0929E02B0929F020E94C41460939002DE
:100E600070939102809392029093930261E082E1E9
:100E70000E94001689E00E943016892B29F4809187
:100E8000BC01882309F4E2C18091BC01882331F0C0
:100E900089E00E943016892B09F0DEC18091C901DA
:100EA00081110DC00E94C4146093B8017093B90100
:100EB0008093BA019093BB0181E08093C9010E94A5
:100EC000C4140091B8011091B9012091BA01309178
:100ED000BB01DC01CB01801B910BA20BB30B893E44
:100EE0009340A105B10508F474C00E94C414609336
:100EF000B8017093B9018093BA019093BB01E0915E
:100F0000D901F091DA01208131814281538160E879
:100F100071E581E090E00E944C216B017C01A0E82A
:100F2000CA0EA1E5DA1EA1E0EA1EF11C0E940A1316
:100F3000C616D706E806F90650F58CE090E00E9448
:100F4000C818EC018CE0FE0111928A95E9F70E9425
:100F50000A1320E831E541E050E00E947021288327
:100F600039834A835B83E091D901F091DA01D38719
:100F7000C287F987E887D093DA01C093D90110922C
:100F8000AC021092AD021092AE021092AF020E941B
:100F90000A138B019C014091AC025091AD0260910B
:100FA000AE027091AF028091D9019091DA010E9456
:100FB000BE036CE271E082EA94E00E9430190E9464
:100FC0000A13AB01BC012AE030E082EA94E00E94FF
:100FD0004C1A82EA94E00E948316892B09F42FC1EF
:100FE00082EA94E00E949316CDEDD1E0A091F10148
:100FF000E1E0EA0FE093F101B0E0A352BE4F8C9321
:101000008A3009F01CC1F0E0E452FE4F108264E324
:1010100071E082EA94E00E943019BE0182EA94E015
:101020000E94301982EA94E00E94391968E371E065
:10103000CE010E941223892B61F16BE371E082EAF9
:1010400094E00E94301960EE71E082EA94E00E9420
:101050004F1967E471E082EA94E00E943019FE01C2
:1010600001900020E9F73197BF016D5D71404AE0C2
:1010700050E082EA94E00E94361A80EE91E00E94ED
:10108000FE030E94D71284E1DE011D928A95E9F7E2
:10109000CDC066E571E08DED91E00E941223892BB1
:1010A00009F4C4C0E091DB01F091DC0120813181C1
:1010B0004281538160E871E581E090E00E944C211B
:1010C0006B017C0169E571E082EA94E00E943019CD
:1010D0000D2C000CEE08FF08C701B6010E94CF12CC
:1010E0004AE050E0BC0182EA94E00E94F4196DE20B
:1010F00082EA94E00E945916C701B6010E94C91203
:101100004AE050E0BC0182EA94E00E94F4196DE2EA
:1011100082EA94E00E945916C701B6010E94C312E8
:101120004AE050E0BC0182EA94E00E94F4196FE2C8
:1011300082EA94E00E945916E091DB01F091DC0113
:1011400044815581668177812AE030E082EA94E02B
:101150000E94121A6AE082EA94E00E945916C701BE
:10116000B6010E94CF124AE050E0BC0186EF91E048
:101170000E94F4196DE286EF91E00E948A0CC7018B
:10118000B6010E94C9124AE050E0BC0186EF91E02E
:101190000E94F4196DE286EF91E00E948A0CC7016B
:1011A000B6010E94C3124AE050E0BC0186EF91E014
:1011B0000E94F4196FE286EF91E00E948A0CE091A0
:1011C000DB01F091DC0144815581668177812AE061
:1011D00030E086EF91E00E94121A6AE070E080E051
:1011E00090E00E94F51460E486EF91E00E948A0C82
:1011F00061E070E080E090E00E94F514E091DB0196
:10120000F091DC010284F385E02D309779F0F093C2
:10121000DC01E093DB01808591850E94CA18E09192
:10122000DB01F091DC01118610863CCF1092F101B8
:1012300084E1EDEDF1E0DF011D928A95E9F781E0AF
:1012400090E09093C1028093C00209C00E942404E0
:1012500081E08093BC0118CE1092BC011FCEDF91BB
:10126000CF911F910F91FF90EF90DF90CF90BF90A3
:10127000AF909F908F907F906F905F904F90089568
:101280008091F20290E02091F302821B910908956F
:101290009091F3028091F202981750F4E92FF0E058
:1012A000EC50FD4F208130E09F5F9093F30202C02D
:1012B0002FEF3FEFC9010895E091F3028091F20210
:1012C000E81730F4F0E0EC50FD4F808190E0089595
:1012D0008FEF9FEF08950895CF92DF92EF92FF92E4
:1012E0000F931F93CF93DF937C01262F972F8A01B3
:1012F0008091CE02882391F0C62FD72F6E01C40EA5
:10130000D51ECC15DD0571F06991D701ED91FC91E9
:101310000190F081E02DC7010995F3CF642F822F52
:101320000E94040BC801DF91CF911F910F91FF9094
:10133000EF90DF90CF900895CF93DF931F92CDB7BA
:10134000DEB769832091CE022223D1F02091CF0213
:10135000203240F021E030E0FC013383228380E042
:1013600090E015C08091D002E82FF0E0EF52FD4FE1
:10137000998190838F5F8093D0028093CF0205C0C4
:1013800061E0CE0101960E94040B81E090E00F9095
:10139000DF91CF910895FC011382128288EE93E0D1
:1013A000A0E0B0E084839583A683B78381E691E0D3
:1013B00091838083089581E08093CE026093F1024F
:1013C0001092D0021092CF0208950F93062F21E0C1
:1013D0004091CF0261ED72E08091F1020E94AE0A6D
:1013E0001092D0021092CF021092CE020F91089567
:1013F0004F925F926F927F92AF92BF92CF92EF9295
:10140000FF920F931F93CF93DF935C01F62ED42F9F
:1014100028013901EE2021F10E94DB09CE2DC430D4
:1014200008F0C3E0C150C0F0D501ED91FC91B8E0E7
:10143000CB9FC0011124A301920104C0569547958A
:10144000379527958A95D2F7CA01B9010190F081A5
:10145000E02DC5010995E6CF60E0C5010E94E509D0
:101460004D2FD13208F040E22C2D64EF72E08F2D29
:101470000E94660A1092F3028093F202DF91CF91EC
:101480001F910F91FF90EF90CF90BF90AF907F9002
:101490006F905F904F900895CF92EF920F931F93AC
:1014A000C22EE12C00E010E098010E94F8091F9183
:1014B0000F91EF90CF90089521E00C944C0A61E0D9
:1014C0000C94E50982EC92E00C94CB09413208F0CF
:1014D00043C0909181039111FCCF91E090938103DF
:1014E00020937F032FEF2093140310925903240FAE
:1014F000209358039093800390918003880F892B49
:101500008093800380917E03813061F410927E038A
:10151000809180038093BB008091BC0083FDF8CF55
:1015200085EC01C085EE8093BC0080918103813001
:10153000E1F380915903841710F4409159032AE58F
:1015400033E0FB01D9018A2F821B841718F48D9197
:101550008193F9CF842F089580E008950F9341324D
:1015600008F04AC0909181039111FCCF32E0309392
:10157000810300937F033FEF3093140310925903CC
:1015800040935803FB016AE573E0DB013A2F361BF9
:10159000341718F431913D93F9CF109280033091B4
:1015A0008003880F832B8093800380917E0381309A
:1015B00061F410927E03809180038093BB00809140
:1015C000BC0083FDF8CF85EC01C085EE8093BC00A4
:1015D000222321F0809181038230D1F38091140382
:1015E0008F3F79F080911403803241F08091140391
:1015F000803331F094E005C091E003C092E001C077
:1016000093E0892F0F91089540913603262F30E003
:10161000240F311D21323105DCF420918103243067
:10162000C9F4FC0180E090E0861758F4309136034D
:101630002191DC01A85CBC4FA30FB11D2C93019636
:10164000F3CF80913603680F6093360380E00895EE
:1016500081E0089582E0089585ED8093BC0080913B
:10166000BC0084FDFCCF10928103089585EC80932B
:10167000BC001092810308951F920F920FB60F9233
:1016800011242F933F934F935F936F937F938F9387
:101690009F93AF93BF93EF93FF938091B900887F9F
:1016A000803609F49EC078F5883209F45DC090F464
:1016B000803109F456C038F4882309F4F5C0883025
:1016C00009F44FC0F5C0883109F44EC0803209F4E6
:1016D0005FC0EEC0803409F46AC058F4803309F466
:1016E00057C0883309F0E4C0809314030E94360B7E
:1016F000DFC0803509F44FC0883509F45DC08834F7
:1017000009F0D6C0D3C0883909F4C4C0A8F488371A
:1017100009F467C038F4883609F463C0803709F4E7
:1017200060C0C6C0883809F4B5C0803909F45FC00C
:10173000803809F0BDC05BC0803B09F483C038F439
:10174000803A09F466C0883A09F47CC0B1C0803C94
:1017500009F4A4C0883C09F4A1C0883B09F487C0FF
:10176000A7C08091800310C09091590380915803C5
:10177000981770F5E091590381E08E0F809359031B
:10178000F0E0E65AFC4F80818093BB0085EC83C07B
:10179000809314038BC0E091590381E08E0F8093F6
:1017A00059038091BB00F0E0E65AFC4F8083909192
:1017B0005903809158036BC0E091590381E08E0F6B
:1017C000809359038091BB00F0E0E65AFC4F808380
:1017D00080917F0381116AC081E080937E0384EA57
:1017E0005EC083E08093810310921503CFCF809178
:1017F0001503803208F04EC0E091150381E08E0F92
:10180000809315038091BB00F0E0EA5EFC4F80837B
:10181000BDCF0E94360B80911503803230F4E091E9
:101820001503F0E0EA5EFC4F10826091150370E052
:10183000E0917A03F0917B0386E193E009951092A1
:10184000150336C084E08093810310923703109211
:101850003603E0917C03F0917D0309958091360376
:10186000811105C081E08093360310923803E09126
:10187000370381E08E0F80933703F0E0E85CFC4F84
:1018800080818093BB009091370380913603981735
:1018900008F47CCF85E88093BC000AC085EC809377
:1018A000BC001092810304C0109214030E942C0B00
:1018B000FF91EF91BF91AF919F918F917F916F9128
:1018C0005F914F913F912F910F900FBE0F901F90FE
:1018D00018952091C4033091C50328173907B9F42E
:1018E0009091820380918303981789F0E09182039D
:1018F000F0E0EC57FC4F80812091820330E02F5FB5
:101900003F4F2F7333272093820390E008958FEF8A
:101910009FEF08951F93CF93DF93DC015C962D9189
:101920003C915D972115310539F481E090E01396E3
:101930009C938E9312973DC05196ED91FC915297D6
:1019400050969C915097892F80951FB75E964C9129
:101950005E9741FB772770F941FD6095F8944081CF
:10196000772311F0492B01C048234083E9012197D7
:10197000F1F748E0508160FF02C0592B01C05823A5
:101980005083E9012197F1F76695415099F7772344
:1019900021F090818923808303C08081982B9083DC
:1019A0001FBF5C968D919C915D970197F1F721E0A7
:1019B00030E0C901DF91CF911F91089508952091E2
:1019C000C4033091C5032817390771F4909182033D
:1019D00080918303981741F0E0918203F0E0EC5787
:1019E000FC4F808190E008958FEF9FEF0895209144
:1019F000C4033091C5032817390771F4809183031C
:101A00002091820390E0805C9F4F821B910960E4EB
:101A100070E00E945C21089580E090E00895E091DC
:101A2000C403F091C503E817F90769F4A389B489E1
:101A30009C918589809589238C931092C50310927F
:101A4000C40381E0089580E00895CF93DF93EC0113
:101A50008A8D9B8D892BF1F08091C4039091C503F1
:101A60008C179D07B9F0009711F00E940F0D8E8D15
:101A70008E7F8E8F1092830310928203D093C503C2
:101A8000C093C403EB89FC8990818D89892B808365
:101A900081E001C080E0DF91CF9108951F920F9205
:101AA0000FB60F9211242F933F934F935F936F9331
:101AB0007F938F939F93AF93BF93EF93FF93E091A7
:101AC000C403F091C503309709F451C0968DA685E3
:101AD000B785858591FF04C09C91892329F447C06F
:101AE0009C91892309F043C0A389B4899C9185897D
:101AF000809589238C93868997890197F1F7608D6A
:101B0000718DA685B785558538E020E0CB0101971A
:101B1000F1F7822F90E095958795282F4C914523DA
:101B200009F02068315091F7868D81FD20958091D4
:101B3000830390E001968F739927309182033817C1
:101B400049F0A0918303B0E0AC57BC4F2C93809335
:101B5000830303C0868D8160868F828D938D01976C
:101B6000F1F7A389B4899C918589892B8C93FF9186
:101B7000EF91BF91AF919F918F917F916F915F9105
:101B80004F913F912F910F900FBE0F901F9018957E
:101B900021E731E0FC01318320830C940F0D1F936A
:101BA000CF93DF93EC01162F6E8D6695617081E007
:101BB0006827812F0E94001661E0812F0E94C415C2
:101BC000612F70E0FB01E459FE4FE491E88BFB01CB
:101BD000E557FE4FE491F0E0EE0FFF1FE854FE4F93
:101BE000859194919A8B898BDF91CF911F91089564
:101BF0001F93CF93DF93EC01162F60E0812F0E949B
:101C0000C4158E8D81FD04C061E0812F0E940016F5
:101C10001C87612F70E0FB01E459FE4FE491ED87D2
:101C2000FB01E557FE4FE491F0E0EE0FFF1FE65594
:101C3000FE4F859194919F878E87DF91CF911F9161
:101C400008951F93CF93DF93EC01162F1B821A8206
:101C500088EE93E0A0E0B0E08C839D83AE83BF83E9
:101C600081E791E0998388831F8A1E8A198E188ED6
:101C70001B8E1A8E1D8E1C8E8E8D8E7F20FB81F901
:101C80008E8F642FCE010E94CF0D612FCE01DF9188
:101C9000CF911F910C94F80DCF93DF93EC019A0133
:101CA000AB011B8E1A8E198E188E1F8A1E8A60E851
:101CB00074E88EE190E00E949221F9012430310510
:101CC00018F0C901039702C081E090E09D8F8C8FCE
:101CD0008C8598EF980F943048F062EF680F64306D
:101CE00028F066EE680F633008F071C0B901769590
:101CF00067956431710518F06351710902C061E0A4
:101D000070E07F8B6E8B369720F0B90165507109BA
:101D100002C061E070E0798F688FB901660F771FAC
:101D2000260F371F36952795369527952D30310587
:101D300018F02C50310902C021E030E03B8F2A8F8F
:101D4000943058F092EF980F943038F08A518330E5
:101D500008F442C0A0E0B0E041C0A8E6B0E0E8E688
:101D6000F0E0808181608C938C8598EF980F94309F
:101D700058F022EF280F243038F026EE280F2330B9
:101D800018F020E030E002C02BE630E03C8B2B8BDB
:101D9000943010F4845009C08E3069F08F3069F0AF
:101DA000803169F0813169F0865191E001C0990F6D
:101DB0008A95EAF707C098E005C092E003C094E076
:101DC00001C091E09D8B8C8D9D8D0197F1F7CE0127
:101DD000DF91CF910C94250DA8E6B0E0833008F494
:101DE000BECFE0E0F0E0BDCFFC0115821682178285
:101DF000DC011896885B9F4F1D92A817B907E1F781
:101E00001C92DF01A75BBF4F1D921C92EF54FF4F46
:101E10000190F081E02D309709F009940895FC01BC
:101E2000128214821382E954FF4F10820C94F40E34
:101E300086EC93E00C940F0FEF92FF920F931F9399
:101E4000CF93DF9300D0CDB7DEB7062F142F682FC6
:101E500082EC92E029833A830E94DB09602F82ECB6
:101E600092E00E949C092981022FE22E3A81F32EF2
:101E70008E2D801B811740F4F70161917F0182EC68
:101E800092E00E949C09F4CF82EC92E00E945F0AEB
:101E900091E0811190E0892F0F900F90DF91CF9109
:101EA0001F910F91FF90EF900895CF93DF931F92B2
:101EB000CDB7DEB749839E012F5F3F4F41E00E94BF
:101EC0001C0F0F90DF91CF9108952F923F924F9268
:101ED0005F926F927F928F929F92AF92BF92CF92BA
:101EE000DF92EF92FF920F931F93CF93DF9300D077
:101EF00000D01F92CDB7DEB7F82EE62E242E690152
:101F00000E94C4144B015C01312C1D82822D90E093
:101F10009C838B832801612C712C321408F055C0EE
:101F20006F2D82EC92E00E94DB096E2D82EC92E034
:101F30000E949C0982EC92E00E945F0A6F2D82EC65
:101F400092E00E94DB094B815C81431951094132C7
:101F5000510514F040E250E06F2D82EC92E00E94B7
:101F60005C0A82EC92E00E944009892B19F101156C
:101F7000110599F4F6012D81E20FF11D27FDFA9567
:101F8000FA83E98382EC92E00E944809E981FA81B0
:101F900080832D812F5F2D83E4CF0E94C414DC0148
:101FA000CB0188199909AA09BB0984159505A605CD
:101FB000B70500F382EC92E00E945F0A822D40E2B6
:101FC000421508F480E2380EA8CF01151105D1F0B2
:101FD0000E94C414DC01CB0188199909AA09BB0924
:101FE00020E030E080179107A207B30758F0822D58
:101FF00090E0ED812E2FEE0F330B2817390714F4E4
:102000002FEF2D838D810F900F900F900F900F90D9
:10201000DF91CF911F910F91FF90EF90DF90CF90C4
:10202000BF90AF909F908F907F906F905F904F90F8
:102030003F902F9008950F931F9389019A0141E0DB
:102040000E94650F1F910F910895CF92DF92EF923A
:10205000FF920F931F93CF93DF931F92CDB7DEB7FD
:10206000D42EC22E9701AE014F5F5F4F0E941B100E
:102070008823F1F04D2D50E04C1951094F5F5F4F0F
:1020800021E030E002C0220F331FCA94E2F7215052
:102090003109042E01C0220F0A94EAF799812923FD
:1020A00030E002C0359527954A95E2F7F801208384
:1020B0000F90DF91CF911F910F91FF90EF90DF90E4
:1020C000CF900895EF92FF920F931F93CF93DF93DA
:1020D0001F92CDB7DEB7182F062FF42EE22E2091D7
:1020E000060130910701AE014F5F5F4F0E941B1048
:1020F0009981EE2041F041E050E001C0440FFA9494
:10210000EAF7492B09C021E030E0A90101C0440FE2
:10211000FA94EAF7409549234983602F812F0E9462
:10212000550F0F90DF91CF911F910F91FF90EF907E
:102130000895DF92EF92FF920F931F93CF93DF9357
:102140001F92CDB7DEB7182FF62EE42ED22E209197
:10215000060130910701AE014F5F5F4F0E941B10D7
:10216000882321F1EE2DF0E0ED19F109319621E0FF
:1021700030E002C0220F331FDA94E2F72150310918
:102180000E2E01C0220F0A94EAF7802F01C0880F9B
:10219000EA95EAF7422F4095998149232823422B5B
:1021A00049836F2D812F0E94550F01C080E00F9051
:1021B000DF91CF911F910F91FF90EF90DF900895E5
:1021C00028E6FC01208308950F93062F22E044E0C7
:1021D0006BE1FC0180810E9499100F9108950F938B
:1021E000062F22E044E06CE1FC0180810E949910FE
:1021F0000F9108954F925F926F927F928F929F926C
:10220000AF92BF92CF92DF92EF92FF920F931F9304
:10221000CF93DF93EC013B014A0159012801009162
:102220000601109107019C012F5F3F4F4EE06BE3C9
:1022300088810E94650F898190E0982F88272A81E4
:10224000822BF301918380838B8190E0982F8827E4
:102250002C81822BF401918380838D8190E0982FD3
:1022600088272E81822BF50191838083898590E0D8
:10227000982F88272A85822BF201918380838B8572
:1022800090E0982F88272C85822BF70191838083FB
:102290008D8590E0982F88272E85822BF6019183DB
:1022A0008083DF91CF911F910F91FF90EF90DF908E
:1022B000CF90BF90AF909F908F907F906F905F90E6
:1022C0004F900895262F46E06BE6FC0180810C9428
:1022D00062100F93062F23E042E06BE6FC01808141
:1022E0000E9499100F910895CF93DF93EC0161E064
:1022F0000E94691160E0CE010E94E41060E0CE010E
:102300000E94EF1060E0CE01DF91CF910C9462113A
:10231000262F45E06CE6FC0180810C946210262F8C
:1023200044E06CE6FC0180810C946210262F43E0AF
:102330006CE6FC0180810C946210262F42E06CE672
:10234000FC0180810C946210262F41E06CE6FC01B8
:1023500080810C946210262F40E06CE6FC018081A5
:102360000C946210EF92FF920F931F93CF93DF9321
:10237000EC01E0900601F09007018C010F5F1F4F08
:1023800028E046E065E788810E9425108981DF9179
:10239000CF911F910F91FF90EF9008956F927F92D0
:1023A0008F929F92AF92BF92CF92DF92EF92FF9265
:1023B0000F931F93CF93DF93EA012CE3C22ED12C0E
:1023C000E12CF12CA70196010E9470216883CA01BB
:1023D000B901A70196010E9470216983CA01B90160
:1023E00028E130E040E050E00E94702169017A016C
:1023F0006A83CA01B9016C5F7F4F8F4F9F4F27E0FF
:1024000030E040E050E00E9470216F5F6B83812CD0
:10241000912C540140E034E6632E712C00E911E068
:10242000242F30E02E54384FF901E370FF27309706
:1024300089F4C901B3010E945C21892B31F4C901DF
:10244000B8010E945C21892B29F48EE691E0A0E07E
:10245000B0E004C08DE691E0A0E0B0E0880E991EE7
:10246000AA1EBB1ED501C401AA27BB27C816D906C0
:10247000EA06FB0610F04F5FD3CF4E83309799F4F6
:10248000C90164E670E00E945C21892B39F4C9011E
:1024900060E971E00E945C21892B29F48EE691E0CD
:1024A000A0E0B0E004C08DE691E0A0E0B0E0881AC2
:1024B000990AAA0ABB0AC818D908EA08FB08C90180
:1024C00064E670E00E945C218C01C90160E971E062
:1024D0000E945C21ADE7B1E020E0213041F430976B
:1024E00051F40115110529F4009729F402C04C910B
:1024F00003C04DE101C04CE150E060E070E0C41663
:10250000D506E606F70640F0C41AD50AE60AF70A29
:102510002F5F11962C3009F72F5F2D83C394CC8247
:10252000DF91CF911F910F91FF90EF90DF90CF90AF
:10253000BF90AF909F908F907F906F900895CF92B3
:10254000DF92EF92FF92C0908E04D0908F04E090C3
:102550009004F09091046C157D058E059F0571F037
:102560006B017C0142E954E00E94CE11C0928E04BE
:10257000D0928F04E0929004F0929104FF90EF903B
:10258000DF90CF9008950E949F128091960490E072
:1025900008950E949F128091970490E008950E94F0
:1025A0009F128091980490E08E54984F08950F9355
:1025B0001F9360938A0470938B0480938C04909390
:1025C0008D04009108011091090120910A013091B8
:1025D0000B01DC01CB01800F911FA21FB31F809361
:1025E000820490938304A0938404B093850482E0D2
:1025F00090E090938104809380040E94C4146093BF
:1026000086047093870480938804909389041F91B3
:102610000F910895CF92DF92EF92FF920F931F9345
:102620000E94C414C0908604D0908704E09088046F
:10263000F09089048B019C010C191D092E093F099A
:1026400080918A0490918B04A0918C04B0918D04A8
:10265000083E134021053105D0F00196A11DB11DA2
:1026600080938A0490938B04A0938C04B0938D0480
:10267000B701A60148515C4F6F4F7F4F40938604CE
:10268000509387046093880470938904C9CF409164
:1026900082045091830460918404709185048417AE
:1026A0009507A607B707C8F1E0917E04F0917F0473
:1026B000309799F10995611571058105910519F01A
:1026C0000E94D7122AC040910801509109016091DF
:1026D0000A0170910B0180918A0490918B04A09162
:1026E0008C04B0918D04840F951FA61FB71F809393
:1026F000820490938304A0938404B093850481E0C2
:1027000090E02091800430918104232B11F480E02B
:1027100090E0909381048093800460918A0470918A
:102720008B0480918C0490918D041F910F91FF90E8
:10273000EF90DF90CF90089508950E9431150E9488
:102740009C1380E995E00E948B1E89B5806189BD4C
:1027500009B400FEFDCF0E947804C1EAD7E10E94CF
:102760002B062097E1F30E94A117F9CF08951F923D
:102770000F920FB60F9211242F933F934F935F93B5
:102780006F937F938F939F93AF93BF93EF93FF9339
:10279000E0910C01F0910D010995FF91EF91BF912E
:1027A000AF919F918F917F916F915F914F913F91E9
:1027B0002F910F900FBE0F901F9018951F920F92A0
:1027C0000FB60F9211242F933F934F935F936F9304
:1027D0007F938F939F93AF93BF93EF93FF93E0917A
:1027E0000E01F0910F010995FF91EF91BF91AF910B
:1027F0009F918F917F916F915F914F913F912F9119
:102800000F900FBE0F901F9018951F920F920FB64A
:102810000F9211242F933F934F935F936F937F9366
:102820008F939F93AF93BF93EF93FF93E09110012A
:10283000F09111010995FF91EF91BF91AF919F9197
:102840008F917F916F915F914F913F912F910F9059
:102850000FBE0F901F9018951F920F920FB60F92F8
:1028600011242F933F934F935F936F937F938F9395
:102870009F93AF93BF93EF93FF93E0911201F09179
:1028800013010995FF91EF91BF91AF919F918F91A6
:102890007F916F915F914F913F912F910F900FBE5C
:1028A0000F901F9018951F920F920FB60F92112440
:1028B0002F933F934F935F936F937F938F939F9348
:1028C000AF93BF93EF93FF93E0911401F091150143
:1028D0000995FF91EF91BF91AF919F918F917F915A
:1028E0006F915F914F913F912F910F900FBE0F907D
:1028F0001F9018951F920F920FB60F9211242F93CD
:102900003F938F939F93AF93BF9380919A0490913D
:102910009B04A0919C04B0919D043091990426E001
:10292000230F2D3720F40296A11DB11D05C029E803
:10293000230F0396A11DB11D2093990480939A043F
:1029400090939B04A0939C04B0939D0480919E045B
:1029500090919F04A091A004B091A1040196A11DA3
:10296000B11D80939E0490939F04A093A004B09304
:10297000A104BF91AF919F918F913F912F910F90A3
:102980000FBE0F901F9018952FB7F89460919A047E
:1029900070919B0480919C0490919D042FBF089599
:1029A0003FB7F89480919E0490919F04A091A00459
:1029B000B091A10426B5A89B05C02F3F19F0019640
:1029C000A11DB11D3FBFBA2FA92F982F8827820FB5
:1029D000911DA11DB11DBC01CD0143E0660F771F04
:1029E000881F991F4A95D1F708958F929F92AF92B1
:1029F000BF92CF92DF92EF92FF926B017C010E9417
:102A0000D0144B015C01C114D104E104F10401F1C3
:102A10000E94AA1E0E94D014DC01CB0188199909DA
:102A2000AA09BB09883E9340A105B10560F321E0E6
:102A3000C21AD108E108F10888EE880E83E0981EDA
:102A4000A11CB11CC114D104E104F10419F7DBCFBE
:102A5000FF90EF90DF90CF90BF90AF909F908F90BE
:102A60000895789484B5826084BD84B5816084BD06
:102A700085B5826085BD85B5816085BDEEE6F0E0F7
:102A8000808181608083E1E8F0E010828081826053
:102A90008083808181608083E0E8F0E080818160D4
:102AA0008083E1E9F0E080818260808380818160C1
:102AB0008083E0E9F0E0808181608083E1ECF0E0F8
:102AC0008081846080838081826080838081816056
:102AD0008083E3ECF0E0808181608083E0ECF0E0D3
:102AE000808182608083E2ECF0E08081816080837D
:102AF000EAE7F0E080818460808380818260808367
:102B000080818E7F8083808180688083089590E0BB
:102B1000FC013197EF30F105B0F5EA5AFF4F0C9404
:102B2000B121809180008F7703C0809180008F7DDC
:102B300080938000089580918000877FF9CF84B5CD
:102B40008F7702C084B58F7D84BD089580919000F9
:102B50008F7707C0809190008F7D03C08091900097
:102B6000877F8093900008958091C0008F7703C085
:102B70008091C0008F7D8093C00008958091C20035
:102B8000877F8093C2000895CF93DF9390E0FC018C
:102B9000E459FE4F2491FC01E557FE4F84918823B0
:102BA00061F190E0880F991FFC01EA53FE4FC59137
:102BB000D491FC01E854FE4FA591B491611109C074
:102BC0009FB7F8948881209582238883EC912E23E7
:102BD0000BC0623061F49FB7F8943881822F8095E2
:102BE00083238883EC912E2B2C939FBF06C08FB735
:102BF000F894E8812E2B28838FBFDF91CF91089521
:102C00001F93CF93DF93282F30E0F901E35BFE4F52
:102C10008491F901E459FE4FD491F901E557FE4F33
:102C2000C491CC23C9F0162F81110E948715EC2F77
:102C3000F0E0EE0FFF1FE854FE4FA591B4918FB75F
:102C4000F894111105C09C91ED2FE095E92302C085
:102C5000EC91ED2BEC938FBFDF91CF911F910895F5
:102C6000CF93DF93282F30E0F901E35BFE4F84918F
:102C7000F901E459FE4FD491F901E557FE4FC49193
:102C8000CC2391F081110E948715EC2FF0E0EE0F1C
:102C9000FF1FE655FE4FA591B491EC91ED2381E025
:102CA00090E021F480E002C080E090E0DF91CF91DD
:102CB0000895CF93DF931F92CDB7DEB76983DC0110
:102CC000ED91FC910280F381E02D41E050E0BE01E6
:102CD0006F5F7F4F09950F90DF91CF910895CF934C
:102CE000DF93EC018C859D8597FF05C082E00E94F3
:102CF0006D1B9D878C878C859D85DF91CF91089575
:102D000083E00C94001EFC018485958597FD06C028
:102D100082E00E94171B90E00196089582E00E94D5
:102D2000171B90E00895FC018485958597FD05C0EB
:102D30002FEF3FEF35872487089582E00C946D1BB9
:102D4000CF93DF93EC0180912101882331F083E060
:102D50000E949E1B1816190634F081E090E09B83B8
:102D60008A8380E090E0DF91CF910895FC0190810B
:102D70009E5F908342E450E064ED71E080E80C9443
:102D80003F1CFC0181819081913A59F4813209F014
:102D900048C047E050E06AE171E080E00E943F1CDB
:102DA00076C09132F1F5833291F49381892F90E0CE
:102DB000982F88272281822BA0E0B0E08093160113
:102DC00090931701A0931801B093190160C080324D
:102DD00039F467E070E08AE191E00E94661C06C069
:102DE000823209F054C08281809321018091F204E3
:102DF000882319F0EEEFFAE002C0E0E0F8E08091FD
:102E00001A0190911B01A0911C01B0911D01803B02
:102E10009440A105B10539F48091210180FF1FC0C4
:102E200002C080E008950FB6F894A89580916000E4
:102E3000886180936000109260000FBEA895EE3FFD
:102E40008AE0F80739F08091FE0A9091FF0A918399
:102E500080831DC01092FF0A1092FE0A18C0EE3F38
:102E60002AE0F20731F0808191819093FF0A8093EC
:102E7000FE0A87E797E7918380839BE088E10FB69E
:102E8000F894A895809360000FBE9093600081E055
:102E900008952FEF3FEFFC01358724870895CF93E6
:102EA000C09121016AE070E080E090E00E94F5149A
:102EB00081E0C11101C080E0CF910895E2EAF4E021
:102EC0001382128288EE93E0A0E0B0E084839583C1
:102ED000A683B7838DE891E0918380838FEF9FEF86
:102EE000958784870895FC01918D228D892F90E02C
:102EF000805C9F4F821B91098F7399270895FC0175
:102F0000918D828D981731F0828DE80FF11D858D9E
:102F100090E008958FEF9FEF0895FC01918D828DD1
:102F2000981761F0828DDF01A80FB11D5D968C911D
:102F3000928D9F5F9F73928F90E008958FEF9FEF28
:102F4000089581E998E1892B49F080E090E0892B90
:102F500029F00E94911881110C9400000895FC0141
:102F6000848DDF01A80FB11DA35ABF4F2C91848D12
:102F700090E001968F739927848FA689B7892C9347
:102F8000A089B1898C9180648C93938D848D9813E2
:102F900006C00288F389E02D80818F7D80830895AB
:102FA000CF93DF93EC01888D8823C9F0EA89FB89F0
:102FB000808185FD05C0A889B9898C9186FD0FC0E7
:102FC0000FB607FCF5CF808185FFF2CFA889B989BC
:102FD0008C9185FFEDCFCE010E94AF17E7CFDF9137
:102FE000CF910895EF92FF920F931F93CF93DF93AA
:102FF000EC0181E0888F9B8D8C8D981305C0E8894A
:10300000F989808185FD24C0F62E0B8D10E00F5FBD
:103010001F4F0F731127E02E8C8DE8120CC00FB6D6
:1030200007FCFACFE889F989808185FFF5CFCE01C9
:103030000E94AF17F1CF8B8DFE01E80FF11DE35A0F
:10304000FF4FF0820B8FEA89FB898081806207C085
:10305000EE89FF896083E889F989808180648083B3
:1030600081E090E0DF91CF911F910F91FF90EF9061
:1030700008951F920F920FB60F9211242F938F93E2
:103080009F93EF93FF93E0910305F09104058081F6
:10309000E0910905F0910A0582FD12C090818091AE
:1030A0000C058F5F8F7320910D05821751F0E09111
:1030B0000C05F0E0ED50FB4F958F80930C0501C09F
:1030C0008081FF91EF919F918F912F910F900FBE73
:1030D0000F901F9018951F920F920FB60F92112408
:1030E0002F933F934F935F936F937F938F939F9310
:1030F000AF93BF93EF93FF9383EF94E00E94AF17DA
:10310000FF91EF91BF91AF919F918F917F916F91BF
:103110005F914F913F912F910F900FBE0F901F9095
:10312000189583EF94E00E94731721E0892B09F42E
:1031300020E0822F0895E3EFF4E01382128288EEFC
:1031400093E0A0E0B0E084839583A683B7838DE904
:1031500091E0918380838DEC90E0958784878CEC5F
:1031600090E09787868788EC90E0918B808B89EC44
:1031700090E0938B828B8AEC90E0958B848B8EEC25
:1031800090E0978B868B118E128E138E148E08957D
:103190000C94E5210C947A22CF92DF92EF92FF9269
:1031A0000F931F93CF93DF936C017A018B01C0E0E3
:1031B000D0E0CE15DF0589F0D8016D918D01D601E3
:1031C000ED91FC910190F081E02DC6010995892BCC
:1031D00011F47E0102C02196ECCFC701DF91CF919F
:1031E0001F910F91FF90EF90DF90CF9008956115A0
:1031F000710579F0FB0101900020E9F73197AF01EB
:10320000461B570BDC01ED91FC910280F381E02D10
:10321000099480E090E00895EF92FF920F931F933E
:10322000CF93DF938C017B01C0E0D0E0F701EC0F7E
:10323000FD1F6491662361F0D801ED91FC9101902E
:10324000F081E02DC8010995892B11F02196EECF70
:10325000CE01DF91CF911F910F91FF90EF900895D4
:103260000C94F718DC01ED91FC910190F081E02DB8
:10327000099469EA71E00C94F7180F931F93CF93A8
:10328000DF93EC010E940C198C01CE010E943919C8
:10329000800F911FDF91CF911F910F9108950F9390
:1032A0001F93CF93DF93EC010E94F7188C01CE019E
:1032B0000E943919800F911FDF91CF911F910F91BB
:1032C00008954F925F926F927F92EF92FF920F93C9
:1032D0001F93CF93DF93CDB7DEB7A1970FB6F894C6
:1032E000DEBF0FBECDBF7C01FA01CB0119A2223097
:1032F00008F42AE08E010F5D1F4F422E512C612CE5
:10330000712CBF01A30192010E947021F901CA0131
:10331000015011096A3014F4605D01C0695CD80184
:103320006C93232B242B252B61F7B801C7010E9436
:10333000F718A1960FB6F894DEBF0FBECDBFDF9190
:10334000CF911F910F91FF90EF907F906F905F90C2
:103350004F900895CF92DF92EF92FF920F931F93B9
:10336000CF93DF93EC016A017B012115310579F4DC
:10337000E881F9810190F081E02D642FDF91CF91F8
:103380001F910F91FF90EF90DF90CF9009942A301A
:103390003105E9F477FF1AC06DE20E9432198C0101
:1033A00044275527BA014C195D096E097F092AE0A7
:1033B000CE010E946119800F911FDF91CF911F9163
:1033C0000F91FF90EF90DF90CF9008952AE0B70122
:1033D000A601CE01DF91CF911F910F91FF90EF9049
:1033E000DF90CF900C9461199A01AB01770F660BB7
:1033F000770B0C94AA190F931F93CF93DF93EC01D3
:103400009A01AB01770F660B770B0E94AA198C010A
:10341000CE010E943919800F911FDF91CF911F912A
:103420000F9108952115310541F4DC01ED91FC91D6
:103430000190F081E02D642F09940C9461190F9391
:103440001F93CF93DF93EC019A01462F50E060E089
:1034500070E00E94121A8C01CE010E943919800F6F
:10346000911FDF91CF911F910F9108950F931F939B
:10347000CF93DF93EC019A01AB0160E070E00E9412
:10348000121A8C01CE010E943919800F911FDF9111
:10349000CF911F910F9108950F931F93CF93DF93B7
:1034A000EC010E94121A8C01CE010E943919800F82
:1034B000911FDF91CF911F910F910895615030F0CE
:1034C0002091F100FC0120830196F8CF289A84E630
:1034D0008093990508954091940550919505209108
:1034E00092053091930542175307B4F49091E80088
:1034F0009570E1F39091E80092FD19C08093F1007E
:10350000809194059091950501968F739927892B49
:1035100019F48EEF8093E8008091940590919505C1
:103520000196909395058093940581E0089580E03D
:103530000895CF92DF92EF92FF920F931F93CF9354
:10354000DF931F92CDB7DEB7182F062FE42E862FFC
:10355000880F8E5F99830E946B1A83E00E946B1A1A
:10356000F12EC12E9981D92E8C2D8F19801798F4A8
:10357000F601E7FE02C0849101C080810E946B1AAF
:10358000182F80E00E946B1A8123FFEFCF1ADF0A09
:103590008111EACF01C081E00F90DF91CF911F919F
:1035A0000F91FF90EF90DF90CF9008958091D7001A
:1035B00081608093D70080EA8093D80089B58F7EA0
:1035C00089BD89B5826089BD09B400FEFDCF61E087
:1035D00070E080E090E00E94F5148091D8008F7C2C
:1035E00080618093D8008091E000807F8093E0002C
:1035F0000895CF93DF931F92CDB7DEB71982CE0126
:1036000001960E94B6160E94301FBE016F5F7F4F69
:103610000E94AB1E89810F90DF91CF9108952FB743
:10362000FC012083F89467706093E9000895CF93BC
:10363000DF931F92CDB7DEB7682FCE0101960E94AF
:103640000F1B8091F20099819FBF0F90DF91CF9166
:103650000895EF92FF920F931F93CF93DF931F92E2
:10366000CDB7DEB790919805992311F057FF03C0AD
:103670008FEF9FEF2AC08A017B01682FCE01019650
:103680000E940F1B8091F20090E0A8018017910723
:103690000CF4AC01842FF70194E6815038F0289A9D
:1036A000909399052091F1002193F7CF4115510591
:1036B00021F08091F200882321F089818FBFCA0117
:1036C00004C08BE68093E800F8CF0F90DF91CF9194
:1036D0001F910F91FF90EF900895CF93DF931F926A
:1036E000CDB7DEB741E050E0BE016F5F7F4F0E9473
:1036F000291B019719F4898190E002C08FEF9FEF99
:103700000F90DF91CF910895CF93DF931F92CDB7A4
:10371000DEB7682FCE0101960E940F1B9091E80042
:10372000892F807295FF04C09091F2008FE3891B6E
:1037300099819FBF0F90DF91CF9108956F927F92F3
:103740008F929F92AF92BF92CF92DF92EF92FF92B1
:103750000F931F93CF93DF931F92CDB7DEB7A82EA1
:103760006B01B42E052F80919805811103C08FEF56
:103770009FEF6AC08091960580FF05C08091E000B0
:1037800082608093E000EB2CF02E8AEF982E8A2D39
:103790008072782E9AE3892E8A2D8074682EE11427
:1037A000F10409F447C08A2D0E94841B182F81114F
:1037B0000AC09A949920D9F261E070E080E090E02C
:1037C0000E94F514ECCF90E0E816F9060CF41E2DDB
:1037D0006A2DCE0101960E940F1B8091E80085FFA3
:1037E00026C0812F90E0E81AF90A772029F01150BD
:1037F000A8F01092F100FBCFF601A7FE07C0115010
:1038000058F024912093F1003196F9CF115020F017
:1038100021912093F100FACFC80ED91E8091E800C3
:1038200085FF0FC0E114F10411F461100AC0898111
:103830008FBFB5CF5D9A84E680939A058B2D902F2C
:1038400003C08092E800F3CF0F90DF91CF911F91DA
:103850000F91FF90EF90DF90CF90BF90AF909F902F
:103860008F907F906F9008951092E90010929505C7
:103870001092940590939305809392050895DF929A
:10388000EF92FF920F931F93CF93DF93D82E8A016D
:103890007B01E40EF51EEB01CE15DF0571F0D7FEBE
:1038A00003C0FE01849101C088810E946B1A219699
:1038B0008111F2CF8FEF9FEF01C0C801DF91CF914F
:1038C0001F910F91FF90EF90DF900895BF92CF92DC
:1038D000DF92EF92FF920F931F93CF93DF936C01D0
:1038E0008B01EB019BEFB92E2097C1F07E01C13413
:1038F000D1051CF080E4E82EF12C8091E80082FFD5
:10390000FCCFC8018C1B9D0B6E2D8C0D9D1D0E9444
:103910005E1AB092E800CE19DF09E6CFC801DF9148
:10392000CF911F910F91FF90EF90DF90CF90BF90BC
:1039300008951F920F920FB60F921124CF92DF922B
:10394000EF92FF920F931F932F933F934F935F93A9
:103950006F937F938F939F93AF93BF93EF93FF9357
:10396000CF93DF93CDB7DEB76C97DEBFCDBF10929C
:10397000E9008091E80083FF24C168E0CE0145960C
:103980000E945E1A82EF8093E8008D8987FF05C050
:103990009091E80090FFFCCF03C09EEF9093E80069
:1039A000982F907609F0F1C09E892F89188D91117A
:1039B0000CC0803829F4809197058093F10002C0F3
:1039C0001092F1001092F100F5C0422F50E0512BFF
:1039D000913051F48111EEC04130510509F0EAC037
:1039E000809197058D7F0BC0933061F48111E2C007
:1039F0004130510509F0DEC08091970582608093C7
:103A00009705D8C0953041F48091E80080FFFCCF45
:103A100020682093E300CEC0963009F08CC0EB8C78
:103A2000FC8C123069F580E090E00E94341C0E940A
:103A3000F91A99E09E012F5F3F4F6901F901292F83
:103A400011922A95E9F799831A8391E09E8390EA6F
:103A500098879AEF99872091940530919505275F73
:103A60003F4F3C832B838D83C7010E94341C49E068
:103A700050E0B60180E00E943F1C0E94F91A9AC0F3
:103A8000C7010E94341C0E94301FBE016B5E7F4F35
:103A90000E94D41E009719F00CF08CC08FC011301A
:103AA00071F48B8D9C8D089719F481E080939105BA
:103AB0008091910581112FC068E272E031C013300E
:103AC00009F07CC08F89882349F1823029F440E8CD
:103AD0006FE082E492E006C0813039F440E867E0AC
:103AE0008AE392E00E94991A63C0833009F066C0AD
:103AF0000E94301F8E010F5F1F4FB8010E94F31EFE
:103B0000F80101900020E9F73197BF01601B710BAC
:103B100040E0C801E7CF66E172E002C062E572E012
:103B20006115710509F44AC0FB01449150E080E839
:103B30000E943F1C3FC0973009F440C0983021F4E8
:103B400081E08093F10036C09930A1F58370B1F522
:103B5000E3E2F1E081E021E036E39081992361F036
:103B60008093E9002093EB0091919093EC003093C7
:103B7000ED008F5F873089F78EE78093EA0010921F
:103B8000EA008F898093980515C08B8D9C8D0E94CB
:103B9000341C898D811105C0CE0145960E94C11645
:103BA00007C00E94301FBE016B5E7F4F0E94121F34
:103BB000882321F08EEF8093E80003C081E2809398
:103BC000EB006C960FB6F894DEBF0FBECDBFDF9151
:103BD000CF91FF91EF91BF91AF919F918F917F9185
:103BE0006F915F914F913F912F911F910F91FF9096
:103BF000EF90DF90CF900F900FBE0F901F90189511
:103C00008093E9008091F200882319F08AE3809381
:103C1000E80008951F920F920FB60F9211242F9370
:103C20003F934F935F936F937F938F939F93AF9344
:103C3000BF93CF93EF93FF93C091E1008091E10098
:103C4000837F8093E100C3FF0FC01092E90081E001
:103C50008093EB001092EC0082E38093ED001092D1
:103C6000980588E08093F000C2FF19C083E00E94AD
:103C7000001E80919A05882339F080919A05815021
:103C800080939A05882389F180919905882339F0DA
:103C900080919905815080939905882341F1C4FF53
:103CA00010C08091E2008E7E81608093E20080915E
:103CB000E1008F7E8093E100809196058E7E806189
:103CC00011C0C0FF16C08091E2008E7E806180939B
:103CD000E2008091E1008E7E8093E1008091960564
:103CE0008E7E81608093960504C05D98CDCF289824
:103CF000D6CFFF91EF91CF91BF91AF919F918F91CF
:103D00007F916F915F914F913F912F910F900FBED7
:103D10000F901F9018951092980510929705109289
:103D200096050E94D61A8091E1008E7E8093E10074
:103D30008DE08093E200559A209A5D982898EEEFE6
:103D4000FFE7859194918B3F9C4D19F481E080931E
:103D5000F20408950895EF92FF920F931F93CF936B
:103D6000DF937B01FC01C281D38100E010E020974A
:103D700081F0E881F9810280F381E02DB701CE0165
:103D8000099597FD08C0080F191F0884D985C02D13
:103D9000EECFC80102C08FEF9FEFDF91CF911F914F
:103DA0000F91FF90EF9008950F931F93CF93DF93A0
:103DB0008B01FC01C281D381209771F0E881F981E8
:103DC0000480F581E02DB801CE010995009731F40A
:103DD0000884D985C02DF0CF80E090E0DF91CF91AD
:103DE0001F910F9108950F931F93CF93DF938B0132
:103DF000FC01C281D381209771F0E881F9810680AE
:103E0000F781E02DB801CE010995080F111D088436
:103E1000D985C02DF0CFF8011082DF91CF911F918D
:103E20000F9108950F931F93CF93DF938B01FC01A4
:103E3000C281D381209771F0E881F9810190F081EE
:103E4000E02DB801CE010995811105C00884D985FE
:103E5000C02DF0CF80E0DF91CF911F910F91089599
:103E600080919F0581110DC082E080939B0584E0C5
:103E700080939C0510929E0510929D0581E0809391
:103E80009F058BE995E008955058BB27AA270E940B
:103E90005C1F0C94A0200E94922038F00E94992070
:103EA00020F039F49F3F19F426F40C948F200EF47F
:103EB000E095E7FB0C948920E92F0E94B12058F38C
:103EC000BA17620773078407950720F079F4A6F5FF
:103ED0000C94D3200EF4E0950B2EBA2FA02D0B01DD
:103EE000B90190010C01CA01A0011124FF27591B3F
:103EF00099F0593F50F4503E68F11A16F040A22F45
:103F0000232F342F4427585FF3CF469537952795B5
:103F1000A795F0405395C9F77EF41F16BA0B620BB4
:103F2000730B840BBAF09150A1F0FF0FBB1F661FFB
:103F3000771F881FC2F70EC0BA0F621F731F841F3E
:103F400048F4879577956795B795F7959E3F08F064
:103F5000B0CF9395880F08F09927EE0F9795879526
:103F600008950E94652008F481E008950E94CA1F08
:103F70000C94A0200E94992058F00E94922040F0BA
:103F800029F45F3F29F00C94892051110C94D4201E
:103F90000C948F200E94B12068F39923B1F355232C
:103FA00091F3951B550BBB27AA276217730784074C
:103FB00038F09F5F5F4F220F331F441FAA1FA9F3E2
:103FC00035D00E2E3AF0E0E832D091505040E695D0
:103FD000001CCAF72BD0FE2F29D0660F771F881F31
:103FE000BB1F261737074807AB07B0E809F0BB0B24
:103FF000802DBF01FF2793585F4F3AF09E3F510538
:1040000078F00C9489200C94D4205F3FE4F3983E20
:10401000D4F3869577956795B795F7959F5FC9F720
:10402000880F911D9695879597F90895E1E0660FA1
:10403000771F881FBB1F621773078407BA0720F01A
:10404000621B730B840BBA0BEE1F88F7E095089583
:10405000E89409C097FB3EF4909580957095619522
:104060007F4F8F4F9F4F9923A9F0F92F96E9BB27D8
:104070009395F695879577956795B795F111F8CF54
:10408000FAF4BB0F11F460FF1BC06F5F7F4F8F4FBF
:104090009F4F16C0882311F096E911C0772321F0B5
:1040A0009EE8872F762F05C0662371F096E8862F4D
:1040B00070E060E02AF09A95660F771F881FDAF7A4
:1040C000880F9695879597F90895990F0008550FD1
:1040D000AA0BE0E8FEEF16161706E807F907C0F08E
:1040E00012161306E407F50798F0621B730B840B96
:1040F000950B39F40A2661F0232B242B252B21F470
:1041000008950A2609F4A140A6958FEF811D811D0F
:10411000089597F99F6780E870E060E008959FEF49
:1041200080EC089500240A9416161706180609064E
:10413000089500240A94121613061406050608951D
:10414000092E0394000C11F4882352F0BB0F40F4A5
:10415000BF2B11F460FF04C06F5F7F4F8F4F9F4FE5
:10416000089557FD9058440F551F59F05F3F71F067
:104170004795880F97FB991F61F09F3F79F08795CE
:104180000895121613061406551FF2CF4695F1DF57
:1041900008C0161617061806991FF1CF86957105E7
:1041A000610508940895E894BB2766277727CB011B
:1041B00097F908950E94652008F48FEF08950E94F2
:1041C000F2200C94A0200E94922038F00E949920A6
:1041D00020F0952311F00C9489200C948F20112449
:1041E0000C94D4200E94B12070F3959FC1F3950FD9
:1041F00050E0551F629FF001729FBB27F00DB11D6B
:10420000639FAA27F00DB11DAA1F649F6627B00DFA
:10421000A11D661F829F2227B00DA11D621F739FE3
:10422000B00DA11D621F839FA00D611D221F749FF1
:104230003327A00D611D231F849F600D211D822F38
:10424000762F6A2F11249F5750409AF0F1F088235F
:104250004AF0EE0FFF1FBB1F661F771F881F91508C
:104260005040A9F79E3F510580F00C9489200C9492
:10427000D4205F3FE4F3983ED4F386957795679515
:10428000B795F795E7959F5FC1F7FE2B880F911DB6
:104290009695879597F90895DB018F939F930E94D8
:1042A000C621BF91AF91A29F800D911DA39F900D3C
:1042B000B29F900D1124089597FB072E16F40094D9
:1042C00007D077FD09D00E94D12107FC05D03EF42C
:1042D000909581959F4F0895709561957F4F0895B2
:1042E000A1E21A2EAA1BBB1BFD010DC0AA1FBB1FFA
:1042F000EE1FFF1FA217B307E407F50720F0A21B6C
:10430000B30BE40BF50B661F771F881F991F1A94D8
:1043100069F760957095809590959B01AC01BD0102
:10432000CF010895052E97FB1EF400940E94A92149
:1043300057FD07D00E94702107FC03D04EF40C9467
:10434000A92150954095309521953F4F4F4F5F4F94
:10435000089590958095709561957F4F8F4F9F4FF1
:104360000895EE0FFF1F0590F491E02D0994A29F90
:10437000B001B39FC001A39F700D811D1124911D39
:10438000B29F700D811D1124911D08950E94B721C7
:10439000A59F900DB49F900DA49F800D911D112499
:1043A0000895AA1BBB1B51E107C0AA1FBB1FA6177C
:1043B000B70710F0A61BB70B881F991F5A95A9F7CE
:1043C00080959095BC01CD010895CF93DF93823005
:1043D000910510F482E090E0E091A905F091AA0522
:1043E00020E030E0C0E0D0E0309711F14081518111
:1043F00048175907C0F04817590761F48281938123
:10440000209719F09B838A832BC09093AA058093F1
:10441000A90526C02115310519F04217530718F4D4
:104420009A01BE01DF01EF010280F381E02DDCCFB4
:104430002115310509F1281B390B2430310590F481
:1044400012968D919C9113976115710521F0FB01D6
:104450009383828304C09093AA058093A905FD01EC
:10446000329644C0FD01E20FF31F819391932250D5
:1044700031092D933C933AC02091A7053091A805AE
:10448000232B41F420910201309103013093A805C0
:104490002093A705209100013091010121153105DC
:1044A00041F42DB73EB74091040150910501241B02
:1044B000350BE091A705F091A805E217F307A0F4EA
:1044C0002E1B3F0B2817390778F0AC014E5F5F4F6A
:1044D0002417350748F04E0F5F1F5093A8054093EF
:1044E000A7058193919302C0E0E0F0E0CF01DF9156
:1044F000CF9108950F931F93CF93DF93009709F403
:104500008CC0FC013297138212820091A905109190
:10451000AA050115110581F420813181820F931FB5
:104520002091A7053091A8052817390779F5F09350
:10453000A805E093A70571C0D80140E050E0AE1790
:10454000BF0750F412962D913C911397AD012115A0
:10455000310509F1D901F3CF9D01DA0133832283BB
:1045600060817181860F971F8217930769F4EC01B0
:1045700028813981260F371F2E5F3F4F31832083DB
:104580008A819B8193838283452B29F4F093AA052A
:10459000E093A90542C01396FC93EE931297ED01A8
:1045A000499159919E01240F351FE217F30771F4C9
:1045B00080819181840F951F029611969C938E9312
:1045C0008281938113969C938E931297E0E0F0E0A2
:1045D000D80112968D919C911397009719F0F801CC
:1045E0008C01F6CF8D919C9198012E5F3F4F820FE9
:1045F000931F2091A7053091A8052817390769F462
:10460000309729F41092AA051092A90502C01382CE
:1046100012821093A8050093A705DF91CF911F91F7
:104620000F910895FB0151915523A9F0BF01DC01C1
:104630004D9145174111E1F759F4CD01019000204A
:1046400049F04D9140154111C9F3FB014111EFCFE4
:1046500081E090E00197089511E0C0E3D1E004C04B
:10466000FE010E94B1212196C133D107C9F7F89408
:02467000FFCF7A
:104672000000AD058000E8032C010000B613B6135C
:10468200B613B613B613FFFFFFFF00E100000000F0
:10469200000000C180810000004F4B006E6F772840
:1046A200293A2000413A20007374007061727365E8
:1046B20074696D653A20006C656E28627472786266
:1046C2007566293A2000676300443A200000000022
:1046D200009C096C09400948095C096B090000004B
:1046E200008A0CCC18F70C690CDF0CDE0C1F1C1FA7
:1046F2001E1F1E1F1F1E1F1E1F000000005916A096
:1047020016831693166F16801600000000F217CC5F
:104712001873178D177F17D0170D0A006E616E0080
:08472200696E66006F76660007
:00000001FF
