:100000000C9432010C9413060C94EC050C94C50569
:100010000C949E050C945A010C945A010C9477058B
:100020000C945A010C94D4070C94C00B0C94F10C52
:100030000C945A010C945A010C945A010C945A01D4
:100040000C945A010C945A010C945A010C945A01C4
:100050000C945A010C945A010C945A010C942D05DD
:100060000C945A010C945A010C945A010C945A01A4
:100070000C945A010C945A010C945A010C945A0194
:100080000C945A010C945A010C945A010C94920944
:100090000C9464080C945A010C945A010C945A0163
:1000A0000C945A010C945A010C945A018F03920338
:1000B000810385038903B303B303B30396039A0350
:1000C0009E03A403A803B303AE03000000002400B2
:1000D00027002A002D0030000000000200090F0058
:1000E00000030401000C00000000000000000000FC
:1000F0000000000000000044657669636520494403
:100100003A200047593932353020696E6974696187
:100110006C697A696E672E2E2E2E0053656E736F92
:100120007220656E61626C65643A2000475939320D
:10013000353020636F6E6E656374696F6E20737502
:10014000636365737366756C6C792E004759393239
:10015000353020636F6E6E656374696F6E20666103
:10016000696C65642E00496E697469616C6C697AAA
:10017000696E672042542053657269616C20706F0C
:1001800072742E2E2E0053657269616C2072656147
:1001900064792E0000000000250028002B002E00AE
:1001A0003100000000002300260029002C002F0051
:1001B000040404040403040502020202040302020C
:1001C00002020606060606060404020202040404ED
:1001D0000802011040804010204080408008020446
:1001E0000180402010020110801020404020080BA8
:1001F00000020202010009040000010202000005E1
:10020000240010010524010101042402060524062E
:1002100000010705810310004009040100020A00E3
:1002200000000705020240000007058302400000AD
:100230000403090412010002EF0201404123378048
:1002400000010102030141726475696E6F204C4C1C
:10025000430041726475696E6F204D6963726F006F
:100260006315210F11241FBECFEFDAE0DEBFCDBF33
:1002700011E0A0E0B1E0E8E2F4E302C005900D92E5
:10028000AC36B107D9F723E0ACE6B1E001C01D926E
:10029000AD3AB207E1F711E0C1E3D1E004C0219724
:1002A000FE010E94E819C033D107C9F70E942B0F45
:1002B0000C94071A0C940000CF93DF931F92CDB7D4
:1002C000DEB76983DC01ED91FC910280F381E02DC2
:1002D00041E050E0BE016F5F7F4F09950F90DF91C5
:1002E000CF91089583E08093E9008091F200882304
:1002F00019F08AE38093E8000895FC0184859585D0
:1003000097FD0BC09FB7F89482E08093E90080913D
:10031000F2009FBF90E0019608959FB7F89482E0A5
:100320008093E9008091F2009FBF90E008953FB76D
:10033000F8948091220290912302A0912402B0911E
:10034000250226B5A89B05C02F3F19F00196A11DD7
:10035000B11D3FBFBA2FA92F982F8827820F911D5B
:10036000A11DB11DBC01CD0142E0660F771F881FA2
:10037000991F4A95D1F70895089580911C0290E045
:1003800020911B02821B910908952091280230912F
:1003900029022817390771F49091260280912702CB
:1003A000981741F0E0912602F0E0E554FE4F80817D
:1003B00090E008958FEF9FEF089508951F93CF93D6
:1003C000DF93DC015C962D913C915D972115310501
:1003D00039F481E090E013969C938E9312973DC080
:1003E0005196ED91FC91529750969C915097892F80
:1003F00080951FB75E964C915E9741FB772770F909
:1004000041FD6095F8944081772311F0492B01C09C
:1004100048234083E9012197F1F748E0508160FFCC
:1004200002C0592B01C058235083E9012197F1F7ED
:100430006695415099F7772321F090818923808335
:1004400003C08081982B90831FBF5C968D919C91F7
:100450005D970197F1F721E030E0C901DF91CF917D
:100460001F910895209128023091290228173907F9
:1004700071F4809127022091260290E0805C9F4FCA
:10048000821B910960E470E00E94B219089580E037
:1004900090E0089520912802309129022817390709
:1004A000B9F49091260280912702981789F0E09183
:1004B0002602F0E0E554FE4F80812091260230E0D4
:1004C0002F5F3F4F2F7333272093260290E008952C
:1004D0008FEF9FEF089585ED8093BC008091BC0065
:1004E00084FDFCCF10927002089540919601262F52
:1004F00030E0240F311D21323105DCF420917002EF
:100500002430C9F4FC0180E090E0861758F4309163
:1005100096012191DC01AC58BE4FA30FB11D2C9365
:100520000196F3CF80919601680F6093960180E069
:10053000089581E0089582E008950895E0911B02F6
:1005400080911C02E81730F4F0E0E550FE4F808106
:1005500090E008958FEF9FEF089590911B02809196
:100560001C02981750F4E92FF0E0E550FE4F20816F
:1005700030E09F5F90931B0202C02FEF3FEFC90155
:100580000895CF92DF92EF92FF920F931F93CF9334
:10059000DF937C01262F972F8A0180917102882397
:1005A00091F0C62FD72F6E01C40ED51ECC15DD05D8
:1005B00071F06991D701ED91FC910190F081E02DEE
:1005C000C7010995F3CF642F822F0E947502C801DD
:1005D000DF91CF911F910F91FF90EF90DF90CF901F
:1005E0000895CF93DF931F92CDB7DEB76983209133
:1005F00071022223D1F020919402203240F021E0B8
:1006000030E0FC013383228380E090E015C08091CC
:100610007202E82FF0E0ED58FD4F998190838F5FD3
:10062000809372028093940205C061E0CE0101962E
:100630000E94750281E090E00F90DF91CF910895C4
:100640000F931F93CF93DF931F92CDB7DEB78C012B
:10065000FC018485958597FF0EC0CE0101960E940E
:10066000820B019719F4298130E002C02FEF3FEF90
:10067000F80135872487F801848595850F90DF91EF
:10068000CF911F910F910895CF93DF931F92CDB714
:10069000DEB7FC018485958597FD05C02FEF3FEF00
:1006A000358724870BC0CE0101960E94820B0197EB
:1006B00019F4898190E002C08FEF9FEF0F90DF91D6
:1006C000CF9108950E94021A362F90E0FC01E85263
:1006D000FF4F4491FC01E153FE4F2491FC01E05592
:1006E000FE4F8491882309F451C04423E1F150E086
:1006F000FA013197EF30F105B0F5EA5AFF4F0C944B
:10070000E819909180009F7707C0909180009F7DAD
:1007100003C090918000977F9093800024C094B58F
:100720009F7702C094B59F7D94BD1DC090919000AD
:100730009F7707C0909190009F7D03C0909190009B
:10074000977F909390000FC09091C0009F7703C057
:100750009091C0009F7D9093C00005C09091C20011
:10076000977F9093C200E82FF0E0EE0FFF1FEC564A
:10077000FE4FA591B4918FB7F894EC91311103C05D
:1007800020952E2301C02E2B2C938FBF0895CF933D
:10079000DF9390E0FC01E153FE4F2491FC01E05512
:1007A000FE4F8491882361F190E0880F991FFC012E
:1007B000E653FF4FC591D491FC01EC56FE4FA59135
:1007C000B491611109C09FB7F89488812095822364
:1007D0008883EC912E230BC0623061F49FB7F894AC
:1007E0003881822F809583238883EC912E2B2C9344
:1007F0009FBF06C08FB7F894E8812E2B28838FBF48
:10080000DF91CF9108958F929F92AF92BF92CF9236
:10081000DF92EF92FF926B017C010E9497014B01E6
:100820005C01C114D104E104F104F1F00E949701CC
:10083000DC01CB0188199909AA09BB09883E9340BC
:10084000A105B10570F321E0C21AD108E108F10851
:1008500088EE880E83E0981EA11CB11CC114D1043F
:10086000E104F10419F7DDCFFF90EF90DF90CF9016
:10087000BF90AF909F908F9008957F928F929F929C
:10088000AF92BF92CF92DF92EF92FF920F931F939E
:10089000CF93DF936C015B017A018091150188236E
:1008A00009F46BC080914902882309F466C08091E5
:1008B000460280FF05C08091E00082608093E000E6
:1008C000E70110E00AEF83E0982E90E4792E2AE306
:1008D000822E209709F448C08FB7F8949092E900CF
:1008E0009091E80095FF06C09091F200272D291BFA
:1008F000922F01C090E08FBF91110AC0015009F4FE
:100900003CC061E070E080E090E00E940304E1CF31
:10091000292F30E0C217D3070CF49C2F8FB7F8941F
:100920009092E9002091E80025FF1CC0292F30E0BB
:10093000C21BD30BF501915020F041914093F1007F
:10094000FACFA20EB31E112319F08092E80009C05D
:100950009091E80095FD06C08092E80011E0209794
:1009600009F010E08FBFB5CF1111B6CF5D9A84E6C4
:10097000809347021E141F0444F081E090E0F601CA
:100980009383828380E090E001C0C701DF91CF9123
:100990001F910F91FF90EF90DF90CF90BF90AF909D
:1009A0009F908F907F9008952FB7F89460911E02CA
:1009B00070911F0280912002909121022FBF089513
:1009C0000F931F930E94D404609370017093710180
:1009D000809372019093730100916C0110916D01ED
:1009E00020916E0130916F01DC01CB01801B910BD6
:1009F000A20BB30B86399105A105B10558F18DE421
:100A000091E00E94A00989E591E00E94A0098091EF
:100A1000700190917101A0917201B0917301809366
:100A20006C0190936D01A0936E01B0936F01809162
:100A30002A0290912B02A0912C02B0912D020196D6
:100A4000A11DB11D80932A0290932B02A0932C022A
:100A5000B0932D021F910F9108951F920F920FB620
:100A60000F9211242F933F938F939F93AF93BF9334
:100A700080911E0290911F02A0912002B09121024C
:100A800030911D0223E0230F2D3720F40196A11D84
:100A9000B11D05C026E8230F0296A11DB11D2093AC
:100AA0001D0280931E0290931F02A0932002B09318
:100AB00021028091220290912302A0912402B09100
:100AC00025020196A11DB11D80932202909323025D
:100AD000A0932402B0932502BF91AF919F918F9173
:100AE0003F912F910F900FBE0F901F9018951F925E
:100AF0000F920FB60F9211242F933F934F935F9352
:100B00006F937F938F939F93AF93BF93EF93FF93D5
:100B1000E0910801F09109010995FF91EF91BF91D2
:100B2000AF919F918F917F916F915F914F913F9185
:100B30002F910F900FBE0F901F9018951F920F923C
:100B40000FB60F9211242F933F934F935F936F93A0
:100B50007F938F939F93AF93BF93EF93FF93E09116
:100B60000601F09107010995FF91EF91BF91AF91B7
:100B70009F918F917F916F915F914F913F912F91B5
:100B80000F900FBE0F901F9018951F920F920FB6E7
:100B90000F9211242F933F934F935F936F937F9303
:100BA0008F939F93AF93BF93EF93FF93E0910401D3
:100BB000F09105010995FF91EF91BF91AF919F9140
:100BC0008F917F916F915F914F913F912F910F90F6
:100BD0000FBE0F901F9018951F920F920FB60F9295
:100BE00011242F933F934F935F936F937F938F9332
:100BF0009F93AF93BF93EF93FF93E0910201F09126
:100C000003010995FF91EF91BF91AF919F918F9152
:100C10007F916F915F914F913F912F910F900FBEF8
:100C20000F901F9018951F920F920FB60F921124DC
:100C30002F933F934F935F936F937F938F939F93E4
:100C4000AF93BF93EF93FF93E0910001F091010107
:100C50000995FF91EF91BF91AF919F918F917F91F6
:100C60006F915F914F913F912F910F900FBE0F9019
:100C70001F9018952F923F924F925F926F927F92A2
:100C80008F929F92AF92BF92CF92DF92EF92FF929C
:100C90000F931F93CF93DF93CDB7DEB728970FB68F
:100CA000F894DEBF0FBECDBFD82EC62E48871901DF
:100CB00078010E94D4042B013C018D2C880C912CCE
:100CC00010E001E04885A42EB12C970140E050E0EF
:100CD0002B833C834D835E834885941608F0A0C027
:100CE00000937102D09293021092720210929402B9
:100CF0006C2D85EE92E00E94F1020E94B8090093EB
:100D00007102D0929302109272021092940280911A
:100D100070028111FCCF9501291931092132310569
:100D200014F020E230E02F83213210F030E23F83D4
:100D30000093700200936F024FEF40936E02109287
:100D40006D028F81815080936C0200934B028091E1
:100D50004B02882980934B0280914A02813071F4C2
:100D600010924A0280914B028093BB008091BC009C
:100D700083FDF8CF55EC5093BC0003C085EE809303
:100D8000BC00809170028130E1F380916D022F816F
:100D9000821718F430916D023F83ACE4B2E0EBEFC0
:100DA000F1E08E2F4BEF51E0841B5F81851718F423
:100DB0008D918193F6CF10921B0250931C0280916B
:100DC0001B022F81281721F1E114F10481F4910114
:100DD000210F311D17FD3A953A83298385EE92E064
:100DE0000E94AD02A981BA818C931F5FE8CF0E9457
:100DF000D404DC01CB0184199509A609B7092B811C
:100E00003C814D815E8182179307A407B507F8F2F4
:100E10000E94B8098885813208F080E2980E5CCF84
:100E2000E114F104D9F00E94D404AB01BC014419CF
:100E3000550966097709C701A0E0B0E048175907CE
:100E40006A077B0758F05885852F90E0212F012EE7
:100E5000000C330B281739070CF41FEF812F28964D
:100E60000FB6F894DEBF0FBECDBFDF91CF911F91BB
:100E70000F91FF90EF90DF90CF90BF90AF909F9039
:100E80008F907F906F905F904F903F902F9008953C
:100E9000CF92DF92EF92FF920F931F93CF93DF9346
:100EA00000D0CDB7DEB7F82EE62ED42EC22E08EE37
:100EB00013E09E012E5F3F4F41E00E943A063A81C7
:100EC000E1E0F0E0AF0101C0440FDA94EAF7CC2092
:100ED00019F0932F942B03C0942F909593239A830A
:100EE0009983AE014F5F5F4F6E2D8F2D0E94770A61
:100EF0000F900F90DF91CF911F910F91FF90EF9086
:100F0000DF90CF900895BF92CF92DF92EF92FF9241
:100F10000F931F93CF93DF9300D0CDB7DEB7F82E9A
:100F2000E62EC42EB22ED02E08EE13E09E012E5FC8
:100F30003F4F41E00E943A06882349F14C2D50E092
:100F40004B1951094F5F5F4F21E030E002C0220F83
:100F5000331FBA94E2F721503109042E01C0220F49
:100F60000A94EAF78D2D01C0880F4A95EAF7322FCF
:100F700030959A8193232823292B2A832983AE0134
:100F80004F5F5F4F6E2D8F2D0E94770A01C080E06A
:100F90000F900F90DF91CF911F910F91FF90EF90E5
:100FA000DF90CF90BF9008951F920F920FB60F92CF
:100FB00011242F933F934F935F936F937F938F935E
:100FC0009F93AF93BF93EF93FF93E0912802F0912B
:100FD0002902309709F451C0968DA685B78585857D
:100FE00091FF04C09C91892329F447C09C918923D7
:100FF00009F043C0A389B4899C9185898095892390
:101000008C93868997890197F1F7608D718DA685FC
:10101000B785558538E020E0CB010197F1F7822FA5
:1010200090E095958795282F4C91452309F02068ED
:10103000315091F7868D81FD20958091270290E0B7
:1010400001968F73992730912602381749F0A091A5
:101050002702B0E0A554BE4F2C938093270203C013
:10106000868D8160868F828D938D0197F1F7A3899C
:10107000B4899C918589892B8C93FF91EF91BF91C5
:10108000AF919F918F917F916F915F914F913F9120
:101090002F910F900FBE0F901F901895E09128028E
:1010A000F0912902E817F90769F4A389B4899C91A2
:1010B0008589809589238C931092290210922802A9
:1010C00081E0089580E008951F920F920FB60F926D
:1010D00011242F933F934F935F936F937F938F933D
:1010E0009F93AF93BF93EF93FF938091B900887F55
:1010F000803609F49CC068F5883209F45BC090F42E
:10110000803109F454C038F4882309F4F6C08830DB
:1011100009F44DC0F6C0883109F44CC0803209F49E
:101120005DC0EFC0803409F468C048F4803309F42E
:1011300055C0883309F0E5C080936E02D8C0803571
:1011400009F44FC0883509F45DC0883409F0D9C06E
:10115000D6C0883909F4C7C0A8F4883709F467C035
:1011600038F4883609F463C0803709F460C0C9C018
:10117000883809F4B8C0803909F45FC0803809F0B4
:10118000C0C05BC0803B09F486C038F4803A09F4E3
:1011900066C0883A09F47FC0B4C0803C09F4A7C097
:1011A000883C09F4A4C0883B09F48AC0AAC0809195
:1011B0004B0210C090916D0280916C02981770F5EF
:1011C000E0916D0281E08E0F80936D02F0E0E45BB0
:1011D000FD4F80818093BB0085EC86C080936E02BA
:1011E0008EC0E0916D0281E08E0F80936D02809140
:1011F000BB00F0E0E45BFD4F808390916D02809135
:101200006C026EC0E0916D0281E08E0F80936D02E2
:101210008091BB00F0E0E45BFD4F808380916F0222
:1012200081116DC081E080934A0284EA61C083E04D
:10123000809370021092BA01CFCF8091BA018032B0
:1012400008F051C0E091BA0181E08E0F8093BA019D
:101250008091BB00F0E0E656FE4F8083BDCF85EC69
:101260008093BC00109270028091BA01803230F4F9
:10127000E091BA01F0E0E656FE4F10826091BA01AB
:1012800070E0E0919801F09199018AE991E0099567
:101290001092BA0136C084E08093700210929701D8
:1012A00010929601E0919401F09195010995809139
:1012B0009601811105C081E080939601109274011E
:1012C000E091970181E08E0F80939701F0E0EC5858
:1012D000FE4F80818093BB00909197018091960191
:1012E000981708F479CF85E88093BC000AC085EC94
:1012F0008093BC001092700204C010926E020E9493
:101300006B02FF91EF91BF91AF919F918F917F9170
:101310006F915F914F913F912F910F900FBE0F9062
:101320001F9018951F920F920FB60F9211241092D2
:101330009A03109299030F900FBE0F901F9018956B
:10134000BC01009791F0FC0101900020E9F7319772
:10135000AF01481B590BE0919502F0919602028073
:10136000F381E02D85E992E0099480E090E0089512
:101370002091940290919302213208F04AC080910A
:1013800070028111FCCF32E03093700231E0309373
:101390006F023FEF30936E0210926D0220936C0249
:1013A000A3E7B2E04CE452E0FA013E2F341B3217BF
:1013B00018F43D913193F9CF10924B0220914B02DA
:1013C000990F922B90934B0290914A02913061F4C5
:1013D00010924A0290914B029093BB009091BC00F6
:1013E00093FDF8CF95EC01C095EE9093BC009091E1
:1013F00070029230E1F390916E029F3F79F08091FC
:101400006E02803241F080916E02803331F084E0D0
:1014100005C081E003C082E001C083E01092720247
:10142000109294021092710208958F929F92AF923F
:10143000BF920F931F93CF93DF93CDB7DEB7A197E2
:101440000FB6F894DEBF0FBECDBF19A2423008F42C
:101450004AE08E010F5D1F4F842E912CA12CB12CE0
:10146000A50194010E94C619E62FB901CA010150D5
:101470001109EA3014F4E05D01C0E95CD801EC9395
:10148000232B242B252B61F7C8010E94A009A196CC
:101490000FB6F894DEBF0FBECDBFDF91CF911F9185
:1014A0000F91BF90AF909F908F9008950F931F93CF
:1014B000CF93DF938C01C0E0D0E0F801EC0FFD1F6B
:1014C0006491662371F0E0919502F091960201908B
:1014D000F081E02D85E992E00995892B11F02196A4
:1014E000ECCFCE01DF91CF911F910F910895CF9353
:1014F000DF93EA0191E0909371028093930210923E
:1015000072021092940285EE92E00E94F1026881CC
:1015100085EE92E00E94F1020E94B80991E08111EB
:1015200090E0892FDF91CF910895CF93DF930E94B0
:10153000560AEC0189E591E00E94A0098C0F9D1FDD
:10154000DF91CF910895E0919502F091960201907C
:10155000F081E02D682F85E992E009944F925F9227
:101560006F927F928F929F92AF92BF92CF92DF92B3
:10157000EF92FF926B017C01B42E9B01AC010E94A3
:101580009819882319F08FE591E027C026013701CB
:10159000E89477F82FEF3FEF4FE75FE7C301B20121
:1015A0000E94981981110DC02FEF3FEF4FE75FE7C1
:1015B000C301B2010E94881718161CF483E691E05B
:1015C0000CC02FEF3FEF4FE75FE4C701B6010E9469
:1015D000E018181684F487E691E0FF90EF90DF9012
:1015E000CF90BF90AF909F908F907F906F905F90C3
:1015F0004F900C94A0092FEF3FEF4FE75FECC7012E
:10160000B6010E94881787FDE6CF20E030E0A901EF
:10161000C701B6010E94881787FF09C08DE20E94AA
:10162000A30A4C01F7FAF094F7F8F09402C0812C69
:10163000912CA12C60E070E080E09FE3AB1441F0BE
:1016400020E030E040E251E40E948D17A394F6CFF1
:101650009B01AC01C701B6010E941C172B013C0184
:101660000E94FF176B017C010E942E189B01AC01A8
:10167000C301B2010E941B172B013C014AE0C701C4
:10168000B6010E94150A7C01E80CF91CBB2029F068
:101690008EE20E94A30AE80EF91EDB2CDD2021F168
:1016A00020E030E040E251E4C301B2010E94E518BD
:1016B0002B013C010E94FF174B01A12CB12C4AE0E9
:1016C000C501B4010E94150AE80EF91EC501B40156
:1016D0000E942E189B01AC01C301B2010E941B178E
:1016E0002B013C01DA94DACFC701FF90EF90DF9035
:1016F000CF90BF90AF909F908F907F906F905F90B2
:101700004F900895FC0180914902811103C08FEF31
:101710009FEF08959FB7F89482E08093E9002091AD
:10172000F20030E01216130614F421E030E0211527
:10173000310559F0289A84E6809348028091F1009F
:1017400080838091F200882319F09FBFC90108951A
:101750008BE68093E800F9CF80919F0381110DC043
:1017600082E080939B0384E080939C0310929E030D
:1017700010929D0381E080939F038BE993E008958D
:101780001F920F920FB60F9211248F939F93809107
:10179000E1009091E100937F9093E10083FF0FC0FF
:1017A0001092E90091E09093EB001092EC0092E32C
:1017B0009093ED001092490298E09093F00082FF20
:1017C00020C093E09093E9009091F200992319F0E2
:1017D0009AE39093E80090914702992339F0909111
:1017E0004702915090934702992389F190914802C2
:1017F000992339F09091480291509093480299238F
:1018000041F184FF10C08091E2008E7E8160809360
:10181000E2008091E1008F7E8093E100809146029A
:101820008E7E806111C080FF16C08091E2008E7EA6
:1018300080618093E2008091E1008E7E8093E100E0
:10184000809146028E7E81608093460204C05D983E
:10185000CDCF2898D6CF9F918F910F900FBE0F902C
:101860001F9018954091AB035091AC032091A903B0
:101870003091AA0342175307B4F49091E800957091
:10188000E1F39091E80092FD19C08093F1008091FE
:10189000AB039091AC0301968F739927892B19F4B0
:1018A0008EEF8093E8008091AB039091AC0301969A
:1018B0009093AC038093AB0381E0089580E008959A
:1018C000DF92EF92FF920F931F93CF93DF93D82E67
:1018D0008A017B01E40EF51EEB01CE15DF0571F0E8
:1018E000D7FE03C0FE01849101C088810E94320CA2
:1018F00021968111F2CF8FEF9FEF01C0C801DF91D8
:10190000CF911F910F91FF90EF90DF90089561505C
:1019100030F02091F100FC0120830196F8CF289A45
:1019200084E6809348020895CF92DF92EF92FF926F
:101930000F931F93CF93DF936C017A018B01C0E06B
:10194000D0E0CE15DF0589F0D8016D918D01D6016B
:10195000ED91FC910190F081E02DC6010995892B54
:1019600011F47E0102C02196ECCFC701DF91CF9127
:101970001F910F91FF90EF90DF90CF9008950F93FC
:101980001F93CF93DF931F92CDB7DEB782E0898399
:1019900042E450E06EEE71E080E80E94600C0E942C
:1019A000AC0BDC0112960D911C91139701151105DA
:1019B00069F0D801ED91FC910280F381E02DBE0128
:1019C0006F5F7F4FC801099597FF07C089810F900E
:1019D000DF91CF911F910F910895F8010085118536
:1019E000E5CF1F920F920FB60F921124CF92DF9284
:1019F000EF92FF920F931F932F933F934F935F9319
:101A00006F937F938F939F93AF93BF93EF93FF93C6
:101A1000CF93DF93CDB7DEB76C97DEBFCDBF10920B
:101A2000E9008091E80083FFEDC168E0CE014596B2
:101A30000E94870C82EF8093E8008D8987FF05C0A4
:101A40009091E80090FFFCCF03C09EEF9093E800D8
:101A5000982F907609F0C6C09E892F89188D911114
:101A60000CC0803829F48091A8038093F10002C053
:101A70001092F1001092F10048C1422F50E0512B1A
:101A8000913051F4811141C14130510509F03DC1FE
:101A90008091A8038D7F0BC0933061F4811135C113
:101AA0004130510509F031C18091A80382608093D3
:101AB000A8032BC1953041F48091E80080FFFCCF52
:101AC00020682093E30021C1963009F05FC0EB8CC1
:101AD000FC8C1092E9001092AC031092AB03123010
:101AE00091F51092AA031092A9030E94BF0C99E0ED
:101AF000BE016F5F7F4FDB01E92F1D92EA95E9F789
:101B000099831A8391E09E8390EA98879AEF998748
:101B10002091AB033091AC03275F3F4F3C832B8375
:101B20008D831092E9001092AC031092AB03F092F7
:101B3000AA03E092A90349E050E080E00E94600C13
:101B40000E94BF0CE2C0F092AA03E092A9030E9497
:101B5000AC0BDC011296ED90FC901397E114F104AC
:101B600009F4C0C0D701ED91FC910480F581E02D0E
:101B7000BE016B5E7F4FC7010995009719F00CF00D
:101B8000C4C0C7C0F701E084F184E8CF973009F4FE
:101B9000C0C0983021F481E08093F100B6C0993044
:101BA00009F0B3C0837009F0B4C0E7E4F1E081E06C
:101BB00021E036E39081992361F08093E90020933E
:101BC000EB0091919093EC003093ED008F5F8730A4
:101BD00089F78EE78093EA001092EA008F8980935C
:101BE000490293C08B8D9C8D1092E9001092AC033A
:101BF0001092AB039093AA038093A903898D81115E
:101C000056C08E899D89913A59F4813209F081C07C
:101C100047E050E06EE071E080E00E94600C75C02B
:101C2000913209F076C0833289F4888D90E0982F44
:101C300088272F89822BA0E0B0E080930A0190933F
:101C40000B01A0930C01B0930D015FC0803269F4C9
:101C50008091E80082FFFCCF67E08EE091E00E9477
:101C6000870C8BEF8093E80006C0823209F04DC0EC
:101C70008F89809315018091A703882319F0EEEFD7
:101C8000FAE002C0E0E0F8E080910E0190910F01CF
:101C9000A0911001B0911101803B9440A105B105C4
:101CA00009F07BC08091150180FF93C076C00E942F
:101CB000AC0BDC0112960D911C91139701151105C7
:101CC00041F1D801ED91FC910190F081E02DBE0130
:101CD0006B5E7F4FC8010995811117C0F80100851F
:101CE0001185ECCF113009F44EC0133091F48F8977
:101CF000882309F445C0823081F440E86DE082E534
:101D000092E00E94DE16882321F08EEF8093E80097
:101D100079C081E28093EB0075C0813029F440E8FE
:101D20006BE086E492E0EDCF833099F70E94AC0B34
:101D3000DC011296ED90FC9013978E010F5F1F4F00
:101D40006801E114F10479F0D701ED91FC9106806E
:101D5000F781E02DB801C7010995080F111DF701A2
:101D6000E084F184EECFD8011C92F60101900020AE
:101D7000E9F73197BF016C197D0940E0C601C1CF79
:101D800060E372E002C064E372E06115710509F27C
:101D9000FB01449150E080E840CF0FB6F894A8953D
:101DA00080916000886180936000109260000FBE97
:101DB000A895EE3F2AE0F20739F08091FE0A909153
:101DC000FF0A91838083A1CF1092FF0A1092FE0A2E
:101DD0009CCFEE3F8AE0F80731F0808191819093AB
:101DE000FF0A8093FE0A87E797E7918380839BE051
:101DF00088E10FB6F894A895809360000FBE909389
:101E0000600083CF6C960FB6F894DEBF0FBECDBFD7
:101E1000DF91CF91FF91EF91BF91AF919F918F9102
:101E20007F916F915F914F913F912F911F910F91F2
:101E3000FF90EF90DF90CF900F900FBE0F901F900C
:101E400018958AE391E09093F2028093F10281EF7A
:101E500092E00C944E08CF93DF93CDB7DEB769972D
:101E60000FB6F894DEBF0FBECDBF789484B5826004
:101E700084BD84B5816084BD85B5826085BD85B52E
:101E8000816085BD80916E00816080936E001092AC
:101E90008100809181008260809381008091810027
:101EA00081608093810080918000816080938000B8
:101EB0008091910082608093910080919100816077
:101EC0008093910080919000816080939000809138
:101ED000C10084608093C1008091C10082608093C2
:101EE000C1008091C10081608093C1008091C300D6
:101EF00081608093C3008091C00082608093C000A5
:101F00008091C20081608093C20080917A008460D9
:101F100080937A0080917A00826080937A00809129
:101F20007A00816080937A0080917A008068809343
:101F30007A00109249021092A803109246028091F2
:101F4000D70081608093D70080EA8093D80089B55C
:101F5000806189BD89B5826089BD09B400FEFDCF6D
:101F600061E070E080E090E00E9403048091D8007E
:101F70008F7C80618093D8008091E000807F809387
:101F8000E0008091E1008E7E8093E1008DE08093FF
:101F9000E200559A209A5D982898EEEFFFE7859128
:101FA00094918B3F9C4D19F481E08093A70361E0ED
:101FB0008DE00E94C70361E082E10E94C70362E0F6
:101FC00087E00E94C70361E08DE00E94640361E046
:101FD00082E10E94640380EE94E090930901809373
:101FE000080180916A008F7C806280936A00EE9A7B
:101FF0008FEF9FEF9093A2028093A10286E891E079
:102000000E94950A86E691E00E94560A10920C03FF
:1020100010920B0310920A03109209031092080306
:10202000109207038DE991E090930E0380930D03C6
:102030008091FD0298EF980F943048F022EF280F1E
:10204000243028F026EE280F233008F060C02DEB56
:1020500030E030930803209307032BE931E03093FD
:102060000A03209309032CE231E030930C03209300
:102070000B03943058F092EF980F943038F08A5157
:10208000833008F418C5A0E0B0E017C5A8E6B0E0BA
:10209000E8E6F0E0808181608C938091FD0298EF0A
:1020A000980F943058F022EF280F243038F026EEA5
:1020B000280F233018F020E030E002C02BE630E09B
:1020C0003093050320930403943010F49CEF09C06F
:1020D0008E3071F08F3071F0803171F0813171F09C
:1020E0009AEE980F81E001C0880F9A95EAF707C031
:1020F00088E005C082E003C084E001C081E08093F5
:10210000060380910D0390910E030197F1F78091E2
:102110000B0390910C03892B21F18091280290915F
:10212000290232E0813F9307E1F0009711F00E940D
:102130004E0880910F038E7F80930F031092270229
:102140001092260281EF92E0909329028093280258
:10215000E0910403F0910503908180910603892B9F
:1021600080838CE591E00E94A00989E591E00E94BE
:10217000A00983E091E00E94950A01E023E042E09B
:102180006BE6809189030E94830700E022E044E02F
:102190006BE1809189030E94830722E044E06CE1B7
:1021A000809189030E94830720E046E06BE68091DE
:1021B00089030E94480768EE73E080E090E00E9487
:1021C000030487EF90E00E94560A08EE13E09E0198
:1021D0002F5F3F4F41E065E7809189030E943A06F7
:1021E000882329F089818F7790E080938A0360911A
:1021F0008A0370E080E090E040E10E94150A89E5E2
:1022000091E00E94A00908EE13E09E012F5F3F4F6E
:1022100041E065E7809189030E943A06882329F00E
:1022200089818F7790E080938A0380918A03813738
:1022300029F08CE491E00E94950A9BCF8CE291E01A
:102240000E94950A83E08093980320E045E06CE6C5
:10225000809189030E94480720E044E06CE6809169
:1022600089030E94480720E043E06CE680918903DF
:102270000E9448078091980381FF15C020E042E04A
:102280006CE6809189030E94480720E041E06CE6FB
:10229000809189030E94480720E040E06CE680912D
:1022A00089030E9448078BE191E00E94560A6091E1
:1022B0009803617070E080E090E04AE00E94150AA7
:1022C00060919803627070E080E090E04AE00E94C4
:1022D000150A89E591E00E94A009F89480917100A7
:1022E0008160809371008091900080919100836063
:1022F000809391007894AE01455F5F4F5C874B8778
:102300006CE0262E332433948091990390919A03A4
:10231000892B09F0C8C380913E0281110CC00E9434
:10232000D40460933A0270933B0280933C029093F2
:102330003D0230923E020E94D404C0903A02D090F6
:102340003B02E0903C02F0903D02DC01CB018C1995
:102350009D09AE09BF094F97A105B10508F43DC31A
:102360000E94D40460933A0270933B0280933C0233
:1023700090933D0260E082E10E94640308EE13E066
:102380002AE833E04EE06BE3809189030E943A062D
:10239000C0908A03D12CDC2CCC2480918B03C82ADA
:1023A000D0927103C0927003E0908C03F12CFE2C4C
:1023B000EE2480918D03E82AF0927303E092720379
:1023C00060918E0370E0762F662780918F03682BD3
:1023D00070937503609374038091920390E0982F3B
:1023E000882720919303DC01A22BBB8BAA8BB0938F
:1023F0007703A09376038091940390E0982F882729
:1024000020919503FC01E22BFD8BEC8BF09379037B
:10241000E09378038091960390E0982F882720918D
:1024200097038C01022B10937B0300937A03F091A6
:102430009803F98BF0FF70C120912403309125039C
:1024400040912603509127032D873E874F87588B55
:102450008090200390902103A0902203B09023034A
:1024600040901C0350901D0360901E0370901F034A
:10247000072E000C880B990B0E94301820E03CE2DC
:1024800049E456E40E941B172DEC3CEC4CE951EC5E
:102490000E94E51820E031E942E057EC0E948D17D8
:1024A0002DEC3CEC4CE151E40E941C172D853E853F
:1024B0004F8558890E941B172FE832EC45EF5CE3EB
:1024C0000E94E5182AEA3AE84AE65EE30E948D1780
:1024D0009B01AC016D857E858F8598890E941C17B4
:1024E0006E8B7F8B888F998FB701FF0C880B990BB0
:1024F0000E94301820E030E14BE856E40E941B17A0
:102500002DEC3CEC4CE951EC0E94E51820E030E267
:1025100040E057EC0E948D172DEC3CEC4CE151E46F
:102520000E941C17A50194010E941B172FE832EC92
:1025300045EF5CE30E94E5182AEA3AE84AE65EE3E2
:102540000E948D179B01AC01C501B4010E941C17AC
:102550004B015C01B601DD0C880B990B0E94301811
:1025600020E03CE742E956E40E941B172DEC3CECCE
:102570004CE951EC0E94E51820E038E74FEF56ECAB
:102580000E948D172DEC3CEC4CE151E40E941C178D
:10259000A30192010E941B172FE832EC45EF5CE388
:1025A0000E94E5182AEA3AE84AE65EE30E948D179F
:1025B0009B01AC01C301B2010E941C176093100380
:1025C000709311038093120390931303809214036A
:1025D00090921503A0921603B09217032E893F899B
:1025E000488D598D209318033093190340931A0393
:1025F00050931B0320913C0330913D0340913E03D7
:1026000050913F032D873E874F87588BC0903803EA
:10261000D0903903E0903A03F0903B0340903403AC
:10262000509035036090360370903703A3019201F8
:102630000E941B172FE832EC45EF5CE30E94E5187F
:1026400025ED3AE642EB5EE30E948D179B01AC015B
:10265000C301B2010E941C176093280370932903E1
:1026600080932A0390932B03A7019601C501B4011F
:102670000E941B172FE832EC45EF5CE30E94E5183F
:1026800025ED3AE642EB5EE30E948D179B01AC011B
:10269000C701B6010E941C1760932C0370932D0391
:1026A00080932E0390932F032D853E854F85588967
:1026B0006E897F89888D998D0E941B172FE832ECD7
:1026C00045EF5CE30E94E51825ED3AE642EB5EE358
:1026D0000E948D179B01AC016D857E858F85988941
:1026E0000E941C1760933003709331038093320370
:1026F00090933303E0E1F3E0ACE1B3E0822D01908D
:102700000D928A95E1F7E8E2F3E0A4E3B3E0822DCD
:1027100001900D928A95E1F7398931FF91C0C090FF
:102720005403D0905503E0905603F09057038090E7
:10273000500390905103A0905203B09053034090E7
:102740004C0350904D0360904E0370904F034A89A4
:102750005B89BA01550F880B990B0E943018A301B1
:1027600092010E941B172FE832EC45EF5CE30E94B8
:10277000E5182AEA3AE84AE65EE30E948D179B01D3
:10278000AC01C301B2010E941C1760934003709317
:1027900041038093420390934303AC89BD89BD01FB
:1027A000BB0F880B990B0E943018A50194010E9461
:1027B0001B172FE832EC45EF5CE30E94E5182AEA8C
:1027C0003AE84AE65EE30E948D179B01AC01C50121
:1027D000B4010E941C1760934403709345038093D7
:1027E000460390934703B801110F880B990B0E9481
:1027F0003018A70196010E941B172FE832EC45EF15
:102800005CE30E94E5182AEA3AE84AE65EE30E94A1
:102810008D179B01AC01C701B6010E941C17609384
:1028200048037093490380934A0390934B03E0E479
:10283000F3E0ACE4B3E0822D01900D928A95E1F7CC
:102840006091100370911103809112039091130312
:1028500042E00E94AE0A80E20E94A30A6091140343
:1028600070911503809116039091170342E00E9426
:10287000AE0A80E20E94A30A6091180370911903C6
:1028800080911A0390911B0342E00E94AE0A80E2FD
:102890000E94A30A609110037091110380911203AA
:1028A000909113038090140390901503A090160349
:1028B000B0901703C0901803D0901903E0901A034A
:1028C000F0901B039B01AC010E94E5182B013C0119
:1028D000A5019401C501B4010E94E5189B01AC015A
:1028E000C301B2010E941C174B015C01A7019601B4
:1028F000C701B6010E94E5189B01AC01C501B401F6
:102900000E941C170E94581942E00E94AE0A80E201
:102910000E94A30A609128037091290380912A03E1
:1029200090912B0342E00E94AE0A89E591E00E945B
:10293000A0098091820320E030E040E85FE3882333
:10294000D9F0609128037091290380912A03909116
:102950002B030E941C179B01AC0160911003709126
:10296000110380911203909113030E94E01818162E
:1029700084F5109282032DC0609128037091290381
:1029800080912A0390912B030E941B179B01AC019D
:1029900060911003709111038091120390911303C1
:1029A0000E94881787FF15C03092820380918503AB
:1029B00090918603A0918703B09188030196A11D91
:1029C000B11D8093850390938603A0938703B093F2
:1029D000880361E082E10E946403809132028111E8
:1029E0000CC00E94D40460932E0270932F02809337
:1029F000300290933102309232020E94D404C0908F
:102A00002E02D0902F02E0903002F0903102DC01D3
:102A1000CB018C199D09AE09BF09893E9340A105E0
:102A2000B10538F421E030E030939A032093990304
:102A30003AC00E94D40460932E0270932F028093B8
:102A400030029093310260E08DE00E946403809137
:102A5000850390918603A0918703B09188038093AA
:102A60002A0290932B02A0932C02B0932D0241E1F5
:102A700051E15A8349838B839C83AD83BE831F823C
:102A8000188619861A86CE0101967C01EB85FC8595
:102A9000EE16FF0639F2D7016D917D0181EF92E0CC
:102AA0000E94DE01F3CF20E030E0232B09F42CCC90
:102AB0000E94000029CCA8E6B0E0833008F4E8CA00
:102AC000E0E0F0E0E7CACF93DF9310929802109213
:102AD000970288EE93E0A0E0B0E080939902909393
:102AE0009A02A0939B02B0939C022AE131E03093BA
:102AF0009602209395022FEF3FEF3093A20220938E
:102B0000A1021092E8021092E7028093E9029093EA
:102B1000EA02A093EB02B093EC022AE231E0309398
:102B2000E6022093E5021092100310921103109216
:102B300012031092130310921403109215031092B3
:102B40001603109217031092180310921903109293
:102B50001A0310921B0310921C0310921D03109273
:102B60001E0310921F031092200310922103109253
:102B70002203109223031092240310922503109233
:102B80002603109227031092280310922903109213
:102B90002A0310922B0310922C0310922D031092F3
:102BA0002E0310922F0310923003109231031092D3
:102BB00032031092330310923403109235031092B3
:102BC0003603109237031092380310923903109293
:102BD0003A0310923B0310923C0310923D03109273
:102BE0003E0310923F031092400310924103109253
:102BF0004203109243031092440310924503109233
:102C00004603109247031092480310924903109212
:102C10004A0310924B0310924C0310924D031092F2
:102C20004E0310924F0310925003109251031092D2
:102C300052031092530310925403109255031092B2
:102C40005603109257031092580310925903109292
:102C50005A0310925B0310925C0310925D03109272
:102C60005E0310925F031092600310926103109252
:102C70006203109263031092640310926503109232
:102C80006603109267031092680310926903109212
:102C90006A0310926B0310926C0310926D031092F2
:102CA0006E0310926F0322E1E0E7F3E0EF01199267
:102CB0002A95E9F761E06093820360938303609350
:102CC000840310928503109286031092870310925A
:102CD000880328E6209389031092980321E030E0CE
:102CE00030939A03209399031092F4021092F30206
:102CF0008093F5029093F602A093F702B093F80246
:102D00008AE391E09093F2028093F102109208031B
:102D10001092070310920A031092090310920C03F9
:102D200010920B0310920E0310920D0380910F036B
:102D30008E7F8D7F80930F0386958170682786E153
:102D40000E94640361E086E10E94C703E5EEF1E0C2
:102D5000E491E0930103E6ECF1E0E491F0E0EE0FA2
:102D6000FF1FEC56FE4F859194919093030380933F
:102D7000020360E087E10E94C70380910F0381FD99
:102D800004C061E087E10E94640387E18093FD0253
:102D9000E6EEF1E0E491E093FE02E7ECF1E0E4918D
:102DA000F0E0EE0FFF1FEE55FE4F8591949190934A
:102DB00000038093FF02DF91CF910895CF92DF92BD
:102DC000EF92FF920F931F93CF93DF931F92CDB794
:102DD000DEB7182F062FE42E862F880F8E5F99837B
:102DE0000E94320C83E00E94320CF12EC12E998198
:102DF000D92E8C2D8F19801798F4F601E7FE02C0AA
:102E0000849101C080810E94320C182F80E00E94C2
:102E1000320C8123FFEFCF1ADF0A8111EACF01C004
:102E200081E00F90DF91CF911F910F91FF90EF9074
:102E3000DF90CF9008955058BB27AA270E943317E0
:102E40000C94A6180E94981838F00E949F1820F041
:102E500039F49F3F19F426F40C9495180EF4E0957C
:102E6000E7FB0C948F18E92F0E94B71858F3BA1794
:102E7000620773078407950720F079F4A6F50C9490
:102E8000D9180EF4E0950B2EBA2FA02D0B01B90125
:102E900090010C01CA01A0011124FF27591B99F0D0
:102EA000593F50F4503E68F11A16F040A22F232FDC
:102EB000342F4427585FF3CF469537952795A7952C
:102EC000F0405395C9F77EF41F16BA0B620B730BD3
:102ED000840BBAF09150A1F0FF0FBB1F661F771F44
:102EE000881FC2F70EC0BA0F621F731F841F48F4F9
:102EF000879577956795B795F7959E3F08F0B0CF82
:102F00009395880F08F09927EE0F97958795089568
:102F10000E946B1808F481E008950E94A1170C9498
:102F2000A6180E949F1858F00E94981840F029F4A3
:102F30005F3F29F00C948F1851110C94DA180C94FF
:102F400095180E94B71868F39923B1F3552391F3AC
:102F5000951B550BBB27AA2762177307840738F008
:102F60009F5F5F4F220F331F441FAA1FA9F335D065
:102F70000E2E3AF0E0E832D091505040E695001C19
:102F8000CAF72BD0FE2F29D0660F771F881FBB1FD3
:102F9000261737074807AB07B0E809F0BB0B802DB1
:102FA000BF01FF2793585F4F3AF09E3F510578F0DD
:102FB0000C948F180C94DA185F3FE4F3983ED4F326
:102FC000869577956795B795F7959F5FC9F7880FB1
:102FD000911D9695879597F90895E1E0660F771F03
:102FE000881FBB1F621773078407BA0720F0621B94
:102FF000730B840BBA0BEE1F88F7E09508950E94BF
:10300000BF1888F09F5798F0B92F9927B751B0F0A3
:10301000E1F0660F771F881F991F1AF0BA95C9F75C
:1030200014C0B13091F00E94D918B1E008950C9409
:10303000D918672F782F8827B85F39F0B93FCCF3BC
:10304000869577956795B395D9F73EF490958095D9
:10305000709561957F4F8F4F9F4F0895E89409C0F9
:1030600097FB3EF490958095709561957F4F8F4FBB
:103070009F4F9923A9F0F92F96E9BB279395F695D1
:10308000879577956795B795F111F8CFFAF4BB0F4F
:1030900011F460FF1BC06F5F7F4F8F4F9F4F16C0B3
:1030A000882311F096E911C0772321F09EE8872F3D
:1030B000762F05C0662371F096E8862F70E060E0F9
:1030C0002AF09A95660F771F881FDAF7880F969572
:1030D000879597F90895990F0008550FAA0BE0E816
:1030E000FEEF16161706E807F907C0F012161306CA
:1030F000E407F50798F0621B730B840B950B39F40A
:103100000A2661F0232B242B252B21F408950A266F
:1031100009F4A140A6958FEF811D811D089597F9AF
:103120009F6780E870E060E008959FEF80EC08956D
:1031300000240A9416161706180609060895002496
:103140000A9412161306140605060895092E039410
:10315000000C11F4882352F0BB0F40F4BF2B11F484
:1031600060FF04C06F5F7F4F8F4F9F4F089557FDE3
:103170009058440F551F59F05F3F71F04795880FE5
:1031800097FB991F61F09F3F79F08795089512167C
:1031900013061406551FF2CF4695F1DF08C0161628
:1031A00017061806991FF1CF8695710561050894D9
:1031B0000895E894BB2766277727CB0197F90895F0
:1031C0000E946B1808F48FEF08950E94F8180C9471
:1031D000A6180E94981838F00E949F1820F0952396
:1031E00011F00C948F180C94951811240C94DA1883
:1031F0000E94B71870F3959FC1F3950F50E0551FCB
:10320000629FF001729FBB27F00DB11D639FAA273B
:10321000F00DB11DAA1F649F6627B00DA11D661F8A
:10322000829F2227B00DA11D621F739FB00DA11DAB
:10323000621F839FA00D611D221F749F3327A00D65
:10324000611D231F849F600D211D822F762F6A2F01
:1032500011249F5750409AF0F1F088234AF0EE0F66
:10326000FF1FBB1F661F771F881F91505040A9F793
:103270009E3F510580F00C948F180C94DA185F3F34
:10328000E4F3983ED4F3869577956795B795F795CF
:10329000E7959F5FC1F7FE2B880F911D9695879547
:1032A00097F9089519F416F40C9495180C949D1937
:1032B0000E94BF18B8F39923C9F3B6F39F57550B73
:1032C00087FF0E94AB190024A0E640EA90018058D5
:1032D0005695979528F4805C660F771F881F20F01D
:1032E00026173707480730F4621B730B840B20291D
:1032F00031294A2BA69517940794202531254A2772
:1033000058F7660F771F881F20F0261737074807E2
:1033100030F4620B730B840B200D311D411DA09501
:1033200081F7B901842F9158880F96958795089554
:103330000E946B18880B990B08959F3F31F09150B4
:1033400020F4879577956795B795880F911D969589
:10335000879597F9089591505040660F771F881F01
:10336000D2F7089597FB072E16F4009407D077FD47
:1033700009D00E94EE1907FC05D03EF49095819586
:103380009F4F0895709561957F4F0895A1E21A2E81
:10339000AA1BBB1BFD010DC0AA1FBB1FEE1FFF1FF9
:1033A000A217B307E407F50720F0A21BB30BE40B49
:1033B000F50B661F771F881F991F1A9469F7609590
:1033C0007095809590959B01AC01BD01CF0108954A
:1033D000EE0FFF1F0590F491E02D0994AA1BBB1B73
:1033E00051E107C0AA1FBB1FA617B70710F0A61B05
:1033F000B70B881F991F5A95A9F780959095BC0126
:10340000CD01089581E090E0F8940C94071A11E042
:10341000C1E3D1E004C0FE010E94E8192196C23345
:08342000D107C9F7F894FFCFB2
:10342800BC01BC01BC01BC01BC01FFFFFFFF00E106
:10343800000000000000000000005C013D047D0168
:1034480044032003720100000000F102C102BD0123
:10345800AD029E029D0200000000DE01940C3202C3
:103468004A02C501DD0100C1808100000062746E5E
:103478002074696D65206F6E000D0A004F4B006E59
:0C348800616E00696E66006F76660000E1
:00000001FF
