:100000000C9432010C941D060C94F6050C94CF054B
:100010000C94A8050C945A010C945A010C94810577
:100020000C945A010C94DE070C94CA0B0C94FB0C34
:100030000C945A010C945A010C945A010C945A01D4
:100040000C945A010C945A010C945A010C945A01C4
:100050000C945A010C945A010C945A010C943705D3
:100060000C945A010C945A010C945A010C945A01A4
:100070000C945A010C945A010C945A010C945A0194
:100080000C945A010C945A010C945A010C949C093A
:100090000C946E080C945A010C945A010C945A0159
:1000A0000C945A010C945A010C945A017C037F035E
:1000B0006E0372037803A003A003A00383038703E6
:1000C0008B0391039503A0039B0300000000240011
:1000D00027002A002D0030000000000200090F0058
:1000E00000030401000C00000000000000000000FC
:1000F0000000000000000044657669636520494403
:100100003A200047593932353020696E6974696187
:100110006C697A696E672E2E2E2E0053656E736F92
:100120007220656E61626C65643A2000475939320D
:10013000353020636F6E6E656374696F6E20737502
:10014000636365737366756C6C792E004759393239
:10015000353020636F6E6E656374696F6E20666103
:10016000696C65642E00496E697469616C6C697AAA
:10017000696E672042542053657269616C20706F0C
:1001800072742E2E2E0053657269616C2072656147
:1001900064792E0000000000250028002B002E00AE
:1001A0003100000000002300260029002C002F0051
:1001B000040404040403040502020202040302020C
:1001C00002020606060606060404020202040404ED
:1001D0000802011040804010204080408008020446
:1001E0000180402010020110801020404020080BA8
:1001F00000020202010009040000010202000005E1
:10020000240010010524010101042402060524062E
:1002100000010705810310004009040100020A00E3
:1002200000000705020240000007058302400000AD
:100230000403090412010002EF0201404123378048
:1002400000010102030141726475696E6F204C4C1C
:10025000430041726475696E6F204D6963726F006F
:1002600079142B0F11241FBECFEFDAE0DEBFCDBF14
:1002700011E0A0E0B1E0E8EDF1E302C005900D92DD
:10028000A037B107D9F723E0A0E7B1E001C01D9284
:10029000AE38B207E1F711E0C1E3D1E004C0219725
:1002A000FE010E94C018C033D107C9F70E94350F64
:1002B0000C94DF180C940000CF93DF931F92CDB7FE
:1002C000DEB76983DC01ED91FC910280F381E02DC2
:1002D00041E050E0BE016F5F7F4F09950F90DF91C5
:1002E000CF91089583E08093E9008091F200882304
:1002F00019F08AE38093E8000895FC0184859585D0
:1003000097FD0BC09FB7F89482E08093E90080913D
:10031000F2009FBF90E0019608959FB7F89482E0A5
:100320008093E9008091F2009FBF90E008953FB76D
:10033000F8948091260290912702A0912802B09112
:10034000290226B5A89B05C02F3F19F00196A11DD3
:10035000B11D3FBFBA2FA92F982F8827820F911D5B
:10036000A11DB11DBC01CD0142E0660F771F881FA2
:10037000991F4A95D1F7089508958091200290E041
:1003800020911F02821B9109089520912C02309127
:100390002D022817390771F490912A0280912B02BF
:1003A000981741F0E0912A02F0E0E154FE4F80817D
:1003B00090E008958FEF9FEF089508951F93CF93D6
:1003C000DF93DC015C962D913C915D972115310501
:1003D00039F481E090E013969C938E9312973DC080
:1003E0005196ED91FC91529750969C915097892F80
:1003F00080951FB75E964C915E9741FB772770F909
:1004000041FD6095F8944081772311F0492B01C09C
:1004100048234083E9012197F1F748E0508160FFCC
:1004200002C0592B01C058235083E9012197F1F7ED
:100430006695415099F7772321F090818923808335
:1004400003C08081982B90831FBF5C968D919C91F7
:100450005D970197F1F721E030E0C901DF91CF917D
:100460001F91089520912C0230912D0228173907F1
:1004700071F480912B0220912A0290E0805C9F4FC2
:10048000821B910960E470E00E948A18089580E060
:1004900090E0089520912C0230912D022817390701
:1004A000B9F490912A0280912B02981789F0E0917B
:1004B0002A02F0E0E154FE4F808120912A0230E0D0
:1004C0002F5F3F4F2F73332720932A0290E0089528
:1004D0008FEF9FEF089585ED8093BC008091BC0065
:1004E00084FDFCCF10927002089540919A01262F4E
:1004F00030E0240F311D21323105DCF420917002EF
:100500002430C9F4FC0180E090E0861758F4309163
:100510009A012191DC01A858BE4FA30FB11D2C9365
:100520000196F3CF80919A01680F60939A0180E061
:10053000089581E0089582E008950895E0911F02F2
:1005400080912002E81730F4F0E0E150FE4F808106
:1005500090E008958FEF9FEF089590911F02809192
:100560002002981750F4E92FF0E0E150FE4F20816F
:1005700030E09F5F90931F0202C02FEF3FEFC90151
:100580000895CF92DF92EF92FF920F931F93CF9334
:10059000DF937C01262F972F8A0180917102882397
:1005A00091F0C62FD72F6E01C40ED51ECC15DD05D8
:1005B00071F06991D701ED91FC910190F081E02DEE
:1005C000C7010995F3CF642F822F0E947502C801DD
:1005D000DF91CF911F910F91FF90EF90DF90CF901F
:1005E0000895CF93DF931F92CDB7DEB76983209133
:1005F00071022223D1F020919402203240F021E0B8
:1006000030E0FC013383228380E090E015C08091CC
:100610007202E82FF0E0ED58FD4F998190838F5FD3
:10062000809372028093940205C061E0CE0101962E
:100630000E94750281E090E00F90DF91CF910895C4
:10064000CF93DF931F92CDB7DEB7FC0184859585EC
:1006500097FD05C02FEF3FEF358724870BC0CE01F4
:1006600001960E948C0B019719F4898190E002C0D9
:100670008FEF9FEF0F90DF91CF9108950F931F930E
:10068000CF93DF931F92CDB7DEB78C01FC01848539
:10069000958597FF0EC0CE0101960E948C0B0197A5
:1006A00019F4298130E002C02FEF3FEFF8013587C0
:1006B0002487F801848595850F90DF91CF911F9154
:1006C0000F9108950E94DA1890E0FC013197EF3005
:1006D000F105B0F5EA5AFF4F0C94C01880918000E4
:1006E0008F7703C0809180008F7D80938000089574
:1006F00080918000877FF9CF84B58F7702C084B561
:100700008F7D84BD0895809190008F7707C0809180
:1007100090008F7D03C080919000877F8093900030
:1007200008958091C0008F7703C08091C0008F7DB5
:100730008093C00008958091C200877F8093C2009B
:1007400008951F93CF93DF93282F30E0F901E852EB
:10075000FF4F8491F901E153FE4FD491F901E05527
:10076000FE4FC491CC23C9F0162F81110E9464035F
:10077000EC2FF0E0EE0FFF1FEC56FE4FA591B49169
:100780008FB7F894111105C09C91ED2FE095E923E6
:1007900002C0EC91ED2BEC938FBFDF91CF911F91B5
:1007A0000895CF93DF9390E0FC01E153FE4F249135
:1007B000FC01E055FE4F8491882361F190E0880FA1
:1007C000991FFC01E653FF4FC591D491FC01EC56F3
:1007D000FE4FA591B491611109C09FB7F89488812B
:1007E000209582238883EC912E230BC0623061F424
:1007F0009FB7F8943881822F809583238883EC916A
:100800002E2B2C939FBF06C08FB7F894E8812E2B18
:1008100028838FBFDF91CF9108958F929F92AF92DF
:10082000BF92CF92DF92EF92FF926B017C010E9408
:1008300097014B015C01C114D104E104F104F1F012
:100840000E949701DC01CB0188199909AA09BB090B
:10085000883E9340A105B10570F321E0C21AD1088A
:10086000E108F10888EE880E83E0981EA11CB11CF7
:10087000C114D104E104F10419F7DDCFFF90EF902A
:10088000DF90CF90BF90AF909F908F9008957F9210
:100890008F929F92AF92BF92CF92DF92EF92FF9290
:1008A0000F931F93CF93DF936C015B017A018091CB
:1008B0001901882309F46BC080914902882309F447
:1008C00066C08091460280FF05C08091E000826092
:1008D0008093E000E70110E00AEF83E0982E90E4B7
:1008E000792E2AE3822E209709F448C08FB7F89416
:1008F0009092E9009091E80095FF06C09091F20077
:10090000272D291B922F01C090E08FBF91110AC0A3
:10091000015009F43CC061E070E080E090E00E948A
:100920000D04E1CF292F30E0C217D3070CF49C2F20
:100930008FB7F8949092E9002091E80025FF1CC041
:10094000292F30E0C21BD30BF501915020F04191CB
:100950004093F100FACFA20EB31E112319F080923A
:10096000E80009C09091E80095FD06C08092E8007B
:1009700011E0209709F010E08FBFB5CF1111B6CF6D
:100980005D9A84E6809347021E141F0444F081E0C0
:1009900090E0F6019383828380E090E001C0C7017C
:1009A000DF91CF911F910F91FF90EF90DF90CF904B
:1009B000BF90AF909F908F907F9008952FB7F8943D
:1009C000609122027091230280912402909125026D
:1009D0002FBF08950F931F930E94DE04609374014C
:1009E0007093750180937601909377010091700167
:1009F000109171012091720130917301DC01CB01E2
:100A0000801B910BA20BB30B86399105A105B10593
:100A100058F181E591E00E94AA098DE591E00E94DC
:100A2000AA098091740190917501A0917601B0910D
:100A300077018093700190937101A0937201B0933C
:100A4000730180910A0190910B01A0910C01B0916A
:100A50000D010196A11DB11D80930A0190930B0118
:100A6000A0930C01B0930D011F910F9108951F9257
:100A70000F920FB60F9211242F933F938F939F9352
:100A8000AF93BF938091220290912302A091240200
:100A9000B09125023091210223E0230F2D3720F45D
:100AA0000196A11DB11D05C026E8230F0296A11DC8
:100AB000B11D209321028093220290932302A093E0
:100AC0002402B09325028091260290912702A091E2
:100AD0002802B09129020196A11DB11D8093260222
:100AE00090932702A0932802B0932902BF91AF915F
:100AF0009F918F913F912F910F900FBE0F901F905C
:100B000018951F920F920FB60F9211242F933F93B7
:100B10004F935F936F937F938F939F93AF93BF9305
:100B2000EF93FF93E0910801F09109010995FF917E
:100B3000EF91BF91AF919F918F917F916F915F9155
:100B40004F913F912F910F900FBE0F901F901895CE
:100B50001F920F920FB60F9211242F933F934F9332
:100B60005F936F937F938F939F93AF93BF93EF9315
:100B7000FF93E0910601F09107010995FF91EF9134
:100B8000BF91AF919F918F917F916F915F914F91A5
:100B90003F912F910F900FBE0F901F9018951F92AD
:100BA0000F920FB60F9211242F933F934F935F93A1
:100BB0006F937F938F939F93AF93BF93EF93FF9325
:100BC000E0910401F09105010995FF91EF91BF912A
:100BD000AF919F918F917F916F915F914F913F91D5
:100BE0002F910F900FBE0F901F9018951F920F928C
:100BF0000FB60F9211242F933F934F935F936F93F0
:100C00007F938F939F93AF93BF93EF93FF93E09165
:100C10000201F09103010995FF91EF91BF91AF910E
:100C20009F918F917F916F915F914F913F912F9104
:100C30000F900FBE0F901F9018951F920F920FB636
:100C40000F9211242F933F934F935F936F937F9352
:100C50008F939F93AF93BF93EF93FF93E091000126
:100C6000F09101010995FF91EF91BF91AF919F9193
:100C70008F917F916F915F914F913F912F910F9045
:100C80000FBE0F901F9018952F923F924F925F9238
:100C90006F927F928F929F92AF92BF92CF92DF928C
:100CA000EF92FF920F931F93CF93DF93CDB7DEB7F1
:100CB00028970FB6F894DEBF0FBECDBFD82EC62E34
:100CC0004887190178010E94DE042B013C018D2C1C
:100CD000880C912C10E001E04885A42EB12C9701DE
:100CE00040E050E02B833C834D835E83488594161F
:100CF00008F0A0C000937102D09293021092720289
:100D0000109294026C2D85EE92E00E94F1020E94F6
:100D1000C20900937102D092930210927202109253
:100D20009402809170028111FCCF9501291931093B
:100D30002132310514F020E230E02F83213210F00F
:100D400030E23F830093700200936F024FEF4093B5
:100D50006E0210926D028F81815080936C0200931D
:100D60004B0280914B02882980934B0280914A026A
:100D7000813071F410924A0280914B028093BB0043
:100D80008091BC0083FDF8CF55EC5093BC0003C0AC
:100D900085EE8093BC00809170028130E1F38091F8
:100DA0006D022F81821718F430916D023F83ACE4FD
:100DB000B2E0EFEFF1E08E2F4FEF51E0841B5F8147
:100DC000851718F48D918193F6CF10921F025093DE
:100DD000200280911F022F81281721F1E114F104D4
:100DE00081F49101210F311D17FD3A953A83298332
:100DF00085EE92E00E94AD02A981BA818C931F5FBB
:100E0000E8CF0E94DE04DC01CB0184199509A60914
:100E1000B7092B813C814D815E8182179307A4071E
:100E2000B507F8F20E94C2098885813208F080E295
:100E3000980E5CCFE114F104D9F00E94DE04AB01FE
:100E4000BC014419550966097709C701A0E0B0E063
:100E5000481759076A077B0758F05885852F90E097
:100E6000212F012E000C330B281739070CF41FEF2C
:100E7000812F28960FB6F894DEBF0FBECDBFDF914D
:100E8000CF911F910F91FF90EF90DF90CF90BF9087
:100E9000AF909F908F907F906F905F904F903F901A
:100EA0002F900895CF92DF92EF92FF920F931F93AE
:100EB000CF93DF9300D0CDB7DEB7F82EE62ED42E39
:100EC000C22E08EE13E09E012E5F3F4F41E00E94CC
:100ED00044063A81E1E0F0E0AF0101C0440FDA944A
:100EE000EAF7CC2019F0932F942B03C0942F909500
:100EF00093239A839983AE014F5F5F4F6E2D8F2DA1
:100F00000E94810A0F900F90DF91CF911F910F9156
:100F1000FF90EF90DF90CF900895BF92CF92DF9235
:100F2000EF92FF920F931F93CF93DF9300D0CDB733
:100F3000DEB7F82EE62EC42EB22ED02E08EE13E029
:100F40009E012E5F3F4F41E00E944406882349F1F5
:100F50004C2D50E04B1951094F5F5F4F21E030E0BD
:100F600002C0220F331FBA94E2F721503109042E38
:100F700001C0220F0A94EAF78D2D01C0880F4A950F
:100F8000EAF7322F30959A8193232823292B2A833D
:100F90002983AE014F5F5F4F6E2D8F2D0E94810A16
:100FA00001C080E00F900F90DF91CF911F910F91C2
:100FB000FF90EF90DF90CF90BF9008951F920F9217
:100FC0000FB60F9211242F933F934F935F936F931C
:100FD0007F938F939F93AF93BF93EF93FF93E09192
:100FE0002C02F0912D02309709F451C0968DA68500
:100FF000B785858591FF04C09C91892329F447C05A
:101000009C91892309F043C0A389B4899C91858967
:10101000809589238C93868997890197F1F7608D54
:10102000718DA685B785558538E020E0CB01019705
:10103000F1F7822F90E095958795282F4C914523C5
:1010400009F02068315091F7868D81FD20958091BF
:101050002B0290E001968F73992730912A0238175E
:1010600049F0A0912B02B0E0A154BE4F2C93809385
:101070002B0203C0868D8160868F828D938D0197B0
:10108000F1F7A389B4899C918589892B8C93FF9171
:10109000EF91BF91AF919F918F917F916F915F91F0
:1010A0004F913F912F910F900FBE0F901F90189569
:1010B000E0912C02F0912D02E817F90769F4A38959
:1010C000B4899C918589809589238C9310922D02F7
:1010D00010922C0281E0089580E008951F920F92F3
:1010E0000FB60F9211242F933F934F935F936F93FB
:1010F0007F938F939F93AF93BF93EF93FF938091D1
:10110000B900887F803609F49CC068F5883209F4FC
:101110005BC090F4803109F454C038F4882309F49A
:10112000F6C0883009F44DC0F6C0883109F44CC0CF
:10113000803209F45DC0EFC0803409F468C048F41F
:10114000803309F455C0883309F0E5C080936E02FE
:10115000D8C0803509F44FC0883509F45DC08834A3
:1011600009F0D9C0D6C0883909F4C7C0A8F48837B7
:1011700009F467C038F4883609F463C0803709F48D
:1011800060C0C9C0883809F4B8C0803909F45FC0AC
:10119000803809F0C0C05BC0803B09F486C038F4D9
:1011A000803A09F466C0883A09F47FC0B4C0803C34
:1011B00009F4A7C0883C09F4A4C0883B09F48AC09C
:1011C000AAC080914B0210C090916D0280916C0278
:1011D000981770F5E0916D0281E08E0F80936D029B
:1011E000F0E0E45BFD4F80818093BB0085EC86C01E
:1011F00080936E028EC0E0916D0281E08E0F80932D
:101200006D028091BB00F0E0E45BFD4F8083909124
:101210006D0280916C026EC0E0916D0281E08E0FD4
:1012200080936D028091BB00F0E0E45BFD4F808312
:1012300080916F0281116DC081E080934A0284EA3F
:1012400061C083E0809370021092BE01CFCF809185
:10125000BE01803208F051C0E091BE0181E08E0FE6
:101260008093BE018091BB00F0E0E256FE4F808388
:10127000BDCF85EC8093BC00109270028091BE01BE
:10128000803230F4E091BE01F0E0E256FE4F108271
:101290006091BE0170E0E0919C01F0919D018EE9AA
:1012A00091E009951092BE0136C084E080937002EF
:1012B00010929B0110929A01E0919801F09199018E
:1012C000099580919A01811105C081E080939A016E
:1012D00010927801E0919B0181E08E0F80939B0139
:1012E000F0E0E858FE4F80818093BB0090919B0115
:1012F00080919A01981708F479CF85E88093BC0013
:101300000AC085EC8093BC001092700204C0109259
:101310006E020E946B02FF91EF91BF91AF919F917E
:101320008F917F916F915F914F913F912F910F908E
:101330000FBE0F901F9018951F920F920FB60F922D
:10134000112410927B0310927A030F900FBE0F901E
:101350001F901895BC01009791F0FC0101900020AE
:10136000E9F73197AF01481B590BE0919502F091D5
:1013700096020280F381E02D85E992E0099480E0F5
:1013800090E008952091940290919302213208F008
:101390004AC0809170028111FCCF32E0309370021C
:1013A00031E030936F023FEF30936E0210926D0286
:1013B00020936C02A3E7B2E04CE452E0FA013E2F26
:1013C000341B321718F43D913193F9CF10924B0230
:1013D00020914B02990F922B90934B0290914A02CD
:1013E000913061F410924A0290914B029093BB00AD
:1013F0009091BC0093FDF8CF95EC01C095EE9093D1
:10140000BC00909170029230E1F390916E029F3F88
:1014100079F080916E02803241F080916E028033CB
:1014200031F084E005C081E003C082E001C083E0C8
:1014300010927202109294021092710208958F928B
:101440009F92AF92BF920F931F93CF93DF93CDB72D
:10145000DEB7A1970FB6F894DEBF0FBECDBF19A2BD
:10146000423008F44AE08E010F5D1F4F842E912C0C
:10147000A12CB12CA50194010E949E18E62FB90160
:10148000CA0101501109EA3014F4E05D01C0E95CC1
:10149000D801EC93232B242B252B61F7C8010E9444
:1014A000AA09A1960FB6F894DEBF0FBECDBFDF919B
:1014B000CF911F910F91BF90AF909F908F90089503
:1014C0000F931F93CF93DF938C01C0E0D0E0F8011E
:1014D000EC0FFD1F6491662371F0E0919502F0918D
:1014E00096020190F081E02D85E992E00995892B23
:1014F00011F02196ECCFCE01DF91CF911F910F918A
:101500000895CF93DF93EA0191E090937102809365
:101510009302109272021092940285EE92E00E9461
:10152000F102688185EE92E00E94F1020E94C209F8
:1015300091E0811190E0892FDF91CF910895CF93B1
:10154000DF930E94600AEC018DE591E00E94AA09F8
:101550008C0F9D1FDF91CF910895E0919502F0913E
:1015600096020190F081E02D682F85E992E00994C0
:101570004F925F926F927F928F929F92AF92BF92A3
:10158000CF92DF92EF92FF926B017C01B42E9B0110
:10159000AC010E947018882319F083E691E027C0FF
:1015A00026013701E89477F82FEF3FEF4FE75FE729
:1015B000C301B2010E94701881110DC02FEF3FEFDF
:1015C0004FE75FE7C301B2010E94601618161CF4D2
:1015D00087E691E00CC02FEF3FEF4FE75FE4C701D4
:1015E000B6010E94B817181684F48BE691E0FF90BC
:1015F000EF90DF90CF90BF90AF909F908F907F90B3
:101600006F905F904F900C94AA092FEF3FEF4FE738
:101610005FECC701B6010E94601687FDE6CF20E0AF
:1016200030E0A901C701B6010E94601687FF09C01A
:101630008DE20E94AD0A4C01F7FAF094F7F8F094AD
:1016400002C0812C912CA12C60E070E080E09FE32F
:10165000AB1441F020E030E040E251E40E94651616
:10166000A394F6CF9B01AC01C701B6010E94F4150B
:101670002B013C010E94D7166B017C010E940617CA
:101680009B01AC01C301B2010E94F3152B013C0187
:101690004AE0C701B6010E941F0A7C01E80CF91C50
:1016A000BB2029F08EE20E94AD0AE80EF91EDB2C69
:1016B000DD2021F120E030E040E251E4C301B2013D
:1016C0000E94BD172B013C010E94D7164B01A12C93
:1016D000B12C4AE0C501B4010E941F0AE80EF91EB0
:1016E000C501B4010E9406179B01AC01C301B20100
:1016F0000E94F3152B013C01DA94DACFC701FF9069
:10170000EF90DF90CF90BF90AF909F908F907F90A1
:101710006F905F904F900895FC0180914902811174
:1017200003C08FEF9FEF08959FB7F89482E08093F6
:10173000E9002091F20030E01216130614F421E0C3
:1017400030E02115310559F0289A84E6809348024B
:101750008091F10080838091F200882319F09FBF6F
:10176000C90108958BE68093E800F9CF809180034A
:1017700081110DC082E080937C0384E080937D031F
:1017800010927F0310927E0381E0809380038CE7A8
:1017900093E008951F920F920FB60F9211248F932A
:1017A0009F938091E1009091E100937F9093E100FD
:1017B00083FF0FC01092E90091E09093EB0010922C
:1017C000EC0092E39093ED001092490298E0909320
:1017D000F00082FF20C093E09093E9009091F20026
:1017E000992319F09AE39093E80090914702992386
:1017F00039F090914702915090934702992389F1D3
:1018000090914802992339F0909148029150909319
:101810004802992341F184FF10C08091E2008E7E3E
:1018200081608093E2008091E1008F7E8093E100EF
:10183000809146028E7E806111C080FF16C080912B
:10184000E2008E7E80618093E2008091E1008E7ED6
:101850008093E100809146028E7E816080934602F3
:1018600004C05D98CDCF2898D6CF9F918F910F90CF
:101870000FBE0F901F90189540918C0350918D03CF
:1018800020918A0330918B0342175307B4F490914F
:10189000E8009570E1F39091E80092FD19C0809303
:1018A000F10080918C0390918D0301968F7399279D
:1018B000892B19F48EEF8093E80080918C0390912E
:1018C0008D03019690938D0380938C0381E008959E
:1018D00080E00895DF92EF92FF920F931F93CF93D2
:1018E000DF93D82E8A017B01E40EF51EEB01CE15A5
:1018F000DF0571F0D7FE03C0FE01849101C088812D
:101900000E943C0C21968111F2CF8FEF9FEF01C016
:10191000C801DF91CF911F910F91FF90EF90DF9061
:101920000895615030F02091F100FC012083019670
:10193000F8CF289A84E6809348020895CF92DF92E8
:10194000EF92FF920F931F93CF93DF936C017A0175
:101950008B01C0E0D0E0CE15DF0589F0D8016D9194
:101960008D01D601ED91FC910190F081E02DC60131
:101970000995892B11F47E0102C02196ECCFC70195
:10198000DF91CF911F910F91FF90EF90DF90CF905B
:1019900008950F931F93CF93DF931F92CDB7DEB7B8
:1019A00082E0898342E450E06EEE71E080E80E94BC
:1019B0006A0C0E94B60BDC0112960D911C911397D4
:1019C0000115110569F0D801ED91FC910280F381B8
:1019D000E02DBE016F5F7F4FC801099597FF07C0DB
:1019E00089810F90DF91CF911F910F910895F80198
:1019F00000851185E5CF1F920F920FB60F9211242B
:101A0000CF92DF92EF92FF920F931F932F933F930A
:101A10004F935F936F937F938F939F93AF93BF93F6
:101A2000EF93FF93CF93DF93CDB7DEB76C97DEBF15
:101A3000CDBF1092E9008091E80083FFEDC168E01E
:101A4000CE0145960E94910C82EF8093E8008D892B
:101A500087FF05C09091E80090FFFCCF03C09EEF88
:101A60009093E800982F907609F0C6C09E892F8940
:101A7000188D91110CC0803829F4809189038093CE
:101A8000F10002C01092F1001092F10048C1422F03
:101A900050E0512B913051F4811141C14130510539
:101AA00009F03DC1809189038D7F0BC0933061F4B3
:101AB000811135C14130510509F031C1809189034F
:101AC0008260809389032BC1953041F48091E800B6
:101AD00080FFFCCF20682093E30021C1963009F0FD
:101AE0005FC0EB8CFC8C1092E90010928D03109279
:101AF0008C03123091F510928B0310928A030E948E
:101B0000C90C99E0BE016F5F7F4FDB01E92F1D9289
:101B1000EA95E9F799831A8391E09E8390EA988782
:101B20009AEF998720918C0330918D03275F3F4F67
:101B30003C832B838D831092E90010928D031092C9
:101B40008C03F0928B03E0928A0349E050E080E03E
:101B50000E946A0C0E94C90CE2C0F0928B03E092D2
:101B60008A030E94B60BDC011296ED90FC9013974D
:101B7000E114F10409F4C0C0D701ED91FC91048097
:101B8000F581E02DBE016B5E7F4FC701099500977F
:101B900019F00CF0C4C0C7C0F701E084F184E8CFAD
:101BA000973009F4C0C0983021F481E08093F100AF
:101BB000B6C0993009F0B3C0837009F0B4C0EBE44B
:101BC000F1E081E021E036E39081992361F0809398
:101BD000E9002093EB0091919093EC003093ED009D
:101BE0008F5F873089F78EE78093EA001092EA00D2
:101BF0008F898093490293C08B8D9C8D1092E90050
:101C000010928D0310928C0390938B0380938A0320
:101C1000898D811156C08E899D89913A59F48132FE
:101C200009F081C047E050E062E171E080E00E948D
:101C30006A0C75C0913209F076C0833289F4888DC0
:101C400090E0982F88272F89822BA0E0B0E0809326
:101C50000E0190930F01A0931001B09311015FC08A
:101C6000803269F48091E80082FFFCCF67E082E176
:101C700091E00E94910C8BEF8093E80006C08232C5
:101C800009F04DC08F8980931901809188038823C2
:101C900019F0EEEFFAE002C0E0E0F8E08091120106
:101CA00090911301A0911401B0911501803B9440D3
:101CB000A105B10509F07BC08091190180FF93C097
:101CC00076C00E94B60BDC0112960D911C91139701
:101CD0000115110541F1D801ED91FC910190F081C0
:101CE000E02DBE016B5E7F4FC8010995811117C0C1
:101CF000F80100851185ECCF113009F44EC0133086
:101D000091F48F89882309F445C0823081F440E83A
:101D10006DE082E592E00E94B615882321F08EEFF7
:101D20008093E80079C081E28093EB0075C0813038
:101D300029F440E86BE086E492E0EDCF833099F738
:101D40000E94B60BDC011296ED90FC9013978E0169
:101D50000F5F1F4F6801E114F10479F0D701ED9195
:101D6000FC910680F781E02DB801C7010995080FA5
:101D7000111DF701E084F184EECFD8011C92F60129
:101D800001900020E9F73197BF016C197D0940E00F
:101D9000C601C1CF60E372E002C064E372E0611586
:101DA000710509F2FB01449150E080E840CF0FB685
:101DB000F894A895809160008861809360001092EB
:101DC00060000FBEA895EE3F2AE0F20739F080913F
:101DD000FE0A9091FF0A91838083A1CF1092FF0A9F
:101DE0001092FE0A9CCFEE3F8AE0F80731F0808126
:101DF00091819093FF0A8093FE0A87E797E791838A
:101E000080839BE088E10FB6F894A89580936000EA
:101E10000FBE9093600083CF6C960FB6F894DEBF30
:101E20000FBECDBFDF91CF91FF91EF91BF91AF91E9
:101E30009F918F917F916F915F914F913F912F91E2
:101E40001F910F91FF90EF90DF90CF900F900FBEFA
:101E50000F901F9018958EE391E09093F20280937B
:101E6000F10281EF92E00C945808CF93DF93CDB745
:101E7000DEB728970FB6F894DEBF0FBECDBF7894BB
:101E800084B5826084BD84B5816084BD85B582607F
:101E900085BD85B5816085BD80916E008160809330
:101EA0006E00109281008091810082608093810099
:101EB00080918100816080938100809180008160A9
:101EC0008093800080919100826080939100809146
:101ED0009100816080939100809190008160809357
:101EE00090008091C10084608093C1008091C10006
:101EF00082608093C1008091C10081608093C100A5
:101F00008091C30081608093C3008091C000826093
:101F10008093C0008091C20081608093C200809154
:101F20007A00846080937A0080917A008260809346
:101F30007A0080917A00816080937A0080917A00A3
:101F4000806880937A00109249021092890310925F
:101F500046028091D70081608093D70080EA809309
:101F6000D80089B5806189BD89B5826089BD09B411
:101F700000FEFDCF61E070E080E090E00E940D0483
:101F80008091D8008F7C80618093D8008091E000A0
:101F9000807F8093E0008091E1008E7E8093E1005D
:101FA0008DE08093E200559A209A5D982898EEEF94
:101FB000FFE7859194918B3F9C4D19F481E08093CC
:101FC000880361E08DE00E94D10361E082E10E941C
:101FD000D10362E087E00E94D10361E08DE00E94BE
:101FE000A10361E082E10E94A1038AEE94E0909354
:101FF00009018093080180916A008F7C8062809340
:102000006A00EE9A8FEF9FEF9093A2028093A10255
:102010000FED10E0F6EDEF2EF1E0FF2EA7EBCA2E4C
:10202000A1E0DA2EB09019016AE070E080E090E063
:102030000E940D04B11017C0F8018491F701A4901B
:10204000F601B490BB2079F081110E9464038B2DBE
:1020500090E0880F991F8E559E4FFC01A591B49179
:102060008C91A822F9F686E891E00E949F0A86E604
:1020700091E00E94600A10920C0310920B031092E0
:102080000A031092090310920803109207038DE9C6
:1020900091E090930E0380930D038091FD0298EFE1
:1020A000980F943048F022EF280F243028F026EEC5
:1020B000280F233008F060C02DEB30E03093080388
:1020C000209307032BE931E030930A03209309039F
:1020D0002CE231E030930C0320930B03943058F042
:1020E00092EF980F943038F08A51833008F4F9C396
:1020F000A0E0B0E0F8C3A8E6B0E0E8E6F0E0808158
:1021000081608C938091FD0298EF980F943058F085
:1021100022EF280F243038F026EE280F233018F055
:1021200020E030E002C02BE630E03093050320933E
:102130000403943010F49CEF09C08E3071F08F309E
:1021400071F0803171F0813171F09AEE980F81E079
:1021500001C0880F9A95EAF707C088E005C082E0C1
:1021600003C084E001C081E08093060380910D03E9
:1021700090910E030197F1F780910B0390910C035E
:10218000892B21F180912C0290912D02F2E0813F68
:102190009F07E1F0009711F00E94580880910F030B
:1021A0008E7F80930F0310922B0210922A0281EFF0
:1021B00092E090932D0280932C02E0910403F09121
:1021C0000503908180910603892B808380E691E04E
:1021D0000E94AA098DE591E00E94AA0983E091E09E
:1021E0000E949F0A01E023E042E06BE680916A03CF
:1021F0000E948D0700E022E044E06BE180916A03D9
:102200000E948D0722E044E06CE180916A030E9405
:102210008D0720E046E06BE680916A030E9452073A
:1022200068EE73E080E090E00E940D0487EF90E09C
:102230000E94600A08EE13E09E012F5F3F4F41E0CD
:1022400065E780916A030E944406882329F089810A
:102250008F7790E080936B0360916B0370E080E078
:1022600090E040E10E941F0A8DE591E00E94AA09DA
:1022700008EE13E09E012F5F3F4F41E065E780913C
:102280006A030E944406882329F089818F7790E0B1
:1022900080936B0380916B03813729F08CE491E08C
:1022A0000E949F0A9BCF8CE291E00E949F0A83E0EC
:1022B0008093790320E045E06CE680916A030E94F8
:1022C000520720E044E06CE680916A030E945207C6
:1022D00020E043E06CE680916A030E9452078091FF
:1022E000790381FF15C020E042E06CE680916A032B
:1022F0000E94520720E041E06CE680916A030E9450
:10230000520720E040E06CE680916A030E94520789
:102310008BE191E00E94600A60917903617070E046
:1023200080E090E04AE00E941F0A609179036270A9
:1023300070E080E090E04AE00E941F0A8DE591E0A5
:102340000E94AA09F89480917100816080937100C5
:1023500080919000809191008360809391007894A7
:1023600080917A0390917B03892B09F0B2C280910E
:102370003E0281110DC00E94DE0460933A02709308
:102380003B0280933C0290933D0281E080933E02A9
:102390000E94DE0400913A0210913B0220913C021F
:1023A00030913D02DC01CB01801B910BA20BB30BE2
:1023B0004F97A105B10508F448C20E94DE0460935E
:1023C0003A0270933B0280933C0290933D0260E09E
:1023D00082E10E94A10308EE13E02BE633E04EE019
:1023E0006BE380916A030E94440660916B0370E086
:1023F000762F662780916C03682B70935903609346
:10240000580300916D0310E0102F002780916E0398
:10241000082B10935B0300935A03C0906F03D12CD9
:10242000DC2CCC24809170039601282B3C832B83D9
:1024300030935D0320935C0320907303312C322C86
:10244000222480917403282A30925F0320925E0335
:102450008091750390E0982F882720917603AC0136
:10246000422B5E834D8350936103409360038091C0
:10247000770390E0982F882720917803FC01E22BC6
:10248000F887EF83F0936303E0936203F09179039D
:10249000FA83F0FFD7C08090240390902503A0908A
:1024A0002603B090270340902003509021036090B2
:1024B000220370902303C0901C03D0901D03E09072
:1024C0001E03F0901F03072E000C880B990B0E942F
:1024D000081720E03CE742E956E40E94F3152DEC92
:1024E0003CEC4CE951EC0E94BD1720E038E74FEF7F
:1024F00056EC0E9465162DEC3CEC4CE151E40E9438
:10250000F415A70196010E94F3152FE832EC45EF70
:102510005CE30E94BD172AEA3AE84AE65EE30E94BD
:1025200065169B01AC01C701B6010E94F4156093CA
:102530001003709311038093120390931303B80157
:10254000110F880B990B0E94081720E030E14BE82F
:1025500056E40E94F3152DEC3CEC4CE951EC0E9442
:10256000BD1720E030E240E057EC0E9465162DECEC
:102570003CEC4CE151E40E94F415A30192010E944D
:10258000F3152FE832EC45EF5CE30E94BD172AEA11
:102590003AE84AE65EE30E9465169B01AC01C3017E
:1025A000B2010E94F4156093140370931503809395
:1025B0001603909317032B813C81B901330F880BCD
:1025C000990B0E94081720E03CE249E456E40E947F
:1025D000F3152DEC3CEC4CE951EC0E94BD1720E0CA
:1025E00031E942E057EC0E9465162DEC3CEC4CE1E1
:1025F00051E40E94F415A50194010E94F3152FE8FF
:1026000032EC45EF5CE30E94BD172AEA3AE84AE65D
:102610005EE30E9465169B01AC01C501B4010E94F6
:10262000F415609318037093190380931A03909321
:102630001B03E0E1F3E0ACE1B3E08CE001900D922C
:102640008A95E1F73A8131FF91C080903C039090E8
:102650003D03A0903E03B0903F034090380350905C
:10266000390360903A0370903B03C0903403D090DC
:102670003503E0903603F0903703B101330C880B3B
:10268000990B0E940817A70196010E94F3152FE8E5
:1026900032EC45EF5CE30E94BD172AEA3AE84AE6CD
:1026A0005EE30E9465169B01AC01C701B6010E9462
:1026B000F415609328037093290380932A03909361
:1026C0002B034D815E81BA01550F880B990B0E9437
:1026D0000817A30192010E94F3152FE832EC45EF91
:1026E0005CE30E94BD172AEA3AE84AE65EE30E94EC
:1026F00065169B01AC01C301B2010E94F415609301
:102700002C0370932D0380932E0390932F03EF815E
:10271000F885BF01FF0F880B990B0E940817A501D0
:1027200094010E94F3152FE832EC45EF5CE30E9420
:10273000BD172AEA3AE84AE65EE30E9465169B0165
:10274000AC01C501B4010E94F4156093300370938D
:1027500031038093320390933303E8E2F3E0A4E380
:10276000B3E08CE001900D928A95E1F7609110033F
:1027700070911103809112039091130342E00E9423
:10278000B80A80E20E94AD0A6091140370911503AB
:10279000809116039091170342E00E94B80A80E2EC
:1027A0000E94AD0A609118037091190380911A0379
:1027B00090911B0342E00E94B80A80E20E94AD0A99
:1027C0006091100370911103809112039091130393
:1027D00040901403509015036090160370901703F7
:1027E0008090180390901903A0901A03B0901B03D7
:1027F0009B01AC010E94BD176B017C01A3019201FA
:10280000C301B2010E94BD179B01AC01C701B60113
:102810000E94F4152B013C01A5019401C501B401EE
:102820000E94BD179B01AC01C301B2010E94F415C7
:102830000E94301842E00E94B80A8DE591E00E94A3
:10284000AA0961E082E10E94A10380913202811114
:102850000DC00E94DE0460932E0270932F028093BD
:1028600030029093310281E0809332020E94DE04B4
:1028700000912E0210912F022091300230913102EE
:10288000DC01CB01801B910BA20BB30B893E934063
:10289000A105B105C0F00E94DE0460932E02709382
:1028A0002F02809330029093310260E08DE00E940D
:1028B000A10360910A0181EF92E00E94DE0161E0D4
:1028C0008DE00E94A10321E030E030937B03209350
:1028D0007A0340E050E0452B09F442CD0E9400000D
:1028E0003FCDA8E6B0E0833008F407CCE0E0F0E0AC
:1028F00006CCCF93DF93109298021092970288EE45
:1029000093E0A0E0B0E08093990290939A02A093A4
:102910009B02B0939C022EE131E03093960220930B
:1029200095022FEF3FEF3093A2022093A102109265
:10293000E8021092E7028093E9029093EA02A093E2
:10294000EB02B093EC022EE231E03093E6022093EA
:10295000E5021092100310921103109212031092CC
:102960001303109214031092150310921603109281
:102970001703109218031092190310921A03109261
:102980001B0310921C0310921D0310921E03109241
:102990001F03109220031092210310922203109221
:1029A0002303109224031092250310922603109201
:1029B0002703109228031092290310922A031092E1
:1029C0002B0310922C0310922D0310922E031092C1
:1029D0002F031092300310923103109232031092A1
:1029E0003303109234031092350310923603109281
:1029F0003703109238031092390310923A03109261
:102A00003B0310923C0310923D0310923E03109240
:102A10003F03109240031092410310924203109220
:102A20004303109244031092450310924603109200
:102A30004703109248031092490310924A031092E0
:102A40004B0310924C0310924D0310924E031092C0
:102A50004F031092500310925103109252031092A0
:102A60005303109254031092550310925603109280
:102A7000570322E1E8E5F3E0EF0119922A95E9F71F
:102A800028E620936A031092790321E030E0309326
:102A90007B0320937A031092F4021092F302809346
:102AA000F5029093F602A093F702B093F8028EE33A
:102AB00091E09093F2028093F10210920803109239
:102AC000070310920A031092090310920C0310924C
:102AD0000B0310920E0310920D0360910F036E7F93
:102AE0006D7F60930F036695617081E0682786E1D2
:102AF0000E94A10361E086E10E94D103E5EEF1E0CE
:102B0000E491E0930103E6ECF1E0E491F0E0EE0FF4
:102B1000FF1FEC56FE4F8591949190930303809391
:102B2000020360E087E10E94D10380910F0381FDE1
:102B300004C061E087E10E94A10387E18093FD0268
:102B4000E6EEF1E0E491E093FE02E7ECF1E0E491DF
:102B5000F0E0EE0FFF1FEE55FE4F8591949190939C
:102B600000038093FF02DF91CF910895CF92DF920F
:102B7000EF92FF920F931F93CF93DF931F92CDB7E6
:102B8000DEB7182F062FE42E862F880F8E5F9983CD
:102B90000E943C0C83E00E943C0CF12EC12E9981D6
:102BA000D92E8C2D8F19801798F4F601E7FE02C0FC
:102BB000849101C080810E943C0C182F80E00E940B
:102BC0003C0C8123FFEFCF1ADF0A8111EACF01C04D
:102BD00081E00F90DF91CF911F910F91FF90EF90C7
:102BE000DF90CF9008955058BB27AA270E940B165C
:102BF0000C947E170E94701738F00E94771720F00F
:102C000039F49F3F19F426F40C946D170EF4E095F7
:102C1000E7FB0C946717E92F0E948F1758F3BA1738
:102C2000620773078407950720F079F4A6F50C94E2
:102C3000B1170EF4E0950B2EBA2FA02D0B01B901A0
:102C400090010C01CA01A0011124FF27591B99F022
:102C5000593F50F4503E68F11A16F040A22F232F2E
:102C6000342F4427585FF3CF469537952795A7957E
:102C7000F0405395C9F77EF41F16BA0B620B730B25
:102C8000840BBAF09150A1F0FF0FBB1F661F771F96
:102C9000881FC2F70EC0BA0F621F731F841F48F44B
:102CA000879577956795B795F7959E3F08F0B0CFD4
:102CB0009395880F08F09927EE0F979587950895BB
:102CC0000E94431708F481E008950E9479160C943D
:102CD0007E170E94771758F00E94701740F029F471
:102CE0005F3F29F00C94671751110C94B2170C94A4
:102CF0006D170E948F1768F39923B1F3552391F351
:102D0000951B550BBB27AA2762177307840738F05A
:102D10009F5F5F4F220F331F441FAA1FA9F335D0B7
:102D20000E2E3AF0E0E832D091505040E695001C6B
:102D3000CAF72BD0FE2F29D0660F771F881FBB1F25
:102D4000261737074807AB07B0E809F0BB0B802D03
:102D5000BF01FF2793585F4F3AF09E3F510578F02F
:102D60000C9467170C94B2175F3FE4F3983ED4F3CA
:102D7000869577956795B795F7959F5FC9F7880F03
:102D8000911D9695879597F90895E1E0660F771F55
:102D9000881FBB1F621773078407BA0720F0621BE6
:102DA000730B840BBA0BEE1F88F7E09508950E9411
:102DB000971788F09F5798F0B92F9927B751B0F01F
:102DC000E1F0660F771F881F991F1AF0BA95C9F7AF
:102DD00014C0B13091F00E94B117B1E008950C9485
:102DE000B117672F782F8827B85F39F0B93FCCF338
:102DF000869577956795B395D9F73EF4909580952C
:102E0000709561957F4F8F4F9F4F0895E89409C04B
:102E100097FB3EF490958095709561957F4F8F4F0D
:102E20009F4F9923A9F0F92F96E9BB279395F69523
:102E3000879577956795B795F111F8CFFAF4BB0FA1
:102E400011F460FF1BC06F5F7F4F8F4F9F4F16C005
:102E5000882311F096E911C0772321F09EE8872F8F
:102E6000762F05C0662371F096E8862F70E060E04B
:102E70002AF09A95660F771F881FDAF7880F9695C4
:102E8000879597F90895990F0008550FAA0BE0E868
:102E9000FEEF16161706E807F907C0F0121613061C
:102EA000E407F50798F0621B730B840B950B39F45C
:102EB0000A2661F0232B242B252B21F408950A26C2
:102EC00009F4A140A6958FEF811D811D089597F902
:102ED0009F6780E870E060E008959FEF80EC0895C0
:102EE00000240A94161617061806090608950024E9
:102EF0000A9412161306140605060895092E039463
:102F0000000C11F4882352F0BB0F40F4BF2B11F4D6
:102F100060FF04C06F5F7F4F8F4F9F4F089557FD35
:102F20009058440F551F59F05F3F71F04795880F37
:102F300097FB991F61F09F3F79F0879508951216CE
:102F400013061406551FF2CF4695F1DF08C016167A
:102F500017061806991FF1CF86957105610508942B
:102F60000895E894BB2766277727CB0197F9089542
:102F70000E94431708F48FEF08950E94D0170C9415
:102F80007E170E94701738F00E94771720F0952363
:102F900011F00C9467170C946D1711240C94B21750
:102FA0000E948F1770F3959FC1F3950F50E0551F46
:102FB000629FF001729FBB27F00DB11D639FAA278E
:102FC000F00DB11DAA1F649F6627B00DA11D661FDD
:102FD000829F2227B00DA11D621F739FB00DA11DFE
:102FE000621F839FA00D611D221F749F3327A00DB8
:102FF000611D231F849F600D211D822F762F6A2F54
:1030000011249F5750409AF0F1F088234AF0EE0FB8
:10301000FF1FBB1F661F771F881F91505040A9F7E5
:103020009E3F510580F00C9467170C94B2175F3FD8
:10303000E4F3983ED4F3869577956795B795F79521
:10304000E7959F5FC1F7FE2B880F911D9695879599
:1030500097F9089519F416F40C946D170C947518DB
:103060000E949717B8F39923C9F3B6F39F57550BEE
:1030700087FF0E9483180024A0E640EA9001805850
:103080005695979528F4805C660F771F881F20F06F
:1030900026173707480730F4621B730B840B20296F
:1030A00031294A2BA69517940794202531254A27C4
:1030B00058F7660F771F881F20F026173707480735
:1030C00030F4620B730B840B200D311D411DA09554
:1030D00081F7B901842F9158880F969587950895A7
:1030E0000E944317880B990B08959F3F31F0915030
:1030F00020F4879577956795B795880F911D9695DC
:10310000879597F9089591505040660F771F881F53
:10311000D2F7089597FB072E16F4009407D077FD99
:1031200009D00E94C61807FC05D03EF49095819501
:103130009F4F0895709561957F4F0895A1E21A2ED3
:10314000AA1BBB1BFD010DC0AA1FBB1FEE1FFF1F4B
:10315000A217B307E407F50720F0A21BB30BE40B9B
:10316000F50B661F771F881F991F1A9469F76095E2
:103170007095809590959B01AC01BD01CF0108959C
:10318000EE0FFF1F0590F491E02D0994AA1BBB1BC5
:1031900051E107C0AA1FBB1FA617B70710F0A61B57
:1031A000B70B881F991F5A95A9F780959095BC0178
:1031B000CD01089581E090E0F8940C94DF1811E0BF
:1031C000C1E3D1E004C0FE010E94C0182196C233C1
:0831D000D107C9F7F894FFCF05
:1031D800BC01BC01BC01BC01BC0178563412FFFF24
:1031E800FFFF00E1000000000000000000005C019B
:1031F80047047D0120033E03720100000000F10234
:10320800C102BD01AD029E029D0200000000DE0168
:103218009E0C32024A02C501DD0100C18081000016
:103228000062746E2074696D65206F6E000D0A006F
:103238004F4B006E616E00696E66006F7666000027
:00000001FF
