:100000000C9432010C9407060C94E0050C94B9058D
:100010000C9492050C945A010C945A010C946B05A3
:100020000C945A010C94C8070C949D0B0C940B0D66
:100030000C945A010C945A010C945A010C945A01D4
:100040000C945A010C945A010C945A010C945A01C4
:100050000C945A010C945A010C945A010C942105E9
:100060000C945A010C945A010C945A010C945A01A4
:100070000C945A010C945A010C945A010C945A0194
:100080000C945A010C945A010C945A010C945A0184
:100090000C9458080C945A010C945A010C945A016F
:1000A0000C945A010C945A010C945A018F03920338
:1000B000810385038903B303B303B30396039A0350
:1000C0009E03A403A803B303AE0344657669636586
:1000D0002049443A200047593932353020696E6949
:1000E0007469616C697A696E672E2E2E2E005365D5
:1000F0006E736F7220656E61626C65643A200047B2
:10010000593932353020636F6E6E656374696F6E76
:10011000207375636365737366756C6C792E004725
:10012000593932353020636F6E6E656374696F6E56
:10013000206661696C65642E00496E697469616C42
:100140006C697A696E672042542053657269616CEC
:1001500020706F72742E2E2E0053657269616C20B0
:1001600072656164792E0000000000240027002AD7
:10017000002D0030000000000200090F0000030401
:1001800001000C0000000000000000000000000062
:100190000000000000000000250028002B002E00B9
:1001A0003100000000002300260029002C002F0051
:1001B000040404040403040502020202040302020C
:1001C00002020606060606060404020202040404ED
:1001D0000802011040804010204080408008020446
:1001E0000180402010020110801020404020080BA8
:1001F00000020202010009040000010202000005E1
:10020000240010010524010101042402060524062E
:1002100000010705810310004009040100020A00E3
:1002200000000705020240000007058302400000AD
:100230000403090412010002EF0201404123378048
:1002400000010102030141726475696E6F204C4C1C
:10025000430041726475696E6F204D6963726F006F
:100260006315591511241FBECFEFDAE0DEBFCDBFF5
:1002700023E0AEE8B1E001C01D92AC3CB207E1F76B
:1002800011E0A0E0B1E0E6E0F3E302C005900D92DA
:10029000AE38B107D9F711E0C1E3D1E004C021972E
:1002A000FE010E945719C033D107C9F70E94AD0F54
:1002B0000C9476190C940000CF93DF931F92CDB766
:1002C000DEB76983DC01ED91FC910280F381E02DC2
:1002D00041E050E0BE016F5F7F4F09950F90DF91C5
:1002E000CF91089583E08093E9008091F200882304
:1002F00019F08AE38093E8000895FC0184859585D0
:1003000097FD0BC09FB7F89482E08093E90080913D
:10031000F2009FBF90E0019608959FB7F89482E0A5
:100320008093E9008091F2009FBF90E008953FB76D
:10033000F8948091520290915302A0915402B0918E
:10034000550226B5A89B05C02F3F19F00196A11DA7
:10035000B11D3FBFBA2FA92F982F8827820F911D5B
:10036000A11DB11DBC01CD0142E0660F771F881FA2
:10037000991F4A95D1F70895089580914C0290E015
:1003800020914B02821B9109089520919001309198
:1003900091012817390771F490918E0180918F0196
:1003A000981741F0E0918E01F0E0E551FE4F808119
:1003B00090E008958FEF9FEF089508951F93CF93D6
:1003C000DF93DC015C962D913C915D972115310501
:1003D00039F481E090E013969C938E9312973DC080
:1003E0005196ED91FC91529750969C915097892F80
:1003F00080951FB75E964C915E9741FB772770F909
:1004000041FD6095F8944081772311F0492B01C09C
:1004100048234083E9012197F1F748E0508160FFCC
:1004200002C0592B01C058235083E9012197F1F7ED
:100430006695415099F7772321F090818923808335
:1004400003C08081982B90831FBF5C968D919C91F7
:100450005D970197F1F721E030E0C901DF91CF917D
:100460001F9108952091900130919101281739072B
:1004700071F480918F0120918E0190E0805C9F4FFC
:10048000821B910960E470E00E944319089580E0A6
:1004900090E008952091900130919101281739073B
:1004A000B9F490918E0180918F01981789F0E091B5
:1004B0008E01F0E0E551FE4F808120918E0130E009
:1004C0002F5F3F4F2F73332720938E0190E00895C5
:1004D0008FEF9FEF089585ED8093BC008091BC0065
:1004E00084FDFCCF1092800208954091C601262F12
:1004F00030E0240F311D21323105DCF420918002DF
:100500002430C9F4FC0180E090E0861758F4309163
:10051000C6012191DC01AC55BE4FA30FB11D2C9338
:100520000196F3CF8091C601680F6093C60180E009
:10053000089581E0089582E008950895E0914B02C6
:1005400080914C02E81730F4F0E0E55DFD4F8081CA
:1005500090E008958FEF9FEF089590914B02809166
:100560004C02981750F4E92FF0E0E55DFD4F208133
:1005700030E09F5F90934B0202C02FEF3FEFC90125
:100580000895CF92DF92EF92FF920F931F93CF9334
:10059000DF937C01262F972F8A0180918102882387
:1005A00091F0C62FD72F6E01C40ED51ECC15DD05D8
:1005B00071F06991D701ED91FC910190F081E02DEE
:1005C000C7010995F3CF642F822F0E947502C801DD
:1005D000DF91CF911F910F91FF90EF90DF90CF901F
:1005E0000895CF93DF931F92CDB7DEB76983209133
:1005F00081022223D1F02091A402203240F021E098
:1006000030E0FC013383228380E090E015C08091CC
:100610008202E82FF0E0ED57FD4F998190838F5FC4
:10062000809382028093A40205C061E0CE0101960E
:100630000E94750281E090E00F90DF91CF910895C4
:100640000F931F93CF93DF931F92CDB7DEB78C012B
:10065000FC018485958597FF0EC0CE0101960E940E
:100660005F0B019719F4298130E002C02FEF3FEFB3
:10067000F80135872487F801848595850F90DF91EF
:10068000CF911F910F910895CF93DF931F92CDB714
:10069000DEB7FC018485958597FD05C02FEF3FEF00
:1006A000358724870BC0CE0101960E945F0B01970E
:1006B00019F4898190E002C08FEF9FEF0F90DF91D6
:1006C000CF9108950E947119362F90E0FC01EB58EC
:1006D000FE4F4491FC01E153FE4F2491FC01E05593
:1006E000FE4F8491882309F451C04423E1F150E086
:1006F000FA013197EF30F105B0F5EA5AFF4F0C944B
:100700005719909180009F7707C0909180009F7D3E
:1007100003C090918000977F9093800024C094B58F
:100720009F7702C094B59F7D94BD1DC090919000AD
:100730009F7707C0909190009F7D03C0909190009B
:10074000977F909390000FC09091C0009F7703C057
:100750009091C0009F7D9093C00005C09091C20011
:10076000977F9093C200E82FF0E0EE0FFF1FEC564A
:10077000FE4FA591B4918FB7F894EC91311103C05D
:1007800020952E2301C02E2B2C938FBF0895CF933D
:10079000DF9390E0FC01E153FE4F2491FC01E05512
:1007A000FE4F8491882361F190E0880F991FFC012E
:1007B000E959FE4FC591D491FC01EC56FE4FA5912D
:1007C000B491611109C09FB7F89488812095822364
:1007D0008883EC912E230BC0623061F49FB7F894AC
:1007E0003881822F809583238883EC912E2B2C9344
:1007F0009FBF06C08FB7F894E8812E2B28838FBF48
:10080000DF91CF9108958F929F92AF92BF92CF9236
:10081000DF92EF92FF926B017C010E9497014B01E6
:100820005C01C114D104E104F104F1F00E949701CC
:10083000DC01CB0188199909AA09BB09883E9340BC
:10084000A105B10570F321E0C21AD108E108F10851
:1008500088EE880E83E0981EA11CB11CC114D1043F
:10086000E104F10419F7DDCFFF90EF90DF90CF9016
:10087000BF90AF909F908F9008957F928F929F929C
:10088000AF92BF92CF92DF92EF92FF920F931F939E
:10089000CF93DF936C015B017A018091150188236E
:1008A00009F46BC080915902882309F466C08091D5
:1008B000560280FF05C08091E00082608093E000D6
:1008C000E70110E00AEF83E0982E90E4792E2AE306
:1008D000822E209709F448C08FB7F8949092E900CF
:1008E0009091E80095FF06C09091F200272D291BFA
:1008F000922F01C090E08FBF91110AC0015009F4FE
:100900003CC061E070E080E090E00E940304E1CF31
:10091000292F30E0C217D3070CF49C2F8FB7F8941F
:100920009092E9002091E80025FF1CC0292F30E0BB
:10093000C21BD30BF501915020F041914093F1007F
:10094000FACFA20EB31E112319F08092E80009C05D
:100950009091E80095FD06C08092E80011E0209794
:1009600009F010E08FBFB5CF1111B6CF5D9A84E6C4
:10097000809357021E141F0444F081E090E0F601BA
:100980009383828380E090E001C0C701DF91CF9123
:100990001F910F91FF90EF90DF90CF90BF90AF909D
:1009A0009F908F907F9008952FB7F89460914E029A
:1009B00070914F0280915002909151022FBF089583
:1009C0000F931F930E94D4046093A0017093A10120
:1009D0008093A2019093A30100919C0110919D012D
:1009E00020919E0130919F01DC01CB01801B910B76
:1009F000A20BB30B86399105A105B105F8F066E7A6
:100A000071E085EA92E00E94990F8091A001909197
:100A1000A101A091A201B091A30180939C019093A8
:100A20009D01A0939E01B0939F01809192019091AE
:100A30009301019690939301809392011F910F91DE
:100A400008951F920F920FB60F9211242F933F9388
:100A50008F939F93AF93BF9380914E0290914F02DB
:100A6000A0915002B091510230914D0223E0230F2A
:100A70002D3720F40196A11DB11D05C026E8230FD6
:100A80000296A11DB11D20934D0280934E029093BA
:100A90004F02A0935002B093510280915202909164
:100AA0005302A0915402B09155020196A11DB11DAF
:100AB0008093520290935302A0935402B093550234
:100AC000BF91AF919F918F913F912F910F900FBE4A
:100AD0000F901F9018951F920F920FB60F9211242E
:100AE0002F933F934F935F936F937F938F939F9336
:100AF000AF93BF93EF93FF93E0910801F091090149
:100B00000995FF91EF91BF91AF919F918F917F9147
:100B10006F915F914F913F912F910F900FBE0F906A
:100B20001F9018951F920F920FB60F9211242F93BA
:100B30003F934F935F936F937F938F939F93AF9365
:100B4000BF93EF93FF93E0910601F09107010995A0
:100B5000FF91EF91BF91AF919F918F917F916F9195
:100B60005F914F913F912F910F900FBE0F901F906B
:100B700018951F920F920FB60F9211242F933F9347
:100B80004F935F936F937F938F939F93AF93BF9395
:100B9000EF93FF93E0910401F09105010995FF9116
:100BA000EF91BF91AF919F918F917F916F915F91E5
:100BB0004F913F912F910F900FBE0F901F9018955E
:100BC0001F920F920FB60F9211242F933F934F93C2
:100BD0005F936F937F938F939F93AF93BF93EF93A5
:100BE000FF93E0910201F09103010995FF91EF91CC
:100BF000BF91AF919F918F917F916F915F914F9135
:100C00003F912F910F900FBE0F901F9018951F923C
:100C10000F920FB60F9211242F933F934F935F9330
:100C20006F937F938F939F93AF93BF93EF93FF93B4
:100C3000E0910001F09101010995FF91EF91BF91C1
:100C4000AF919F918F917F916F915F914F913F9164
:100C50002F910F900FBE0F901F9018952F923F92DB
:100C60004F925F926F927F928F929F92AF92BF92BC
:100C7000CF92DF92EF92FF920F931F93CF93DF9368
:100C8000CDB7DEB728970FB6F894DEBF0FBECDBF45
:100C9000D82EC62E4887190178010E94D4042B0152
:100CA0003C018D2C880C912C10E001E04885A42E8D
:100CB000B12C970140E050E02B833C834D835E8351
:100CC0004885941608F0A0C000938102D092A30238
:100CD000109282021092A4026C2D8DE393E00E9488
:100CE000F1020E94B30A00938102D092A3021092F3
:100CF00082021092A402809180028111FCCF9501A2
:100D0000291931092132310514F020E230E02F8316
:100D1000213210F030E23F830093800200937F0283
:100D20004FEF40937E0210927D028F81815080931D
:100D30007C0200935B0280915B02882980935B02B6
:100D400080915A02813071F410925A0280915B02B4
:100D50008093BB008091BC0083FDF8CF55EC50938D
:100D6000BC0003C085EE8093BC008091800281307E
:100D7000E1F380917D022F81821718F430917D027A
:100D80003F83ACE5B2E0EBE2F2E08E2F4BE252E0C3
:100D9000841B5F81851718F48D918193F6CF109293
:100DA0004B0250934C0280914B022F81281721F166
:100DB000E114F10481F49101210F311D17FD3A95E1
:100DC0003A8329838DE393E00E94AD02A981BA8121
:100DD0008C931F5FE8CF0E94D404DC01CB018419FF
:100DE0009509A609B7092B813C814D815E81821747
:100DF0009307A407B507F8F20E94B30A88858132E9
:100E000008F080E2980E5CCFE114F104D9F00E9462
:100E1000D404AB01BC014419550966097709C7011F
:100E2000A0E0B0E0481759076A077B0758F05885DB
:100E3000852F90E0212F012E000C330B2817390746
:100E40000CF41FEF812F28960FB6F894DEBF0FBE6B
:100E5000CDBFDF91CF911F910F91FF90EF90DF9069
:100E6000CF90BF90AF909F908F907F906F905F904A
:100E70004F903F902F900895CF92DF92EF92FF9284
:100E80000F931F93CF93DF9300D0CDB7DEB7F82E2B
:100E9000E62ED42EC22E08EE13E09E012E5F3F4FA9
:100EA00041E00E942E063A81E1E0F0E0AF0101C08E
:100EB000440FDA94EAF7CC2019F0932F942B03C057
:100EC000942F909593239A839983AE014F5F5F4F40
:100ED0006E2D8F2D0E94310B0F900F90DF91CF91CF
:100EE0001F910F91FF90EF90DF90CF900895BF92E8
:100EF000CF92DF92EF92FF920F931F93CF93DF93E6
:100F000000D0CDB7DEB7F82EE62EC42EB22ED02EEE
:100F100008EE13E09E012E5F3F4F41E00E942E0637
:100F2000882349F14C2D50E04B1951094F5F5F4F19
:100F300021E030E002C0220F331FBA94E2F72150C3
:100F40003109042E01C0220F0A94EAF78D2D01C049
:100F5000880F4A95EAF7322F30959A8193232823F8
:100F6000292B2A832983AE014F5F5F4F6E2D8F2D72
:100F70000E94310B01C080E00F900F90DF91CF9164
:100F80001F910F91FF90EF90DF90CF90BF90089549
:100F90001F920F920FB60F9211242F933F934F93EE
:100FA0005F936F937F938F939F93AF93BF93EF93D1
:100FB000FF93E0919001F0919101309709F451C0B5
:100FC000968DA685B785858591FF04C09C91892360
:100FD00029F447C09C91892309F043C0A389B489AF
:100FE0009C918589809589238C938689978901971F
:100FF000F1F7608D718DA685B785558538E020E0C5
:10100000CB010197F1F7822F90E095958795282FD6
:101010004C91452309F02068315091F7868D81FD70
:10102000209580918F0190E001968F7399273091E0
:101030008E01381749F0A0918F01B0E0A551BE4F45
:101040002C9380938F0103C0868D8160868F828D63
:10105000938D0197F1F7A389B4899C918589892B98
:101060008C93FF91EF91BF91AF919F918F917F9161
:101070006F915F914F913F912F910F900FBE0F9005
:101080001F901895E0919001F0919101E817F907F0
:1010900069F4A389B4899C918589809589238C936F
:1010A000109291011092900181E0089580E00895DE
:1010B0001F920F920FB60F9211242F933F934F93CD
:1010C0005F936F937F938F939F93AF93BF93EF93B0
:1010D000FF938091B900887F803609F49CC068F541
:1010E000883209F45BC090F4803109F454C038F4BC
:1010F000882309F4F6C0883009F44DC0F6C0883161
:1011000009F44CC0803209F45DC0EFC0803409F4AA
:1011100068C048F4803309F455C0883309F0E5C04D
:1011200080937E02D8C0803509F44FC0883509F419
:101130005DC0883409F0D9C0D6C0883909F4C7C069
:10114000A8F4883709F467C038F4883609F463C016
:10115000803709F460C0C9C0883809F4B8C0803944
:1011600009F45FC0803809F0C0C05BC0803B09F45F
:1011700086C038F4803A09F466C0883A09F47FC022
:10118000B4C0803C09F4A7C0883C09F4A4C0883BE3
:1011900009F48AC0AAC080915B0210C090917D02C0
:1011A00080917C02981770F5E0917D0281E08E0FAE
:1011B00080937D02F0E0E45AFD4F80818093BB0074
:1011C00085EC86C080937E028EC0E0917D0281E036
:1011D0008E0F80937D028091BB00F0E0E45AFD4FBA
:1011E000808390917D0280917C026EC0E0917D02AF
:1011F00081E08E0F80937D028091BB00F0E0E45A85
:10120000FD4F808380917F0281116DC081E08093CA
:101210005A0284EA61C083E0809380021092EA015E
:10122000CFCF8091EA01803208F051C0E091EA010D
:1012300081E08E0F8093EA018091BB00F0E0E653DD
:10124000FE4F8083BDCF85EC8093BC00109280025E
:101250008091EA01803230F4E091EA01F0E0E65357
:10126000FE4F10826091EA0170E0E091C801F091B8
:10127000C9018AEC91E009951092EA0136C084E038
:10128000809380021092C7011092C601E091C401C0
:10129000F091C50109958091C601811105C081E0D9
:1012A0008093C6011092A401E091C70181E08E0FE6
:1012B0008093C701F0E0EC55FE4F80818093BB0026
:1012C0009091C7018091C601981708F479CF85E8FD
:1012D0008093BC000AC085EC8093BC001092800211
:1012E00004C010927E020E946B02FF91EF91BF91A9
:1012F000AF919F918F917F916F915F914F913F91AE
:101300002F910F900FBE0F901F9018954F925F92E4
:101310006F927F928F929F92AF92BF92CF92DF9205
:10132000EF92FF92E8E6F3E0608171818281938120
:1013300084809580A680B780C084D184E284F384C1
:101340009B01AC010E94F0162B013C01A501940108
:10135000C501B4010E94F0169B01AC01C301B201AA
:101360000E94D1174B015C01A7019601C701B6018C
:101370000E94F0169B01AC01C501B4010E94D11777
:10138000FF90EF90DF90CF90BF90AF909F908F90A5
:101390007F906F905F904F900C94E918E091A502B8
:1013A000F091A6020190F081E02D682F85EA92E08D
:1013B00009944F925F926F927F928F929F92AF9219
:1013C000BF92CF92DF92EF92FF926B017C01B42E1D
:1013D0009B01AC010E942919882319F062E871E091
:1013E00027C026013701E89477F82FEF3FEF4FE74A
:1013F0005FE7C301B2010E94291981110DC02FEFCF
:101400003FEF4FE75FE7C301B2010E948A1618164B
:101410001CF466E871E00CC02FEF3FEF4FE75FE48C
:10142000C701B6010E94DE18181694F46AE871E04C
:1014300085EA92E0FF90EF90DF90CF90BF90AF9061
:101440009F908F907F906F905F904F900C943B0F88
:101450002FEF3FEF4FE75FECC701B6010E948A16FE
:1014600087FDE4CF20E030E0A901C701B6010E946A
:101470008A1687FF09C08DE20E94CE094C01F7FA57
:10148000F094F7F8F09402C0812C912CA12C60E02C
:1014900070E080E09FE3AB1441F020E030E040E2F8
:1014A00051E40E943D18A394F6CF9B01AC01C70103
:1014B000B6010E94D1172B013C010E94AF186B01AD
:1014C0007C010E948F169B01AC01C301B2010E94F6
:1014D000D0172B013C012AE0B701A60185EA92E072
:1014E0000E94500F7C01E80CF91CBB2029F08EE211
:1014F0000E94CE09E80EF91EDB2CDD2031F120E040
:1015000030E040E251E4C301B2010E94F0162B0129
:101510003C010E94AF184B01A12CB12C2AE0B5016F
:10152000A40185EA92E00E94500FE80EF91EC50161
:10153000B4010E948F169B01AC01C301B2010E944D
:10154000D0172B013C01DA94D8CFC701FF90EF9060
:10155000DF90CF90BF90AF909F908F907F906F90D3
:101560005F904F9008952091A4029091A3022132A0
:1015700008F04AC0809180028111FCCF32E03093A4
:10158000800231E030937F023FEF30937E02109271
:101590007D0220937C02A3E8B2E04CE552E0FA0120
:1015A0003E2F341B321718F43D913193F9CF10922E
:1015B0005B0220915B02990F922B90935B029091BA
:1015C0005A02913061F410925A0290915B0290930A
:1015D000BB009091BC0093FDF8CF95EC01C095EE57
:1015E0009093BC00909180029230E1F390917E0242
:1015F0009F3F79F080917E02803241F080917E029F
:10160000803331F084E005C081E003C082E001C096
:1016100083E0109282021092A40210928102089537
:101620000F931F93CF93DF938C01C0E0D0E0F801BC
:10163000EC0FFD1F6491662371F0E091A502F0911B
:10164000A6020190F081E02D85EA92E00995892BB0
:1016500011F02196ECCFCE01DF91CF911F910F9128
:101660000895CF93DF93EA0191E0909381028093F4
:10167000A302109282021092A4028DE393E00E94D2
:10168000F10268818DE393E00E94F1020E94B30AA7
:1016900091E0811190E0892FDF91CF910895CF9350
:1016A000DF930E94100BEC016CE571E085EA92E09B
:1016B0000E943B0F8C0F9D1FDF91CF910895FC017D
:1016C00080915902811103C08FEF9FEF08959FB75A
:1016D000F89482E08093E9002091F20030E0121645
:1016E000130614F421E030E02115310559F0289A51
:1016F00084E6809358028091F10080838091F2000B
:10170000882319F09FBFC90108958BE68093E800F4
:10171000F9CF8091BE0381110DC082E08093BA039E
:1017200084E08093BB031092BD031092BC0381E060
:101730008093BE038AEB93E008951F920F920FB639
:101740000F9211248F939F938091E1009091E1007B
:10175000937F9093E10083FF0FC01092E90091E026
:101760009093EB001092EC0092E39093ED001092B6
:10177000590298E09093F00082FF20C093E090938C
:10178000E9009091F200992319F09AE39093E80010
:1017900090915702992339F090915702915090936C
:1017A0005702992389F190915802992339F0909129
:1017B0005802915090935802992341F184FF10C030
:1017C0008091E2008E7E81608093E2008091E10052
:1017D0008F7E8093E100809156028E7E806111C0E1
:1017E00080FF16C08091E2008E7E80618093E200CF
:1017F0008091E1008E7E8093E100809156028E7E82
:1018000081608093560204C05D98CDCF2898D6CFD2
:101810009F918F910F900FBE0F901F901895409140
:10182000CA035091CB032091C8033091C9034217DA
:101830005307B4F49091E8009570E1F39091E800BB
:1018400092FD19C08093F1008091CA039091CB035F
:1018500001968F739927892B19F48EEF8093E800F6
:101860008091CA039091CB0301969093CB03809310
:10187000CA0381E0089580E00895CF92DF92EF924D
:10188000FF920F931F93CF93DF931F92CDB7DEB7D5
:10189000182F062FE42E862F880F8E5F99830E94C3
:1018A0000F0C83E00E940F0CF12EC12E9981D92ECE
:1018B0008C2D8F19801798F4F601E7FE02C08491F1
:1018C00001C080810E940F0C182F80E00E940F0C35
:1018D0008123FFEFCF1ADF0A8111EACF01C081E037
:1018E0000F90DF91CF911F910F91FF90EF90DF90BC
:1018F000CF900895DF92EF92FF920F931F93CF93B3
:10190000DF93D82E8A017B01E40EF51EEB01CE1584
:10191000DF0571F0D7FE03C0FE01849101C088810C
:101920000E940F0C21968111F2CF8FEF9FEF01C023
:10193000C801DF91CF911F910F91FF90EF90DF9041
:101940000895615030F02091F100FC012083019650
:10195000F8CF289A84E6809358020895CF92DF92B8
:10196000EF92FF920F931F93CF93DF936C017A0155
:101970008B01C0E0D0E0CE15DF0589F0D8016D9174
:101980008D01D601ED91FC910190F081E02DC60111
:101990000995892B11F47E0102C02196ECCFC70175
:1019A000DF91CF911F910F91FF90EF90DF90CF903B
:1019B00008950F931F93CF93DF931F92CDB7DEB798
:1019C00082E0898342E450E06EEE71E080E80E949C
:1019D0007A0C0E94890BDC0112960D911C911397D1
:1019E0000115110569F0D801ED91FC910280F38198
:1019F000E02DBE016F5F7F4FC801099597FF07C0BB
:101A000089810F90DF91CF911F910F910895F80177
:101A100000851185E5CF1F920F920FB60F9211240A
:101A2000CF92DF92EF92FF920F931F932F933F93EA
:101A30004F935F936F937F938F939F93AF93BF93D6
:101A4000EF93FF93CF93DF93CDB7DEB76C97DEBFF5
:101A5000CDBF1092E9008091E80083FFEDC168E0FE
:101A6000CE0145960E94A10C82EF8093E8008D89FB
:101A700087FF05C09091E80090FFFCCF03C09EEF68
:101A80009093E800982F907609F0C6C09E892F8920
:101A9000188D91110CC0803829F48091C703809370
:101AA000F10002C01092F1001092F10048C1422FE3
:101AB00050E0512B913051F4811141C14130510519
:101AC00009F03DC18091C7038D7F0BC0933061F455
:101AD000811135C14130510509F031C18091C703F1
:101AE00082608093C7032BC1953041F48091E80058
:101AF00080FFFCCF20682093E30021C1963009F0DD
:101B00005FC0EB8CFC8C1092E9001092CB0310921A
:101B1000CA03123091F51092C9031092C8030E94B3
:101B2000D90C99E0BE016F5F7F4FDB01E92F1D9259
:101B3000EA95E9F799831A8391E09E8390EA988762
:101B40009AEF99872091CA033091CB03275F3F4FCB
:101B50003C832B838D831092E9001092CB0310926B
:101B6000CA03F092C903E092C80349E050E080E064
:101B70000E947A0C0E94D90CE2C0F092C903E09254
:101B8000C8030E94890BDC011296ED90FC9013971C
:101B9000E114F10409F4C0C0D701ED91FC91048077
:101BA000F581E02DBE016B5E7F4FC701099500975F
:101BB00019F00CF0C4C0C7C0F701E084F184E8CF8D
:101BC000973009F4C0C0983021F481E08093F1008F
:101BD000B6C0993009F0B3C0837009F0B4C0E7E42F
:101BE000F1E081E021E036E39081992361F0809378
:101BF000E9002093EB0091919093EC003093ED007D
:101C00008F5F873089F78EE78093EA001092EA00B1
:101C10008F898093590293C08B8D9C8D1092E9001F
:101C20001092CB031092CA039093C9038093C80308
:101C3000898D811156C08E899D89913A59F48132DE
:101C400009F081C047E050E06EE071E080E00E9462
:101C50007A0C75C0913209F076C0833289F4888D90
:101C600090E0982F88272F89822BA0E0B0E0809306
:101C70000A0190930B01A0930C01B0930D015FC07A
:101C8000803269F48091E80082FFFCCF67E08EE04B
:101C900091E00E94A10C8BEF8093E80006C0823295
:101CA00009F04DC08F89809315018091C603882368
:101CB00019F0EEEFFAE002C0E0E0F8E080910E01EA
:101CC00090910F01A0911001B0911101803B9440BF
:101CD000A105B10509F07BC08091150180FF93C07B
:101CE00076C00E94890BDC0112960D911C9113970E
:101CF0000115110541F1D801ED91FC910190F081A0
:101D0000E02DBE016B5E7F4FC8010995811117C0A0
:101D1000F80100851185ECCF113009F44EC0133065
:101D200091F48F89882309F445C0823081F440E81A
:101D30006DE082E592E00E943D0C882321F08EEF59
:101D40008093E80079C081E28093EB0075C0813018
:101D500029F440E86BE086E492E0EDCF833099F718
:101D60000E94890BDC011296ED90FC9013978E0176
:101D70000F5F1F4F6801E114F10479F0D701ED9175
:101D8000FC910680F781E02DB801C7010995080F85
:101D9000111DF701E084F184EECFD8011C92F60109
:101DA00001900020E9F73197BF016C197D0940E0EF
:101DB000C601C1CF60E372E002C064E372E0611566
:101DC000710509F2FB01449150E080E840CF0FB665
:101DD000F894A895809160008861809360001092CB
:101DE00060000FBEA895EE3F2AE0F20739F080911F
:101DF000FE0A9091FF0A91838083A1CF1092FF0A7F
:101E00001092FE0A9CCFEE3F8AE0F80731F0808105
:101E100091819093FF0A8093FE0A87E797E7918369
:101E200080839BE088E10FB6F894A89580936000CA
:101E30000FBE9093600083CF6C960FB6F894DEBF10
:101E40000FBECDBFDF91CF91FF91EF91BF91AF91C9
:101E50009F918F917F916F915F914F913F912F91C2
:101E60001F910F91FF90EF90DF90CF900F900FBEDA
:101E70000F901F9018956115710579F0FB01019085
:101E80000020E9F73197AF01461B570BDC01ED91BC
:101E9000FC910280F381E02D099480E090E00895A8
:101EA0004F925F926F927F92EF92FF920F931F93E8
:101EB000CF93DF93CDB7DEB7A1970FB6F894DEBF0F
:101EC0000FBECDBF7C01FA01CB0119A2223008F46C
:101ED0002AE08E010F5D1F4F422E512C612C712C78
:101EE000BF01A30192010E94AE17F901CA0101507E
:101EF00011096A3014F4605D01C0695CD8016C930B
:101F0000232B242B252B61F7B801C7010E943B0F1F
:101F1000A1960FB6F894DEBF0FBECDBFDF91CF9173
:101F20001F910F91FF90EF907F906F905F904F9077
:101F300008950F931F93CF93DF93EC010E943B0F03
:101F40008C016CE571E0CE010E943B0F800F911F68
:101F5000DF91CF911F910F910895CF93DF931F923F
:101F6000CDB7DEB7789484B5826084BD84B58160D6
:101F700084BD85B5826085BD85B5816085BD809154
:101F80006E00816080936E001092810080918100CC
:101F900082608093810080918100816080938100C4
:101FA00080918000816080938000809191008260A8
:101FB0008093910080919100816080939100809145
:101FC00090008160809390008091C1008460809334
:101FD000C1008091C10082608093C1008091C100E6
:101FE00081608093C1008091C30081608093C300B1
:101FF0008091C00082608093C0008091C2008160A7
:102000008093C20080917A00846080937A008091EE
:102010007A00826080937A0080917A008160809358
:102020007A0080917A00806880937A001092590239
:102030001092C703109256028091D700816080935E
:10204000D70080EA8093D80089B5806189BD89B5C1
:10205000826089BD09B400FEFDCF61E070E080E0E0
:1020600090E00E9403048091D8008F7C806180936F
:10207000D8008091E000807F8093E0008091E100B3
:102080008E7E8093E1008DE08093E200559A209A45
:102090005D982898EEEFFFE7859194918B3F9C4DDA
:1020A00019F481E08093C6031092390310923A0329
:1020B00010923B0310923C031092F7021092F80228
:1020C0001092F9021092FA020E94D4046B017C0172
:1020D0004B015C0188EB880E8BE0981EA11CB11CA3
:1020E0000E94D4046C157D058E059F0528F0861688
:1020F0009706A806B906A0F785EA92E09093380300
:10210000809337030BE110E0F09015016AE070E076
:1021100080E090E00E940304F1100AC00150110910
:1021200039F064E670E080E090E00E940304ECCFB8
:10213000E0913703F09138038FEF9FEF9587848705
:102140000E94D4046093F7027093F8028093F9021E
:102150009093FA026DE471E0809137039091380317
:102160000E943B0F0E94D4046B017C014B015C0177
:102170009AE0890E911CA11CB11C0E94D4046C151C
:102180007D058E059F0528F086169706A806B906D8
:10219000A0F781E080930B0361E08DE00E94C7030C
:1021A00061E082E10E94C70362E087E00E94C7030A
:1021B00061E08DE00E94640361E082E10E946403BB
:1021C00080EE94E0909309018093080180916A0069
:1021D0008F7C806280936A00EE9A8FEF9FEF9093DE
:1021E000B2028093B10289E591E00E944F0B89E32E
:1021F00091E00E94100B10926403109263031092FE
:102200006203109261031092600310925F038DE9E4
:1022100091E090936603809365038091550398EF56
:10222000980F943048F022EF280F243028F026EE43
:10223000280F233008F060C02DEB30E030936003AE
:1022400020935F032BE931E0309362032093610315
:102250002CE231E03093640320936303943058F010
:1022600092EF980F943038F08A51833008F419C4F3
:10227000A0E0B0E018C4A8E6B0E0E8E6F0E08081B5
:1022800081608C938091550398EF980F943058F0AB
:1022900022EF280F243038F026EE280F233018F0D4
:1022A00020E030E002C02BE630E030935D03209365
:1022B0005C03943010F49CEF09C08E3071F08F30C5
:1022C00071F0803171F0813171F09AEE980F81E0F8
:1022D00001C0880F9A95EAF707C088E005C082E040
:1022E00003C084E001C081E080935E0380916503B8
:1022F000909166030197F1F78091630390916403D5
:10230000892B21F1809190019091910123E08934F2
:102310009207E1F0009711F00E9442088091670354
:102320008E7F8093670310928F0110928E0189E453
:1023300093E09093910180939001E0915C03F09180
:102340005D03908180915E03892B80836FE571E04E
:1023500085EA92E00E94990F86ED90E00E944F0B73
:1023600001E023E042E06BE68091AA030E94770738
:1023700000E022E044E06BE18091AA030E9477072D
:1023800022E044E06CE18091AA030E94770720E0FC
:1023900046E06BE68091AA030E943C0768EE73E07A
:1023A00080E090E00E9403048AEC90E00E94100B11
:1023B00008EE13E09E012F5F3F4F41E065E78091FB
:1023C000AA030E942E06882329F089818F7790E046
:1023D0008093AB034091AB0350E060E070E020E1FC
:1023E00085EA92E00E94500F6CE571E085EA92E088
:1023F0000E943B0F08EE13E09E012F5F3F4F41E02C
:1024000065E78091AA030E942E06882329F089811E
:102410008F7790E08093AB038091AB03813729F0F5
:102420008FE191E00E944F0B97CF8FEF90E00E94D9
:102430004F0B83E08093B90320E045E06CE6809188
:10244000AA030E943C0720E044E06CE68091AA03C6
:102450000E943C0720E043E06CE68091AA030E94C2
:102460003C078091B90381FF15C020E042E06CE693
:102470008091AA030E943C0720E041E06CE6809135
:10248000AA030E943C0720E040E06CE68091AA038A
:102490000E943C078EEE90E00E94100B4091B90321
:1024A000417050E060E070E02AE085EA92E00E942E
:1024B000500F4091B903427050E060E070E02AE0B4
:1024C00085EA92E00E94500F6CE571E085EA92E0A7
:1024D0000E943B0F64EF462E55245394612C712CBF
:1024E0000E94D404672B682B692B41F40E94D4040A
:1024F000623071058105910508F411C10E94D40470
:10250000609398017093990180939A0190939B0135
:1025100000919401109195012091960130919701BD
:10252000601771078207930740F4609394017093DA
:1025300095018093960190939701009194011091D9
:10254000950120919601309197016B017C01C01A91
:10255000D10AE20AF30A970186010A3F1105210513
:10256000310508F4DCC06093940170939501809369
:102570009601909397014092030350920403609256
:10258000050370920603109207031092080310923D
:10259000090310920A038091FB029091FC02A09122
:1025A000FD02B091FE028093FF0290930003A0937E
:1025B0000103B09302030E94D4046093FB02709362
:1025C000FC028093FD029093FE020E94D40460936B
:1025D000F7027093F8028093F9029093FA020E9436
:1025E000D4046B017C0162E671E080913703909125
:1025F00038030E943B0F2AE041E050E060E070E0C9
:1026000080913703909138030E94500F69E671E082
:1026100080913703909138030E943B0F2AE0B70165
:10262000A60180913703909138030E94500F6BE60A
:1026300071E080913703909138030E943B0F8091A5
:10264000FB029091FC02A091FD02B091FE02B70145
:10265000A601481B590B6A0B7B0B2AE080913703BC
:10266000909138030E94500F6BE671E08091370320
:10267000909138030E943B0F4091FB025091FC0265
:102680006091FD027091FE028091FF029091000323
:10269000A0910103B0910203481B590B6A0B7B0BFD
:1026A0002AE080913703909138030E94500F6DE625
:1026B00071E080913703909138030E943B0F0E9494
:1026C000D404AB01BC012AE0809137039091380318
:1026D0000E94500F6FE671E08091370390913803AC
:1026E0000E94990F0E94D4044B015C016B017C0194
:1026F00022E0C20ED11CE11CF11C0E94D40468151A
:1027000079058A059B0508F0C5C10E94D404609331
:10271000FB027093FC028093FD029093FE0208EE90
:1027200013E02BEA33E04EE06BE38091AA030E94B2
:102730002E066091AB0370E0762F66278091AC0384
:10274000682B70939903609398038090AD03912C4C
:10275000982C88248091AE03882A90929B038092C3
:102760009A03A090AF03B12CBA2CAA248091B00395
:10277000A82AB0929D03A0929C03C090B303D12CD1
:10278000DC2CCC248091B403C82AD0929F03C09241
:102790009E03E090B503F12CFE2CEE248091B6034D
:1027A000E82AF092A103E092A0030091B70310E0A1
:1027B000102F00278091B803082B1093A3030093D8
:1027C000A2033090B90330FE2AC0072E000C880BFC
:1027D000990B0E949116609368037093690380932C
:1027E0006A0390936B03B401990C880B990B0E94B8
:1027F000911660936C0370936D0380936E039093B6
:102800006F03B501BB0C880B990B0E949116609366
:10281000700370937103809372039093730320E0AD
:1028200030E040E858E3609168037091690380915B
:102830006A0390916B030E94F0164B015C01609358
:1028400068037093690380936A0390936B0320E09D
:1028500030E040E858E360916C0370916D03809123
:102860006E0390916F030E94F01660936C03709357
:102870006D0380936E0390936F0320E030E040E897
:1028800058E360917003709171038091720390918D
:1028900073030E94F016609370037093710380932A
:1028A00072039093730331FE2AC0B601DD0C880BCE
:1028B000990B0E9491166093740370937503809333
:1028C000760390937703B701FF0C880B990B0E9456
:1028D0009116609378037093790380937A039093B1
:1028E0007B03B801110F880B990B0E94911660931E
:1028F0007C0370937D0380937E0390937F0320E09D
:1029000030E040E858E36091740370917503809162
:102910007603909177030E94F0166093740370938E
:102920007503809376039093770320E030E040E8CE
:1029300058E3609178037091790380917A039091C4
:102940007B030E94F0166093780370937903809361
:102950007A0390937B0320E030E040E858E36091F5
:102960007C0370917D0380917E0390917F030E9490
:10297000F01660937C0370937D0380937E039093A5
:102980007F030E9486099B01AC01C501B4010E942E
:102990003D1842E00E94D90980E20E94CE09C09011
:1029A0006C03D0906D03E0906E03F0906F030E9473
:1029B00086099B01AC01C701B6010E943D1842E0A7
:1029C0000E94D90980E20E94CE09C0907003D09085
:1029D0007103E0907203F09073030E9486099B01DB
:1029E000AC01C701B6010E943D1842E00E94D9091E
:1029F00080E20E94CE09609174037091750380910A
:102A000076039091770342E00E94D90980E20E9408
:102A1000CE09609178037091790380917A03909147
:102A20007B0342E00E94D90980E20E94CE096091B6
:102A30007C0370917D0380917E0390917F0342E03F
:102A40000E94D9096CE571E085EA92E00E943B0F93
:102A50006091920189E493E00E94DE0161E082E1ED
:102A60000E94640364EF71E080E090E00E94030440
:102A700060E082E10E94640364EF71E080E090E036
:102A80000E94030480E090E0892B09F429CD0E9484
:102A9000000026CDC616D706E806F90608F02DCEAA
:102AA00034CEA8E6B0E0833008F4E7CBE0E0F0E015
:102AB000E6CB8AE391E090934A038093490389E44B
:102AC00093E00C944208CF93DF931092A8021092E7
:102AD000A70288EE93E0A0E0B0E08093A902909373
:102AE000AA02A093AB02B093AC022AE131E030938A
:102AF000A6022093A5022FEF3FEF3093B20220935E
:102B0000B1021092FB021092FC021092FD02109290
:102B1000FE021092FF021092000310920103109225
:102B20000203109203031092040310920503109203
:102B300006031092070310920803109209031092E3
:102B40000A031092400310923F0380934103909335
:102B50004203A0934303B09344032AE231E030934D
:102B60003E0320933D031092680310926903109274
:102B70006A0310926B0310926C0310926D03109213
:102B80006E0310926F0310927003109271031092F3
:102B900072031092730310927403109275031092D3
:102BA00076031092770310927803109279031092B3
:102BB0007A0310927B0310927C0310927D03109293
:102BC0007E0310927F031092800310928103109273
:102BD0008203109283031092840310928503109253
:102BE0008603109287031092880310928903109233
:102BF0008A0310928B0310928C0310928D03109213
:102C00008E0310928F0310929003109291031092F2
:102C100092031092930310929403109295031092D2
:102C200096031092970322E1E8E9F3E0EF0119928D
:102C30002A95E9F728E62093AA031092B903109287
:102C40004C0310924B0380934D0390934E03A0933B
:102C50004F03B09350038AE391E090934A0380932B
:102C600049031092600310925F0310926203109266
:102C70006103109264031092630310926603109232
:102C80006503609167036E7F6D7F60936703669550
:102C9000617081E0682786E10E94640361E086E15B
:102CA0000E94C703E5EEF1E0E491E0935903E6ECFE
:102CB000F1E0E491F0E0EE0FFF1FEC56FE4F85913E
:102CC000949190935B0380935A0360E087E10E94A4
:102CD000C7038091670381FD04C061E087E10E9422
:102CE000640387E180935503E6EEF1E0E491E0931D
:102CF0005603E7ECF1E0E491F0E0EE0FFF1FEE5534
:102D0000FE4F859194919093580380935703DF91E0
:102D1000CF9108950E94CC1608F481E00895E894BC
:102D200009C097FB3EF490958095709561957F4F13
:102D30008F4F9F4F9923A9F0F92F96E9BB279395C1
:102D4000F695879577956795B795F111F8CFFAF4D1
:102D5000BB0F11F460FF1BC06F5F7F4F8F4F9F4F02
:102D600016C0882311F096E911C0772321F09EE860
:102D7000872F762F05C0662371F096E8862F70E0C6
:102D800060E02AF09A95660F771F881FDAF7880FA0
:102D90009695879597F90895990F0008550FAA0BF6
:102DA000E0E8FEEF16161706E807F907C0F012165E
:102DB0001306E407F50798F0621B730B840B950B61
:102DC00039F40A2661F0232B242B252B21F40895B6
:102DD0000A2609F4A140A6958FEF811D811D089553
:102DE0000E9403170C9474170E94661738F00E9413
:102DF0006D1720F0952311F00C945D170C94631758
:102E000011240C94A8170E94851770F3959FC1F3A5
:102E1000950F50E0551F629FF001729FBB27F00D88
:102E2000B11D639FAA27F00DB11DAA1F649F6627DD
:102E3000B00DA11D661F829F2227B00DA11D621F2C
:102E4000739FB00DA11D621F839FA00D611D221FE6
:102E5000749F3327A00D611D231F849F600D211DCA
:102E6000822F762F6A2F11249F5750409AF0F1F04D
:102E700088234AF0EE0FFF1FBB1F661F771F881FB6
:102E800091505040A9F79E3F510580F00C945D177A
:102E90000C94A8175F3FE4F3983ED4F3869577959A
:102EA0006795B795F795E7959F5FC1F7FE2B880F5C
:102EB000911D9695879597F9089597F99F6780E8F2
:102EC00070E060E008959FEF80EC089500240A947C
:102ED0001616170618060906089500240A941216F5
:102EE0001306140605060895092E0394000C11F428
:102EF000882352F0BB0F40F4BF2B11F460FF04C0D5
:102F00006F5F7F4F8F4F9F4F089557FD9058440F2D
:102F1000551F59F05F3F71F04795880F97FB991F38
:102F200061F09F3F79F087950895121613061406F5
:102F3000551FF2CF4695F1DF08C016161706180682
:102F4000991FF1CF86957105610508940895E8945D
:102F5000BB2766277727CB0197F90895A1E21A2EA0
:102F6000AA1BBB1BFD010DC0AA1FBB1FEE1FFF1F2D
:102F7000A217B307E407F50720F0A21BB30BE40B7D
:102F8000F50B661F771F881F991F1A9469F76095C4
:102F90007095809590959B01AC01BD01CF0108957E
:102FA0005058BB27AA270E94E8170C9474170E9458
:102FB000661738F00E946D1720F039F49F3F19F41E
:102FC00026F40C9463170EF4E095E7FB0C945D1760
:102FD000E92F0E94851758F3BA1762077307840711
:102FE000950720F079F4A6F50C94A7170EF4E09558
:102FF0000B2EBA2FA02D0B01B90190010C01CA01B3
:10300000A0011124FF27591B99F0593F50F4503E5D
:1030100068F11A16F040A22F232F342F4427585F4F
:10302000F3CF469537952795A795F0405395C9F767
:103030007EF41F16BA0B620B730B840BBAF091501F
:10304000A1F0FF0FBB1F661F771F881FC2F70EC0BE
:10305000BA0F621F731F841F48F487957795679591
:10306000B795F7959E3F08F0B0CF9395880F08F07D
:103070009927EE0F9795879508950E9451180C9403
:1030800074170E946D1758F00E94661740F029F4DB
:103090005F3F29F00C945D1751110C94A8170C9404
:1030A00063170E94851768F39923B1F3552391F3B1
:1030B000951B550BBB27AA2762177307840738F0A7
:1030C0009F5F5F4F220F331F441FAA1FA9F335D004
:1030D0000E2E3AF0E0E832D091505040E695001CB8
:1030E000CAF72BD0FE2F29D0660F771F881FBB1F72
:1030F000261737074807AB07B0E809F0BB0B802D50
:10310000BF01FF2793585F4F3AF09E3F510578F07B
:103110000C945D170C94A8175F3FE4F3983ED4F32A
:10312000869577956795B795F7959F5FC9F7880F4F
:10313000911D9695879597F90895E1E0660F771FA1
:10314000881FBB1F621773078407BA0720F0621B32
:10315000730B840BBA0BEE1F88F7E09508950E945D
:103160008D1788F09F5798F0B92F9927B751B0F075
:10317000E1F0660F771F881F991F1AF0BA95C9F7FB
:1031800014C0B13091F00E94A717B1E008950C94DB
:10319000A717672F782F8827B85F39F0B93FCCF38E
:1031A000869577956795B395D9F73EF49095809578
:1031B000709561957F4F8F4F9F4F08950E94CC1659
:1031C00008F48FEF089519F416F40C9463170C9417
:1031D0002E190E948D17B8F39923C9F3B6F39F57A0
:1031E000550B87FF0E943C190024A0E640EA90019D
:1031F00080585695979528F4805C660F771F881F36
:1032000020F026173707480730F4621B730B840B36
:10321000202931294A2BA69517940794202531257A
:103220004A2758F7660F771F881F20F026173707A1
:10323000480730F4620B730B840B200D311D411DC8
:10324000A09581F7B901842F9158880F969587959D
:1032500008950E94CC16880B990B08959F3F31F07A
:10326000915020F4879577956795B795880F911DB4
:103270009695879597F9089591505040660F771F5E
:10328000881FD2F7089597FB072E16F4009407D0F5
:1032900077FD09D00E945D1907FC05D03EF490959A
:1032A00081959F4F0895709561957F4F0895EE0F1A
:1032B000FF1F0590F491E02D0994AA1BBB1B51E15F
:1032C00007C0AA1FBB1FA617B70710F0A61BB70B96
:1032D000881F991F5A95A9F780959095BC01CD013B
:1032E000089581E090E0F8940C94761911E0C1E320
:1032F000D1E004C0FE010E9457192196C233D107C4
:06330000C9F7F894FFCFAD
:10330600BC01BC01BC01BC01BC01FFFFFFFF00E129
:10331600000000000000000000005C013D047D018B
:1033260044032003720100000000F102C102BD0146
:10333600AD029E029D0200000000DE01AE0C3202CC
:103346004A02C501DD0100C18081000000564D44DE
:1033560050565F317C315F564D4450560D0A004F32
:103366004B00564D4450455F003A323A007C005FB0
:10337600564D4450450062746E2074696D65206F29
:0E3386006E006E616E00696E66006F76660006
:00000001FF
