:100000000C9418010C94B6050C948F050C9468059B
:100010000C9441050C9440010C9440010C941A0579
:100020000C9440010C941B090C94BD0C0C942B0EE9
:100030000C9440010C9440010C9440010C9440013C
:100040000C9440010C9440010C9440010C9440012C
:100050000C9440010C9440010C9440010C94D00489
:100060000C9440010C9440010C9440010C9440010C
:100070000C9440010C9440010C9440010C944001FC
:100080000C9440010C9440010C9440010C94D90A4A
:100090000C94AB090C9440010C9440010C94400169
:1000A0000C9440010C9440010C94400162036503E0
:1000B000540358035E0386038603860369036D03B6
:1000C000710377037B038603810300000000240093
:1000D00027002A002D00300047593932353020637F
:1000E0006F6E6E656374696F6E207375636365739D
:1000F0007366756C6C792E00475939323530206340
:100100006F6E6E656374696F6E206661696C65649D
:100110002E00496E697469616C6C697A696E67203A
:1001200042542053657269616C20706F72742E2E78
:100130002E0053657269616C2072656164792E00CE
:100140000000000200090F0000030401000C000081
:10015000000000000000000000000000000000009F
:10016000000000250028002B002E003100000000B8
:10017000002300260029002C002F0004040404049E
:10018000030405020202020403020202020606063A
:1001900006060604040202020404040802011040D8
:1001A00080401020408040800802040180402010E0
:1001B000020110801020404020080B0002020201C2
:1001C00000090400000102020000052400100105DE
:1001D000240101010424020605240600010705810B
:1001E0000310004009040100020A00000007050294
:1001F00002400000070583024000000403090412C6
:10020000010002EF02014041233780000101020397
:100210000141726475696E6F204C4C4300417264F9
:1002200075696E6F204D6963726F0000FC175B107B
:1002300011241FBECFEFDAE0DEBFCDBF11E0A0E09A
:10024000B1E0EEEEFAE302C005900D92AA3AB107D2
:10025000D9F724E0AAEAB1E001C01D92A734B207A1
:10026000E1F711E0C7E1D1E004C02197FE010E944F
:10027000171DC631D107C9F70E9465100C946A1D7D
:100280000C940000CF93DF931F92CDB7DEB7698344
:10029000DC01ED91FC910280F381E02D41E050E022
:1002A000BE016F5F7F4F09950F90DF91CF91089549
:1002B00083E08093E9008091F200882319F08AE3BB
:1002C0008093E8000895FC018485958597FD0BC017
:1002D0009FB7F89482E08093E9008091F2009FBF7D
:1002E00090E0019608959FB7F89482E08093E9002A
:1002F0008091F2009FBF90E008953FB7F8948091FD
:100300006D0290916E02A0916F02B091700226B5BD
:10031000A89B05C02F3F19F00196A11DB11D3FBF3D
:10032000BA2FA92F982F8827820F911DA11DB11DCB
:10033000BC01CD0142E0660F771F881F991F4A95C7
:10034000D1F7089508958091530290E020915202D0
:10035000821B91090895209173023091740228172D
:10036000390771F49091710280917202981741F0EF
:10037000E0917102F0E0EE50FE4F808190E0089530
:100380008FEF9FEF089508951F93CF93DF93DC01C4
:100390005C962D913C915D972115310539F481E0F2
:1003A00090E013969C938E9312973DC05196ED91D9
:1003B000FC91529750969C915097892F80951FB72A
:1003C0005E964C915E9741FB772770F941FD6095F1
:1003D000F8944081772311F0492B01C048234083D2
:1003E000E9012197F1F748E0508160FF02C0592BE5
:1003F00001C058235083E9012197F1F766954150D8
:1004000099F7772321F090818923808303C080812D
:10041000982B90831FBF5C968D919C915D9701975F
:10042000F1F721E030E0C901DF91CF911F910895EC
:1004300020917302309174022817390771F480916A
:1004400072022091710290E0805C9F4F821B9109A3
:1004500060E470E00E94E11C089580E090E008955F
:10046000209173023091740228173907B9F49091E2
:10047000710280917202981789F0E0917102F0E0A8
:10048000EE50FE4F80812091710230E02F5F3F4F90
:100490002F7333272093710290E008958FEF9FEF21
:1004A000089585ED8093BC008091BC0084FDFCCF55
:1004B0001092E40208954091CD01262F30E0240FE0
:1004C000311D21323105DCF42091E4022430C9F4DD
:1004D000FC0180E090E0861758F43091CD01219125
:1004E000DC01A555BE4FA30FB11D2C930196F3CF90
:1004F0008091CD01680F6093CD0180E0089581E087
:10050000089582E008950895E09152028091530287
:10051000E81730F4F0E0EE5CFD4F808190E0089544
:100520008FEF9FEF08959091520280915302981798
:1005300050F4E92FF0E0EE5CFD4F208130E09F5F4A
:100540009093520202C02FEF3FEFC9010895CF925E
:10055000DF92EF92FF920F931F93CF93DF937C0173
:10056000262F972F8A018091E502882391F0C62FCC
:10057000D72F6E01C40ED51ECC15DD0571F0699123
:10058000D701ED91FC910190F081E02DC701099513
:10059000F3CF642F822F0E945B02C801DF91CF91BD
:1005A0001F910F91FF90EF90DF90CF900895CF9320
:1005B000DF931F92CDB7DEB769832091E502222336
:1005C000D1F020910803203240F021E030E0FC011E
:1005D0003383228380E090E015C08091E602E82F0B
:1005E000F0E0E951FD4F998190838F5F8093E6029F
:1005F0008093080305C061E0CE0101960E945B0272
:1006000081E090E00F90DF91CF9108950F931F93B9
:10061000CF93DF931F92CDB7DEB78C01FC018485A9
:10062000958597FF0EC0CE0101960E947F0C019721
:1006300019F4298130E002C02FEF3FEFF801358730
:100640002487F801848595850F90DF91CF911F91C4
:100650000F910895CF93DF931F92CDB7DEB7FC01C2
:100660008485958597FD05C02FEF3FEF358724875B
:100670000BC0CE0101960E947F0C019719F489816D
:1006800090E002C08FEF9FEF0F90DF91CF91089520
:100690000E944B1D90E0FC013197EF30F105B0F561
:1006A000EA5AFF4F0C94171D809180008F7703C08A
:1006B000809180008F7D80938000089580918000DC
:1006C000877FF9CF84B58F7702C084B58F7D84BDD5
:1006D0000895809190008F7707C0809190008F7D62
:1006E00003C080919000877F80939000089580914F
:1006F000C0008F7703C08091C0008F7D8093C000C1
:1007000008958091C200877F8093C20008951F934F
:10071000CF93DF93282F30E0F901E05CFE4F849106
:10072000F901E656FE4FD491F901E558FE4FC49108
:10073000CC23C9F0162F81110E944A03EC2FF0E060
:10074000EE0FFF1FE15AFE4FA591B4918FB7F894B9
:10075000111105C09C91ED2FE095E92302C0EC91A9
:10076000ED2BEC938FBFDF91CF911F910895CF9325
:10077000DF9390E0FC01E656FE4F2491FC01E55822
:10078000FE4F8491882361F190E0880F991FFC014E
:10079000E653FF4FC591D491FC01E15AFE4FA5915C
:1007A000B491611109C09FB7F89488812095822384
:1007B0008883EC912E230BC0623061F49FB7F894CC
:1007C0003881822F809583238883EC912E2B2C9364
:1007D0009FBF06C08FB7F894E8812E2B28838FBF68
:1007E000DF91CF9108958F929F92AF92BF92CF9257
:1007F000DF92EF92FF926B017C010E947D014B0121
:100800005C01C114D104E104F104F1F00E947D0106
:10081000DC01CB0188199909AA09BB09883E9340DC
:10082000A105B10570F321E0C21AD108E108F10871
:1008300088EE880E83E0981EA11CB11CC114D1045F
:10084000E104F10419F7DDCFFF90EF90DF90CF9036
:10085000BF90AF909F908F9008957F928F929F92BC
:10086000AF92BF92CF92DF92EF92FF920F931F93BE
:10087000CF93DF936C015B017A018091150188238E
:1008800009F46BC08091BD02882309F466C0809191
:10089000BA0280FF05C08091E00082608093E00092
:1008A000E70110E00AEF83E0982E90E4792E2AE326
:1008B000822E209709F448C08FB7F8949092E900EF
:1008C0009091E80095FF06C09091F200272D291B1A
:1008D000922F01C090E08FBF91110AC0015009F41E
:1008E0003CC061E070E080E090E00E94F303E1CF63
:1008F000292F30E0C217D3070CF49C2F8FB7F89440
:100900009092E9002091E80025FF1CC0292F30E0DB
:10091000C21BD30BF501915020F041914093F1009F
:10092000FACFA20EB31E112319F08092E80009C07D
:100930009091E80095FD06C08092E80011E02097B4
:1009400009F010E08FBFB5CF1111B6CF5D9A84E6E4
:100950008093BB021E141F0444F081E090E0F60176
:100960009383828380E090E001C0C701DF91CF9143
:100970001F910F91FF90EF90DF90CF90BF90AF90BD
:100980009F908F907F9008952FB7F894609169029F
:1009900070916A0280916B0290916C022FBF089552
:1009A0001F920F920FB60F9211242F933F938F93A4
:1009B0009F93AF93BF938091690290916A02A09137
:1009C0006B02B0916C023091680223E0230F2D3747
:1009D00020F40196A11DB11D05C026E8230F029643
:1009E000A11DB11D209368028093690290936A0251
:1009F000A0936B02B0936C0280916D0290916E0295
:100A0000A0916F02B09170020196A11DB11D80935B
:100A10006D0290936E02A0936F02B0937002BF912B
:100A2000AF919F918F913F912F910F900FBE0F909B
:100A30001F9018951F920F920FB60F9211242F93AB
:100A40003F934F935F936F937F938F939F93AF9356
:100A5000BF93EF93FF93E0910801F091090109958D
:100A6000FF91EF91BF91AF919F918F917F916F9186
:100A70005F914F913F912F910F900FBE0F901F905C
:100A800018951F920F920FB60F9211242F933F9338
:100A90004F935F936F937F938F939F93AF93BF9386
:100AA000EF93FF93E0910601F09107010995FF9103
:100AB000EF91BF91AF919F918F917F916F915F91D6
:100AC0004F913F912F910F900FBE0F901F9018954F
:100AD0001F920F920FB60F9211242F933F934F93B3
:100AE0005F936F937F938F939F93AF93BF93EF9396
:100AF000FF93E0910401F09105010995FF91EF91B9
:100B0000BF91AF919F918F917F916F915F914F9125
:100B10003F912F910F900FBE0F901F9018951F922D
:100B20000F920FB60F9211242F933F934F935F9321
:100B30006F937F938F939F93AF93BF93EF93FF93A5
:100B4000E0910201F09103010995FF91EF91BF91AE
:100B5000AF919F918F917F916F915F914F913F9155
:100B60002F910F900FBE0F901F9018951F920F920C
:100B70000FB60F9211242F933F934F935F936F9370
:100B80007F938F939F93AF93BF93EF93FF93E091E6
:100B90000001F09101010995FF91EF91BF91AF9193
:100BA0009F918F917F916F915F914F913F912F9185
:100BB0000F900FBE0F901F90189560936402709372
:100BC00065028093660290936702DC01CB01845D2D
:100BD0009E4FAF4FBF4F8093600290936102A093EE
:100BE0006202B093630282E090E090935F02809390
:100BF0005E020E94C40460935A0270935B02809369
:100C00005C0290935D020895CF92DF92EF92FF9283
:100C10000F931F930E94C404C0905A02D0905B02AD
:100C2000E0905C02F0905D028B019C010C191D09A3
:100C30002E093F098091640290916502A09166029D
:100C4000B0916702083E134021053105D0F00196AE
:100C5000A11DB11D8093640290936502A09366026A
:100C6000B0936702B701A60148515C4F6F4F7F4FA9
:100C700040935A0250935B0260935C0270935D0252
:100C8000C9CF4091600250916102609162027091FF
:100C9000630284179507A607B70788F1E091580209
:100CA000F0915902309759F1099561157105810547
:100CB000910519F00E94DD0522C080916402909197
:100CC0006502A0916602B0916702845D9E4FAF4FAE
:100CD000BF4F8093600290936102A0936202B09331
:100CE000630281E090E020915E0230915F02232B4D
:100CF00011F480E090E090935F0280935E02609137
:100D000064027091650280916602909167021F9162
:100D10000F91FF90EF90DF90CF9008954F925F92E8
:100D20006F927F928F929F92AF92BF92CF92DF92FB
:100D3000EF92FF920F931F93CF93DF934B015C01D0
:100D40008091540290915502A0915602B0915702A1
:100D500088169906AA06BB0609F4C2C08CE3C82E01
:100D6000D12CE12CF12CC501B401A70196010E9400
:100D7000F51C60937502CA01B901A70196010E9492
:100D8000F51C60937602CA01B90128E130E040E029
:100D900050E00E94F51C69017A0160937702CA0154
:100DA000B9016C5F7F4F8F4F9F4F27E030E040E0ED
:100DB00050E00E94F51C6F5F60937802412C512C2B
:100DC000320140E004E610E0C0E9D1E0242F30E039
:100DD0002E54384FF901E370FF27309789F4C90189
:100DE000B8010E94E11C892B31F4C901BE010E94A7
:100DF000E11C892B29F48EE691E0A0E0B0E004C06C
:100E00008DE691E0A0E0B0E0480E591E6A1E7B1E00
:100E1000D301C201AA27BB27C816D906EA06FB06DA
:100E200010F04F5FD3CF40937B02309799F4C90104
:100E300064E670E00E94E11C892B39F4C90160E985
:100E400071E00E94E11C892B29F48EE691E0A0E07C
:100E5000B0E004C08DE691E0A0E0B0E0481A590A85
:100E60006A0A7B0AC418D508E608F708C90164E6CF
:100E700070E00E94E11CEC01C90160E971E00E9490
:100E8000E11CACE1B1E020E0213039F4309749F4C5
:100E9000209729F4009729F402C04C9103C04DE13A
:100EA00001C04CE150E060E070E0C416D506E606F3
:100EB000F70640F0C41AD50AE60AF70A2F5F119622
:100EC0002C3011F72F5F20937A02C394C0927902DD
:100ED0008092540290925502A0925602B09257020C
:100EE000DF91CF911F910F91FF90EF90DF90CF9006
:100EF000BF90AF909F908F907F906F905F904F903A
:100F000008952F923F924F925F926F927F928F92AD
:100F10009F92AF92BF92CF92DF92EF92FF920F9388
:100F20001F93CF93DF93CDB7DEB728970FB6F89412
:100F3000DEBF0FBECDBFD82EC62E4887190178015F
:100F40000E94C4042B013C018D2C880C912C10E0D4
:100F500001E04885A42EB12C970140E050E02B839E
:100F60003C834D835E834885941608F0A0C00093AF
:100F7000E502D09207031092E602109208036C2D4E
:100F800089E593E00E94D7020E94800B0093E5025E
:100F9000D09207031092E602109208038091E402B7
:100FA0008111FCCF9501291931092132310514F045
:100FB00020E230E02F83213210F030E23F830093B3
:100FC000E4020093E3024FEF4093E2021092E10249
:100FD0008F8181508093E0020093BF028091BF0215
:100FE00088298093BF028091BE02813071F41092F3
:100FF000BE028091BF028093BB008091BC0083FD44
:10100000F8CF55EC5093BC0003C085EE8093BC0034
:101010008091E4028130E1F38091E1022F81821717
:1010200018F43091E1023F83A0ECB2E0E2E3F2E099
:101030008E2F42E352E0841B5F81851718F48D9157
:101040008193F6CF10925202509353028091520234
:101050002F81281721F1E114F10481F49101210F6E
:10106000311D17FD3A953A83298389E593E00E9463
:101070009302A981BA818C931F5FE8CF0E94C404B8
:10108000DC01CB0184199509A609B7092B813C81A4
:101090004D815E8182179307A407B507F8F20E947D
:1010A000800B8885813208F080E2980E5CCFE114D5
:1010B000F104D9F00E94C404AB01BC0144195509E4
:1010C00066097709C701A0E0B0E0481759076A0729
:1010D0007B0758F05885852F90E0212F012E000CBA
:1010E000330B281739070CF41FEF812F28960FB602
:1010F000F894DEBF0FBECDBFDF91CF911F910F914E
:10110000FF90EF90DF90CF90BF90AF909F908F9027
:101110007F906F905F904F903F902F900895CF9267
:10112000DF92EF92FF920F931F93CF93DF9300D044
:10113000CDB7DEB7F82EE62ED42EC22E08EE13E081
:101140009E012E5F3F4F41E00E9481073A81E1E01E
:10115000F0E0AF0101C0440FDA94EAF7CC2019F0B7
:10116000932F942B03C0942F909593239A83998364
:10117000AE014F5F5F4F6E2D8F2D0E94FE0B0F90C3
:101180000F90DF91CF911F910F91FF90EF90DF9023
:10119000CF900895BF92CF92DF92EF92FF920F937C
:1011A0001F93CF93DF9300D0CDB7DEB7F82EE62E96
:1011B000C42EB22ED02E08EE13E09E012E5F3F4FBC
:1011C00041E00E948107882349F14C2D50E04B19E2
:1011D00051094F5F5F4F21E030E002C0220F331F03
:1011E000BA94E2F721503109042E01C0220F0A946B
:1011F000EAF78D2D01C0880F4A95EAF7322F309516
:101200009A8193232823292B2A832983AE014F5FB8
:101210005F4F6E2D8F2D0E94FE0B01C080E00F905E
:101220000F90DF91CF911F910F91FF90EF90DF9082
:10123000CF90BF9008951F920F920FB60F92112476
:101240002F933F934F935F936F937F938F939F93CE
:10125000AF93BF93EF93FF93E0917302F091740209
:10126000309709F451C0968DA685B785858591FF85
:1012700004C09C91892329F447C09C91892309F0DB
:1012800043C0A389B4899C918589809589238C93D7
:10129000868997890197F1F7608D718DA685B7854D
:1012A000558538E020E0CB010197F1F7822F90E0DF
:1012B00095958795282F4C91452309F0206831504A
:1012C00091F7868D81FD20958091720290E00196C4
:1012D0008F73992730917102381749F0A0917202EB
:1012E000B0E0AE50BE4F2C938093720203C0868D47
:1012F0008160868F828D938D0197F1F7A389B489E0
:101300009C918589892B8C93FF91EF91BF91AF912F
:101310009F918F917F916F915F914F913F912F910D
:101320000F900FBE0F901F901895E0917302F091EF
:101330007402E817F90769F4A389B4899C91858937
:10134000809589238C93109274021092730281E02D
:10135000089580E008951F920F920FB60F92112406
:101360002F933F934F935F936F937F938F939F93AD
:10137000AF93BF93EF93FF938091B900887F80363E
:1013800009F49CC068F5883209F45BC090F48031A0
:1013900009F454C038F4882309F4F6C0883009F4FD
:1013A0004DC0F6C0883109F44CC0803209F45DC0EC
:1013B000EFC0803409F468C048F4803309F455C0A4
:1013C000883309F0E5C08093E202D8C0803509F483
:1013D0004FC0883509F45DC0883409F0D9C0D6C043
:1013E000883909F4C7C0A8F4883709F467C038F40D
:1013F000883609F463C0803709F460C0C9C08838F2
:1014000009F4B8C0803909F45FC0803809F0C0C061
:101410005BC0803B09F486C038F4803A09F466C0AA
:10142000883A09F47FC0B4C0803C09F4A7C0883C66
:1014300009F4A4C0883B09F48AC0AAC08091BF0205
:1014400010C09091E1028091E002981770F5E09150
:10145000E10281E08E0F8093E102F0E0E054FD4F65
:1014600080818093BB0085EC86C08093E2028EC0B1
:10147000E091E10281E08E0F8093E1028091BB0058
:10148000F0E0E054FD4F80839091E1028091E00212
:101490006EC0E091E10281E08E0F8093E1028091C5
:1014A000BB00F0E0E054FD4F80838091E3028111A6
:1014B0006DC081E08093BE0284EA61C083E08093C6
:1014C000E4021092F101CFCF8091F101803208F057
:1014D00051C0E091F10181E08E0F8093F101809184
:1014E000BB00F0E0EF52FE4F8083BDCF85EC8093D0
:1014F000BC001092E4028091F101803230F4E0915E
:10150000F101F0E0EF52FE4F10826091F10170E0C6
:10151000E091CF01F091D00181ED91E00995109219
:10152000F10136C084E08093E4021092CE01109263
:10153000CD01E091CB01F091CC0109958091CD01D5
:10154000811105C081E08093CD011092AB01E09143
:10155000CE0181E08E0F8093CE01F0E0E555FE4F85
:1015600080818093BB009091CE018091CD0198172E
:1015700008F479CF85E88093BC000AC085EC80939D
:10158000BC001092E40204C01092E2020E945102D8
:10159000FF91EF91BF91AF919F918F917F916F914B
:1015A0005F914F913F912F910F900FBE0F901F9021
:1015B00018951F920F920FB60F92112410923004BB
:1015C00010922F040F900FBE0F901F9018958F92BE
:1015D0009F92AF92BF92CF92DF92EF92FF920F93C2
:1015E0001F93CF93DF93EC016A017B0148015901FE
:1015F000C901B80120E831E541E050E00E94F51C46
:1016000088819981AA81BB81281739074A075B071E
:1016100031F4CC82DD82EE82FF8281E00BC08885CE
:101620009985009731F095018401B701A6010E94C8
:10163000E70A80E0DF91CF911F910F91FF90EF902B
:10164000DF90CF90BF90AF909F908F900895BC0196
:10165000009791F0FC0101900020E9F73197AF016C
:10166000481B590BE0910903F0910A030280F381B2
:10167000E02D89E093E0099480E090E008958F9256
:101680009F92AF92BF920F931F93CF93DF93CDB7EB
:10169000DEB7A1970FB6F894DEBF0FBECDBF19A27B
:1016A000423008F44AE08E010F5D1F4F842E912CCA
:1016B000A12CB12CA50194010E94F51CE62FB901C3
:1016C000CA0101501109EA3014F4E05D01C0E95C7F
:1016D000D801EC93232B242B252B61F7C8010E9402
:1016E000270BA1960FB6F894DEBF0FBECDBFDF91DA
:1016F000CF911F910F91BF90AF909F908F900895C1
:101700002091080390910703213208F04AC080918C
:10171000E4028111FCCF32E03093E40231E03093F7
:10172000E3023FEF3093E2021092E1022093E002E5
:10173000A7EEB2E040EC52E0FA013E2F341B321724
:1017400018F43D913193F9CF1092BF022091BF025E
:10175000990F922B9093BF029091BE02913061F449
:101760001092BE029091BF029093BB009091BC007A
:1017700093FDF8CF95EC01C095EE9093BC0090914D
:10178000E4029230E1F39091E2029F3F79F0809180
:10179000E202803241F08091E202803331F084E055
:1017A00005C081E003C082E001C083E01092E60240
:1017B000109208031092E50208950F931F93CF93A0
:1017C000DF938C01C0E0D0E0F801EC0FFD1F6491C5
:1017D000662371F0E0910903F0910A030190F08112
:1017E000E02D89E093E00995892B11F02196ECCF4B
:1017F000CE01DF91CF911F910F910895CF93DF9389
:10180000EA0191E09093E502809307031092E602CB
:101810001092080389E593E00E94D702688189E568
:1018200093E00E94D7020E94800B91E0811190E02A
:10183000892FDF91CF910895CF93DF930E94DD0B25
:10184000EC0189E991E00E94270B8C0F9D1FDF912D
:10185000CF910895CF92DF92EF92FF92CF93DF93D3
:101860006B017C01E0910903F0910A030190F08182
:10187000E02D6DE289E093E00995EC01662777277A
:10188000CB016C197D098E099F094AE00E943F0B2C
:101890008C0F9D1FDF91CF91FF90EF90DF90CF9045
:1018A0000895BC01990F880B990B97FD0C942A0C95
:1018B0004AE00C943F0BCF93DF93E8E4F1E084918E
:1018C000E2EAF1E0D491E3E8F1E0C491CC2391F0B5
:1018D00081110E944A03EC2FF0E0EE0FFF1FE35945
:1018E000FE4FA591B491EC91ED2381E090E021F4BD
:1018F00080E002C080E090E0DF91CF910895FC018C
:101900008091BD02811103C08FEF9FEF08959FB7B3
:10191000F89482E08093E9002091F20030E0121602
:10192000130614F421E030E02115310559F0289A0E
:1019300084E68093BC028091F10080838091F20064
:10194000882319F09FBFC90108958BE68093E800B2
:10195000F9CF8091350481110DC082E0809331046C
:1019600084E080933204109234041092330481E0B6
:101970008093350481E394E008951F920F920FB68F
:101980000F9211248F939F938091E1009091E10039
:10199000937F9093E10083FF0FC01092E90091E0E4
:1019A0009093EB001092EC0092E39093ED00109274
:1019B000BD0298E09093F00082FF20C093E09093E6
:1019C000E9009091F200992319F09AE39093E800CE
:1019D0009091BB02992339F09091BB029150909362
:1019E000BB02992389F19091BC02992339F090911F
:1019F000BC0291509093BC02992341F184FF10C026
:101A00008091E2008E7E81608093E2008091E1000F
:101A10008F7E8093E1008091BA028E7E806111C03A
:101A200080FF16C08091E2008E7E80618093E2008C
:101A30008091E1008E7E8093E1008091BA028E7EDB
:101A400081608093BA0204C05D98CDCF2898D6CF2C
:101A50009F918F910F900FBE0F901F9018954091FE
:101A600041045091420420913F04309140044217B8
:101A70005307B4F49091E8009570E1F39091E80079
:101A800092FD19C08093F10080914104909142042D
:101A900001968F739927892B19F48EEF8093E800B4
:101AA0008091410490914204019690934204809366
:101AB000410481E0089580E00895CF92DF92EF9293
:101AC000FF920F931F93CF93DF931F92CDB7DEB793
:101AD000182F062FE42E862F880F8E5F99830E9481
:101AE0002F0D83E00E942F0DF12EC12E9981D92E4A
:101AF0008C2D8F19801798F4F601E7FE02C08491AF
:101B000001C080810E942F0D182F80E00E942F0DB0
:101B10008123FFEFCF1ADF0A8111EACF01C081E0F4
:101B20000F90DF91CF911F910F91FF90EF90DF9079
:101B3000CF900895DF92EF92FF920F931F93CF9370
:101B4000DF93D82E8A017B01E40EF51EEB01CE1542
:101B5000DF0571F0D7FE03C0FE01849101C08881CA
:101B60000E942F0D21968111F2CF8FEF9FEF01C0C0
:101B7000C801DF91CF911F910F91FF90EF90DF90FF
:101B80000895615030F02091F100FC01208301960E
:101B9000F8CF289A84E68093BC020895CF92DF9212
:101BA000EF92FF920F931F93CF93DF936C017A0113
:101BB0008B01C0E0D0E0CE15DF0589F0D8016D9132
:101BC0008D01D601ED91FC910190F081E02DC601CF
:101BD0000995892B11F47E0102C02196ECCFC70133
:101BE000DF91CF911F910F91FF90EF90DF90CF90F9
:101BF00008950F931F93CF93DF931F92CDB7DEB756
:101C000082E0898342E450E069EB71E080E80E9461
:101C10009A0D0E94A90CDC0112960D911C9113974C
:101C20000115110569F0D801ED91FC910280F38155
:101C3000E02DBE016F5F7F4FC801099597FF07C078
:101C400089810F90DF91CF911F910F910895F80135
:101C500000851185E5CF1F920F920FB60F921124C8
:101C6000CF92DF92EF92FF920F931F932F933F93A8
:101C70004F935F936F937F938F939F93AF93BF9394
:101C8000EF93FF93CF93DF93CDB7DEB76C97DEBFB3
:101C9000CDBF1092E9008091E80083FFEDC168E0BC
:101CA000CE0145960E94C10D82EF8093E8008D8998
:101CB00087FF05C09091E80090FFFCCF03C09EEF26
:101CC0009093E800982F907609F0C6C09E892F89DE
:101CD000188D91110CC0803829F480913E048093B6
:101CE000F10002C01092F1001092F10048C1422FA1
:101CF00050E0512B913051F4811141C141305105D7
:101D000009F03DC180913E048D7F0BC0933061F49A
:101D1000811135C14130510509F031C180913E0436
:101D2000826080933E042BC1953041F48091E8009D
:101D300080FFFCCF20682093E30021C1963009F09A
:101D40005FC0EB8CFC8C1092E90010924204109260
:101D50004104123091F51092400410923F040E9409
:101D6000F90D99E0BE016F5F7F4FDB01E92F1D92F6
:101D7000EA95E9F799831A8391E09E8390EA988720
:101D80009AEF99872091410430914204275F3F4F99
:101D90003C832B838D831092E900109242041092B1
:101DA0004104F0924004E0923F0449E050E080E0BA
:101DB0000E949A0D0E94F90DE2C0F0924004E09258
:101DC0003F040E94A90CDC011296ED90FC90139741
:101DD000E114F10409F4C0C0D701ED91FC91048035
:101DE000F581E02DBE016B5E7F4FC701099500971D
:101DF00019F00CF0C4C0C7C0F701E084F184E8CF4B
:101E0000973009F4C0C0983021F481E08093F1004C
:101E1000B6C0993009F0B3C0837009F0B4C0E0E9EE
:101E2000F1E081E021E036E39081992361F0809335
:101E3000E9002093EB0091919093EC003093ED003A
:101E40008F5F873089F78EE78093EA001092EA006F
:101E50008F898093BD0293C08B8D9C8D1092E90079
:101E600010924204109241049093400480933F04E6
:101E7000898D811156C08E899D89913A59F481329C
:101E800009F081C047E050E06EE071E080E00E9420
:101E90009A0D75C0913209F076C0833289F4888D2D
:101EA00090E0982F88272F89822BA0E0B0E08093C4
:101EB0000A0190930B01A0930C01B0930D015FC038
:101EC000803269F48091E80082FFFCCF67E08EE009
:101ED00091E00E94C10D8BEF8093E80006C0823232
:101EE00009F04DC08F898093150180913D048823AE
:101EF00019F0EEEFFAE002C0E0E0F8E080910E01A8
:101F000090910F01A0911001B0911101803B94407C
:101F1000A105B10509F07BC08091150180FF93C038
:101F200076C00E94A90CDC0112960D911C911397AA
:101F30000115110541F1D801ED91FC910190F0815D
:101F4000E02DBE016B5E7F4FC8010995811117C05E
:101F5000F80100851185ECCF113009F44EC0133023
:101F600091F48F89882309F445C0823081F440E8D8
:101F70006DE08DE192E00E945D0D882321F08EEFEF
:101F80008093E80079C081E28093EB0075C08130D6
:101F900029F440E86BE081E192E0EDCF833099F7DE
:101FA0000E94A90CDC011296ED90FC9013978E0113
:101FB0000F5F1F4F6801E114F10479F0D701ED9133
:101FC000FC910680F781E02DB801C7010995080F43
:101FD000111DF701E084F184EECFD8011C92F601C7
:101FE00001900020E9F73197BF016C197D0940E0AD
:101FF000C601C1CF6BEF71E002C06FEF71E06115F8
:10200000710509F2FB01449150E080E840CF0FB622
:10201000F894A89580916000886180936000109288
:1020200060000FBEA895EE3F2AE0F20739F08091DC
:10203000FE0A9091FF0A91838083A1CF1092FF0A3C
:102040001092FE0A9CCFEE3F8AE0F80731F08081C3
:1020500091819093FF0A8093FE0A87E797E7918327
:1020600080839BE088E10FB6F894A8958093600088
:102070000FBE9093600083CF6C960FB6F894DEBFCE
:102080000FBECDBFDF91CF91FF91EF91BF91AF9187
:102090009F918F917F916F915F914F913F912F9180
:1020A0001F910F91FF90EF90DF90CF900F900FBE98
:1020B0000F901F90189583E891E0909366038093AA
:1020C000650385E693E00C949509CF93DF93CDB734
:1020D000DEB72E970FB6F894DEBF0FBECDBF789453
:1020E00084B5826084BD84B5816084BD85B582601D
:1020F00085BD85B5816085BD80916E0081608093CE
:102100006E00109281008091810082608093810036
:102110008091810081608093810080918000816046
:1021200080938000809191008260809391008091E3
:1021300091008160809391008091900081608093F4
:1021400090008091C10084608093C1008091C100A3
:1021500082608093C1008091C10081608093C10042
:102160008091C30081608093C3008091C000826031
:102170008093C0008091C20081608093C2008091F2
:102180007A00846080937A0080917A0082608093E4
:102190007A0080917A00816080937A0080917A0041
:1021A000806880937A001092BD0210923E041092D3
:1021B000BA028091D70081608093D70080EA809333
:1021C000D80089B5806189BD89B5826089BD09B4AF
:1021D00000FEFDCF61E070E080E090E00E94F3033C
:1021E0008091D8008F7C80618093D8008091E0003E
:1021F000807F8093E0008091E1008E7E8093E100FB
:102200008DE08093E200559A209A5D982898EEEF31
:10221000FFE7859194918B3F9C4D19F481E0809369
:102220003D0461E08DE00E94B70361E082E10E941D
:10223000B70362E088E00E94B70361E08DE00E948E
:10224000870361E082E10E9487038FEF9FEF909305
:1022500016038093150382E391E00E941C0C82E137
:1022600091E00E94DD0B1092800310927F03109288
:102270007E0310927D0310927C0310927B038DE904
:1022800091E090938203809381038091710398EF92
:10229000980F943048F022EF280F243028F026EED3
:1022A000280F233008F060C02DEB30E030937C0322
:1022B00020937B032BE931E030937E0320937D0351
:1022C0002CE231E03093800320937F03943058F068
:1022D00092EF980F943038F08A51833008F484C616
:1022E000A0E0B0E083C6A8E6B0E0E8E6F0E08081D8
:1022F00081608C938091710398EF980F943058F01F
:1023000022EF280F243038F026EE280F233018F063
:1023100020E030E002C02BE630E0309379032093D8
:102320007803943010F49CEF09C08E3071F08F3038
:1023300071F0803171F0813171F09AEE980F81E087
:1023400001C0880F9A95EAF707C088E005C082E0CF
:1023500003C084E001C081E080937A03809181030F
:10236000909182030197F1F780917F039091800310
:10237000892B21F1809173029091740233E08536AC
:102380009307E1F0009711F00E9495098091830373
:102390008E7F80938303109272021092710285E601
:1023A00093E09093740280937302E0917803F0912C
:1023B0007903908180917A03892B808386E991E06B
:1023C0000E94270B89E991E00E94270B84E391E0AA
:1023D0000E941C0C01E023E042E06BE680911F04A8
:1023E0000E94CA0800E022E044E06BE180911F04F3
:1023F0000E94CA0822E044E06CE180911F040E9420
:10240000CA0820E046E06BE680911F040E948F0816
:1024100068EE73E080E090E00E94F30388E291E0D0
:102420000E94DD0B08EE13E09E012F5F3F4F41E05D
:1024300065E780911F040E948107882329F0898124
:102440008F7790E0809320046091200470E080E01A
:1024500090E040E10E943F0B89E991E00E94270B48
:1024600008EE13E09E012F5F3F4F41E065E780914A
:102470001F040E948107882329F089818F7790E0CB
:102480008093200480912004813729F088EF90E028
:102490000E941C0C9BCF88ED90E00E941C0C83E0F6
:1024A00080932E0420E045E06CE680911F040E949A
:1024B0008F0820E044E06CE680911F040E948F08A2
:1024C00020E043E06CE680911F040E948F08809119
:1024D0002E0481FF15C020E042E06CE680911F04CD
:1024E0000E948F0820E041E06CE680911F040E946A
:1024F0008F0820E040E06CE680911F040E948F0866
:102500008CE491E00E94DD0B80912E04817090E0BC
:102510000E94510C60912E04627070E080E090E0A7
:102520004AE00E943F0B89E991E00E94270BF89452
:102530008091710081608093710080919000809102
:1025400091008360809391007894BCE03B2E22241C
:10255000239480912F0490913004892B09F037C582
:102560008091B20281110CC00E94C4046093AE023B
:102570007093AF028093B0029093B1022092B202A6
:102580000E94C4040091AE021091AF022091B002EB
:102590003091B102DC01CB01801B910BA20BB30B7C
:1025A0004F97A105B10508F495C30E94C404609338
:1025B000AE027093AF028093B0029093B10260E0DC
:1025C00082E10E94870308EE13E020E234E04EE04F
:1025D0006BE380911F040E948107C0902004D12CDE
:1025E000DC2CCC2480912104C82AD092EB03C09229
:1025F000EA03E0902204F12CFE2CEE2480912304C7
:10260000E82AF092ED03E092EC036091240470E07C
:10261000762F662780912504682B7093EF036093D3
:10262000EE038091280490E0982F882720912904B8
:10263000AC01422B58874F835093F1034093F00332
:1026400080912A0490E0982F882720912B04DC01A8
:10265000A22BBA87A987B093F303A093F2038091CA
:102660002C0490E0982F882720912D048C01022BB8
:102670001093F5030093F403B0912E04BE83B0FFD2
:1026800070C120919E0330919F034091A00350910F
:10269000A1032A833B834C835D8380909A039090AF
:1026A0009B03A0909C03B0909D0340909603509094
:1026B00097036090980370909903072E000C880B85
:1026C000990B0E94BF1B20E03CE249E456E40E94C3
:1026D000D91A2DEC3CEC4CE951EC0E94741C20E022
:1026E00031E942E057EC0E944B1B2DEC3CEC4CE1F5
:1026F00051E40E94DA1A2A813B814C815D810E945B
:10270000D91A2FE832EC45EF5CE30E94741C2AEAE8
:102710003AE84AE65EE30E944B1B9B01AC016A81EA
:102720007B818C819D810E94DA1A6B877C878D87E3
:102730009E87B701FF0C880B990B0E94BF1B20E0FE
:1027400030E14BE856E40E94D91A2DEC3CEC4CE900
:1027500051EC0E94741C20E030E240E057EC0E94F3
:102760004B1B2DEC3CEC4CE151E40E94DA1AA50124
:1027700094010E94D91A2FE832EC45EF5CE30E94E5
:10278000741C2AEA3AE84AE65EE30E944B1B9B016E
:10279000AC01C501B4010E94DA1A4B015C01B6011B
:1027A000DD0C880B990B0E94BF1B20E03CE742E93F
:1027B00056E40E94D91A2DEC3CEC4CE951EC0E94F5
:1027C000741C20E038E74FEF56EC0E944B1B2DECB9
:1027D0003CEC4CE151E40E94DA1AA30192010E9400
:1027E000D91A2FE832EC45EF5CE30E94741C2AEA08
:1027F0003AE84AE65EE30E944B1B9B01AC01C30131
:10280000B2010E94DA1A60938A0370938B0380935B
:102810008C0390938D0380928E0390928F03A092ED
:102820009003B0929103CB84DC84ED84FE84C0924B
:102830009203D0929303E0929403F0929503C09098
:10284000B603D090B703E090B803F090B903CA8202
:10285000DB82EC82FD82C090B203D090B303E090A3
:10286000B403F090B5034090AE035090AF03609076
:10287000B0037090B103A30192010E94D91A2FE80E
:1028800032EC45EF5CE30E94741C25ED3AE642EB26
:102890005EE30E944B1B9B01AC01C301B2010E948D
:1028A000DA1A6093A2037093A3038093A403909316
:1028B000A503A7019601C501B4010E94D91A2FE80A
:1028C00032EC45EF5CE30E94741C25ED3AE642EBE6
:1028D0005EE30E944B1B9B01AC01C701B6010E9445
:1028E000DA1A6093A6037093A7038093A8039093CA
:1028F000A9032A813B814C815D816B857C858D8517
:102900009E850E94D91A2FE832EC45EF5CE30E94C5
:10291000741C25ED3AE642EB5EE30E944B1B9B01E3
:10292000AC016A817B818C819D810E94DA1A60935F
:10293000AA037093AB038093AC039093AD03EAE8D2
:10294000F3E0A6E9B3E0832D01900D928A95E1F7BB
:10295000E2EAF3E0AEEAB3E0832D01900D928A95AE
:10296000E1F7DE80D1FE91C0C090CE03D090CF03BE
:10297000E090D003F090D1038090CA039090CB03F5
:10298000A090CC03B090CD034090C6035090C703F5
:102990006090C8037090C9032F813885B901330F47
:1029A000880B990B0E94BF1BA30192010E94D91AA8
:1029B0002FE832EC45EF5CE30E94741C2AEA3AE807
:1029C0004AE65EE30E944B1B9B01AC01C301B201CE
:1029D0000E94DA1A6093BA037093BB038093BC031E
:1029E0009093BD0349855A85BA01550F880B990B01
:1029F0000E94BF1BA50194010E94D91A2FE832EC56
:102A000045EF5CE30E94741C2AEA3AE84AE65EE37A
:102A10000E944B1B9B01AC01C501B4010E94DA1A54
:102A20006093BE037093BF038093C0039093C10370
:102A3000B801110F880B990B0E94BF1BA7019601CB
:102A40000E94D91A2FE832EC45EF5CE30E94741C17
:102A50002AEA3AE84AE65EE30E944B1B9B01AC017E
:102A6000C701B6010E94DA1A6093C2037093C303D0
:102A70008093C4039093C503EAEBF3E0A6ECB3E0C4
:102A8000832D01900D928A95E1F78091FC0320E05F
:102A900030E040E85FE38823E1F06091A2037091A9
:102AA000A3038091A4039091A5030E94DA1A9B01CD
:102AB000AC0160918A0370918B0380918C0390919B
:102AC0008D030E946F1C18160CF09AC01092FC0324
:102AD00097C06091A2037091A3038091A403909189
:102AE000A5030E94D91A9B01AC0160918A037091E1
:102AF0008B0380918C0390918D030E94461B87FF6E
:102B00007FC02092FC030E94C4048090FF03909039
:102B10000004A0900104B09002046B017C01C8186D
:102B2000D908EA08FB0880910B0490910C04A0914D
:102B30000D04B0910E04A5019401281B390B4A0B1A
:102B40005B0BCA01B9010E94BD1B2B013C01C701EF
:102B5000B6010E94BD1B9B01AC01C301B2010E94E2
:102B60004B1B2B013C012DEC3CEC4CE45FE30E9441
:102B70006F1C181684F52AE939E949E95FE3C301B6
:102B8000B2010E94461B87FF26C037EEC31AD10848
:102B9000E108F10849EEC41646E0D406E104F10468
:102BA000D0F420911A042F5F80911B0490911C0493
:102BB000A0911D04B0911E04820F911DA11DB11D95
:102BC00080931B0490931C04A0931D04B0931E04D7
:102BD00010921A0403C052E050931A0480920B041E
:102BE00090920C04A0920D04B0920E040E94C404B2
:102BF0006093FF0370930004809301049093020498
:102C000061E082E10E9487030E945B0C892B09F03E
:102C100058C08091AD02811154C00E94C4046093D9
:102C200084027093850280938602909387020091BC
:102C30008002109181022091820230918302DC0196
:102C4000CB01801B910BA20BB30B86399105A1051B
:102C5000B105A8F1EAE8F2E001900020E9F7319728
:102C6000BF016A58724080E090E04AE00E943F0B4A
:102C700089E991E00E94270B80918402909185025E
:102C8000A0918602B0918702809380029093810286
:102C9000A0938202B093830280917C0290917D0286
:102CA000A0917E02B0917F020196A11DB11D80937B
:102CB0007C0290937D02A0937E02B0937F022092CB
:102CC000AD028091AD02882329F00E945B0C892B14
:102CD00009F087C18091A50281110CC00E94C40433
:102CE0006093A1027093A2028093A3029093A40226
:102CF0002092A5020E94C4040091A1021091A20298
:102D00002091A3023091A402DC01CB01801B910B26
:102D1000A20BB30B893E9340A105B10508F46CC02A
:102D20000E94C4046093A1027093A2028093A30244
:102D30009093A402E0919F02F091A002C080D18004
:102D4000E280F3800E94040620E831E541E050E093
:102D50000E94F51CC216D306E406F50671F18CE05C
:102D600090E00E94AC198C01DC01E32D1D92EA95E4
:102D7000E9F70E94040620E831E541E050E00E94B6
:102D8000F51CD8012D933D934D935C931397E091DF
:102D90009F02F091A002138702871996FC93EE938D
:102DA00018971093A00200939F0210921B04109298
:102DB0001C0410921D0410921E040E9404068B0134
:102DC0009C0140911B0450911C0460911D04709162
:102DD0001E0480919F029091A0020E94E70A8CE954
:102DE00091E00E94270B0E9404064AE00E943F0BDC
:102DF00089E991E00E94270B85E693E00E94180282
:102E0000892B09F4DDC085E693E00E943002E09151
:102E10009E0291E09E0F90939E02F0E0E657FD4FD8
:102E200080838E3609F0CCC010929E0264EA71E075
:102E30008AE892E00E94501D892B09F442C00DE8F7
:102E400012E060E070E0CB01D801ED918D0120ED42
:102E50002E0F2A30D0F4AAE0B0E09B01AC010E9412
:102E60001D1DAB01BC0140535109610971098E2F31
:102E7000EE0F990BAA0BBB0B6A017B01C80ED91E82
:102E8000EA1EFB1EC701B601DFCF0E94DD05EAE89E
:102E9000F2E0DF0124E1C22E1D92CA94E9F78CE032
:102EA00090E00E94AC19DC01E32D1D92EA95E9F750
:102EB00090938902809388029093A00280939F024E
:102EC0007FC067EA71E08AE892E00E94501D892B7A
:102ED00009F476C0E0918802F091890260817181E5
:102EE000828193810E948E0680917B0290E08E54B5
:102EF000984F0E94510C6DE289E093E00E944201DC
:102F0000E0918802F09189026081718182819381D0
:102F10000E948E0680917A0290E00E94510C6DE230
:102F200089E093E00E944201E0918802F0918902D9
:102F300060817181828193810E948E0680917902E5
:102F400090E00E94510C6FE289E093E00E94420100
:102F5000E0918802F0918902648175818681978170
:102F60004AE00E943F0B6EE289E093E00E9442013A
:102F7000E0918802F09189026285738580E090E09B
:102F80004AE00E943F0B6AE089E093E00E94420120
:102F9000E0918802F09189020285138501151105DF
:102FA00079F01093890200938802D80118968D91C8
:102FB0009C9119970E94411AF801118610868ACFB8
:102FC000CC24C394D12CD0923004C0922F0480E042
:102FD000E82E80E0F82EEF2809F4BBCA0E9400001A
:102FE000B6CA1092AD0276CEA8E6B0E0833008F4FF
:102FF0007CC9E0E0F0E07BC9CF92DF92EF92FF92D4
:10300000CF9310920C0310920B0398EEC92E93E00D
:10301000D92EE12CF12CC0920D03D0920E03E09238
:103020000F03F092100383E691E090930A038093DC
:1030300009038FEF9FEF909316038093150310926F
:103040005C0310925B03C0925D03D0925E03E0923A
:103050005F03F092600383E791E090935A038093BB
:10306000590310928A0310928B0310928C031092D2
:103070008D0310928E0310928F0310929003109282
:103080009103109292031092930310929403109262
:103090009503109296031092970310929803109242
:1030A000990310929A0310929B0310929C03109222
:1030B0009D0310929E0310929F031092A003109202
:1030C000A1031092A2031092A3031092A4031092E2
:1030D000A5031092A6031092A7031092A8031092C2
:1030E000A9031092AA031092AB031092AC031092A2
:1030F000AD031092AE031092AF031092B003109282
:10310000B1031092B2031092B3031092B403109261
:10311000B5031092B6031092B7031092B803109241
:10312000B9031092BA031092BB031092BC03109221
:10313000BD031092BE031092BF031092C003109201
:10314000C1031092C2031092C3031092C4031092E1
:10315000C5031092C6031092C7031092C8031092C1
:10316000C9031092CA031092CB031092CC031092A1
:10317000CD031092CE031092CF031092D003109281
:10318000D1031092D2031092D3031092D403109261
:10319000D5031092D6031092D7031092D803109241
:1031A000D9031092DA031092DB031092DC03109221
:1031B000DD031092DE031092DF031092E003109201
:1031C000E1031092E2031092E3031092E4031092E1
:1031D000E5031092E6031092E7031092E8031092C1
:1031E000E90382E1EAEEF3E0DF01282F1D922A9540
:1031F000E9F7C1E0C093FC03C093FD03C093FE0355
:103200009CE0EFEFF3E0DF01292F1D922A95E9F70B
:10321000EBE0F4E0DF011D929A95E9F710921704B4
:10322000109218041092190410921A0410921B04A0
:1032300010921C0410921D0410921E0498E69093A4
:103240001F0410922E0421E030E0309330042093CC
:103250002F0410928703109289039DE090938603B8
:1032600080938803109284031092850360E083E0CA
:103270000E94B70360E085E00E94B70310926803E4
:1032800010926703C0926903D0926A03E0926B03C5
:10329000F0926C0383E891E090936603809365035A
:1032A00010927C0310927B0310927E0310927D0398
:1032B0001092800310927F03109282031092810378
:1032C000809183038E7F8D7F8093830386958170A9
:1032D000682F6C2786E10E94870361E086E10E94E7
:1032E000B703E0EBF1E0E491E0937503E1E9F1E08D
:1032F000E491F0E0EE0FFF1FE15AFE4F85919491AB
:10330000909377038093760360E08BE00E94B7038D
:103310008091830381FD04C061E08BE00E948703FC
:103320008BE080937103E5EAF1E0E491E0937203AE
:10333000E6E8F1E0E491F0E0EE0FFF1FE359FE4F05
:10334000859194919093740380937303CF91FF9030
:10335000EF90DF90CF900895CF93DF938230910567
:1033600010F482E090E0E0914504F091460420E002
:1033700030E0C0E0D0E0309711F140815181481732
:103380005907C0F04817590761F48281938120974B
:1033900019F09B838A832BC0909346048093450445
:1033A00026C02115310519F04217530718F49A0168
:1033B000BE01DF01EF010280F381E02DDCCF21159A
:1033C000310509F1281B390B2430310590F4129690
:1033D0008D919C9113976115710521F0FB019383E9
:1033E000828304C09093460480934504FD01329685
:1033F00044C0FD01E20FF31F8193919322503109E4
:103400002D933C933AC02091430430914404232BE4
:1034100041F4209118013091190130934404209314
:10342000430420911601309117012115310541F413
:103430002DB73EB740911A0150911B01241B350B4B
:10344000E0914304F0914404E217F307A0F42E1B2B
:103450003F0B2817390778F0AC014E5F5F4F2417F8
:10346000350748F04E0F5F1F5093440440934304C8
:103470008193919302C0E0E0F0E0CF01DF91CF9122
:1034800008950F931F93CF93DF93009709F48CC097
:10349000FC01329713821282009145041091460478
:1034A0000115110581F420813181820F931F209134
:1034B0004304309144042817390779F5F093440404
:1034C000E093430471C0D80140E050E0AE17BF075D
:1034D00050F412962D913C911397AD0121153105B1
:1034E00009F1D901F3CF9D01DA0133832283608191
:1034F0007181860F971F8217930769F4EC01288169
:103500003981260F371F2E5F3F4F318320838A81F9
:103510009B8193838283452B29F4F0934604E093A7
:10352000450442C01396FC93EE931297ED01499126
:1035300059919E01240F351FE217F30771F4808122
:103540009181840F951F029611969C938E93828190
:10355000938113969C938E931297E0E0F0E0D8014C
:1035600012968D919C911397009719F0F8018C0198
:10357000F6CF8D919C9198012E5F3F4F820F931F44
:1035800020914304309144042817390769F4309797
:1035900029F4109246041092450402C0138212824C
:1035A0001093440400934304DF91CF911F910F9136
:1035B00008955058BB27AA270E94F11A0C94351C75
:1035C0000E94271C38F00E942E1C20F039F49F3FE7
:1035D00019F426F40C94241C0EF4E095E7FB0C94EB
:1035E0001E1CE92F0E94461C58F3BA176207730786
:1035F0008407950720F079F4A6F50C94681C0EF466
:10360000E0950B2EBA2FA02D0B01B90190010C01F2
:10361000CA01A0011124FF27591B99F0593F50F40A
:10362000503E68F11A16F040A22F232F342F442762
:10363000585FF3CF469537952795A795F04053955A
:10364000C9F77EF41F16BA0B620B730B840BBAF02A
:103650009150A1F0FF0FBB1F661F771F881FC2F795
:103660000EC0BA0F621F731F841F48F487957795A9
:103670006795B795F7959E3F08F0B0CF9395880F63
:1036800008F09927EE0F9795879508950E94FA1BE9
:1036900008F481E008950E945F1B0C94351C0E9481
:1036A0002E1C58F00E94271C40F029F45F3F29F09F
:1036B0000C941E1C51110C94691C0C94241C0E9427
:1036C000461C68F39923B1F3552391F3951B550BD1
:1036D000BB27AA2762177307840738F09F5F5F4FE5
:1036E000220F331F441FAA1FA9F335D00E2E3AF024
:1036F000E0E832D091505040E695001CCAF72BD03C
:10370000FE2F29D0660F771F881FBB1F261737078C
:103710004807AB07B0E809F0BB0B802DBF01FF27BE
:1037200093585F4F3AF09E3F510578F00C941E1C61
:103730000C94691C5F3FE4F3983ED4F3869577952B
:103740006795B795F7959F5FC9F7880F911D969577
:10375000879597F90895E1E0660F771F881FBB1FD3
:10376000621773078407BA0720F0621B730B840B80
:10377000BA0BEE1F88F7E0950895E89409C097FB0F
:103780003EF490958095709561957F4F8F4F9F4F38
:103790009923A9F0F92F96E9BB279395F69587957C
:1037A00077956795B795F111F8CFFAF4BB0F11F43F
:1037B00060FF1BC06F5F7F4F8F4F9F4F16C08823E6
:1037C00011F096E911C0772321F09EE8872F762F1C
:1037D00005C0662371F096E8862F70E060E02AF05D
:1037E0009A95660F771F881FDAF7880F9695879549
:1037F00097F90895990F0008550FAA0BE0E8FEEF1E
:1038000016161706E807F907C0F012161306E407A4
:10381000F50798F0621B730B840B950B39F40A269D
:1038200061F0232B242B252B21F408950A2609F47B
:10383000A140A6958FEF811D811D089597F99F677F
:1038400080E870E060E008959FEF80EC0895002428
:103850000A941616170618060906089500240A94F5
:1038600012161306140605060895092E0394000C7B
:1038700011F4882352F0BB0F40F4BF2B11F460FF0A
:1038800004C06F5F7F4F8F4F9F4F089557FD905833
:10389000440F551F59F05F3F71F04795880F97FB14
:1038A000991F61F09F3F79F08795089512161306CE
:1038B0001406551FF2CF4695F1DF08C016161706FD
:1038C0001806991FF1CF8695710561050894089532
:1038D000E894BB2766277727CB0197F908950E94C4
:1038E000FA1B08F48FEF08950E94871C0C94351C76
:1038F0000E94271C38F00E942E1C20F0952311F006
:103900000C941E1C0C94241C11240C94691C0E9401
:10391000461C70F3959FC1F3950F50E0551F629FB1
:10392000F001729FBB27F00DB11D639FAA27F00D18
:10393000B11DAA1F649F6627B00DA11D661F829F3F
:103940002227B00DA11D621F739FB00DA11D621F24
:10395000839FA00D611D221F749F3327A00D611D41
:10396000231F849F600D211D822F762F6A2F112423
:103970009F5750409AF0F1F088234AF0EE0FFF1F56
:10398000BB1F661F771F881F91505040A9F79E3FAD
:10399000510580F00C941E1C0C94691C5F3FE4F3ED
:1039A000983ED4F3869577956795B795F795E79503
:1039B0009F5FC1F7FE2B880F911D9695879597F90C
:1039C000089597FB072E16F4009407D077FD09D0D1
:1039D0000E94281D07FC05D03EF4909581959F4FCD
:1039E0000895709561957F4F0895A1E21A2EAA1B44
:1039F000BB1BFD010DC0AA1FBB1FEE1FFF1FA2179F
:103A0000B307E407F50720F0A21BB30BE40BF50B9B
:103A1000661F771F881F991F1A9469F76095709524
:103A2000809590959B01AC01BD01CF010895EE0FEB
:103A3000FF1F0590F491E02D09940E943C1DA59F65
:103A4000900DB49F900DA49F800D911D1124089599
:103A5000AA1BBB1B51E107C0AA1FBB1FA617B707B4
:103A600010F0A61BB70B881F991F5A95A9F78095D0
:103A70009095BC01CD010895A29FB001B39FC001F4
:103A8000A39F700D811D1124911DB29F700D811D8A
:103A90001124911D089581E090E0F8940C946A1D22
:103AA000FB0151915523A9F0BF01DC014D91451750
:103AB0004111E1F759F4CD010190002049F04D91F9
:103AC00040154111C9F3FB014111EFCF81E090E0B6
:103AD0000197089511E0C7E1D1E004C0FE010E9402
:0E3AE000171D2196C831D107C9F7F894FFCF02
:103AEE00A201A201A201A201A201FFFFFFFF00E1BC
:103AFE000000000000000000470480001F1C1F1E75
:103B0E001F1E1F1F1E1F1E1F4465766963652049F9
:103B1E00443A200047593932353020696E6974694C
:103B2E00616C697A696E672E2E2E2E0053656E7348
:103B3E006F7220656E61626C65643A2000E8030066
:103B4E0000000042012D0463012A03060358010000
:103B5E00000000D702A702A3019302840283020091
:103B6E00000000C401CE0D18023002AB01C30100EB
:103B7E00C180810000004F4B000D0A006E6F772848
:0A3B8E00293A2000737400676300F9
:00000001FF
