:100000000C9432010C9413060C94EC050C94C50569
:100010000C949E050C945A010C945A010C9477058B
:100020000C945A010C94D4070C940B0D0C947D0D78
:100030000C945A010C945A010C945A010C945A01D4
:100040000C945A010C945A010C945A010C945A01C4
:100050000C945A010C945A010C945A010C942D05DD
:100060000C945A010C945A010C945A010C945A01A4
:100070000C945A010C945A010C945A010C945A0194
:100080000C945A010C945A010C945A010C94920944
:100090000C9464080C945A010C945A010C945A0163
:1000A0000C945A010C945A010C945A018F03920338
:1000B000810385038903B303B303B30396039A0350
:1000C0009E03A403A803B303AE03000000002400B2
:1000D00027002A002D0030000000000200090F0058
:1000E00000030401000C00000000000000000000FC
:1000F0000000000000000044657669636520494403
:100100003A200047593932353020696E6974696187
:100110006C697A696E672E2E2E2E0053656E736F92
:100120007220656E61626C65643A2000475939320D
:10013000353020636F6E6E656374696F6E20737502
:10014000636365737366756C6C792E004759393239
:10015000353020636F6E6E656374696F6E20666103
:10016000696C65642E00496E697469616C6C697AAA
:10017000696E672042542053657269616C20706F0C
:1001800072742E2E2E0053657269616C2072656147
:1001900064792E0000000000250028002B002E00AE
:1001A0003100000000002300260029002C002F0051
:1001B000040404040403040502020202040302020C
:1001C00002020606060606060404020202040404ED
:1001D0000802011040804010204080408008020446
:1001E0000180402010020110801020404020080BA8
:1001F00000020202010009040000010202000005E1
:10020000240010010524010101042402060524062E
:1002100000010705810310004009040100020A00E3
:1002200000000705020240000007058302400000AD
:100230000403090412010002EF0201404123378048
:1002400000010102030141726475696E6F204C4C1C
:10025000430041726475696E6F204D6963726F006F
:100260004216AD0F11241FBECFEFDAE0DEBFCDBFC7
:1002700023E0A6E7B1E001C01D92AC3BB207E1F775
:1002800011E0A0E0B1E0ECECFAE302C005900D92C1
:10029000A637B107D9F711E0C1E3D1E004C0219737
:1002A000FE010E94331BC033D107C9F70E94B70F6C
:1002B0000C94591D0C940000CF93DF931F92CDB77F
:1002C000DEB76983DC01ED91FC910280F381E02DC2
:1002D00041E050E0BE016F5F7F4F09950F90DF91C5
:1002E000CF91089583E08093E9008091F200882304
:1002F00019F08AE38093E8000895FC0184859585D0
:1003000097FD0BC09FB7F89482E08093E90080913D
:10031000F2009FBF90E0019608959FB7F89482E0A5
:100320008093E9008091F2009FBF90E008953FB76D
:10033000F89480912C0290912D02A0912E02B09100
:100340002F0226B5A89B05C02F3F19F00196A11DCD
:10035000B11D3FBFBA2FA92F982F8827820F911D5B
:10036000A11DB11DBC01CD0142E0660F771F881FA2
:10037000991F4A95D1F7089508958091260290E03B
:1003800020912502821B910908952091320230911B
:1003900033022817390771F49091300280913102AD
:1003A000981741F0E0913002F0E0EB53FE4F80816E
:1003B00090E008958FEF9FEF089508951F93CF93D6
:1003C000DF93DC015C962D913C915D972115310501
:1003D00039F481E090E013969C938E9312973DC080
:1003E0005196ED91FC91529750969C915097892F80
:1003F00080951FB75E964C915E9741FB772770F909
:1004000041FD6095F8944081772311F0492B01C09C
:1004100048234083E9012197F1F748E0508160FFCC
:1004200002C0592B01C058235083E9012197F1F7ED
:100430006695415099F7772321F090818923808335
:1004400003C08081982B90831FBF5C968D919C91F7
:100450005D970197F1F721E030E0C901DF91CF917D
:100460001F910895209132023091330228173907E5
:1004700071F4809131022091300290E0805C9F4FB6
:10048000821B910960E470E00E94FD1A089580E0EB
:1004900090E00895209132023091330228173907F5
:1004A000B9F49091300280913102981789F0E0916F
:1004B0003002F0E0EB53FE4F80812091300230E0BB
:1004C0002F5F3F4F2F7333272093300290E0089522
:1004D0008FEF9FEF089585ED8093BC008091BC0065
:1004E00084FDFCCF1092790208954091A001262F3F
:1004F00030E0240F311D21323105DCF420917902E6
:100500002430C9F4FC0180E090E0861758F4309163
:10051000A0012191DC01A258BE4FA30FB11D2C9365
:100520000196F3CF8091A001680F6093A00180E055
:10053000089581E0089582E008950895E0912502EC
:1005400080912602E81730F4F0E0EB5FFD4F8081E8
:1005500090E008958FEF9FEF08959091250280918C
:100560002602981750F4E92FF0E0EB5FFD4F208151
:1005700030E09F5F9093250202C02FEF3FEFC9014B
:100580000895CF92DF92EF92FF920F931F93CF9334
:10059000DF937C01262F972F8A0180917A0288238E
:1005A00091F0C62FD72F6E01C40ED51ECC15DD05D8
:1005B00071F06991D701ED91FC910190F081E02DEE
:1005C000C7010995F3CF642F822F0E947502C801DD
:1005D000DF91CF911F910F91FF90EF90DF90CF901F
:1005E0000895CF93DF931F92CDB7DEB76983209133
:1005F0007A022223D1F020919D02203240F021E0A6
:1006000030E0FC013383228380E090E015C08091CC
:100610007B02E82FF0E0E458FD4F998190838F5FD3
:1006200080937B0280939D0205C061E0CE0101961C
:100630000E94750281E090E00F90DF91CF910895C4
:100640000F931F93CF93DF931F92CDB7DEB78C012B
:10065000FC018485958597FF0EC0CE0101960E940E
:10066000820B019719F4298130E002C02FEF3FEF90
:10067000F80135872487F801848595850F90DF91EF
:10068000CF911F910F910895CF93DF931F92CDB714
:10069000DEB7FC018485958597FD05C02FEF3FEF00
:1006A000358724870BC0CE0101960E94820B0197EB
:1006B00019F4898190E002C08FEF9FEF0F90DF91D6
:1006C000CF9108950E94441D362F90E0FC01E8521E
:1006D000FF4F4491FC01E153FE4F2491FC01E05592
:1006E000FE4F8491882309F451C04423E1F150E086
:1006F000FA013197EF30F105B0F5EA5AFF4F0C944B
:10070000331B909180009F7707C0909180009F7D60
:1007100003C090918000977F9093800024C094B58F
:100720009F7702C094B59F7D94BD1DC090919000AD
:100730009F7707C0909190009F7D03C0909190009B
:10074000977F909390000FC09091C0009F7703C057
:100750009091C0009F7D9093C00005C09091C20011
:10076000977F9093C200E82FF0E0EE0FFF1FEC564A
:10077000FE4FA591B4918FB7F894EC91311103C05D
:1007800020952E2301C02E2B2C938FBF0895CF933D
:10079000DF9390E0FC01E153FE4F2491FC01E05512
:1007A000FE4F8491882361F190E0880F991FFC012E
:1007B000E653FF4FC591D491FC01EC56FE4FA59135
:1007C000B491611109C09FB7F89488812095822364
:1007D0008883EC912E230BC0623061F49FB7F894AC
:1007E0003881822F809583238883EC912E2B2C9344
:1007F0009FBF06C08FB7F894E8812E2B28838FBF48
:10080000DF91CF9108958F929F92AF92BF92CF9236
:10081000DF92EF92FF926B017C010E9497014B01E6
:100820005C01C114D104E104F104F1F00E949701CC
:10083000DC01CB0188199909AA09BB09883E9340BC
:10084000A105B10570F321E0C21AD108E108F10851
:1008500088EE880E83E0981EA11CB11CC114D1043F
:10086000E104F10419F7DDCFFF90EF90DF90CF9016
:10087000BF90AF909F908F9008957F928F929F929C
:10088000AF92BF92CF92DF92EF92FF920F931F939E
:10089000CF93DF936C015B017A018091150188236E
:1008A00009F46BC080915202882309F466C08091DC
:1008B000B20380FF05C08091E00082608093E00079
:1008C000E70110E00AEF83E0982E90E4792E2AE306
:1008D000822E209709F448C08FB7F8949092E900CF
:1008E0009091E80095FF06C09091F200272D291BFA
:1008F000922F01C090E08FBF91110AC0015009F4FE
:100900003CC061E070E080E090E00E940304E1CF31
:10091000292F30E0C217D3070CF49C2F8FB7F8941F
:100920009092E9002091E80025FF1CC0292F30E0BB
:10093000C21BD30BF501915020F041914093F1007F
:10094000FACFA20EB31E112319F08092E80009C05D
:100950009091E80095FD06C08092E80011E0209794
:1009600009F010E08FBFB5CF1111B6CF5D9A84E6C4
:100970008093B3031E141F0444F081E090E0F6015D
:100980009383828380E090E001C0C701DF91CF9123
:100990001F910F91FF90EF90DF90CF90BF90AF909D
:1009A0009F908F907F9008952FB7F89460912802C0
:1009B0007091290280912A0290912B022FBF0895F5
:1009C0000F931F930E94D40460937A0170937B016C
:1009D00080937C0190937D010091760110917701C5
:1009E0002091780130917901DC01CB01801B910BC2
:1009F000A20BB30B86399105A105B10558F183E52A
:100A000091E00E94A0098FE591E00E94A0098091E9
:100A10007A0190917B01A0917C01B0917D0180933E
:100A2000760190937701A0937801B093790180913A
:100A3000340290913502A0913602B09137020196AE
:100A4000A11DB11D8093340290933502A09336020C
:100A5000B09337021F910F9108951F920F920FB616
:100A60000F9211242F933F938F939F93AF93BF9334
:100A70008091280290912902A0912A02B0912B0224
:100A80003091270223E0230F2D3720F40196A11D7A
:100A9000B11D05C026E8230F0296A11DB11D2093AC
:100AA00027028093280290932902A0932A02B093F0
:100AB0002B0280912C0290912D02A0912E02B091D8
:100AC0002F020196A11DB11D80932C0290932D023F
:100AD000A0932E02B0932F02BF91AF919F918F915F
:100AE0003F912F910F900FBE0F901F9018951F925E
:100AF0000F920FB60F9211242F933F934F935F9352
:100B00006F937F938F939F93AF93BF93EF93FF93D5
:100B1000E0910801F09109010995FF91EF91BF91D2
:100B2000AF919F918F917F916F915F914F913F9185
:100B30002F910F900FBE0F901F9018951F920F923C
:100B40000FB60F9211242F933F934F935F936F93A0
:100B50007F938F939F93AF93BF93EF93FF93E09116
:100B60000601F09107010995FF91EF91BF91AF91B7
:100B70009F918F917F916F915F914F913F912F91B5
:100B80000F900FBE0F901F9018951F920F920FB6E7
:100B90000F9211242F933F934F935F936F937F9303
:100BA0008F939F93AF93BF93EF93FF93E0910401D3
:100BB000F09105010995FF91EF91BF91AF919F9140
:100BC0008F917F916F915F914F913F912F910F90F6
:100BD0000FBE0F901F9018951F920F920FB60F9295
:100BE00011242F933F934F935F936F937F938F9332
:100BF0009F93AF93BF93EF93FF93E0910201F09126
:100C000003010995FF91EF91BF91AF919F918F9152
:100C10007F916F915F914F913F912F910F900FBEF8
:100C20000F901F9018951F920F920FB60F921124DC
:100C30002F933F934F935F936F937F938F939F93E4
:100C4000AF93BF93EF93FF93E0910001F091010107
:100C50000995FF91EF91BF91AF919F918F917F91F6
:100C60006F915F914F913F912F910F900FBE0F9019
:100C70001F9018952F923F924F925F926F927F92A2
:100C80008F929F92AF92BF92CF92DF92EF92FF929C
:100C90000F931F93CF93DF93CDB7DEB728970FB68F
:100CA000F894DEBF0FBECDBFD82EC62E48871901DF
:100CB00078010E94D4042B013C018D2C880C912CCE
:100CC00010E001E04885A42EB12C970140E050E0EF
:100CD0002B833C834D835E834885941608F0A0C027
:100CE00000937A02D0929C0210927B0210929D0295
:100CF0006C2D8EEE92E00E94F1020E94B8090093E2
:100D00007A02D0929C0210927B0210929D028091F6
:100D100079028111FCCF9501291931092132310560
:100D200014F020E230E02F83213210F030E23F83D4
:100D300000937902009378024FEF4093770210926C
:100D400076028F81815080937502009354028091C6
:100D5000540288298093540280915302813071F4A7
:100D600010925302809154028093BB008091BC008A
:100D700083FDF8CF55EC5093BC0003C085EE809303
:100D8000BC00809179028130E1F3809176022F815D
:100D9000821718F4309176023F83A5E5B2E0E5E0D2
:100DA000F2E08E2F45E052E0841B5F81851718F436
:100DB0008D918193F6CF1092250250932602809157
:100DC00025022F81281721F1E114F10481F491010A
:100DD000210F311D17FD3A953A8329838EEE92E05B
:100DE0000E94AD02A981BA818C931F5FE8CF0E9457
:100DF000D404DC01CB0184199509A609B7092B811C
:100E00003C814D815E8182179307A407B507F8F2F4
:100E10000E94B8098885813208F080E2980E5CCF84
:100E2000E114F104D9F00E94D404AB01BC014419CF
:100E3000550966097709C701A0E0B0E048175907CE
:100E40006A077B0758F05885852F90E0212F012EE7
:100E5000000C330B281739070CF41FEF812F28964D
:100E60000FB6F894DEBF0FBECDBFDF91CF911F91BB
:100E70000F91FF90EF90DF90CF90BF90AF909F9039
:100E80008F907F906F905F904F903F902F9008953C
:100E9000CF92DF92EF92FF920F931F93CF93DF9346
:100EA00000D0CDB7DEB7F82EE62ED42EC22E08EE37
:100EB00013E09E012E5F3F4F41E00E943A063A81C7
:100EC000E1E0F0E0AF0101C0440FDA94EAF7CC2092
:100ED00019F0932F942B03C0942F909593239A830A
:100EE0009983AE014F5F5F4F6E2D8F2D0E94770A61
:100EF0000F900F90DF91CF911F910F91FF90EF9086
:100F0000DF90CF900895BF92CF92DF92EF92FF9241
:100F10000F931F93CF93DF9300D0CDB7DEB7F82E9A
:100F2000E62EC42EB22ED02E08EE13E09E012E5FC8
:100F30003F4F41E00E943A06882349F14C2D50E092
:100F40004B1951094F5F5F4F21E030E002C0220F83
:100F5000331FBA94E2F721503109042E01C0220F49
:100F60000A94EAF78D2D01C0880F4A95EAF7322FCF
:100F700030959A8193232823292B2A832983AE0134
:100F80004F5F5F4F6E2D8F2D0E94770A01C080E06A
:100F90000F900F90DF91CF911F910F91FF90EF90E5
:100FA000DF90CF90BF9008951F920F920FB60F92CF
:100FB00011242F933F934F935F936F937F938F935E
:100FC0009F93AF93BF93EF93FF93E0913202F09121
:100FD0003302309709F451C0968DA685B785858573
:100FE00091FF04C09C91892329F447C09C918923D7
:100FF00009F043C0A389B4899C9185898095892390
:101000008C93868997890197F1F7608D718DA685FC
:10101000B785558538E020E0CB010197F1F7822FA5
:1010200090E095958795282F4C91452309F02068ED
:10103000315091F7868D81FD20958091310290E0AD
:1010400001968F73992730913002381749F0A0919B
:101050003102B0E0AB53BE4F2C938093310203C0FA
:10106000868D8160868F828D938D0197F1F7A3899C
:10107000B4899C918589892B8C93FF91EF91BF91C5
:10108000AF919F918F917F916F915F914F913F9120
:101090002F910F900FBE0F901F901895E091320284
:1010A000F0913302E817F90769F4A389B4899C9198
:1010B0008589809589238C93109233021092320295
:1010C00081E0089580E008951F920F920FB60F926D
:1010D00011242F933F934F935F936F937F938F933D
:1010E0009F93AF93BF93EF93FF938091B900887F55
:1010F000803609F49CC068F5883209F45BC090F42E
:10110000803109F454C038F4882309F4F6C08830DB
:1011100009F44DC0F6C0883109F44CC0803209F49E
:101120005DC0EFC0803409F468C048F4803309F42E
:1011300055C0883309F0E5C080937702D8C0803568
:1011400009F44FC0883509F45DC0883409F0D9C06E
:10115000D6C0883909F4C7C0A8F4883709F467C035
:1011600038F4883609F463C0803709F460C0C9C018
:10117000883809F4B8C0803909F45FC0803809F0B4
:10118000C0C05BC0803B09F486C038F4803A09F4E3
:1011900066C0883A09F47FC0B4C0803C09F4A7C097
:1011A000883C09F4A4C0883B09F48AC0AAC0809195
:1011B000540210C09091760280917502981770F5D4
:1011C000E091760281E08E0F80937602F0E0EB5A98
:1011D000FD4F80818093BB0085EC86C080937702B1
:1011E0008EC0E091760281E08E0F8093760280912E
:1011F000BB00F0E0EB5AFD4F808390917602809126
:1012000075026EC0E091760281E08E0F80937602C7
:101210008091BB00F0E0EB5AFD4F80838091780213
:1012200081116DC081E08093530284EA61C083E044
:10123000809379021092C401CFCF8091C401803293
:1012400008F051C0E091C40181E08E0F8093C40189
:101250008091BB00F0E0EC55FE4F8083BDCF85EC64
:101260008093BC00109279028091C401803230F4E6
:10127000E091C401F0E0EC55FE4F10826091C40192
:1012800070E0E091A201F091A30184EA91E0099558
:101290001092C40136C084E0809379021092A101BB
:1012A0001092A001E0919E01F0919F01099580911B
:1012B000A001811105C081E08093A00110927E0100
:1012C000E091A10181E08E0F8093A101F0E0E2584E
:1012D000FE4F80818093BB009091A1018091A0017D
:1012E000981708F479CF85E88093BC000AC085EC94
:1012F0008093BC001092790204C0109277020E9481
:101300006B02FF91EF91BF91AF919F918F917F9170
:101310006F915F914F913F912F910F900FBE0F9062
:101320001F9018951F920F920FB60F9211241092D2
:10133000A3031092A2030F900FBE0F901F90189559
:10134000BC01009791F0FC0101900020E9F7319772
:10135000AF01481B590BE0919E02F0919F02028061
:10136000F381E02D8EE992E0099480E090E0089509
:1013700020919D0290919C02213208F04AC08091F8
:1013800079028111FCCF32E03093790231E0309361
:1013900078023FEF30937702109276022093750225
:1013A000ACE7B2E045E552E0FA013E2F341B3217BC
:1013B00018F43D913193F9CF1092540220915402C8
:1013C000990F922B9093540290915302913061F4B3
:1013D00010925302909154029093BB009091BC00E4
:1013E00093FDF8CF95EC01C095EE9093BC009091E1
:1013F00079029230E1F3909177029F3F79F08091EA
:101400007702803241F080917702803331F084E0BE
:1014100005C081E003C082E001C083E010927B023E
:1014200010929D0210927A0208958F929F92AF922D
:10143000BF920F931F93CF93DF93CDB7DEB7A197E2
:101440000FB6F894DEBF0FBECDBF19A2423008F42C
:101450004AE08E010F5D1F4F842E912CA12CB12CE0
:10146000A50194010E94111BE62FB901CA01015088
:101470001109EA3014F4E05D01C0E95CD801EC9395
:10148000232B242B252B61F7C8010E94A009A196CC
:101490000FB6F894DEBF0FBECDBFDF91CF911F9185
:1014A0000F91BF90AF909F908F9008950F931F93CF
:1014B000CF93DF938C01C0E0D0E0F801EC0FFD1F6B
:1014C0006491662371F0E0919E02F0919F02019079
:1014D000F081E02D8EE992E00995892B11F021969B
:1014E000ECCFCE01DF91CF911F910F910895CF9353
:1014F000DF93EA0191E090937A0280939C0210922C
:101500007B0210929D028EEE92E00E94F1026881B1
:101510008EEE92E00E94F1020E94B80991E08111E2
:1015200090E0892FDF91CF910895CF93DF930E94B0
:10153000560AEC018FE591E00E94A0098C0F9D1FD7
:10154000DF91CF910895E0919E02F0919F0201906A
:10155000F081E02D682F8EE992E009944F925F921E
:101560006F927F928F929F92AF92BF92CF92DF92B3
:10157000EF92FF926B017C01B42E9B01AC010E94A3
:10158000E31A882319F08AE691E027C02601370183
:10159000E89477F82FEF3FEF4FE75FE7C301B20121
:1015A0000E94E31A81110DC02FEF3FEF4FE75FE775
:1015B000C301B2010E942F1818161CF48EE691E0A8
:1015C0000CC02FEF3FEF4FE75FE4C701B6010E9469
:1015D000981A181684F482E791E0FF90EF90DF905C
:1015E000CF90BF90AF909F908F907F906F905F90C3
:1015F0004F900C94A0092FEF3FEF4FE75FECC7012E
:10160000B6010E942F1887FDE6CF20E030E0A90147
:10161000C701B6010E942F1887FF09C08DE20E9402
:10162000A30A4C01F7FAF094F7F8F09402C0812C69
:10163000912CA12C60E070E080E09FE3AB1441F0BE
:1016400020E030E040E251E40E94F719A394F6CF85
:101650009B01AC01C701B6010E948B192B013C0113
:101660000E94691A6B017C010E9434189B01AC0135
:10167000C301B2010E948A192B013C014AE0C70153
:10168000B6010E94150A7C01E80CF91CBB2029F068
:101690008EE20E94A30AE80EF91EDB2CDD2021F168
:1016A00020E030E040E251E4C301B2010E9495180D
:1016B0002B013C010E94691A4B01A12CB12C4AE07C
:1016C000C501B4010E94150AE80EF91EC501B40156
:1016D0000E9434189B01AC01C301B2010E948A1917
:1016E0002B013C01DA94DACFC701FF90EF90DF9035
:1016F000CF90BF90AF909F908F907F906F905F90B2
:101700004F900895FC0180915202811103C08FEF28
:101710009FEF08959FB7F89482E08093E9002091AD
:10172000F20030E01216130614F421E030E0211527
:10173000310559F0289A84E6809351028091F10096
:1017400080838091F200882319F09FBFC90108951A
:101750008BE68093E800F9CF8091A80381110DC03A
:1017600082E08093A40384E08093A5031092A703F2
:101770001092A60381E08093A80384EA93E0089581
:101780000F931F93CF93DF93EC018881998100978A
:1017900029F02A813B812617370788F48B016F5F78
:1017A0007F4F0E947A1C009761F0998388831B8386
:1017B0000A832C813D81232B11F4FC01108281E0EE
:1017C00001C080E0DF91CF911F910F910895EF92BA
:1017D000FF920F931F93CF93DF936115710511F45F
:1017E00080E023C0FB0101900020E9F73197E61B60
:1017F000F70BDC0114960D911C9115973097A1F011
:101800007B01EC010E0F1F1FB8010E94C00B882343
:1018100039F3288139818C819D81B701820F931F13
:101820000E94521D1D830C8381E0DF91CF911F9197
:101830000F91FF90EF900895EF92FF920F931F93F7
:10184000CF93DF9300D0CDB7DEB78C0169831A82C6
:10185000FC01E480F580FFEFEF1AFF0AB7010E9458
:10186000C00B882381F0F80120813181848195812A
:10187000BE016F5F7F4F820F931F0E94521DF801C0
:10188000F582E48281E00F900F90DF91CF911F915C
:101890000F91FF90EF9008954091B6035091B703D8
:1018A0002091B4033091B50342175307B4F49091DB
:1018B000E8009570E1F39091E80092FD19C08093E3
:1018C000F1008091B6039091B70301968F73992729
:1018D000892B19F48EEF8093E8008091B6039091E4
:1018E000B70301969093B7038093B60381E0089500
:1018F00080E00895DF92EF92FF920F931F93CF93B2
:10190000DF93D82E8A017B01E40EF51EEB01CE1584
:10191000DF0571F0D7FE03C0FE01849101C088810C
:101920000E944C0C21968111F2CF8FEF9FEF01C0E6
:10193000C801DF91CF911F910F91FF90EF90DF9041
:101940000895615030F02091F100FC012083019650
:10195000F8CF289A84E6809351020895CF92DF92BF
:10196000EF92FF920F931F93CF93DF936C017A0155
:101970008B01C0E0D0E0CE15DF0589F0D8016D9174
:101980008D01D601ED91FC910190F081E02DC60111
:101990000995892B11F47E0102C02196ECCFC70175
:1019A000DF91CF911F910F91FF90EF90DF90CF903B
:1019B00008950F931F93CF93DF931F92CDB7DEB798
:1019C00082E0898342E450E06EEE71E080E80E949C
:1019D0007A0C0E94AC0BDC0112960D911C911397AE
:1019E0000115110569F0D801ED91FC910280F38198
:1019F000E02DBE016F5F7F4FC801099597FF07C0BB
:101A000089810F90DF91CF911F910F910895F80177
:101A100000851185E5CF1F920F920FB60F9211240A
:101A20008F939F938091E1009091E100937F909339
:101A3000E10083FF0FC01092E90091E09093EB006A
:101A40001092EC0092E39093ED001092520298E015
:101A50009093F00082FF20C093E09093E900909172
:101A6000F200992319F09AE39093E8009091B30360
:101A7000992339F09091B30391509093B303992334
:101A800089F190915102992339F09091510291502E
:101A900090935102992341F184FF10C08091E2009C
:101AA0008E7E81608093E2008091E1008F7E809342
:101AB000E1008091B2038E7E806111C080FF16C06C
:101AC0008091E2008E7E80618093E2008091E1004F
:101AD0008E7E8093E1008091B2038E7E8160809340
:101AE000B20304C05D98CDCF2898D6CF9F918F9137
:101AF0000F900FBE0F901F9018951F920F920FB668
:101B00000F921124CF92DF92EF92FF920F931F93C7
:101B10002F933F934F935F936F937F938F939F93F5
:101B2000AF93BF93EF93FF93CF93DF93CDB7DEB720
:101B30006C97DEBFCDBF1092E9008091E80083FF73
:101B4000EDC168E0CE0145960E94A10C82EF809322
:101B5000E8008D8987FF05C09091E80090FFFCCFD9
:101B600003C09EEF9093E800982F907609F0C6C0CE
:101B70009E892F89188D91110CC0803829F480918D
:101B8000B1038093F10002C01092F1001092F100B5
:101B900048C1422F50E0512B913051F4811141C185
:101BA0004130510509F03DC18091B1038D7F0BC0DB
:101BB000933061F4811135C14130510509F031C1D3
:101BC0008091B10382608093B1032BC1953041F4C1
:101BD0008091E80080FFFCCF20682093E30021C1C2
:101BE000963009F05FC0EB8CFC8C1092E9001092EB
:101BF000B7031092B603123091F51092B50310920C
:101C0000B4030E94D90C99E0BE016F5F7F4FDB01E6
:101C1000E92F1D92EA95E9F799831A8391E09E8353
:101C200090EA98879AEF99872091B6033091B7038D
:101C3000275F3F4F3C832B838D831092E9001092E6
:101C4000B7031092B603F092B503E092B40349E0F3
:101C500050E080E00E947A0C0E94D90CE2C0F09221
:101C6000B503E092B4030E94AC0BDC011296ED9038
:101C7000FC901397E114F10409F4C0C0D701ED9171
:101C8000FC910480F581E02DBE016B5E7F4FC701A2
:101C90000995009719F00CF0C4C0C7C0F701E084A3
:101CA000F184E8CF973009F4C0C0983021F481E086
:101CB0008093F100B6C0993009F0B3C0837009F089
:101CC000B4C0EDE4F1E081E021E036E390819923B6
:101CD00061F08093E9002093EB0091919093EC00E8
:101CE0003093ED008F5F873089F78EE78093EA00AD
:101CF0001092EA008F898093520293C08B8D9C8D45
:101D00001092E9001092B7031092B6039093B503B6
:101D10008093B403898D811156C08E899D89913A33
:101D200059F4813209F081C047E050E06EE071E083
:101D300080E00E947A0C75C0913209F076C083323F
:101D400089F4888D90E0982F88272F89822BA0E036
:101D5000B0E080930A0190930B01A0930C01B09323
:101D60000D015FC0803269F48091E80082FFFCCFF2
:101D700067E08EE091E00E94A10C8BEF8093E80079
:101D800006C0823209F04DC08F8980931501809181
:101D9000B003882319F0EEEFFAE002C0E0E0F8E0CB
:101DA00080910E0190910F01A0911001B09111014D
:101DB000803B9440A105B10509F07BC080911501DD
:101DC00080FF93C076C00E94AC0BDC0112960D918F
:101DD0001C9113970115110541F1D801ED91FC916A
:101DE0000190F081E02DBE016B5E7F4FC801099527
:101DF000811117C0F80100851185ECCF113009F46D
:101E00004EC0133091F48F89882309F445C0823085
:101E100081F440E86DE082E592E00E94BD178823DE
:101E200021F08EEF8093E80079C081E28093EB008F
:101E300075C0813029F440E86BE086E492E0EDCF94
:101E4000833099F70E94AC0BDC011296ED90FC9068
:101E500013978E010F5F1F4F6801E114F10479F0B1
:101E6000D701ED91FC910680F781E02DB801C70103
:101E70000995080F111DF701E084F184EECFD80118
:101E80001C92F60101900020E9F73197BF016C190F
:101E90007D0940E0C601C1CF60E372E002C064E3A7
:101EA00072E06115710509F2FB01449150E080E890
:101EB00040CF0FB6F894A895809160008861809318
:101EC0006000109260000FBEA895EE3F2AE0F20776
:101ED00039F08091FE0A9091FF0A91838083A1CF0F
:101EE0001092FF0A1092FE0A9CCFEE3F8AE0F8079C
:101EF00031F0808191819093FF0A8093FE0A87E7F9
:101F000097E7918380839BE088E10FB6F894A895CA
:101F1000809360000FBE9093600083CF6C960FB6E5
:101F2000F894DEBF0FBECDBFDF91CF91FF91EF914F
:101F3000BF91AF919F918F917F916F915F914F91E1
:101F40003F912F911F910F91FF90EF90DF90CF90D5
:101F50000F900FBE0F901F90189580E491E0909322
:101F6000FB028093FA028AEF92E00C944E08CF9322
:101F7000DF93CDB7DEB76B970FB6F894DEBF0FBE19
:101F8000CDBF789484B5826084BD84B5816084BD02
:101F900085B5826085BD85B5816085BD80916E0007
:101FA000816080936E001092810080918100826038
:101FB0008093810080918100816080938100809175
:101FC0008000816080938000809191008260809386
:101FD00091008091910081608093910080919000A8
:101FE0008160809390008091C10084608093C100E3
:101FF0008091C10082608093C1008091C1008160A6
:102000008093C1008091C30081608093C300809160
:10201000C00082608093C0008091C2008160809384
:10202000C20080917A00846080937A0080917A0067
:10203000826080937A0080917A00816080937A0038
:1020400080917A00806880937A00109252021092F8
:10205000B1031092B2038091D70081608093D700C2
:1020600080EA8093D80089B5806189BD89B5826096
:1020700089BD09B400FEFDCF61E070E080E090E032
:102080000E9403048091D8008F7C80618093D800E7
:102090008091E000807F8093E0008091E1008E7E5F
:1020A0008093E1008DE08093E200559A209A5D983C
:1020B0002898EEEFFFE7859194918B3F9C4D19F4A2
:1020C00081E08093B00361E08DE00E94C70361E08E
:1020D00082E10E94C70362E087E00E94C70361E0DB
:1020E0008DE00E94640361E082E10E94640380EE5F
:1020F00094E0909309018093080180916A008F7C9D
:10210000806280936A00EE9A8FEF9FEF9093AB020C
:102110008093AA0286E891E00E94950A86E691E003
:102120000E94560A10921503109214031092130382
:102130001092120310921103109210038DE991E096
:1021400090931703809316038091060398EF980FDE
:10215000943048F022EF280F243028F026EE280F84
:10216000233008F060C02DEB30E030931103209352
:1021700010032BE931E030931303209312032CE278
:1021800031E03093150320931403943058F092EF0C
:10219000980F943038F08A51833008F46BC5A0E072
:1021A000B0E06AC5A8E6B0E0E8E6F0E080818160D2
:1021B0008C938091060398EF980F943058F022EF9B
:1021C000280F243038F026EE280F233018F020E0B6
:1021D00030E002C02BE630E030930E0320930D0375
:1021E000943010F49CEF09C08E3071F08F3071F094
:1021F000803171F0813171F09AEE980F81E001C069
:10220000880F9A95EAF707C088E005C082E003C00E
:1022100084E001C081E080930F03809116039091C8
:1022200017030197F1F78091140390911503892BFF
:1022300021F1809132029091330232E08A3F93077C
:10224000E1F0009711F00E944E08809118038E7FF4
:102250008093180310923102109230028AEF92E0BC
:102260009093330280933202E0910D03F0910E03BC
:10227000908180910F03892B808382E691E00E94F8
:10228000A0098FE591E00E94A00983E091E00E94FF
:10229000950A01E023E042E06BE6809192030E9400
:1022A000830700E022E044E06BE1809192030E940A
:1022B000830722E044E06CE1809192030E9483074F
:1022C00020E046E06BE6809192030E94480768EEAA
:1022D00073E080E090E00E94030487EF90E00E94AA
:1022E000560A08EE13E09E012F5F3F4F41E065E77D
:1022F000809192030E943A06882329F089818F7782
:1023000090E0809393036091930370E080E090E00D
:1023100040E10E94150A8FE591E00E94A00908EEB5
:1023200013E09E012F5F3F4F41E065E780919203EC
:102330000E943A06882329F089818F7790E0809364
:10234000930380919303813729F08CE491E00E94FC
:10235000950A9BCF8CE291E00E94950A83E08093DE
:10236000A10320E045E06CE6809192030E944807BB
:1023700020E044E06CE6809192030E94480720E050
:1023800043E06CE6809192030E9448078091A1038C
:1023900081FF15C020E042E06CE6809192030E942C
:1023A000480720E041E06CE6809192030E944807D4
:1023B00020E040E06CE6809192030E9448078BE1A8
:1023C00091E00E94560A6091A103617070E080E084
:1023D00090E04AE00E94150A6091A103627070E0EB
:1023E00080E090E04AE00E94150A8FE591E00E94AB
:1023F000A009F894809171008160809371008091B0
:1024000090008091910083608093910078948091F6
:10241000A2039091A303892B09F024C4809149025F
:1024200081110DC00E94D40460934502709346024E
:10243000809347029093480281E0809349020E9472
:10244000D404C0904502D0904602E0904702F0903C
:102450004802DC01CB018C199D09AE09BF094F97D9
:10246000A105B10508F43AC30E94D4046093450263
:1024700070934602809347029093480260E082E1A5
:102480000E94640308EE13E023E933E04EE06BE3BF
:10249000809192030E943A06C0909303D12CDC2CC9
:1024A000CC2480919403C82AD0927A03C0927903F5
:1024B000E0909503F12CFE2CEE2480919603E82AFF
:1024C000F0927C03E0927B036091970370E0762F9B
:1024D000662780919803682B70937E0360937D0339
:1024E00080919B0390E0982F882720919C03AC015A
:1024F000422B5F8B4E8B5093800340937F038091E0
:102500009D0390E0982F882720919E031C01222A8A
:10251000309282032092810380919F0390E0982F54
:1025200088272091A0038C01022B10938403009331
:1025300083035091A1035D8B50FF70C180912D03E7
:1025400090912E03A0912F03B0913003898B9A8B29
:10255000AB8BBC8B8090290390902A03A0902B0317
:10256000B0902C03409025035090260360902703E1
:1025700070902803072E000C880B990B0E943618C8
:1025800020E03CE249E456E40E948A192DEC3CEC40
:102590004CE951EC0E94951820E031E942E057ECFB
:1025A0000E94F7192DEC3CEC4CE151E40E948B1990
:1025B00029893A894B895C890E948A192FE832EC73
:1025C00045EF5CE30E9495182AEA3AE84AE65EE3A2
:1025D0000E94F7199B01AC0169897A898B899C89D2
:1025E0000E948B19688F798F8A8F9B8FB701FF0CA0
:1025F000880B990B0E94361820E030E14BE856E436
:102600000E948A192DEC3CEC4CE951EC0E94951883
:1026100020E030E240E057EC0E94F7192DEC3CEC52
:102620004CE151E40E948B19A50194010E948A1982
:102630002FE832EC45EF5CE30E9495182AEA3AE86D
:102640004AE65EE30E94F7199B01AC01C501B401A3
:102650000E948B194B015C01B601DD0C880B990BB4
:102660000E94361820E03CE742E956E40E948A19AD
:102670002DEC3CEC4CE951EC0E94951820E038E739
:102680004FEF56EC0E94F7192DEC3CEC4CE151E475
:102690000E948B19A30192010E948A192FE832EC43
:1026A00045EF5CE30E9495182AEA3AE84AE65EE3C1
:1026B0000E94F7199B01AC01C301B2010E948B1962
:1026C0006093190370931A0380931B0390931C0368
:1026D00080921D0390921E03A0921F03B0922003CC
:1026E000288D398D4A8D5B8D2093210330932203F1
:1026F00040932303509324032091450330914603D4
:102700004091470350914803298B3A8B4B8B5C8B4C
:10271000C0904103D0904203E0904303F090440303
:1027200040903D0350903E0360903F037090400303
:10273000A30192010E948A192FE832EC45EF5CE375
:102740000E94951825ED3AE642EB5EE30E94F719E8
:102750009B01AC01C301B2010E948B19609331034C
:10276000709332038093330390933403A70196014F
:10277000C501B4010E948A192FE832EC45EF5CE3F1
:102780000E94951825ED3AE642EB5EE30E94F719A8
:102790009B01AC01C701B6010E948B196093350300
:1027A00070933603809337039093380329893A89CD
:1027B0004B895C89688D798D8A8D9B8D0E948A19E1
:1027C0002FE832EC45EF5CE30E94951825ED3AE6E0
:1027D00042EB5EE30E94F7199B01AC0169897A899B
:1027E0008B899C890E948B196093390370933A03FB
:1027F00080933B0390933C03E9E1F3E0A5E2B3E06F
:102800008CE001900D928A95E1F7E1E3F3E0ADE30E
:10281000B3E08CE001900D928A95E1F73D8931FF9C
:102820008FC0C0905D03D0905E03E0905F03F09096
:1028300060038090590390905A03A0905B03B0907E
:102840005C0340905503509056036090570370907E
:1028500058034E895F89BA01550F880B990B0E9466
:102860003618A30192010E948A192FE832EC45EF35
:102870005CE30E9495182AEA3AE84AE65EE30E9481
:10288000F7199B01AC01C301B2010E948B1960933F
:10289000490370934A0380934B0390934C03B10117
:1028A000330C880B990B0E943618A50194010E94E5
:1028B0008A192FE832EC45EF5CE30E9495182AEA6A
:1028C0003AE84AE65EE30E94F7199B01AC01C501B4
:1028D000B4010E948B1960934D0370934E03809353
:1028E0004F0390935003B801110F880B990B0E946E
:1028F0003618A70196010E948A192FE832EC45EF9D
:102900005CE30E9495182AEA3AE84AE65EE30E94F0
:10291000F7199B01AC01C701B6010E948B196093A6
:102920005103709352038093530390935403E9E44B
:10293000F3E0A5E5B3E08CE001900D928A95E1F714
:102940006091190370911A0380911B0390911C03ED
:1029500042E00E94AE0A80E20E94A30A60911D0339
:1029600070911E0380911F039091200342E00E940A
:10297000AE0A80E20E94A30A6091210370912203B3
:10298000809123039091240342E00E94AE0A80E2EA
:102990000E94A30A6091190370911A0380911B038E
:1029A00090911C0380901D0390901E03A0901F0324
:1029B000B0902003C0902103D0902203E090230325
:1029C000F09024039B01AC010E9495182B013C015F
:1029D000A5019401C501B4010E9495189B01AC01A9
:1029E000C301B2010E948B194B015C01A701960142
:1029F000C701B6010E9495189B01AC01C501B40145
:102A00000E948B190E94A31A42E00E94AE0A80E243
:102A10000E94A30A609131037091320380913303C5
:102A20009091340342E00E94AE0A8FE591E00E944B
:102A3000A00980918B0320E030E040E85FE3882329
:102A4000D9F06091310370913203809133039091FA
:102A500034030E948B199B01AC01609119037091A2
:102A60001A0380911B0390911C030E94981A181658
:102A70008CF510928B032EC060913103709132035C
:102A800080913303909134030E948A199B01AC0119
:102A90006091190370911A0380911B0390911C039C
:102AA0000E942F1887FF16C081E080938B038091CE
:102AB0008E0390918F03A0919003B09191030196A2
:102AC000A11DB11D80938E0390938F03A09390035B
:102AD000B093910361E082E10E94640380913D0222
:102AE00081110DC00E94D4046093390270933A02A0
:102AF00080933B0290933C0281E080933D020E94D0
:102B0000D404C0903902D0903A02E0903B02F09099
:102B10003C02DC01CB018C199D09AE09BF09893E3D
:102B20009340A105B10508F497C01C861B861E863C
:102B30001D86188A1F8660E070E0CE010B960E9409
:102B4000C00B2B853C8581110DC02115310519F075
:102B5000C9010E94E21B1C861B86188A1F861E86DE
:102B60001D8607C0188A1F8661E671E0C9010E94B0
:102B7000521D0E94D4046093390270933A028093EC
:102B80003B0290933C0260E08DE00E946403C090A1
:102B90008E03D0908F03E0909003F0909103C09249
:102BA0003402D0923502E0923602F092370265E6A6
:102BB00071E0CE010B960E94E70B6FE2CE010B96FF
:102BC0000E941C0C4AE0BE016F5F7F4FC6010E944D
:102BD000FA17BC01CE010B960E94E70B6FE2CE0103
:102BE0000B960E941C0C60E3CE010B960E941C0CFD
:102BF0006AE0CE010B960E941C0C4F8558896B85AC
:102C00007C858AEF92E00E94AE0C61E08DE00E942C
:102C10006403E12CF12C96E0E916F104C9F08F85EC
:102C20009889E816F90620F4EB85FC85309729F49D
:102C300010923802E8E3F2E002C0EE0DFF1D608161
:102C40008AEF92E00E94DE018FEFE81AF80AE3CFE4
:102C50008B859C850E94E21BA1E0B0E0B093A303AA
:102C6000A093A20320E030E0232B09F4D0CB0E94F4
:102C70000000CDCBA8E6B0E0833008F495CAE0E0D0
:102C8000F0E094CACF93DF931092A1021092A002B9
:102C900088EE93E0A0E0B0E08093A2029093A302BC
:102CA000A093A402B093A50220E231E030939F02EA
:102CB00020939E022FEF3FEF3093AB022093AA02A6
:102CC0001092F1021092F0028093F2029093F302BC
:102CD000A093F402B093F50220E331E03093EF02C9
:102CE0002093EE021092190310921A0310921B0304
:102CF00010921C0310921D0310921E0310921F03CA
:102D000010922003109221031092220310922303A9
:102D10001092240310922503109226031092270389
:102D2000109228031092290310922A0310922B0369
:102D300010922C0310922D0310922E0310922F0349
:102D40001092300310923103109232031092330329
:102D50001092340310923503109236031092370309
:102D6000109238031092390310923A0310923B03E9
:102D700010923C0310923D0310923E0310923F03C9
:102D800010924003109241031092420310924303A9
:102D90001092440310924503109246031092470389
:102DA000109248031092490310924A0310924B0369
:102DB00010924C0310924D0310924E0310924F0349
:102DC0001092500310925103109252031092530329
:102DD0001092540310925503109256031092570309
:102DE000109258031092590310925A0310925B03E9
:102DF00010925C0310925D0310925E0310925F03C9
:102E000010926003109261031092620310926303A8
:102E10001092640310926503109266031092670388
:102E2000109268031092690310926A0310926B0368
:102E300010926C0310926D0310926E0310926F0348
:102E40001092700310927103109272031092730328
:102E50001092740310927503109276031092770308
:102E60001092780322E1E9E7F3E0EF0119922A9545
:102E7000E9F761E060938B0360938C0360938D03AB
:102E800010928E0310928F03109290031092910370
:102E900028E6209392031092A10321E030E03093C2
:102EA000A3032093A2031092FD021092FC028093D0
:102EB000FE029093FF02A0930003B093010380E40D
:102EC00091E09093FB028093FA021092110310920A
:102ED0001003109213031092120310921503109214
:102EE00014031092170310921603809118038E7F1B
:102EF0008D7F8093180386958170682786E10E94F4
:102F0000640361E086E10E94C703E5EEF1E0E4912D
:102F1000E0930A03E6ECF1E0E491F0E0EE0FFF1F2E
:102F2000EC56FE4F8591949190930C0380930B0384
:102F300060E087E10E94C7038091180381FD04C00F
:102F400061E087E10E94640387E180930603E6EE77
:102F5000F1E0E491E0930703E7ECF1E0E491F0E0C5
:102F6000EE0FFF1FEE55FE4F85919491909309034C
:102F700080930803DF91CF910895CF92DF92EF9273
:102F8000FF920F931F93CF93DF931F92CDB7DEB7BE
:102F9000182F062FE42E862F880F8E5F99830E94AC
:102FA0004C0C83E00E944C0CF12EC12E9981D92E3D
:102FB0008C2D8F19801798F4F601E7FE02C08491DA
:102FC00001C080810E944C0C182F80E00E944C0CA4
:102FD0008123FFEFCF1ADF0A8111EACF01C081E020
:102FE0000F90DF91CF911F910F91FF90EF90DF90A5
:102FF000CF900895BB274A3031F4992322F4BDE2E3
:10300000909581959F4F0C940618BB27FB0155277F
:10301000AA27880F991FAA1FA41710F0A41B839535
:103020005051B9F7A05DAA3308F0A95DA1930097AC
:1030300079F7B111B1931192CB010C941F18DC01F7
:10304000FC01672F71917723E1F7329704C07C91DF
:103050006D9370836291AE17BF07C8F308950E9405
:10306000711808F481E00895E89409C097FB3EF4D4
:1030700090958095709561957F4F8F4F9F4F9923C5
:10308000A9F0F92F96E9BB279395F6958795779543
:103090006795B795F111F8CFFAF4BB0F11F460FF03
:1030A0001BC06F5F7F4F8F4F9F4F16C0882311F05B
:1030B00096E911C0772321F09EE8872F762F05C06F
:1030C000662371F096E8862F70E060E02AF09A950A
:1030D000660F771F881FDAF7880F9695879597F9FF
:1030E0000895990F0008550FAA0BE0E8FEEF161699
:1030F0001706E807F907C0F012161306E407F507EC
:1031000098F0621B730B840B950B39F40A2661F05F
:10311000232B242B252B21F408950A2609F4A14002
:10312000A6958FEF811D811D08950E94A8180C940B
:1031300019190E940B1938F00E94121920F09523DA
:1031400011F00C9402190C94081911240C944D19C7
:103150000E942A1970F3959FC1F3950F50E0551FF7
:10316000629FF001729FBB27F00DB11D639FAA27DC
:10317000F00DB11DAA1F649F6627B00DA11D661F2B
:10318000829F2227B00DA11D621F739FB00DA11D4C
:10319000621F839FA00D611D221F749F3327A00D06
:1031A000611D231F849F600D211D822F762F6A2FA2
:1031B00011249F5750409AF0F1F088234AF0EE0F07
:1031C000FF1FBB1F661F771F881F91505040A9F734
:1031D0009E3F510580F00C9402190C944D195F3FED
:1031E000E4F3983ED4F3869577956795B795F79570
:1031F000E7959F5FC1F7FE2B880F911D96958795E8
:1032000097F9089597F99F6780E870E060E0089566
:103210009FEF80EC089500240A94161617061806EE
:103220000906089500240A941216130614060506CA
:103230000895092E0394000C11F4882352F0BB0F5B
:1032400040F4BF2B11F460FF04C06F5F7F4F8F4FBE
:103250009F4F089557FD9058440F551F59F05F3FF9
:1032600071F04795880F97FB991F61F09F3F79F0A8
:1032700087950895121613061406551FF2CF46952A
:10328000F1DF08C0161617061806991FF1CF8695AC
:103290007105610508940895E894BB276627772790
:1032A000CB0197F908952F923F924F925F926F92C0
:1032B0007F928F929F92AF92BF92CF92DF92EF92C6
:1032C000FF920F931F93CF93DF93CDB7DEB7CA1B47
:1032D000DB0B0FB6F894DEBF0FBECDBF09942A8872
:1032E000398848885F846E847D848C849B84AA841A
:1032F000B984C884DF80EE80FD800C811B81AA81A7
:10330000B981CE0FD11D0FB6F894DEBF0FBECDBF71
:10331000ED0108955058BB27AA270E94A2190C94CA
:1033200019190E940B1938F00E94121920F039F473
:103330009F3F19F426F40C9408190EF4E095E7FB6E
:103340000C940219E92F0E942A1958F3BA17620740
:1033500073078407950720F079F4A6F50C944C19AF
:103360000EF4E0950B2EBA2FA02D0B01B9019001A0
:103370000C01CA01A0011124FF27591B99F0593FE4
:1033800050F4503E68F11A16F040A22F232F342F2C
:103390004427585FF3CF469537952795A795F0407A
:1033A0005395C9F77EF41F16BA0B620B730B840B8F
:1033B000BAF09150A1F0FF0FBB1F661F771F881F47
:1033C000C2F70EC0BA0F621F731F841F48F487959F
:1033D00077956795B795F7959E3F08F0B0CF939591
:1033E000880F08F09927EE0F9795879508950E940A
:1033F0000B1A0C9419190E94121958F00E940B19FB
:1034000040F029F45F3F29F00C94021951110C94FB
:103410004D190C9408190E942A1968F39923B1F3E5
:10342000552391F3951B550BBB27AA2762177307EA
:10343000840738F09F5F5F4F220F331F441FAA1F7E
:10344000A9F335D00E2E3AF0E0E832D0915050403A
:10345000E695001CCAF72BD0FE2F29D0660F771FE8
:10346000881FBB1F261737074807AB07B0E809F0CE
:10347000BB0B802DBF01FF2793585F4F3AF09E3F53
:10348000510578F00C9402190C944D195F3FE4F348
:10349000983ED4F3869577956795B795F7959F5F96
:1034A000C9F7880F911D9695879597F90895E1E0E2
:1034B000660F771F881FBB1F621773078407BA0741
:1034C00020F0621B730B840BBA0BEE1F88F7E0959C
:1034D00008950E94321988F09F5798F0B92F9927C4
:1034E000B751B0F0E1F0660F771F881F991F1AF0EF
:1034F000BA95C9F714C0B13091F00E944C19B1E0EF
:1035000008950C944C19672F782F8827B85F39F0ED
:10351000B93FCCF3869577956795B395D9F73EF487
:1035200090958095709561957F4F8F4F9F4F08952F
:103530000E94711808F48FEF089519F416F40C9492
:1035400008190C94E81A0E943219B8F39923C9F3A8
:10355000B6F39F57550B87FF0E94F61A0024A0E68A
:1035600040EA900180585695979528F4805C660F44
:10357000771F881F20F026173707480730F4621B93
:10358000730B840B202931294A2BA6951794079495
:10359000202531254A2758F7660F771F881F20F00E
:1035A00026173707480730F4620B730B840B200D86
:1035B000311D411DA09581F7B901842F9158880FC5
:1035C0009695879508950E947118880B990B089518
:1035D0009F3F31F0915020F4879577956795B79587
:1035E000880F911D9695879597F9089591505040B1
:1035F000660F771F881FD2F7089597FB072E16F4E2
:10360000009407D077FD09D00E94391B07FC05D034
:103610003EF4909581959F4F0895709561957F4FE9
:103620000895A1E21A2EAA1BBB1BFD010DC0AA1F03
:10363000BB1FEE1FFF1FA217B307E407F50720F01B
:10364000A21BB30BE40BF50B661F771F881F991F96
:103650001A9469F760957095809590959B01AC01DF
:10366000BD01CF010895EE0FFF1F0590F491E02DED
:103670000994AA1BBB1B51E107C0AA1FBB1FA617B9
:10368000B70710F0A61BB70B881F991F5A95A9F70B
:1036900080959095BC01CD010895CF93DF93823042
:1036A000910510F482E090E0E091BA03F091BB0341
:1036B00020E030E0C0E0D0E0309711F1408151814E
:1036C00048175907C0F04817590761F48281938160
:1036D000209719F09B838A832BC09093BB03809320
:1036E000BA0326C02115310519F04217530718F403
:1036F0009A01BE01DF01EF010280F381E02DDCCFF2
:103700002115310509F1281B390B2430310590F4BE
:1037100012968D919C9113976115710521F0FB0113
:103720009383828304C09093BB038093BA03FD010B
:10373000329644C0FD01E20FF31F81939193225012
:1037400031092D933C933AC02091B8033091B903CD
:10375000232B41F420911801309119013093B903C2
:103760002093B803209116013091170121153105DE
:1037700041F42DB73EB740911A0150911B01241B13
:10378000350BE091B803F091B903E217F307A0F409
:103790002E1B3F0B2817390778F0AC014E5F5F4FA7
:1037A0002417350748F04E0F5F1F5093B90340931D
:1037B000B8038193919302C0E0E0F0E0CF01DF9184
:1037C000CF9108950F931F93CF93DF93009709F440
:1037D0008CC0FC013297138212820091BA031091BF
:1037E000BB030115110581F420813181820F931FE4
:1037F0002091B8033091B9032817390779F5F09370
:10380000B903E093B80371C0D80140E050E0AE17AF
:10381000BF0750F412962D913C911397AD012115DD
:10382000310509F1D901F3CF9D01DA0133832283F8
:1038300060817181860F971F8217930769F4EC01ED
:1038400028813981260F371F2E5F3F4F3183208318
:103850008A819B8193838283452B29F4F093BB0358
:10386000E093BA0342C01396FC93EE931297ED01D6
:10387000499159919E01240F351FE217F30771F406
:1038800080819181840F951F029611969C938E934F
:103890008281938113969C938E931297E0E0F0E0DF
:1038A000D80112968D919C911397009719F0F80109
:1038B0008C01F6CF8D919C9198012E5F3F4F820F26
:1038C000931F2091B8033091B9032817390769F481
:1038D000309729F41092BB031092BA0302C01382EE
:1038E00012821093B9030093B803DF91CF911F9117
:1038F0000F910895A0E0B0E0E0E8FCE10C945719C6
:10390000EC01009721F4CB010E944D1BB8C0FC01D3
:10391000E60FF71F9C0122503109E217F30708F464
:10392000ACC0D9010D911C91119706171707B0F083
:103930000530110508F49FC0C80104978617970742
:1039400008F499C002501109061B170B019311933B
:103950006D937C93CF010E94E21B8DC05B01A01A86
:10396000B10A4C01800E911EA091BA03B091BB0325
:1039700040E050E0E12CF12C109709F44AC0A81562
:10398000B905D1F56D907C901197630182E0C80E66
:10399000D11CCA14DB0480F1A3014A195B096A0136
:1039A00082E0C80ED11C1296BC9012971396AC916F
:1039B000B5E0CB16D10440F0B282A383518340839B
:1039C000D9016D937C930AC00E5F1F4FC301800F16
:1039D000911FF90191838083EB2DFA2FE114F104FB
:1039E00031F0D7011396FC93EE93129744C0F093F5
:1039F000BB03E093BA033FC08D919C911197481788
:103A0000590708F4AC017D0112960D90BC91A02DD0
:103A1000B3CF8091B8039091B90388159905E1F46B
:103A200046175707C8F48091160190911701009727
:103A300041F48DB79EB740911A0150911B01841B30
:103A4000950BE817F907C8F4F093B903E093B803AE
:103A5000F901718360830FC0CB010E944D1B7C0173
:103A6000009759F0A801BE010E94491DCE010E9495
:103A7000E21BC70104C0CE0102C080E090E0CDB7D8
:103A8000DEB7EEE00C94731981E090E0F8940C94AA
:103A9000591DFB01DC0102C001900D9241505040C4
:103AA000D8F70895FB01DC0101900D920020E1F7A9
:103AB000089511E0C1E3D1E004C0FE010E94331B70
:0C3AC0002196C233D107C9F7F894FFCF5C
:103ACC00BC01BC01BC01BC01BC01FFFFFFFF00E15C
:103ADC000000000000000000BC038000000000009B
:103AEC005C013D047D0144032003720100000000D1
:103AFC00F102C102BD01AD029E029D020000000058
:103B0C00DE01AE0C32024A02C501DD0100C180812A
:103B1C0000000062746E2074696D65206F6E000D7C
:103B2C000A004F4B0031313131006E616E00696E0D
:063B3C0066006F766600D2
:00000001FF
