:100000000C94E4000C9478070C9451070C942A0784
:100010000C9403070C940C010C940C010C94DC065A
:100020000C940C010C949F070C94DE090C94500A5C
:100030000C940C010C940C010C940C010C940C010C
:100040000C940C010C940C010C940C010C940C01FC
:100050000C940C010C940C010C940C010C94920661
:100060000C940C010C940C010C940C010C940C01DC
:100070000C940C010C940C010C940C010C940C01CC
:100080000C940C010C940C010C940C010C940C01BC
:100090000C9419080C940C010C940C010C940C0198
:1000A0000C940C010C940C010C940C011E062106FE
:1000B00010061406180642064206420625062906C0
:1000C0002D063306370642063D06000000002400D8
:1000D00027002A002D0030000000000200090F0058
:1000E00000030401000C00000000000000000000FC
:1000F00000000000000000080B00020202010009DD
:100100000400000102020000052400100105240182
:1001100001010424020605240600010705810310DD
:10012000004009040100020A000000070502024025
:1001300000000705830240000004030904120100C7
:1001400002EF020140412337800001010203014117
:10015000726475696E6F204C4C430041726475691E
:100160006E6F204D6963726F00000000002500284B
:10017000002B002E00310000000000230026002983
:10018000002C002F000404040404030405020202EE
:100190000204030202020206060606060604040220
:1001A0000202040404080201104080401020408034
:1001B00040800802040180402010020110801020BD
:1001C00040402000600E190E11241FBECFEFDAE070
:1001D000DEBFCDBF11E0A0E0B1E0EAE8F3E202C08B
:1001E00005900D92AE38B107D9F722E0AEE8B1E044
:1001F00001C01D92A73FB207E1F710E0C3EED0E0C7
:1002000004C02197FE010E949911C23ED107C9F78F
:100210000E94800C0C94B8110C940000CF92DF92D5
:10022000EF92FF920F931F93CF93DF936C017A01AC
:100230008B01C0E0D0E0CE15DF0589F0D8016D91CB
:100240008D01D601ED91FC910190F081E02DC60168
:100250000995892B11F47E0102C02196ECCFC701CC
:10026000DF91CF911F910F91FF90EF90DF90CF9092
:100270000895CF93DF931F92CDB7DEB76983DC017A
:10028000ED91FC910280F381E02D41E050E0BE0150
:100290006F5F7F4F09950F90DF91CF91089583E0B5
:1002A0008093E9008091F200882319F08AE380931B
:1002B000E8000895FC018485958597FD0BC09FB7E4
:1002C000F89482E08093E9008091F2009FBF90E073
:1002D000019608959FB7F89482E08093E900809199
:1002E000F2009FBF90E008953FB7F89480914A02D2
:1002F00090914B02A0914C02B0914D0226B5A89B63
:1003000005C02F3F19F00196A11DB11D3FBFBA2FA7
:10031000A92F982F8827820F911DA11DB11DBC0107
:10032000CD0142E0660F771F881F991F4A95D1F7CC
:1003300008958F929F92AF92BF92CF92DF92EF92E9
:10034000FF926B017C010E9474014B015C01C1149E
:10035000D104E104F104F1F00E947401DC01CB014D
:1003600088199909AA09BB09883E9340A105B105DE
:1003700070F321E0C21AD108E108F10888EE880E76
:1003800083E0981EA11CB11CC114D104E104F10446
:1003900019F7DDCFFF90EF90DF90CF90BF90AF9037
:1003A0009F908F9008957F928F929F92AF92BF926D
:1003B000CF92DF92EF92FF920F931F93CF93DF9331
:1003C0006C015B017A0180911501882309F46BC0EF
:1003D00080915B02882309F466C08091580280FFF7
:1003E00005C08091E00082608093E000E70110E0AA
:1003F0000AEF83E0982E90E4792E2AE3822E20974C
:1004000009F448C08FB7F8949092E9009091E80001
:1004100095FF06C09091F200272D291B922F01C055
:1004200090E08FBF91110AC0015009F43CC061E017
:1004300070E080E090E00E949901E1CF292F30E048
:10044000C217D3070CF49C2F8FB7F8949092E90051
:100450002091E80025FF1CC0292F30E0C21BD30BE0
:10046000F501915020F041914093F100FACFA20E96
:10047000B31E112319F08092E80009C09091E800A2
:1004800095FD06C08092E80011E0209709F010E089
:100490008FBFB5CF1111B6CF5D9A84E68093590214
:1004A0001E141F0444F081E090E0F60193838283E0
:1004B00080E090E001C0C701DF91CF911F910F91C3
:1004C000FF90EF90DF90CF90BF90AF909F908F9074
:1004D0007F9008950895209150023091510228177D
:1004E000390771F490914E0280914F02981741F0B4
:1004F000E0914E02F0E0EB5FFD4F808190E00895C7
:100500008FEF9FEF089508951F93CF93DF93DC0142
:100510005C962D913C915D972115310539F481E070
:1005200090E013969C938E9312973DC05196ED9157
:10053000FC91529750969C915097892F80951FB7A8
:100540005E964C915E9741FB772770F941FD60956F
:10055000F8944081772311F0492B01C04823408350
:10056000E9012197F1F748E0508160FF02C0592B63
:1005700001C058235083E9012197F1F76695415056
:1005800099F7772321F090818923808303C08081AC
:10059000982B90831FBF5C968D919C915D970197DE
:1005A000F1F721E030E0C901DF91CF911F9108956B
:1005B00020915002309151022817390771F480912F
:1005C0004F0220914E0290E0805C9F4F821B910968
:1005D00060E470E00E946311089580E090E0089567
:1005E000209150023091510228173907B9F49091A7
:1005F0004E0280914F02981789F0E0914E02F0E090
:10060000EB5FFD4F808120914E0230E02F5F3F4F26
:100610002F73332720934E0290E008958FEF9FEFC2
:100620000895E0915002F0915102E817F90769F43A
:10063000A389B4899C918589809589238C93109294
:1006400051021092500281E0089580E0089585EDF6
:100650008093BC008091BC0084FDFCCF1092DF0130
:1006600008954091B901262F30E0240F311D213229
:100670003105DCF42091DF012430C9F4FC0180E075
:1006800090E0861758F43091B9012191DC01A95608
:10069000BE4FA30FB11D2C930196F3CF8091B901EA
:1006A000680F6093B90180E0089581E0089582E0C9
:1006B000089508958FEF9FEF08958FEF9FEF0895AE
:1006C0008091960190E09195819591090895CF933D
:1006D000DF9300D0CDB7DEB7CB01642F49835A83B7
:1006E0000E9431034981842F5A81952F0F900F90DA
:1006F000DF91CF910895CF93DF931F92CDB7DEB7EF
:10070000698361E0CE0101960E94310381E090E0AF
:100710000F90DF91CF9108956115710579F0FB017C
:1007200001900020E9F73197AF01461B570BDC0120
:10073000ED91FC910280F381E02D099480E090E03E
:1007400008954F925F926F927F92EF92FF920F9374
:100750001F93CF93DF93CDB7DEB7A1970FB6F89471
:10076000DEBF0FBECDBF7C01FA01CB0119A2223042
:1007700008F42AE08E010F5D1F4F422E512C612C90
:10078000712CBF01A30192010E947711F901CA01E6
:10079000015011096A3014F4605D01C0695CD80130
:1007A0006C93232B242B252B61F7B801C7010E94E2
:1007B0008C03A1960FB6F894DEBF0FBECDBFDF91BC
:1007C000CF911F910F91FF90EF907F906F905F906E
:1007D0004F9008954F925F926F927F928F929F9267
:1007E000AF92BF92CF92DF92EF92FF92CF93DF93BF
:1007F000EC016A017B01B22E9A01AB01C701B6017F
:100800000E945E11882319F06DE471E027C0260173
:100810003701E89477F82FEF3FEF4FE75FE7C30129
:10082000B2010E945E1181110DC02FEF3FEF4FE723
:100830005FE7C301B2010E94940F18161CF461E532
:1008400071E00CC02FEF3FEF4FE75FE4C701B60147
:100850000E94EC1018169CF465E571E0CE01DF9162
:10086000CF91FF90EF90DF90CF90BF90AF909F908F
:100870008F907F906F905F904F900C948C032FEF30
:100880003FEF4FE75FECC701B6010E94940F87FD71
:10089000E3CF20E030E0A901C701B6010E94940F28
:1008A00087FF0EC0E881F9810190F081E02D6DE2B3
:1008B000CE0109954C01F7FAF094F7F8F09402C0D4
:1008C000812C912CA12C60E070E080E09FE3AB14C0
:1008D00041F020E030E040E251E40E94990FA394FF
:1008E000F6CF9B01AC01C701B6010E94280F2B0176
:1008F0003C010E940B106B017C010E943A109B018D
:10090000AC01C301B2010E94270F2B013C012AE078
:10091000B701A601CE010E94A1037C01E80CF91CDD
:10092000BB2051F0E881F9810190F081E02D6EE269
:10093000CE010995E80EF91EDB2CDD2029F120E01F
:1009400030E040E251E4C301B2010E94F1102B01FA
:100950003C010E940B104B01A12CB12C2AE0B501E7
:10096000A401CE010E94A103E80EF91EC501B40145
:100970000E943A109B01AC01C301B2010E94270FF3
:100980002B013C01DA94D9CFC701DF91CF91FF90C1
:10099000EF90DF90CF90BF90AF909F908F907F901F
:1009A0006F905F904F900895CF92DF92EF92FF92F9
:1009B0000F931F932FB7F8948091460290914702AE
:1009C000A0914802B09149022FBF80939201909369
:1009D0009301A0939401B093950140918E015091A1
:1009E0008F0160919001709191018C019D01041B18
:1009F000150B260B370B053611052105310508F4BB
:100A00006CC080938E0190938F01A0939001B0935E
:100A1000910120E030E040E85FE36091AC0270912A
:100A2000AD028091AE029091AF020E94280F6B013F
:100A30007C016093AC027093AD028093AE02909300
:100A4000AF0220E030E040E85FE36091B0027091D7
:100A5000B1028091B2029091B3020E94280F60937C
:100A6000B0027093B1028093B2029093B30220E07F
:100A700030E040E85FE36091B4027091B50280918C
:100A8000B6029091B7020E94280F6093B40270934F
:100A9000B5028093B6029093B70222E0B701A60197
:100AA0008CE592E00E94EA0369E571E08CE592E052
:100AB0000E948C034091AC025091AD026091AE0255
:100AC0007091AF0222E088EB92E01F910F91FF90AE
:100AD000EF90DF90CF900C94EA031F910F91FF905D
:100AE000EF90DF90CF9008950F931F93CF93DF93F4
:100AF0001F92CDB7DEB78C01FC018485958597FFE9
:100B00000EC0CE0101960E94B409019719F4298103
:100B100030E002C02FEF3FEFF80135872487F8015E
:100B2000848595850F90DF91CF911F910F91089546
:100B3000CF93DF931F92CDB7DEB7FC0184859585F7
:100B400097FD05C02FEF3FEF358724870BC0CE01FF
:100B500001960E94B409019719F4898190E002C0BE
:100B60008FEF9FEF0F90DF91CF9108950E94B31107
:100B700040915402509155022091520230915302FB
:100B800042175307B4F49091E8009570E1F3909107
:100B9000E80092FD19C08093F10080915402909179
:100BA000550201968F739927892B19F48EEF809344
:100BB000E80080915402909155020196909355025D
:100BC0008093540281E0089580E00895615030F0F0
:100BD0002091F100FC0120830196F8CF289A84E649
:100BE00080935A020895362F90E0FC01E852FF4F9F
:100BF0004491FC01EC55FE4F2491FC01EB57FE4F54
:100C00008491882309F451C04423E1F150E0FA01B2
:100C10003197EF30F105B0F5EA5AFF4F0C94991176
:100C2000909180009F7707C0909180009F7D03C0C6
:100C300090918000977F9093800024C094B59F7717
:100C400002C094B59F7D94BD1DC0909190009F7788
:100C500007C0909190009F7D03C090919000977F76
:100C6000909390000FC09091C0009F7703C0909127
:100C7000C0009F7D9093C00005C09091C200977FF7
:100C80009093C200E82FF0E0EE0FFF1FE759FE4FF0
:100C9000A591B4918FB7F894EC91311103C02095D0
:100CA0002E2301C02E2B2C938FBF0895CF93DF935B
:100CB00090E0FC01EC55FE4F2491FC01EB57FE4FF8
:100CC0008491882361F190E0880F991FFC01E6531D
:100CD000FF4FC591D491FC01E759FE4FA591B49106
:100CE000611109C09FB7F894888120958223888379
:100CF000EC912E230BC0623061F49FB7F8943881D9
:100D0000822F809583238883EC912E2B2C939FBF79
:100D100006C08FB7F894E8812E2B28838FBFDF9110
:100D2000CF9108951F920F920FB60F9211242F9317
:100D30003F938F939F93AF93BF938091460290917F
:100D40004702A0914802B09149023091450223E048
:100D5000230F2D3720F40196A11DB11D05C026E8F3
:100D6000230F0296A11DB11D2093450280934602D8
:100D700090934702A0934802B093490280914A029F
:100D800090914B02A0914C02B0914D020196A11D91
:100D9000B11D80934A0290934B02A0934C02B093F2
:100DA0004D02BF91AF919F918F913F912F910F90E5
:100DB0000FBE0F901F9018951F920F920FB60F92B3
:100DC00011242F933F934F935F936F937F938F9350
:100DD0009F93AF93BF93EF93FF93E0910801F0913E
:100DE00009010995FF91EF91BF91AF919F918F916B
:100DF0007F916F915F914F913F912F910F900FBE17
:100E00000F901F9018951F920F920FB60F921124FA
:100E10002F933F934F935F936F937F938F939F9302
:100E2000AF93BF93EF93FF93E0910601F091070119
:100E30000995FF91EF91BF91AF919F918F917F9114
:100E40006F915F914F913F912F910F900FBE0F9037
:100E50001F9018951F920F920FB60F9211242F9387
:100E60003F934F935F936F937F938F939F93AF9332
:100E7000BF93EF93FF93E0910401F0910501099571
:100E8000FF91EF91BF91AF919F918F917F916F9162
:100E90005F914F913F912F910F900FBE0F901F9038
:100EA00018951F920F920FB60F9211242F933F9314
:100EB0004F935F936F937F938F939F93AF93BF9362
:100EC000EF93FF93E0910201F09103010995FF91E7
:100ED000EF91BF91AF919F918F917F916F915F91B2
:100EE0004F913F912F910F900FBE0F901F9018952B
:100EF0001F920F920FB60F9211242F933F934F938F
:100F00005F936F937F938F939F93AF93BF93EF9371
:100F1000FF93E0910001F09101010995FF91EF919C
:100F2000BF91AF919F918F917F916F915F914F9101
:100F30003F912F910F900FBE0F901F9018951F9209
:100F40000F920FB60F9211242F933F934F935F93FD
:100F50006F937F938F939F93AF93BF93EF93FF9381
:100F6000E0915002F0915102309709F451C0968DF2
:100F7000A685B785858591FF04C09C91892329F4B6
:100F800047C09C91892309F043C0A389B4899C91EF
:100F90008589809589238C93868997890197F1F7B4
:100FA000608D718DA685B785558538E020E0CB0131
:100FB0000197F1F7822F90E095958795282F4C9116
:100FC000452309F02068315091F7868D81FD2095E9
:100FD00080914F0290E001968F73992730914E02D5
:100FE000381749F0A0914F02B0E0AB5FBD4F2C9392
:100FF00080934F0203C0868D8160868F828D938D92
:101000000197F1F7A389B4899C918589892B8C93E9
:10101000FF91EF91BF91AF919F918F917F916F91D0
:101020005F914F913F912F910F900FBE0F901F90A6
:1010300018951F920F920FB60F9211242F933F9382
:101040004F935F936F937F938F939F93AF93BF93D0
:10105000EF93FF938091B900887F803609F49CC09C
:1010600068F5883209F45BC090F4803109F454C00B
:1010700038F4882309F4F6C0883009F44DC0F6C06E
:10108000883109F44CC0803209F45DC0EFC080346F
:1010900009F468C048F4803309F455C0883309F076
:1010A000E5C08093DE01D8C0803509F44FC0883593
:1010B00009F45DC0883409F0D9C0D6C0883909F474
:1010C000C7C0A8F4883709F467C038F4883609F433
:1010D00063C0803709F460C0C9C0883809F4B8C05B
:1010E000803909F45FC0803809F0C0C05BC0803B24
:1010F00009F486C038F4803A09F466C0883A09F4E5
:101100007FC0B4C0803C09F4A7C0883C09F4A4C0E7
:10111000883B09F48AC0AAC08091040210C0909153
:10112000030280910202981770F5E091030281E0BA
:101130008E0F80930302F0E0EE51FE4F808180938A
:10114000BB0085EC86C08093DE018EC0E091030277
:1011500081E08E0F809303028091BB00F0E0EE519E
:10116000FE4F808390910302809102026EC0E09155
:10117000030281E08E0F809303028091BB00F0E0B8
:10118000EE51FE4F80838091E10181116DC081E0BD
:101190008093E00184EA61C083E08093DF011092D4
:1011A000DD01CFCF8091DD01803208F051C0E091A8
:1011B000DD0181E08E0F8093DD018091BB00F0E0C6
:1011C000E354FE4F8083BDCF85EC8093BC0010922A
:1011D000DF018091DD01803230F4E091DD01F0E04B
:1011E000E354FE4F10826091DD0170E0E091BB019D
:1011F000F091BC018DEB91E009951092DD0136C0B4
:1012000084E08093DF011092BA011092B901E0915D
:10121000B701F091B80109958091B901811105C01C
:1012200081E08093B90110929701E091BA0181E0C9
:101230008E0F8093BA01F0E0E956FE4F80818093D3
:10124000BB009091BA018091B901981708F479CF49
:1012500085E88093BC000AC085EC8093BC001092A6
:10126000DF0104C01092DE010E942703FF91EF917D
:10127000BF91AF919F918F917F916F915F914F91AE
:101280003F912F910F900FBE0F901F901895809156
:10129000DB0281110DC082E08093D70284E080934D
:1012A000D8021092DA021092D90281E08093DB0218
:1012B00087ED92E00895DF92EF92FF920F931F93D4
:1012C000CF93DF93D82E8A017B01E40EF51EEB014C
:1012D000CE15DF0571F0D7FE03C0FE01849101C079
:1012E00088810E94B80521968111F2CF8FEF9FEF80
:1012F00001C0C801DF91CF911F910F91FF90EF9036
:10130000DF9008950F931F93CF93DF931F92CDB774
:10131000DEB782E0898342E450E067EF70E080E866
:101320000E945B090E944709DC0112960D911C91F5
:1013300013970115110569F0D801ED91FC91028018
:10134000F381E02DBE016F5F7F4FC801099597FFC4
:1013500007C089810F90DF91CF911F910F91089560
:10136000F80100851185E5CFFC0180915B028111B8
:1013700003C08FEF9FEF08959FB7F89482E08093AA
:10138000E9002091F20030E01216130614F421E077
:1013900030E02115310559F0289A84E680935A02ED
:1013A0008091F10080838091F200882319F09FBF23
:1013B000C90108958BE68093E800F9CF1F920F9240
:1013C0000FB60F9211248F939F938091E10090911B
:1013D000E100937F9093E10083FF0FC01092E9003A
:1013E00091E09093EB001092EC0092E39093ED006B
:1013F00010925B0298E09093F00082FF20C093E08F
:101400009093E9009091F200992319F09AE3909358
:10141000E80090915902992339F090915902915026
:1014200090935902992389F190915A02992339F0A6
:1014300090915A02915090935A02992341F184FF5E
:1014400010C08091E2008E7E81608093E2008091E6
:10145000E1008F7E8093E100809158028E7E806152
:1014600011C080FF16C08091E2008E7E8061809363
:10147000E2008091E1008E7E8093E100809158022D
:101480008E7E81608093580204C05D98CDCF2898ED
:10149000D6CF9F918F910F900FBE0F901F901895F0
:1014A0001F920F920FB60F921124CF92DF92EF92FC
:1014B000FF920F931F932F933F934F935F936F93DD
:1014C0007F938F939F93AF93BF93EF93FF93CF93AC
:1014D000DF93CDB7DEB76C97DEBFCDBF1092E900CA
:1014E0008091E80083FFEDC168E0CE0145960E943F
:1014F000E60582EF8093E8008D8987FF05C0909113
:10150000E80090FFFCCF03C09EEF9093E800982F77
:10151000907609F0C6C09E892F89188D91110CC054
:10152000803829F4809157028093F10002C0109214
:10153000F1001092F10048C1422F50E0512B913040
:1015400051F4811141C14130510509F03DC18091F3
:1015500057028D7F0BC0933061F4811135C141304A
:10156000510509F031C18091570282608093570282
:101570002BC1953041F48091E80080FFFCCF2068BA
:101580002093E30021C1963009F05FC0EB8CFC8C06
:101590001092E9001092550210925402123091F507
:1015A00010925302109252020E94820999E0BE01E9
:1015B0006F5F7F4FDB01E92F1D92EA95E9F7998371
:1015C0001A8391E09E8390EA98879AEF99872091F9
:1015D000540230915502275F3F4F3C832B838D830C
:1015E0001092E9001092550210925402F0925302A8
:1015F000E092520249E050E080E00E945B090E94C4
:101600008209E2C0F0925302E09252020E9447091E
:10161000DC011296ED90FC901397E114F10409F4AB
:10162000C0C0D701ED91FC910480F581E02DBE0191
:101630006B5E7F4FC7010995009719F00CF0C4C08D
:10164000C7C0F701E084F184E8CF973009F4C0C047
:10165000983021F481E08093F100B6C0993009F010
:10166000B3C0837009F0B4C0E7E1F1E081E021E0AC
:1016700036E39081992361F08093E9002093EB0099
:1016800091919093EC003093ED008F5F873089F754
:101690008EE78093EA001092EA008F8980935B02C4
:1016A00093C08B8D9C8D1092E90010925502109280
:1016B00054029093530280935202898D811156C037
:1016C0008E899D89913A59F4813209F081C047E0B1
:1016D00050E06EE071E080E00E945B0975C09132DD
:1016E00009F076C0833289F4888D90E0982F88279E
:1016F0002F89822BA0E0B0E080930A0190930B0128
:10170000A0930C01B0930D015FC0803269F4809109
:10171000E80082FFFCCF67E08EE091E00E94E605E2
:101720008BEF8093E80006C0823209F04DC08F89AC
:101730008093150180915602882319F0EEEFFAE0AC
:1017400002C0E0E0F8E080910E0190910F01A091BD
:101750001001B0911101803B9440A105B10509F041
:101760007BC08091150180FF93C076C00E9447091D
:10177000DC0112960D911C9113970115110541F191
:10178000D801ED91FC910190F081E02DBE016B5EDE
:101790007F4FC8010995811117C0F8010085118597
:1017A000ECCF113009F44EC0133091F48F898823A7
:1017B00009F445C0823081F440E86DE08BE591E0AA
:1017C0000E94230E882321F08EEF8093E80079C0D9
:1017D00081E28093EB0075C0813029F440E86BE032
:1017E0008FE491E0EDCF833099F70E944709DC0147
:1017F0001296ED90FC9013978E010F5F1F4F6801BA
:10180000E114F10479F0D701ED91FC910680F781A4
:10181000E02DB801C7010995080F111DF701E084FB
:10182000F184EECFD8011C92F60101900020E9F777
:101830003197BF016C197D0940E0C601C1CF69E352
:1018400071E002C06DE371E06115710509F2FB0101
:10185000449150E080E840CF0FB6F894A89580916D
:101860006000886180936000109260000FBEA895B0
:10187000EE3F2AE0F20739F08091FE0A9091FF0ACC
:1018800091838083A1CF1092FF0A1092FE0A9CCF11
:10189000EE3F8AE0F80731F0808191819093FF0A52
:1018A0008093FE0A87E797E7918380839BE088E136
:1018B0000FB6F894A895809360000FBE90936000D7
:1018C00083CF6C960FB6F894DEBF0FBECDBFDF910D
:1018D000CF91FF91EF91BF91AF919F918F917F91A8
:1018E0006F915F914F913F912F911F910F91FF90B9
:1018F000EF90DF90CF900F900FBE0F901F90189534
:10190000789484B5826084BD84B5816084BD85B5DA
:10191000826085BD85B5816085BD80916E008160E6
:1019200080936E001092810080918100826080938C
:10193000810080918100816080938100809180008E
:1019400081608093800080919100826080939100FB
:1019500080919100816080939100809190008160DE
:10196000809390008091C10084608093C100809139
:10197000C10082608093C1008091C100816080932A
:10198000C1008091C30081608093C3008091C0003A
:1019900082608093C0008091C20081608093C20009
:1019A00080917A00846080937A0080917A008260CE
:1019B00080937A0080917A00816080937A00809190
:1019C0007A00806880937A0010925B02109257022E
:1019D000109258028091D70081608093D70080EAEE
:1019E0008093D80089B5806189BD89B5826089BD41
:1019F00009B400FEFDCF61E070E080E090E00E945D
:101A000099018091D8008F7C80618093D80080916B
:101A1000E000807F8093E0008091E1008E7E8093E3
:101A2000E1008DE08093E200559A209A5D98289815
:101A3000EEEFFFE7859194918B3F9C4D19F481E087
:101A4000809356028FEF9FEF909369028093680214
:101A5000C09115016AE070E080E090E00E94990179
:101A6000CC23B1F36CE571E08CE592E00E948C032D
:101A700069E571E08CE592E00E948C036AE671E012
:101A80008CE592E00E948C031092D3021092D20255
:101A90001092D1021092D0021092CF021092CE0278
:101AA0008DE991E09093D5028093D4028091C40295
:101AB00098EF980F943048F022EF280F243028F048
:101AC00026EE280F233008F060C02DEB30E0309375
:101AD000CF022093CE022BE931E03093D102209344
:101AE000D0022CE231E03093D3022093D202943022
:101AF00058F092EF980F943038F08A51833008F400
:101B000090C0A0E0B0E08FC0A8E6B0E0E8E6F0E06A
:101B1000808181608C938091C40298EF980F9430FB
:101B200058F022EF280F243038F026EE280F23300B
:101B300018F020E030E002C02BE630E03093CC0219
:101B40002093CB02943010F49CEF09C08E3071F0DA
:101B50008F3071F0803171F0813171F09AEE980F11
:101B600081E001C0880F9A95EAF707C088E005C0B8
:101B700082E003C084E001C081E08093CD028091C7
:101B8000D4029091D5020197F1F78091D202909101
:101B9000D302892B21F1809150029091510222E0D1
:101BA000883B9207E1F0009711F00E9411038091A9
:101BB000D6028E7F8093D60210924F0210924E0270
:101BC00088EB92E09093510280935002E091CB0217
:101BD000F091CC0290818091CD02892B80836AE8BC
:101BE00071E08CE592E00E948C0384ED94E0909388
:101BF00009018093080180916A008F7C8062809344
:101C00006A00EE9A62E087E00E94560661E08DE08D
:101C10000E945606C0E0D0E02097F1F30E94000039
:101C2000FBCFA8E6B0E0833008F470CFE0E0F0E04E
:101C30006FCF81E491E09093B9028093B80288EB72
:101C400092E00C941103CF92DF92EF92FF920F93E8
:101C50001F93CF93DF931F92CDB7DEB7182F062FB8
:101C6000E42E862F880F8E5F99830E94B80583E04B
:101C70000E94B805F12EC12E9981D92E8C2D8F1975
:101C8000801798F4F601E7FE02C0849101C08081BC
:101C90000E94B805182F80E00E94B8058123FFEF4D
:101CA000CF1ADF0A8111EACF01C081E00F90DF91E6
:101CB000CF911F910F91FF90EF90DF90CF900895FB
:101CC00010925F0210925E0288EE93E0A0E0B0E016
:101CD0008093600290936102A0936202B0936302CA
:101CE00021E231E030935D0220935C022FEF3FEF61
:101CF00030936902209368024EE057EC6AE17FE37B
:101D00004093E7025093E8026093E9027093EA027D
:101D10001092E3021092E4021092E5021092E602A1
:101D20001092EE021092ED028093EF029093F00277
:101D3000A093F102B093F20221E331E03093EC0280
:101D40002093EB021092BB021092BA028093BC0265
:101D50009093BD02A093BE02B093BF0281E491E0D4
:101D60009093B9028093B8021092CF021092CE02E3
:101D70001092D1021092D0021092D3021092D2028D
:101D80001092D5021092D4026091D6026E7F6D7FC0
:101D90006093D6026695617081E0682786E10E94B3
:101DA000F30561E086E10E945606EAEBF1E0E4917A
:101DB000E093C802EBE9F1E0E491F0E0EE0FFF1FE1
:101DC000E759FE4F859194919093CA028093C9027E
:101DD00060E087E10E9456068091D60281FD04C032
:101DE00061E087E10E94F30587E18093C402EBEB99
:101DF000F1E0E491E093C502ECE9F1E0E491F0E078
:101E0000EE0FFF1FE958FE4F859194919093C70202
:101E10008093C60280E090E0A0E8BFE38093AC022C
:101E20009093AD02A093AE02B093AF028093B00244
:101E30009093B102A093B202B093B3028093B40224
:101E40009093B502A093B602B093B702089550588C
:101E5000BB27AA270E943F0F0C94B2100E94A41027
:101E600038F00E94AB1020F039F49F3F19F426F4AB
:101E70000C94A1100EF4E095E7FB0C949B10E92F55
:101E80000E94C31058F3BA176207730784079507B7
:101E900020F079F4A6F50C94E5100EF4E0950B2EE5
:101EA000BA2FA02D0B01B90190010C01CA01A001AC
:101EB0001124FF27591B99F0593F50F4503E68F107
:101EC0001A16F040A22F232F342F4427585FF3CF48
:101ED000469537952795A795F0405395C9F77EF419
:101EE0001F16BA0B620B730B840BBAF09150A1F062
:101EF000FF0FBB1F661F771F881FC2F70EC0BA0FE8
:101F0000621F731F841F48F4879577956795B7956F
:101F1000F7959E3F08F0B0CF9395880F08F099276A
:101F2000EE0F9795879508950E94771008F481E049
:101F300008950E94AD0F0C94B2100E94AB1058F09F
:101F40000E94A41040F029F45F3F29F00C949B10EC
:101F500051110C94E6100C94A1100E94C31068F368
:101F60009923B1F3552391F3951B550BBB27AA2752
:101F700062177307840738F09F5F5F4F220F331F8C
:101F8000441FAA1FA9F335D00E2E3AF0E0E832D054
:101F900091505040E695001CCAF72BD0FE2F29D057
:101FA000660F771F881FBB1F261737074807AB0729
:101FB000B0E809F0BB0B802DBF01FF2793585F4F9E
:101FC0003AF09E3F510578F00C949B100C94E6106B
:101FD0005F3FE4F3983ED4F3869577956795B79580
:101FE000F7959F5FC9F7880F911D9695879597F98B
:101FF0000895E1E0660F771F881FBB1F6217730704
:102000008407BA0720F0621B730B840BBA0BEE1F18
:1020100088F7E09508950E94CB1088F09F5798F0BC
:10202000B92F9927B751B0F0E1F0660F771F881FDD
:10203000991F1AF0BA95C9F714C0B13091F00E94F7
:10204000E510B1E008950C94E510672F782F8827EC
:10205000B85F39F0B93FCCF3869577956795B3951E
:10206000D9F73EF490958095709561957F4F8F4F8D
:102070009F4F0895E89409C097FB3EF49095809592
:10208000709561957F4F8F4F9F4F9923A9F0F92F3E
:1020900096E9BB279395F695879577956795B795BC
:1020A000F111F8CFFAF4BB0F11F460FF1BC06F5FA2
:1020B0007F4F8F4F9F4F16C0882311F096E911C0B4
:1020C000772321F09EE8872F762F05C0662371F0D5
:1020D00096E8862F70E060E02AF09A95660F771FE9
:1020E000881FDAF7880F9695879597F90895990FC5
:1020F0000008550FAA0BE0E8FEEF16161706E807D2
:10210000F907C0F012161306E407F50798F0621BF2
:10211000730B840B950B39F40A2661F0232B242BC7
:10212000252B21F408950A2609F4A140A6958FEFE6
:10213000811D811D089597F99F6780E870E060E038
:1021400008959FEF80EC089500240A941616170650
:1021500018060906089500240A9412161306140698
:1021600005060895092E0394000C11F4882352F0FB
:10217000BB0F40F4BF2B11F460FF04C06F5F7F4FB3
:102180008F4F9F4F089557FD9058440F551F59F09A
:102190005F3F71F04795880F97FB991F61F09F3F54
:1021A00079F087950895121613061406551FF2CF7D
:1021B0004695F1DF08C0161617061806991FF1CFCD
:1021C00086957105610508940895E894BB276627F4
:1021D0007727CB0197F908950E94771008F48FEFC5
:1021E00008950E9404110C94B2100E94A41038F0BB
:1021F0000E94AB1020F0952311F00C949B100C94CE
:10220000A11011240C94E6100E94C31070F3959F46
:10221000C1F3950F50E0551F629FF001729FBB27DD
:10222000F00DB11D639FAA27F00DB11DAA1F649F79
:102230006627B00DA11D661F829F2227B00DA11D2C
:10224000621F739FB00DA11D621F839FA00D611DB2
:10225000221F749F3327A00D611D231F849F600DD3
:10226000211D822F762F6A2F11249F5750409AF0FC
:10227000F1F088234AF0EE0FFF1FBB1F661F771F88
:10228000881F91505040A9F79E3F510580F00C9453
:102290009B100C94E6105F3FE4F3983ED4F38695D0
:1022A00077956795B795F795E7959F5FC1F7FE2BF3
:1022B000880F911D9695879597F908950E9477103C
:1022C000880B990B089597FB072E16F4009407D0FE
:1022D00077FD09D00E949F1107FC05D03EF4909530
:1022E00081959F4F0895709561957F4F0895A1E264
:1022F0001A2EAA1BBB1BFD010DC0AA1FBB1FEE1F80
:10230000FF1FA217B307E407F50720F0A21BB30BCA
:10231000E40BF50B661F771F881F991F1A9469F746
:1023200060957095809590959B01AC01BD01CF01A2
:102330000895EE0FFF1F0590F491E02D0994AA1B5C
:10234000BB1B51E107C0AA1FBB1FA617B70710F0A0
:10235000A61BB70B881F991F5A95A9F780959095D2
:10236000BC01CD01089581E090E0F8940C94B8117F
:1023700010E0C3EED0E004C0FE010E949911219646
:0A238000C43ED107C9F7F894FFCF5F
:10238A006A026A026A026A026A02FFFFFFFF00E14A
:10239A0000000000000000C1808100000000000071
:1023AA00003901D3015A01980574054F0100000054
:1023BA00007B03670360035D035A035903000000AF
:1023CA000084020E01D802F0026B0283026E616E73
:1023DA0000696E66006F7666000D0A0053657269C1
:1023EA00616C2072656164792E00496E6974696155
:1023FA006C6C697A696E6720425420536572696110
:0E240A006C20706F72742E2E2E004F4B00004F
:00000001FF
