:100000000C94BC020C940E180C9435180C945C18CB
:100010000C9483180C9403030C9403030C94AA18F7
:100020000C9403030C94030D0C9420230C94AF2127
:100030000C9403030C9403030C9403030C94030328
:100040000C9403030C9403030C9403030C94030318
:100050000C9403030C9403030C9403030C94D11825
:100060000C9403030C94901C0C94C21C0C9403037A
:100070000C9403030C9403030C9403030C940303E8
:100080000C9403030C9403030C9403030C94E608F0
:100090000C94A00B0C9403030C9403030C94030323
:1000A0000C9403030C9403030C940303F619F9193D
:1000B000E819EC19F2191A1A1A1A1A1AFD19011A62
:1000C000051A0B1A0F1A1A1A151A53656E736F72E6
:1000D00020656E61626C65643A20004465766963F0
:1000E000652049443A200047593932353020696E3D
:1000F000697469616C697A696E672E2E2E2E0047CD
:10010000593932353020636F6E6E656374696F6E76
:10011000207375636365737366756C6C792E004725
:10012000593932353020636F6E6E656374696F6E56
:10013000206661696C65642E00496E697469616C42
:100140006C697A696E672042542053657269616CEC
:1001500020706F72742E2E2E0053657269616C20B0
:1001600072656164792E00000706000003024207F1
:10017000000000000000000000000000000000007F
:100180000000000000000000001F0610000000003A
:1001900000000005000501010000060000900000BD
:1001A000000000000000000000001F06101C0002FC
:1001B000000000000000000000000000000000003F
:1001C000001000000010039001FF001F061038FF10
:1001D000FF025800050000000000000014000000AD
:1001E000100000000400000000000000050610548C
:1001F00000000000000000000000000000000000FF
:10020000000000000000000000000000001F0620A9
:10021000000404020200012800010018040405057E
:1002200000022803010E0300002A04140A001F061E
:10023000201C0A00032A0001424C452053686965CE
:100240006C64040405050004280301020500001F76
:10025000062038012A0604030200052A01010000D5
:10026000040405050006280301020700042A06000D
:100270001F06205404090800072A04010600120082
:1002800000000A000404020200082800010118040A
:10029000001F0620700405050009280301220A003A
:1002A000052A26040504000A2A050100000000466C
:1002B00014001F06208C0302000B29020100000419
:1002C000041010000C2800011E948DF1483194BADE
:1002D000754C001F0620A83E5000003D7104041319
:1002E00013000D280301040E001E948DF148319473
:1002F000BA754C001F0620C43E5003003D714410E7
:100300001400000E000302000000000000000000C6
:1003100000000000001F0620E000000000000000B8
:1003200004041313000F2803011010001E948DF114
:10033000483194BA75001F0620FC4C3E5002003D27
:100340007114001400001000020200000000000000
:10035000000000000000001F06211800000000003F
:1003600000000046140302001129020100000404E9
:1003700002020012280001001F0621340A1804049A
:1003800005050013280301021400272A04040901AB
:1003900000142A27010A0000000A0621500000006C
:1003A000000000000000000000000000000000004D
:1003B000000000000000000000001F0640002A00AE
:1003C00001008004000300002A0501000404000A63
:1003D000000B000302000804000E001906401C0078
:1003E00000000202000204001000112A2701008010
:1003F000040014000000000000000000130650007C
:100400001E948DF1483194BA754C3E5000003D71F8
:100410000000000000000000000000000012066064
:1004200000000000000000000000000000000000CC
:1004300000000000000000000000000000000606B0
:10044000F000033D6C000000000000000000000010
:100450000000000000000000000000000000002C70
:1004600020000000000200090F0000030401000C3E
:10047000000000000000000000000000000000007C
:100480000004080201104080401020408040800895
:100490000204018040201002011080102040402002
:1004A0000404040404030405020202020403020219
:1004B00002020606060606060404020202040400FE
:1004C0000000002300260029002C002F000000005F
:1004D00000250028002B002E003100000000002421
:1004E0000027002A002D003000080B000202020144
:1004F00000090400000102020000052400100105AB
:1005000024010101042402060524060001070581D7
:100510000310004009040100020A00000007050260
:10052000024000000705830240000012010002EFB4
:10053000020140EB03042400010102030112010047
:100540000200000040EB03042400010102030155F6
:100550006E6B6E6F776E00426C656E644D69637290
:100560006F20384D487A000403090400F408C60AD5
:10057000240E7017B51BF21C11241FBECFEFDAE05A
:10058000DEBFCDBF94B784B7877F84BF0FB6F89422
:10059000A89580916000886180936000109260004F
:1005A0000FBE93FF0EC08091F3079091F407823441
:1005B0009C4D39F41092F4071092F307E0E0F0E755
:1005C000099512E0A0E0B1E0E6EDFEE402C005907E
:1005D0000D92A037B107D9F727E0A0E7B2E001C03C
:1005E0001D92A33FB207E1F712E0CCEBD2E004C0CA
:1005F0002197FE010E941327C63BD107C9F70E942D
:1006000084170C9469270C9400000F931F930E9489
:100610001B1960937C0270937D0280937E029093FD
:100620007F02009178021091790220917A02309134
:100630007B02DC01CB01801B910BA20BB30B863933
:100640009105A105B10548F161E471E08EEE96E0F7
:100650000E94A21D80917C0290917D02A0917E0259
:10066000B0917F028093780290937902A0937A02EE
:10067000B0937B028091900290919102A09192029E
:10068000B09193020196A11DB11D809390029093A9
:100690009102A0939202B09393021F910F9108953B
:1006A0002F923F924F925F926F927F928F929F9282
:1006B000AF92BF92CF92DF92EF92FF920F931F9370
:1006C000CF93DF93CDB7DEB72A970FB6F894DEBF8E
:1006D0000FBECDBF9A8789876C012AE6C20ED11C56
:1006E0007C0138E6E30EF11C8C010A591F4F8C592E
:1006F0009F4F9A83898329843A8442E6240E311CD1
:1007000089859A85805A9F4F9E838D8329813A815E
:10071000A101BC0189859A8587589F4F0E940610C8
:10072000E985FA85E857FF4F108110FF4DC1E98533
:10073000FA85448855886688778880889188A28859
:10074000B388C484D584E684F784E981FA81608122
:100750007181072E000C880B990B0E946F2520E0F9
:100760003CE249E456E40E945A242DEC3CEC4CE96E
:1007700051EC0E94242620E031E942E057EC0E942F
:10078000CC242DEC3CEC4CE151E40E945B24A30111
:1007900092010E945A242FE832EC45EF5CE30E945C
:1007A00024262AEA3AE84AE65EE30E94CC249B012A
:1007B000AC01C301B2010E945B242B013C01F10199
:1007C00060817181072E000C880B990B0E946F25A8
:1007D00020E030E14BE856E40E945A242DEC3CEC3A
:1007E0004CE951EC0E94242620E030E240E057EC36
:1007F0000E94CC242DEC3CEC4CE151E40E945B24A3
:10080000A50194010E945A242FE832EC45EF5CE3E5
:100810000E9424262AEA3AE84AE65EE30E94CC24B3
:100820009B01AC01C501B4010E945B244B015C013A
:10083000ED81FE8160817181072E000C880B990B80
:100840000E946F2520E03CE742E956E40E945A24CA
:100850002DEC3CEC4CE951EC0E94242620E038E7DA
:100860004FEF56EC0E94CC242DEC3CEC4CE151E4D3
:100870000E945B24A70196010E945A242FE832ECC3
:1008800045EF5CE30E9424262AEA3AE84AE65EE362
:100890000E94CC249B01AC01C701B6010E945B24DD
:1008A000E985FA856083718382839383848295824C
:1008B000A682B782408651866286738624A535A5B6
:1008C00046A557A529833A834B835C8320A531A590
:1008D00042A553A52D833E834F835887C4A0D5A03E
:1008E000E6A0F7A0A70196010E945A242FE832EC57
:1008F00045EF5CE30E94242625ED3AE642EB5EE3F9
:100900000E94CC249B01AC01C701B6010E945B246C
:10091000E985FA85608F718F828F938F2D813E815B
:100920004F815885C501B4010E945A242FE832EC4A
:1009300045EF5CE30E94242625ED3AE642EB5EE3B8
:100940000E94CC249B01AC016D817E818F819885B2
:100950000E945B24E985FA85648F758F868F978F57
:1009600029813A814B815C81C301B2010E945A24E2
:100970002FE832EC45EF5CE30E94242625ED3AE6B1
:1009800042EB5EE30E94CC249B01AC0169817A8139
:100990008B819C810E945B24E985FA8560A371A309
:1009A00082A393A38CE0DF011C9601900D928A959F
:1009B000E1F78CE0E985FA857896A985BA85949661
:1009C00001900D928A95E1F711FF95C0E985FA85AE
:1009D000EC5BFF4F80809180A280B380E985FA852F
:1009E000E05CFF4F4080518062807380E985FA852A
:1009F000C4ACD5ACE6ACF7ACE659FF4F6081718171
:100A0000072E000C880B990B0E946F25A5019401FD
:100A10000E945A242FE832EC45EF5CE30E94242622
:100A20002AEA3AE84AE65EE30E94CC249B01AC0144
:100A3000C501B4010E945B244B015C01E985FA8584
:100A4000E859FF4F60817181072E000C880B990BCC
:100A50000E946F25A30192010E945A242FE832ECD4
:100A600045EF5CE30E9424262AEA3AE84AE65EE380
:100A70000E94CC249B01AC01C301B2010E945B2403
:100A80002B013C01E985FA85EA59FF4F60817181AC
:100A9000072E000C880B990B0E946F25A701960169
:100AA0000E945A242FE832EC45EF5CE30E94242692
:100AB0002AEA3AE84AE65EE30E94CC249B01AC01B4
:100AC000C701B6010E945B24E985FA8560AB71AB72
:100AD00082AB93AB44AA55AA66AA77AA80AE91AE20
:100AE000A2AEB3AE8CE0F096A985BA85DC960190F3
:100AF0000D928A95E1F72A960FB6F894DEBF0FBEE5
:100B0000CDBFDF91CF911F910F91FF90EF90DF90BC
:100B1000CF90BF90AF909F908F907F906F905F909D
:100B20004F903F902F9008954F925F926F927F92D7
:100B30008F929F92AF92BF92CF92DF92EF92FF92ED
:100B4000CF93DF93EC01488159816A817B8122E058
:100B500030E08EEE96E00E94721F60E28EEE96E02C
:100B60000E94851D4C815D816E817F8122E030E095
:100B70008EEE96E00E94721F60E28EEE96E00E947A
:100B8000851D488559856A857B8522E030E08EEE9B
:100B900096E00E94721F60E28EEE96E00E94851D34
:100BA000688179818A819B818C809D80AE80BF80A5
:100BB000C884D984EA84FB849B01AC010E9424266A
:100BC0002B013C01A5019401C501B4010E9424261A
:100BD0009B01AC01C301B2010E945B244B015C018B
:100BE000A7019601C701B6010E9424269B01AC0112
:100BF000C501B4010E945B240E949726AB01BC0191
:100C000022E030E08EEE96E00E94721F60E28EEEEF
:100C100096E00E94851D488D598D6A8D7B8D22E05E
:100C200030E08EEE96E0DF91CF91FF90EF90DF9075
:100C3000CF90BF90AF909F908F907F906F905F907C
:100C40004F900C94721F40ED57E060E070E08DE92A
:100C500096E00E94CB1620E032EC41E050E06EEED0
:100C600076E08DE996E00E94821661E08DE996E0DB
:100C70000E945616882391F06DE471E08091DF06A2
:100C80009091E0060E94831D6AE070E080E090E0B1
:100C90000E944C198DE996E00E94811641E060E0C7
:100CA0008DE996E00E94521761E08DE00E941B1AC8
:100CB00061E082E10E941B1A62E087E00E941B1A39
:100CC00061E08DE00E94571A61E082E10E94571AAC
:100CD00042E050E065E073E084E00E949E1740E04F
:100CE00052EC61E070E08EEE96E00E94A01B69E598
:100CF00071E08EEE96E00E94901D69E371E08EEE49
:100D000096E00E945F1D0E948D0D8FE591E00E948C
:100D1000F10D67E671E08EEE96E00E94A21D67EE8F
:100D200070E08EEE96E00E94901D8FE093E00E94AE
:100D3000801068EE73E080E090E00E944C196BED4B
:100D400070E08EEE96E00E945F1D8FE093E00E94BF
:100D5000BE1040E150E0682F8EEE96E00E94791EB2
:100D60008FE093E00E94DA10811107C06FE171E01B
:100D70008EEE96E00E94901DD2CF6FEF70E08EEE67
:100D800096E00E94901D83E080931E0360E08FE058
:100D900093E00E94941060E08FE093E00E949B102B
:100DA00060E08FE093E00E94A21080911E0381FF1B
:100DB0000FC060E08FE093E00E94A91060E08FE038
:100DC00093E00E94B01060E08FE093E00E94B710C3
:100DD0006AEC70E08EEE96E00E945F1D60911E034B
:100DE00061704AE050E070E08EEE96E00E94471E8F
:100DF00060911E03627070E04AE050E08EEE96E073
:100E00000E944E1EF8948091710081608093710061
:100E100080919000809191008360809391007894FC
:100E200008958F929F92AF92BF92CF92DF92EF92EE
:100E3000FF920F931F93CF93DF93CDB7DEB76E97DB
:100E40000FB6F894DEBF0FBECDBF0E941B19672BF3
:100E5000682B692B39F40E941B19623071058105DA
:100E60009105B8F18DE996E00E94BD1560932103CC
:100E7000709322038093230390932403009125030E
:100E800010912603209127033091280360177107E2
:100E90008207930740F460932503709326038093A1
:100EA0002703909328030091250310912603209196
:100EB0002703309128036B017C01C01AD10AE20A92
:100EC000F30A970186010A3F11052105310508F053
:100ED00027C180911F0390912003892B09F063C1E2
:100EE0008091880281110DC00E941B1960937402C9
:100EF00070937502809376029093770281E08093DD
:100F000088020E941B1900917402109175022091B1
:100F1000760230917702DC01CB01801B910BA20B92
:100F2000B30B4F97A105B10508F46FC00E941B19C0
:100F300060937402709375028093760290937702A7
:100F400060E082E10E94571A86E992E00E94500315
:100F500086E992E00E9494058EEE96E00E948C1D38
:100F60008091080320E030E040E85FE38823D9F077
:100F70006091AE027091AF028091B0029091B10287
:100F80000E945B249B01AC016091960270919702D4
:100F900080919802909199020E941F2618168CF554
:100FA000109208032EC06091AE027091AF02809142
:100FB000B0029091B1020E945A249B01AC01609151
:100FC00096027091970280919802909199020E94E6
:100FD000C72487FF16C081E08093080380910B032C
:100FE00090910C03A0910D03B0910E030196A11DE9
:100FF000B11D80930B0390930C03A0930D03B0934A
:101000000E0361E082E10E94571A809180028111F3
:101010000DC00E941B19609370027093710280933F
:1010200072029093730281E0809380020E941B19E8
:10103000009170021091710220917202309173023E
:10104000DC01CB01801B910BA20BB30B893E9340BB
:10105000A105B10508F45DC08E010F5F1F4F84E14B
:10106000F80111928A95E9F70E941B1960937002AA
:1010700070937102809372029093730260E08DE02E
:101080000E94571A80900B0390900C03A0900D03C0
:10109000B0900E038092900290929102A0929202E0
:1010A000B09293026CE671E0C8010E94222761E7CA
:1010B00071E0C8010E9422277E01F5E1EF0EF11CCC
:1010C0004AE0B701C4010E943427BC01C8010E9454
:1010D000222761E771E0C8010E94222763E771E0DF
:1010E000C8010E9422276AEF71E0C8010E942227EE
:1010F00064E1C8010E94D40D61E08DE00E94571A9E
:101100000E151F0531F0F80181918F010E94C70D66
:10111000F7CF81E090E09093200380931F0343C0BA
:1011200060932503709326038093270390932803ED
:1011300044EF51E060E070E08DE996E00E94BF1559
:1011400061E08DE996E00E945616882309F161E07E
:101150008DE996E00E94DB156AE671E08091DF067A
:101160009091E0060E94831D0E941B19AB01BC01F7
:101170002AE030E08091DF069091E0060E94651E33
:101180008DE996E00E9441168DE996E00E94811655
:1011900065E070E080E090E00E944C198DE996E0F7
:1011A0000E944A1696CE6E960FB6F894DEBF0FBE1A
:1011B000CDBFDF91CF911F910F91FF90EF90DF9006
:1011C000CF90BF90AF909F908F9008951F920F92F5
:1011D0000FB60F9211241092200310921F030F904C
:1011E0000FBE0F901F901895E6E9F2E01082118271
:1011F000128213821482158216821782108611863B
:10120000128613861486158616861786108A118A0A
:10121000128A138A148A158A168A178A108E118EDA
:10122000128E138E148E158E168E178E10A211A28A
:1012300012A213A214A215A216A217A210A611A6FA
:1012400012A613A614A615A616A617A610AA11AACA
:1012500012AA13AA14AA15AA16AA17AA10AE11AE9A
:1012600012AE13AE14AE15AE16AE17AE1092D60275
:101270001092D7021092D8021092D9021092DA027C
:101280001092DB021092DC021092DD021092DE025C
:101290001092DF021092E0021092E1021092E2023C
:1012A0001092E3021092E4021092E5021092E6021C
:1012B0001092E7021092E8021092E9021092EA02FC
:1012C0001092EB021092EC021092ED021092EE02DC
:1012D0001092EF021092F0021092F1021092F202BC
:1012E0001092F3021092F4021092F50282E1E6EFFE
:1012F000F2E0DF011D928A95E9F781E0809308030F
:101300008093090380930A0310920B0310920C033D
:1013100010920D0310920E038FE093E00E94EC0FE9
:1013200010921E0381E090E09093200380931F03AE
:10133000E4E9F2E01082118260E083E00E941B1A6F
:1013400060E085E00C941B1A8091590390E0209195
:101350005A03821B9109089590915A038091590371
:10136000981750F4E92FF0E0E55AFC4F208130E067
:101370009F5F90935A0302C02FEF3FEFC90108957A
:10138000E0915A0380915903E81730F4F0E0E55AF0
:10139000FC4F808190E008958FEF9FEF08950895AE
:1013A000CF92DF92EF92FF920F931F93CF93DF9331
:1013B0007C01262F972F8A0180913503882391F095
:1013C000C62FD72F6E01C40ED51ECC15DD0571F0CA
:1013D0006991D701ED91FC910190F081E02DC70159
:1013E0000995F3CF642F822F0E94680BC801DF910B
:1013F000CF911F910F91FF90EF90DF90CF900895C4
:10140000CF93DF931F92CDB7DEB769832091350369
:101410002223D1F020913603203240F021E030E049
:10142000FC013383228380E090E015C08091370374
:10143000E82FF0E0E85CFC4F998190838F5F809308
:1014400037038093360305C061E0CE0101960E9408
:10145000680B81E090E00F90DF91CF910895FC013F
:101460001382128288EE93E0A0E0B0E0848395833B
:10147000A683B78389E791E091838083089581E013
:10148000809335036093580310923703109236030C
:1014900008950F93062F21E04091360368E373E02F
:1014A000809158030E94120B10923703109236035A
:1014B000109235030F9108954F925F926F927F9231
:1014C000AF92BF92CF92EF92FF920F931F93CF9361
:1014D000DF935C01F62ED42F28013901EE2021F193
:1014E0000E943F0ACE2DC43008F0C3E0C150C0F0C6
:1014F000D501ED91FC91B8E0CB9FC0011124A3016F
:10150000920104C056954795379527958A95D2F74D
:10151000CA01B9010190F081E02DC5010995E6CF1E
:1015200060E0C5010E94490A4D2FD13208F040E227
:101530002C2D6BE573E08F2D0E94CA0A10925A037E
:1015400080935903DF91CF911F910F91FF90EF90FE
:10155000CF90BF90AF907F906F905F904F90089525
:10156000CF92EF920F931F93C22EE12C00E010E078
:1015700098010E945C0A1F910F91EF90CF900895FF
:1015800021E00C94B00A61E00C94490A89E293E0EE
:101590000C942F0A413208F043C09091E803911156
:1015A000FCCF91E09093E8032093E6032FEF209384
:1015B0007B031092C003240F2093BF039093E70393
:1015C0009091E703880F892B8093E7038091E503CF
:1015D000813061F41092E5038091E7038093BB00B2
:1015E0008091BC0083FDF8CF85EC01C085EE80932F
:1015F000BC008091E8038130E1F38091C00384173F
:1016000010F44091C00321EC33E0FB01D9018A2F93
:10161000821B841718F48D918193F9CF842F08953C
:1016200080E008950F93413208F04AC09091E8039A
:101630009111FCCF32E03093E8030093E6033FEFD3
:1016400030937B031092C0034093BF03FB0161EC16
:1016500073E0DB013A2F361B341718F431913D93B8
:10166000F9CF1092E7033091E703880F832B809323
:10167000E7038091E503813061F41092E5038091E6
:10168000E7038093BB008091BC0083FDF8CF85EC1D
:1016900001C085EE8093BC00222321F08091E803F5
:1016A0008230D1F380917B038F3F79F080917B036F
:1016B000803241F080917B03803331F094E005C0AB
:1016C00091E003C092E001C093E0892F0F9108954B
:1016D00040919D03262F30E0240F311D213231052A
:1016E000DCF42091E8032430C9F4FC0180E090E0B0
:1016F000861758F430919D032191DC01A156BC4F0F
:10170000A30FB11D2C930196F3CF80919D03680F19
:1017100060939D0380E0089581E0089582E008953C
:1017200085ED8093BC008091BC0084FDFCCF1092BD
:10173000E803089585EC8093BC001092E8030895B7
:101740001F920F920FB60F9211242F933F934F9336
:101750005F936F937F938F939F93AF93BF93EF9319
:10176000FF938091B900887F803609F49EC078F598
:10177000883209F45DC090F4803109F456C038F421
:10178000882309F4F5C0883009F44FC0F5C08831CA
:1017900009F44EC0803209F45FC0EEC0803409F411
:1017A0006AC058F4803309F457C0883309F0E4C0A4
:1017B00080937B030E949A0BDFC0803509F44FC0F1
:1017C000883509F45DC0883409F0D6C0D3C08839A3
:1017D00009F4C4C0A8F4883709F467C038F488361F
:1017E00009F463C0803709F460C0C6C0883809F4C2
:1017F000B5C0803909F45FC0803809F0BDC05BC056
:10180000803B09F483C038F4803A09F466C0883A12
:1018100009F47CC0B1C0803C09F4A4C0883C09F440
:10182000A1C0883B09F487C0A7C08091E70310C01E
:101830009091C0038091BF03981770F5E091C003A9
:1018400081E08E0F8093C003F0E0EF53FC4F808166
:101850008093BB0085EC83C080937B038BC0E091B9
:10186000C00381E08E0F8093C0038091BB00F0E045
:10187000EF53FC4F80839091C0038091BF036BC0F6
:10188000E091C00381E08E0F8093C0038091BB0084
:10189000F0E0EF53FC4F80838091E60381116AC032
:1018A00081E08093E50384EA5EC083E08093E803EF
:1018B00010927C03CFCF80917C03803208F04EC021
:1018C000E0917C0381E08E0F80937C038091BB00CC
:1018D000F0E0E358FC4F8083BDCF0E949A0B8091CB
:1018E0007C03803230F4E0917C03F0E0E358FC4F5D
:1018F000108260917C0370E0E091E103F091E203DB
:101900008DE793E0099510927C0336C084E08093C4
:10191000E80310929E0310929D03E091E303F0917F
:10192000E403099580919D03811105C081E08093B6
:101930009D0310929F03E0919E0381E08E0F8093A0
:101940009E03F0E0E156FC4F80818093BB009091B4
:101950009E0380919D03981708F47CCF85E88093BF
:10196000BC000AC085EC8093BC001092E80304C060
:1019700010927B030E94900BFF91EF91BF91AF916A
:101980009F918F917F916F915F914F913F912F9197
:101990000F900FBE0F901F901895CF93CFB7F8946C
:1019A0008091E903811127C0E1EBF4E08491E2E941
:1019B000F4E09491E82FF0E0EE0FFF1FE552FB4FAB
:1019C000A591B491EC91E92321F461E081E10E94B9
:1019D000571A61E081E10E941B1A8CB580618CBDB1
:1019E0008CB580648CBD61E08FE00E941B1A61E0C1
:1019F00080E10E941B1A8091E9038F5F8093E903C5
:101A0000CFBFCF9108951F920F920FB60F9211245E
:101A10002F933F934F935F936F937F938F939F93F6
:101A2000AF93BF93EF93FF93E0912C04F0912D04BB
:101A3000309709F451C0968DA685B785858591FFAD
:101A400004C09C91892329F447C09C91892309F003
:101A500043C0A389B4899C918589809589238C93FF
:101A6000868997890197F1F7608D718DA685B78575
:101A7000558538E020E0CB010197F1F7822F90E007
:101A800095958795282F4C91452309F02068315072
:101A900091F7868D81FD20958091EB0390E0019672
:101AA0008F7399273091EA03381749F0A091EB031F
:101AB000B0E0A451BC4F2C938093EB0303C0868D00
:101AC0008160868F828D938D0197F1F7A389B48908
:101AD0009C918589892B8C93FF91EF91BF91AF9158
:101AE0009F918F917F916F915F914F913F912F9136
:101AF0000F900FBE0F901F9018959CB5282F237044
:101B00009C7F922B9CBD2DB582FB992790F9822F4B
:101B10008E7F892B8DBD0895FFCF8CB580932E04C9
:101B20008CB580628CBD85E00E947D0D8CB5837F75
:101B30008CBD86E0EDE9F4E0DF011D928A95E9F7BE
:101B4000E0E7F4E083E191E09587848785E086878C
:101B500027E631E0308B278797E1918B10829091B7
:101B60000701918390910601928390E193839EE017
:101B700094839FE0958386838FEF87838087818717
:101B8000128684E0838760E0CF010C9489159091E0
:101B90002F04903441F0E92FF0E0E05DFB4F8083AB
:101BA0009F5F90932F040895EF92FF920F931F93DE
:101BB000CF93DF937C018C01C62FD0E0C8018E1932
:101BC0009F098C179D0734F4F80181918F010E94C1
:101BD000C70DF4CFDF91CF911F910F91FF90EF9040
:101BE0000895FC0101900020E9F73197E81BF90BFB
:101BF000EB3028F4BC0188E091E00C942D27089587
:101C0000FC01158216821782DC011896885B9F4FB3
:101C10001D92A817B907E1F71C92DF01A75BBF4F20
:101C20001D921C92EF54FF4F0190F081E02D3097F0
:101C300009F009940895FC01128214821382E95478
:101C4000FF4F10820C94000E83EA94E00C941B0E5C
:101C5000EF92FF920F931F93CF93DF9300D0CDB7F6
:101C6000DEB7062F142F682F89E293E029833A8389
:101C70000E943F0A602F89E293E00E94000A2981B6
:101C8000022FE22E3A81F32E8E2D801B811740F415
:101C9000F70161917F0189E293E00E94000AF4CF8D
:101CA00089E293E00E94C30A91E0811190E0892FBC
:101CB0000F900F90DF91CF911F910F91FF90EF90B8
:101CC0000895CF93DF931F92CDB7DEB749839E016E
:101CD0002F5F3F4F41E00E94280E0F90DF91CF9180
:101CE00008952F923F924F925F926F927F928F92C0
:101CF0009F92AF92BF92CF92DF92EF92FF920F939B
:101D00001F93CF93DF9300D000D01F92CDB7DEB7E3
:101D1000F82EE62E242E69010E941B194B015C014E
:101D2000312C1D82822D90E09C838B832801612CB5
:101D3000712C321408F055C06F2D89E293E00E9497
:101D40003F0A6E2D89E293E00E94000A89E293E047
:101D50000E94C30A6F2D89E293E00E943F0A4B81E3
:101D60005C81431951094132510514F040E250E0C1
:101D70006F2D89E293E00E94C00A89E293E00E94FD
:101D8000A409892B19F10115110599F4F6012D818A
:101D9000E20FF11D27FDFA95FA83E98389E293E0CA
:101DA0000E94AC09E981FA8180832D812F5F2D8308
:101DB000E4CF0E941B19DC01CB0188199909AA09FB
:101DC000BB0984159505A605B70500F389E293E0E4
:101DD0000E94C30A822D40E2421508F480E2380EC8
:101DE000A8CF01151105D1F00E941B19DC01CB0110
:101DF00088199909AA09BB0920E030E080179107EA
:101E0000A207B30758F0822D90E0ED812E2FEE0F40
:101E1000330B2817390714F42FEF2D838D810F9082
:101E20000F900F900F900F90DF91CF911F910F9116
:101E3000FF90EF90DF90CF90BF90AF909F908F90EA
:101E40007F906F905F904F903F902F9008950F93E9
:101E50001F9389019A0141E00E94710E1F910F9119
:101E60000895CF92DF92EF92FF920F931F93CF933B
:101E7000DF931F92CDB7DEB7D42EC22E9701AE01ED
:101E80004F5F5F4F0E94270F8823F1F04D2D50E0E8
:101E90004C1951094F5F5F4F21E030E002C0220F23
:101EA000331FCA94E2F721503109042E01C0220FDA
:101EB0000A94EAF79981292330E002C035952795E5
:101EC0004A95E2F7F80120830F90DF91CF911F919F
:101ED0000F91FF90EF90DF90CF900895EF92FF92D7
:101EE0000F931F93CF93DF931F92CDB7DEB7182FB9
:101EF000062FF42EE22E2091220130912301AE0113
:101F00004F5F5F4F0E94270F9981EE2041F041E023
:101F100050E001C0440FFA94EAF7492B09C021E0D0
:101F200030E0A90101C0440FFA94EAF74095492333
:101F30004983602F812F0E94610E0F90DF91CF9116
:101F40001F910F91FF90EF900895DF92EF92FF9213
:101F50000F931F93CF93DF931F92CDB7DEB7182F48
:101F6000F62EE42ED22E2091220130912301AE01D3
:101F70004F5F5F4F0E94270F882321F1EE2DF0E085
:101F8000ED19F109319621E030E002C0220F331F34
:101F9000DA94E2F7215031090E2E01C0220F0A9483
:101FA000EAF7802F01C0880FEA95EAF7422F4095A3
:101FB000998149232823422B49836F2D812F0E9429
:101FC000610E01C080E00F90DF91CF911F910F91C2
:101FD000FF90EF90DF90089528E6FC01208308959C
:101FE0000F93062F22E044E06BE1FC0180810E9408
:101FF000A50F0F9108950F93062F22E044E06CE1A6
:10200000FC0180810E94A50F0F9108954F925F926D
:102010006F927F928F929F92AF92BF92CF92DF92F8
:10202000EF92FF920F931F93CF93DF93EC013B014D
:102030004A015901280100912201109123019C01BC
:102040002F5F3F4F4EE06BE388810E94710E8981C4
:1020500090E0982F88272A81822BF3019183808337
:102060008B8190E0982F88272C81822BF40191831B
:1020700080838D8190E0982F88272E81822BF50117
:1020800091838083898590E0982F88272A85822BE9
:10209000F201918380838B8590E0982F88272C858F
:1020A000822BF701918380838D8590E0982F88277C
:1020B0002E85822BF60191838083DF91CF911F9132
:1020C0000F91FF90EF90DF90CF90BF90AF909F90D7
:1020D0008F907F906F905F904F900895262F46E0ED
:1020E0006BE6FC0180810C946E0F0F93062F23E0AA
:1020F00042E06BE6FC0180810E94A50F0F910895DC
:10210000CF93DF93EC0161E00E94751060E0CE0197
:102110000E94F00F60E0CE010E94FB0F60E0CE0154
:10212000DF91CF910C946E10262F45E06CE6FC01F8
:1021300080810C946E0F262F44E06CE6FC018081B8
:102140000C946E0F262F43E06CE6FC0180810C940A
:102150006E0F262F42E06CE6FC0180810C946E0F1E
:10216000262F41E06CE6FC0180810C946E0F262F37
:1021700040E06CE6FC0180810C946E0FEF92FF92C0
:102180000F931F93CF93DF93EC01E0902201F09027
:1021900023018C010F5F1F4F28E046E065E788812F
:1021A0000E94310F8981DF91CF911F910F91FF9094
:1021B000EF9008950E94BE1091E0813709F090E001
:1021C000892F089521E0FC0120832EE021830895CA
:1021D000CF93DF93EC01892B31F462E270E085E864
:1021E00091E00E948C0DFE01EC57FF4F108231965A
:1021F000108219821A821AA21BA2E254F1091082DB
:1022000031961082B0961082CB59DF4F1882DF9141
:10221000CF910895CF93DF93EC01892B31F467E7D9
:1022200070E085E891E00E948C0DF894FE01EC5777
:10223000FF4FCB57DF4F81E020819881291380E049
:102240007894DF91CF9108950F931F93CF93DF93ED
:10225000EC018B01892B31F46FE270E085E891E0AD
:102260000E948C0D0115110531F460E370E085E8E2
:1022700091E00E948C0DCE010E940A11811117C0BD
:10228000CE018C579F4FFC013081337021E2FE015B
:10229000239FE00DF11D1124D80101900D922A9584
:1022A000E1F7FC0120812F5F208381E001C080E005
:1022B000DF91CF911F910F910895CF93DF93EC01A0
:1022C000892B31F466E870E085E891E00E948C0D7E
:1022D000FE01EC57FF4FCB57DF4F81E02081988103
:1022E000291380E0DF91CF9108950F931F93CF932F
:1022F000DF93EC018B01892B31F46FE370E085E80B
:1023000091E00E948C0D0115110531F460E470E03C
:1023100085E891E00E948C0DCE010E945D11811133
:1023200017C0CE018C579F4FFC013081337021E2E2
:10233000FE01239FE00DF11D1124D80101900D92A3
:102340002A95E1F7FC0120812F5F208381E001C005
:1023500080E0DF91CF911F910F910895CF93DF938C
:10236000EC01892B31F46FE870E085E891E00E9480
:102370008C0DF894FE01EB57FF4F408150E0CC5795
:10238000DF4F288130E02C5F3F4F81E04217530739
:1023900009F080E07894DF91CF910895DF92EF9279
:1023A000FF920F931F93CF93DF93EC018B01FB01FF
:1023B000D180892B31F461E570E085E891E00E94DD
:1023C0008C0D0115110531F462E570E085E891E0AE
:1023D0000E948C0DCE010E94AE11811122C07E019F
:1023E000F5E8EF0EF11CF70120812370F1E22F9F39
:1023F00090011124FE01E20FF31F1082C901019622
:102400004D2D50E04F5F5F4FB8016F5F7F4F8C0FD6
:102410009D1F0E941927F70180818F5F808381E0D3
:1024200001C080E0DF91CF911F910F91FF90EF905D
:10243000DF900895CF93DF93EC01892B31F46EE99F
:1024400070E085E891E00E948C0DFE01EB57FF4F94
:10245000408150E0CC57DF4F288130E02C5F3F4F68
:1024600081E04217530709F080E0DF91CF91089592
:10247000DF92EF92FF920F931F93CF93DF93EC01C4
:102480008B01FB01D180892B31F464E670E085E893
:1024900091E00E948C0D0115110531F465E670E0A4
:1024A00085E891E00E948C0DCE010E941A128111E4
:1024B00022C07E01F5E8EF0EF11CF70120812370A8
:1024C000F1E22F9F90011124FE01E20FF31F108211
:1024D000C90101964D2D50E04F5F5F4FB8016F5F0E
:1024E0007F4F8C0F9D1F0E941927F70180818F5FFE
:1024F000808381E001C080E0DF91CF911F910F9137
:10250000FF90EF90DF900895E0915B05F0915C05FE
:1025100060E081810C94571A0F931F93CF93DF9340
:102520008C01FC01D1814AE050E06D2F8EEE96E0E7
:102530000E94721E62ED71E08EEE96E00E94831D95
:10254000C0E0F801EC0FF11D40E150E061818EEE3A
:1025500096E00E94721E6FE574E08EEE96E00E9497
:102560005F1DCF5FDC1768F76EE574E08EEE96E0D6
:10257000DF91CF911F910F910C94901D8EBD0000A3
:102580000DB407FEFDCF8EB50895CF92DF92EF9286
:10259000FF920F931F93CF938C017B010E948412B3
:1025A000F80181810E94BE12F7018083F8018281C7
:1025B0000E94BE12C82FF7018183F8018181882310
:1025C00049F0282F30E04C2F50E04217530714F405
:1025D000CFEFC80FC03208F0CFE1F2E0EF0EF11CF0
:1025E0000D5F1F4F67018C2D8E198C1748F4F80171
:1025F00081918F010E94BE12F60181936F01F3CF8A
:10260000E0915B05F0915C0561E081810E94571AC1
:1026100081E0C11101C080E0CF911F910F91FF9027
:10262000EF90DF90CF900895CF93DF93CDB7DEB7D3
:10263000C254D1090FB6F894DEBF0FBECDBF8DE5F1
:1026400095E00E94AE11811140C0E0915B05F091D0
:102650005C0582810E94871A019749F483EE95E018
:102660000E940A11811131C00E9484122EC0BE0145
:102670006E5D7F4F83EE95E00E942411811102C0B0
:102680001AA21BA2BE016F5F7F4FCE0182960E94ED
:10269000C5128DE595E00E94AE11811106C083EE52
:1026A00095E00E940A11882369F08A81882369F0E5
:1026B000BE016F5F7F4F8DE595E00E94CE118111C5
:1026C00004C0FFCF0E948412F0CFCE5BDF4F0FB665
:1026D000F894DEBF0FBECDBFDF91CF910895CF93A9
:1026E000DF93CDB7DEB7C254D1090FB6F894DEBF81
:1026F0000FBECDBFBE016E5D7F4F83EE95E00E94A1
:102700007511811102C01AA21BA2BE016F5F7F4F1B
:10271000CE0182960E94C5128DE595E00E941A12A4
:10272000811106C083EE95E00E945D118823D9F0E7
:102730008A818823D9F0BE016F5F7F4F8DE595E0D8
:102740000E943812811101C0FFCF8DE595E00E94F3
:102750001A12882359F0E0915B05F0915C0583859E
:102760000E94EE1703C00E948412E2CFCE5BDF4FBF
:102770000FB6F894DEBF0FBECDBFDF91CF910895A5
:10278000E0915B05F0915C0587818F3F69F161E025
:102790000E941B1AE0915B05F0915C05808161E06D
:1027A000813079F487810E94571A64E670E080E0F6
:1027B00090E00E944C19E0915B05F0915C0560E0AF
:1027C00010C087810E94571AE0915B05F0915C056B
:1027D00060E087810E94571AE0915B05F0915C05EB
:1027E00061E087810C94571A08950F931F93CF933C
:1027F000DF938C01E0915B05F0915C05828581118E
:1028000006C08DE595E00E94AE118823C9F18DE5E3
:1028100095E00E94AE11D82FB8018DE595E00E9499
:102820002411C82F882379F180916906882349F003
:1028300065ED71E08EEE96E00E94831DC8010E9456
:102840008C12DD2371F0E0915B05F0915C058285CF
:10285000882339F040E050E06FE673E183850E9401
:102860009E178DE595E00E94AE1181110CC083EE9C
:1028700095E00E940A11811106C00E94841203C0D3
:102880000E941413C4CF8C2FDF91CF911F910F9111
:102890000895CF93DF93EC016093690690935C05F4
:1028A00080935B050E94CD0C8CB580628CBD8E81BF
:1028B0009CB5282F23709C7F922B9CBD2DB582FB4D
:1028C000992790F9822F8E7F892B8DBD8CB5837FC0
:1028D0008CBD83EE95E00E94E8108DE595E00E94A6
:1028E000E81062E08A810E941B1A61E089810E94DF
:1028F0001B1A88858F3F19F060E00E941B1A0E9406
:10290000C01360E08C810E94571A60E08B810E94A6
:10291000571A61E089810E94571A60E08D810E94F8
:10292000571A6EE170E080E090E00E944C198A85B1
:10293000882349F040E050E06FE673E18B85DF913A
:10294000CF910C949E17DF91CF9108951F93CF9351
:10295000DF93FC012181203210F010E01FC0EC0158
:10296000BC0183EE95E00E94CE118823B1F38DE582
:1029700095E00E94AE11811102C00E948412109154
:102980006906112351F068ED71E08EEE96E00E9429
:10299000831DCE010E948C1201C011E0812FDF91B6
:1029A000CF911F9108958DE796E00E94E2108CE789
:1029B00096E00C94A6140F931F93CF93DF93EC0132
:1029C0008B01CB010E94F513882309F447C0F8015D
:1029D0009281963801F178F4953809F03FC0F801FA
:1029E000228533853F8B2E8B24853585398F288F23
:1029F0002685378531C09838F1F0993879F5F80196
:102A0000238134813F8B2E8B25813681398F288F0E
:102A10002781308521C0FE01B4969E01245D3F4F81
:102A2000DF0118971C921192E217F307C9F71CA651
:102A30009B899D8B13C0F8013B96A4960D5E1F4F9A
:102A4000DF0118979C91DE0118979C9391919993BF
:102A5000E017F107A9F702C03B8F2A8FDF91CF91D2
:102A60001F910F910895CF93DF93FC0120812130B6
:102A700009F04CC0EC0164E670E080E090E00E9458
:102A80004C190E94D3146CE776E0CE010E94DB144F
:102A90008823C9F380917E068438A9F78091800647
:102AA000833861F484E080937D0681E880937E061C
:102AB00082E080937F06109280060EC081110FC0C5
:102AC00084E080937D0681E880937E0683E0809396
:102AD0007F061092800682E0809381060FC08238C4
:102AE000A9F484E080937D0681E880937E0681E0EE
:102AF00080937F0610928006109281066CE776E044
:102B00008DE595E0DF91CF910C94CE11DF91CF91BF
:102B10000895CF93DF93EC01FC01B4964AE656E0AA
:102B20008C969F0128503109D9011C921192DA012B
:102B30001D92AD01E817F907A1F7109277061092E0
:102B40007606109275061092740610927306109213
:102B500072068C859D8590937B0680937A068F857F
:102B600098899093790680937806CE010E94491443
:102B7000CE01DF91CF910C9433150C941B19CF9398
:102B8000DF93EC014E875F87688B798B1A8A1B8AEB
:102B90001C8A1D8A8E819F81A885B9858A879B871B
:102BA000AC87BD870E941B196E837F8388879987B6
:102BB000DF91CF910895BF92CF92DF92EF92FF9273
:102BC0000F931F93CF93DF938C01B62E0E941B1996
:102BD0006B017C01E801CE5BDF4F6AED71E088811B
:102BE00099810E94831D4AE050E06B2D8881998174
:102BF0000E94721E61EE71E0888199810E94831D9E
:102C00002AE030E0B701A601888199810E94651E03
:102C100063ED71E0888199810E94831DF8018681AE
:102C20009781A085B185B701A601481B590B6A0B96
:102C30007B0B2AE030E0888199810E94651E63ED5C
:102C400071E0888199810E94831DF8014681578136
:102C50006085718582859385A485B585481B590B50
:102C60006A0B7B0B2AE030E088819981DF91CF915C
:102C70001F910F91FF90EF90DF90CF90BF900C9439
:102C8000651EFC01EE5BFF4F65EE71E08081918176
:102C90000C94A21DCF93DF93EC010E941B196E834D
:102CA0007F8388879987DF91CF9108950F931F9332
:102CB000CF93DF93EC01611118C00E941B190A81A8
:102CC0001B812C813D81DC01CB01801B910BA20B70
:102CD000B30B84369105A105B10538F463E070E0CB
:102CE00080E090E00E944C19E8CF0E941B196A8393
:102CF0007B838C839D8381E0DF91CF911F910F9126
:102D000008950895CF92DF92EF92FF920F931F9351
:102D1000CF93DF9300D000D0CDB7DEB77B018C011D
:102D20000E5B1F4FF801718360838BE1C82ED12C9D
:102D3000C70129833A834B835C830E94A61B2981A8
:102D40003A814B815C81811113C0F1E0CF1AD10827
:102D500079F064E670E080E090E029833A834B8369
:102D60005C830E944C195C814B813A812981E0CFC0
:102D7000BA01A901F801808191810F900F900F9005
:102D80000F90DF91CF911F910F91FF90EF90DF9007
:102D9000CF900C94A01BFC01EC5BFF4F10821182C2
:102DA00012821382FC011282138214821582411551
:102DB00051056105710521F0CB01BA010C944C1944
:102DC0000895FC01EE5BFF4F80819181DC01ED9164
:102DD000FC910680F781E02D09950895FC01EE5BDA
:102DE000FF4F80819181DC01ED91FC910480F581A0
:102DF000E02D099508951F93CF93DF93EC01162FD3
:102E00000E941B196A837B838C839D83CE5BDF4F7B
:102E10006CEE71E0888199810E94831D4AE050E048
:102E2000612F888199810E94721E63EF71E0888111
:102E300099810E94831D62E370E080E090E0DF9161
:102E4000CF911F910C944C191F93CF93DF93FC01EA
:102E50002689222311F1162FEC010E94EE16811112
:102E60000CC085E61BC0CE010E94E1168836A9F091
:102E700050F0813791F0863789F0CE010E94EE162E
:102E80008111F1CFEECF883539F08336B1F7612F5C
:102E9000CE010E94FB1601C01E8A83E6DF91CF910E
:102EA0001F9108950F931F93CF93DF931F92CDB778
:102EB000DEB78C01611108C0F801468B0F90DF91DD
:102EC000CF911F910F91089581E0F801868B60E00A
:102ED000C80149830E94241749818336C1F7ECCF8A
:102EE000EDE9F6E0168217821086118612861386A7
:102EF0001486158616861786108A118A128A138AF6
:102F0000148A158A089508950E9488190E948317CB
:102F10008CED97E00E94A12389B5806189BD09B439
:102F200000FEFDCF0E942306C8EFDBE10E941107DF
:102F30002097E1F30E94F81BF9CF0895853008F03F
:102F40004CC0E82FF0E0EE0FFF1FEC5DFE4F7183E9
:102F500060838230E1F018F4813069F004C083307E
:102F600019F1843071F1809169008C7F482B409376
:102F70006900E89A089580916900440F551F440F35
:102F8000551F837F482B40936900E99A08958091EB
:102F9000690034E0440F551F3A95E1F78F7C482BC8
:102FA00040936900EA9A08958091690026E0440FF1
:102FB000551F2A95E1F78F73482B40936900EB9AD0
:102FC000089580916A0094E0440F551F9A95E1F7A7
:102FD0008F7C482B40936A00EE9A08958530E8F480
:102FE000823061F018F4813039F004C0833041F050
:102FF000843041F0E89807C0E99805C0EA9803C01A
:10300000EB9801C0EE98E82FF0E0EE0FFF1FEC5DAB
:10301000FE4F8DE997E19183808308951F920F926F
:103020000FB60F9211242F933F934F935F936F939B
:103030007F938F939F93AF93BF93EF93FF93E09111
:103040002401F09125010995FF91EF91BF91AF9176
:103050009F918F917F916F915F914F913F912F91B0
:103060000F900FBE0F901F9018951F920F920FB6E2
:103070000F9211242F933F934F935F936F937F93FE
:103080008F939F93AF93BF93EF93FF93E0912601AC
:10309000F09127010995FF91EF91BF91AF919F9119
:1030A0008F917F916F915F914F913F912F910F90F1
:1030B0000FBE0F901F9018951F920F920FB60F9290
:1030C00011242F933F934F935F936F937F938F932D
:1030D0009F93AF93BF93EF93FF93E0912801F091FB
:1030E00029010995FF91EF91BF91AF919F918F9128
:1030F0007F916F915F914F913F912F910F900FBEF4
:103100000F901F9018951F920F920FB60F921124D7
:103110002F933F934F935F936F937F938F939F93DF
:10312000AF93BF93EF93FF93E0912A01F0912B01AE
:103130000995FF91EF91BF91AF919F918F917F91F1
:103140006F915F914F913F912F910F900FBE0F9014
:103150001F9018951F920F920FB60F9211242F9364
:103160003F934F935F936F937F938F939F93AF930F
:10317000BF93EF93FF93E0912C01F0912D010995FE
:10318000FF91EF91BF91AF919F918F917F916F913F
:103190005F914F913F912F910F900FBE0F901F9015
:1031A00018951F920F920FB60F9211242F933F93F1
:1031B0008F939F93AF93BF938091E6069091E7061C
:1031C000A091E806B091E9063091E50626E0230FCC
:1031D0002D3720F40296A11DB11D05C029E8230F4B
:1031E0000396A11DB11D2093E5068093E6069093FA
:1031F000E706A093E806B093E9068091EA0690916D
:10320000EB06A091EC06B091ED060196A11DB11D53
:103210008093EA069093EB06A093EC06B093ED063C
:10322000BF91AF919F918F913F912F910F900FBEC2
:103230000F901F9018952FB7F8946091E606709143
:10324000E7068091E8069091E9062FBF08953FB701
:10325000F8948091EA069091EB06A091EC06B0916B
:10326000ED0626B5A89B05C02F3F19F00196A11DBC
:10327000B11D3FBFBA2FA92F982F8827820F911D0C
:10328000A11DB11DBC01CD0143E0660F771F881F52
:10329000991F4A95D1F708958F929F92AF92BF924E
:1032A000CF92DF92EF92FF926B017C010E9427196F
:1032B0004B015C01C114D104E104F10401F10E944D
:1032C000C0230E942719DC01CB0188199909AA099A
:1032D000BB09883E9340A105B10560F321E0C21A05
:1032E000D108E108F10888EE880E83E0981EA11C41
:1032F000B11CC114D104E104F10419F7DBCFFF9034
:10330000EF90DF90CF90BF90AF909F908F900895F7
:10331000789484B5826084BD84B5816084BD85B5B0
:10332000826085BD85B5816085BDEEE6F0E0808177
:1033300081608083E1E8F0E0108280818260808398
:10334000808181608083E0E8F0E08081816080831B
:10335000E1E9F0E080818260808380818160808308
:10336000E0E9F0E0808181608083E1ECF0E0808141
:10337000846080838081826080838081816080839B
:10338000E3ECF0E0808181608083E0ECF0E080811C
:1033900082608083E2ECF0E0808181608083EAE7F4
:1033A000F0E080818460808380818260808380817E
:1033B0008E7F8083808180688083089590E0FC0107
:1033C0003197EF30F105B0F5EA5AFF4F0C9413270F
:1033D000809180008F7703C0809180008F7D8093E3
:1033E0008000089580918000877FF9CF84B58F7722
:1033F00002C084B58F7D84BD0895809190008F7741
:1034000007C0809190008F7D03C080919000877FDE
:103410008093900008958091C0008F7703C08091C1
:10342000C0008F7D8093C00008958091C200877F87
:103430008093C2000895CF93DF9390E0FC01EF5793
:10344000FB4F2491FC01E056FB4F8491882361F1EE
:1034500090E0880F991FFC01E552FB4FC591D49174
:10346000FC01E353FB4FA591B491611109C09FB7D3
:10347000F8948881209582238883EC912E230BC0B9
:10348000623061F49FB7F8943881822F809583234E
:103490008883EC912E2B2C939FBF06C08FB7F89496
:1034A000E8812E2B28838FBFDF91CF9108951F9342
:1034B000CF93DF93282F30E0F901EE59FB4F849131
:1034C000F901EF57FB4FD491F901E056FB4FC4913E
:1034D000CC23C9F0162F81110E94DE19EC2FF0E0E9
:1034E000EE0FFF1FE353FB4FA591B4918FB7F894F4
:1034F000111105C09C91ED2FE095E92302C0EC91DC
:10350000ED2BEC938FBFDF91CF911F910895CF9357
:10351000DF93282F30E0F901EE59FB4F8491F90138
:10352000EF57FB4FD491F901E056FB4FC491CC23E8
:1035300091F081110E94DE19EC2FF0E0EE0FFF1FD9
:10354000E154FB4FA591B491EC91ED2381E090E023
:1035500021F480E002C080E090E0DF91CF910895F7
:10356000CF93DF931F92CDB7DEB76983DC01ED9176
:10357000FC910280F381E02D41E050E0BE016F5FDD
:103580007F4F09950F90DF91CF910895CF93DF93EF
:10359000EC018C859D8597FF05C082E00E94832009
:1035A0009D878C878C859D85DF91CF91089583E0E1
:1035B0000C941623FC018485958597FD06C082E056
:1035C0000E942D2090E00196089582E00E942D2017
:1035D00090E00895FC018485958597FD05C02FEF47
:1035E0003FEF35872487089582E00C948320CF93A2
:1035F000DF93EC0180913901882331F083E00E9450
:10360000B4201816190634F081E090E09B838A8379
:1036100080E090E0DF91CF910895FC0190819E5F62
:10362000908342E450E069EE74E080E80C94552108
:10363000FC0181819081913A59F4813209F048C0AE
:1036400047E050E062E371E080E00E94552176C0DF
:103650009132F1F5833291F49381892F90E0982F84
:1036600088272281822BA0E0B0E080932E019093E6
:103670002F01A0933001B093310160C0803239F442
:1036800067E070E082E391E00E947C2106C0823214
:1036900009F054C082818093390180913E078823CC
:1036A00019F0EEEFFAE002C0E0E0F8E080913201BC
:1036B00090913301A0913401B0913501803B944049
:1036C000A105B10539F48091390180FF1FC002C006
:1036D00080E008950FB6F894A89580916000886105
:1036E00080936000109260000FBEA895EE3F8AE0C4
:1036F000F80739F08091FE0A9091FF0A9183808348
:103700001DC01092FF0A1092FE0A18C0EE3F2AE078
:10371000F20731F0808191819093FF0A8093FE0A35
:1037200087E797E7918380839BE088E10FB6F89461
:10373000A895809360000FBE9093600081E008958B
:103740002FEF3FEFFC01358724870895CF93C09179
:1037500039016AE070E080E090E00E944C1981E05D
:10376000C11101C080E0CF910895EEEEF6E0138222
:10377000128288EE93E0A0E0B0E084839583A68374
:10378000B78388E492E0918380838FEF9FEF9587E2
:1037900084870895FC01918D228D892F90E0805CB3
:1037A0009F4F821B91098F7399270895FC01918D7A
:1037B000828D981731F0828DE80FF11D858D90E094
:1037C00008958FEF9FEF0895FC01918D828D9817DA
:1037D00061F0828DDF01A80FB11D5D968C91928DF5
:1037E0009F5F9F73928F90E008958FEF9FEF0895F2
:1037F00088EE9CE1892B49F080E090E0892B29F04C
:103800000E94E81C81110C9400000895FC01848D35
:10381000DF01A80FB11DA35ABF4F2C91848D90E0FA
:1038200001968F739927848FA689B7892C93A089D5
:10383000B1898C9180648C93938D848D981306C08C
:103840000288F389E02D80818F7D80830895CF9356
:10385000DF93EC01888D8823C9F0EA89FB89808198
:1038600085FD05C0A889B9898C9186FD0FC00FB66A
:1038700007FCF5CF808185FFF2CFA889B9898C91AB
:1038800085FFEDCFCE010E94061CE7CFDF91CF91DF
:103890000895EF92FF920F931F93CF93DF93EC0164
:1038A00081E0888F9B8D8C8D981305C0E889F989FC
:1038B000808185FD24C0F62E0B8D10E00F5F1F4F19
:1038C0000F731127E02E8C8DE8120CC00FB607FC89
:1038D000FACFE889F989808185FFF5CFCE010E9472
:1038E000061CF1CF8B8DFE01E80FF11DE35AFF4F4F
:1038F000F0820B8FEA89FB898081806207C0EE89A4
:10390000FF896083E889F98980818064808381E010
:1039100090E0DF91CF911F910F91FF90EF9008956C
:103920001F920F920FB60F9211242F938F939F9394
:10393000EF93FF93E0914F07F09150078081E09162
:103940005507F091560782FD12C09081809158076B
:103950008F5F8F7320915907821751F0E0915807BC
:10396000F0E0E15CF84F958F8093580701C08081AB
:10397000FF91EF919F918F912F910F900FBE0F901C
:103980001F9018951F920F920FB60F9211242F932C
:103990003F934F935F936F937F938F939F93AF93D7
:1039A000BF93EF93FF938FE397E00E94061CFF9174
:1039B000EF91BF91AF919F918F917F916F915F91A7
:1039C0004F913F912F910F900FBE0F901F90189520
:1039D0008FE397E00E94CA1B21E0892B09F420E0C5
:1039E000822F0895EFE3F7E01382128288EE93E0CE
:1039F000A0E0B0E084839583A683B78388E592E056
:103A0000918380838DEC90E0958784878CEC90E0A7
:103A10009787868788EC90E0918B808B89EC90E08B
:103A2000938B828B8AEC90E0958B848B8EEC90E06C
:103A3000978B868B118E128E138E148E0895CF92D3
:103A4000DF92EF92FF920F931F93CF93DF936C015E
:103A50007A018B01C0E0D0E0CE15DF0589F0D801F6
:103A60006D918D01D601ED91FC910190F081E02DD9
:103A7000C6010995892B11F47E0102C02196ECCF75
:103A8000C701DF91CF911F910F91FF90EF90DF90D1
:103A9000CF9008956115710579F0FB010190002028
:103AA000E9F73197AF01461B570BDC01ED91FC9113
:103AB0000280F381E02D099480E090E00895EF9278
:103AC000FF920F931F93CF93DF938C017B01C0E094
:103AD000D0E0F701EC0FFD1F6491662361F0D8017F
:103AE000ED91FC910190F081E02DC8010995892BA1
:103AF00011F02196EECFCE01DF91CF911F910F9162
:103B0000FF90EF9008950C944A1DDC01ED91FC911B
:103B10000190F081E02D099469EF71E00C944A1D49
:103B20000F931F93CF93DF93EC010E945F1D8C01D5
:103B3000CE010E948C1D800F911FDF91CF911F91AC
:103B40000F9108950F931F93CF93DF93EC010E9481
:103B50004A1D8C01CE010E948C1D800F911FDF91A8
:103B6000CF911F910F9108954F925F926F927F9224
:103B7000EF92FF920F931F93CF93DF93CDB7DEB7F2
:103B8000A1970FB6F894DEBF0FBECDBF7C01FA013E
:103B9000CB0119A2223008F42AE08E010F5D1F4FDD
:103BA000422E512C612C712CBF01A30192010E9465
:103BB000F126F901CA01015011096A3014F4605D5F
:103BC00001C0695CD8016C93232B242B252B61F752
:103BD000B801C7010E944A1DA1960FB6F894DEBF36
:103BE0000FBECDBFDF91CF911F910F91FF90EF904E
:103BF0007F906F905F904F900895CF92DF92EF92F9
:103C0000FF920F931F93CF93DF93EC016A017B0127
:103C10002115310579F4E881F9810190F081E02DD9
:103C2000642FDF91CF911F910F91FF90EF90DF9064
:103C3000CF9009942A303105E9F477FF1AC06DE27C
:103C40000E94851D8C0144275527BA014C195D0936
:103C50006E097F092AE0CE010E94B41D800F911FDA
:103C6000DF91CF911F910F91FF90EF90DF90CF9058
:103C700008952AE0B701A601CE01DF91CF911F91EF
:103C80000F91FF90EF90DF90CF900C94B41D9A01AC
:103C9000AB01770F660B770B0C94FD1D0F931F93F1
:103CA000CF93DF93EC019A01AB01770F660B770B93
:103CB0000E94FD1D8C01CE010E948C1D800F911F62
:103CC000DF91CF911F910F9108952115310541F496
:103CD000DC01ED91FC910190F081E02D642F0994BD
:103CE0000C94B41D9A01462F50E060E070E00C94F3
:103CF000651E0F931F93CF93DF93EC019A01462F1C
:103D000050E060E070E00E94651E8C01CE010E94D0
:103D10008C1D800F911FDF91CF911F910F910895FE
:103D20004F925F926F927F928F929F92AF92BF92CB
:103D3000CF92DF92EF92FF92CF93DF93EC016A0173
:103D40007B01B22E9A01AB01C701B6010E94D726B2
:103D5000882319F064E672E027C026013701E89451
:103D600077F82FEF3FEF4FE75FE7C301B2010E9403
:103D7000D72681110DC02FEF3FEF4FE75FE7C3015B
:103D8000B2010E94C72418161CF468E672E00CC049
:103D90002FEF3FEF4FE75FE4C701B6010E941F26F8
:103DA00018169CF46CE672E0CE01DF91CF91FF9083
:103DB000EF90DF90CF90BF90AF909F908F907F90CB
:103DC0006F905F904F900C944A1D2FEF3FEF4FE79D
:103DD0005FECC701B6010E94C72487FDE3CF20E056
:103DE00030E0A901C701B6010E94C72487FF0AC0BD
:103DF0006DE2CE010E94851D4C01F7FAF094F7F8B0
:103E0000F09402C0812C912CA12C60E070E080E045
:103E10009FE3AB1441F020E030E040E251E40E9427
:103E2000CC24A394F6CF9B01AC01C701B6010E943C
:103E30005B242B013C010E943E256B017C010E940A
:103E40006D259B01AC01C301B2010E945A242B01D4
:103E50003C012AE0B701A601CE010E94B41D7C01FD
:103E6000E80CF91CBB2031F06EE2CE010E94851DEA
:103E7000E80EF91EDB2CDD2029F120E030E040E2E5
:103E800051E4C301B2010E9424262B013C010E948F
:103E90003E254B01A12CB12C2AE0B501A401CE0195
:103EA0000E94B41DE80EF91EC501B4010E946D25E3
:103EB0009B01AC01C301B2010E945A242B013C01B9
:103EC000DA94D9CFC701DF91CF91FF90EF90DF90C7
:103ED000CF90BF90AF909F908F907F906F905F90AA
:103EE0004F9008950C94901E615030F02091F10095
:103EF000FC0120830196F8CF289A84E68093E50799
:103F000008954091E0075091E1072091DE0730913C
:103F1000DF0742175307B4F49091E8009570E1F37E
:103F20009091E80092FD19C08093F1008091E00724
:103F30009091E10701968F739927892B19F48EEFE1
:103F40008093E8008091E0079091E10701969093BB
:103F5000E1078093E00781E0089580E00895CF9223
:103F6000DF92EF92FF920F931F93CF93DF931F92F5
:103F7000CDB7DEB7182F062FE42E862F880F8E5F61
:103F800099830E94811F83E00E94811FF12EC12E20
:103F90009981D92E8C2D8F19801798F4F601E7FEA0
:103FA00002C0849101C080810E94811F182F80E08F
:103FB0000E94811F8123FFEFCF1ADF0A8111EACF10
:103FC00001C081E00F90DF91CF911F910F91FF9081
:103FD000EF90DF90CF9008958091D700816080931B
:103FE000D70080EA8093D80089B58F7E89BD89B5D6
:103FF000826089BD09B400FEFDCF61E070E080E021
:1040000090E00E944C198091D8008F7C8061809351
:10401000D8008091E000807F8093E0000895CF93E6
:10402000DF931F92CDB7DEB71982CE0101960E94B1
:104030000D1B0E944624BE016F5F7F4F0E94C1236B
:1040400089810F90DF91CF9108952FB7FC012083D4
:10405000F89467706093E9000895CF93DF931F92FF
:10406000CDB7DEB7682FCE0101960E942520809142
:10407000F20099819FBF0F90DF91CF910895EF9249
:10408000FF920F931F93CF93DF931F92CDB7DEB7AD
:104090009091E407992311F057FF03C08FEF9FEF32
:1040A0002AC08A017B01682FCE0101960E9425203B
:1040B0008091F20090E0A801801791070CF4AC0108
:1040C000842FF70194E6815038F0289A9093E50701
:1040D0002091F1002193F7CF4115510521F08091F6
:1040E000F200882321F089818FBFCA0104C08BE6CA
:1040F0008093E800F8CF0F90DF91CF911F910F913F
:10410000FF90EF900895CF93DF931F92CDB7DEB766
:1041100041E050E0BE016F5F7F4F0E943F2001975A
:1041200019F4898190E002C08FEF9FEF0F90DF912B
:10413000CF910895CF93DF931F92CDB7DEB7682F4D
:10414000CE0101960E9425209091E800892F80726F
:1041500095FF04C09091F2008FE3891B99819FBF66
:104160000F90DF91CF9108956F927F928F929F92DF
:10417000AF92BF92CF92DF92EF92FF920F931F9375
:10418000CF93DF931F92CDB7DEB7A82E6B01B42E6D
:10419000052F8091E407811103C08FEF9FEF6AC064
:1041A0008091E20780FF05C08091E00082608093EB
:1041B000E000EB2CF02E8AEF982E8A2D8072782E5C
:1041C0009AE3892E8A2D8074682EE114F10409F493
:1041D00047C08A2D0E949A20182F81110AC09A94F4
:1041E0009920D9F261E070E080E090E00E944C19E3
:1041F000ECCF90E0E816F9060CF41E2D6A2DCE01E6
:1042000001960E9425208091E80085FF26C0812F1D
:1042100090E0E81AF90A772029F01150A8F01092DE
:10422000F100FBCFF601A7FE07C0115058F0249112
:104230002093F1003196F9CF115020F02191209375
:10424000F100FACFC80ED91E8091E80085FF0FC09B
:10425000E114F10411F461100AC089818FBFB5CF58
:104260005D9A84E68093E6078B2D902F03C08092A1
:10427000E800F3CF0F90DF91CF911F910F91FF9046
:10428000EF90DF90CF90BF90AF909F908F907F90F6
:104290006F9008951092E9001092E1071092E007E4
:1042A0009093DF078093DE070895DF92EF92FF92ED
:1042B0000F931F93CF93DF93D82E8A017B01E40ED7
:1042C000F51EEB01CE15DF0571F0D7FE03C0FE0130
:1042D000849101C088810E94811F21968111F2CFB3
:1042E0008FEF9FEF01C0C801DF91CF911F910F9118
:1042F000FF90EF90DF900895BF92CF92DF92EF9200
:10430000FF920F931F93CF93DF936C018B01EB010F
:104310009BEFB92E2097C1F07E01C134D1051CF06E
:1043200080E4E82EF12C8091E80082FFFCCFC801E8
:104330008C1B9D0B6E2D8C0D9D1D0E94741FB092C9
:10434000E800CE19DF09E6CFC801DF91CF911F91B8
:104350000F91FF90EF90DF90CF90BF9008951F9244
:104360000F920FB60F921124CF92DF92EF92FF922D
:104370000F931F932F933F934F935F936F937F936D
:104380008F939F93AF93BF93EF93FF93CF93DF935D
:10439000CDB7DEB76C97DEBFCDBF1092E90080913C
:1043A000E80083FF24C168E0CE0145960E94741F97
:1043B00082EF8093E8008D8987FF05C09091E80027
:1043C00090FFFCCF03C09EEF9093E800982F90766B
:1043D00009F0F1C09E892F89188D91110CC0803889
:1043E00029F48091E3078093F10002C01092F1005C
:1043F0001092F100F5C0422F50E0512B913051F452
:104400008111EEC04130510509F0EAC08091E30707
:104410008D7F0BC0933061F48111E2C041305105B2
:1044200009F0DEC08091E30782608093E307D8C083
:10443000953041F48091E80080FFFCCF2068209304
:10444000E300CEC0963009F08CC0EB8CFC8C1230AF
:1044500069F580E090E00E944A210E940F2099E0D7
:104460009E012F5F3F4F6901F901292F11922A9573
:10447000E9F799831A8391E09E8390EA98879AEFEF
:1044800099872091E0073091E107275F3F4F3C83F8
:104490002B838D83C7010E944A2149E050E0B60179
:1044A00080E00E9455210E940F209AC0C7010E94FF
:1044B0004A210E944624BE016B5E7F4F0E94EA2380
:1044C000009719F00CF08CC08FC0113071F48B8DF7
:1044D0009C8D089719F481E08093DD078091DD07BA
:1044E00081112FC06DE375E031C0133009F07CC03D
:1044F0008F89882349F1823029F440E86FE087E50D
:1045000095E006C0813039F440E867E08FE495E03B
:104510000E94AF1F63C0833009F066C00E9446242A
:104520008E010F5F1F4FB8010E940924F80101900E
:104530000020E9F73197BF01601B710B40E0C80113
:10454000E7CF6BE275E002C067E675E061157105C3
:1045500009F44AC0FB01449150E080E80E945521D3
:104560003FC0973009F440C0983021F481E0809337
:10457000F10036C09930A1F58370B1F5EBE3F1E0BD
:1045800081E021E036E39081992361F08093E90096
:104590002093EB0091919093EC003093ED008F5FAE
:1045A000873089F78EE78093EA001092EA008F89BE
:1045B0008093E40715C08B8D9C8D0E944A21898DC4
:1045C000811105C0CE0145960E94181B07C00E94AC
:1045D0004624BE016B5E7F4F0E942824882321F071
:1045E0008EEF8093E80003C081E28093EB006C962D
:1045F0000FB6F894DEBF0FBECDBFDF91CF91FF9114
:10460000EF91BF91AF919F918F917F916F915F914A
:104610004F913F912F911F910F91FF90EF90DF905D
:10462000CF900F900FBE0F901F9018958093E900C8
:104630008091F200882319F08AE38093E8000895BE
:104640001F920F920FB60F9211242F933F934F9307
:104650005F936F937F938F939F93AF93BF93CF930A
:10466000EF93FF93C091E1008091E100837F8093FD
:10467000E100C3FF0FC01092E90081E08093EB00DE
:104680001092EC0082E38093ED001092E40788E042
:104690008093F000C2FF19C083E00E94162380912E
:1046A000E607882339F08091E60781508093E6077A
:1046B000882389F18091E507882339F08091E50707
:1046C00081508093E507882341F1C4FF10C0809199
:1046D000E2008E7E81608093E2008091E1008F7E17
:1046E0008093E1008091E2078E7E806111C0C0FF5F
:1046F00016C08091E2008E7E80618093E2008091FE
:10470000E1008E7E8093E1008091E2078E7E8160E1
:104710008093E20704C05D98CDCF2898D6CFFF9153
:10472000EF91CF91BF91AF919F918F917F916F91B9
:104730005F914F913F912F910F900FBE0F901F905F
:1047400018951092E4071092E3071092E2070E9476
:10475000EC1F8091E1008E7E8093E1008DE08093DC
:10476000E200559A209A5D982898EEEFFFE7859130
:1047700094918B3F9C4D19F481E080933E070895FE
:104780000895EF92FF920F931F93CF93DF937B01D6
:10479000FC01C281D38100E010E0209781F0E88124
:1047A000F9810280F381E02DB701CE01099597FDD3
:1047B00008C0080F191F0884D985C02DEECFC80185
:1047C00002C08FEF9FEFDF91CF911F910F91FF906C
:1047D000EF9008950F931F93CF93DF938B01FC010C
:1047E000C281D381209771F0E881F9810480F5813D
:1047F000E02DB801CE010995009731F40884D985E0
:10480000C02DF0CF80E090E0DF91CF911F910F910C
:1048100008950F931F93CF93DF938B01FC01C28107
:10482000D381209771F0E881F9810680F781E02D2E
:10483000B801CE010995080F111D0884D985C02D36
:10484000F0CFF8011082DF91CF911F910F91089561
:104850000F931F93CF93DF938B01FC01C281D38110
:10486000209771F0E881F9810190F081E02DB80185
:10487000CE010995811105C00884D985C02DF0CFDE
:1048800080E0DF91CF911F910F9108958091EB0708
:1048900081110DC082E08093E70784E08093E807F0
:1048A0001092EA071092E90781E08093EB0787EE08
:1048B00097E008955058BB27AA270E9472240C94B1
:1048C000E5250E94D72538F00E94DE2520F039F436
:1048D0009F3F19F426F40C94D4250EF4E095E7FBE1
:1048E0000C94CE25E92F0E94F62558F3BA176207DB
:1048F00073078407950720F079F4A6F50C94182621
:104900000EF4E0950B2EBA2FA02D0B01B9019001EA
:104910000C01CA01A0011124FF27591B99F0593F2E
:1049200050F4503E68F11A16F040A22F232F342F76
:104930004427585FF3CF469537952795A795F040C4
:104940005395C9F77EF41F16BA0B620B730B840BD9
:10495000BAF09150A1F0FF0FBB1F661F771F881F91
:10496000C2F70EC0BA0F621F731F841F48F48795E9
:1049700077956795B795F7959E3F08F0B0CF9395DB
:10498000880F08F09927EE0F9795879508950E9454
:10499000AA2508F481E008950E94E0240C94E525FE
:1049A0000E94DE2558F00E94D72540F029F45F3F91
:1049B00029F00C94CE2551110C9419260C94D42571
:1049C0000E94F62568F39923B1F3552391F3951BC3
:1049D000550BBB27AA2762177307840738F09F5F20
:1049E0005F4F220F331F441FAA1FA9F335D00E2E8D
:1049F0003AF0E0E832D091505040E695001CCAF7FA
:104A00002BD0FE2F29D0660F771F881FBB1F2617BC
:104A100037074807AB07B0E809F0BB0B802DBF0193
:104A2000FF2793585F4F3AF09E3F510578F00C9462
:104A3000CE250C9419265F3FE4F3983ED4F3869577
:104A400077956795B795F7959F5FC9F7880F911D83
:104A50009695879597F90895E1E0660F771F881F6F
:104A6000BB1F621773078407BA0720F0621B730B22
:104A7000840BBA0BEE1F88F7E09508950E94FE257F
:104A800088F09F5798F0B92F9927B751B0F0E1F00F
:104A9000660F771F881F991F1AF0BA95C9F714C0BF
:104AA000B13091F00E941826B1E008950C941826B8
:104AB000672F782F8827B85F39F0B93FCCF38695F8
:104AC00077956795B395D9F73EF490958095709555
:104AD00061957F4F8F4F9F4F0895E89409C097FBD2
:104AE0003EF490958095709561957F4F8F4F9F4FC5
:104AF0009923A9F0F92F96E9BB279395F695879509
:104B000077956795B795F111F8CFFAF4BB0F11F4CB
:104B100060FF1BC06F5F7F4F8F4F9F4F16C0882372
:104B200011F096E911C0772321F09EE8872F762FA8
:104B300005C0662371F096E8862F70E060E02AF0E9
:104B40009A95660F771F881FDAF7880F96958795D5
:104B500097F90895990F0008550FAA0BE0E8FEEFAA
:104B600016161706E807F907C0F012161306E40731
:104B7000F50798F0621B730B840B950B39F40A262A
:104B800061F0232B242B252B21F408950A2609F408
:104B9000A140A6958FEF811D811D089597F99F670C
:104BA00080E870E060E008959FEF80EC08950024B5
:104BB0000A941616170618060906089500240A9482
:104BC00012161306140605060895092E0394000C08
:104BD00011F4882352F0BB0F40F4BF2B11F460FF97
:104BE00004C06F5F7F4F8F4F9F4F089557FD9058C0
:104BF000440F551F59F05F3F71F04795880F97FBA1
:104C0000991F61F09F3F79F087950895121613065A
:104C10001406551FF2CF4695F1DF08C01616170689
:104C20001806991FF1CF86957105610508940895BE
:104C3000E894BB2766277727CB0197F908950E9450
:104C4000AA2508F48FEF08950E9437260C94E525D5
:104C50000E94D72538F00E94DE2520F0952311F020
:104C60000C94CE250C94D42511240C9419260E9462
:104C7000F62570F3959FC1F3950F50E0551F629F85
:104C8000F001729FBB27F00DB11D639FAA27F00DA5
:104C9000B11DAA1F649F6627B00DA11D661F829FCC
:104CA0002227B00DA11D621F739FB00DA11D621FB1
:104CB000839FA00D611D221F749F3327A00D611DCE
:104CC000231F849F600D211D822F762F6A2F1124B0
:104CD0009F5750409AF0F1F088234AF0EE0FFF1FE3
:104CE000BB1F661F771F881F91505040A9F79E3F3A
:104CF000510580F00C94CE250C9419265F3FE4F307
:104D0000983ED4F3869577956795B795F795E7958F
:104D10009F5FC1F7FE2B880F911D9695879597F998
:104D2000089519F416F40C94D4250C94DC260E94F2
:104D3000FE25B8F39923C9F3B6F39F57550B87FFA8
:104D40000E94EA260024A0E640EA90018058569589
:104D5000979528F4805C660F771F881F20F0261730
:104D60003707480730F4621B730B840B2029312965
:104D70004A2BA69517940794202531254A2758F7E2
:104D8000660F771F881F20F026173707480730F473
:104D9000620B730B840B200D311D411DA09581F713
:104DA000B901842F9158880F9695879508950E9490
:104DB000AA25880B990B08959F3F31F0915020F45C
:104DC000879577956795B795880F911D96958795E7
:104DD00097F9089591505040660F771F881FD2F7BA
:104DE0000895A1E21A2EAA1BBB1BFD010DC0AA1F2C
:104DF000BB1FEE1FFF1FA217B307E407F50720F044
:104E0000A21BB30BE40BF50B661F771F881F991FBE
:104E10001A9469F760957095809590959B01AC0107
:104E2000BD01CF010895EE0FFF1F0590F491E02D15
:104E30000994FB01DC0102C001900D9241505040E9
:104E4000D8F70895FB01DC010D900020E9F71197D8
:104E500001900D920020E1F70895FB01DC01019023
:104E60000D920020E1F70895BB274A3031F49923D1
:104E700022F4BDE2909581959F4F0C944027BB276B
:104E8000FB015527AA27880F991FAA1FA41710F006
:104E9000A41B83955051B9F7A05DAA3308F0A95D12
:104EA000A193009779F7B111B1931192CB010C94B2
:104EB0005927DC01FC01672F71917723E1F73297C5
:104EC00004C07C916D9370836291AE17BF07C8F3E5
:064ED0000895F894FFCFE5
:104ED6000000F50780000706426C656E644D696345
:104EE600726F000180000104000108000102000148
:104EF6008000E8039D179D179D179D179D17FFFFBF
:104F0600FFFF00E100000000000000C180810000FA
:104F16000062746E2074696D65206F6E00564D4494
:104F260050565F317C315F564D4450560D0A004451
:104F360065767369676E004F4B007C003131313105
:104F4600002F00300000000000000AD009A409ACC0
:104F560009C009CF09433A5C55736572735C766B79
:104F6600646C735C446F63756D656E74735C4172DB
:104F76006475696E6F5C6C69627261726965735C97
:104F86004E6F7264696353656D69636F6E647563B2
:104F9600746F725C6163695F71756575652E6370A8
:104FA6007000203A002045004300564D4450455FAE
:104FB600003A323A005F564D44504500564D445033
:104FC600435F005F564D4450430D0A004572726FB1
:104FD600723A20417474656D707420746F20736525
:104FE60074206120726561642D6F6E6C7920766124
:104FF600726961626C65206F7220646174612074ED
:10500600797065206E6F7420737570706F72746539
:10501600640D0A0000000000B01AF71ADA1AEA1A3C
:10502600C61AD71A00000000491C1F1DCA1BE41B24
:10503600D61B271C6E616E00696E66006F76660071
:00000001FF
