:100000000C9432010C9413060C94EC050C94C50569
:100010000C949E050C945A010C945A010C9477058B
:100020000C945A010C94BB060C94A60A0C94140C64
:100030000C945A010C945A010C945A010C945A01D4
:100040000C945A010C945A010C945A010C945A01C4
:100050000C945A010C945A010C945A010C942D05DD
:100060000C945A010C945A010C945A010C945A01A4
:100070000C945A010C945A010C945A010C945A0194
:100080000C945A010C945A010C945A010C945A0184
:100090000C944B070C945A010C945A010C945A017D
:1000A0000C945A010C945A010C945A019D02A0021E
:1000B0008F0293029702C102C102C102A402A802E8
:1000C000AC02B202B602C102BC0200000000240071
:1000D00027002A002D0030000000000200090F0058
:1000E00000030401000C00000000000000000000FC
:1000F0000000000000000044657669636520494403
:100100003A200047593932353020696E6974696187
:100110006C697A696E672E2E2E2E0053656E736F92
:100120007220656E61626C65643A2000475939320D
:10013000353020636F6E6E656374696F6E20737502
:10014000636365737366756C6C792E004759393239
:10015000353020636F6E6E656374696F6E20666103
:10016000696C65642E00496E697469616C6C697AAA
:10017000696E672042542053657269616C20706F0C
:1001800072742E2E2E0053657269616C2072656147
:1001900064792E0000000000250028002B002E00AE
:1001A0003100000000002300260029002C002F0051
:1001B000040404040403040502020202040302020C
:1001C00002020606060606060404020202040404ED
:1001D0000802011040804010204080408008020446
:1001E0000180402010020110801020404020080BA8
:1001F00000020202010009040000010202000005E1
:10020000240010010524010101042402060524062E
:1002100000010705810310004009040100020A00E3
:1002200000000705020240000007058302400000AD
:100230000403090412010002EF0201404123378048
:1002400000010102030141726475696E6F204C4C1C
:10025000430041726475696E6F204D6963726F006F
:10026000E210D81011241FBECFEFDAE0DEBFCDBF01
:1002700011E0A0E0B1E0E6E9F4E202C005900D92E1
:10028000A436B107D9F723E0A4E6B1E001C01D927E
:10029000A435B207E1F711E0C1E3D1E004C0219732
:1002A000FE010E941F12C033D107C9F70E94440EFD
:1002B0000C943E120C940000CF93DF931F92CDB7A5
:1002C000DEB76983DC01ED91FC910280F381E02DC2
:1002D00041E050E0BE016F5F7F4F09950F90DF91C5
:1002E000CF91089583E08093E9008091F200882304
:1002F00019F08AE38093E8000895FC0184859585D0
:1003000097FD0BC09FB7F89482E08093E90080913D
:10031000F2009FBF90E0019608959FB7F89482E0A5
:100320008093E9008091F2009FBF90E008957F9252
:100330008F929F92AF92BF92CF92DF92EF92FF92F5
:100340000F931F93CF93DF936C015B017A01809130
:100350001901882309F46BC080910702882309F4EE
:1003600066C08091040280FF05C08091E000826039
:100370008093E000E70110E00AEF83E0982E90E41C
:10038000792E2AE3822E209709F448C08FB7F8947B
:100390009092E9009091E80095FF06C09091F200DC
:1003A000272D291B922F01C090E08FBF91110AC009
:1003B000015009F43CC061E070E080E090E00E94F0
:1003C0009A04E1CF292F30E0C217D3070CF49C2FF9
:1003D0008FB7F8949092E9002091E80025FF1CC0A7
:1003E000292F30E0C21BD30BF501915020F0419131
:1003F0004093F100FACFA20EB31E112319F08092A0
:10040000E80009C09091E80095FD06C08092E800E0
:1004100011E0209709F010E08FBFB5CF1111B6CFD2
:100420005D9A84E6809305021E141F0444F081E067
:1004300090E0F6019383828380E090E001C0C701E1
:10044000DF91CF911F910F91FF90EF90DF90CF90B0
:10045000BF90AF909F908F907F9008950F931F93C0
:10046000CF93DF931F92CDB7DEB78C01FC0184855B
:10047000958597FF0EC0CE0101960E94680A0197EC
:1004800019F4298130E002C02FEF3FEFF8013587E2
:100490002487F801848595850F90DF91CF911F9176
:1004A0000F910895CF93DF931F92CDB7DEB7FC0174
:1004B0008485958597FD05C02FEF3FEF358724870D
:1004C0000BC0CE0101960E94680A019719F4898138
:1004D00090E002C08FEF9FEF0F90DF91CF910895D2
:1004E0000E943912362F90E0FC01E852FF4F4491F0
:1004F000FC01E153FE4F2491FC01E055FE4F849135
:10050000882309F451C04423E1F150E0FA01319706
:10051000EF30F105B0F5EA5AFF4F0C941F1290919D
:1005200080009F7707C0909180009F7D03C09091CD
:100530008000977F9093800024C094B59F7702C07D
:1005400094B59F7D94BD1DC0909190009F7707C08A
:10055000909190009F7D03C090919000977F909321
:1005600090000FC09091C0009F7703C09091C00091
:100570009F7D9093C00005C09091C200977F90939B
:10058000C200E82FF0E0EE0FFF1FEC56FE4FA591E2
:10059000B4918FB7F894EC91311103C020952E23BC
:1005A00001C02E2B2C938FBF0895CF93DF9390E043
:1005B000FC01E153FE4F2491FC01E055FE4F849174
:1005C000882361F190E0880F991FFC01E653FF4FEB
:1005D000C591D491FC01EC56FE4FA591B4916111E7
:1005E00009C09FB7F8948881209582238883EC9175
:1005F0002E230BC0623061F49FB7F8943881822FAC
:10060000809583238883EC912E2B2C939FBF06C06B
:100610008FB7F894E8812E2B28838FBFDF91CF917D
:1006200008953FB7F8948091000290910102A09143
:100630000202B091030226B5A89B05C02F3F19F016
:100640000196A11DB11D3FBFBA2FA92F982F882752
:10065000820F911DA11DB11DBC01CD0142E0660FAD
:10066000771F881F991F4A95D1F708950895209103
:100670006601309167012817390771F49091640180
:1006800080916501981741F0E0916401F0E0E55434
:10069000FE4F808190E008958FEF9FEF08950895B9
:1006A0001F93CF93DF93DC015C962D913C915D9776
:1006B0002115310539F481E090E013969C938E93D7
:1006C00012973DC05196ED91FC91529750969C9196
:1006D0005097892F80951FB75E964C915E9741FB8E
:1006E000772770F941FD6095F8944081772311F0E8
:1006F000492B01C048234083E9012197F1F748E0E5
:10070000508160FF02C0592B01C058235083E9017A
:100710002197F1F76695415099F7772321F0908161
:100720008923808303C08081982B90831FBF5C96B0
:100730008D919C915D970197F1F721E030E0C9011F
:10074000DF91CF911F91089520916601309167014B
:100750002817390771F4809165012091640190E0B8
:10076000805C9F4F821B910960E470E00E94E91158
:10077000089580E090E0089520916601309167012E
:1007800028173907B9F49091640180916501981791
:1007900089F0E0916401F0E0E554FE4F8081209102
:1007A000640130E02F5F3F4F2F73332720936401A4
:1007B00090E008958FEF9FEF089585ED8093BC0042
:1007C0008091BC0084FDFCCF1092500208954091AE
:1007D0009601262F30E0240F311D21323105DCF443
:1007E000209150022430C9F4FC0180E090E086178B
:1007F00058F4309196012191DC01AC58BE4FA30F03
:10080000B11D2C930196F3CF80919601680F6093F0
:10081000960180E0089581E0089582E008950895AA
:10082000E091090280910802E81730F4F0E0E65FF9
:10083000FD4F808190E008958FEF9FEF0895909194
:10084000090280910802981750F4E92FF0E0E65F62
:10085000FD4F208130E09F5F9093090202C02FEF8F
:100860003FEFC90108958091080290E020910902AC
:10087000821B91090895CF92DF92EF92FF920F931E
:100880001F93CF93DF937C01262F972F8A018091AE
:100890005102882391F0C62FD72F6E01C40ED51EAA
:1008A000CC15DD0571F06991D701ED91FC910190B6
:1008B000F081E02DC7010995F3CF642F822F0E94AC
:1008C000E703C801DF91CF911F910F91FF90EF9047
:1008D000DF90CF900895CF93DF931F92CDB7DEB70F
:1008E0006983209151022223D1F02091730220329A
:1008F00040F021E030E0FC013383228380E090E08F
:1009000015C080915202E82FF0E0ED5AFD4F998119
:1009100090838F5F809352028093730205C061E0E1
:10092000CE0101960E94E70381E090E00F90DF91F5
:10093000CF9108958F929F92AF92BF92CF92DF9204
:10094000EF92FF926B017C010E9411034B015C014D
:10095000C114D104E104F104F1F00E941103DC019F
:10096000CB0188199909AA09BB09883E9340A105C2
:10097000B10570F321E0C21AD108E108F10888EE50
:10098000880E83E0981EA11CB11CC114D104E1049F
:10099000F10419F7DDCFFF90EF90DF90CF90BF907B
:1009A000AF909F908F9008952FB7F8946091FC01BD
:1009B0007091FD018091FE019091FF012FBF08957C
:1009C0000F931F930E94D404609370017093710180
:1009D000809372019093730100916C0110916D01ED
:1009E00020916E0130916F01DC01CB01801B910BD6
:1009F000A20BB30B86399105A105B10558F187E526
:100A000091E00E94D60884E591E00E94D60880918A
:100A1000700190917101A0917201B0917301809366
:100A20006C0190936D01A0936E01B0936F01809162
:100A30000A0190910B01A0910C01B0910D0101965A
:100A4000A11DB11D80930A0190930B01A0930C018D
:100A5000B0930D011F910F9108951F920F920FB641
:100A60000F9211242F933F938F939F93AF93BF9334
:100A70008091FC019091FD01A091FE01B091FF01D8
:100A80003091FB0123E0230F2D3720F40196A11DA7
:100A9000B11D05C026E8230F0296A11DB11D2093AC
:100AA000FB018093FC019093FD01A093FE01B093A4
:100AB000FF018091000290910102A0910202B09189
:100AC00003020196A11DB11D8093000290930102C3
:100AD000A0930202B0930302BF91AF919F918F91B7
:100AE0003F912F910F900FBE0F901F9018951F925E
:100AF0000F920FB60F9211242F933F934F935F9352
:100B00006F937F938F939F93AF93BF93EF93FF93D5
:100B1000E0910801F09109010995FF91EF91BF91D2
:100B2000AF919F918F917F916F915F914F913F9185
:100B30002F910F900FBE0F901F9018951F920F923C
:100B40000FB60F9211242F933F934F935F936F93A0
:100B50007F938F939F93AF93BF93EF93FF93E09116
:100B60000601F09107010995FF91EF91BF91AF91B7
:100B70009F918F917F916F915F914F913F912F91B5
:100B80000F900FBE0F901F9018951F920F920FB6E7
:100B90000F9211242F933F934F935F936F937F9303
:100BA0008F939F93AF93BF93EF93FF93E0910401D3
:100BB000F09105010995FF91EF91BF91AF919F9140
:100BC0008F917F916F915F914F913F912F910F90F6
:100BD0000FBE0F901F9018951F920F920FB60F9295
:100BE00011242F933F934F935F936F937F938F9332
:100BF0009F93AF93BF93EF93FF93E0910201F09126
:100C000003010995FF91EF91BF91AF919F918F9152
:100C10007F916F915F914F913F912F910F900FBEF8
:100C20000F901F9018951F920F920FB60F921124DC
:100C30002F933F934F935F936F937F938F939F93E4
:100C4000AF93BF93EF93FF93E0910001F091010107
:100C50000995FF91EF91BF91AF919F918F917F91F6
:100C60006F915F914F913F912F910F900FBE0F9019
:100C70001F901895DF92EF92FF920F931F93CF93DF
:100C8000DF9300D0CDB7DEB7182FF62EE42ED22E8C
:100C900028EE33E0AE014E5F5F4F0E94EE088823DE
:100CA00049F14E2D50E04D1951094F5F5F4F21E042
:100CB00030E002C0220F331FDA94E2F721503109ED
:100CC000042E01C0220F0A94EAF7802F01C0880F7A
:100CD0004A95EAF7022F00959A8109232823202BB1
:100CE0002A832983AE014F5F5F4F6F2D812F0E94B2
:100CF000150A01C080E00F900F90DF91CF911F91F6
:100D00000F91FF90EF90DF900895EF92FF920F9375
:100D10001F93CF93DF9300D0CDB7DEB7182F062FE8
:100D2000F42EE22E28EE33E0AE014E5F5F4F0E94BC
:100D3000EE083A81E1E0F0E0AF0101C0440FFA941F
:100D4000EAF7EE2019F0932F942B03C0942F90957F
:100D500093239A839983AE014F5F5F4F602F812F5A
:100D60000E94150A0F900F90DF91CF911F910F9164
:100D7000FF90EF9008951F920F920FB60F921124DB
:100D80002F933F934F935F936F937F938F939F9393
:100D9000AF93BF93EF93FF93E0916601F0916701EA
:100DA000309709F451C0968DA685B785858591FF4A
:100DB00004C09C91892329F447C09C91892309F0A0
:100DC00043C0A389B4899C918589809589238C939C
:100DD000868997890197F1F7608D718DA685B78512
:100DE000558538E020E0CB010197F1F7822F90E0A4
:100DF00095958795282F4C91452309F0206831500F
:100E000091F7868D81FD20958091650190E0019696
:100E10008F73992730916401381749F0A0916501CB
:100E2000B0E0A554BE4F2C938093650103C0868D1E
:100E30008160868F828D938D0197F1F7A389B489A4
:100E40009C918589892B8C93FF91EF91BF91AF91F4
:100E50009F918F917F916F915F914F913F912F91D2
:100E60000F900FBE0F901F901895E0916601F091C2
:100E70006701E817F90769F4A389B4899C9185890A
:100E8000809589238C93109267011092660181E00E
:100E9000089580E008951F920F920FB60F921124CB
:100EA0002F933F934F935F936F937F938F939F9372
:100EB000AF93BF93EF93FF938091B900887F803603
:100EC00009F49CC068F5883209F45BC090F4803165
:100ED00009F454C038F4882309F4F6C0883009F4C2
:100EE0004DC0F6C0883109F44CC0803209F45DC0B1
:100EF000EFC0803409F468C048F4803309F455C069
:100F0000883309F0E5C080934E02D8C0803509F4DB
:100F10004FC0883509F45DC0883409F0D9C0D6C007
:100F2000883909F4C7C0A8F4883709F467C038F4D1
:100F3000883609F463C0803709F460C0C9C08838B6
:100F400009F4B8C0803909F45FC0803809F0C0C026
:100F50005BC0803B09F486C038F4803A09F466C06F
:100F6000883A09F47FC0B4C0803C09F4A7C0883C2B
:100F700009F4A4C0883B09F48AC0AAC080912B025E
:100F800010C090914D0280914C02981770F5E0913D
:100F90004D0281E08E0F80934D02F0E0E45DFD4F45
:100FA00080818093BB0085EC86C080934E028EC00A
:100FB000E0914D0281E08E0F80934D028091BB0045
:100FC000F0E0E45DFD4F808390914D0280914C02F2
:100FD0006EC0E0914D0281E08E0F80934D028091B2
:100FE000BB00F0E0E45DFD4F808380914F028111F2
:100FF0006DC081E080932A0284EA61C083E080931F
:1010000050021092BA01CFCF8091BA01803208F01D
:1010100051C0E091BA0181E08E0F8093BA018091B6
:10102000BB00F0E0E656FE4F8083BDCF85EC809399
:10103000BC00109250028091BA01803230F4E091ED
:10104000BA01F0E0E656FE4F10826091BA0170E0FE
:10105000E0919801F09199018AE991E00995109247
:10106000BA0136C084E0809350021092970110922A
:101070009601E0919401F091950109958091960176
:10108000811105C081E08093960110927401E09176
:10109000970181E08E0F80939701F0E0EC58FE4FAE
:1010A00080818093BB009091970180919601981761
:1010B00008F479CF85E88093BC000AC085EC809362
:1010C000BC001092500204C010924E020E94DD0338
:1010D000FF91EF91BF91AF919F918F917F916F9110
:1010E0005F914F913F912F910F900FBE0F901F90E6
:1010F00018952091730290914103213208F04AC063
:10110000809150028111FCCF32E03093500231E0E7
:1011100030934F023FEF30934E0210924D022093D6
:101120004C02A3E5B2E04CE252E0FA013E2F341B40
:10113000321718F43D913193F9CF10922B02209180
:101140002B02990F922B90932B0290912A029130AF
:1011500061F410922A0290912B029093BB0090911F
:10116000BC0093FDF8CF95EC01C095EE9093BC00C8
:10117000909150029230E1F390914E029F3F79F0AE
:1011800080914E02803241F080914E02803331F0E6
:1011900084E005C081E003C082E001C083E01092DA
:1011A000520210927302109251020895BC010097EE
:1011B00091F0FC0101900020E9F73197AF01481B45
:1011C000590BE0917402F09175020280F381E02DD9
:1011D00084E792E0099480E090E008954F925F9256
:1011E0006F927F928F929F92AF92BF92CF92DF9237
:1011F000EF92FF920F931F93CF93DF93C82FD62EBA
:101200007A0189010E94D4044B015C01D1E0D093A2
:101210005102C093410310925202109273026D2D3D
:1012200082E493E00E946B040E947908D0935102FB
:101230001092520210927302809150028111FCCFE1
:1012400081E08093500280934F029FEF90934E0273
:1012500010924D0210924C0280932B0280912B022F
:10126000CC0FC82BC0932B0280912A02813061F4ED
:1012700010922A0280912B028093BB008091BC00C7
:1012800083FDF8CF85EC01C085EE8093BC00809192
:1012900050028130E1F380914D02811103C08091B1
:1012A0004D0201C081E0ACE2B2E02AE032E0F90197
:1012B0009E2F921B981718F49D919193F9CF10923D
:1012C000090280930802C0E02801612C712C9091E2
:1012D0000802809109029817E9F00115110569F4D7
:1012E0006701CC0ED11CC7FDDA9482E493E00E9422
:1012F0001F04F6018083CF5FEACF0E94D404DC0193
:10130000CB0188199909AA09BB0984159505A60579
:10131000B70530F30E9479080115110591F00E947C
:10132000D404DC01CB0188199909AA09BB0920E082
:1013300030E080179107A207B30718F01C160CF0D5
:10134000CFEF8C2FDF91CF911F910F91FF90EF90F6
:10135000DF90CF90BF90AF909F908F907F906F90D5
:101360005F904F9008958F929F92AF92BF920F938C
:101370001F93CF93DF93CDB7DEB7A1970FB6F89445
:10138000DEBF0FBECDBF19A2423008F44AE08E0185
:101390000F5D1F4F842E912CA12CB12CA50194011F
:1013A0000E94FD11E62FB901CA0101501109EA306E
:1013B00014F4E05D01C0E95CD801EC93232B242BED
:1013C000252B61F7C8010E94D608A1960FB6F894A4
:1013D000DEBF0FBECDBFDF91CF911F910F91BF90A8
:1013E000AF909F908F9008950F931F93CF93DF93AB
:1013F0008C01C0E0D0E0F801EC0FFD1F6491662382
:1014000071F0E0917402F09175020190F081E02D8D
:1014100084E792E00995892B11F02196ECCFCE015B
:10142000DF91CF911F910F910895CF93DF93EA0140
:1014300091E09093510280934103109252021092D6
:10144000730282E493E00E946B04688182E493E07B
:101450000E946B040E94790891E0811190E0892F2D
:10146000DF91CF910895CF93DF930E94F409EC01AF
:1014700084E591E00E94D6088C0F9D1FDF91CF91EB
:101480000895CF92DF92EF92FF92CF93DF936B019B
:101490007C01E0917402F09175020190F081E02DE1
:1014A0006DE284E792E00995EC0166277727CB018E
:1014B0006C197D098E099F094AE00E94B3098C0FBF
:1014C0009D1FDF91CF91FF90EF90DF90CF90089517
:1014D000FC0180910702811103C08FEF9FEF0895F7
:1014E0009FB7F89482E08093E9002091F20030E009
:1014F0001216130614F421E030E02115310559F0DD
:10150000289A84E6809306028091F100808380917E
:10151000F200882319F09FBFC90108958BE68093DC
:10152000E800F9CF8091390381110DC082E08093EA
:10153000350384E08093360310923803109237030A
:1015400081E08093390385E393E008951F920F9221
:101550000FB60F9211248F939F938091E100909189
:10156000E100937F9093E10083FF0FC01092E900A8
:1015700091E09093EB001092EC0092E39093ED00D9
:101580001092070298E09093F00082FF20C093E051
:101590009093E9009091F200992319F09AE39093C7
:1015A000E80090910502992339F09091050291503D
:1015B00090930502992389F190910602992339F0BD
:1015C00090910602915090930602992341F184FF75
:1015D00010C08091E2008E7E81608093E200809155
:1015E000E1008F7E8093E100809104028E7E806115
:1015F00011C080FF16C08091E2008E7E80618093D2
:10160000E2008091E1008E7E8093E10080910402EF
:101610008E7E81608093040204C05D98CDCF2898AF
:10162000D6CF9F918F910F900FBE0F901F9018955E
:101630004091520350915303209150033091510334
:1016400042175307B4F49091E8009570E1F390913C
:10165000E80092FD19C08093F100809152039091AF
:10166000530301968F739927892B19F48EEF80937A
:10167000E800809152039091530301969093530395
:101680008093520381E0089580E00895CF92DF9225
:10169000EF92FF920F931F93CF93DF931F92CDB7DB
:1016A000DEB7182F062FE42E862F880F8E5F9983C2
:1016B0000E94180B83E00E94180BF12EC12E998115
:1016C000D92E8C2D8F19801798F4F601E7FE02C0F1
:1016D000849101C080810E94180B182F80E00E9425
:1016E000180B8123FFEFCF1ADF0A8111EACF01C067
:1016F00081E00F90DF91CF911F910F91FF90EF90BC
:10170000DF90CF900895DF92EF92FF920F931F9397
:10171000CF93DF93D82E8A017B01E40EF51EEB01F7
:10172000CE15DF0571F0D7FE03C0FE01849101C024
:1017300088810E94180B21968111F2CF8FEF9FEFC5
:1017400001C0C801DF91CF911F910F91FF90EF90E1
:10175000DF900895615030F02091F100FC0120836A
:101760000196F8CF289A84E6809306020895CF92D6
:10177000DF92EF92FF920F931F93CF93DF936C0151
:101780007A018B01C0E0D0E0CE15DF0589F0D801E9
:101790006D918D01D601ED91FC910190F081E02DCC
:1017A000C6010995892B11F47E0102C02196ECCF68
:1017B000C701DF91CF911F910F91FF90EF90DF90C4
:1017C000CF9008950F931F93CF93DF931F92CDB7C0
:1017D000DEB782E0898342E450E06EEE71E080E89B
:1017E0000E94830B0E94920ADC0112960D911C91BB
:1017F00013970115110569F0D801ED91FC91028054
:10180000F381E02DBE016F5F7F4FC801099597FFFF
:1018100007C089810F90DF91CF911F910F9108959B
:10182000F80100851185E5CF1F920F920FB60F9238
:101830001124CF92DF92EF92FF920F931F932F9379
:101840003F934F935F936F937F938F939F93AF9348
:10185000BF93EF93FF93CF93DF93CDB7DEB76C9732
:10186000DEBFCDBF1092E9008091E80083FFEDC19B
:1018700068E0CE0145960E94AA0B82EF8093E800B3
:101880008D8987FF05C09091E80090FFFCCF03C0D1
:101890009EEF9093E800982F907609F0C6C09E893D
:1018A0002F89188D91110CC0803829F480914F0335
:1018B0008093F10002C01092F1001092F10048C133
:1018C000422F50E0512B913051F4811141C14130F0
:1018D000510509F03DC180914F038D7F0BC09330BE
:1018E00061F4811135C14130510509F031C1809158
:1018F0004F03826080934F032BC1953041F4809158
:10190000E80080FFFCCF20682093E30021C19630DF
:1019100009F05FC0EB8CFC8C1092E900109253032D
:1019200010925203123091F510925103109250030D
:101930000E94E20B99E0BE016F5F7F4FDB01E92F50
:101940001D92EA95E9F799831A8391E09E8390EAC4
:1019500098879AEF99872091520330915303275F1C
:101960003F4F3C832B838D831092E90010925303E9
:1019700010925203F0925103E092500349E050E07C
:1019800080E00E94830B0E94E20BE2C0F0925103C0
:10199000E09250030E94920ADC011296ED90FC90B6
:1019A0001397E114F10409F4C0C0D701ED91FC9143
:1019B0000480F581E02DBE016B5E7F4FC701099564
:1019C000009719F00CF0C4C0C7C0F701E084F1849F
:1019D000E8CF973009F4C0C0983021F481E08093BB
:1019E000F100B6C0993009F0B3C0837009F0B4C0FB
:1019F000EBE4F1E081E021E036E39081992361F0AE
:101A00008093E9002093EB0091919093EC00309348
:101A1000ED008F5F873089F78EE78093EA001092A0
:101A2000EA008F898093070293C08B8D9C8D109262
:101A3000E900109253031092520390935103809344
:101A40005003898D811156C08E899D89913A59F430
:101A5000813209F081C047E050E062E171E080E04E
:101A60000E94830B75C0913209F076C0833289F4ED
:101A7000888D90E0982F88272F89822BA0E0B0E0F6
:101A800080930E0190930F01A0931001B093110168
:101A90005FC0803269F48091E80082FFFCCF67E08C
:101AA00082E191E00E94AA0B8BEF8093E80006C0D0
:101AB000823209F04DC08F898093190180914E03C5
:101AC000882319F0EEEFFAE002C0E0E0F8E0809140
:101AD000120190911301A0911401B0911501803B66
:101AE0009440A105B10509F07BC08091190180FFE8
:101AF00093C076C00E94920ADC0112960D911C914F
:101B000013970115110541F1D801ED91FC91019058
:101B1000F081E02DBE016B5E7F4FC80109958111F8
:101B200017C0F80100851185ECCF113009F44EC0C3
:101B3000133091F48F89882309F445C0823081F4F1
:101B400040E86DE082E592E00E94460B882321F098
:101B50008EEF8093E80079C081E28093EB0075C03E
:101B6000813029F440E86BE086E492E0EDCF8330E9
:101B700099F70E94920ADC011296ED90FC9013975F
:101B80008E010F5F1F4F6801E114F10479F0D70156
:101B9000ED91FC910680F781E02DB801C701099510
:101BA000080F111DF701E084F184EECFD8011C92DB
:101BB000F60101900020E9F73197BF016C197D090A
:101BC00040E0C601C1CF60E372E002C064E372E0AE
:101BD0006115710509F2FB01449150E080E840CFA6
:101BE0000FB6F894A895809160008861809360009A
:101BF000109260000FBEA895EE3F2AE0F20739F080
:101C00008091FE0A9091FF0A91838083A1CF109268
:101C1000FF0A1092FE0A9CCFEE3F8AE0F80731F0EF
:101C2000808191819093FF0A8093FE0A87E797E76E
:101C3000918380839BE088E10FB6F894A895809308
:101C400060000FBE9093600083CF6C960FB6F8943F
:101C5000DEBF0FBECDBFDF91CF91FF91EF91BF915E
:101C6000AF919F918F917F916F915F914F913F9134
:101C70002F911F910F91FF90EF90DF90CF900F90D9
:101C80000FBE0F901F901895CF93DF93CDB7DEB79F
:101C90002A970FB6F894DEBF0FBECDBF789484B5F7
:101CA000826084BD84B5816084BD85B5826085BD58
:101CB00085B5816085BD80916E00816080936E00E6
:101CC00010928100809181008260809381008091D8
:101CD0008100816080938100809180008160809389
:101CE00080008091910082608093910080919100AA
:101CF000816080939100809190008160809390003A
:101D00008091C10084608093C1008091C100826095
:101D10008093C1008091C10081608093C100809157
:101D2000C30081608093C3008091C0008260809373
:101D3000C0008091C20081608093C20080917A00CF
:101D4000846080937A0080917A00826080937A0028
:101D500080917A00816080937A0080917A00806817
:101D600080937A001092070210924F03109204029F
:101D70008091D70081608093D70080EA8093D8005B
:101D800089B5806189BD89B5826089BD09B400FECD
:101D9000FDCF61E070E080E090E00E949A048091C5
:101DA000D8008F7C80618093D8008091E000807F94
:101DB0008093E0008091E1008E7E8093E1008DE0D1
:101DC0008093E200559A209A5D982898EEEFFFE7FD
:101DD000859194918B3F9C4D19F481E080934E0343
:101DE00061E08DE00E94D50261E082E10E94D502AF
:101DF00062E087E00E94D50261E08DE00E947202FD
:101E000061E082E10E94720280EE94E09093090109
:101E10008093080180916A008F7C806280936A00C1
:101E2000EE9A8FEF9FEF909381028093800286E875
:101E300091E00E94330A86E691E00E94F409109234
:101E4000DF021092DE021092DD021092DC0210928C
:101E5000DB021092DA028DE991E09093E102809327
:101E6000E0028091D00298EF980F943048F022EF72
:101E7000280F243028F026EE280F233008F060C009
:101E80002DEB30E03093DB022093DA022BE931E0D6
:101E90003093DD022093DC022CE231E03093DF024C
:101EA0002093DE02943058F092EF980F943038F07F
:101EB0008A51833008F474C1A0E0B0E073C1A8E691
:101EC000B0E0E8E6F0E0808181608C938091D00200
:101ED00098EF980F943058F022EF280F243038F004
:101EE00026EE280F233018F020E030E002C02BE669
:101EF00030E03093D8022093D702943010F49CEF56
:101F000009C08E3071F08F3071F0803171F0813105
:101F100071F09AEE980F81E001C0880F9A95EAF768
:101F200007C088E005C082E003C084E001C081E012
:101F30008093D9028091E0029091E1020197F1F73C
:101F40008091DE029091DF02892B21F18091660160
:101F500090916701E2E0843C9E07E1F0009711F068
:101F60000E9435078091E2028E7F8093E2021092F8
:101F700065011092640184EC92E090936701809374
:101F80006601E091D702F091D80290818091D90248
:101F9000892B808381E591E00E94D60884E591E059
:101FA0000E94D60883E091E00E94330A01E023E01A
:101FB00042E06BE6809125030E943A0600E022E0B1
:101FC00044E06BE1809125030E943A0622E044E060
:101FD0006CE1809125030E943A0620E046E06BE622
:101FE000809125030E94850668EE73E080E090E012
:101FF0000E949A0487EF90E00E94F40928EE33E0F3
:10200000AE014F5F5F4F65E7809125030E94EE08A8
:10201000882329F089818F7790E08093260360914F
:10202000260370E080E090E040E10E94B30984E57F
:1020300091E00E94D60828EE33E0AE014F5F5F4F7B
:1020400065E7809125030E94EE08882329F08981A5
:102050008F7790E08093260380912603813729F0C3
:102060008CE491E00E94330A9DCF8CE291E00E94C3
:10207000330A83E08093340320E045E06CE68091EE
:1020800025030E94850620E044E06CE6809125034C
:102090000E94850620E043E06CE6809125030E94C3
:1020A00085068091340381FF15C020E042E06CE694
:1020B000809125030E94850620E041E06CE6809136
:1020C00025030E94850620E040E06CE68091250310
:1020D0000E9485068BE191E00E94F409609134032F
:1020E000617070E080E090E04AE00E94B309609186
:1020F0003403627070E080E090E04AE00E94B3092F
:1021000084E591E00E94D6088E01055F1F4F30E004
:10211000E32E30E0F32E41E1C42EDC2C80910A0145
:1021200090E099278827092E000CAA0BBB0BDA82B6
:10213000C9828B839C83AD83BE838090680190901D
:102140006901A0906A01B0906B018F829886A98680
:10215000BA86CE0101963C016016710641F0F3018A
:1021600061913F0184EC92E00E945003F5CFFFEFB4
:102170008F1A9F0AAF0ABF0A809268019092690184
:10218000A0926A01B0926B0168EE73E080E090E08B
:102190000E949A04E114F10409F20E940000BECFEB
:1021A000A8E6B0E0833008F48CCEE0E0F0E08BCE1F
:1021B0008EE391E09093C5028093C40284EC92E098
:1021C0000C943507CF93DF9310927702109276022A
:1021D00088EE93E0A0E0B0E08093780290937902DB
:1021E000A0937A02B0937B022EE131E03093750226
:1021F000209374022FEF3FEF3093810220938002EF
:102200001092450310924403809346039093470332
:10221000A0934803B09349032EE231E03093430387
:10222000209342031092E3021092E4021092E5021E
:102230001092E6021092E7021092E8021092E90270
:102240001092EA021092EB021092EC021092ED0250
:102250001092EE021092EF021092F0021092F10230
:102260001092F2021092F3021092F4021092F50210
:102270001092F6021092F7021092F8021092F902F0
:102280001092FA021092FB021092FC021092FD02D0
:102290001092FE021092FF021092000310920103AE
:1022A000109202031092030310920403109205038C
:1022B000109206031092070310920803109209036C
:1022C00010920A0310920B0310920C0310920D034C
:1022D00010920E0310920F0310921003109211032C
:1022E0001092120322E1E3E1F3E0EF0119922A9543
:1022F000E9F728E620932503109234031092C702D1
:102300001092C6028093C8029093C902A093CA0299
:10231000B093CB028EE391E09093C5028093C40208
:102320001092DB021092DA021092DD021092DC02AF
:102330001092DF021092DE021092E1021092E0028F
:102340006091E2026E7F6D7F6093E202669561703C
:1023500081E0682786E10E94720261E086E10E94C6
:10236000D502E5EEF1E0E491E093D402E6ECF1E091
:10237000E491F0E0EE0FFF1FEC56FE4F8591949133
:102380009093D6028093D50260E087E10E94D50247
:102390008091E20281FD04C061E087E10E94720247
:1023A00087E18093D002E6EEF1E0E491E093D10280
:1023B000E7ECF1E0E491F0E0EE0FFF1FEE55FE4F89
:1023C000859194919093D3028093D202DF91CF9123
:1023D000089597FB072E16F4009407D077FD09D0D7
:1023E0000E94251207FC05D03EF4909581959F4FE1
:1023F0000895709561957F4F0895A1E21A2EAA1B4A
:10240000BB1BFD010DC0AA1FBB1FEE1FFF1FA217A4
:10241000B307E407F50720F0A21BB30BE40BF50BA1
:10242000661F771F881F991F1A9469F7609570952A
:10243000809590959B01AC01BD01CF010895EE0FF1
:10244000FF1F0590F491E02D0994AA1BBB1B51E1DD
:1024500007C0AA1FBB1FA617B70710F0A61BB70B14
:10246000881F991F5A95A9F780959095BC01CD01B9
:10247000089581E090E0F8940C943E1211E0C1E3DD
:10248000D1E004C0FE010E941F122196C233D10781
:06249000C9F7F894FFCF2C
:102496003603360336033603360378563412FFFF07
:1024A600FFFF00E1000000000000000000005C01EA
:1024B60097017D0152022E027201000000006B049A
:1024C6003B0433041F0410040F04000000005003F3
:1024D600B70BA403BC0337034F0300C18081000080
:1024E600004F4B000D0A0062746E2074696D652002
:0424F6006F6E000005
:00000001FF
