:100000000C9418010C94B6050C948F050C9468059B
:100010000C9441050C9440010C9440010C941A0579
:100020000C9440010C9477070C94E70A0C94180C7C
:100030000C9440010C9440010C9440010C9440013C
:100040000C9440010C9440010C9440010C9440012C
:100050000C9440010C9440010C9440010C94D00489
:100060000C9440010C9440010C9440010C9440010C
:100070000C9440010C9440010C9440010C944001FC
:100080000C9440010C9440010C9440010C943509EF
:100090000C9407080C9440010C9440010C9440010E
:1000A0000C9440010C9440010C94400162036503E0
:1000B000540358035E0386038603860369036D03B6
:1000C000710377037B038603810300000000240093
:1000D00027002A002D00300047593932353020637F
:1000E0006F6E6E656374696F6E207375636365739D
:1000F0007366756C6C792E00475939323530206340
:100100006F6E6E656374696F6E206661696C65649D
:100110002E00496E697469616C6C697A696E67203A
:1001200042542053657269616C20706F72742E2E78
:100130002E0053657269616C2072656164792E00CE
:100140000000000200090F0000030401000C000081
:10015000000000000000000000000000000000009F
:10016000000000250028002B002E003100000000B8
:10017000002300260029002C002F0004040404049E
:10018000030405020202020403020202020606063A
:1001900006060604040202020404040802011040D8
:1001A00080401020408040800802040180402010E0
:1001B000020110801020404020080B0002020201C2
:1001C00000090400000102020000052400100105DE
:1001D000240101010424020605240600010705810B
:1001E0000310004009040100020A00000007050294
:1001F00002400000070583024000000403090412C6
:10020000010002EF02014041233780000101020397
:100210000141726475696E6F204C4C4300417264F9
:1002200075696E6F204D6963726F0000F214480E9D
:1002300011241FBECFEFDAE0DEBFCDBF11E0A0E09A
:10024000B1E0E6ECF2E302C005900D92AE38B107E2
:10025000D9F724E0AEE8B1E001C01D92AC30B2079E
:10026000E1F711E0C7E1D1E004C02197FE010E944F
:100270001D19C631D107C9F70E94520E0C945619A8
:100280000C940000CF93DF931F92CDB7DEB7698344
:10029000DC01ED91FC910280F381E02D41E050E022
:1002A000BE016F5F7F4F09950F90DF91CF91089549
:1002B00083E08093E9008091F200882319F08AE3BB
:1002C0008093E8000895FC018485958597FD0BC017
:1002D0009FB7F89482E08093E9008091F2009FBF7D
:1002E00090E0019608959FB7F89482E08093E9002A
:1002F0008091F2009FBF90E008953FB7F8948091FD
:100300003D0290913E02A0913F02B091400226B57D
:10031000A89B05C02F3F19F00196A11DB11D3FBF3D
:10032000BA2FA92F982F8827820F911DA11DB11DCB
:10033000BC01CD0142E0660F771F881F991F4A95C7
:10034000D1F7089508958091370290E02091360208
:10035000821B91090895209143023091440228178D
:10036000390771F49091410280914202981741F04F
:10037000E0914102F0E0EA52FE4F808190E0089562
:100380008FEF9FEF089508951F93CF93DF93DC01C4
:100390005C962D913C915D972115310539F481E0F2
:1003A00090E013969C938E9312973DC05196ED91D9
:1003B000FC91529750969C915097892F80951FB72A
:1003C0005E964C915E9741FB772770F941FD6095F1
:1003D000F8944081772311F0492B01C048234083D2
:1003E000E9012197F1F748E0508160FF02C0592BE5
:1003F00001C058235083E9012197F1F766954150D8
:1004000099F7772321F090818923808303C080812D
:10041000982B90831FBF5C968D919C915D9701975F
:10042000F1F721E030E0C901DF91CF911F910895EC
:1004300020914302309144022817390771F48091CA
:1004400042022091410290E0805C9F4F821B910903
:1004500060E470E00E94E718089580E090E008955D
:10046000209143023091440228173907B9F4909142
:10047000410280914202981789F0E0914102F0E038
:10048000EA52FE4F80812091410230E02F5F3F4FC2
:100490002F7333272093410290E008958FEF9FEF51
:1004A000089585ED8093BC008091BC0084FDFCCF55
:1004B0001092A90208954091B101262F30E0240F37
:1004C000311D21323105DCF42091A9022430C9F418
:1004D000FC0180E090E0861758F43091B101219141
:1004E000DC01A157BE4FA30FB11D2C930196F3CF92
:1004F0008091B101680F6093B10180E0089581E0BF
:10050000089582E008950895E091360280913702BF
:10051000E81730F4F0E0EA5EFD4F808190E0089546
:100520008FEF9FEF089590913602809137029817D0
:1005300050F4E92FF0E0EA5EFD4F208130E09F5F4C
:100540009093360202C02FEF3FEFC9010895CF927A
:10055000DF92EF92FF920F931F93CF93DF937C0173
:10056000262F972F8A018091AA02882391F0C62F07
:10057000D72F6E01C40ED51ECC15DD0571F0699123
:10058000D701ED91FC910190F081E02DC701099513
:10059000F3CF642F822F0E945B02C801DF91CF91BD
:1005A0001F910F91FF90EF90DF90CF900895CF9320
:1005B000DF931F92CDB7DEB769832091AA02222371
:1005C000D1F02091CD02203240F021E030E0FC015A
:1005D0003383228380E090E015C08091AB02E82F46
:1005E000F0E0E455FD4F998190838F5F8093AB02DB
:1005F0008093CD0205C061E0CE0101960E945B02AE
:1006000081E090E00F90DF91CF910895CF93DF9339
:100610001F92CDB7DEB7FC018485958597FD05C097
:100620002FEF3FEF358724870BC0CE0101960E9444
:10063000A90A019719F4898190E002C08FEF9FEF1A
:100640000F90DF91CF9108950F931F93CF93DF9376
:100650001F92CDB7DEB78C01FC018485958597FF8D
:100660000EC0CE0101960E94A90A019719F42981B2
:1006700030E002C02FEF3FEFF80135872487F80103
:10068000848595850F90DF91CF911F910F910895EB
:100690000E94371990E0FC013197EF30F105B0F579
:1006A000EA5AFF4F0C941D19809180008F7703C088
:1006B000809180008F7D80938000089580918000DC
:1006C000877FF9CF84B58F7702C084B58F7D84BDD5
:1006D0000895809190008F7707C0809190008F7D62
:1006E00003C080919000877F80939000089580914F
:1006F000C0008F7703C08091C0008F7D8093C000C1
:1007000008958091C200877F8093C20008951F934F
:10071000CF93DF93282F30E0F901E05CFE4F849106
:10072000F901E656FE4FD491F901E558FE4FC49108
:10073000CC23C9F0162F81110E944A03EC2FF0E060
:10074000EE0FFF1FE15AFE4FA591B4918FB7F894B9
:10075000111105C09C91ED2FE095E92302C0EC91A9
:10076000ED2BEC938FBFDF91CF911F910895CF9325
:10077000DF9390E0FC01E656FE4F2491FC01E55822
:10078000FE4F8491882361F190E0880F991FFC014E
:10079000E653FF4FC591D491FC01E15AFE4FA5915C
:1007A000B491611109C09FB7F89488812095822384
:1007B0008883EC912E230BC0623061F49FB7F894CC
:1007C0003881822F809583238883EC912E2B2C9364
:1007D0009FBF06C08FB7F894E8812E2B28838FBF68
:1007E000DF91CF9108958F929F92AF92BF92CF9257
:1007F000DF92EF92FF926B017C010E947D014B0121
:100800005C01C114D104E104F104F1F00E947D0106
:10081000DC01CB0188199909AA09BB09883E9340DC
:10082000A105B10570F321E0C21AD108E108F10871
:1008300088EE880E83E0981EA11CB11CC114D1045F
:10084000E104F10419F7DDCFFF90EF90DF90CF9036
:10085000BF90AF909F908F9008957F928F929F92BC
:10086000AF92BF92CF92DF92EF92FF920F931F93BE
:10087000CF93DF936C015B017A018091150188238E
:1008800009F46BC080918202882309F466C08091CC
:100890007F0280FF05C08091E00082608093E000CD
:1008A000E70110E00AEF83E0982E90E4792E2AE326
:1008B000822E209709F448C08FB7F8949092E900EF
:1008C0009091E80095FF06C09091F200272D291B1A
:1008D000922F01C090E08FBF91110AC0015009F41E
:1008E0003CC061E070E080E090E00E94F303E1CF63
:1008F000292F30E0C217D3070CF49C2F8FB7F89440
:100900009092E9002091E80025FF1CC0292F30E0DB
:10091000C21BD30BF501915020F041914093F1009F
:10092000FACFA20EB31E112319F08092E80009C07D
:100930009091E80095FD06C08092E80011E02097B4
:1009400009F010E08FBFB5CF1111B6CF5D9A84E6E4
:10095000809380021E141F0444F081E090E0F601B1
:100960009383828380E090E001C0C701DF91CF9143
:100970001F910F91FF90EF90DF90CF90BF90AF90BD
:100980009F908F907F9008952FB7F89460913902CF
:1009900070913A0280913B0290913C022FBF0895E2
:1009A0001F920F920FB60F9211242F933F938F93A4
:1009B0009F93AF93BF938091390290913A02A09197
:1009C0003B02B0913C023091380223E0230F2D37D7
:1009D00020F40196A11DB11D05C026E8230F029643
:1009E000A11DB11D209338028093390290933A02E1
:1009F000A0933B02B0933C0280913D0290913E0255
:100A0000A0913F02B09140020196A11DB11D8093BB
:100A10003D0290933E02A0933F02B0934002BF91EB
:100A2000AF919F918F913F912F910F900FBE0F909B
:100A30001F9018951F920F920FB60F9211242F93AB
:100A40003F934F935F936F937F938F939F93AF9356
:100A5000BF93EF93FF93E0910801F091090109958D
:100A6000FF91EF91BF91AF919F918F917F916F9186
:100A70005F914F913F912F910F900FBE0F901F905C
:100A800018951F920F920FB60F9211242F933F9338
:100A90004F935F936F937F938F939F93AF93BF9386
:100AA000EF93FF93E0910601F09107010995FF9103
:100AB000EF91BF91AF919F918F917F916F915F91D6
:100AC0004F913F912F910F900FBE0F901F9018954F
:100AD0001F920F920FB60F9211242F933F934F93B3
:100AE0005F936F937F938F939F93AF93BF93EF9396
:100AF000FF93E0910401F09105010995FF91EF91B9
:100B0000BF91AF919F918F917F916F915F914F9125
:100B10003F912F910F900FBE0F901F9018951F922D
:100B20000F920FB60F9211242F933F934F935F9321
:100B30006F937F938F939F93AF93BF93EF93FF93A5
:100B4000E0910201F09103010995FF91EF91BF91AE
:100B5000AF919F918F917F916F915F914F913F9155
:100B60002F910F900FBE0F901F9018951F920F920C
:100B70000FB60F9211242F933F934F935F936F9370
:100B80007F938F939F93AF93BF93EF93FF93E091E6
:100B90000001F09101010995FF91EF91BF91AF9193
:100BA0009F918F917F916F915F914F913F912F9185
:100BB0000F900FBE0F901F9018952F923F924F925B
:100BC0005F926F927F928F929F92AF92BF92CF92DD
:100BD000DF92EF92FF920F931F93CF93DF93CDB7E6
:100BE000DEB728970FB6F894DEBF0FBECDBFD82E64
:100BF000C62E4887190178010E94C4042B013C01CC
:100C00008D2C880C912C10E001E04885A42EB12C8D
:100C1000970140E050E02B833C834D835E83488501
:100C2000941608F0A0C00093AA02D092CC021092B1
:100C3000AB021092CD026C2D8EE193E00E94D702A0
:100C40000E949C090093AA02D092CC021092AB029F
:100C50001092CD028091A9028111FCCF9501291932
:100C600031092132310514F020E230E02F832132A6
:100C700010F030E23F830093A9020093A8024FEFE7
:100C80004093A7021092A6028F8181508093A50203
:100C90000093840280918402882980938402809149
:100CA0008302813071F410928302809184028093D8
:100CB000BB008091BC0083FDF8CF55EC5093BC0085
:100CC00003C085EE8093BC008091A9028130E1F3DE
:100CD0008091A6022F81821718F43091A6023F83DB
:100CE000A5E8B2E0E6E1F2E08E2F46E152E0841B97
:100CF0005F81851718F48D918193F6CF109236029B
:100D000050933702809136022F81281721F1E11488
:100D1000F10481F49101210F311D17FD3A953A83B9
:100D200029838EE193E00E949302A981BA818C937A
:100D30001F5FE8CF0E94C404DC01CB018419950930
:100D4000A609B7092B813C814D815E8182179307EB
:100D5000A407B507F8F20E949C098885813208F043
:100D600080E2980E5CCFE114F104D9F00E94C40433
:100D7000AB01BC014419550966097709C701A0E018
:100D8000B0E0481759076A077B0758F05885852F48
:100D900090E0212F012E000C330B281739070CF49B
:100DA0001FEF812F28960FB6F894DEBF0FBECDBF80
:100DB000DF91CF911F910F91FF90EF90DF90CF9037
:100DC000BF90AF909F908F907F906F905F904F906B
:100DD0003F902F900895CF92DF92EF92FF920F9362
:100DE0001F93CF93DF9300D0CDB7DEB7F82EE62E5A
:100DF000D42EC22E08EE13E09E012E5F3F4F41E03D
:100E00000E94DD053A81E1E0F0E0AF0101C0440F4E
:100E1000DA94EAF7CC2019F0932F942B03C0942F87
:100E2000909593239A839983AE014F5F5F4F6E2D08
:100E30008F2D0E941A0A0F900F90DF91CF911F9172
:100E40000F91FF90EF90DF90CF900895BF92CF92D7
:100E5000DF92EF92FF920F931F93CF93DF9300D017
:100E6000CDB7DEB7F82EE62EC42EB22ED02E08EE69
:100E700013E09E012E5F3F4F41E00E94DD05882375
:100E800049F14C2D50E04B1951094F5F5F4F21E064
:100E900030E002C0220F331FBA94E2F7215031092B
:100EA000042E01C0220F0A94EAF78D2D01C0880F8D
:100EB0004A95EAF7322F30959A8193232823292BDC
:100EC0002A832983AE014F5F5F4F6E2D8F2D0E94C5
:100ED0001A0A01C080E00F900F90DF91CF911F910F
:100EE0000F91FF90EF90DF90CF90BF9008951F92E9
:100EF0000F920FB60F9211242F933F934F935F934E
:100F00006F937F938F939F93AF93BF93EF93FF93D1
:100F1000E0914302F0914402309709F451C0968D5C
:100F2000A685B785858591FF04C09C91892329F406
:100F300047C09C91892309F043C0A389B4899C913F
:100F40008589809589238C93868997890197F1F704
:100F5000608D718DA685B785558538E020E0CB0181
:100F60000197F1F7822F90E095958795282F4C9166
:100F7000452309F02068315091F7868D81FD209539
:100F80008091420290E001968F739927309141023F
:100F9000381749F0A0914202B0E0AA52BE4F2C93FC
:100FA0008093420203C0868D8160868F828D938DEF
:100FB0000197F1F7A389B4899C918589892B8C933A
:100FC000FF91EF91BF91AF919F918F917F916F9121
:100FD0005F914F913F912F910F900FBE0F901F90F7
:100FE0001895E0914302F0914402E817F90769F47B
:100FF000A389B4899C918589809589238C931092CB
:1010000044021092430281E0089580E008951F9207
:101010000F920FB60F9211242F933F934F935F932C
:101020006F937F938F939F93AF93BF93EF93FF93B0
:101030008091B900887F803609F49CC068F58832B9
:1010400009F45BC090F4803109F454C038F488236B
:1010500009F4F6C0883009F44DC0F6C0883109F4AF
:101060004CC0803209F45DC0EFC0803409F468C020
:1010700048F4803309F455C0883309F0E5C0809303
:10108000A702D8C0803509F44FC0883509F45DC087
:10109000883409F0D9C0D6C0883909F4C7C0A8F48B
:1010A000883709F467C038F4883609F463C080379C
:1010B00009F460C0C9C0883809F4B8C0803909F49F
:1010C0005FC0803809F0C0C05BC0803B09F486C0B7
:1010D00038F4803A09F466C0883A09F47FC0B4C095
:1010E000803C09F4A7C0883C09F4A4C0883B09F4FB
:1010F0008AC0AAC08091840210C09091A6028091FB
:10110000A502981770F5E091A60281E08E0F8093FA
:10111000A602F0E0EB57FD4F80818093BB0085EC89
:1011200086C08093A7028EC0E091A60281E08E0F58
:101130008093A6028091BB00F0E0EB57FD4F8083C7
:101140009091A6028091A5026EC0E091A60281E076
:101150008E0F8093A6028091BB00F0E0EB57FD4F0D
:1011600080838091A80281116DC081E08093830209
:1011700084EA61C083E08093A9021092D501CFCFA9
:101180008091D501803208F051C0E091D50181E015
:101190008E0F8093D5018091BB00F0E0EB54FE4FA1
:1011A0008083BDCF85EC8093BC001092A902809112
:1011B000D501803230F4E091D501F0E0EB54FE4FE0
:1011C00010826091D50170E0E091B301F091B4011B
:1011D00085EB91E009951092D50136C084E08093AB
:1011E000A9021092B2011092B101E091AF01F09109
:1011F000B00109958091B101811105C081E0809312
:10120000B10110928F01E091B20181E08E0F8093C5
:10121000B201F0E0E157FE4F80818093BB009091D6
:10122000B2018091B101981708F479CF85E88093D5
:10123000BC000AC085EC8093BC001092A90204C0D7
:101240001092A7020E945102FF91EF91BF91AF91BE
:101250009F918F917F916F915F914F913F912F91CE
:101260000F900FBE0F901F9018951F920F920FB600
:101270000F9211241092F5031092F4030F900FBEF9
:101280000F901F901895BC01009791F0FC01019000
:101290000020E9F73197AF01481B590BE091CE02CE
:1012A000F091CF020280F381E02D8EEC92E0099460
:1012B00080E090E008958F929F92AF92BF920F933B
:1012C0001F93CF93DF93CDB7DEB7A1970FB6F894F6
:1012D000DEBF0FBECDBF19A2423008F44AE08E0136
:1012E0000F5D1F4F842E912CA12CB12CA5019401D0
:1012F0000E94FB18E62FB901CA0101501109EA301A
:1013000014F4E05D01C0E95CD801EC93232B242B9D
:10131000252B61F7C8010E944309A1960FB6F894E6
:10132000DEBF0FBECDBFDF91CF911F910F91BF9058
:10133000AF909F908F9008952091CD029091CC0214
:10134000213208F04AC08091A9028111FCCF32E01D
:101350003093A90231E03093A8023FEF3093A70207
:101360001092A6022093A502ACEAB2E045E852E052
:10137000FA013E2F341B321718F43D913193F9CF07
:101380001092840220918402990F922B90938402F0
:1013900090918302913061F41092830290918402C3
:1013A0009093BB009091BC0093FDF8CF95EC01C0E9
:1013B00095EE9093BC009091A9029230E1F3909148
:1013C000A7029F3F79F08091A702803241F080917F
:1013D000A702803331F084E005C081E003C082E0E1
:1013E00001C083E01092AB021092CD021092AA02CB
:1013F00008950F931F93CF93DF938C01C0E0D0E04B
:10140000F801EC0FFD1F6491662371F0E091CE02AC
:10141000F091CF020190F081E02D8EEC92E00995E1
:10142000892B11F02196ECCFCE01DF91CF911F9146
:101430000F910895CF93DF93EA0191E09093AA0270
:101440008093CC021092AB021092CD028EE193E019
:101450000E94D70268818EE193E00E94D7020E9429
:101460009C0991E0811190E0892FDF91CF9108953F
:10147000CF93DF930E94F909EC0187E891E00E9485
:1014800043098C0F9D1FDF91CF910895CF92DF927A
:10149000EF92FF92CF93DF936B017C01E091CE023C
:1014A000F091CF020190F081E02D6DE28EEC92E0A0
:1014B0000995EC0166277727CB016C197D098E0908
:1014C0009F094AE00E945B098C0F9D1FDF91CF911D
:1014D000FF90EF90DF90CF900895CF93DF93BC0102
:1014E000990F880B990B97FF03C00E94460A03C00F
:1014F0004AE00E945B09EC0187E891E00E94430901
:101500008C0F9D1FDF91CF910895CF93DF93E8E477
:10151000F1E08491E2EAF1E0D491E3E8F1E0C491F2
:10152000CC2391F081110E944A03EC2FF0E0EE0FE2
:10153000FF1FE359FE4FA591B491EC91ED2381E09B
:1015400090E021F480E002C080E090E0DF91CF9154
:101550000895FC0180918202811103C08FEF9FEFFB
:1015600008959FB7F89482E08093E9002091F200FB
:1015700030E01216130614F421E030E02115310595
:1015800059F0289A84E6809381028091F10080834B
:101590008091F200882319F09FBFC90108958BE65E
:1015A0008093E800F9CF8091FA0381110DC082E0A9
:1015B0008093F60384E08093F7031092F90310926E
:1015C000F80381E08093FA0386EF93E008951F9279
:1015D0000F920FB60F9211248F939F938091E10089
:1015E0009091E100937F9093E10083FF0FC01092F0
:1015F000E90091E09093EB001092EC0092E390935D
:10160000ED001092820298E09093F00082FF20C0DB
:1016100093E09093E9009091F200992319F09AE3F6
:101620009093E80090918002992339F09091800284
:10163000915090938002992389F19091810299238E
:1016400039F090918102915090938102992341F158
:1016500084FF10C08091E2008E7E81608093E20062
:101660008091E1008F7E8093E10080917F028E7EE9
:10167000806111C080FF16C08091E2008E7E806183
:101680008093E2008091E1008E7E8093E100809162
:101690007F028E7E816080937F0204C05D98CDCFF3
:1016A0002898D6CF9F918F910F900FBE0F901F90CB
:1016B000189540910604509107042091040430913C
:1016C000050442175307B4F49091E8009570E1F3D4
:1016D0009091E80092FD19C08093F100809106047A
:1016E0009091070401968F739927892B19F48EEF37
:1016F0008093E800809106049091070401969093EE
:1017000007048093060481E0089580E00895DF9245
:10171000EF92FF920F931F93CF93DF93D82E8A01FE
:101720007B01E40EF51EEB01CE15DF0571F0D7FE4F
:1017300003C0FE01849101C088810E94590B21964B
:101740008111F2CF8FEF9FEF01C0C801DF91CF91E0
:101750001F910F91FF90EF90DF900895615030F04E
:101760002091F100FC0120830196F8CF289A84E6AD
:10177000809381020895CF92DF92EF92FF920F93B0
:101780001F93CF93DF936C017A018B01C0E0D0E00F
:10179000CE15DF0589F0D8016D918D01D601ED914F
:1017A000FC910190F081E02DC6010995892B11F47F
:1017B0007E0102C02196ECCFC701DF91CF911F912E
:1017C0000F91FF90EF90DF90CF9008950F931F93AC
:1017D000CF93DF931F92CDB7DEB782E0898342E4D7
:1017E00050E069EB71E080E80E94870B0E94D30A09
:1017F000DC0112960D911C9113970115110569F0EA
:10180000D801ED91FC910280F381E02DBE016F5F64
:101810007F4FC801099597FF07C089810F90DF911D
:10182000CF911F910F910895F80100851185E5CFA3
:101830001F920F920FB60F921124CF92DF92EF9268
:10184000FF920F931F932F933F934F935F936F9349
:101850007F938F939F93AF93BF93EF93FF93CF9318
:10186000DF93CDB7DEB76C97DEBFCDBF1092E90036
:101870008091E80083FFEDC168E0CE0145960E94AB
:10188000AE0B82EF8093E8008D8987FF05C09091B1
:10189000E80090FFFCCF03C09EEF9093E800982FE4
:1018A000907609F0C6C09E892F89188D91110CC0C1
:1018B000803829F4809103048093F10002C01092D3
:1018C000F1001092F10048C1422F50E0512B9130AD
:1018D00051F4811141C14130510509F03DC1809160
:1018E00003048D7F0BC0933061F4811135C1413009
:1018F000510509F031C18091030482608093030493
:101900002BC1953041F48091E80080FFFCCF206826
:101910002093E30021C1963009F05FC0EB8CFC8C72
:101920001092E9001092070410920604123091F50B
:1019300010920504109204040E94E60B99E0BE0187
:101940006F5F7F4FDB01E92F1D92EA95E9F79983DD
:101950001A8391E09E8390EA98879AEF9987209165
:10196000060430910704275F3F4F3C832B838D8310
:101970001092E9001092070410920604F0920504F8
:10198000E092040449E050E080E00E94870B0E944E
:10199000E60BE2C0F0920504E09204040E94D30A30
:1019A000DC011296ED90FC901397E114F10409F418
:1019B000C0C0D701ED91FC910480F581E02DBE01FE
:1019C0006B5E7F4FC7010995009719F00CF0C4C0FA
:1019D000C7C0F701E084F184E8CF973009F4C0C0B4
:1019E000983021F481E08093F100B6C0993009F07D
:1019F000B3C0837009F0B4C0EEE7F1E081E021E00C
:101A000036E39081992361F08093E9002093EB0005
:101A100091919093EC003093ED008F5F873089F7C0
:101A20008EE78093EA001092EA008F898093820209
:101A300093C08B8D9C8D1092E90010920704109238
:101A400006049093050480930404898D811156C087
:101A50008E899D89913A59F4813209F081C047E01D
:101A600050E06EE071E080E00E94870B75C091321B
:101A700009F076C0833289F4888D90E0982F88270A
:101A80002F89822BA0E0B0E080930A0190930B0194
:101A9000A0930C01B0930D015FC0803269F4809176
:101AA000E80082FFFCCF67E08EE091E00E94AE0B81
:101AB0008BEF8093E80006C0823209F04DC08F8919
:101AC0008093150180910204882319F0EEEFFAE06B
:101AD00002C0E0E0F8E080910E0190910F01A0912A
:101AE0001001B0911101803B9440A105B10509F0AE
:101AF0007BC08091150180FF93C076C00E94D30AFD
:101B0000DC0112960D911C9113970115110541F1FD
:101B1000D801ED91FC910190F081E02DBE016B5E4A
:101B20007F4FC8010995811117C0F8010085118503
:101B3000ECCF113009F44EC0133091F48F89882313
:101B400009F445C0823081F440E86DE08DE192E017
:101B50000E94A216882321F08EEF8093E80079C0BE
:101B600081E28093EB0075C0813029F440E86BE09E
:101B700081E192E0EDCF833099F70E94D30ADC0136
:101B80001296ED90FC9013978E010F5F1F4F680126
:101B9000E114F10479F0D701ED91FC910680F78111
:101BA000E02DB801C7010995080F111DF701E08468
:101BB000F184EECFD8011C92F60101900020E9F7E4
:101BC0003197BF016C197D0940E0C601C1CF6BEFB1
:101BD00071E002C06FEF71E06115710509F2FB0160
:101BE000449150E080E840CF0FB6F894A8958091DA
:101BF0006000886180936000109260000FBEA8951D
:101C0000EE3F2AE0F20739F08091FE0A9091FF0A38
:101C100091838083A1CF1092FF0A1092FE0A9CCF7D
:101C2000EE3F8AE0F80731F0808191819093FF0ABE
:101C30008093FE0A87E797E7918380839BE088E1A2
:101C40000FB6F894A895809360000FBE9093600043
:101C500083CF6C960FB6F894DEBF0FBECDBFDF9179
:101C6000CF91FF91EF91BF91AF919F918F917F9114
:101C70006F915F914F913F912F911F910F91FF9025
:101C8000EF90DF90CF900F900FBE0F901F901895A0
:101C900081E791E090932B0380932A038AE293E0FB
:101CA0000C94F107CF93DF93CDB7DEB761970FB6F2
:101CB000F894DEBF0FBECDBF789484B5826084BD3A
:101CC00084B5816084BD85B5826085BD85B5816040
:101CD00085BD80916E00816080936E0010928100BE
:101CE0008091810082608093810080918100816079
:101CF000809381008091800081608093800080913A
:101D00009100826080939100809191008160809326
:101D10009100809190008160809390008091C1003B
:101D200084608093C1008091C10082608093C10073
:101D30008091C10081608093C1008091C300816067
:101D40008093C3008091C00082608093C000809126
:101D5000C20081608093C20080917A008460809389
:101D60007A0080917A00826080937A0080917A0074
:101D7000816080937A0080917A00806880937A00F5
:101D8000109282021092030410927F028091D70079
:101D900081608093D70080EA8093D80089B5806104
:101DA00089BD89B5826089BD09B400FEFDCF61E0BF
:101DB00070E080E090E00E94F3038091D8008F7C77
:101DC00080618093D8008091E000807F8093E00064
:101DD0008091E1008E7E8093E1008DE08093E200AF
:101DE000559A209A5D982898EEEFFFE78591949197
:101DF0008B3F9C4D19F481E08093020461E08DE0FB
:101E00000E94B70361E082E10E94B70362E088E0CC
:101E10000E94B70361E08DE00E94870361E082E1E8
:101E20000E9487038FEF9FEF9093DB028093DA028B
:101E300082E391E00E94380A82E191E00E94F90970
:101E400010924503109244031092430310924203F0
:101E500010924103109240038DE991E09093470363
:101E6000809346038091360398EF980F943048F0A2
:101E700022EF280F243028F026EE280F233008F018
:101E800060C02DEB30E030934103209340032BE9F9
:101E900031E030934303209342032CE231E030934E
:101EA000450320934403943058F092EF980F9430F8
:101EB00038F08A51833008F48DC5A0E0B0E08CC5BD
:101EC000A8E6B0E0E8E6F0E0808181608C93809144
:101ED000360398EF980F943058F022EF280F2430F3
:101EE00038F026EE280F233018F020E030E002C052
:101EF0002BE630E030933E0320933D03943010F402
:101F00009CEF09C08E3071F08F3071F0803171F02C
:101F1000813171F09AEE980F81E001C0880F9A9597
:101F2000EAF707C088E005C082E003C084E001C092
:101F300081E080933F03809146039091470301978E
:101F4000F1F78091440390914503892B21F1809111
:101F500043029091440233E08A329307E1F0009704
:101F600011F00E94F107809148038E7F809348030F
:101F700010924202109241028AE293E0909344024E
:101F800080934302E0913D03F0913E039081809164
:101F90003F03892B808384E891E00E94430987E80E
:101FA00091E00E94430982E291E00E94380A01E038
:101FB00023E042E06BE68091E4030E94260700E004
:101FC00022E044E06BE18091E4030E94260722E0D6
:101FD00044E06CE18091E4030E94260720E046E0A3
:101FE0006BE68091E4030E94EB0668EE73E080E00C
:101FF00090E00E94F30386E191E00E94F90908EE67
:1020000013E09E012F5F3F4F41E065E78091E403BD
:102010000E94DD05882329F089818F7790E08093E5
:10202000E5036091E50370E080E090E040E10E940C
:102030005B0987E891E00E94430908EE13E09E01E6
:102040002F5F3F4F41E065E78091E4030E94DD058B
:10205000882329F089818F7790E08093E503809130
:10206000E503813729F088EF90E00E94380A9BCF82
:1020700088ED90E00E94380A83E08093F30320E02B
:1020800045E06CE68091E4030E94EB0620E044E02A
:102090006CE68091E4030E94EB0620E043E06CE6EE
:1020A0008091E4030E94EB068091F30381FF15C049
:1020B00020E042E06CE68091E4030E94EB0620E021
:1020C00041E06CE68091E4030E94EB0620E040E0F2
:1020D0006CE68091E4030E94EB068AE391E00E94A3
:1020E000F9096091F303617070E080E090E04AE0EC
:1020F0000E945B098091F303827090E00E946D0A58
:10210000F8948091710081608093710080919000BB
:10211000809191008360809391007894AE014F5F2D
:102120005F4F5C834B834C505440598B488B80915C
:10213000080490910904009719F48889998905C0C9
:10214000AB81BC81A81BB90BCD019A83898389819E
:102150009A810E946D0A8091F4039091F503892B76
:1021600009F02DC48091770281110DC00E94C40432
:102170006093730270937402809375029093760259
:1021800081E0809377020E94C404C0907302D090D3
:102190007402E0907502F0907602DC01CB018C199C
:1021A0009D09AE09BF094F97A105B10508F493C376
:1021B0000E94C4046093730270937402809375024A
:1021C0009093760260E082E10E94870308EE13E0BC
:1021D00025EE33E04EE06BE38091E4030E94DD05E1
:1021E000C090E503D12CDC2CCC248091E603C82AD6
:1021F000D092B003C092AF03E090E703F12CFE2C25
:10220000EE248091E803E82AF092B203E092B10351
:102210006091E90370E0762F66278091EA03682BCE
:102220007093B4036093B3038091ED0390E0982F13
:1022300088272091EE03FC01E22BFB87EA87F093CD
:10224000B603E093B5038091EF0390E0982F8827C1
:102250002091F0031C01222A3092B8032092B70388
:102260008091F10390E0982F88272091F2038C0150
:10227000022B1093BA030093B903F091F303F9878B
:10228000F0FF70C1209163033091640340916503B6
:10229000509166032D833E834F83588780905F0360
:1022A00090906003A0906103B090620340905B0344
:1022B00050905C0360905D0370905E03072E000CED
:1022C000880B990B0E94C51720E03CE249E456E4D4
:1022D0000E94DF162DEC3CEC4CE951EC0E947A1880
:1022E00020E031E942E057EC0E9451172DEC3CEC24
:1022F0004CE151E40E94E0162D813E814F815885CA
:102300000E94DF162FE832EC45EF5CE30E947A185A
:102310002AEA3AE84AE65EE30E9451179B01AC01C3
:102320006D817E818F8198850E94E0166C877D8704
:102330008E879F87B701FF0C880B990B0E94C517EA
:1023400020E030E14BE856E40E94DF162DEC3CEC37
:102350004CE951EC0E947A1820E030E240E057EC62
:102360000E9451172DEC3CEC4CE151E40E94E01628
:10237000A50194010E94DF162FE832EC45EF5CE3E3
:102380000E947A182AEA3AE84AE65EE30E94511768
:102390009B01AC01C501B4010E94E0164B015C0138
:1023A000B601DD0C880B990B0E94C51720E03CE7B5
:1023B00042E956E40E94DF162DEC3CEC4CE951EC6E
:1023C0000E947A1820E038E74FEF56EC0E94511730
:1023D0002DEC3CEC4CE151E40E94E016A30192018B
:1023E0000E94DF162FE832EC45EF5CE30E947A187A
:1023F0002AEA3AE84AE65EE30E9451179B01AC01E3
:10240000C301B2010E94E01660934F037093500322
:1024100080935103909352038092530390925403FC
:10242000A0925503B09256032C853D854E855F855D
:1024300020935703309358034093590350935A0302
:1024400020917B0330917C0340917D0350917E036A
:102450002D833E834F835887C0907703D0907803B5
:10246000E0907903F0907A034090730350907403E6
:102470006090750370907603A30192010E94DF16AD
:102480002FE832EC45EF5CE30E947A1825ED3AE63E
:1024900042EB5EE30E9451179B01AC01C301B20104
:1024A0000E94E0166093670370936803809369034A
:1024B00090936A03A7019601C501B4010E94DF163B
:1024C0002FE832EC45EF5CE30E947A1825ED3AE6FE
:1024D00042EB5EE30E9451179B01AC01C701B601BC
:1024E0000E94E01660936B0370936C0380936D03FE
:1024F00090936E032D813E814F8158856C857D853B
:102500008E859F850E94DF162FE832EC45EF5CE355
:102510000E947A1825ED3AE642EB5EE30E945117DD
:102520009B01AC016D817E818F8198850E94E016B0
:1025300060936F03709370038093710390937203A1
:10254000EFE4F3E0ABE5B3E08CE001900D928A9507
:10255000E1F7E7E6F3E0A3E7B3E08CE001900D924A
:102560008A95E1F7398531FF8FC0C0909303D090F1
:102570009403E0909503F090960380908F039090E1
:102580009003A0909103B090920340908B035090E1
:102590008C0360908D0370908E034A855B85BA0131
:1025A000550F880B990B0E94C517A30192010E9439
:1025B000DF162FE832EC45EF5CE30E947A182AEA36
:1025C0003AE84AE65EE30E9451179B01AC01C30161
:1025D000B2010E94E01660937F03709380038093A2
:1025E000810390938203B101330C880B990B0E94F5
:1025F000C517A50194010E94DF162FE832EC45EFC4
:102600005CE30E947A182AEA3AE84AE65EE30E940E
:1026100051179B01AC01C501B4010E94E016609303
:102620008303709384038093850390938603B8019A
:10263000110F880B990B0E94C517A70196010E94E4
:10264000DF162FE832EC45EF5CE30E947A182AEAA5
:102650003AE84AE65EE30E9451179B01AC01C701CC
:10266000B6010E94E01660938703709388038093FD
:10267000890390938A03EFE7F3E0ABE8B3E08CE0E3
:1026800001900D928A95E1F78091C10320E030E03E
:1026900040E85FE38823E1F060916703709168038D
:1026A0008091690390916A030E94E0169B01AC013E
:1026B00060914F03709150038091510390915203A8
:1026C0000E94751818160CF09BC01092C10398C098
:1026D00060916703709168038091690390916A0328
:1026E0000E94DF169B01AC0160914F037091500373
:1026F00080915103909152030E944C1787FF80C034
:1027000081E08093C1030E94C4048090C403909030
:10271000C503A090C603B090C7036B017C01C81825
:10272000D908EA08FB088091D0039091D103A091C9
:10273000D203B091D303A5019401281B390B4A0B96
:102740005B0BCA01B9010E94C3172B013C01C701F1
:10275000B6010E94C3179B01AC01C301B2010E94E4
:1027600051172B013C012DEC3CEC4CE45FE30E9443
:102770007518181684F52AE939E949E95FE3C301B8
:10278000B2010E944C1787FF26C037EEC31AD1084A
:10279000E108F10849EEC41646E0D406E104F1046C
:1027A000D0F42091DF032F5F8091E0039091E1034B
:1027B000A091E203B091E303820F911DA11DB11D11
:1027C0008093E0039093E103A093E203B093E303CB
:1027D0001092DF0303C052E05093DF038092D003D6
:1027E0009092D103A092D203B092D3030E94C4046A
:1027F0006093C4037093C5038093C6039093C7038B
:1028000061E082E10E9487030E94850A892B09F01A
:1028100059C080917202811155C00E94C404609316
:10282000490270934A0280934B0290934C02C090ED
:102830004502D0904602E0904702F0904802DC0149
:10284000CB018C199D09AE09BF0986399105A105F7
:10285000B105A8F1EDE4F2E001900020E9F731972D
:10286000BF016D54724080E090E04AE00E945B0935
:1028700087E891E00E9443098091490290914A02C1
:10288000A0914B02B0914C02809345029093460276
:10289000A0934702B0934802809162029091630234
:1028A000A0916402B09165020196A11DB11D8093B3
:1028B000620290936302A0936402B093650281E088
:1028C0008093720280917202882329F00E94850A07
:1028D000892B09F07CC080916A0281110DC00E9491
:1028E000C4046093660270936702809368029093B9
:1028F000690281E080936A020E94C404C09066026B
:10290000D0906702E0906802F0906902DC01CB0190
:102910008C199D09AE09BF09893E9340A105B105F7
:1029200010F10E94C4046093660270936702809362
:1029300068029093690260E08DE00E9487038091B5
:10294000E0039091E103A091E203B091E30380934F
:10295000620290936302A0936402B093650261E007
:102960008DE00E9487038AE293E00E941802892B7F
:1029700001F18AE293E00E943002E091610291E06D
:102980009E0F90936102F0E0E35BFD4F80838633FE
:1029900081F4109261026AE871E08DE492E00E9495
:1029A0003C19892B31F0ADE4B2E0E4E11D92EA95E7
:1029B000E9F721E030E03093F5032093F40340E0A1
:1029C00050E0452B09F4B3CB0E940000B0CB10922D
:1029D000720281CFA8E6B0E0833008F473CAE0E069
:1029E000F0E072CACF92DF92EF92FF92CF931092F3
:1029F000D1021092D00298EEC92E93E0D92EE12C8C
:102A0000F12CC092D202D092D302E092D402F09282
:102A1000D50281E591E09093CF028093CE028FEFB3
:102A20009FEF9093DB028093DA02109221031092C1
:102A30002003C0922203D0922303E0922403F09259
:102A4000250381E691E090931F0380931E0310926B
:102A50004F031092500310925103109252031092A0
:102A60005303109254031092550310925603109280
:102A70005703109258031092590310925A03109260
:102A80005B0310925C0310925D0310925E03109240
:102A90005F03109260031092610310926203109220
:102AA0006303109264031092650310926603109200
:102AB0006703109268031092690310926A031092E0
:102AC0006B0310926C0310926D0310926E031092C0
:102AD0006F031092700310927103109272031092A0
:102AE0007303109274031092750310927603109280
:102AF0007703109278031092790310927A03109260
:102B00007B0310927C0310927D0310927E0310923F
:102B10007F0310928003109281031092820310921F
:102B200083031092840310928503109286031092FF
:102B30008703109288031092890310928A031092DF
:102B40008B0310928C0310928D0310928E031092BF
:102B50008F0310929003109291031092920310929F
:102B6000930310929403109295031092960310927F
:102B70009703109298031092990310929A0310925F
:102B80009B0310929C0310929D0310929E0310923F
:102B90009F031092A0031092A1031092A20310921F
:102BA000A3031092A4031092A5031092A6031092FF
:102BB000A7031092A8031092A9031092AA031092DF
:102BC000AB031092AC031092AD031092AE0382E1FE
:102BD000EFEAF3E0DF01282F1D922A95E9F7C1E023
:102BE000C093C103C093C203C093C3039CE0E4EC51
:102BF000F3E0DF01292F1D922A95E9F7E0EDF3E0DC
:102C0000DF011D929A95E9F71092DC031092DD0323
:102C10001092DE031092DF031092E0031092E103A2
:102C20001092E2031092E30398E69093E40310926B
:102C3000F30321E030E03093F5032093F403109286
:102C40004C0310924E039DE090934B0380934D03F1
:102C50001092490310924A0360E083E00E94B70398
:102C600060E085E00E94B70310922D0310922C03C0
:102C7000C0922E03D0922F03E0923003F0923103E2
:102C800081E791E090932B0380932A0310924103F4
:102C90001092400310924303109242031092450396
:102CA0001092440310924703109246038091480308
:102CB0008E7F8D7F8093480386958170682F6C2767
:102CC00086E10E94870361E086E10E94B703E0EBA2
:102CD000F1E0E491E0933A03E1E9F1E0E491F0E01E
:102CE000EE0FFF1FE15AFE4F8591949190933C03A4
:102CF00080933B0360E08BE00E94B7038091480320
:102D000081FD04C061E08BE00E9487038BE080932B
:102D10003603E5EAF1E0E491E0933703E6E8F1E019
:102D2000E491F0E0EE0FFF1FE359FE4F859194917F
:102D30009093390380933803CF91FF90EF90DF9009
:102D4000CF900895CF92DF92EF92FF920F931F934F
:102D5000CF93DF931F92CDB7DEB7182F062FE42E47
:102D6000862F880F8E5F99830E94590B83E00E9403
:102D7000590BF12EC12E9981D92E8C2D8F198017C8
:102D800098F4F601E7FE02C0849101C080810E94A0
:102D9000590B182F80E00E94590B8123FFEFCF1AA7
:102DA000DF0A8111EACF01C081E00F90DF91CF915E
:102DB0001F910F91FF90EF90DF90CF9008955058A2
:102DC000BB27AA270E94F7160C943B180E942D18C7
:102DD00038F00E94341820F039F49F3F19F426F49B
:102DE0000C942A180EF4E095E7FB0C942418E92FB4
:102DF0000E944C1858F3BA176207730784079507A7
:102E000020F079F4A6F50C946E180EF4E0950B2ED4
:102E1000BA2FA02D0B01B90190010C01CA01A0012C
:102E20001124FF27591B99F0593F50F4503E68F187
:102E30001A16F040A22F232F342F4427585FF3CFC8
:102E4000469537952795A795F0405395C9F77EF499
:102E50001F16BA0B620B730B840BBAF09150A1F0E2
:102E6000FF0FBB1F661F771F881FC2F70EC0BA0F68
:102E7000621F731F841F48F4879577956795B795F0
:102E8000F7959E3F08F0B0CF9395880F08F09927EB
:102E9000EE0F9795879508950E94001808F481E039
:102EA00008950E9465170C943B180E94341858F03E
:102EB0000E942D1840F029F45F3F29F00C9424184B
:102EC00051110C946F180C942A180E944C1868F336
:102ED0009923B1F3552391F3951B550BBB27AA27D3
:102EE00062177307840738F09F5F5F4F220F331F0D
:102EF000441FAA1FA9F335D00E2E3AF0E0E832D0D5
:102F000091505040E695001CCAF72BD0FE2F29D0D7
:102F1000660F771F881FBB1F261737074807AB07A9
:102F2000B0E809F0BB0B802DBF01FF2793585F4F1E
:102F30003AF09E3F510578F00C9424180C946F18C9
:102F40005F3FE4F3983ED4F3869577956795B79500
:102F5000F7959F5FC9F7880F911D9695879597F90B
:102F60000895E1E0660F771F881FBB1F6217730784
:102F70008407BA0720F0621B730B840BBA0BEE1F99
:102F800088F7E0950895E89409C097FB3EF4909582
:102F90008095709561957F4F8F4F9F4F9923A9F032
:102FA000F92F96E9BB279395F695879577956795C1
:102FB000B795F111F8CFFAF4BB0F11F460FF1BC005
:102FC0006F5F7F4F8F4F9F4F16C0882311F096E998
:102FD00011C0772321F09EE8872F762F05C0662346
:102FE00071F096E8862F70E060E02AF09A95660FFF
:102FF000771F881FDAF7880F9695879597F90895B8
:10300000990F0008550FAA0BE0E8FEEF16161706F9
:10301000E807F907C0F012161306E407F50798F061
:10302000621B730B840B950B39F40A2661F0232B7A
:10303000242B252B21F408950A2609F4A140A695F6
:103040008FEF811D811D089597F99F6780E870E0DB
:1030500060E008959FEF80EC089500240A9416160E
:10306000170618060906089500240A941216130676
:10307000140605060895092E0394000C11F4882304
:1030800052F0BB0F40F4BF2B11F460FF04C06F5F20
:103090007F4F8F4F9F4F089557FD9058440F551FF6
:1030A00059F05F3F71F04795880F97FB991F61F0CA
:1030B0009F3F79F087950895121613061406551F41
:1030C000F2CF4695F1DF08C0161617061806991FAD
:1030D000F1CF86957105610508940895E894BB27A2
:1030E00066277727CB0197F908950E94001808F406
:1030F0008FEF08950E948D180C943B180E942D1894
:1031000038F00E94341820F0952311F00C94241804
:103110000C942A1811240C946F180E944C1870F308
:10312000959FC1F3950F50E0551F629FF001729F6C
:10313000BB27F00DB11D639FAA27F00DB11DAA1F7B
:10314000649F6627B00DA11D661F829F2227B00DC8
:10315000A11D621F739FB00DA11D621F839FA00D53
:10316000611D221F749F3327A00D611D231F849FA3
:10317000600D211D822F762F6A2F11249F575040FA
:103180009AF0F1F088234AF0EE0FFF1FBB1F661F75
:10319000771F881F91505040A9F79E3F510580F03E
:1031A0000C9424180C946F185F3FE4F3983ED4F30A
:1031B000869577956795B795F795E7959F5FC1F7E2
:1031C000FE2B880F911D9695879597F9089597FB8B
:1031D000072E16F4009407D077FD09D00E9423191A
:1031E00007FC05D03EF4909581959F4F089570950A
:1031F00061957F4F0895A1E21A2EAA1BBB1BFD010A
:103200000DC0AA1FBB1FEE1FFF1FA217B307E407C5
:10321000F50720F0A21BB30BE40BF50B661F771F1D
:10322000881F991F1A9469F76095709580959095FD
:103230009B01AC01BD01CF010895EE0FFF1F05906A
:10324000F491E02D0994AA1BBB1B51E107C0AA1FF2
:10325000BB1FA617B70710F0A61BB70B881F991F37
:103260005A95A9F780959095BC01CD01089581E00C
:1032700090E0F8940C945619FB0151915523A9F054
:10328000BF01DC014D9145174111E1F759F4CD0122
:103290000190002049F04D9140154111C9F3FB0107
:1032A0004111EFCF81E090E00197089511E0C7E16F
:1032B000D1E004C0FE010E941D192196C831D1073A
:0632C000C9F7F894FFCFEE
:1032C600A201A201A201A201A201FFFFFFFF00E1EC
:1032D6000000000000004465766963652049443AB1
:1032E600200047593932353020696E697469616C3E
:1032F600697A696E672E2E2E2E0053656E736F7275
:1033060020656E61626C65643A2000E80300000087
:103316000042012D04630106032403580100000046
:1033260000D702A702A301930284028302000000D1
:1033360000C401BB0B18023002AB01C30100C180FF
:0E334600810000004F4B000D0A007374000060
:00000001FF
