:100000000C9432010C945C050C9435050C940E058F
:100010000C94E7040C945A010C945A010C94C004FB
:100020000C945A010C941D070C94C30D0C94470AB0
:100030000C945A010C945A010C945A010C945A01D4
:100040000C945A010C945A010C945A010C945A01C4
:100050000C945A010C945A010C945A010C94760495
:100060000C945A010C945A010C945A010C945A01A4
:100070000C945A010C945A010C945A010C945A0194
:100080000C945A010C945A010C945A010C945A0184
:100090000C94AD070C945A010C945A010C945A011B
:1000A0000C945A010C945A010C945A01C803CB03C6
:1000B000BA03BE03C203EC03EC03EC03CF03D30388
:1000C000D703DD03E103EC03E70300000000240095
:1000D00027002A002D0030000000000200090F0058
:1000E00000030401000C00000000000000000000FC
:1000F0000000000000000044657669636520494403
:100100003A200047593932353020696E6974696187
:100110006C697A696E672E2E2E2E0053656E736F92
:100120007220656E61626C65643A2000475939320D
:10013000353020636F6E6E656374696F6E20737502
:10014000636365737366756C6C792E004759393239
:10015000353020636F6E6E656374696F6E20666103
:10016000696C65642E00496E697469616C6C697AAA
:10017000696E672042542053657269616C20706F0C
:1001800072742E2E2E0053657269616C2072656147
:1001900064792E00080B000202020100090400002D
:1001A00001020200000524001001052401010104E0
:1001B00024020605240600010705810310004009FA
:1001C000040100020A0000000705020240000007C7
:1001D0000583024000000403090412010002EF023B
:1001E000014041233780000101020301417264751F
:1001F000696E6F204C4C430041726475696E6F20CC
:100200004D6963726F0000000000250028002B007C
:100210002E003100000000002300260029002C00E1
:100220002F00040404040403040502020202040370
:100230000202020206060606060604040202020480
:1002400004040802011040804010204080408008D3
:100250000204018040201002011080102040402044
:10026000E312350E11241FBECFEFDAE0DEBFCDBFA3
:1002700011E0A0E0B1E0E2EEFCE202C005900D92D8
:10028000AC36B107D9F723E0ACE6B1E001C01D926E
:10029000AA35B207E1F711E0C1E3D1E004C021972C
:1002A000FE010E944516C033D107C9F70E943F0ED8
:1002B0000C9464160C94000083E08093E900809114
:1002C000F200882319F08AE38093E8000895FC0186
:1002D0008485958597FD0BC09FB7F89482E0809345
:1002E000E9008091F2009FBF90E0019608959FB7CA
:1002F000F89482E08093E9008091F2009FBF90E043
:1003000008953FB7F8948091220290912302A09122
:100310002402B091250226B5A89B05C02F3F19F0F5
:100320000196A11DB11D3FBFBA2FA92F982F882775
:10033000820F911DA11DB11DBC01CD0142E0660FD0
:10034000771F881F991F4A95D1F708952FB7F89402
:1003500060911E0270911F028091200290912102F3
:100360002FBF0895089580911C0290E020911B02F8
:10037000821B9109089520912802309129022817A3
:10038000390771F49091260280912702981741F065
:10039000E0912602F0E0E554FE4F808190E0089560
:1003A0008FEF9FEF089508951F93CF93DF93DC01A4
:1003B0005C962D913C915D972115310539F481E0D2
:1003C00090E013969C938E9312973DC05196ED91B9
:1003D000FC91529750969C915097892F80951FB70A
:1003E0005E964C915E9741FB772770F941FD6095D1
:1003F000F8944081772311F0492B01C048234083B2
:10040000E9012197F1F748E0508160FF02C0592BC4
:1004100001C058235083E9012197F1F766954150B7
:1004200099F7772321F090818923808303C080810D
:10043000982B90831FBF5C968D919C915D9701973F
:10044000F1F721E030E0C901DF91CF911F910895CC
:1004500020912802309129022817390771F48091E0
:1004600027022091260290E0805C9F4F821B910919
:1004700060E470E00E940F16089580E090E0089517
:10048000209128023091290228173907B9F4909158
:10049000260280912702981789F0E0912602F0E069
:1004A000E554FE4F80812091260230E02F5F3F4FC0
:1004B0002F7333272093260290E008958FEF9FEF4C
:1004C000089585ED8093BC008091BC0084FDFCCF35
:1004D00010925C02089540919601262F30E0240F7F
:1004E000311D21323105DCF420915C022430C9F445
:1004F000FC0180E090E0861758F43091960121913C
:10050000DC01AC58BE4FA30FB11D2C930196F3CF65
:1005100080919601680F6093960180E0089581E0D4
:10052000089582E008950895E0911B0280911C02D5
:10053000E81730F4F0E0E550FE4F808190E0089538
:100540008FEF9FEF089590911B0280911C029817E6
:1005500050F4E92FF0E0E550FE4F208130E09F5F3E
:1005600090931B0202C02FEF3FEFC9010895CF9275
:10057000DF92EF92FF920F931F93CF93DF937C0153
:10058000262F972F8A0180915D02882391F0C62F34
:10059000D72F6E01C40ED51ECC15DD0571F0699103
:1005A000D701ED91FC910190F081E02DC7010995F3
:1005B000F3CF642F822F0E946B02C801DF91CF918D
:1005C0001F910F91FF90EF90DF90CF900895CF9300
:1005D000DF931F92CDB7DEB7698320915D0222239E
:1005E000D1F020918002203240F021E030E0FC0187
:1005F0003383228380E090E015C080915E02E82F73
:10060000F0E0E15AFD4F998190838F5F80935E0205
:100610008093800205C061E0CE0101960E946B02CA
:1006200081E090E00F90DF91CF910895CF93DF9319
:100630001F92CDB7DEB7FC018485958597FD05C077
:100640002FEF3FEF358724870BC0CE0101960E9424
:10065000850D019719F4898190E002C08FEF9FEF1B
:100660000F90DF91CF9108950F931F93CF93DF9356
:100670001F92CDB7DEB78C01FC018485958597FF6D
:100680000EC0CE0101960E94850D019719F42981B3
:1006900030E002C02FEF3FEFF80135872487F801E3
:1006A000848595850F90DF91CF911F910F910895CB
:1006B0000E945F160F931F930E94A6016093700122
:1006C00070937101809372019093730100916C019A
:1006D00010916D0120916E0130916F01DC01CB0111
:1006E000801B910BA20BB30B86399105A105B105B7
:1006F00008F18DE491E00E94770C89E591E00E9479
:10070000770C8091700190917101A0917201B0916C
:10071000730180936C0190936D01A0936E01B0936F
:100720006F0180912A0290912B02019690932B02E7
:1007300080932A021F910F910895362F90E0FC01BB
:10074000E852FF4F4491FC01EF5BFD4F2491FC0107
:10075000EE5DFD4F8491882309F451C04423E1F1FB
:1007600050E0FA013197EF30F105B0F5EA5AFF4F4A
:100770000C944516909180009F7707C0909180005F
:100780009F7D03C090918000977F9093800024C04C
:1007900094B59F7702C094B59F7D94BD1DC0909184
:1007A00090009F7707C0909190009F7D03C090912B
:1007B0009000977F909390000FC09091C0009F771A
:1007C00003C09091C0009F7D9093C00005C09091A0
:1007D000C200977F9093C200E82FF0E0EE0FFF1F5A
:1007E000EA5FFD4FA591B4918FB7F894EC91311168
:1007F00003C020952E2301C02E2B2C938FBF08956C
:10080000CF93DF9390E0FC01EF5BFD4F2491FC015F
:10081000EE5DFD4F8491882361F190E0880F991F70
:10082000FC01E653FF4FC591D491FC01EA5FFD4FF7
:10083000A591B491611109C09FB7F8948881209562
:1008400082238883EC912E230BC0623061F49FB722
:10085000F8943881822F809583238883EC912E2B06
:100860002C939FBF06C08FB7F894E8812E2B288366
:100870008FBFDF91CF9108958F929F92AF92BF92D9
:10088000CF92DF92EF92FF926B017C010E94810177
:100890004B015C01C114D104E104F104F1F00E94A8
:1008A0008101DC01CB0188199909AA09BB09883E9D
:1008B0009340A105B10570F321E0C21AD108E10807
:1008C000F10888EE880E83E0981EA11CB11CC114AB
:1008D000D104E104F10419F7DDCFFF90EF90DF9030
:1008E000CF90BF90AF909F908F9008951F920F92DE
:1008F0000FB60F9211242F933F938F939F93AF9333
:10090000BF9380911E0290911F02A0912002B0918E
:10091000210230911D0223E0230F2D3720F4019690
:10092000A11DB11D05C026E8230F0296A11DB11D12
:1009300020931D0280931E0290931F02A093200219
:10094000B09321028091220290912302A09124026F
:10095000B09125020196A11DB11D809322029093B2
:100960002302A0932402B0932502BF91AF919F91DF
:100970008F913F912F910F900FBE0F901F90189560
:100980001F920F920FB60F9211242F933F934F9304
:100990005F936F937F938F939F93AF93BF93EF93E7
:1009A000FF93E0910801F09109010995FF91EF9102
:1009B000BF91AF919F918F917F916F915F914F9177
:1009C0003F912F910F900FBE0F901F9018951F927F
:1009D0000F920FB60F9211242F933F934F935F9373
:1009E0006F937F938F939F93AF93BF93EF93FF93F7
:1009F000E0910601F09107010995FF91EF91BF91F8
:100A0000AF919F918F917F916F915F914F913F91A6
:100A10002F910F900FBE0F901F9018951F920F925D
:100A20000FB60F9211242F933F934F935F936F93C1
:100A30007F938F939F93AF93BF93EF93FF93E09137
:100A40000401F09105010995FF91EF91BF91AF91DC
:100A50009F918F917F916F915F914F913F912F91D6
:100A60000F900FBE0F901F9018951F920F920FB608
:100A70000F9211242F933F934F935F936F937F9324
:100A80008F939F93AF93BF93EF93FF93E0910201F6
:100A9000F09103010995FF91EF91BF91AF919F9163
:100AA0008F917F916F915F914F913F912F910F9017
:100AB0000FBE0F901F9018951F920F920FB60F92B6
:100AC00011242F933F934F935F936F937F938F9353
:100AD0009F93AF93BF93EF93FF93E0910001F09149
:100AE00001010995FF91EF91BF91AF919F918F9176
:100AF0007F916F915F914F913F912F910F900FBE1A
:100B00000F901F9018952F923F924F925F926F9285
:100B10007F928F929F92AF92BF92CF92DF92EF928D
:100B2000FF920F931F93CF93DF93CDB7DEB7289734
:100B30000FB6F894DEBF0FBECDBFD82EC62E4887A5
:100B4000190178010E94A6012B013C018D2C880C13
:100B5000912C10E001E04885A42EB12C970140E0D3
:100B600050E02B833C834D835E834885941608F0C8
:100B7000A0C000935D02D0927F0210925E0210929C
:100B800080026C2D81ED92E00E94E7020E948F0CA2
:100B900000935D02D0927F0210925E02109280025A
:100BA00080915C028111FCCF950129193109213214
:100BB000310514F020E230E02F83213210F030E2D2
:100BC0003F8300935C0200935B024FEF40935A0215
:100BD000109259028F8181508093580200933702FE
:100BE00080913702882980933702809136028130C4
:100BF00071F410923602809137028093BB0080918D
:100C0000BC0083FDF8CF55EC5093BC0003C085EECB
:100C10008093BC0080915C028130E1F380915902A5
:100C20002F81821718F4309159023F83A8E3B2E074
:100C3000EBEFF1E08E2F4BEF51E0841B5F818517C6
:100C400018F48D918193F6CF10921B0250931C02E1
:100C500080911B022F81281721F1E114F10481F406
:100C60009101210F311D17FD3A953A83298381EDBA
:100C700092E00E94A302A981BA818C931F5FE8CF02
:100C80000E94A601DC01CB0184199509A609B709C8
:100C90002B813C814D815E8182179307A407B507A4
:100CA000F8F20E948F0C8885813208F080E2980E5D
:100CB0005CCFE114F104D9F00E94A601AB01BC01A4
:100CC0004419550966097709C701A0E0B0E0481743
:100CD00059076A077B0758F05885852F90E0212F28
:100CE000012E000C330B281739070CF41FEF812F4E
:100CF00028960FB6F894DEBF0FBECDBFDF91CF911F
:100D00001F910F91FF90EF90DF90CF90BF90AF9029
:100D10009F908F907F906F905F904F903F902F901B
:100D20000895CF92DF92EF92FF920F931F93CF938C
:100D3000DF9300D0CDB7DEB7F82EE62ED42EC22E2C
:100D400008EE13E09E012E5F3F4F41E00E948305B5
:100D50003A81E1E0F0E0AF0101C0440FDA94EAF734
:100D6000CC2019F0932F942B03C0942F90959323AC
:100D70009A839983AE014F5F5F4F6E2D8F2D0E9436
:100D80004E0D0F900F90DF91CF911F910F91FF901B
:100D9000EF90DF90CF900895BF92CF92DF92EF92C5
:100DA000FF920F931F93CF93DF9300D0CDB7DEB7A1
:100DB000F82EE62EC42EB22ED02E08EE13E09E01A1
:100DC0002E5F3F4F41E00E948305882349F14C2D5F
:100DD00050E04B1951094F5F5F4F21E030E002C0F6
:100DE000220F331FBA94E2F721503109042E01C0BB
:100DF000220F0A94EAF78D2D01C0880F4A95EAF771
:100E0000322F30959A8193232823292B2A832983F3
:100E1000AE014F5F5F4F6E2D8F2D0E944E0D01C0B2
:100E200080E00F900F90DF91CF911F910F91FF9075
:100E3000EF90DF90CF90BF9008951F920F920FB662
:100E40000F9211242F933F934F935F936F937F9350
:100E50008F939F93AF93BF93EF93FF93E0912802FB
:100E6000F0912902309709F451C0968DA685B78577
:100E7000858591FF04C09C91892329F447C09C91EA
:100E8000892309F043C0A389B4899C918589809501
:100E900089238C93868997890197F1F7608D718DED
:100EA000A685B785558538E020E0CB010197F1F79D
:100EB000822F90E095958795282F4C91452309F036
:100EC0002068315091F7868D81FD20958091270211
:100ED00090E001968F73992730912602381749F0D8
:100EE000A0912702B0E0A554BE4F2C938093270217
:100EF00003C0868D8160868F828D938D0197F1F777
:100F0000A389B4899C918589892B8C93FF91EF915A
:100F1000BF91AF919F918F917F916F915F914F9111
:100F20003F912F910F900FBE0F901F901895E09159
:100F30002802F0912902E817F90769F4A389B48916
:100F40009C918589809589238C9310922902109217
:100F5000280281E0089580E008951F920F920FB655
:100F60000F9211242F933F934F935F936F937F932F
:100F70008F939F93AF93BF93EF93FF938091B900AB
:100F8000887F803609F49CC068F5883209F45BC01C
:100F900090F4803109F454C038F4882309F4F6C081
:100FA000883009F44DC0F6C0883109F44CC0803255
:100FB00009F45DC0EFC0803409F468C048F48033A0
:100FC00009F455C0883309F0E5C080935A02D8C0AF
:100FD000803509F44FC0883509F45DC0883409F0C4
:100FE000D9C0D6C0883909F4C7C0A8F4883709F435
:100FF00067C038F4883609F463C0803709F460C0EC
:10100000C9C0883809F4B8C0803909F45FC0803895
:1010100009F0C0C05BC0803B09F486C038F4803A58
:1010200009F466C0883A09F47FC0B4C0803C09F472
:10103000A7C0883C09F4A4C0883B09F48AC0AAC0B0
:101040008091370210C090915902809158029817F0
:1010500070F5E091590281E08E0F80935902F0E023
:10106000E85CFD4F80818093BB0085EC86C0809357
:101070005A028EC0E091590281E08E0F809359028E
:101080008091BB00F0E0E85CFD4F808390915902B5
:10109000809158026EC0E091590281E08E0F8093DA
:1010A00059028091BB00F0E0E85CFD4F80838091A5
:1010B0005B0281116DC081E08093360284EA61C0D9
:1010C00083E080935C021092BA01CFCF8091BA0185
:1010D000803208F051C0E091BA0181E08E0F809318
:1010E000BA018091BB00F0E0E656FE4F8083BDCF91
:1010F00085EC8093BC0010925C028091BA01803232
:1011000030F4E091BA01F0E0E656FE4F10826091B3
:10111000BA0170E0E0919801F09199018AE991E0BB
:1011200009951092BA0136C084E080935C02109257
:10113000970110929601E0919401F0919501099523
:1011400080919601811105C081E0809396011092F3
:101150007401E091970181E08E0F80939701F0E098
:10116000EC58FE4F80818093BB0090919701809155
:101170009601981708F479CF85E88093BC000AC0DF
:1011800085EC8093BC0010925C0204C010925A025D
:101190000E946102FF91EF91BF91AF919F918F915A
:1011A0007F916F915F914F913F912F910F900FBE63
:1011B0000F901F901895CF93DF931F92CDB7DEB796
:1011C0006983DC01ED91FC910280F381E02D41E027
:1011D00050E0BE016F5F7F4F09950F90DF91CF9177
:1011E00008957F928F929F92AF92BF92CF92DF929B
:1011F000EF92FF920F931F93CF93DF936C015B01EC
:101200007A0180911501882309F46BC08091350221
:10121000882309F466C08091320280FF05C0809166
:10122000E00082608093E000E70110E00AEF83E0D5
:10123000982E90E4792E2AE3822E209709F448C054
:101240008FB7F8949092E9009091E80095FF06C05E
:101250009091F200272D291B922F01C090E08FBFA3
:1012600091110AC0015009F43CC061E070E080E0D7
:1012700090E00E943C04E1CF292F30E0C217D30751
:101280000CF49C2F8FB7F8949092E9002091E8001D
:1012900025FF1CC0292F30E0C21BD30BF501915054
:1012A00020F041914093F100FACFA20EB31E11231A
:1012B00019F08092E80009C09091E80095FD06C001
:1012C0008092E80011E0209709F010E08FBFB5CFC1
:1012D0001111B6CF5D9A84E6809333021E141F0469
:1012E00044F081E090E0F6019383828380E090E017
:1012F00001C0C701DF91CF911F910F91FF90EF9037
:10130000DF90CF90BF90AF909F908F907F90089587
:10131000409130025091310220912E0230912F02E3
:1013200042175307B4F49091E8009570E1F390915F
:10133000E80092FD19C08093F100809130029091F5
:10134000310201968F739927892B19F48EEF8093C0
:10135000E800809130029091310201969093310221
:101360008093300281E0089580E00895DF92EF924B
:10137000FF920F931F93CF93DF93D82E8A017B01A7
:10138000E40EF51EEB01CE15DF0571F0D7FE03C0AC
:10139000FE01849101C088810E94880921968111F3
:1013A000F2CF8FEF9FEF01C0C801DF91CF911F9166
:1013B0000F91FF90EF90DF900895615030F02091F1
:1013C000F100FC0120830196F8CF289A84E68093EF
:1013D00034020895CF92DF92EF92FF920F931F9302
:1013E000CF93DF936C017A018B01C0E0D0E0CE1582
:1013F000DF0589F0D8016D918D01D601ED91FC9149
:101400000190F081E02DC6010995892B11F47E0130
:1014100002C02196ECCFC701DF91CF911F910F91B0
:10142000FF90EF90DF90CF9008950F931F93CF938D
:10143000DF931F92CDB7DEB782E0898342E450E0AC
:1014400064E971E080E80E94B6090E94AF0DDC01FA
:1014500012960D911C9113970115110569F0D80191
:10146000ED91FC910280F381E02DBE016F5F7F4F13
:10147000C801099597FF07C089810F90DF91CF912F
:101480001F910F910895F80100851185E5CF1F92F6
:101490000F920FB60F921124CF92DF92EF92FF922C
:1014A0000F931F932F933F934F935F936F937F936C
:1014B0008F939F93AF93BF93EF93FF93CF93DF935C
:1014C000CDB7DEB76C97DEBFCDBF1092E90080913B
:1014D000E80083FFEDC168E0CE0145960E94DD097A
:1014E00082EF8093E8008D8987FF05C09091E80026
:1014F00090FFFCCF03C09EEF9093E800982F90766A
:1015000009F0C6C09E892F89188D91110CC08038B2
:1015100029F480912D028093F10002C01092F10015
:101520001092F10048C1422F50E0512B913051F4FC
:10153000811141C14130510509F03DC180912D0219
:101540008D7F0BC0933061F4811135C1413051055D
:1015500009F031C180912D02826080932D022BC150
:10156000953041F48091E80080FFFCCF2068209303
:10157000E30021C1963009F05FC0EB8CFC8C109227
:10158000E9001092310210923002123091F510925F
:101590002F0210922E020E94150A99E0BE016F5F81
:1015A0007F4FDB01E92F1D92EA95E9F799831A83B2
:1015B00091E09E8390EA98879AEF99872091300274
:1015C00030913102275F3F4F3C832B838D831092F4
:1015D000E9001092310210923002F0922F02E09254
:1015E0002E0249E050E080E00E94B6090E94150AF0
:1015F000E2C0F0922F02E0922E020E94AF0DDC01B9
:101600001296ED90FC901397E114F10409F4C0C018
:10161000D701ED91FC910480F581E02DBE016B5E58
:101620007F4FC7010995009719F00CF0C4C0C7C0DF
:10163000F701E084F184E8CF973009F4C0C0983016
:1016400021F481E08093F100B6C0993009F0B3C075
:10165000837009F0B4C0E7E1F1E081E021E036E316
:101660009081992361F08093E9002093EB009191A0
:101670009093EC003093ED008F5F873089F78EE711
:101680008093EA001092EA008F898093350293C01C
:101690008B8D9C8D1092E9001092310210923002D5
:1016A00090932F0280932E02898D811156C08E89CE
:1016B0009D89913A59F4813209F081C047E050E0A8
:1016C0006EE071E080E00E94B60975C0913209F0C9
:1016D00076C0833289F4888D90E0982F88272F89EF
:1016E000822BA0E0B0E080930A0190930B01A093BD
:1016F0000C01B0930D015FC0803269F48091E80065
:1017000082FFFCCF67E08EE091E00E94DD098BEF65
:101710008093E80006C0823209F04DC08F89809323
:10172000150180912C02882319F0EEEFFAE002C037
:10173000E0E0F8E080910E0190910F01A09110017E
:10174000B0911101803B9440A105B10509F07BC027
:101750008091150180FF93C076C00E94AF0DDC011F
:1017600012960D911C9113970115110541F1D801A5
:10177000ED91FC910190F081E02DBE016B5E7F4FF9
:10178000C8010995811117C0F80100851185ECCFBA
:10179000113009F44EC0133091F48F89882309F475
:1017A00045C0823081F440E86DE088EF91E00E940E
:1017B000A612882321F08EEF8093E80079C081E2A1
:1017C0008093EB0075C0813029F440E86BE08CEE2B
:1017D00091E0EDCF833099F70E94AF0DDC011296B6
:1017E000ED90FC9013978E010F5F1F4F6801E1147D
:1017F000F10479F0D701ED91FC910680F781E02D9D
:10180000B801C7010995080F111DF701E084F184A3
:10181000EECFD8011C92F60101900020E9F7319734
:10182000BF016C197D0940E0C601C1CF66ED71E0D2
:1018300002C06AED71E06115710509F2FB01449186
:1018400050E080E840CF0FB6F894A89580916000F2
:10185000886180936000109260000FBEA895EE3FF3
:101860002AE0F20739F08091FE0A9091FF0A9183F5
:101870008083A1CF1092FF0A1092FE0A9CCFEE3F08
:101880008AE0F80731F0808191819093FF0A80937C
:10189000FE0A87E797E7918380839BE088E10FB694
:1018A000F894A895809360000FBE9093600083CF5A
:1018B0006C960FB6F894DEBF0FBECDBFDF91CF910F
:1018C000FF91EF91BF91AF919F918F917F916F9118
:1018D0005F914F913F912F911F910F91FF90EF904A
:1018E000DF90CF900F900FBE0F901F901895BC0106
:1018F000009791F0FC0101900020E9F73197AF01CA
:10190000481B590BE0918102F09182020280F38121
:10191000E02D81E892E0099480E090E00895209124
:10192000800290917F02213208F04AC080915C02CF
:101930008111FCCF32E030935C0231E030935B02E6
:101940003FEF30935A021092590220935802AFE5AC
:10195000B2E048E352E0FA013E2F341B321718F48C
:101960003D913193F9CF1092370220913702990FB0
:10197000922B9093370290913602913061F410923D
:101980003602909137029093BB009091BC0093FD7A
:10199000F8CF95EC01C095EE9093BC0090915C025D
:1019A0009230E1F390915A029F3F79F080915A0270
:1019B000803241F080915A02803331F084E005C0DA
:1019C00081E003C082E001C083E010925E021092C9
:1019D000800210925D0208958F929F92AF92BF9203
:1019E0000F931F93CF93DF93CDB7DEB7A1970FB6B9
:1019F000F894DEBF0FBECDBF19A2423008F44AE012
:101A00008E010F5D1F4F842E912CA12CB12CA501AE
:101A100094010E942316E62FB901CA010150110951
:101A2000EA3014F4E05D01C0E95CD801EC93232BAB
:101A3000242B252B61F7C8010E94770CA1960FB6C5
:101A4000F894DEBF0FBECDBFDF91CF911F910F91F4
:101A5000BF90AF909F908F9008950F931F93CF9357
:101A6000DF938C01C0E0D0E0F801EC0FFD1F649122
:101A7000662371F0E0918102F09182020190F08181
:101A8000E02D81E892E00995892B11F02196ECCFA9
:101A9000CE01DF91CF911F910F910895CF93DF93E6
:101AA000EA0191E090935D0280937F0210925E02C2
:101AB0001092800281ED92E00E94E702688181ED40
:101AC00092E00E94E7020E948F0C91E0811190E069
:101AD000892FDF91CF910895CF93DF930E942D0D31
:101AE000EC0189E591E00E94770C8C0F9D1FDF913E
:101AF000CF910895E0918102F09182020190F081EE
:101B0000E02D682F81E892E00994FC018091350274
:101B1000811103C08FEF9FEF08959FB7F89482E083
:101B20008093E9002091F20030E01216130614F4BD
:101B300021E030E02115310559F0289A84E68093A0
:101B400034028091F10080838091F200882319F0A3
:101B50009FBFC90108958BE68093E800F9CF80917B
:101B6000520381110DC082E080934E0384E0809384
:101B70004F03109251031092500381E0809352035F
:101B80008EE493E008951F920F920FB60F921124E6
:101B90008F939F938091E1009091E100937F9093C8
:101BA000E10083FF0FC01092E90091E09093EB00F9
:101BB0001092EC0092E39093ED001092350298E0C1
:101BC0009093F00082FF20C093E09093E900909101
:101BD000F200992319F09AE39093E8009091330270
:101BE000992339F0909133029150909333029923C5
:101BF00089F190913402992339F0909134029150F7
:101C000090933402992341F184FF10C08091E20047
:101C10008E7E81608093E2008091E1008F7E8093D0
:101C2000E100809132028E7E806111C080FF16C07B
:101C30008091E2008E7E80618093E2008091E100DD
:101C40008E7E8093E100809132028E7E816080934F
:101C5000320204C05D98CDCF2898D6CF9F918F9146
:101C60000F900FBE0F901F90189581E491E0909314
:101C7000DE028093DD028DED92E00C949707CF9306
:101C8000DF9300D000D0CDB7DEB7789484B5826002
:101C900084BD84B5816084BD85B5826085BD85B510
:101CA000816085BD80916E00816080936E0010928E
:101CB0008100809181008260809381008091810009
:101CC000816080938100809180008160809380009A
:101CD0008091910082608093910080919100816059
:101CE000809391008091900081608093900080911A
:101CF000C10084608093C1008091C10082608093A4
:101D0000C1008091C10081608093C1008091C300B7
:101D100081608093C3008091C00082608093C00086
:101D20008091C20081608093C20080917A008460BB
:101D300080937A0080917A00826080937A0080910B
:101D40007A00816080937A0080917A008068809325
:101D50007A001092350210922D0210923202809178
:101D6000D70081608093D70080EA8093D80089B53E
:101D7000806189BD89B5826089BD09B400FEFDCF4F
:101D800061E070E080E090E00E943C048091D80027
:101D90008F7C80618093D8008091E000807F809369
:101DA000E0008091E1008E7E8093E1008DE08093E1
:101DB000E200559A209A5D982898EEEFFFE785910A
:101DC00094918B3F9C4D19F481E080932C0261E04B
:101DD0008DE00E94000461E082E10E94000462E064
:101DE00087E00E94000461E08DE00E949D0361E0B5
:101DF00082E10E949D038AE593E09093090180931C
:101E0000080180916A008F7C806280936A00EE9A5C
:101E10008FEF9FEF90938E0280938D0286E891E082
:101E20000E946C0D86E691E00E942D0D1092F80242
:101E30001092F7021092F6021092F5021092F4023C
:101E40001092F3028DE991E09093FA028093F902E7
:101E50008091E90298EF980F943048F022EF280F14
:101E6000243028F026EE280F233008F060C02DEB38
:101E700030E03093F4022093F3022BE931E0309309
:101E8000F6022093F5022CE231E03093F802209321
:101E9000F702943058F092EF980F943038F08A514E
:101EA000833008F44BC3A0E0B0E04AC3A8E6B0E03A
:101EB000E8E6F0E0808181608C938091E90298EF00
:101EC000980F943058F022EF280F243038F026EE87
:101ED000280F233018F020E030E002C02BE630E07D
:101EE0003093F1022093F002943010F49CEF09C07B
:101EF0008E3071F08F3071F0803171F0813171F07E
:101F00009AEE980F81E001C0880F9A95EAF707C012
:101F100088E005C082E003C084E001C081E08093D6
:101F2000F2028091F9029091FA020197F1F7809103
:101F3000F7029091F802892B21F18091280290916B
:101F4000290232E08D3D9307E1F0009711F00E94E5
:101F500097078091FB028E7F8093FB0210922702ED
:101F6000109226028DED92E0909329028093280230
:101F7000E091F002F091F10290818091F202892BC0
:101F800080838CE591E00E94770C89E591E00E94C6
:101F9000770C83E091E00E946C0D01E023E042E0C9
:101FA0006BE680913E030E94CC0600E022E044E014
:101FB0006BE180913E030E94CC0622E044E06CE19C
:101FC00080913E030E94CC0620E046E06BE68091C3
:101FD0003E030E94910668EE73E080E090E00E946C
:101FE0003C0487EF90E00E942D0D08EE13E09E0167
:101FF0002F5F3F4F41E065E780913E030E948305DC
:10200000882329F089818F7790E080933F03609146
:102010003F0370E080E090E040E10E94EC0C89E535
:1020200091E00E94770C08EE13E09E012F5F3F4F76
:1020300041E065E780913E030E948305882329F0F3
:1020400089818F7790E080933F0380913F038137B0
:1020500029F08CE491E00E946C0D9BCF8CE291E022
:102060000E946C0D83E080934D0320E045E06CE618
:1020700080913E030E94910620E044E06CE680914E
:102080003E030E94910620E043E06CE680913E030F
:102090000E94910680914D0381FF15C020E042E02F
:1020A0006CE680913E030E94910620E041E06CE6E0
:1020B00080913E030E94910620E040E06CE6809112
:1020C0003E030E9491068BE191E00E942D0D6091EC
:1020D0004D03617070E080E090E04AE00E94EC0CFB
:1020E00060914D03627070E080E090E04AE00E94F1
:1020F000EC0C89E591E00E94770C08EE13E02FE3E9
:1021000033E04EE06BE380913E030E9483056091D3
:102110003F0370E0762F662780914003682B709311
:102120002D0360932C03C0904103D12CDC2CCC24D4
:1021300080914203C82AD0922F03C0922E03E090D0
:102140004303F12CFE2CEE2480914403E82AF09204
:102150003103E09230030091470310E0102F002775
:1021600080914803082B109333030093320320908F
:102170004903312C322C222480914A03282A3092A0
:1021800035032092340380914B0390E0982F8827E9
:1021900020914C03AC01422B5C834B83509337035B
:1021A0004093360350914D035A8350FF2AC0072EA7
:1021B000000C880B990B0E948D146093FC027093A5
:1021C000FD028093FE029093FF02B601DD0C880BA6
:1021D000990B0E948D146093000370930103809308
:1021E000020390930303B701FF0C880B990B0E9425
:1021F0008D146093040370930503809306039093FA
:10220000070320E030E040E858E36091FC02709161
:10221000FD028091FE029091FF020E9442152B0167
:102220003C016093FC027093FD028093FE02909348
:10223000FF0220E030E040E858E360910003709135
:10224000010380910203909103030E9442154B0108
:102250005C016093000370930103809302039093E9
:10226000030320E030E040E858E3609104037091FC
:10227000050380910603909107030E9442156B01AC
:102280007C0160930403709305038093060390938D
:1022900007038A8181FF2CC0B801110F880B990BAD
:1022A0000E948D14609308037093090380930A03BE
:1022B00090930B03B101330C880B990B0E948D1482
:1022C00060930C0370930D0380930E0390930F03A0
:1022D0002B813C81B901330F880B990B0E948D141F
:1022E0006093100370931103809312039093130370
:1022F00020E030E040E858E3609108037091090362
:1023000080910A0390910B030E9442156093080389
:102310007093090380930A0390930B0320E030E04D
:1023200040E858E360910C0370910D0380910E0317
:1023300090910F030E94421560930C0370930D035C
:1023400080930E0390930F0320E030E040E858E3C1
:102350006091100370911103809112039091130307
:102360000E9442156093100370931103809312032F
:1023700090931303A3019201C301B2010E9442157D
:102380002B013C01A5019401C501B4010E94421535
:102390009B01AC01C301B2010E94EB134B015C0134
:1023A000A7019601C701B6010E9442159B01AC012D
:1023B000C501B4010E94EB130E94B5156B017C01AD
:1023C0009B01AC010E94F515882319F08FE591E07F
:1023D0001AC046015701E894B7F82FEF3FEF4FE7D7
:1023E0005FE7C501B4010E94F51581110FC02FEF01
:1023F0003FEF4FE75FE7C501B4010E94571418167D
:102400002CF483E691E00E94770C72C02FEF3FEF2F
:102410004FE75FE4C701B6010E943D1518161CF492
:1024200087E691E0F0CF2FEF3FEF4FE75FECC7017A
:10243000B6010E94571487FDF3CF20E030E0A901D8
:10244000C701B6010E94571487FF07C08DE20E94A2
:102450007A0DF7FAF094F7F8F0942AE037ED43EAB2
:102460005BE3C701B6010E94EB134B015C010E94C4
:102470005C146B017C010E948B149B01AC01C501B3
:10248000B4010E94EA134B015C014AE0C701B601A6
:102490000E94EC0C8EE20E947A0D20E030E040E2D7
:1024A00051E4C501B4010E9442154B015C010E9438
:1024B0005C146B01E12CF12C4AE0C701B6010E94CB
:1024C000EC0CC701B6010E948B149B01AC01C50145
:1024D000B4010E94EA1320E030E040E251E40E949F
:1024E00042150E945C1480E090E04AE00E94EC0CEF
:1024F00089E591E00E94770C60912A028DED92E0CF
:102500000E94D40161E082E10E949D036CE070E0D2
:1025100080E090E00E943C0460E082E10E949D0324
:102520006CE070E080E090E00E943C0440E050E00D
:10253000452B09F4E2CD0E940000DFCDA8E6B0E013
:10254000833008F4B5CCE0E0F0E0B4CCCF92DF9279
:10255000EF92FF920F931F93CF93DF931F92CDB70C
:10256000DEB7182F062FE42E862F880F8E5F9983F3
:102570000E94880983E00E948809F12EC12E99816A
:10258000D92E8C2D8F19801798F4F601E7FE02C022
:10259000849101C080810E948809182F80E00E94E8
:1025A00088098123FFEFCF1ADF0A8111EACF01C02A
:1025B00081E00F90DF91CF911F910F91FF90EF90ED
:1025C000DF90CF900895CF93DF9310928402109202
:1025D000830288EE93E0A0E0B0E0809385029093C0
:1025E0008602A0938702B093880221E231E0309303
:1025F0008202209381022FEF3FEF30938E022093CF
:102600008D021092D4021092D3028093D50290933F
:10261000D602A093D702B093D80221E331E03093E1
:10262000D2022093D1021092FC021092FD0210926D
:10263000FE021092FF02109200031092010310920A
:1026400002031092030310920403109205031092E8
:1026500006031092070310920803109209031092C8
:102660000A0310920B0310920C0310920D031092A8
:102670000E0310920F031092100310921103109288
:102680001203109213031092140310921503109268
:102690001603109217031092180310921903109248
:1026A0001A0310921B0310921C0310921D03109228
:1026B0001E0310921F031092200310922103109208
:1026C00022031092230310922403109225031092E8
:1026D00026031092270310922803109229031092C8
:1026E0002A0310922B0322E1ECE2F3E0EF011992AE
:1026F0002A95E9F728E620933E0310924D031092A5
:10270000E0021092DF028093E1029093E202A09334
:10271000E302B093E40281E491E09093DE028093BF
:10272000DD021092F4021092F3021092F60210925F
:10273000F5021092F8021092F7021092FA0210922B
:10274000F9026091FB026E7F6D7F6093FB026695DC
:10275000617081E0682786E10E949D0361E086E167
:102760000E940004E7E5F2E0E491E093ED02E8E383
:10277000F2E0E491F0E0EE0FFF1FEA5FFD4F85917C
:1027800094919093EF028093EE0260E087E10E94C3
:1027900000048091FB0281FD04C061E087E10E949A
:1027A0009D0387E18093E902E8E5F2E0E491E0939C
:1027B000EA02E9E3F2E0E491F0E0EE0FFF1FEC5EE5
:1027C000FD4F859194919093EC028093EB02DF9101
:1027D000CF9108955058BB27AA270E9402140C9449
:1027E00003150E94F51438F00E94FC1420F039F40F
:1027F0009F3F19F426F40C94F2140EF4E095E7FBD5
:102800000C94EC14E92F0E94141558F3BA176207C0
:1028100073078407950720F079F4A6F50C94361514
:102820000EF4E0950B2EBA2FA02D0B01B9019001EB
:102830000C01CA01A0011124FF27591B99F0593F2F
:1028400050F4503E68F11A16F040A22F232F342F77
:102850004427585FF3CF469537952795A795F040C5
:102860005395C9F77EF41F16BA0B620B730B840BDA
:10287000BAF09150A1F0FF0FBB1F661F771F881F92
:10288000C2F70EC0BA0F621F731F841F48F48795EA
:1028900077956795B795F7959E3F08F0B0CF9395DC
:1028A000880F08F09927EE0F9795879508950E9455
:1028B000C81408F481E008950E941C1588F09F5701
:1028C00098F0B92F9927B751B0F0E1F0660F771F54
:1028D000881F991F1AF0BA95C9F714C0B13091F04A
:1028E0000E943615B1E008950C943615672F782FA5
:1028F0008827B85F39F0B93FCCF38695779567950F
:10290000B395D9F73EF490958095709561957F4F7A
:102910008F4F9F4F0895E89409C097FB3EF4909520
:102920008095709561957F4F8F4F9F4F9923A9F0A8
:10293000F92F96E9BB279395F69587957795679537
:10294000B795F111F8CFFAF4BB0F11F460FF1BC07B
:102950006F5F7F4F8F4F9F4F16C0882311F096E90E
:1029600011C0772321F09EE8872F762F05C06623BC
:1029700071F096E8862F70E060E02AF09A95660F75
:10298000771F881FDAF7880F9695879597F908952E
:10299000990F0008550FAA0BE0E8FEEF1616170670
:1029A000E807F907C0F012161306E407F50798F0D8
:1029B000621B730B840B950B39F40A2661F0232BF1
:1029C000242B252B21F408950A2609F4A140A6956D
:1029D0008FEF811D811D089597F99F6780E870E052
:1029E00060E008959FEF80EC089500240A94161685
:1029F000170618060906089500240A9412161306ED
:102A0000140605060895092E0394000C11F488237A
:102A100052F0BB0F40F4BF2B11F460FF04C06F5F96
:102A20007F4F8F4F9F4F089557FD9058440F551F6C
:102A300059F05F3F71F04795880F97FB991F61F040
:102A40009F3F79F087950895121613061406551FB7
:102A5000F2CF4695F1DF08C0161617061806991F23
:102A6000F1CF86957105610508940895E894BB2718
:102A700066277727CB0197F908950E94C81408F4B8
:102A80008FEF08950E9455150C9403150E94F514BC
:102A900038F00E94FC1420F0952311F00C94EC14F3
:102AA0000C94F21411240C9437150E94141570F331
:102AB000959FC1F3950F50E0551F629FF001729FE3
:102AC000BB27F00DB11D639FAA27F00DB11DAA1FF2
:102AD000649F6627B00DA11D661F829F2227B00D3F
:102AE000A11D621F739FB00DA11D621F839FA00DCA
:102AF000611D221F749F3327A00D611D231F849F1A
:102B0000600D211D822F762F6A2F11249F57504070
:102B10009AF0F1F088234AF0EE0FFF1FBB1F661FEB
:102B2000771F881F91505040A9F79E3F510580F0B4
:102B30000C94EC140C9437155F3FE4F3983ED4F3F7
:102B4000869577956795B795F795E7959F5FC1F758
:102B5000FE2B880F911D9695879597F9089519F486
:102B600016F40C94F2140C94FA150E941C15B8F388
:102B70009923C9F3B6F39F57550B87FF0E94081698
:102B80000024A0E640EA900180585695979528F4D5
:102B9000805C660F771F881F20F0261737074807CD
:102BA00030F4621B730B840B202931294A2BA69524
:102BB00017940794202531254A2758F7660F771F69
:102BC000881F20F026173707480730F4620B730B75
:102BD000840B200D311D411DA09581F7B901842F73
:102BE0009158880F9695879508950E94C814880B70
:102BF000990B08959F3F31F0915020F48795779578
:102C00006795B795880F911D9695879597F90895C3
:102C100091505040660F771F881FD2F7089597FB99
:102C2000072E16F4009407D077FD09D00E944B16AA
:102C300007FC05D03EF4909581959F4F08957095BF
:102C400061957F4F0895A1E21A2EAA1BBB1BFD01BF
:102C50000DC0AA1FBB1FEE1FFF1FA217B307E4077B
:102C6000F50720F0A21BB30BE40BF50B661F771FD3
:102C7000881F991F1A9469F76095709580959095B3
:102C80009B01AC01BD01CF010895EE0FFF1F059020
:102C9000F491E02D0994AA1BBB1B51E107C0AA1FA8
:102CA000BB1FA617B70710F0A61BB70B881F991FED
:102CB0005A95A9F780959095BC01CD01089581E0C2
:102CC00090E0F8940C94641611E0C1E3D1E004C0E4
:102CD000FE010E9445162196C233D107C9F7F89428
:022CE000FFCF24
:102CE200B201B201B201B201B201FFFFFFFF00E186
:102CF20000000000000000C1808100000000000010
:102D020000DB08F1086701160334035C01000000D0
:102D120000E702B702B301A302940293020000008B
:102D220000D401EA0928024002BB01D30162746E99
:102D32002074696D65206F6E000D0A004F4B006EA6
:0C2D4200616E00696E66006F766600002E
:00000001FF
