:100000000C9418010C94B6050C948F050C9468059B
:100010000C9441050C9440010C9440010C941A0579
:100020000C9440010C941B090C94F20F0C94230CBB
:100030000C9440010C9440010C9440010C9440013C
:100040000C9440010C9440010C9440010C9440012C
:100050000C9440010C9440010C9440010C94D00489
:100060000C9440010C9440010C9440010C9440010C
:100070000C9440010C9440010C9440010C944001FC
:100080000C9440010C9440010C9440010C94D90A4A
:100090000C94AB090C9440010C9440010C94400169
:1000A0000C9440010C9440010C94400162036503E0
:1000B000540358035E0386038603860369036D03B6
:1000C000710377037B038603810300000000240093
:1000D00027002A002D00300047593932353020637F
:1000E0006F6E6E656374696F6E207375636365739D
:1000F0007366756C6C792E00475939323530206340
:100100006F6E6E656374696F6E206661696C65649D
:100110002E00496E697469616C6C697A696E67203A
:1001200042542053657269616C20706F72742E2E78
:100130002E0053657269616C2072656164792E00CE
:10014000080B000202020100090400000102020083
:100150000005240010010524010101042402060504
:100160002406000107058103100040090401000274
:100170000A00000007050202400000070583024054
:1001800000000403090412010002EF0201404123B0
:10019000378000010102030141726475696E6F20AE
:1001A0004C4C430041726475696E6F204D696372F7
:1001B0006F000000000200090F0000030401000CA2
:1001C000000000000000000000000000000000002F
:1001D0000000000000250028002B002E0031000048
:1001E0000000002300260029002C002F0004040436
:1001F00004040304050202020204030202020206CE
:1002000006060606060404020202040404080201AB
:10021000104080401020408040800802040180404F
:10022000201002011080102040402000751864103A
:1002300011241FBECFEFDAE0DEBFCDBF11E0A0E09A
:10024000B1E0E0EEFBE302C005900D92AA3AB107DF
:10025000D9F724E0AAEAB1E001C01D92A734B207A1
:10026000E1F711E0C7E1D1E004C02197FE010E944F
:10027000901DC631D107C9F70E946E100C94E31D82
:100280000C940000CF93DF931F92CDB7DEB7698344
:10029000DC01ED91FC910280F381E02D41E050E022
:1002A000BE016F5F7F4F09950F90DF91CF91089549
:1002B00083E08093E9008091F200882319F08AE3BB
:1002C0008093E8000895FC018485958597FD0BC017
:1002D0009FB7F89482E08093E9008091F2009FBF7D
:1002E00090E0019608959FB7F89482E08093E9002A
:1002F0008091F2009FBF90E008953FB7F8948091FD
:100300006D0290916E02A0916F02B091700226B5BD
:10031000A89B05C02F3F19F00196A11DB11D3FBF3D
:10032000BA2FA92F982F8827820F911DA11DB11DCB
:10033000BC01CD0142E0660F771F881F991F4A95C7
:10034000D1F7089508958091530290E020915202D0
:10035000821B91090895209173023091740228172D
:10036000390771F49091710280917202981741F0EF
:10037000E0917102F0E0EE50FE4F808190E0089530
:100380008FEF9FEF089508951F93CF93DF93DC01C4
:100390005C962D913C915D972115310539F481E0F2
:1003A00090E013969C938E9312973DC05196ED91D9
:1003B000FC91529750969C915097892F80951FB72A
:1003C0005E964C915E9741FB772770F941FD6095F1
:1003D000F8944081772311F0492B01C048234083D2
:1003E000E9012197F1F748E0508160FF02C0592BE5
:1003F00001C058235083E9012197F1F766954150D8
:1004000099F7772321F090818923808303C080812D
:10041000982B90831FBF5C968D919C915D9701975F
:10042000F1F721E030E0C901DF91CF911F910895EC
:1004300020917302309174022817390771F480916A
:1004400072022091710290E0805C9F4F821B9109A3
:1004500060E470E00E945A1D089580E090E00895E5
:10046000209173023091740228173907B9F49091E2
:10047000710280917202981789F0E0917102F0E0A8
:10048000EE50FE4F80812091710230E02F5F3F4F90
:100490002F7333272093710290E008958FEF9FEF21
:1004A000089585ED8093BC008091BC0084FDFCCF55
:1004B0001092EA0208954091CD01262F30E0240FDA
:1004C000311D21323105DCF42091EA022430C9F4D7
:1004D000FC0180E090E0861758F43091CD01219125
:1004E000DC01A555BE4FA30FB11D2C930196F3CF90
:1004F0008091CD01680F6093CD0180E0089581E087
:10050000089582E008950895E09152028091530287
:10051000E81730F4F0E0EE5CFD4F808190E0089544
:100520008FEF9FEF08959091520280915302981798
:1005300050F4E92FF0E0EE5CFD4F208130E09F5F4A
:100540009093520202C02FEF3FEFC9010895CF925E
:10055000DF92EF92FF920F931F93CF93DF937C0173
:10056000262F972F8A018091EB02882391F0C62FC6
:10057000D72F6E01C40ED51ECC15DD0571F0699123
:10058000D701ED91FC910190F081E02DC701099513
:10059000F3CF642F822F0E945B02C801DF91CF91BD
:1005A0001F910F91FF90EF90DF90CF900895CF9320
:1005B000DF931F92CDB7DEB769832091EB02222330
:1005C000D1F020910E03203240F021E030E0FC0118
:1005D0003383228380E090E015C08091EC02E82F05
:1005E000F0E0E351FD4F998190838F5F8093EC029F
:1005F00080930E0305C061E0CE0101960E945B026C
:1006000081E090E00F90DF91CF910895CF93DF9339
:100610001F92CDB7DEB7FC018485958597FD05C097
:100620002FEF3FEF358724870BC0CE0101960E9444
:10063000B40F019719F4898190E002C08FEF9FEF0A
:100640000F90DF91CF9108950F931F93CF93DF9376
:100650001F92CDB7DEB78C01FC018485958597FF8D
:100660000EC0CE0101960E94B40F019719F42981A2
:1006700030E002C02FEF3FEFF80135872487F80103
:10068000848595850F90DF91CF911F910F910895EB
:100690000E94C41D90E0FC013197EF30F105B0F5E8
:1006A000EA5AFF4F0C94901D809180008F7703C011
:1006B000809180008F7D80938000089580918000DC
:1006C000877FF9CF84B58F7702C084B58F7D84BDD5
:1006D0000895809190008F7707C0809190008F7D62
:1006E00003C080919000877F80939000089580914F
:1006F000C0008F7703C08091C0008F7D8093C000C1
:1007000008958091C200877F8093C20008951F934F
:10071000CF93DF93282F30E0F901EE54FE4F849100
:10072000F901E45FFD4FD491F901E351FE4FC4910B
:10073000CC23C9F0162F81110E944A03EC2FF0E060
:10074000EE0FFF1FEF52FE4FA591B4918FB7F894B3
:10075000111105C09C91ED2FE095E92302C0EC91A9
:10076000ED2BEC938FBFDF91CF911F910895CF9325
:10077000DF9390E0FC01E45FFD4F2491FC01E35125
:10078000FE4F8491882361F190E0880F991FFC014E
:10079000E653FF4FC591D491FC01EF52FE4FA59156
:1007A000B491611109C09FB7F89488812095822384
:1007B0008883EC912E230BC0623061F49FB7F894CC
:1007C0003881822F809583238883EC912E2B2C9364
:1007D0009FBF06C08FB7F894E8812E2B28838FBF68
:1007E000DF91CF9108958F929F92AF92BF92CF9257
:1007F000DF92EF92FF926B017C010E947D014B0121
:100800005C01C114D104E104F104F1F00E947D0106
:10081000DC01CB0188199909AA09BB09883E9340DC
:10082000A105B10570F321E0C21AD108E108F10871
:1008300088EE880E83E0981EA11CB11CC114D1045F
:10084000E104F10419F7DDCFFF90EF90DF90CF9036
:10085000BF90AF909F908F9008957F928F929F92BC
:10086000AF92BF92CF92DF92EF92FF920F931F93BE
:10087000CF93DF936C015B017A018091150188238E
:1008800009F46BC08091C302882309F466C080918B
:10089000C00280FF05C08091E00082608093E0008C
:1008A000E70110E00AEF83E0982E90E4792E2AE326
:1008B000822E209709F448C08FB7F8949092E900EF
:1008C0009091E80095FF06C09091F200272D291B1A
:1008D000922F01C090E08FBF91110AC0015009F41E
:1008E0003CC061E070E080E090E00E94F303E1CF63
:1008F000292F30E0C217D3070CF49C2F8FB7F89440
:100900009092E9002091E80025FF1CC0292F30E0DB
:10091000C21BD30BF501915020F041914093F1009F
:10092000FACFA20EB31E112319F08092E80009C07D
:100930009091E80095FD06C08092E80011E02097B4
:1009400009F010E08FBFB5CF1111B6CF5D9A84E6E4
:100950008093C1021E141F0444F081E090E0F60170
:100960009383828380E090E001C0C701DF91CF9143
:100970001F910F91FF90EF90DF90CF90BF90AF90BD
:100980009F908F907F9008952FB7F894609169029F
:1009900070916A0280916B0290916C022FBF089552
:1009A0001F920F920FB60F9211242F933F938F93A4
:1009B0009F93AF93BF938091690290916A02A09137
:1009C0006B02B0916C023091680223E0230F2D3747
:1009D00020F40196A11DB11D05C026E8230F029643
:1009E000A11DB11D209368028093690290936A0251
:1009F000A0936B02B0936C0280916D0290916E0295
:100A0000A0916F02B09170020196A11DB11D80935B
:100A10006D0290936E02A0936F02B0937002BF912B
:100A2000AF919F918F913F912F910F900FBE0F909B
:100A30001F9018951F920F920FB60F9211242F93AB
:100A40003F934F935F936F937F938F939F93AF9356
:100A5000BF93EF93FF93E0910801F091090109958D
:100A6000FF91EF91BF91AF919F918F917F916F9186
:100A70005F914F913F912F910F900FBE0F901F905C
:100A800018951F920F920FB60F9211242F933F9338
:100A90004F935F936F937F938F939F93AF93BF9386
:100AA000EF93FF93E0910601F09107010995FF9103
:100AB000EF91BF91AF919F918F917F916F915F91D6
:100AC0004F913F912F910F900FBE0F901F9018954F
:100AD0001F920F920FB60F9211242F933F934F93B3
:100AE0005F936F937F938F939F93AF93BF93EF9396
:100AF000FF93E0910401F09105010995FF91EF91B9
:100B0000BF91AF919F918F917F916F915F914F9125
:100B10003F912F910F900FBE0F901F9018951F922D
:100B20000F920FB60F9211242F933F934F935F9321
:100B30006F937F938F939F93AF93BF93EF93FF93A5
:100B4000E0910201F09103010995FF91EF91BF91AE
:100B5000AF919F918F917F916F915F914F913F9155
:100B60002F910F900FBE0F901F9018951F920F920C
:100B70000FB60F9211242F933F934F935F936F9370
:100B80007F938F939F93AF93BF93EF93FF93E091E6
:100B90000001F09101010995FF91EF91BF91AF9193
:100BA0009F918F917F916F915F914F913F912F9185
:100BB0000F900FBE0F901F90189560936402709372
:100BC00065028093660290936702DC01CB01845D2D
:100BD0009E4FAF4FBF4F8093600290936102A093EE
:100BE0006202B093630282E090E090935F02809390
:100BF0005E020E94C40460935A0270935B02809369
:100C00005C0290935D020895CF92DF92EF92FF9283
:100C10000F931F930E94C404C0905A02D0905B02AD
:100C2000E0905C02F0905D028B019C010C191D09A3
:100C30002E093F098091640290916502A09166029D
:100C4000B0916702083E134021053105D0F00196AE
:100C5000A11DB11D8093640290936502A09366026A
:100C6000B0936702B701A60148515C4F6F4F7F4FA9
:100C700040935A0250935B0260935C0270935D0252
:100C8000C9CF4091600250916102609162027091FF
:100C9000630284179507A607B70788F1E091580209
:100CA000F0915902309759F1099561157105810547
:100CB000910519F00E94DD0522C080916402909197
:100CC0006502A0916602B0916702845D9E4FAF4FAE
:100CD000BF4F8093600290936102A0936202B09331
:100CE000630281E090E020915E0230915F02232B4D
:100CF00011F480E090E090935F0280935E02609137
:100D000064027091650280916602909167021F9162
:100D10000F91FF90EF90DF90CF9008954F925F92E8
:100D20006F927F928F929F92AF92BF92CF92DF92FB
:100D3000EF92FF920F931F93CF93DF934B015C01D0
:100D40008091540290915502A0915602B0915702A1
:100D500088169906AA06BB0609F4C2C08CE3C82E01
:100D6000D12CE12CF12CC501B401A70196010E9400
:100D70006E1D60937502CA01B901A70196010E9418
:100D80006E1D60937602CA01B90128E130E040E0AF
:100D900050E00E946E1D69017A0160937702CA01DA
:100DA000B9016C5F7F4F8F4F9F4F27E030E040E0ED
:100DB00050E00E946E1D6F5F60937802412C512CB1
:100DC000320140E004E610E0C0E9D1E0242F30E039
:100DD0002E54384FF901E370FF27309789F4C90189
:100DE000B8010E945A1D892B31F4C901BE010E942D
:100DF0005A1D892B29F48EE691E0A0E0B0E004C0F2
:100E00008DE691E0A0E0B0E0480E591E6A1E7B1E00
:100E1000D301C201AA27BB27C816D906EA06FB06DA
:100E200010F04F5FD3CF40937B02309799F4C90104
:100E300064E670E00E945A1D892B39F4C90160E90B
:100E400071E00E945A1D892B29F48EE691E0A0E002
:100E5000B0E004C08DE691E0A0E0B0E0481A590A85
:100E60006A0A7B0AC418D508E608F708C90164E6CF
:100E700070E00E945A1DEC01C90160E971E00E9416
:100E80005A1DACE1B1E020E0213039F4309749F44B
:100E9000209729F4009729F402C04C9103C04DE13A
:100EA00001C04CE150E060E070E0C416D506E606F3
:100EB000F70640F0C41AD50AE60AF70A2F5F119622
:100EC0002C3011F72F5F20937A02C394C0927902DD
:100ED0008092540290925502A0925602B09257020C
:100EE000DF91CF911F910F91FF90EF90DF90CF9006
:100EF000BF90AF909F908F907F906F905F904F903A
:100F000008952F923F924F925F926F927F928F92AD
:100F10009F92AF92BF92CF92DF92EF92FF920F9388
:100F20001F93CF93DF93CDB7DEB728970FB6F89412
:100F3000DEBF0FBECDBFD82EC62E4887190178015F
:100F40000E94C4042B013C018D2C880C912C10E0D4
:100F500001E04885A42EB12C970140E050E02B839E
:100F60003C834D835E834885941608F0A0C00093AF
:100F7000EB02D0920D031092EC0210920E036C2D36
:100F80008FE593E00E94D7020E94DA0E0093EB02F5
:100F9000D0920D031092EC0210920E038091EA029F
:100FA0008111FCCF9501291931092132310514F045
:100FB00020E230E02F83213210F030E23F830093B3
:100FC000EA020093E9024FEF4093E8021092E70231
:100FD0008F8181508093E6020093C5028091C50203
:100FE00088298093C5028091C402813071F41092E7
:100FF000C4028091C5028093BB008091BC0083FD38
:10100000F8CF55EC5093BC0003C085EE8093BC0034
:101010008091EA028130E1F38091E7022F8182170B
:1010200018F43091E7023F83A6ECB2E0E2E3F2E08D
:101030008E2F42E352E0841B5F81851718F48D9157
:101040008193F6CF10925202509353028091520234
:101050002F81281721F1E114F10481F49101210F6E
:10106000311D17FD3A953A8329838FE593E00E945D
:101070009302A981BA818C931F5FE8CF0E94C404B8
:10108000DC01CB0184199509A609B7092B813C81A4
:101090004D815E8182179307A407B507F8F20E947D
:1010A000DA0E8885813208F080E2980E5CCFE11478
:1010B000F104D9F00E94C404AB01BC0144195509E4
:1010C00066097709C701A0E0B0E0481759076A0729
:1010D0007B0758F05885852F90E0212F012E000CBA
:1010E000330B281739070CF41FEF812F28960FB602
:1010F000F894DEBF0FBECDBFDF91CF911F910F914E
:10110000FF90EF90DF90CF90BF90AF909F908F9027
:101110007F906F905F904F903F902F900895CF9267
:10112000DF92EF92FF920F931F93CF93DF9300D044
:10113000CDB7DEB7F82EE62ED42EC22E08EE13E081
:101140009E012E5F3F4F41E00E9481073A81E1E01E
:10115000F0E0AF0101C0440FDA94EAF7CC2019F0B7
:10116000932F942B03C0942F909593239A83998364
:10117000AE014F5F5F4F6E2D8F2D0E94580F0F9065
:101180000F90DF91CF911F910F91FF90EF90DF9023
:10119000CF900895BF92CF92DF92EF92FF920F937C
:1011A0001F93CF93DF9300D0CDB7DEB7F82EE62E96
:1011B000C42EB22ED02E08EE13E09E012E5F3F4FBC
:1011C00041E00E948107882349F14C2D50E04B19E2
:1011D00051094F5F5F4F21E030E002C0220F331F03
:1011E000BA94E2F721503109042E01C0220F0A946B
:1011F000EAF78D2D01C0880F4A95EAF7322F309516
:101200009A8193232823292B2A832983AE014F5FB8
:101210005F4F6E2D8F2D0E94580F01C080E00F9000
:101220000F90DF91CF911F910F91FF90EF90DF9082
:10123000CF90BF9008951F920F920FB60F92112476
:101240002F933F934F935F936F937F938F939F93CE
:10125000AF93BF93EF93FF93E0917302F091740209
:10126000309709F451C0968DA685B785858591FF85
:1012700004C09C91892329F447C09C91892309F0DB
:1012800043C0A389B4899C918589809589238C93D7
:10129000868997890197F1F7608D718DA685B7854D
:1012A000558538E020E0CB010197F1F7822F90E0DF
:1012B00095958795282F4C91452309F0206831504A
:1012C00091F7868D81FD20958091720290E00196C4
:1012D0008F73992730917102381749F0A0917202EB
:1012E000B0E0AE50BE4F2C938093720203C0868D47
:1012F0008160868F828D938D0197F1F7A389B489E0
:101300009C918589892B8C93FF91EF91BF91AF912F
:101310009F918F917F916F915F914F913F912F910D
:101320000F900FBE0F901F901895E0917302F091EF
:101330007402E817F90769F4A389B4899C91858937
:10134000809589238C93109274021092730281E02D
:10135000089580E008951F920F920FB60F92112406
:101360002F933F934F935F936F937F938F939F93AD
:10137000AF93BF93EF93FF938091B900887F80363E
:1013800009F49CC068F5883209F45BC090F48031A0
:1013900009F454C038F4882309F4F6C0883009F4FD
:1013A0004DC0F6C0883109F44CC0803209F45DC0EC
:1013B000EFC0803409F468C048F4803309F455C0A4
:1013C000883309F0E5C08093E802D8C0803509F47D
:1013D0004FC0883509F45DC0883409F0D9C0D6C043
:1013E000883909F4C7C0A8F4883709F467C038F40D
:1013F000883609F463C0803709F460C0C9C08838F2
:1014000009F4B8C0803909F45FC0803809F0C0C061
:101410005BC0803B09F486C038F4803A09F466C0AA
:10142000883A09F47FC0B4C0803C09F4A7C0883C66
:1014300009F4A4C0883B09F48AC0AAC08091C502FF
:1014400010C09091E7028091E602981770F5E09144
:10145000E70281E08E0F8093E702F0E0EA53FD4F50
:1014600080818093BB0085EC86C08093E8028EC0AB
:10147000E091E70281E08E0F8093E7028091BB004C
:10148000F0E0EA53FD4F80839091E7028091E602FD
:101490006EC0E091E70281E08E0F8093E7028091B9
:1014A000BB00F0E0EA53FD4F80838091E902811197
:1014B0006DC081E08093C40284EA61C083E08093C0
:1014C000EA021092F101CFCF8091F101803208F051
:1014D00051C0E091F10181E08E0F8093F101809184
:1014E000BB00F0E0EF52FE4F8083BDCF85EC8093D0
:1014F000BC001092EA028091F101803230F4E09158
:10150000F101F0E0EF52FE4F10826091F10170E0C6
:10151000E091CF01F091D00181ED91E00995109219
:10152000F10136C084E08093EA021092CE0110925D
:10153000CD01E091CB01F091CC0109958091CD01D5
:10154000811105C081E08093CD011092AB01E09143
:10155000CE0181E08E0F8093CE01F0E0E555FE4F85
:1015600080818093BB009091CE018091CD0198172E
:1015700008F479CF85E88093BC000AC085EC80939D
:10158000BC001092EA0204C01092E8020E945102CC
:10159000FF91EF91BF91AF919F918F917F916F914B
:1015A0005F914F913F912F910F900FBE0F901F9021
:1015B00018951F920F920FB60F92112410923604B5
:1015C000109235040F900FBE0F901F9018958F92B8
:1015D0009F92AF92BF92CF92DF92EF92FF920F93C2
:1015E0001F93CF93DF93EC016A017B0148015901FE
:1015F000C901B80120E831E541E050E00E946E1DCC
:1016000088819981AA81BB81281739074A075B071E
:1016100031F4CC82DD82EE82FF8281E00BC08885CE
:101620009985009731F095018401B701A6010E94C8
:10163000E70A80E0DF91CF911F910F91FF90EF902B
:10164000DF90CF90BF90AF909F908F900895409182
:10165000BE025091BF022091BC023091BD024217E0
:101660005307B4F49091E8009570E1F39091E8008D
:1016700092FD19C08093F1008091BE029091BF024B
:1016800001968F739927892B19F48EEF8093E800C8
:101690008091BE029091BF0201969093BF02809309
:1016A000BE0281E0089580E00895CF92DF92EF922C
:1016B000FF920F931F93CF93DF931F92CDB7DEB7A7
:1016C000182F062FE42E862F880F8E5F99830E9495
:1016D000270B83E00E94270BF12EC12E9981D92E72
:1016E0008C2D8F19801798F4F601E7FE02C08491C3
:1016F00001C080810E94270B182F80E00E94270BD9
:101700008123FFEFCF1ADF0A8111EACF01C081E008
:101710000F90DF91CF911F910F91FF90EF90DF908D
:10172000CF900895DF92EF92FF920F931F93CF9384
:10173000DF93D82E8A017B01E40EF51EEB01CE1556
:10174000DF0571F0D7FE03C0FE01849101C08881DE
:101750000E94270B21968111F2CF8FEF9FEF01C0DE
:10176000C801DF91CF911F910F91FF90EF90DF9013
:101770000895615030F02091F100FC012083019622
:10178000F8CF289A84E68093C2020895CF92DF9220
:10179000EF92FF920F931F93CF93DF936C017A0127
:1017A0008B01C0E0D0E0CE15DF0589F0D8016D9146
:1017B0008D01D601ED91FC910190F081E02DC601E3
:1017C0000995892B11F47E0102C02196ECCFC70147
:1017D000DF91CF911F910F91FF90EF90DF90CF900D
:1017E00008950F931F93CF93DF931F92CDB7DEB76A
:1017F00082E0898342E450E060E471E080E80E9486
:10180000920B0E94DE0FDC0112960D911C91139732
:101810000115110569F0D801ED91FC910280F38169
:10182000E02DBE016F5F7F4FC801099597FF07C08C
:1018300089810F90DF91CF911F910F910895F80149
:1018400000851185E5CF1F920F920FB60F921124DC
:10185000CF92DF92EF92FF920F931F932F933F93BC
:101860004F935F936F937F938F939F93AF93BF93A8
:10187000EF93FF93CF93DF93CDB7DEB76C97DEBFC7
:10188000CDBF1092E9008091E80083FFEDC168E0D0
:10189000CE0145960E94B90B82EF8093E8008D89B6
:1018A00087FF05C09091E80090FFFCCF03C09EEF3A
:1018B0009093E800982F907609F0C6C09E892F89F2
:1018C000188D91110CC0803829F48091BB0280934F
:1018D000F10002C01092F1001092F10048C1422FB5
:1018E00050E0512B913051F4811141C141305105EB
:1018F00009F03DC18091BB028D7F0BC0933061F434
:10190000811135C14130510509F031C18091BB02CF
:1019100082608093BB022BC1953041F48091E80036
:1019200080FFFCCF20682093E30021C1963009F0AE
:101930005FC0EB8CFC8C1092E9001092BF021092F9
:10194000BE02123091F51092BD021092BC020E94AC
:10195000F10B99E0BE016F5F7F4FDB01E92F1D9214
:10196000EA95E9F799831A8391E09E8390EA988734
:101970009AEF99872091BE023091BF02275F3F4FB7
:101980003C832B838D831092E9001092BF0210924A
:10199000BE02F092BD02E092BC0249E050E080E05D
:1019A0000E94920B0E94F10BE2C0F092BD02E09205
:1019B000BC020E94DE0FDC011296ED90FC901397A2
:1019C000E114F10409F4C0C0D701ED91FC91048049
:1019D000F581E02DBE016B5E7F4FC7010995009731
:1019E00019F00CF0C4C0C7C0F701E084F184E8CF5F
:1019F000973009F4C0C0983021F481E08093F10061
:101A0000B6C0993009F0B3C0837009F0B4C0E0E605
:101A1000F1E081E021E036E39081992361F0809349
:101A2000E9002093EB0091919093EC003093ED004E
:101A30008F5F873089F78EE78093EA001092EA0083
:101A40008F898093C30293C08B8D9C8D1092E90087
:101A50001092BF021092BE029093BD028093BC020E
:101A6000898D811156C08E899D89913A59F48132B0
:101A700009F081C047E050E06EE071E080E00E9434
:101A8000920B75C0913209F076C0833289F4888D4B
:101A900090E0982F88272F89822BA0E0B0E08093D8
:101AA0000A0190930B01A0930C01B0930D015FC04C
:101AB000803269F48091E80082FFFCCF67E08EE01D
:101AC00091E00E94B90B8BEF8093E80006C0823250
:101AD00009F04DC08F89809315018091BA02882347
:101AE00019F0EEEFFAE002C0E0E0F8E080910E01BC
:101AF00090910F01A0911001B0911101803B944091
:101B0000A105B10509F07BC08091150180FF93C04C
:101B100076C00E94DE0FDC0112960D911C91139786
:101B20000115110541F1D801ED91FC910190F08171
:101B3000E02DBE016B5E7F4FC8010995811117C072
:101B4000F80100851185ECCF113009F44EC0133037
:101B500091F48F89882309F445C0823081F440E8EC
:101B60006DE084EA91E00E94550B882321F08EEF0E
:101B70008093E80079C081E28093EB0075C08130EA
:101B800029F440E86BE088E991E0EDCF833099F7E4
:101B90000E94DE0FDC011296ED90FC9013978E01EF
:101BA0000F5F1F4F6801E114F10479F0D701ED9147
:101BB000FC910680F781E02DB801C7010995080F57
:101BC000111DF701E084F184EECFD8011C92F601DB
:101BD00001900020E9F73197BF016C197D0940E0C1
:101BE000C601C1CF62E871E002C066E871E061152C
:101BF000710509F2FB01449150E080E840CF0FB637
:101C0000F894A8958091600088618093600010929C
:101C100060000FBEA895EE3F2AE0F20739F08091F0
:101C2000FE0A9091FF0A91838083A1CF1092FF0A50
:101C30001092FE0A9CCFEE3F8AE0F80731F08081D7
:101C400091819093FF0A8093FE0A87E797E791833B
:101C500080839BE088E10FB6F894A895809360009C
:101C60000FBE9093600083CF6C960FB6F894DEBFE2
:101C70000FBECDBFDF91CF91FF91EF91BF91AF919B
:101C80009F918F917F916F915F914F913F912F9194
:101C90001F910F91FF90EF90DF90CF900F900FBEAC
:101CA0000F901F9018956115710579F0FB01019057
:101CB0000020E9F73197AF01461B570BDC01ED918E
:101CC000FC910280F381E02D099480E090E008957A
:101CD0004F925F926F927F92EF92FF920F931F93BA
:101CE000CF93DF93CDB7DEB7A1970FB6F894DEBFE1
:101CF0000FBECDBF7C01FA01CB0119A2223008F43E
:101D00002AE08E010F5D1F4F422E512C612C712C49
:101D1000BF01A30192010E946E1DF901CA01015089
:101D200011096A3014F4605D01C0695CD8016C93DC
:101D3000232B242B252B61F7B801C7010E94530EDA
:101D4000A1960FB6F894DEBF0FBECDBFDF91CF9145
:101D50001F910F91FF90EF907F906F905F904F9049
:101D60000895CF92DF92EF92FF920F931F93CF933C
:101D7000DF93EC016A017B01E881F9810190F08138
:101D8000E02D6DE209958C0144275527BA014C19C5
:101D90005D096E097F092AE0CE010E94680E800F5E
:101DA000911FDF91CF911F910F91FF90EF90DF90E6
:101DB000CF90089520910E0390910D03213208F0E9
:101DC0004AC08091EA028111FCCF32E03093EA02EE
:101DD00031E03093E9023FEF3093E8021092E702DE
:101DE0002093E602ADEEB2E046EC52E0FA013E2F5F
:101DF000341B321718F43D913193F9CF1092C5027C
:101E00002091C502990F922B9093C5029091C40224
:101E1000913061F41092C4029091C5029093BB007E
:101E20009091BC0093FDF8CF95EC01C095EE909396
:101E3000BC009091EA029230E1F39091E8029F3F5A
:101E400079F08091E802803241F08091E80280339D
:101E500031F084E005C081E003C082E001C083E08E
:101E60001092EC0210920E031092EB0208950F9361
:101E70001F93CF93DF938C01C0E0D0E0F801EC0F0B
:101E8000FD1F6491662371F0E0910F03F091100340
:101E90000190F081E02D8FE093E00995892B11F0FE
:101EA0002196ECCFCE01DF91CF911F910F91089534
:101EB000CF93DF93EA0191E09093EB0280930D03BF
:101EC0001092EC0210920E038FE593E00E94D7026D
:101ED00068818FE593E00E94D7020E94DA0E91E0BC
:101EE000811190E0892FDF91CF910895CF93DF93F7
:101EF0000E94370FEC0169E971E08FE093E00E94E6
:101F0000530E8C0F9D1FDF91CF910895AB01770F7A
:101F1000660B770B77FD0C94B10E2AE00C94680EDB
:101F2000CF93DF93EAEBF1E08491E4E1F2E0D49126
:101F3000E5EFF1E0C491CC2391F081110E944A03B6
:101F4000EC2FF0E0EE0FFF1FE152FE4FA591B49190
:101F5000EC91ED2381E090E021F480E002C080E08C
:101F600090E0DF91CF910895FC018091C30281112F
:101F700003C08FEF9FEF08959FB7F89482E080939E
:101F8000E9002091F20030E01216130614F421E06B
:101F900030E02115310559F0289A84E68093C20279
:101FA0008091F10080838091F200882319F09FBF17
:101FB000C90108958BE68093E800F9CF80913B0436
:101FC00081110DC082E08093370484E0809338044F
:101FD00010923A041092390481E080933B0487E325
:101FE00094E008951F920F920FB60F9211248F93D1
:101FF0009F938091E1009091E100937F9093E100A5
:1020000083FF0FC01092E90091E09093EB001092D3
:10201000EC0092E39093ED001092C30298E090934D
:10202000F00082FF20C093E09093E9009091F200CD
:10203000992319F09AE39093E8009091C1029923B3
:1020400039F09091C10291509093C102992389F186
:102050009091C202992339F09091C20291509093CD
:10206000C202992341F184FF10C08091E2008E7E6C
:1020700081608093E2008091E1008F7E8093E10097
:102080008091C0028E7E806111C080FF16C0809159
:10209000E2008E7E80618093E2008091E1008E7E7E
:1020A0008093E1008091C0028E7E81608093C002A7
:1020B00004C05D98CDCF2898D6CF9F918F910F9077
:1020C0000FBE0F901F9018958AE891E090936C03D3
:1020D00080936B038BE693E00C949509CF93DF9389
:1020E000CDB7DEB72E970FB6F894DEBF0FBECDBFCB
:1020F000789484B5826084BD84B5816084BD85B5E3
:10210000826085BD85B5816085BD80916E008160EE
:1021100080936E0010928100809181008260809394
:102120008100809181008160809381008091800096
:102130008160809380008091910082608093910003
:1021400080919100816080939100809190008160E6
:10215000809390008091C10084608093C100809141
:10216000C10082608093C1008091C1008160809332
:10217000C1008091C30081608093C3008091C00042
:1021800082608093C0008091C20081608093C20011
:1021900080917A00846080937A0080917A008260D6
:1021A00080937A0080917A00816080937A00809198
:1021B0007A00806880937A001092C3021092BB026A
:1021C0001092C0028091D70081608093D70080EA8E
:1021D0008093D80089B5806189BD89B5826089BD49
:1021E00009B400FEFDCF61E070E080E090E00E9465
:1021F000F3038091D8008F7C80618093D800809118
:10220000E000807F8093E0008091E1008E7E8093EB
:10221000E1008DE08093E200559A209A5D9828981D
:10222000EEEFFFE7859194918B3F9C4D19F481E08F
:102230008093BA0261E08DE00E94B70361E082E121
:102240000E94B70362E088E00E94B70361E08DE07E
:102250000E94870361E082E10E9487038FEF9FEF76
:1022600090931C0380931B0382E391E00E94760FFE
:1022700082E191E00E94370F10928603109285034D
:1022800010928403109283031092820310928103B0
:102290008DE991E090938803809387038091770381
:1022A00098EF980F943048F022EF280F243028F050
:1022B00026EE280F233008F060C02DEB30E030937D
:1022C0008203209381032BE931E030938403209330
:1022D00083032CE231E0309386032093850394300E
:1022E00058F092EF980F943038F08A51833008F408
:1022F000F4C6A0E0B0E0F3C6A8E6B0E0E8E6F0E09F
:10230000808181608C938091770398EF980F94304F
:1023100058F022EF280F243038F026EE280F233013
:1023200018F020E030E002C02BE630E030937F036D
:1023300020937E03943010F49CEF09C08E3071F02E
:102340008F3071F0803171F0813171F09AEE980F19
:1023500081E001C0880F9A95EAF707C088E005C0C0
:1023600082E003C084E001C081E08093800380911B
:102370008703909188030197F1F7809185039091ED
:102380008603892B21F1809173029091740233E0CE
:102390008B369307E1F0009711F00E949509809128
:1023A00089038E7F809389031092720210927102CA
:1023B0008BE693E09093740280937302E0917E0326
:1023C000F0917F03908180918003892B808366E95F
:1023D00071E08FE093E00E94530E69E971E08FE0B5
:1023E00093E00E94530E84E391E00E94760F01E097
:1023F00023E042E06BE6809125040E94CA0800E0D9
:1024000022E044E06BE1809125040E94CA0822E0AA
:1024100044E06CE1809125040E94CA0820E046E077
:102420006BE6809125040E948F0868EE73E080E0DF
:1024300090E00E94F30388E291E00E94370F08EEDB
:1024400013E09E012F5F3F4F41E065E78091250437
:102450000E948107882329F089818F7790E08093FB
:1024600026044091260450E060E070E020E18FE017
:1024700093E00E94680E69E971E08FE093E00E94AA
:10248000530E08EE13E09E012F5F3F4F41E065E7DA
:10249000809125040E948107882329F089818F7704
:1024A00090E08093260480912604813729F088EFFC
:1024B00090E00E94760F97CF88ED90E00E94760F13
:1024C00083E08093340420E045E06CE680912504AD
:1024D0000E948F0820E044E06CE6809125040E9471
:1024E0008F0820E043E06CE6809125040E948F086D
:1024F0008091340481FF15C020E042E06CE68091B9
:1025000025040E948F0820E041E06CE680912504BC
:102510000E948F0820E040E06CE6809125040E9434
:102520008F088CE491E00E94370F60913404617051
:1025300070E08FE093E00E94860F40913404427077
:1025400050E060E070E02AE08FE093E00E94680EC7
:1025500069E971E08FE093E00E94530EF894809156
:102560007100816080937100809190008091910052
:102570008360809391007894BCE03B2E22242394C6
:102580008091350490913604892B09F099C580918A
:10259000B20281110CC00E94C4046093AE02709319
:1025A000AF028093B0029093B1022092B2020E94D7
:1025B000C4040091AE021091AF022091B00230919C
:1025C000B102DC01CB01801B910BA20BB30B4F9727
:1025D000A105B10508F499C30E94C4046093AE023A
:1025E0007093AF028093B0029093B10260E082E1F9
:1025F0000E94870308EE13E026E234E04EE06BE32E
:10260000809125040E948107C0902604D12CDC2CE7
:10261000CC2480912704C82AD092F103C092F00301
:10262000E0902804F12CFE2CEE2480912904E82A65
:10263000F092F303E092F20360912A0470E0762FA7
:10264000662780912B04682B7093F5036093F40345
:1026500080912E0490E0982F882720912F04AC01C0
:10266000422B58874F835093F7034093F603809192
:10267000300490E0982F882720913104DC01A22BB0
:10268000BA87A987B093F903A093F8038091320425
:1026900090E0982F8827209133048C01022B10930F
:1026A000FB030093FA03B0913404BE83B0FF70C102
:1026B0002091A4033091A5034091A6035091A70354
:1026C0002A833B834C835D838090A0039090A10379
:1026D000A090A203B090A30340909C0350909D0350
:1026E00060909E0370909F03072E000C880B990B3F
:1026F0000E94381C20E03CE249E456E40E94521B50
:102700002DEC3CEC4CE951EC0E94ED1C20E031E951
:1027100042E057EC0E94C41B2DEC3CEC4CE151E430
:102720000E94531B2A813B814C815D810E94521B78
:102730002FE832EC45EF5CE30E94ED1C2AEA3AE810
:102740004AE65EE30E94C41B9B01AC016A817B8167
:102750008C819D810E94531B6B877C878D879E8710
:10276000B701FF0C880B990B0E94381C20E030E168
:102770004BE856E40E94521B2DEC3CEC4CE951EC2A
:102780000E94ED1C20E030E240E057EC0E94C41BA8
:102790002DEC3CEC4CE151E40E94531BA50194014B
:1027A0000E94521B2FE832EC45EF5CE30E94ED1CC7
:1027B0002AEA3AE84AE65EE30E94C41B9B01AC01A8
:1027C000C501B4010E94531B4B015C01B601DD0C35
:1027D000880B990B0E94381C20E03CE742E956E444
:1027E0000E94521B2DEC3CEC4CE951EC0E94ED1C7C
:1027F00020E038E74FEF56EC0E94C41B2DEC3CEC78
:102800004CE151E40E94531BA30192010E94521B10
:102810002FE832EC45EF5CE30E94ED1C2AEA3AE82F
:102820004AE65EE30E94C41B9B01AC01C301B201F6
:102830000E94531B609390037093910380939203C3
:10284000909393038092940390929503A0929603A1
:10285000B0929703CB84DC84ED84FE84C09298030D
:10286000D0929903E0929A03F0929B03C090BC032C
:10287000D090BD03E090BE03F090BF03CA82DB821C
:10288000EC82FD82C090B803D090B903E090BA0307
:10289000F090BB034090B4035090B5036090B60332
:1028A0007090B703A30192010E94521B2FE832ECF3
:1028B00045EF5CE30E94ED1C25ED3AE642EB5EE35A
:1028C0000E94C41B9B01AC01C301B2010E94531BB7
:1028D0006093A8037093A9038093AA039093AB031A
:1028E000A7019601C501B4010E94521B2FE832ECEA
:1028F00045EF5CE30E94ED1C25ED3AE642EB5EE31A
:102900000E94C41B9B01AC01C701B6010E94531B6E
:102910006093AC037093AD038093AE039093AF03C9
:102920002A813B814C815D816B857C858D859E856F
:102930000E94521B2FE832EC45EF5CE30E94ED1C35
:1029400025ED3AE642EB5EE30E94C41B9B01AC011D
:102950006A817B818C819D810E94531B6093B003AF
:102960007093B1038093B2039093B303E0E9F3E073
:10297000ACE9B3E0832D01900D928A95E1F7E8EA86
:10298000F3E0A4EBB3E0832D01900D928A95E1F77B
:10299000DE80D1FE91C0C090D403D090D503E090EA
:1029A000D603F090D7038090D0039090D103A090ED
:1029B000D203B090D3034090CC035090CD036090ED
:1029C000CE037090CF032F813885B901330F880B68
:1029D000990B0E94381CA30192010E94521B2FE800
:1029E00032EC45EF5CE30E94ED1C2AEA3AE84AE645
:1029F0005EE30E94C41B9B01AC01C301B2010E94B3
:102A0000531B6093C0037093C1038093C2039093E0
:102A1000C30349855A85BA01550F880B990B0E944B
:102A2000381CA50194010E94521B2FE832EC45EF9F
:102A30005CE30E94ED1C2AEA3AE84AE65EE30E9463
:102A4000C41B9B01AC01C501B4010E94531B6093E0
:102A5000C4037093C5038093C6039093C703B80162
:102A6000110F880B990B0E94381CA70196010E9438
:102A7000521B2FE832EC45EF5CE30E94ED1C2AEA82
:102A80003AE84AE65EE30E94C41B9B01AC01C70121
:102A9000B6010E94531B6093C8037093C9038093CF
:102AA000CA039093CB03E0ECF3E0ACECB3E0832DEE
:102AB00001900D928A95E1F78091020420E030E0C8
:102AC00040E85FE38823E1F06091A8037091A903D7
:102AD0008091AA039091AB030E94531B9B01AC0110
:102AE0006091900370919103809192039091930370
:102AF0000E94E81C18160CF09AC01092020497C0AD
:102B00006091A8037091A9038091AA039091AB03EF
:102B10000E94521B9B01AC01609190037091910344
:102B200080919203909193030E94BF1B87FF7FC007
:102B3000209202040E94C404809005049090060430
:102B4000A0900704B09008046B017C01C818D90854
:102B5000EA08FB088091110490911204A0911304DB
:102B6000B0911404A5019401281B390B4A0B5B0B8F
:102B7000CA01B9010E94361C2B013C01C701B601F4
:102B80000E94361C9B01AC01C301B2010E94C41B10
:102B90002B013C012DEC3CEC4CE45FE30E94E81C73
:102BA000181684F52AE939E949E95FE3C301B2015E
:102BB0000E94BF1B87FF26C037EEC31AD108E10869
:102BC000F10849EEC41646E0D406E104F104D0F45D
:102BD000209120042F5F8091210490912204A091E4
:102BE0002304B0912404820F911DA11DB11D809377
:102BF000210490932204A0932304B0932404109200
:102C0000200403C052E0509320048092110490925B
:102C10001204A0921304B09214040E94C40460939E
:102C2000050470930604809307049093080461E000
:102C300082E10E9487030E94900F892B09F05CC0FB
:102C40008091AD02811158C00E94C4046093840237
:102C50007093850280938602909387020091800290
:102C6000109181022091820230918302DC01CB011C
:102C7000801B910BA20BB30B86399105A105B10501
:102C8000C8F1EAE8F2E001900020E9F73197AF01DE
:102C90004A58524060E070E02AE08FE093E00E94E2
:102CA000680E69E971E08FE093E00E94530E809115
:102CB000840290918502A0918602B0918702809350
:102CC000800290938102A0938202B093830280914C
:102CD0007C0290917D02A0917E02B0917F020196CC
:102CE000A11DB11D80937C0290937D02A0937E0272
:102CF000B0937F022092AD028091AD02882329F02B
:102D00000E94900F892B09F0E5C18091A5028111E5
:102D10000CC00E94C4046093A1027093A20280932D
:102D2000A3029093A4022092A5020E94C4040091E1
:102D3000A1021091A2022091A3023091A402DC0111
:102D4000CB01801B910BA20BB30B893E9340A105D5
:102D5000B10508F45FC00E94C4046093A10270939F
:102D6000A2028093A3029093A402E0919F02F091AB
:102D7000A002C080D180E280F3800E94040620E897
:102D800031E541E050E00E946E1DC216D306E40614
:102D9000F50671F18CE090E00E94251A8C01DC01AF
:102DA000E32D1D92EA95E9F70E94040620E831E53B
:102DB00041E050E00E946E1DD8012D933D934D934C
:102DC0005C931397E0919F02F091A0021387028712
:102DD0001996FC93EE9318971093A00200939F020C
:102DE00010922104109222041092230410922404C1
:102DF0000E9404068B019C01409121045091220401
:102E0000609123047091240480919F029091A0020C
:102E10000E94E70A8BE693E00E941802892B09F4CE
:102E200048C18BE693E00E943002E0919E0291E05F
:102E30009E0F90939E02F0E0E657FD4F80838A300C
:102E400009F037C110929E026CE971E08FE093E0C7
:102E50000E94530E6AE872E08FE093E00E94530EE6
:102E600069E971E08FE093E00E94530E60EA71E03F
:102E70008AE892E00E94C91D892B09F442C00DE83E
:102E800012E060E070E0CB01D801ED918D0120ED02
:102E90002E0F2A30D0F4AAE0B0E09B01AC010E94D2
:102EA000961DAB01BC0140535109610971098E2F78
:102EB000EE0F990BAA0BBB0B6A017B01C80ED91E42
:102EC000EA1EFB1EC701B601DFCF0E94DD05EAE85E
:102ED000F2E0DF0124E1C22E1D92CA94E9F78CE0F2
:102EE00090E00E94251ADC01E32D1D92EA95E9F796
:102EF00090938902809388029093A00280939F020E
:102F0000D8C063EA71E08AE892E00E94C91D892B6B
:102F100009F4CFC066EA71E08FE093E00E94530E9F
:102F2000E0918802F09189026081718182819381B0
:102F30000E948E0660917B0270E06E54784F8FE0A5
:102F400093E00E94860F6DE28FE093E00E944201C1
:102F5000E0918802F0918902608171818281938180
:102F60000E948E0660917A0270E08FE093E00E94EA
:102F7000860F6DE28FE093E00E944201E0918802AB
:102F8000F091890260817181828193810E948E0615
:102F90006091790270E08FE093E00E94860F6FE20B
:102FA0008FE093E00E944201E0918802F091890253
:102FB00044815581668177812AE08FE093E00E9409
:102FC000680E6AE08FE093E00E944201E09188027F
:102FD000F091890260817181828193810E948E06C5
:102FE00060917B0270E06E54784F8BE693E00E9414
:102FF000860F6DE28BE693E00E94C401E0918802A7
:10300000F091890260817181828193810E948E0694
:1030100060917A0270E08BE693E00E94860F6DE289
:103020008BE693E00E94C401E0918802F09189024E
:1030300060817181828193810E948E066091790204
:1030400070E08BE693E00E94860F6FE28BE693E0E0
:103050000E94C401E0918802F09189024481558167
:10306000668177812AE08BE693E00E94680E6AE031
:103070008BE693E00E94C401E0918802F0918902FE
:10308000028513850115110579F0109389020093CB
:103090008802D80118968D919C9119970E94BA1AAE
:1030A000F8011186108636CF65E48BE693E00E9426
:1030B000C401CC24C394D12CD0923604C0923504E0
:1030C00080E0E82E80E0F82EEF2809F459CA0E942B
:1030D000000054CA1092AD0218CEA8E6B0E08330CA
:1030E00008F40CC9E0E0F0E00BC9CF92DF92EF9258
:1030F000FF92CF93109212031092110398EEC92EF3
:1031000093E0D92EE12CF12CC0921303D09214033A
:10311000E0921503F09216038AE691E09093100373
:1031200080930F038FEF9FEF90931C0380931B03FB
:103130001092620310926103C0926303D092640301
:10314000E0926503F09266038AE791E09093600352
:1031500080935F0310929003109291031092920358
:103160001092930310929403109295031092960379
:1031700010929703109298031092990310929A0359
:1031800010929B0310929C0310929D0310929E0339
:1031900010929F031092A0031092A1031092A20319
:1031A0001092A3031092A4031092A5031092A603F9
:1031B0001092A7031092A8031092A9031092AA03D9
:1031C0001092AB031092AC031092AD031092AE03B9
:1031D0001092AF031092B0031092B1031092B20399
:1031E0001092B3031092B4031092B5031092B60379
:1031F0001092B7031092B8031092B9031092BA0359
:103200001092BB031092BC031092BD031092BE0338
:103210001092BF031092C0031092C1031092C20318
:103220001092C3031092C4031092C5031092C603F8
:103230001092C7031092C8031092C9031092CA03D8
:103240001092CB031092CC031092CD031092CE03B8
:103250001092CF031092D0031092D1031092D20398
:103260001092D3031092D4031092D5031092D60378
:103270001092D7031092D8031092D9031092DA0358
:103280001092DB031092DC031092DD031092DE0338
:103290001092DF031092E0031092E1031092E20318
:1032A0001092E3031092E4031092E5031092E603F8
:1032B0001092E7031092E8031092E9031092EA03D8
:1032C0001092EB031092EC031092ED031092EE03B8
:1032D0001092EF0382E1E0EFF3E0DF01282F1D926F
:1032E0002A95E9F7C1E0C0930204C0930304C09398
:1032F00004049CE0E5E0F4E0DF01292F1D922A950B
:10330000E9F7E1E1F4E0DF011D929A95E9F7109207
:103310001D0410921E0410921F041092200410929B
:10332000210410922204109223041092240498E69F
:10333000909325041092340421E030E03093360459
:103340002093350410928D0310928F039DE090938B
:103350008C0380938E0310928A0310928B0360E09B
:1033600083E00E94B70360E085E00E94B7031092FB
:103370006E0310926D03C0926F03D0927003E092BF
:103380007103F09272038AE891E090936C0380934A
:103390006B031092820310928103109284031092A7
:1033A0008303109286031092850310928803109273
:1033B0008703809189038E7F8D7F80938903869513
:1033C0008170682F6C2786E10E94870361E086E1A7
:1033D0000E94B703E2E2F2E0E491E0937B03E3E0D2
:1033E000F2E0E491F0E0EE0FFF1FEF52FE4F859107
:1033F000949190937D0380937C0360E08BE00E9426
:10340000B7038091890381FD04C061E08BE00E94D5
:1034100087038BE080937703E7E1F2E0E491E093A8
:103420007803E8EFF1E0E491F0E0EE0FFF1FE152E6
:10343000FE4F8591949190937A0380937903CF9175
:10344000FF90EF90DF90CF900895CF93DF9382307D
:10345000910510F482E090E0E0914504F09146047B
:1034600020E030E0C0E0D0E0309711F140815181A0
:1034700048175907C0F04817590761F482819381B2
:10348000209719F09B838A832BC0909346048093E6
:10349000450426C02115310519F04217530718F4C9
:1034A0009A01BE01DF01EF010280F381E02DDCCF44
:1034B0002115310509F1281B390B2430310590F411
:1034C00012968D919C9113976115710521F0FB0166
:1034D0009383828304C09093460480934504FD0146
:1034E000329644C0FD01E20FF31F81939193225065
:1034F00031092D933C933AC0209143043091440408
:10350000232B41F420911801309119013093440488
:1035100020934304209116013091170121153105A4
:1035200041F42DB73EB740911A0150911B01241B65
:10353000350BE0914304F0914404E217F307A0F443
:103540002E1B3F0B2817390778F0AC014E5F5F4FF9
:103550002417350748F04E0F5F1F509344044093E3
:1035600043048193919302C0E0E0F0E0CF01DF914A
:10357000CF9108950F931F93CF93DF93009709F492
:103580008CC0FC0132971382128200914504109185
:1035900046040115110581F420813181820F931FAA
:1035A00020914304309144042817390779F5F093AA
:1035B0004404E093430471C0D80140E050E0AE17EA
:1035C000BF0750F412962D913C911397AD01211530
:1035D000310509F1D901F3CF9D01DA01338322834B
:1035E00060817181860F971F8217930769F4EC0140
:1035F00028813981260F371F2E5F3F4F318320836B
:103600008A819B8193838283452B29F4F09346041E
:10361000E093450442C01396FC93EE931297ED019C
:10362000499159919E01240F351FE217F30771F458
:1036300080819181840F951F029611969C938E93A1
:103640008281938113969C938E931297E0E0F0E031
:10365000D80112968D919C911397009719F0F8015B
:103660008C01F6CF8D919C9198012E5F3F4F820F78
:10367000931F20914304309144042817390769F4BB
:10368000309729F4109246041092450402C0138228
:1036900012821093440400934304DF91CF911F9151
:1036A0000F9108955058BB27AA270E946A1B0C94BB
:1036B000AE1C0E94A01C38F00E94A71C20F039F418
:1036C0009F3F19F426F40C949D1C0EF4E095E7FB43
:1036D0000C94971CE92F0E94BF1C58F3BA1762077D
:1036E00073078407950720F079F4A6F50C94E11C84
:1036F0000EF4E0950B2EBA2FA02D0B01B90190010D
:103700000C01CA01A0011124FF27591B99F0593F50
:1037100050F4503E68F11A16F040A22F232F342F98
:103720004427585FF3CF469537952795A795F040E6
:103730005395C9F77EF41F16BA0B620B730B840BFB
:10374000BAF09150A1F0FF0FBB1F661F771F881FB3
:10375000C2F70EC0BA0F621F731F841F48F487950B
:1037600077956795B795F7959E3F08F0B0CF9395FD
:10377000880F08F09927EE0F9795879508950E9476
:10378000731C08F481E008950E94D81B0C94AE1CB1
:103790000E94A71C58F00E94A01C40F029F45F3F33
:1037A00029F00C94971C51110C94E21C0C949D1C54
:1037B0000E94BF1C68F39923B1F3552391F3951B25
:1037C000550BBB27AA2762177307840738F09F5F42
:1037D0005F4F220F331F441FAA1FA9F335D00E2EAF
:1037E0003AF0E0E832D091505040E695001CCAF71C
:1037F0002BD0FE2F29D0660F771F881FBB1F2617DF
:1038000037074807AB07B0E809F0BB0B802DBF01B5
:10381000FF2793585F4F3AF09E3F510578F00C9484
:10382000971C0C94E21C5F3FE4F3983ED4F386951A
:1038300077956795B795F7959F5FC9F7880F911DA5
:103840009695879597F90895E1E0660F771F881F91
:10385000BB1F621773078407BA0720F0621B730B44
:10386000840BBA0BEE1F88F7E0950895E89409C021
:1038700097FB3EF490958095709561957F4F8F4FA3
:103880009F4F9923A9F0F92F96E9BB279395F695B9
:10389000879577956795B795F111F8CFFAF4BB0F37
:1038A00011F460FF1BC06F5F7F4F8F4F9F4F16C09B
:1038B000882311F096E911C0772321F09EE8872F25
:1038C000762F05C0662371F096E8862F70E060E0E1
:1038D0002AF09A95660F771F881FDAF7880F96955A
:1038E000879597F90895990F0008550FAA0BE0E8FE
:1038F000FEEF16161706E807F907C0F012161306B2
:10390000E407F50798F0621B730B840B950B39F4F1
:103910000A2661F0232B242B252B21F408950A2657
:1039200009F4A140A6958FEF811D811D089597F997
:103930009F6780E870E060E008959FEF80EC089555
:1039400000240A941616170618060906089500247E
:103950000A9412161306140605060895092E0394F8
:10396000000C11F4882352F0BB0F40F4BF2B11F46C
:1039700060FF04C06F5F7F4F8F4F9F4F089557FDCB
:103980009058440F551F59F05F3F71F04795880FCD
:1039900097FB991F61F09F3F79F087950895121664
:1039A00013061406551FF2CF4695F1DF08C0161610
:1039B00017061806991FF1CF8695710561050894C1
:1039C0000895E894BB2766277727CB0197F90895D8
:1039D0000E94731C08F48FEF08950E94001D0C9440
:1039E000AE1C0E94A01C38F00E94A71C20F095235A
:1039F00011F00C94971C0C949D1C11240C94E21C47
:103A00000E94BF1C70F3959FC1F3950F50E0551FA6
:103A1000629FF001729FBB27F00DB11D639FAA2723
:103A2000F00DB11DAA1F649F6627B00DA11D661F72
:103A3000829F2227B00DA11D621F739FB00DA11D93
:103A4000621F839FA00D611D221F749F3327A00D4D
:103A5000611D231F849F600D211D822F762F6A2FE9
:103A600011249F5750409AF0F1F088234AF0EE0F4E
:103A7000FF1FBB1F661F771F881F91505040A9F77B
:103A80009E3F510580F00C94971C0C94E21C5F3F04
:103A9000E4F3983ED4F3869577956795B795F795B7
:103AA000E7959F5FC1F7FE2B880F911D969587952F
:103AB00097F9089597FB072E16F4009407D077FD29
:103AC00009D00E94A11D07FC05D03EF49095819578
:103AD0009F4F0895709561957F4F0895A1E21A2E2A
:103AE000AA1BBB1BFD010DC0AA1FBB1FEE1FFF1FA2
:103AF000A217B307E407F50720F0A21BB30BE40BF2
:103B0000F50B661F771F881F991F1A9469F7609538
:103B10007095809590959B01AC01BD01CF010895F2
:103B2000EE0FFF1F0590F491E02D09940E94B51D42
:103B3000A59F900DB49F900DA49F800D911D112401
:103B40000895AA1BBB1B51E107C0AA1FBB1FA617E4
:103B5000B70710F0A61BB70B881F991F5A95A9F736
:103B600080959095BC01CD010895A29FB001B39FAF
:103B7000C001A39F700D811D1124911DB29F700D76
:103B8000811D1124911D089581E090E0F8940C941A
:103B9000E31DFB0151915523A9F0BF01DC014D91BB
:103BA00045174111E1F759F4CD010190002049F08A
:103BB0004D9140154111C9F3FB014111EFCF81E057
:103BC00090E00197089511E0C7E1D1E004C0FE0143
:103BD0000E94901D2196C831D107C9F7F894FFCFF4
:103BE000A201A201A201A201A201FFFFFFFF00E1C9
:103BF0000000000000000000470480001F1C1F1E82
:103C00001F1E1F1F1E1F1E1F446576696365204906
:103C1000443A200047593932353020696E69746959
:103C2000616C697A696E672E2E2E2E0053656E7355
:103C30006F7220656E61626C65643A2000E8030073
:103C4000C180810000000000000042012D046301DA
:103C500006032403580100000000D702A702A301B5
:103C600093028402830200000000C401C60B180204
:103C70003002AB01C3014F4B000D0A00413A200056
:0A3C8000737400676300443A2000EB
:00000001FF
