:100000000C9418010C94B6050C948F050C9468059B
:100010000C9441050C9440010C9440010C941A0579
:100020000C9440010C9477070C94750B0C94A60C5F
:100030000C9440010C9440010C9440010C9440013C
:100040000C9440010C9440010C9440010C9440012C
:100050000C9440010C9440010C9440010C94D00489
:100060000C9440010C9440010C9440010C9440010C
:100070000C9440010C9440010C9440010C944001FC
:100080000C9440010C9440010C9440010C943509EF
:100090000C9407080C9440010C9440010C9440010E
:1000A0000C9440010C9440010C94400162036503E0
:1000B000540358035E0386038603860369036D03B6
:1000C000710377037B038603810300000000240093
:1000D00027002A002D00300047593932353020637F
:1000E0006F6E6E656374696F6E207375636365739D
:1000F0007366756C6C792E00475939323530206340
:100100006F6E6E656374696F6E206661696C65649D
:100110002E00496E697469616C6C697A696E67203A
:1001200042542053657269616C20706F72742E2E78
:100130002E0053657269616C2072656164792E00CE
:100140000000000200090F0000030401000C000081
:10015000000000000000000000000000000000009F
:10016000000000250028002B002E003100000000B8
:10017000002300260029002C002F0004040404049E
:10018000030405020202020403020202020606063A
:1001900006060604040202020404040802011040D8
:1001A00080401020408040800802040180402010E0
:1001B000020110801020404020080B0002020201C2
:1001C00000090400000102020000052400100105DE
:1001D000240101010424020605240600010705810B
:1001E0000310004009040100020A00000007050294
:1001F00002400000070583024000000403090412C6
:10020000010002EF02014041233780000101020397
:100210000141726475696E6F204C4C4300417264F9
:1002200075696E6F204D6963726F00000D16EB0EDD
:1002300011241FBECFEFDAE0DEBFCDBF11E0A0E09A
:10024000B1E0E6E6F6E302C005900D92AC3AB107E4
:10025000D9F724E0ACEAB1E001C01D92A131B207A8
:10026000E1F711E0C7E1D1E004C02197FE010E944F
:10027000FC1AC631D107C9F70E94F50E0C94261B53
:100280000C940000CF93DF931F92CDB7DEB7698344
:10029000DC01ED91FC910280F381E02D41E050E022
:1002A000BE016F5F7F4F09950F90DF91CF91089549
:1002B00083E08093E9008091F200882319F08AE3BB
:1002C0008093E8000895FC018485958597FD0BC017
:1002D0009FB7F89482E08093E9008091F2009FBF7D
:1002E00090E0019608959FB7F89482E08093E9002A
:1002F0008091F2009FBF90E008953FB7F8948091FD
:100300005B0290915C02A0915D02B0915E0226B505
:10031000A89B05C02F3F19F00196A11DB11D3FBF3D
:10032000BA2FA92F982F8827820F911DA11DB11DCB
:10033000BC01CD0142E0660F771F881F991F4A95C7
:10034000D1F7089508958091550290E020915402CC
:10035000821B910908952091610230916202281751
:10036000390771F490915F0280916002981741F013
:10037000E0915F02F0E0EC50FE4F808190E0089544
:100380008FEF9FEF089508951F93CF93DF93DC01C4
:100390005C962D913C915D972115310539F481E0F2
:1003A00090E013969C938E9312973DC05196ED91D9
:1003B000FC91529750969C915097892F80951FB72A
:1003C0005E964C915E9741FB772770F941FD6095F1
:1003D000F8944081772311F0492B01C048234083D2
:1003E000E9012197F1F748E0508160FF02C0592BE5
:1003F00001C058235083E9012197F1F766954150D8
:1004000099F7772321F090818923808303C080812D
:10041000982B90831FBF5C968D919C915D9701975F
:10042000F1F721E030E0C901DF91CF911F910895EC
:1004300020916102309162022817390771F480918E
:10044000600220915F0290E0805C9F4F821B9109C7
:1004500060E470E00E94C61A089580E090E008957C
:10046000209161023091620228173907B9F4909106
:100470005F0280916002981789F0E0915F02F0E0DE
:10048000EC50FE4F808120915F0230E02F5F3F4FA4
:100490002F73332720935F0290E008958FEF9FEF33
:1004A000089585ED8093BC008091BC0084FDFCCF55
:1004B0001092B20208954091CF01262F30E0240F10
:1004C000311D21323105DCF42091B2022430C9F40F
:1004D000FC0180E090E0861758F43091CF01219123
:1004E000DC01A355BE4FA30FB11D2C930196F3CF92
:1004F0008091CF01680F6093CF0180E0089581E083
:10050000089582E008950895E09154028091550283
:10051000E81730F4F0E0EC5CFD4F808190E0089546
:100520008FEF9FEF08959091540280915502981794
:1005300050F4E92FF0E0EC5CFD4F208130E09F5F4C
:100540009093540202C02FEF3FEFC9010895CF925C
:10055000DF92EF92FF920F931F93CF93DF937C0173
:10056000262F972F8A018091B302882391F0C62FFE
:10057000D72F6E01C40ED51ECC15DD0571F0699123
:10058000D701ED91FC910190F081E02DC701099513
:10059000F3CF642F822F0E945B02C801DF91CF91BD
:1005A0001F910F91FF90EF90DF90CF900895CF9320
:1005B000DF931F92CDB7DEB769832091B302222368
:1005C000D1F02091D602203240F021E030E0FC0151
:1005D0003383228380E090E015C08091B402E82F3D
:1005E000F0E0EB54FD4F998190838F5F8093B402CC
:1005F0008093D60205C061E0CE0101960E945B02A5
:1006000081E090E00F90DF91CF910895CF93DF9339
:100610001F92CDB7DEB7FC018485958597FD05C097
:100620002FEF3FEF358724870BC0CE0101960E9444
:10063000370B019719F4898190E002C08FEF9FEF8B
:100640000F90DF91CF9108950F931F93CF93DF9376
:100650001F92CDB7DEB78C01FC018485958597FF8D
:100660000EC0CE0101960E94370B019719F4298123
:1006700030E002C02FEF3FEFF80135872487F80103
:10068000848595850F90DF91CF911F910F910895EB
:100690000E94161B90E0FC013197EF30F105B0F598
:1006A000EA5AFF4F0C94FC1A809180008F7703C0A8
:1006B000809180008F7D80938000089580918000DC
:1006C000877FF9CF84B58F7702C084B58F7D84BDD5
:1006D0000895809190008F7707C0809190008F7D62
:1006E00003C080919000877F80939000089580914F
:1006F000C0008F7703C08091C0008F7D8093C000C1
:1007000008958091C200877F8093C20008951F934F
:10071000CF93DF93282F30E0F901E05CFE4F849106
:10072000F901E656FE4FD491F901E558FE4FC49108
:10073000CC23C9F0162F81110E944A03EC2FF0E060
:10074000EE0FFF1FE15AFE4FA591B4918FB7F894B9
:10075000111105C09C91ED2FE095E92302C0EC91A9
:10076000ED2BEC938FBFDF91CF911F910895CF9325
:10077000DF9390E0FC01E656FE4F2491FC01E55822
:10078000FE4F8491882361F190E0880F991FFC014E
:10079000E653FF4FC591D491FC01E15AFE4FA5915C
:1007A000B491611109C09FB7F89488812095822384
:1007B0008883EC912E230BC0623061F49FB7F894CC
:1007C0003881822F809583238883EC912E2B2C9364
:1007D0009FBF06C08FB7F894E8812E2B28838FBF68
:1007E000DF91CF9108958F929F92AF92BF92CF9257
:1007F000DF92EF92FF926B017C010E947D014B0121
:100800005C01C114D104E104F104F1F00E947D0106
:10081000DC01CB0188199909AA09BB09883E9340DC
:10082000A105B10570F321E0C21AD108E108F10871
:1008300088EE880E83E0981EA11CB11CC114D1045F
:10084000E104F10419F7DDCFFF90EF90DF90CF9036
:10085000BF90AF909F908F9008957F928F929F92BC
:10086000AF92BF92CF92DF92EF92FF920F931F93BE
:10087000CF93DF936C015B017A018091150188238E
:1008800009F46BC080918B02882309F466C08091C3
:10089000880280FF05C08091E00082608093E000C4
:1008A000E70110E00AEF83E0982E90E4792E2AE326
:1008B000822E209709F448C08FB7F8949092E900EF
:1008C0009091E80095FF06C09091F200272D291B1A
:1008D000922F01C090E08FBF91110AC0015009F41E
:1008E0003CC061E070E080E090E00E94F303E1CF63
:1008F000292F30E0C217D3070CF49C2F8FB7F89440
:100900009092E9002091E80025FF1CC0292F30E0DB
:10091000C21BD30BF501915020F041914093F1009F
:10092000FACFA20EB31E112319F08092E80009C07D
:100930009091E80095FD06C08092E80011E02097B4
:1009400009F010E08FBFB5CF1111B6CF5D9A84E6E4
:10095000809389021E141F0444F081E090E0F601A8
:100960009383828380E090E001C0C701DF91CF9143
:100970001F910F91FF90EF90DF90CF90BF90AF90BD
:100980009F908F907F9008952FB7F89460915702B1
:10099000709158028091590290915A022FBF089588
:1009A0001F920F920FB60F9211242F933F938F93A4
:1009B0009F93AF93BF938091570290915802A0915B
:1009C0005902B0915A023091560223E0230F2D377D
:1009D00020F40196A11DB11D05C026E8230F029643
:1009E000A11DB11D20935602809357029093580287
:1009F000A0935902B0935A0280915B0290915C02DD
:100A0000A0915D02B0915E020196A11DB11D80937F
:100A10005B0290935C02A0935D02B0935E02BF9173
:100A2000AF919F918F913F912F910F900FBE0F909B
:100A30001F9018951F920F920FB60F9211242F93AB
:100A40003F934F935F936F937F938F939F93AF9356
:100A5000BF93EF93FF93E0910801F091090109958D
:100A6000FF91EF91BF91AF919F918F917F916F9186
:100A70005F914F913F912F910F900FBE0F901F905C
:100A800018951F920F920FB60F9211242F933F9338
:100A90004F935F936F937F938F939F93AF93BF9386
:100AA000EF93FF93E0910601F09107010995FF9103
:100AB000EF91BF91AF919F918F917F916F915F91D6
:100AC0004F913F912F910F900FBE0F901F9018954F
:100AD0001F920F920FB60F9211242F933F934F93B3
:100AE0005F936F937F938F939F93AF93BF93EF9396
:100AF000FF93E0910401F09105010995FF91EF91B9
:100B0000BF91AF919F918F917F916F915F914F9125
:100B10003F912F910F900FBE0F901F9018951F922D
:100B20000F920FB60F9211242F933F934F935F9321
:100B30006F937F938F939F93AF93BF93EF93FF93A5
:100B4000E0910201F09103010995FF91EF91BF91AE
:100B5000AF919F918F917F916F915F914F913F9155
:100B60002F910F900FBE0F901F9018951F920F920C
:100B70000FB60F9211242F933F934F935F936F9370
:100B80007F938F939F93AF93BF93EF93FF93E091E6
:100B90000001F09101010995FF91EF91BF91AF9193
:100BA0009F918F917F916F915F914F913F912F9185
:100BB0000F900FBE0F901F9018952F923F924F925B
:100BC0005F926F927F928F929F92AF92BF92CF92DD
:100BD000DF92EF92FF920F931F93CF93DF93CDB7E6
:100BE000DEB728970FB6F894DEBF0FBECDBFD82E64
:100BF000C62E4887190178010E94C4042B013C01CC
:100C00008D2C880C912C10E001E04885A42EB12C8D
:100C1000970140E050E02B833C834D835E83488501
:100C2000941608F0A0C00093B302D092D50210929F
:100C3000B4021092D6026C2D87E293E00E94D70294
:100C40000E9443090093B302D092D5021092B402DD
:100C50001092D6028091B2028111FCCF9501291920
:100C600031092132310514F020E230E02F832132A6
:100C700010F030E23F830093B2020093B1024FEFD5
:100C80004093B0021092AF028F8181508093AE02E8
:100C900000938D0280918D02882980938D0280912E
:100CA0008C02813071F410928C0280918D028093BD
:100CB000BB008091BC0083FDF8CF55EC5093BC0085
:100CC00003C085EE8093BC008091B2028130E1F3D5
:100CD0008091AF022F81821718F43091AF023F83C9
:100CE000AEE8B2E0E4E3F2E08E2F44E352E0841B8E
:100CF0005F81851718F48D918193F6CF109254027D
:100D000050935502809154022F81281721F1E1144C
:100D1000F10481F49101210F311D17FD3A953A83B9
:100D2000298387E293E00E949302A981BA818C9380
:100D30001F5FE8CF0E94C404DC01CB018419950930
:100D4000A609B7092B813C814D815E8182179307EB
:100D5000A407B507F8F20E9443098885813208F09C
:100D600080E2980E5CCFE114F104D9F00E94C40433
:100D7000AB01BC014419550966097709C701A0E018
:100D8000B0E0481759076A077B0758F05885852F48
:100D900090E0212F012E000C330B281739070CF49B
:100DA0001FEF812F28960FB6F894DEBF0FBECDBF80
:100DB000DF91CF911F910F91FF90EF90DF90CF9037
:100DC000BF90AF909F908F907F906F905F904F906B
:100DD0003F902F900895CF92DF92EF92FF920F9362
:100DE0001F93CF93DF9300D0CDB7DEB7F82EE62E5A
:100DF000D42EC22E08EE13E09E012E5F3F4F41E03D
:100E00000E94DD053A81E1E0F0E0AF0101C0440F4E
:100E1000DA94EAF7CC2019F0932F942B03C0942F87
:100E2000909593239A839983AE014F5F5F4F6E2D08
:100E30008F2D0E94040A0F900F90DF91CF911F9188
:100E40000F91FF90EF90DF90CF900895BF92CF92D7
:100E5000DF92EF92FF920F931F93CF93DF9300D017
:100E6000CDB7DEB7F82EE62EC42EB22ED02E08EE69
:100E700013E09E012E5F3F4F41E00E94DD05882375
:100E800049F14C2D50E04B1951094F5F5F4F21E064
:100E900030E002C0220F331FBA94E2F7215031092B
:100EA000042E01C0220F0A94EAF78D2D01C0880F8D
:100EB0004A95EAF7322F30959A8193232823292BDC
:100EC0002A832983AE014F5F5F4F6E2D8F2D0E94C5
:100ED000040A01C080E00F900F90DF91CF911F9125
:100EE0000F91FF90EF90DF90CF90BF9008951F92E9
:100EF0000F920FB60F9211242F933F934F935F934E
:100F00006F937F938F939F93AF93BF93EF93FF93D1
:100F1000E0916102F0916202309709F451C0968D20
:100F2000A685B785858591FF04C09C91892329F406
:100F300047C09C91892309F043C0A389B4899C913F
:100F40008589809589238C93868997890197F1F704
:100F5000608D718DA685B785558538E020E0CB0181
:100F60000197F1F7822F90E095958795282F4C9166
:100F7000452309F02068315091F7868D81FD209539
:100F80008091600290E001968F73992730915F0203
:100F9000381749F0A0916002B0E0AC50BE4F2C93DE
:100FA0008093600203C0868D8160868F828D938DD1
:100FB0000197F1F7A389B4899C918589892B8C933A
:100FC000FF91EF91BF91AF919F918F917F916F9121
:100FD0005F914F913F912F910F900FBE0F901F90F7
:100FE0001895E0916102F0916202E817F90769F43F
:100FF000A389B4899C918589809589238C931092CB
:1010000062021092610281E0089580E008951F92CB
:101010000F920FB60F9211242F933F934F935F932C
:101020006F937F938F939F93AF93BF93EF93FF93B0
:101030008091B900887F803609F49CC068F58832B9
:1010400009F45BC090F4803109F454C038F488236B
:1010500009F4F6C0883009F44DC0F6C0883109F4AF
:101060004CC0803209F45DC0EFC0803409F468C020
:1010700048F4803309F455C0883309F0E5C0809303
:10108000B002D8C0803509F44FC0883509F45DC07E
:10109000883409F0D9C0D6C0883909F4C7C0A8F48B
:1010A000883709F467C038F4883609F463C080379C
:1010B00009F460C0C9C0883809F4B8C0803909F49F
:1010C0005FC0803809F0C0C05BC0803B09F486C0B7
:1010D00038F4803A09F466C0883A09F47FC0B4C095
:1010E000803C09F4A7C0883C09F4A4C0883B09F4FB
:1010F0008AC0AAC080918D0210C09091AF028091E9
:10110000AE02981770F5E091AF0281E08E0F8093E8
:10111000AF02F0E0E257FD4F80818093BB0085EC89
:1011200086C08093B0028EC0E091AF0281E08E0F46
:101130008093AF028091BB00F0E0E257FD4F8083C7
:101140009091AF028091AE026EC0E091AF0281E05B
:101150008E0F8093AF028091BB00F0E0E257FD4F0D
:1011600080838091B10281116DC081E080938C02F7
:1011700084EA61C083E08093B2021092F301CFCF82
:101180008091F301803208F051C0E091F30181E0D9
:101190008E0F8093F3018091BB00F0E0ED52FE4F83
:1011A0008083BDCF85EC8093BC001092B202809109
:1011B000F301803230F4E091F301F0E0ED52FE4FA4
:1011C00010826091F30170E0E091D101F091D201C1
:1011D00083ED91E009951092F30136C084E080938D
:1011E000B2021092D0011092CF01E091CD01F091A6
:1011F000CE0109958091CF01811105C081E08093D6
:10120000CF011092AD01E091D00181E08E0F80936B
:10121000D001F0E0E355FE4F80818093BB009091B8
:10122000D0018091CF01981708F479CF85E8809399
:10123000BC000AC085EC8093BC001092B20204C0CE
:101240001092B0020E945102FF91EF91BF91AF91B5
:101250009F918F917F916F915F914F913F912F91CE
:101260000F900FBE0F901F9018951F920F920FB600
:101270000F9211241092FE031092FD030F900FBEE7
:101280000F901F9018952091D6029091D50221328F
:1012900008F04AC08091B2028111FCCF32E0309355
:1012A000B20231E03093B1023FEF3093B0021092BE
:1012B000AF022093AE02A5EBB2E04EE852E0FA0195
:1012C0003E2F341B321718F43D913193F9CF109211
:1012D0008D0220918D02990F922B90938D02909107
:1012E0008C02913061F410928C0290918D02909357
:1012F000BB009091BC0093FDF8CF95EC01C095EE3A
:101300009093BC009091B2029230E1F39091B002C0
:101310009F3F79F08091B002803241F08091B0021D
:10132000803331F084E005C081E003C082E001C079
:1013300083E01092B4021092D6021092B302089584
:101340008F929F92AF92BF920F931F93CF93DF9391
:10135000CDB7DEB7A1970FB6F894DEBF0FBECDBFF5
:1013600019A2423008F44AE08E010F5D1F4F842E0F
:10137000912CA12CB12CA50194010E94DA1AE62F20
:10138000B901CA0101501109EA3014F4E05D01C04D
:10139000E95CD801EC93232B242B252B61F7B801B2
:1013A00087ED92E00E94D60EA1960FB6F894DEBFAC
:1013B0000FBECDBFDF91CF911F910F91BF90AF9026
:1013C0009F908F9008950F931F93CF93DF938C017D
:1013D000C0E0D0E0F801EC0FFD1F6491662371F0CE
:1013E000E091D702F091D8020190F081E02D87EDD5
:1013F00092E00995892B11F02196ECCFCE01DF9177
:10140000CF911F910F910895CF93DF93EA0191E05F
:101410009093B3028093D5021092B4021092D60238
:1014200087E293E00E94D702688187E293E00E94FE
:10143000D7020E94430991E0811190E0892FDF914A
:10144000CF910895CF93DF930E94E309EC0167E801
:1014500071E087ED92E00E94D60E8C0F9D1FDF9108
:10146000CF910895E091D702F091D8020190F081D8
:10147000E02D682F87ED92E009944F925F926F9272
:101480007F928F929F92AF92BF92CF92DF92EF9214
:10149000FF926B017C01B42E9B01AC010E94AC1A3F
:1014A000882319F06FE971E027C026013701E8941D
:1014B00077F82FEF3FEF4FE75FE7C301B2010E94DC
:1014C000AC1A81110DC02FEF3FEF4FE75FE7C3016B
:1014D000B2010E949C1818161CF463EA71E00CC05B
:1014E0002FEF3FEF4FE75FE4C701B6010E94F41909
:1014F000181694F467EA71E087ED92E0FF90EF90A0
:10150000DF90CF90BF90AF909F908F907F906F9023
:101510005F904F900C94D60E2FEF3FEF4FE75FECAC
:10152000C701B6010E949C1887FDE4CF20E030E09F
:10153000A901C701B6010E949C1887FF09C08DE26E
:101540000E94320A4C01F7FAF094F7F8F09402C0C6
:10155000812C912CA12C60E070E080E09FE3AB1423
:1015600041F020E030E040E251E40E94A118A39451
:10157000F6CF9B01AC01C701B6010E9430182B01C8
:101580003C010E9413196B017C010E9442199B01CE
:10159000AC01C301B2010E942F182B013C014AE0AB
:1015A000C701B6010E94A0097C01E80CF91CBB2010
:1015B00029F08EE20E94320AE80EF91EDB2CDD20B3
:1015C00021F120E030E040E251E4C301B2010E9489
:1015D000F9192B013C010E9413194B01A12CB12CCC
:1015E0004AE0C501B4010E94A009E80EF91EC50138
:1015F000B4010E9442199B01AC01C301B2010E94D7
:101600002F182B013C01DA94DACFC701FF90EF903D
:10161000DF90CF90BF90AF909F908F907F906F9012
:101620005F904F900895CF93DF93E8E4F1E08491C9
:10163000E2EAF1E0D491E3E8F1E0C491CC2391F047
:1016400081110E944A03EC2FF0E0EE0FFF1FE359D7
:10165000FE4FA591B491EC91ED2381E090E021F44F
:1016600080E002C080E090E0DF91CF910895FC011E
:1016700080918B02811103C08FEF9FEF08959FB778
:10168000F89482E08093E9002091F20030E0121695
:10169000130614F421E030E02115310559F0289AA1
:1016A00084E680938A028091F10080838091F20029
:1016B000882319F09FBFC90108958BE68093E80045
:1016C000F9CF8091030481110DC082E08093FF0364
:1016D00084E080930004109202041092010481E0DF
:1016E000809303048FEF93E008951F920F920FB63B
:1016F0000F9211248F939F938091E1009091E100CC
:10170000937F9093E10083FF0FC01092E90091E076
:101710009093EB001092EC0092E39093ED00109206
:101720008B0298E09093F00082FF20C093E09093AA
:10173000E9009091F200992319F09AE39093E80060
:1017400090918902992339F0909189029150909358
:101750008902992389F190918A02992339F0909115
:101760008A02915090938A02992341F184FF10C01C
:101770008091E2008E7E81608093E2008091E100A2
:101780008F7E8093E100809188028E7E806111C0FF
:1017900080FF16C08091E2008E7E80618093E2001F
:1017A0008091E1008E7E8093E100809188028E7EA0
:1017B00081608093880204C05D98CDCF2898D6CFF1
:1017C0009F918F910F900FBE0F901F901895409191
:1017D0000F045091100420910D0430910E04421713
:1017E0005307B4F49091E8009570E1F39091E8000C
:1017F00092FD19C08093F10080910F049091100424
:1018000001968F739927892B19F48EEF8093E80046
:1018100080910F049091100401969093100480938E
:101820000F0481E0089580E00895DF92EF92FF9227
:101830000F931F93CF93DF93D82E8A017B01E40E81
:10184000F51EEB01CE15DF0571F0D7FE03C0FE01DA
:10185000849101C088810E94E70B21968111F2CF0B
:101860008FEF9FEF01C0C801DF91CF911F910F91C2
:10187000FF90EF90DF900895615030F02091F100DB
:10188000FC0120830196F8CF289A84E680938A028F
:101890000895CF92DF92EF92FF920F931F93CF9311
:1018A000DF936C017A018B01C0E0D0E0CE15DF053B
:1018B00089F0D8016D918D01D601ED91FC910190D7
:1018C000F081E02DC6010995892B11F47E0102C03B
:1018D0002196ECCFC701DF91CF911F910F91FF901F
:1018E000EF90DF90CF9008950F931F93CF93DF93E6
:1018F0001F92CDB7DEB782E0898342E450E069EB06
:1019000071E080E80E94150C0E94610BDC011296C8
:101910000D911C9113970115110569F0D801ED91F6
:10192000FC910280F381E02DBE016F5F7F4FC80103
:10193000099597FF07C089810F90DF91CF911F9183
:101940000F910895F80100851185E5CF1F920F9240
:101950000FB60F921124CF92DF92EF92FF920F9366
:101960001F932F933F934F935F936F937F938F9327
:101970009F93AF93BF93EF93FF93CF93DF93CDB735
:10198000DEB76C97DEBFCDBF1092E9008091E80012
:1019900083FFEDC168E0CE0145960E943C0C82EFCA
:1019A0008093E8008D8987FF05C09091E80090FF43
:1019B000FCCF03C09EEF9093E800982F907609F03B
:1019C000C6C09E892F89188D91110CC0803829F4CA
:1019D00080910C048093F10002C01092F1001092EB
:1019E000F10048C1422F50E0512B913051F4811148
:1019F00041C14130510509F03DC180910C048D7FFA
:101A00000BC0933061F4811135C14130510509F0AB
:101A100031C180910C04826080930C042BC19530FD
:101A200041F48091E80080FFFCCF20682093E30020
:101A300021C1963009F05FC0EB8CFC8C1092E9005C
:101A40001092100410920F04123091F510920E04AF
:101A500010920D040E94740C99E0BE016F5F7F4FDD
:101A6000DB01E92F1D92EA95E9F799831A8391E04A
:101A70009E8390EA98879AEF998720910F0430917E
:101A80001004275F3F4F3C832B838D831092E90026
:101A90001092100410920F04F0920E04E0920D04C4
:101AA00049E050E080E00E94150C0E94740CE2C0F6
:101AB000F0920E04E0920D040E94610BDC0112967C
:101AC000ED90FC901397E114F10409F4C0C0D70124
:101AD000ED91FC910480F581E02DBE016B5E7F4F9E
:101AE000C7010995009719F00CF0C4C0C7C0F701F1
:101AF000E084F184E8CF973009F4C0C0983021F435
:101B000081E08093F100B6C0993009F0B3C08370D2
:101B100009F0B4C0EEE7F1E081E021E036E3908126
:101B2000992361F08093E9002093EB0091919093C9
:101B3000EC003093ED008F5F873089F78EE780935C
:101B4000EA001092EA008F8980938B0293C08B8DFC
:101B50009C8D1092E9001092100410920F04909343
:101B60000E0480930D04898D811156C08E899D8944
:101B7000913A59F4813209F081C047E050E06EE0BB
:101B800071E080E00E94150C75C0913209F076C0BA
:101B9000833289F4888D90E0982F88272F89822BB3
:101BA000A0E0B0E080930A0190930B01A0930C0198
:101BB000B0930D015FC0803269F48091E80082FF2C
:101BC000FCCF67E08EE091E00E943C0C8BEF8093AD
:101BD000E80006C0823209F04DC08F89809315015C
:101BE00080910B04882319F0EEEFFAE002C0E0E0E8
:101BF000F8E080910E0190910F01A0911001B09139
:101C00001101803B9440A105B10509F07BC0809192
:101C1000150180FF93C076C00E94610BDC01129613
:101C20000D911C9113970115110541F1D801ED910A
:101C3000FC910190F081E02DBE016B5E7F4FC801E9
:101C40000995811117C0F80100851185ECCF11307D
:101C500009F44EC0133091F48F89882309F445C0EC
:101C6000823081F440E86DE08DE192E00E94BD1782
:101C7000882321F08EEF8093E80079C081E2809381
:101C8000EB0075C0813029F440E86BE081E192E01F
:101C9000EDCF833099F70E94610BDC011296ED9035
:101CA000FC9013978E010F5F1F4F6801E114F10440
:101CB00079F0D701ED91FC910680F781E02DB80114
:101CC000C7010995080F111DF701E084F184EECFDB
:101CD000D8011C92F60101900020E9F73197BF016D
:101CE0006C197D0940E0C601C1CF6BEF71E002C005
:101CF0006FEF71E06115710509F2FB01449150E04D
:101D000080E840CF0FB6F894A89580916000886174
:101D100080936000109260000FBEA895EE3F2AE00D
:101D2000F20739F08091FE0A9091FF0A9183808337
:101D3000A1CF1092FF0A1092FE0A9CCFEE3F8AE0DC
:101D4000F80731F0808191819093FF0A8093FE0A19
:101D500087E797E7918380839BE088E10FB6F8944B
:101D6000A895809360000FBE9093600083CF6C961F
:101D70000FB6F894DEBF0FBECDBFDF91CF91FF91BC
:101D8000EF91BF91AF919F918F917F916F915F91F3
:101D90004F913F912F911F910F91FF90EF90DF9006
:101DA000CF900F900FBE0F901F9018956115710581
:101DB00079F0FB0101900020E9F73197AF01461B54
:101DC000570BDC01ED91FC910280F381E02D099429
:101DD00080E090E0089581E791E090933403809350
:101DE000330383E393E00C94F107CF93DF93CDB7F4
:101DF000DEB7AB970FB6F894DEBF0FBECDBF7894B9
:101E000084B5826084BD84B5816084BD85B58260FF
:101E100085BD85B5816085BD80916E0081608093B0
:101E20006E00109281008091810082608093810019
:101E30008091810081608093810080918000816029
:101E400080938000809191008260809391008091C6
:101E500091008160809391008091900081608093D7
:101E600090008091C10084608093C1008091C10086
:101E700082608093C1008091C10081608093C10025
:101E80008091C30081608093C3008091C000826014
:101E90008093C0008091C20081608093C2008091D5
:101EA0007A00846080937A0080917A0082608093C7
:101EB0007A0080917A00816080937A0080917A0024
:101EC000806880937A0010928B0210920C0410921A
:101ED00088028091D70081608093D70080EA809348
:101EE000D80089B5806189BD89B5826089BD09B492
:101EF00000FEFDCF61E070E080E090E00E94F3031F
:101F00008091D8008F7C80618093D8008091E00020
:101F1000807F8093E0008091E1008E7E8093E100DD
:101F20008DE08093E200559A209A5D982898EEEF14
:101F3000FFE7859194918B3F9C4D19F481E080934C
:101F40000B0461E08DE00E94B70361E082E10E9432
:101F5000B70362E088E00E94B70361E08DE00E9471
:101F6000870361E082E10E9487038FEF9FEF9093E8
:101F7000E4028093E30282E391E00E94220A82E17C
:101F800091E00E94E30910924E0310924D031092CB
:101F90004C0310924B0310924A03109249038DE9AF
:101FA00091E09093500380934F0380913F0398EF0B
:101FB000980F943048F022EF280F243028F026EEB6
:101FC000280F233008F060C02DEB30E030934A0337
:101FD000209349032BE931E030934C0320934B03CA
:101FE0002CE231E030934E0320934D03943058F0AF
:101FF00092EF980F943038F08A51833008F405C678
:10200000A0E0B0E004C6A8E6B0E0E8E6F0E0808139
:1020100081608C9380913F0398EF980F943058F033
:1020200022EF280F243038F026EE280F233018F046
:1020300020E030E002C02BE630E0309347032093ED
:102040004603943010F49CEF09C08E3071F08F304D
:1020500071F0803171F0813171F09AEE980F81E06A
:1020600001C0880F9A95EAF707C088E005C082E0B2
:1020700003C084E001C081E08093480380914F0356
:10208000909150030197F1F780914D0390914E0389
:10209000892B21F1809161029091620233E08333B8
:1020A0009307E1F0009711F00E94F107809151032E
:1020B0008E7F809351031092600210925F0283E33F
:1020C00093E09093620280936102E0914603F09165
:1020D0004703908180914803892B808364E871E0F5
:1020E00087ED92E00E94D60E67E871E087ED92E0FE
:1020F0000E94D60E82E291E00E94220A01E023E0D3
:1021000042E06BE68091ED030E94260700E022E0AA
:1021100044E06BE18091ED030E94260722E044E059
:102120006CE18091ED030E94260720E046E06BE61B
:102130008091ED030E94EB0668EE73E080E090E092
:102140000E94F30386E191E00E94E30908EE13E0A8
:102150009E012F5F3F4F41E065E78091ED030E94B4
:10216000DD05882329F089818F7790E08093EE0345
:102170006091EE0370E080E090E040E10E94A009F1
:1021800067E871E087ED92E00E94D60E08EE13E05A
:102190009E012F5F3F4F41E065E78091ED030E9474
:1021A000DD05882329F089818F7790E08093EE0305
:1021B0008091EE03813729F088EF90E00E94220A97
:1021C00099CF88ED90E00E94220A83E08093FC037F
:1021D00020E045E06CE68091ED030E94EB0620E0F4
:1021E00044E06CE68091ED030E94EB0620E043E0C2
:1021F0006CE68091ED030E94EB068091FC0381FF69
:1022000015C020E042E06CE68091ED030E94EB06F1
:1022100020E041E06CE68091ED030E94EB0620E0B7
:1022200040E06CE68091ED030E94EB068AE391E0CA
:102230000E94E3096091FC03617070E080E090E02F
:102240004AE00E94A0096091FC03627070E080E0A7
:1022500090E04AE00E94A00967E871E087ED92E013
:102260000E94D60EF8948091710081608093710075
:102270008091900080919100836080939100789488
:10228000AE014F5F5F4F1A018091FD039091FE03F5
:10229000892B09F0AFC48091800281110DC00E948A
:1022A000C40460937C0270937D0280937E029093BD
:1022B0007F0281E0809380020E94C404C0907C026F
:1022C000D0907D02E0907E02F0907F02DC01CB0195
:1022D0008C199D09AE09BF094F97A105B10508F4F6
:1022E0000CC40E94C40460937C0270937D028093AE
:1022F0007E0290937F0260E082E10E94870308EEF5
:1023000013E02EEE33E04EE06BE38091ED030E948C
:10231000DD05C090EE03D12CDC2CCC248091EF03A2
:10232000C82AD092B903C092B803E090F003F12C10
:10233000FE2CEE248091F103E82AF092BB03E09298
:10234000BA036091F20370E0762F66278091F30361
:10235000682B7093BD036093BC038091F60390E0FB
:10236000982F88272091F703DC01A22BBDA3ACA3F3
:10237000B093BF03A093BE038091F80390E0982F21
:1023800088272091F903FC01E22BFFA3EEA3F09331
:10239000C103E093C0038091FA0390E0982F88274F
:1023A0002091FB038C01022B1093C3030093C20303
:1023B000F091FC03FBA3F0FF70C120916C033091FE
:1023C0006D0340916E0350916F032F8F38A349A383
:1023D0005AA38090680390906903A0906A03B0901C
:1023E0006B034090640350906503609066037090A7
:1023F0006703072E000C880B990B0E94441920E0FC
:102400003CE249E456E40E942F182DEC3CEC4CE9E8
:1024100051EC0E94F91920E031E942E057EC0E94AA
:10242000A1182DEC3CEC4CE151E40E9430182F8DAA
:1024300038A149A15AA10E942F182FE832EC45EF8C
:102440005CE30E94F9192AEA3AE84AE65EE30E9450
:10245000A1189B01AC016F8D78A189A19AA10E945E
:10246000301868A779A78AA79BA7B701FF0C880B2C
:10247000990B0E94441920E030E14BE856E40E9499
:102480002F182DEC3CEC4CE951EC0E94F91920E09E
:1024900030E240E057EC0E94A1182DEC3CEC4CE1FE
:1024A00051E40E943018A50194010E942F182FE8D2
:1024B00032EC45EF5CE30E94F9192AEA3AE84AE671
:1024C0005EE30E94A1189B01AC01C501B4010E940A
:1024D00030184B015C01B601DD0C880B990B0E9492
:1024E000441920E03CE742E956E40E942F182DEC05
:1024F0003CEC4CE951EC0E94F91920E038E74FEF31
:1025000056EC0E94A1182DEC3CEC4CE151E40E94E9
:102510003018A30192010E942F182FE832EC45EFEA
:102520005CE30E94F9192AEA3AE84AE65EE30E946F
:10253000A1189B01AC01C301B2010E943018609345
:1025400058037093590380935A0390935B038092CE
:102550005C0390925D03A0925E03B0925F0328A596
:1025600039A54AA55BA5209360033093610340938E
:10257000620350936303209184033091850340915B
:102580008603509187032F8F38A349A35AA3C09085
:102590008003D0908103E0908203F0908303409009
:1025A0007C0350907D0360907E0370907F03A301B5
:1025B00092010E942F182FE832EC45EF5CE30E9455
:1025C000F91925ED3AE642EB5EE30E94A1189B0162
:1025D000AC01C301B2010E94301860937003709384
:1025E00071038093720390937303A7019601C50151
:1025F000B4010E942F182FE832EC45EF5CE30E94F3
:10260000F91925ED3AE642EB5EE30E94A1189B0121
:10261000AC01C701B6010E94301860937403709337
:10262000750380937603909377032F8D38A149A18A
:102630005AA168A579A58AA59BA50E942F182FE805
:1026400032EC45EF5CE30E94F91925ED3AE642EBE6
:102650005EE30E94A1189B01AC016F8D78A189A156
:102660009AA10E9430186093780370937903809345
:102670007A0390937B03E8E5F3E0A4E6B3E08CE013
:1026800001900D928A95E1F7E0E7F3E0ACE7B3E063
:102690008CE001900D928A95E1F73BA131FF91C04A
:1026A000C0909C03D0909D03E0909E03F0909F0308
:1026B0008090980390909903A0909A03B0909B0308
:1026C0004090940350909503609096037090970308
:1026D0004CA15DA1BA01550F880B990B0E944419BA
:1026E000A30192010E942F182FE832EC45EF5CE322
:1026F0000E94F9192AEA3AE84AE65EE30E94A11824
:102700009B01AC01C301B2010E94301860938803A1
:102710007093890380938A0390938B03AEA1BFA12A
:10272000BD01BB0F880B990B0E944419A5019401B0
:102730000E942F182FE832EC45EF5CE30E94F91954
:102740002AEA3AE84AE65EE30E94A1189B01AC013E
:10275000C501B4010E94301860938C0370938D03FF
:1027600080938E0390938F03B801110F880B990B00
:102770000E944419A70196010E942F182FE832ECFD
:1027800045EF5CE30E94F9192AEA3AE84AE65EE37B
:102790000E94A1189B01AC01C701B6010E9430182C
:1027A00060939003709391038093920390939303AB
:1027B000E8E8F3E0A4E9B3E08CE001900D928A959B
:1027C000E1F7609158037091590380915A039091F9
:1027D0005B0342E00E943D0A80E20E94320A60915F
:1027E0005C0370915D0380915E0390915F0342E012
:1027F0000E943D0A80E20E94320A6091600370915B
:102800006103809162039091630342E00E943D0A5C
:1028100080E20E94320A60915803709159038091BE
:102820005A0390915B0380905C0390905D03A090AD
:102830005E03B0905F03C0906003D0906103E090AE
:102840006203F09063039B01AC010E94F9192B0114
:102850003C01A5019401C501B4010E94F9199B0135
:10286000AC01C301B2010E9430184B015C01A70109
:102870009601C701B6010E94F9199B01AC01C5017F
:10288000B4010E9430180E946C1A42E00E943D0A76
:1028900080E20E94320A609170037091710380910E
:1028A00072039091730342E00E943D0A67E871E071
:1028B00087ED92E00E94D60E8091CA0320E030E0BE
:1028C00040E85FE38823E1F0609170037091710349
:1028D00080917203909173030E9430189B01AC01A8
:1028E000609158037091590380915A0390915B0352
:1028F0000E94F41918160CF09BC01092CA0398C0DD
:1029000060917003709171038091720390917303D1
:102910000E942F189B01AC016091580370915903DC
:1029200080915A0390915B030E949C1887FF80C09E
:1029300081E08093CA030E94C4048090CD039090EC
:10294000CE03A090CF03B090D0036B017C01C818D8
:10295000D908EA08FB088091D9039091DA03A09185
:10296000DB03B091DC03A5019401281B390B4A0B52
:102970005B0BCA01B9010E9442192B013C01C7013E
:10298000B6010E9442199B01AC01C301B2010E9431
:10299000A1182B013C012DEC3CEC4CE45FE30E94C0
:1029A000F419181684F52AE939E949E95FE3C30106
:1029B000B2010E949C1887FF26C037EEC31AD108C7
:1029C000E108F10849EEC41646E0D406E104F1043A
:1029D000D0F42091E8032F5F8091E9039091EA03FE
:1029E000A091EB03B091EC03820F911DA11DB11DCD
:1029F0008093E9039093EA03A093EB03B093EC0375
:102A00001092E80303C082E08093E8038092D90328
:102A10009092DA03A092DB03B092DC030E94C4041C
:102A20006093CD037093CE038093CF039093D00334
:102A300061E082E10E9487030E94130B892B09F059
:102A400053C080917B0281114FC00E94C4046093E7
:102A50006702709368028093690290936A02C09043
:102A60006302D0906402E0906502F0906602DC019F
:102A7000CB018C199D09AE09BF0986399105A105C5
:102A8000B10578F16AE871E087ED92E00E94D60E18
:102A900067E871E087ED92E00E94D60E80916702B0
:102AA00090916802A0916902B0916A0280936302DA
:102AB00090936402A0936502B093660280916B02CA
:102AC00090916C02A0916D02B0916E020196A11DD1
:102AD000B11D80936B0290936C02A0936D02B09332
:102AE0006E0281E080937B0280917B02882329F033
:102AF0000E94130B892B09F085C08091730281110C
:102B00000DC00E94C40460936F02709370028093A2
:102B100071029093720281E0809373020E94C40458
:102B2000C0906F02D0907002E0907102F09072023B
:102B3000DC01CB018C199D09AE09BF098D32914092
:102B4000A105B10508F450C0D101E4E11D92EA9558
:102B5000E9F70E94C40460936F027093700280933F
:102B600071029093720260E08DE00E948703C09032
:102B7000E903D090EA03E090EB03F090EC03C092FD
:102B80006B02D0926C02E0926D02F0926E0266E9E6
:102B900071E0C1010E941B1B6BE971E0C1010E9441
:102BA0001B1B4AE0BE016B5E7F4FC6010E94FA17F5
:102BB000BC01C1010E941B1B6BE971E0C1010E94B5
:102BC0001B1B6DE971E0C1010E941B1B68E871E0ED
:102BD000C1010E941B1BB10183E393E00E94D60E4A
:102BE00061E08DE00E94870321E030E03093FE0336
:102BF0002093FD0340E050E0452B09F445CB0E94B3
:102C0000000042CB10927B0278CFA8E6B0E0833080
:102C100008F4FBC9E0E0F0E0FAC9CF92DF92EF924E
:102C2000FF92CF931092DA021092D90298EEC92E39
:102C300093E0D92EE12CF12CC092DB02D092DC0281
:102C4000E092DD02F092DE0281E591E09093D802FD
:102C50008093D7028FEF9FEF9093E4028093E3027B
:102C600010922A0310922903C0922B03D0922C03B6
:102C7000E0922D03F0922E0381E691E090932803D9
:102C800080932703109258031092590310925A030D
:102C900010925B0310925C0310925D0310925E032E
:102CA00010925F031092600310926103109262030E
:102CB00010926303109264031092650310926603EE
:102CC00010926703109268031092690310926A03CE
:102CD00010926B0310926C0310926D0310926E03AE
:102CE00010926F031092700310927103109272038E
:102CF000109273031092740310927503109276036E
:102D000010927703109278031092790310927A034D
:102D100010927B0310927C0310927D0310927E032D
:102D200010927F031092800310928103109282030D
:102D300010928303109284031092850310928603ED
:102D400010928703109288031092890310928A03CD
:102D500010928B0310928C0310928D0310928E03AD
:102D600010928F031092900310929103109292038D
:102D7000109293031092940310929503109296036D
:102D800010929703109298031092990310929A034D
:102D900010929B0310929C0310929D0310929E032D
:102DA00010929F031092A0031092A1031092A2030D
:102DB0001092A3031092A4031092A5031092A603ED
:102DC0001092A7031092A8031092A9031092AA03CD
:102DD0001092AB031092AC031092AD031092AE03AD
:102DE0001092AF031092B0031092B1031092B2038D
:102DF0001092B3031092B4031092B5031092B6036D
:102E00001092B70382E1E8EBF3E0DF01282F1D9277
:102E10002A95E9F7C1E0C093CA03C093CB03C093DE
:102E2000CC039CE0EDECF3E0DF01292F1D922A9505
:102E3000E9F7E9EDF3E0DF011D929A95E9F71092C9
:102E4000E5031092E6031092E7031092E803109254
:102E5000E9031092EA031092EB031092EC0398E658
:102E60009093ED031092FC0321E030E03093FE03D9
:102E70002093FD0310925503109257039DE0909309
:102E8000540380935603109252031092530360E050
:102E900083E00E94B70360E085E00E94B7031092D0
:102EA000360310923503C0923703D0923803E09274
:102EB0003903F0923A0381E791E0909334038093D1
:102EC000330310924A031092490310924C0310925C
:102ED0004B0310924E0310924D0310925003109228
:102EE0004F03809151038E7F8D7F80935103869590
:102EF0008170682F6C2786E10E94870361E086E17C
:102F00000E94B703E0EBF1E0E491E0934303E1E9D1
:102F1000F1E0E491F0E0EE0FFF1FE15AFE4F8591E2
:102F20009491909345038093440360E087E10E946D
:102F3000B7038091510381FD04C061E087E10E94E5
:102F4000870387E180933F03E1EBF1E0E491E093B5
:102F50004003E2E9F1E0E491F0E0EE0FFF1FE359F6
:102F6000FE4F859194919093420380934103CF91BA
:102F7000FF90EF90DF90CF900895CF92DF92EF9285
:102F8000FF920F931F93CF93DF931F92CDB7DEB7BE
:102F9000182F062FE42E862F880F8E5F99830E94AC
:102FA000E70B83E00E94E70BF12EC12E9981D92E09
:102FB0008C2D8F19801798F4F601E7FE02C08491DA
:102FC00001C080810E94E70B182F80E00E94E70B70
:102FD0008123FFEFCF1ADF0A8111EACF01C081E020
:102FE0000F90DF91CF911F910F91FF90EF90DF90A5
:102FF000CF900895BB274A3031F4992322F4BDE2E3
:10300000909581959F4F0C940618BB27FB0155277F
:10301000AA27880F991FAA1FA41710F0A41B839535
:103020005051B9F7A05DAA3308F0A95DA1930097AC
:1030300079F7B111B1931192CB010C941F18DC01F7
:10304000FC01672F71917723E1F7329704C07C91DF
:103050006D9370836291AE17BF07C8F308955058FF
:10306000BB27AA270E9447180C94BA190E94AC19D2
:1030700038F00E94B31920F039F49F3F19F426F478
:103080000C94A9190EF4E095E7FB0C94A319E92F11
:103090000E94CB1958F3BA17620773078407950784
:1030A00020F079F4A6F50C94ED190EF4E0950B2EB2
:1030B000BA2FA02D0B01B90190010C01CA01A0018A
:1030C0001124FF27591B99F0593F50F4503E68F1E5
:1030D0001A16F040A22F232F342F4427585FF3CF26
:1030E000469537952795A795F0405395C9F77EF4F7
:1030F0001F16BA0B620B730B840BBAF09150A1F040
:10310000FF0FBB1F661F771F881FC2F70EC0BA0FC5
:10311000621F731F841F48F4879577956795B7954D
:10312000F7959E3F08F0B0CF9395880F08F0992748
:10313000EE0F9795879508950E947F1908F481E016
:1031400008950E94B5180C94BA190E94B31958F04A
:103150000E94AC1940F029F45F3F29F00C94A319A8
:1031600051110C94EE190C94A9190E94CB1968F313
:103170009923B1F3552391F3951B550BBB27AA2730
:1031800062177307840738F09F5F5F4F220F331F6A
:10319000441FAA1FA9F335D00E2E3AF0E0E832D032
:1031A00091505040E695001CCAF72BD0FE2F29D035
:1031B000660F771F881FBB1F261737074807AB0707
:1031C000B0E809F0BB0B802DBF01FF2793585F4F7C
:1031D0003AF09E3F510578F00C94A3190C94EE1927
:1031E0005F3FE4F3983ED4F3869577956795B7955E
:1031F000F7959F5FC9F7880F911D9695879597F969
:103200000895E1E0660F771F881FBB1F62177307E1
:103210008407BA0720F0621B730B840BBA0BEE1FF6
:1032200088F7E09508950E94D31988F09F5798F089
:10323000B92F9927B751B0F0E1F0660F771F881FBB
:10324000991F1AF0BA95C9F714C0B13091F00E94D5
:10325000ED19B1E008950C94ED19672F782F8827A8
:10326000B85F39F0B93FCCF3869577956795B395FC
:10327000D9F73EF490958095709561957F4F8F4F6B
:103280009F4F0895E89409C097FB3EF49095809570
:10329000709561957F4F8F4F9F4F9923A9F0F92F1C
:1032A00096E9BB279395F695879577956795B7959A
:1032B000F111F8CFFAF4BB0F11F460FF1BC06F5F80
:1032C0007F4F8F4F9F4F16C0882311F096E911C092
:1032D000772321F09EE8872F762F05C0662371F0B3
:1032E00096E8862F70E060E02AF09A95660F771FC7
:1032F000881FDAF7880F9695879597F90895990FA3
:103300000008550FAA0BE0E8FEEF16161706E807AF
:10331000F907C0F012161306E407F50798F0621BD0
:10332000730B840B950B39F40A2661F0232B242BA5
:10333000252B21F408950A2609F4A140A6958FEFC4
:10334000811D811D089597F99F6780E870E060E016
:1033500008959FEF80EC089500240A94161617062E
:1033600018060906089500240A9412161306140676
:1033700005060895092E0394000C11F4882352F0D9
:10338000BB0F40F4BF2B11F460FF04C06F5F7F4F91
:103390008F4F9F4F089557FD9058440F551F59F078
:1033A0005F3F71F04795880F97FB991F61F09F3F32
:1033B00079F087950895121613061406551FF2CF5B
:1033C0004695F1DF08C0161617061806991FF1CFAB
:1033D00086957105610508940895E894BB276627D2
:1033E0007727CB0197F908950E947F1908F48FEF92
:1033F00008950E940C1A0C94BA190E94AC1938F066
:103400000E94B31920F0952311F00C94A3190C9489
:10341000A91911240C94EE190E94CB1970F3959FF1
:10342000C1F3950F50E0551F629FF001729FBB27BB
:10343000F00DB11D639FAA27F00DB11DAA1F649F57
:103440006627B00DA11D661F829F2227B00DA11D0A
:10345000621F739FB00DA11D621F839FA00D611D90
:10346000221F749F3327A00D611D231F849F600DB1
:10347000211D822F762F6A2F11249F5750409AF0DA
:10348000F1F088234AF0EE0FFF1FBB1F661F771F66
:10349000881F91505040A9F79E3F510580F00C9431
:1034A000A3190C94EE195F3FE4F3983ED4F386958C
:1034B00077956795B795F795E7959F5FC1F7FE2BD1
:1034C000880F911D9695879597F9089519F416F42C
:1034D0000C94A9190C94B11A0E94D319B8F399232A
:1034E000C9F3B6F39F57550B87FF0E94BF1A0024FC
:1034F000A0E640EA900180585695979528F4805CA4
:10350000660F771F881F20F026173707480730F40B
:10351000621B730B840B202931294A2BA695179423
:103520000794202531254A2758F7660F771F881FF3
:1035300020F026173707480730F4620B730B840B13
:10354000200D311D411DA09581F7B901842F91589F
:10355000880F9695879508950E947F19880B990B7F
:1035600008959F3F31F0915020F4879577956795A6
:10357000B795880F911D9695879597F90895915065
:103580005040660F771F881FD2F7089597FB072ECC
:1035900016F4009407D077FD09D00E94021B07FCA7
:1035A00005D03EF4909581959F4F08957095619553
:1035B0007F4F0895A1E21A2EAA1BBB1BFD010DC06F
:1035C000AA1FBB1FEE1FFF1FA217B307E407F507D3
:1035D00020F0A21BB30BE40BF50B661F771F881FAF
:1035E000991F1A9469F760957095809590959B0145
:1035F000AC01BD01CF010895EE0FFF1F0590F491BE
:10360000E02D0994AA1BBB1B51E107C0AA1FBB1FD9
:10361000A617B70710F0A61BB70B881F991F5A955E
:10362000A9F780959095BC01CD01089581E090E0C7
:10363000F8940C94261BFB01DC010D900020E9F7A7
:10364000119701900D920020E1F7089511E0C7E174
:10365000D1E004C0FE010E94FC1A2196C831D107B6
:06366000C9F7F894FFCF4A
:10366600A201A201A201A201A201FFFFFFFF00E148
:103676000000000000004465766963652049443A0D
:10368600200047593932353020696E697469616C9A
:10369600697A696E672E2E2E2E0053656E736F72D1
:1036A60020656E61626C65643A2000E803000000E4
:1036B6000042012D046301060324035801000000A3
:1036C60000D702A702A3019302840283020000002E
:1036D60000C401490C18023002AB01C30100C180CD
:1036E600810000004F4B000D0A0062746E20746961
:1036F6006D65206F6E0031313131002F0030006E64
:0C370600616E00696E66006F7666000060
:00000001FF
