:100000000C943B010C941B060C94F4050C94CD0548
:100010000C94A6050C9463010C9463010C947F0569
:100020000C9463010C94DC070C94F00D0C94670A9B
:100030000C9463010C9463010C9463010C946301B0
:100040000C9463010C9463010C9463010C946301A0
:100050000C9463010C9463010C9463010C943505BA
:100060000C9463010C9463010C9463010C94630180
:100070000C9463010C9463010C9463010C94630170
:100080000C9463010C9463010C9463010C949A0921
:100090000C946C080C9463010C9463010C94630140
:1000A0000C9463010C9463010C9463018503880331
:1000B00077037B038103A903A903A9038C0390039E
:1000C00094039A039E03A903A403000000002400E4
:1000D00027002A002D0030000000000200090F0058
:1000E00000030401000C00000000000000000000FC
:1000F0000000000000000044657669636520494403
:100100003A200047593932353020696E6974696187
:100110006C697A696E672E2E2E2E0053656E736F92
:100120007220656E61626C65643A2000475939320D
:10013000353020636F6E6E656374696F6E20737502
:10014000636365737366756C6C792E004759393239
:10015000353020636F6E6E656374696F6E20666103
:10016000696C65642E00496E697469616C6C697AAA
:10017000696E672042542053657269616C20706F0C
:1001800072742E2E2E0053657269616C2072656147
:1001900064792E00080B000202020100090400002D
:1001A00001020200000524001001052401010104E0
:1001B00024020605240600010705810310004009FA
:1001C000040100020A0000000705020240000007C7
:1001D0000583024000000403090441726475696EDE
:1001E0006F204C4C430041726475696E6F204D69FD
:1001F00063726F001201000200000040412337804B
:1002000000010102030112010002EF02014041233B
:1002100037800001010203010000000025002800D2
:100220002B002E00310000000000230026002900D2
:100230002C002F000404040404030405020202023B
:10024000040302020202060606060606040402026F
:100250000204040408020110408040102040804045
:10026000800802040180402010020110801020400C
:1002700040203513620E11241FBECFEFDAE0DEBF3F
:10028000CDBF11E0A0E0B1E0E2E9FDE202C00590DF
:100290000D92A037B107D9F723E0A0E7B1E001C084
:1002A0001D92A737B207E1F711E0CAE3D1E004C01D
:1002B0002197FE010E947814C933D107C9F70E9423
:1002C0006C0E0C94BC160C940000CF93DF931F921D
:1002D000CDB7DEB76983DC01ED91FC910280F3813B
:1002E000E02D41E050E0BE016F5F7F4F09950F9018
:1002F000DF91CF91089583E08093E9008091F2002F
:10030000882319F08AE38093E8000895FC0184852E
:10031000958597FD0BC09FB7F89482E08093E90024
:100320008091F2009FBF90E0019608959FB7F894E6
:1003300082E08093E9008091F2009FBF90E00895F1
:100340003FB7F8948091260290912702A09128024D
:10035000B091290226B5A89B05C02F3F19F0019640
:10036000A11DB11D3FBFBA2FA92F982F8827820F3B
:10037000911DA11DB11DBC01CD0142E0660F771F8B
:10038000881F991F4A95D1F70895089580912002FA
:1003900090E020911F02821B9109089520912C0268
:1003A00030912D022817390771F490912A0280911B
:1003B0002B02981741F0E0912A02F0E0E154FE4F41
:1003C000808190E008958FEF9FEF089508951F9327
:1003D000CF93DF93DC015C962D913C915D972115C5
:1003E000310539F481E090E013969C938E93129737
:1003F0003DC05196ED91FC91529750969C9150972B
:10040000892F80951FB75E964C915E9741FB7727A9
:1004100070F941FD6095F8944081772311F0492BE4
:1004200001C048234083E9012197F1F748E050815A
:1004300060FF02C0592B01C058235083E901219766
:10044000F1F76695415099F7772321F09081892340
:10045000808303C08081982B90831FBF5C968D9111
:100460009C915D970197F1F721E030E0C901DF91A0
:10047000CF911F91089520912C0230912D022817C1
:10048000390771F480912B0220912A0290E0805C60
:100490009F4F821B910960E470E00E94421408950E
:1004A00080E090E0089520912C0230912D022817D1
:1004B0003907B9F490912A0280912B02981789F09C
:1004C000E0912A02F0E0E154FE4F808120912A025F
:1004D00030E02F5F3F4F2F73332720932A0290E0A5
:1004E00008958FEF9FEF089585ED8093BC00809174
:1004F000BC0084FDFCCF10927702089540919A01D0
:10050000262F30E0240F311D21323105DCF42091FB
:1005100077022430C9F4FC0180E090E0861758F49B
:1005200030919A012191DC01A858BE4FA30FB11D53
:100530002C930196F3CF80919A01680F60939A01F2
:1005400080E0089581E0089582E008950895E091A3
:100550001F0280912002E81730F4F0E0E150FE4FD6
:10056000808190E008958FEF9FEF089590911F0292
:1005700080912002981750F4E92FF0E0E150FE4FEF
:10058000208130E09F5F90931F0202C02FEF3FEF6A
:10059000C9010895CF92DF92EF92FF920F931F93BC
:1005A000CF93DF937C01262F972F8A0180917802C9
:1005B000882391F0C62FD72F6E01C40ED51ECC15FF
:1005C000DD0571F06991D701ED91FC910190F08109
:1005D000E02DC7010995F3CF642F822F0E947E0280
:1005E000C801DF91CF911F910F91FF90EF90DF90A5
:1005F000CF900895CF93DF931F92CDB7DEB7698375
:10060000209178022223D1F020919B02203240F0E9
:1006100021E030E0FC013383228380E090E015C0CC
:1006200080917902E82FF0E0E658FD4F99819083A0
:100630008F5F8093790280939B0205C061E0CE01B9
:1006400001960E947E0281E090E00F90DF91CF91B1
:1006500008950F931F93CF93DF931F92CDB7DEB70B
:100660008C01FC018485958597FF0EC0CE01019613
:100670000E94B20D019719F4298130E002C02FEFDA
:100680003FEFF80135872487F801848595850F9021
:10069000DF91CF911F910F910895CF93DF931F9218
:1006A000CDB7DEB7FC018485958597FD05C02FEF9A
:1006B0003FEF358724870BC0CE0101960E94B20D13
:1006C000019719F4898190E002C08FEF9FEF0F909E
:1006D000DF91CF9108950E94B71690E0FC01319709
:1006E000EF30F105B0F5EA5AFF4F0C947814809181
:1006F00080008F7703C0809180008F7D8093800081
:10070000089580918000877FF9CF84B58F7702C0EC
:1007100084B58F7D84BD0895809190008F7707C048
:10072000809190008F7D03C080919000877F80939F
:10073000900008958091C0008F7703C08091C00021
:100740008F7D8093C00008958091C200877F809341
:10075000C20008951F93CF93DF93282F30E0F90153
:10076000E852FF4F8491F901ED5AFD4FD491F90100
:10077000EC5CFD4FC491CC23C9F0162F81110E946F
:100780006D03EC2FF0E0EE0FFF1FE85EFD4FA5912B
:10079000B4918FB7F894111105C09C91ED2FE0959D
:1007A000E92302C0EC91ED2BEC938FBFDF91CF9149
:1007B0001F910895CF93DF9390E0FC01ED5AFD4F18
:1007C0002491FC01EC5CFD4F8491882361F190E061
:1007D000880F991FFC01E653FF4FC591D491FC018E
:1007E000E85EFD4FA591B491611109C09FB7F894DF
:1007F0008881209582238883EC912E230BC0623060
:1008000061F49FB7F8943881822F80958323888381
:10081000EC912E2B2C939FBF06C08FB7F894E881E4
:100820002E2B28838FBFDF91CF9108958F929F92B7
:10083000AF92BF92CF92DF92EF92FF926B017C0159
:100840000E94A0014B015C01C114D104E104F10438
:10085000F1F00E94A001DC01CB0188199909AA09D5
:10086000BB09883E9340A105B10570F321E0C21A8F
:10087000D108E108F10888EE880E83E0981EA11CDB
:10088000B11CC114D104E104F10419F7DDCFFF90CC
:10089000EF90DF90CF90BF90AF909F908F90089592
:1008A0008F929F92AF92BF92CF92DF92EF92FF9280
:1008B0000F931F93CF93DF935C016B018A018091AB
:1008C0001901882309F45EC080915002882309F43D
:1008D00059C080914D0280FF05C08091E000826088
:1008E0008093E000E8018AEFF82E93E0E92E2FE3F1
:1008F000822E3AE3932E209709F43DC08FB7F894E7
:10090000E092E9009091E80095FF06C09091F20016
:10091000282D291B922F01C090E08FBF91110AC092
:10092000FA94FF2079F161E070E080E090E00E94AD
:100930001604E1CF292F30E0C217D3070CF49C2F07
:100940008FB7F894E092E9002091E80025FF11C0EC
:10095000292F30E0C21BD30BF601915020F04191BA
:100960004093F100FACFC20ED31E9091E80095FF9C
:1009700013C08FBFC0CF5D9A84E680934E021016DD
:10098000110644F081E090E0F5019383828380E0DA
:1009900090E005C0C80103C09092E800EACFDF9163
:1009A000CF911F910F91FF90EF90DF90CF90BF906C
:1009B000AF909F908F9008952FB7F8946091220286
:1009C0007091230280912402909125022FBF0895F7
:1009D0000F931F930E94DC04609374017093750160
:1009E00080937601909377010091700110917101CD
:1009F0002091720130917301DC01CB01801B910BBE
:100A0000A20BB30B86399105A105B10558F181E51B
:100A100091E00E94A40C8DE591E00E94A40C8091CD
:100A2000740190917501A0917601B0917701809346
:100A3000700190937101A0937201B0937301809142
:100A40000A0190910B01A0910C01B0910D0101964A
:100A5000A11DB11D80930A0190930B01A0930C017D
:100A6000B0930D011F910F9108951F920F920FB631
:100A70000F9211242F933F938F939F93AF93BF9324
:100A80008091220290912302A0912402B09125022C
:100A90003091210223E0230F2D3720F40196A11D70
:100AA000B11D05C026E8230F0296A11DB11D20939C
:100AB00021028093220290932302A0932402B093F8
:100AC00025028091260290912702A0912802B091E0
:100AD00029020196A11DB11D809326029093270241
:100AE000A0932802B0932902BF91AF919F918F915B
:100AF0003F912F910F900FBE0F901F9018951F924E
:100B00000F920FB60F9211242F933F934F935F9341
:100B10006F937F938F939F93AF93BF93EF93FF93C5
:100B2000E0910801F09109010995FF91EF91BF91C2
:100B3000AF919F918F917F916F915F914F913F9175
:100B40002F910F900FBE0F901F9018951F920F922C
:100B50000FB60F9211242F933F934F935F936F9390
:100B60007F938F939F93AF93BF93EF93FF93E09106
:100B70000601F09107010995FF91EF91BF91AF91A7
:100B80009F918F917F916F915F914F913F912F91A5
:100B90000F900FBE0F901F9018951F920F920FB6D7
:100BA0000F9211242F933F934F935F936F937F93F3
:100BB0008F939F93AF93BF93EF93FF93E0910401C3
:100BC000F09105010995FF91EF91BF91AF919F9130
:100BD0008F917F916F915F914F913F912F910F90E6
:100BE0000FBE0F901F9018951F920F920FB60F9285
:100BF00011242F933F934F935F936F937F938F9322
:100C00009F93AF93BF93EF93FF93E0910201F09115
:100C100003010995FF91EF91BF91AF919F918F9142
:100C20007F916F915F914F913F912F910F900FBEE8
:100C30000F901F9018951F920F920FB60F921124CC
:100C40002F933F934F935F936F937F938F939F93D4
:100C5000AF93BF93EF93FF93E0910001F0910101F7
:100C60000995FF91EF91BF91AF919F918F917F91E6
:100C70006F915F914F913F912F910F900FBE0F9009
:100C80001F9018952F923F924F925F926F927F9292
:100C90008F929F92AF92BF92CF92DF92EF92FF928C
:100CA0000F931F93CF93DF93CDB7DEB728970FB67F
:100CB000F894DEBF0FBECDBFD82EC62E48871901CF
:100CC00078010E94DC042B013C018D2C880C912CB6
:100CD00010E001E04885A42EB12C970140E050E0DF
:100CE0002B833C834D835E834885941608F0A0C017
:100CF00000937802D0929A021092790210929B028D
:100D00006C2D8CEE92E00E94FA020E94BC0C0093C3
:100D10007802D0929A021092790210929B028091EE
:100D200077028111FCCF9501291931092132310552
:100D300014F020E230E02F83213210F030E23F83C4
:100D400000937702009376024FEF40937502109262
:100D500074028F81815080937302009352028091BC
:100D6000520288298093520280915102813071F49D
:100D700010925102809152028093BB008091BC007E
:100D800083FDF8CF55EC5093BC0003C085EE8093F3
:100D9000BC00809177028130E1F3809174022F8151
:100DA000821718F4309174023F83A3E5B2E0EFEFAD
:100DB000F1E08E2F4FEF51E0841B5F81851718F40F
:100DC0008D918193F6CF10921F0250932002809153
:100DD0001F022F81281721F1E114F10481F4910100
:100DE000210F311D17FD3A953A8329838CEE92E04D
:100DF0000E94B602A981BA818C931F5FE8CF0E943E
:100E0000DC04DC01CB0184199509A609B7092B8103
:100E10003C814D815E8182179307A407B507F8F2E4
:100E20000E94BC0C8885813208F080E2980E5CCF6D
:100E3000E114F104D9F00E94DC04AB01BC014419B7
:100E4000550966097709C701A0E0B0E048175907BE
:100E50006A077B0758F05885852F90E0212F012ED7
:100E6000000C330B281739070CF41FEF812F28963D
:100E70000FB6F894DEBF0FBECDBFDF91CF911F91AB
:100E80000F91FF90EF90DF90CF90BF90AF909F9029
:100E90008F907F906F905F904F903F902F9008952C
:100EA000CF92DF92EF92FF920F931F93CF93DF9336
:100EB00000D0CDB7DEB7F82EE62ED42EC22E08EE27
:100EC00013E09E012E5F3F4F41E00E9442063A81AF
:100ED000E1E0F0E0AF0101C0440FDA94EAF7CC2082
:100EE00019F0932F942B03C0942F909593239A83FA
:100EF0009983AE014F5F5F4F6E2D8F2D0E947B0D4A
:100F00000F900F90DF91CF911F910F91FF90EF9075
:100F1000DF90CF900895BF92CF92DF92EF92FF9231
:100F20000F931F93CF93DF9300D0CDB7DEB7F82E8A
:100F3000E62EC42EB22ED02E08EE13E09E012E5FB8
:100F40003F4F41E00E944206882349F14C2D50E07A
:100F50004B1951094F5F5F4F21E030E002C0220F73
:100F6000331FBA94E2F721503109042E01C0220F39
:100F70000A94EAF78D2D01C0880F4A95EAF7322FBF
:100F800030959A8193232823292B2A832983AE0124
:100F90004F5F5F4F6E2D8F2D0E947B0D01C080E053
:100FA0000F900F90DF91CF911F910F91FF90EF90D5
:100FB000DF90CF90BF9008951F920F920FB60F92BF
:100FC00011242F933F934F935F936F937F938F934E
:100FD0009F93AF93BF93EF93FF93E0912C02F09117
:100FE0002D02309709F451C0968DA685B785858569
:100FF00091FF04C09C91892329F447C09C918923C7
:1010000009F043C0A389B4899C918589809589237F
:101010008C93868997890197F1F7608D718DA685EC
:10102000B785558538E020E0CB010197F1F7822F95
:1010300090E095958795282F4C91452309F02068DD
:10104000315091F7868D81FD209580912B0290E0A3
:1010500001968F73992730912A02381749F0A09191
:101060002B02B0E0A154BE4F2C9380932B0203C0FF
:10107000868D8160868F828D938D0197F1F7A3898C
:10108000B4899C918589892B8C93FF91EF91BF91B5
:10109000AF919F918F917F916F915F914F913F9110
:1010A0002F910F900FBE0F901F901895E0912C027A
:1010B000F0912D02E817F90769F4A389B4899C918E
:1010C0008589809589238C9310922D0210922C0291
:1010D00081E0089580E008951F920F920FB60F925D
:1010E00011242F933F934F935F936F937F938F932D
:1010F0009F93AF93BF93EF93FF938091B900887F45
:10110000803609F49CC068F5883209F45BC090F41D
:10111000803109F454C038F4882309F4F6C08830CB
:1011200009F44DC0F6C0883109F44CC0803209F48E
:101130005DC0EFC0803409F468C048F4803309F41E
:1011400055C0883309F0E5C080937502D8C080355A
:1011500009F44FC0883509F45DC0883409F0D9C05E
:10116000D6C0883909F4C7C0A8F4883709F467C025
:1011700038F4883609F463C0803709F460C0C9C008
:10118000883809F4B8C0803909F45FC0803809F0A4
:10119000C0C05BC0803B09F486C038F4803A09F4D3
:1011A00066C0883A09F47FC0B4C0803C09F4A7C087
:1011B000883C09F4A4C0883B09F48AC0AAC0809185
:1011C000520210C09091740280917302981770F5CA
:1011D000E091740281E08E0F80937402F0E0ED5A8A
:1011E000FD4F80818093BB0085EC86C080937502A3
:1011F0008EC0E091740281E08E0F80937402809122
:10120000BB00F0E0ED5AFD4F808390917402809115
:1012100073026EC0E091740281E08E0F80937402BD
:101220008091BB00F0E0ED5AFD4F80838091760203
:1012300081116DC081E08093510284EA61C083E036
:10124000809377021092BE01CFCF8091BE01803291
:1012500008F051C0E091BE0181E08E0F8093BE0185
:101260008091BB00F0E0E256FE4F8083BDCF85EC5D
:101270008093BC00109277028091BE01803230F4DE
:10128000E091BE01F0E0E256FE4F10826091BE0197
:1012900070E0E0919C01F0919D018EE991E009954B
:1012A0001092BE0136C084E08093770210929B01B9
:1012B00010929A01E0919801F0919901099580911D
:1012C0009A01811105C081E080939A011092780102
:1012D000E0919B0181E08E0F80939B01F0E0E85844
:1012E000FE4F80818093BB0090919B0180919A0179
:1012F000981708F479CF85E88093BC000AC085EC84
:101300008093BC001092770204C0109275020E9474
:101310007402FF91EF91BF91AF919F918F917F9157
:101320006F915F914F913F912F910F900FBE0F9052
:101330001F9018951F920F920FB60F9211241092C2
:101340006A03109269030F900FBE0F901F901895BB
:1013500040914B0250914C022091490230914A0237
:1013600042175307B4F49091E8009570E1F390911F
:10137000E80092FD19C08093F10080914B0290919A
:101380004C0201968F739927892B19F48EEF809365
:10139000E80080914B0290914C02019690934C0290
:1013A00080934B0281E0089580E00895DF92EF92F0
:1013B000FF920F931F93CF93DF93D82E8A017B0167
:1013C000E40EF51EEB01CE15DF0571F0D7FE03C06C
:1013D000FE01849101C088810E94A8092196811193
:1013E000F2CF8FEF9FEF01C0C801DF91CF911F9126
:1013F0000F91FF90EF90DF900895615030F02091B1
:10140000F100FC0120830196F8CF289A84E68093AE
:101410004F020895CF92DF92EF92FF920F931F93A6
:10142000CF93DF936C017A018B01C0E0D0E0CE1541
:10143000DF0589F0D8016D918D01D601ED91FC9108
:101440000190F081E02DC6010995892B11F47E01F0
:1014500002C02196ECCFC701DF91CF911F910F9170
:10146000FF90EF90DF90CF9008950F931F93CF934D
:10147000DF931F92CDB7DEB782E0898342E450E06C
:1014800064E971E080E80E94D6090E94DC0DDC016D
:1014900012960D911C9113970115110569F0D80151
:1014A000ED91FC910280F381E02DBE016F5F7F4FD3
:1014B000C801099597FF07C089810F90DF91CF91EF
:1014C0001F910F910895F80100851185E5CF1F92B6
:1014D0000F920FB60F921124CF92DF92EF92FF92EC
:1014E0000F931F932F933F934F935F936F937F932C
:1014F0008F939F93AF93BF93EF93FF93CF93DF931C
:10150000CDB7DEB76C97DEBFCDBF1092E9008091FA
:10151000E80083FFFAC168E0CE0145960E94FD090C
:1015200082EF8093E8008D8987FF05C09091E800E5
:1015300090FFFCCF03C09EEF9093E800982F907629
:1015400009F0C6C09E892F89188D91110CC0803872
:1015500029F4809147028093F10002C01092F100BB
:101560001092F10047C1422F50E0512B913051F4BD
:10157000811140C14130510509F03CC180914702C1
:101580008D7F0BC0933061F4811134C1413051051E
:1015900009F030C1809147028260809347022AC1DE
:1015A000953041F48091E80080FFFCCF20682093C3
:1015B000E30020C1963009F05FC0EB8CFC8C1092E8
:1015C000E90010924C0210924B02123091F51092E9
:1015D0004A02109249020E94350A99E0BE016F5FEB
:1015E0007F4FDB01E92F1D92EA95E9F799831A8372
:1015F00091E09E8390EA98879AEF998720914B0219
:1016000030914C02275F3F4F3C832B838D83109298
:10161000E90010924C0210924B02F0924A02E092C2
:10162000490249E050E080E00E94D6090E94350A54
:10163000E1C0F0924A02E09249020E94DC0DDC0116
:101640001296ED90FC901397E114F10409F4C0C0D8
:10165000D701ED91FC910480F581E02DBE016B5E18
:101660007F4FC7010995009719F00CF0C3C0C6C0A1
:10167000F701E084F184E8CF973009F4BFC09830D7
:1016800021F481E08093F100B5C0993009F0B2C037
:10169000837009F0B3C0EBE1F1E081E021E036E3D3
:1016A0009081992361F08093E9002093EB00919160
:1016B0009093EC003093ED008F5F873089F78EE7D1
:1016C0008093EA001092EA008F898093500292C0C2
:1016D0008B8D9C8D1092E90010924C0210924B025F
:1016E00090934A0280934902898D811156C08E8958
:1016F0009D89913A59F4813209F080C047E050E069
:1017000062E171E080E00E94D60974C0913209F074
:1017100075C0833289F4888D90E0982F88272F89AF
:10172000822BA0E0B0E080930E0190930F01A09374
:101730001001B09311015EC0803269F48091E8001D
:1017400082FFFCCF67E082E191E00E94FD098BEF10
:101750008093E80006C0823209F04CC08F898093E4
:10176000190180914602882319F0EEEFFAE002C0D9
:10177000E0E0F8E08091120190911301A091140132
:10178000B0911501803B9440A105B10509F088C0D6
:101790008091190180FFA0C083C00E94DC0DDC0194
:1017A00012960D911C9113970115110539F1D8016D
:1017B000ED91FC910190F081E02DBE016B5E7F4FB9
:1017C000C8010995811116C0F80100851185ECCF7B
:1017D0001130C1F0133091F48F89882309F455C07A
:1017E0008230E9F440E86DE086EE91E00E94F81264
:1017F000882321F08EEF8093E80087C081E28093F8
:10180000EB0083C08B8D9C8D089711F410934802D8
:1018100080914802811136C064EF71E038C0813098
:1018200029F440E86BE08AED91E0E0CF833031F7B6
:101830000E94DC0DDC011296ED90FC9013978E0156
:101840000F5F1F4F6801E114F10479F0D701ED91AA
:10185000FC910680F781E02DB801C7010995080FBA
:10186000111DF701E084F184EECFD8011C92F6013E
:1018700001900020E9F73197BF016C197D0940E024
:10188000C601B4CF66E072E002C066ED71E061159A
:10189000710509F4B3CFFB01449150E080E833CFE8
:1018A0000FB6F894A89580916000886180936000DD
:1018B000109260000FBEA895EE3F2AE0F20739F0C3
:1018C0008091FE0A9091FF0A9183808393CF1092BA
:1018D000FF0A1092FE0A8ECFEE3F8AE0F80731F041
:1018E000808191819093FF0A8093FE0A87E797E7B2
:1018F000918380839BE088E10FB6F894A89580934C
:1019000060000FBE9093600075CF6C960FB6F89490
:10191000DEBF0FBECDBFDF91CF91FF91EF91BF91A1
:10192000AF919F918F917F916F915F914F913F9177
:101930002F911F910F91FF90EF90DF90CF900F901C
:101940000FBE0F901F901895BC01009791F0FC01FD
:1019500001900020E9F73197AF01481B590BE09146
:101960009C02F0919D020280F381E02D8CE992E0CF
:10197000099480E090E0089520919B0290919A0252
:10198000213208F04AC0809177028111FCCF32E009
:101990003093770231E0309376023FEF3093750257
:1019A0001092740220937302AAE7B2E043E552E07A
:1019B000FA013E2F341B321718F43D913193F9CFC1
:1019C0001092520220915202990F922B9093520240
:1019D00090915102913061F4109251029091520213
:1019E0009093BB009091BC0093FDF8CF95EC01C0A3
:1019F00095EE9093BC00909177029230E1F3909134
:101A000075029F3F79F080917502803241F080919C
:101A10007502803331F084E005C081E003C082E0CC
:101A200001C083E01092790210929B02109278021A
:101A300008958F929F92AF92BF920F931F93CF936F
:101A4000DF93CDB7DEB7A1970FB6F894DEBF0FBE18
:101A5000CDBF19A2423008F44AE08E010F5D1F4F3E
:101A6000842E912CA12CB12CA50194010E94561416
:101A7000E62FB901CA0101501109EA3014F4E05D02
:101A800001C0E95CD801EC93232B242B252B61F7B3
:101A9000C8010E94A40CA1960FB6F894DEBF0FBE39
:101AA000CDBFDF91CF911F910F91BF90AF909F90CD
:101AB0008F9008950F931F93CF93DF938C01C0E015
:101AC000D0E0F801EC0FFD1F6491662371F0E09106
:101AD0009C02F0919D020190F081E02D8CE992E052
:101AE0000995892B11F02196ECCFCE01DF91CF9192
:101AF0001F910F910895CF93DF93EA0191E09093A6
:101B0000780280939A021092790210929B028CEED6
:101B100092E00E94FA0268818CEE92E00E94FA0242
:101B20000E94BC0C91E0811190E0892FDF91CF9150
:101B30000895CF93DF930E945A0DEC018DE591E05B
:101B40000E94A40C8C0F9D1FDF91CF910895E0910E
:101B50009C02F0919D020190F081E02D682F8CE9AC
:101B600092E00994FC0180915002811103C08FEF33
:101B70009FEF08959FB7F89482E08093E900209149
:101B8000F20030E01216130614F421E030E02115C3
:101B9000310559F0289A84E680934F028091F10034
:101BA00080838091F200882319F09FBFC9010895B6
:101BB0008BE68093E800F9CF80916F0381110DC00F
:101BC00082E080936B0384E080936C0310926E0339
:101BD00010926D0381E080936F038BE693E008958C
:101BE0001F920F920FB60F9211248F939F938091A3
:101BF000E1009091E100937F9093E10083FF0FC09B
:101C00001092E90091E09093EB001092EC0092E3C7
:101C10009093ED001092500298E09093F00082FFB4
:101C200020C093E09093E9009091F200992319F07D
:101C30009AE39093E80090914E02992339F09091A5
:101C40004E02915090934E02992389F190914F0248
:101C5000992339F090914F02915090934F0299231C
:101C600041F184FF10C08091E2008E7E81608093FC
:101C7000E2008091E1008F7E8093E10080914D022F
:101C80008E7E806111C080FF16C08091E2008E7E42
:101C900080618093E2008091E1008E7E8093E1007C
:101CA00080914D028E7E816080934D0204C05D98CC
:101CB000CDCF2898D6CF9F918F910F900FBE0F90C8
:101CC0001F90189585E491E09093F9028093F802B3
:101CD00088EF92E00C945608CF93DF931F92CDB714
:101CE000DEB7789484B5826084BD84B5816084BD9C
:101CF00085B5826085BD85B5816085BD80916E00AA
:101D0000816080936E0010928100809181008260DA
:101D10008093810080918100816080938100809117
:101D20008000816080938000809191008260809328
:101D3000910080919100816080939100809190004A
:101D40008160809390008091C10084608093C10085
:101D50008091C10082608093C1008091C100816048
:101D60008093C1008091C30081608093C300809103
:101D7000C00082608093C0008091C2008160809327
:101D8000C20080917A00846080937A0080917A000A
:101D9000826080937A0080917A00816080937A00DB
:101DA00080917A00806880937A001092500210929D
:101DB000470210924D028091D70081608093D70036
:101DC00080EA8093D80089B5806189BD89B5826039
:101DD00089BD09B400FEFDCF61E070E080E090E0D5
:101DE0000E9416048091D8008F7C80618093D80077
:101DF0008091E000807F8093E0008091E1008E7E02
:101E00008093E1008DE08093E200559A209A5D98DE
:101E10002898EEEFFFE7859194918B3F9C4D19F444
:101E200081E08093460261E08DE00E94DA0361E088
:101E300082E10E94DA0362E087E00E94DA0361E057
:101E40008DE00E94AA0361E082E10E94AA0388EE6D
:101E500094E0909309018093080180916A008F7C3F
:101E6000806280936A00EE9A8FEF9FEF9093A902B1
:101E70008093A8020FED10E0FAE5EF2EF2E0FF2EBE
:101E8000ABE3CA2EA2E0DA2EB09019016AE070E04E
:101E900080E090E00E941604B11017C0F801849110
:101EA000F701A490F601B490BB2079F081110E9453
:101EB0006D038B2D90E0880F991F8A5D9D4FFC016B
:101EC000A591B4918C91A822F9F686E891E00E9440
:101ED000990D86E691E00E945A0D1092130310921C
:101EE0001203109211031092100310920F0310921C
:101EF0000E038DE991E09093150380931403809174
:101F0000040398EF980F943048F022EF280F243004
:101F100028F026EE280F233008F060C02DEB30E0CB
:101F200030930F0320930E032BE931E0309311031C
:101F3000209310032CE231E030931303209312031B
:101F4000943058F092EF980F943038F08A518330E3
:101F500008F446C3A0E0B0E045C3A8E6B0E0E8E678
:101F6000F0E0808181608C938091040398EF980F5A
:101F7000943058F022EF280F243038F026EE280F46
:101F8000233018F020E030E002C02BE630E0309340
:101F90000C0320930B03943010F49CEF09C08E3097
:101FA00071F08F3071F0803171F0813171F09AEE03
:101FB000980F81E001C0880F9A95EAF707C088E082
:101FC00005C082E003C084E001C081E080930D037E
:101FD00080911403909115030197F1F780911203FA
:101FE00090911303892B21F180912C0290912D0265
:101FF000F2E0883F9F07E1F0009711F00E94560839
:10200000809116038E7F8093160310922B021092FC
:102010002A0288EF92E090932D0280932C02E091A7
:102020000B03F0910C03908180910D03892B808329
:1020300080E691E00E94A40C8DE591E00E94A40C42
:1020400083E091E00E94990D01E023E042E06BE61D
:10205000809159030E948B0700E022E044E06BE18D
:10206000809159030E948B0722E044E06CE180914B
:1020700059030E948B0720E046E06BE680915903EC
:102080000E94500768EE73E080E090E00E94160422
:1020900087EF90E00E945A0D08EE13E09E012F5F3B
:1020A0003F4F41E065E7809159030E944206882333
:1020B00029F089818F7790E080935A0360915A03C9
:1020C00070E080E090E040E10E94190D8DE591E024
:1020D0000E94A40C08EE13E09E012F5F3F4F41E0E9
:1020E00065E7809159030E944206882329F089817F
:1020F0008F7790E080935A0380915A03813729F0BB
:102100008CE491E00E94990D9BCF8CE291E00E94BB
:10211000990D83E08093680320E045E06CE68091B0
:1021200059030E94500720E044E06CE68091590377
:102130000E94500720E043E06CE6809159030E9422
:1021400050078091680381FF15C020E042E06CE6F3
:10215000809159030E94500720E041E06CE6809195
:1021600059030E94500720E040E06CE6809159033B
:102170000E9450078BE191E00E945A0D6091680324
:10218000617070E080E090E04AE00E94190D60917B
:102190006803627070E080E090E04AE00E94190DF0
:1021A0008DE591E00E94A40CF8948091710081600B
:1021B0008093710080919000809191008360809362
:1021C000910078948091690390916A03892B09F0BA
:1021D00000C280913E0281110DC00E94DC04609318
:1021E0003A0270933B0280933C0290933D0281E05F
:1021F00080933E020E94DC0400913A0210913B025F
:1022000020913C0230913D02DC01CB01801B910BFF
:10221000A20BB30B4F97A105B10508F496C10E941C
:10222000DC0460933A0270933B0280933C029093EB
:102230003D0260E082E10E94AA0308EE13E02AE575
:1022400033E04EE06BE3809159030E9442066091B7
:102250005A0370E0762F662780915B03682B70939A
:1022600048036093470340905C03512C542C442452
:1022700080915D03482A50924A034092490360903E
:102280005E03712C762C662480915F03682A70921D
:102290004C0360924B03C0906203D12CDC2CCC2405
:1022A00080916303C82AD0924E03C0924D03E09000
:1022B0006403F12CFE2CEE2480916503E82AF09251
:1022C0005003E0924F030091660310E0102F0027A7
:1022D00080916703082B10935203009351033090B1
:1022E000680330FE2AC0072E000C880B990B0E9451
:1022F0003515609317037093180380931903909317
:102300001A03B201550C880B990B0E943515609386
:102310001B0370931C0380931D0390931E03B30152
:10232000770C880B990B0E94351560931F037093EF
:102330002003809321039093220331FE2AC0B6012B
:10234000DD0C880B990B0E94351560932303709365
:1023500024038093250390932603B701FF0C880B79
:10236000990B0E943515609327037093280380937F
:10237000290390932A03B801110F880B990B0E942F
:10238000351560932B0370932C0380932D0390934A
:102390002E03609117037091180380911903909197
:1023A0001A0340901B0350901C0360901D03709013
:1023B0001E03C0901F03D0902003E0902103F090F3
:1023C00022039B01AC010E94EA154B015C01A301B1
:1023D0009201C301B2010E94EA159B01AC01C50143
:1023E000B4010E9493142B013C01A7019601C7017F
:1023F000B6010E94EA159B01AC01C301B2010E9423
:1024000093140E945D166B017C019B01AC010E943C
:102410009D16882319F083E691E01AC02601370142
:10242000E89477F82FEF3FEF4FE75FE7C301B20182
:102430000E949D1681110FC02FEF3FEF4FE75FE71E
:10244000C301B2010E94FF1418162CF487E691E034
:102450000E94A40C72C02FEF3FEF4FE75FE4C7016B
:10246000B6010E94E51518161CF48BE691E0F0CF3A
:102470002FEF3FEF4FE75FECC701B6010E94FF145B
:1024800087FDF3CF20E030E0A901C701B6010E942B
:10249000FF1487FF07C08DE20E94A70DF7FAF094A2
:1024A000F7F8F0942AE037ED43EA5BE3C701B601A1
:1024B0000E9493142B013C010E9404156B017C01C6
:1024C0000E9433159B01AC01C301B2010E9492141A
:1024D0002B013C014AE0C701B6010E94190D8EE2B2
:1024E0000E94A70D20E030E040E251E4C301B201B8
:1024F0000E94EA152B013C010E9404156B01E12C9E
:10250000F12C4AE0C701B6010E94190DC701B601BE
:102510000E9433159B01AC01C301B2010E949214C9
:1025200020E030E040E251E40E94EA150E940415E8
:1025300080E090E04AE00E94190D8DE591E00E9454
:10254000A40C61E082E10E94AA0380913202811111
:102550000DC00E94DC0460932E0270932F028093C2
:1025600030029093310281E0809332020E94DC04B9
:1025700000912E0210912F022091300230913102F1
:10258000DC01CB01801B910BA20BB30B893E934066
:10259000A105B105C0F00E94DC0460932E02709387
:1025A0002F02809330029093310260E08DE00E9410
:1025B000AA0360910A0188EF92E00E94E70161E0BE
:1025C0008DE00E94AA0381E090E090936A038093DB
:1025D0006903E0E0F0E0309709F4F4CD0995F2CD1D
:1025E000A8E6B0E0833008F4BACCE0E0F0E0B9CC83
:1025F000CF92DF92EF92FF920F931F93CF93DF93CF
:102600001F92CDB7DEB7182F062FE42E862F880F26
:102610008E5F99830E94A80983E00E94A809F12E89
:10262000C12E9981D92E8C2D8F19801798F4F6011F
:10263000E7FE02C0849101C080810E94A809182F82
:1026400080E00E94A8098123FFEFCF1ADF0A8111E1
:10265000EACF01C081E00F90DF91CF911F910F91E0
:10266000FF90EF90DF90CF900895CF93DF9310927B
:102670009F0210929E0288EE93E0A0E0B0E080936B
:10268000A0029093A102A093A202B093A30225E21C
:1026900031E030939D0220939C022FEF3FEF309367
:1026A000A9022093A8021092EF021092EE028093EA
:1026B000F0029093F102A093F202B093F30225E3AB
:1026C00031E03093ED022093EC0210921703109248
:1026D00018031092190310921A0310921B03109200
:1026E0001C0310921D0310921E0310921F031092E0
:1026F00020031092210310922203109223031092C0
:10270000240310922503109226031092270310929F
:1027100028031092290310922A0310922B0310927F
:102720002C0310922D0310922E0310922F0310925F
:10273000300310923103109232031092330310923F
:10274000340310923503109236031092370310921F
:1027500038031092390310923A0310923B031092FF
:102760003C0310923D0310923E0310923F031092DF
:1027700040031092410310924203109243031092BF
:102780004403109245031092460322E1E7E4F3E08C
:10279000EF0119922A95E9F728E620935903109240
:1027A000680321E030E030936A03209369031092BC
:1027B000FB021092FA028093FC029093FD02A09318
:1027C000FE02B093FF0285E491E09093F9028093BA
:1027D000F80210920F0310920E0310921103109240
:1027E000100310921303109212031092150310920B
:1027F0001403609116036E7F6D7F609316036695D8
:10280000617081E0682786E10E94AA0361E086E1A9
:102810000E94DA03E9E6F2E0E491E0930803EAE4D7
:10282000F2E0E491F0E0EE0FFF1FE85EFD4F8591CE
:10283000949190930A038093090360E087E10E94DA
:10284000DA038091160381FD04C061E087E10E94F4
:10285000AA0387E180930403EAE6F2E0E491E093BF
:102860000503EBE4F2E0E491F0E0EE0FFF1FEA5D18
:10287000FD4F859194919093070380930603DF9118
:10288000CF91089597FB072E16F4009407D077FD9B
:1028900009D00E947E1407FC05D03EF490958195E6
:1028A0009F4F0895709561957F4F0895A1E21A2E6C
:1028B000AA1BBB1BFD010DC0AA1FBB1FEE1FFF1FE4
:1028C000A217B307E407F50720F0A21BB30BE40B34
:1028D000F50B661F771F881F991F1A9469F760957B
:1028E0007095809590959B01AC01BD01CF01089535
:1028F000EE0FFF1F0590F491E02D0994AA1BBB1B5E
:1029000051E107C0AA1FBB1FA617B70710F0A61BEF
:10291000B70B881F991F5A95A9F780959095BC0110
:10292000CD0108955058BB27AA270E94AA140C94E1
:10293000AB150E949D1538F00E94A41520F039F4C3
:102940009F3F19F426F40C949A150EF4E095E7FBDA
:102950000C949415E92F0E94BC1558F3BA1762071E
:1029600073078407950720F079F4A6F50C94DE151B
:102970000EF4E0950B2EBA2FA02D0B01B90190019A
:102980000C01CA01A0011124FF27591B99F0593FDE
:1029900050F4503E68F11A16F040A22F232F342F26
:1029A0004427585FF3CF469537952795A795F04074
:1029B0005395C9F77EF41F16BA0B620B730B840B89
:1029C000BAF09150A1F0FF0FBB1F661F771F881F41
:1029D000C2F70EC0BA0F621F731F841F48F4879599
:1029E00077956795B795F7959E3F08F0B0CF93958B
:1029F000880F08F09927EE0F9795879508950E9404
:102A0000701508F481E008950E94C41588F09F575E
:102A100098F0B92F9927B751B0F0E1F0660F771F02
:102A2000881F991F1AF0BA95C9F714C0B13091F0F8
:102A30000E94DE15B1E008950C94DE15672F782F03
:102A40008827B85F39F0B93FCCF3869577956795BD
:102A5000B395D9F73EF490958095709561957F4F29
:102A60008F4F9F4F0895E89409C097FB3EF49095CF
:102A70008095709561957F4F8F4F9F4F9923A9F057
:102A8000F92F96E9BB279395F695879577956795E6
:102A9000B795F111F8CFFAF4BB0F11F460FF1BC02A
:102AA0006F5F7F4F8F4F9F4F16C0882311F096E9BD
:102AB00011C0772321F09EE8872F762F05C066236B
:102AC00071F096E8862F70E060E02AF09A95660F24
:102AD000771F881FDAF7880F9695879597F90895DD
:102AE000990F0008550FAA0BE0E8FEEF161617061F
:102AF000E807F907C0F012161306E407F50798F087
:102B0000621B730B840B950B39F40A2661F0232B9F
:102B1000242B252B21F408950A2609F4A140A6951B
:102B20008FEF811D811D089597F99F6780E870E000
:102B300060E008959FEF80EC089500240A94161633
:102B4000170618060906089500240A94121613069B
:102B5000140605060895092E0394000C11F4882329
:102B600052F0BB0F40F4BF2B11F460FF04C06F5F45
:102B70007F4F8F4F9F4F089557FD9058440F551F1B
:102B800059F05F3F71F04795880F97FB991F61F0EF
:102B90009F3F79F087950895121613061406551F66
:102BA000F2CF4695F1DF08C0161617061806991FD2
:102BB000F1CF86957105610508940895E894BB27C7
:102BC00066277727CB0197F908950E94701508F4BE
:102BD0008FEF08950E94FD150C94AB150E949D1572
:102BE00038F00E94A41520F0952311F00C94941550
:102BF0000C949A1511240C94DF150E94BC1570F3E7
:102C0000959FC1F3950F50E0551F629FF001729F91
:102C1000BB27F00DB11D639FAA27F00DB11DAA1FA0
:102C2000649F6627B00DA11D661F829F2227B00DED
:102C3000A11D621F739FB00DA11D621F839FA00D78
:102C4000611D221F749F3327A00D611D231F849FC8
:102C5000600D211D822F762F6A2F11249F5750401F
:102C60009AF0F1F088234AF0EE0FFF1FBB1F661F9A
:102C7000771F881F91505040A9F79E3F510580F063
:102C80000C9494150C94DF155F3FE4F3983ED4F355
:102C9000869577956795B795F795E7959F5FC1F707
:102CA000FE2B880F911D9695879597F9089519F435
:102CB00016F40C949A150C94A2160E94C415B8F33D
:102CC0009923C9F3B6F39F57550B87FF0E94B0169F
:102CD0000024A0E640EA900180585695979528F484
:102CE000805C660F771F881F20F02617370748077C
:102CF00030F4621B730B840B202931294A2BA695D3
:102D000017940794202531254A2758F7660F771F17
:102D1000881F20F026173707480730F4620B730B23
:102D2000840B200D311D411DA09581F7B901842F21
:102D30009158880F9695879508950E947015880B75
:102D4000990B08959F3F31F0915020F48795779526
:102D50006795B795880F911D9695879597F9089572
:102D600091505040660F771F881FD2F7089581E079
:102D700090E0F8940C94BC1611E0CAE3D1E004C0D2
:102D8000FE010E9478142196CB33D107C9F7F8943D
:022D9000FFCF73
:102D9200C501C501C501C501C50178563412FFFF41
:102DA200FFFF00E100000000000000C18081000080
:102DB20000000000006501500486014D0329037BD9
:102DC2000100000000FA02CA02C601B602A702A66A
:102DD2000200000000E7010A0A3B025302CE01E6AC
:102DE2000162746E2074696D65206F6E000D0A00B9
:102DF2004F4B006E616E00696E66006F7666000072
:00000001FF
