:100000000C943B010C945A050C9433050C940C058C
:100010000C94E5040C9463010C9463010C94BE04ED
:100020000C9463010C941B070C94EE0B0C941F0DA5
:100030000C9463010C9463010C9463010C946301B0
:100040000C9463010C9463010C9463010C946301A0
:100050000C9463010C9463010C9463010C9474047C
:100060000C9463010C9463010C9463010C94630180
:100070000C9463010C9463010C9463010C94630170
:100080000C9463010C9463010C9463010C94630160
:100090000C94AB070C9463010C9463010C94630102
:1000A0000C9463010C9463010C946301C603C903AF
:1000B000B803BC03C003EA03EA03EA03CD03D10398
:1000C000D503DB03DF03EA03E5030000000024009F
:1000D00027002A002D0030000000000200090F0058
:1000E00000030401000C00000000000000000000FC
:1000F0000000000000000044657669636520494403
:100100003A200047593932353020696E6974696187
:100110006C697A696E672E2E2E2E0053656E736F92
:100120007220656E61626C65643A2000475939320D
:10013000353020636F6E6E656374696F6E20737502
:10014000636365737366756C6C792E004759393239
:10015000353020636F6E6E656374696F6E20666103
:10016000696C65642E00496E697469616C6C697AAA
:10017000696E672042542053657269616C20706F0C
:1001800072742E2E2E0053657269616C2072656147
:1001900064792E0000000000250028002B002E00AE
:1001A0003100000000002300260029002C002F0051
:1001B000040404040403040502020202040302020C
:1001C00002020606060606060404020202040404ED
:1001D0000802011040804010204080408008020446
:1001E0000180402010020110801020404020080BA8
:1001F00000020202010009040000010202000005E1
:10020000240010010524010101042402060524062E
:1002100000010705810310004009040100020A00E3
:1002200000000705020240000007058302400000AD
:100230000403090441726475696E6F204C4C4300DD
:1002400041726475696E6F204D6963726F001201AF
:100250000002000000404123378000010102030139
:1002600012010002EF020140412337800001010228
:10027000030161135C0F11241FBECFEFDAE0DEBF74
:10028000CDBF11E0A0E0B1E0ECE0FFE202C00590DC
:100290000D92A237B107D9F723E0A2E7B1E001C080
:1002A0001D92A535B207E1F711E0CAE3D1E004C021
:1002B0002197FE010E94C314C933D107C9F70E94D8
:1002C000660F0C9479170C940000FC0184859585C9
:1002D00097FD0BC09FB7F89482E08093E90080916E
:1002E000F2009FBF90E0019608959FB7F89482E0D6
:1002F0008093E9008091F2009FBF90E008953FB79E
:10030000F89480912A0290912B02A0912C02B09136
:100310002D0226B5A89B05C02F3F19F00196A11DFF
:10032000B11D3FBFBA2FA92F982F8827820F911D8B
:10033000A11DB11DBC01CD0142E0660F771F881FD2
:10034000991F4A95D1F708952FB7F8946091260226
:100350007091270280912802909129022FBF089561
:1003600008958091240290E020912302821B91093C
:10037000089520913002309131022817390771F425
:1003800090912E0280912F02981741F0E0912E0259
:10039000F0E0ED53FE4F808190E008958FEF9FEFE6
:1003A000089508951F93CF93DF93DC015C962D9100
:1003B0003C915D972115310539F481E090E0139669
:1003C0009C938E9312973DC05196ED91FC9152975C
:1003D00050969C915097892F80951FB75E964C91AF
:1003E0005E9741FB772770F941FD6095F894408155
:1003F000772311F0492B01C048234083E90121975D
:10040000F1F748E0508160FF02C0592B01C058232A
:100410005083E9012197F1F76695415099F77723C9
:1004200021F090818923808303C08081982B908361
:100430001FBF5C968D919C915D970197F1F721E02C
:1004400030E0C901DF91CF911F91089520913002D2
:10045000309131022817390771F480912F022091D1
:100460002E0290E0805C9F4F821B910960E470E057
:100470000E948D14089580E090E00895209130024C
:100480003091310228173907B9F490912E028091EA
:100490002F02981789F0E0912E02F0E0ED53FE4F05
:1004A000808120912E0230E02F5F3F4F2F73332742
:1004B00020932E0290E008958FEF9FEF089585ED31
:1004C0008093BC008091BC0084FDFCCF10925C0244
:1004D000089540919E01262F30E0240F311D2132D6
:1004E0003105DCF420915C022430C9F4FC0180E089
:1004F00090E0861758F430919E012191DC01A458B8
:10050000BE4FA30FB11D2C930196F3CF80919E0196
:10051000680F60939E0180E0089581E0089582E075
:1005200008950895E091230280912402E81730F4A1
:10053000F0E0ED5FFD4F808190E008958FEF9FEF39
:1005400008959091230280912402981750F4E92F86
:10055000F0E0ED5FFD4F208130E09F5F909323023C
:1005600002C02FEF3FEFC9010895CF92DF92EF92C3
:10057000FF920F931F93CF93DF937C01262F972F2A
:100580008A0180915D02882391F0C62FD72F6E01DA
:10059000C40ED51ECC15DD0571F06991D701ED9122
:1005A000FC910190F081E02DC7010995F3CF642FF4
:1005B000822F0E946902C801DF91CF911F910F9194
:1005C000FF90EF90DF90CF900895CF93DF931F922D
:1005D000CDB7DEB7698320915D022223D1F020914F
:1005E0008002203240F021E030E0FC01338322839E
:1005F00080E090E015C080915E02E82FF0E0E15AC3
:10060000FD4F998190838F5F80935E02809380027B
:1006100005C061E0CE0101960E94690281E090E090
:100620000F90DF91CF9108950F931F93CF93DF9396
:100630001F92CDB7DEB78C01FC018485958597FFAD
:100640000EC0CE0101960E94B00B019719F42981CA
:1006500030E002C02FEF3FEFF80135872487F80123
:10066000848595850F90DF91CF911F910F9108950B
:10067000CF93DF931F92CDB7DEB7FC0184859585BC
:1006800097FD05C02FEF3FEF358724870BC0CE01C4
:1006900001960E94B00B019719F4898190E002C085
:1006A0008FEF9FEF0F90DF91CF9108950E94741705
:1006B0000F931F930E94A4016093780170937901B6
:1006C00080937A0190937B010091740110917501E0
:1006D0002091760130917701DC01CB01801B910BD9
:1006E000A20BB30B86399105A105B10508F183E58D
:1006F00091E00E9486098FE591E00E948609809131
:10070000780190917901A0917A01B0917B01809359
:10071000740190937501A0937601B0937701809155
:10072000720190917301019690937301809372010D
:100730001F910F910895362F90E0FC01E852FF4F72
:100740004491FC01E153FE4F2491FC01E055FE4F22
:100750008491882309F451C04423E1F150E0FA0167
:100760003197EF30F105B0F5EA5AFF4F0C94C314FE
:10077000909180009F7707C0909180009F7D03C07B
:1007800090918000977F9093800024C094B59F77CC
:1007900002C094B59F7D94BD1DC0909190009F773D
:1007A00007C0909190009F7D03C090919000977F2B
:1007B000909390000FC09091C0009F7703C09091DC
:1007C000C0009F7D9093C00005C09091C200977FAC
:1007D0009093C200E82FF0E0EE0FFF1FEC56FE4FA3
:1007E000A591B4918FB7F894EC91311103C0209585
:1007F0002E2301C02E2B2C938FBF0895CF93DF9310
:1008000090E0FC01E153FE4F2491FC01E055FE4FC6
:100810008491882361F190E0880F991FFC01E653D1
:10082000FF4FC591D491FC01EC56FE4FA591B491B8
:10083000611109C09FB7F89488812095822388832D
:10084000EC912E230BC0623061F49FB7F89438818D
:10085000822F809583238883EC912E2B2C939FBF2E
:1008600006C08FB7F894E8812E2B28838FBFDF91C5
:10087000CF9108958F929F92AF92BF92CF92DF92C5
:10088000EF92FF926B017C010E947F014B015C01A2
:10089000C114D104E104F104F1F00E947F01DC01F4
:1008A000CB0188199909AA09BB09883E9340A10583
:1008B000B10570F321E0C21AD108E108F10888EE11
:1008C000880E83E0981EA11CB11CC114D104E10460
:1008D000F10419F7DDCFFF90EF90DF90CF90BF903C
:1008E000AF909F908F9008951F920F920FB60F9226
:1008F00011242F933F938F939F93AF93BF93809136
:10090000260290912702A0912802B09129023091ED
:10091000250223E0230F2D3720F40196A11DB11DE0
:1009200005C026E8230F0296A11DB11D20932502C4
:100930008093260290932702A0932802B093290265
:1009400080912A0290912B02A0912C02B0912D024D
:100950000196A11DB11D80932A0290932B02A093B2
:100960002C02B0932D02BF91AF919F918F913F9137
:100970002F910F900FBE0F901F9018951F920F92FE
:100980000FB60F9211242F933F934F935F936F9362
:100990007F938F939F93AF93BF93EF93FF93E091D8
:1009A0000801F09109010995FF91EF91BF91AF9175
:1009B0009F918F917F916F915F914F913F912F9177
:1009C0000F900FBE0F901F9018951F920F920FB6A9
:1009D0000F9211242F933F934F935F936F937F93C5
:1009E0008F939F93AF93BF93EF93FF93E091060193
:1009F000F09107010995FF91EF91BF91AF919F9100
:100A00008F917F916F915F914F913F912F910F90B7
:100A10000FBE0F901F9018951F920F920FB60F9256
:100A200011242F933F934F935F936F937F938F93F3
:100A30009F93AF93BF93EF93FF93E0910401F091E5
:100A400005010995FF91EF91BF91AF919F918F9112
:100A50007F916F915F914F913F912F910F900FBEBA
:100A60000F901F9018951F920F920FB60F9211249E
:100A70002F933F934F935F936F937F938F939F93A6
:100A8000AF93BF93EF93FF93E0910201F0910301C5
:100A90000995FF91EF91BF91AF919F918F917F91B8
:100AA0006F915F914F913F912F910F900FBE0F90DB
:100AB0001F9018951F920F920FB60F9211242F932B
:100AC0003F934F935F936F937F938F939F93AF93D6
:100AD000BF93EF93FF93E0910001F091010109951D
:100AE000FF91EF91BF91AF919F918F917F916F9106
:100AF0005F914F913F912F910F900FBE0F901F90DC
:100B000018952F923F924F925F926F927F928F92A1
:100B10009F92AF92BF92CF92DF92EF92FF920F938C
:100B20001F93CF93DF93CDB7DEB728970FB6F89416
:100B3000DEBF0FBECDBFD82EC62E48871901780163
:100B40000E94A4012B013C018D2C880C912C10E0FB
:100B500001E04885A42EB12C970140E050E02B83A2
:100B60003C834D835E834885941608F0A0C00093B3
:100B70005D02D0927F0210925E02109280026C2D74
:100B800081ED92E00E94E5020E94060B00935D0257
:100B9000D0927F0210925E021092800280915C02DD
:100BA0008111FCCF9501291931092132310514F049
:100BB00020E230E02F83213210F030E23F830093B7
:100BC0005C0200935B024FEF40935A02109259026D
:100BD0008F818150809358020093370280913702B1
:100BE00088298093370280913602813071F4109207
:100BF0003602809137028093BB008091BC0083FD58
:100C0000F8CF55EC5093BC0003C085EE8093BC0038
:100C100080915C028130E1F3809159022F8182172B
:100C200018F4309159023F83A8E3B2E0E3E0F2E028
:100C30008E2F43E052E0841B5F81851718F48D915D
:100C40008193F6CF109223025093240280912302C5
:100C50002F81281721F1E114F10481F49101210F72
:100C6000311D17FD3A953A83298381ED92E00E9468
:100C7000A102A981BA818C931F5FE8CF0E94A401D1
:100C8000DC01CB0184199509A609B7092B813C81A8
:100C90004D815E8182179307A407B507F8F20E9481
:100CA000060B8885813208F080E2980E5CCFE11453
:100CB000F104D9F00E94A401AB01BC01441955090B
:100CC00066097709C701A0E0B0E0481759076A072D
:100CD0007B0758F05885852F90E0212F012E000CBE
:100CE000330B281739070CF41FEF812F28960FB606
:100CF000F894DEBF0FBECDBFDF91CF911F910F9152
:100D0000FF90EF90DF90CF90BF90AF909F908F902B
:100D10007F906F905F904F903F902F900895CF926B
:100D2000DF92EF92FF920F931F93CF93DF9300D048
:100D3000CDB7DEB7F82EE62ED42EC22E08EE13E085
:100D40009E012E5F3F4F41E00E9481053A81E1E024
:100D5000F0E0AF0101C0440FDA94EAF7CC2019F0BB
:100D6000932F942B03C0942F909593239A83998368
:100D7000AE014F5F5F4F6E2D8F2D0E94840B0F9041
:100D80000F90DF91CF911F910F91FF90EF90DF9027
:100D9000CF900895BF92CF92DF92EF92FF920F9380
:100DA0001F93CF93DF9300D0CDB7DEB7F82EE62E9A
:100DB000C42EB22ED02E08EE13E09E012E5F3F4FC0
:100DC00041E00E948105882349F14C2D50E04B19E8
:100DD00051094F5F5F4F21E030E002C0220F331F07
:100DE000BA94E2F721503109042E01C0220F0A946F
:100DF000EAF78D2D01C0880F4A95EAF7322F30951A
:100E00009A8193232823292B2A832983AE014F5FBC
:100E10005F4F6E2D8F2D0E94840B01C080E00F90DC
:100E20000F90DF91CF911F910F91FF90EF90DF9086
:100E3000CF90BF9008951F920F920FB60F9211247A
:100E40002F933F934F935F936F937F938F939F93D2
:100E5000AF93BF93EF93FF93E0913002F091310293
:100E6000309709F451C0968DA685B785858591FF89
:100E700004C09C91892329F447C09C91892309F0DF
:100E800043C0A389B4899C918589809589238C93DB
:100E9000868997890197F1F7608D718DA685B78551
:100EA000558538E020E0CB010197F1F7822F90E0E3
:100EB00095958795282F4C91452309F0206831504E
:100EC00091F7868D81FD209580912F0290E001960B
:100ED0008F73992730912E02381749F0A0912F0275
:100EE000B0E0AD53BE4F2C9380932F0203C0868D8C
:100EF0008160868F828D938D0197F1F7A389B489E4
:100F00009C918589892B8C93FF91EF91BF91AF9133
:100F10009F918F917F916F915F914F913F912F9111
:100F20000F900FBE0F901F901895E0913002F09136
:100F30003102E817F90769F4A389B4899C9185897E
:100F4000809589238C93109231021092300281E0B7
:100F5000089580E008951F920F920FB60F9211240A
:100F60002F933F934F935F936F937F938F939F93B1
:100F7000AF93BF93EF93FF938091B900887F803642
:100F800009F49CC068F5883209F45BC090F48031A4
:100F900009F454C038F4882309F4F6C0883009F401
:100FA0004DC0F6C0883109F44CC0803209F45DC0F0
:100FB000EFC0803409F468C048F4803309F455C0A8
:100FC000883309F0E5C080935A02D8C0803509F40F
:100FD0004FC0883509F45DC0883409F0D9C0D6C047
:100FE000883909F4C7C0A8F4883709F467C038F411
:100FF000883609F463C0803709F460C0C9C08838F6
:1010000009F4B8C0803909F45FC0803809F0C0C065
:101010005BC0803B09F486C038F4803A09F466C0AE
:10102000883A09F47FC0B4C0803C09F4A7C0883C6A
:1010300009F4A4C0883B09F48AC0AAC08091370291
:1010400010C09091590280915802981770F5E09164
:10105000590281E08E0F80935902F0E0E85CFD4F69
:1010600080818093BB0085EC86C080935A028EC03D
:10107000E091590281E08E0F809359028091BB006C
:10108000F0E0E85CFD4F8083909159028091580216
:101090006EC0E091590281E08E0F809359028091D9
:1010A000BB00F0E0E85CFD4F808380915B02811122
:1010B0006DC081E08093360284EA61C083E0809352
:1010C0005C021092C201CFCF8091C201803208F041
:1010D00051C0E091C20181E08E0F8093C2018091E6
:1010E000BB00F0E0EE55FE4F8083BDCF85EC8093D2
:1010F000BC0010925C028091C201803230F4E09119
:10110000C201F0E0EE55FE4F10826091C20170E026
:10111000E091A001F091A10182EA91E0099510927D
:10112000C20136C084E080935C0210929F0110924D
:101130009E01E0919C01F0919D01099580919E0195
:10114000811105C081E080939E0110927C01E091A5
:101150009F0181E08E0F80939F01F0E0E458FE4FE5
:1011600080818093BB0090919F0180919E01981790
:1011700008F479CF85E88093BC000AC085EC8093A1
:10118000BC0010925C0204C010925A020E945F02DE
:10119000FF91EF91BF91AF919F918F917F916F914F
:1011A0005F914F913F912F910F900FBE0F901F9025
:1011B0001895CF93DF931F92CDB7DEB76983DC011B
:1011C000ED91FC910280F381E02D41E050E0BE0101
:1011D0006F5F7F4F09950F90DF91CF91089583E066
:1011E0008093E9008091F200882319F08AE38093CC
:1011F000E80008958F929F92AF92BF92CF92DF92B4
:10120000EF92FF920F931F93CF93DF935C016B01DB
:101210008A0180911501882309F45EC0809135020E
:10122000882309F459C08091320280FF05C0809163
:10123000E00082608093E000E8018AEFF82E93E0FE
:10124000E92E2FE3822E3AE3932E209709F43DC036
:101250008FB7F894E092E9009091E80095FF06C0FE
:101260009091F200282D291B922F01C090E08FBF92
:1012700091110AC0FA94FF2079F161E070E080E0FA
:1012800090E00E943A04E1CF292F30E0C217D30743
:101290000CF49C2F8FB7F894E092E9002091E800BD
:1012A00025FF11C0292F30E0C21BD30BF60191504E
:1012B00020F041914093F100FACFC20ED31E9091DD
:1012C000E80095FF13C08FBFC0CF5D9A84E680937E
:1012D00033021016110644F081E090E0F50193838B
:1012E000828380E090E005C0C80103C09092E800CE
:1012F000EACFDF91CF911F910F91FF90EF90DF9098
:10130000CF90BF90AF909F908F900895BC010097B1
:1013100091F0FC0101900020E9F73197AF01481BE3
:10132000590BE0918102F09182020280F381E02D5D
:1013300081E892E0099480E090E008954F925F92F6
:101340006F927F928F929F92AF92BF92CF92DF92D5
:10135000EF92FF92ECEFF2E06081718182819381E4
:1013600084809580A680B780C084D184E284F38491
:101370009B01AC010E94A7162B013C01A501940121
:10138000C501B4010E94A7169B01AC01C301B201C3
:101390000E94DE144B015C01A7019601C701B60152
:1013A0000E94A7169B01AC01C501B4010E94DE1486
:1013B000FF90EF90DF90CF90BF90AF909F908F9075
:1013C0007F906F905F904F900C941A17E09181027C
:1013D000F09182020190F081E02D682F81E892E087
:1013E00009948F929F92AF92BF920F931F93CF93C6
:1013F000DF93CDB7DEB7A1970FB6F894DEBF0FBE6F
:10140000CDBF19A2423008F44AE08E010F5D1F4F94
:10141000842E912CA12CB12CA50194010E94A11421
:10142000E62FB901CA0101501109EA3014F4E05D58
:1014300001C0E95CD801EC93232B242B252B61F709
:10144000C8010E948609A1960FB6F894DEBF0FBEB0
:10145000CDBFDF91CF911F910F91BF90AF909F9023
:101460008F9008954F925F926F927F928F929F928A
:10147000AF92BF92CF92DF92EF92FF926B017C010D
:10148000B42E9B01AC010E945A17882319F085E6FF
:1014900091E027C026013701E89477F82FEF3FEF5E
:1014A0004FE75FE7C301B2010E945A1781110DC0D7
:1014B0002FEF3FEF4FE75FE7C301B2010E944A15EC
:1014C00018161CF489E691E00CC02FEF3FEF4FE7B0
:1014D0005FE4C701B6010E94A216181684F48DE6D7
:1014E00091E0FF90EF90DF90CF90BF90AF909F90F2
:1014F0008F907F906F905F904F900C9486092FEFA4
:101500003FEF4FE75FECC701B6010E944A1587FD28
:10151000E6CF20E030E0A901C701B6010E944A15DC
:1015200087FF09C08DE20E94E6094C01F7FAF094AA
:10153000F7F8F09402C0812C912CA12C60E070E0AF
:1015400080E09FE3AB1441F020E030E040E251E462
:101550000E944F15A394F6CF9B01AC01C701B601C1
:101560000E94DE142B013C010E94C1156B017C011D
:101570000E94F0159B01AC01C301B2010E94DD1471
:101580002B013C014AE0C701B6010E94F1097C0130
:10159000E80CF91CBB2029F08EE20E94E609E80E57
:1015A000F91EDB2CDD2021F120E030E040E251E4A7
:1015B000C301B2010E94A7162B013C010E94C11574
:1015C0004B01A12CB12C4AE0C501B4010E94F109E4
:1015D000E80EF91EC501B4010E94F0159B01AC0193
:1015E000C301B2010E94DD142B013C01DA94DACF71
:1015F000C701FF90EF90DF90CF90BF90AF909F908A
:101600008F907F906F905F904F900895209180020F
:1016100090917F02213208F04AC080915C028111D2
:10162000FCCF32E030935C0231E030935B023FEF5D
:1016300030935A021092590220935802AFE5B2E05B
:1016400048E352E0FA013E2F341B321718F43D9163
:101650003193F9CF1092370220913702990F922BD4
:101660009093370290913602913061F410923602D5
:10167000909137029093BB009091BC0093FDF8CFFE
:1016800095EC01C095EE9093BC0090915C02923075
:10169000E1F390915A029F3F79F080915A02803293
:1016A00041F080915A02803331F084E005C081E03E
:1016B00003C082E001C083E010925E0210928002BB
:1016C00010925D0208950F931F93CF93DF938C01C7
:1016D000C0E0D0E0F801EC0FFD1F6491662371F0CB
:1016E000E0918102F09182020190F081E02D81E889
:1016F00092E00995892B11F02196ECCFCE01DF9174
:10170000CF911F910F910895CF93DF93EA0191E05C
:1017100090935D0280937F0210925E02109280028D
:1017200081ED92E00E94E502688181ED92E00E94E5
:10173000E5020E94060B91E0811190E0892FDF9174
:10174000CF910895CF93DF930E94630BEC018FE557
:1017500091E00E9486098C0F9D1FDF91CF91089523
:10176000FC0180913502811103C08FEF9FEF089536
:101770009FB7F89482E08093E9002091F20030E076
:101780001216130614F421E030E02115310559F04A
:10179000289A84E6809334028091F10080838091BE
:1017A000F200882319F09FBFC90108958BE680934A
:1017B000E800F9CF8091460381110DC082E080934B
:1017C000420384E080934303109245031092440344
:1017D00081E08093460382E493E008951F920F9284
:1017E0000FB60F9211248F939F938091E1009091F7
:1017F000E100937F9093E10083FF0FC01092E90016
:1018000091E09093EB001092EC0092E39093ED0046
:101810001092350298E09093F00082FF20C093E090
:101820009093E9009091F200992319F09AE3909334
:10183000E80090913302992339F09091330291504E
:1018400090933302992389F190913402992339F0CE
:1018500090913402915090933402992341F184FF86
:1018600010C08091E2008E7E81608093E2008091C2
:10187000E1008F7E8093E100809132028E7E806154
:1018800011C080FF16C08091E2008E7E806180933F
:10189000E2008091E1008E7E8093E100809132022F
:1018A0008E7E81608093320204C05D98CDCF2898EF
:1018B000D6CF9F918F910F900FBE0F901F901895CC
:1018C000409153035091540320915103309152039E
:1018D00042175307B4F49091E8009570E1F39091AA
:1018E000E80092FD19C08093F1008091530390911C
:1018F000540301968F739927892B19F48EEF8093E7
:10190000E8008091530390915403019690935403FF
:101910008093530381E0089580E00895DF92EF9271
:10192000FF920F931F93CF93DF93D82E8A017B01F1
:10193000E40EF51EEB01CE15DF0571F0D7FE03C0F6
:10194000FE01849101C088810E94600C2196811162
:10195000F2CF8FEF9FEF01C0C801DF91CF911F91B0
:101960000F91FF90EF90DF900895615030F020913B
:10197000F100FC0120830196F8CF289A84E6809339
:1019800034020895CF92DF92EF92FF920F931F934C
:10199000CF93DF936C017A018B01C0E0D0E0CE15CC
:1019A000DF0589F0D8016D918D01D601ED91FC9193
:1019B0000190F081E02DC6010995892B11F47E017B
:1019C00002C02196ECCFC701DF91CF911F910F91FB
:1019D000FF90EF90DF90CF9008950F931F93CF93D8
:1019E000DF931F92CDB7DEB782E0898342E450E0F7
:1019F0006EEE71E080E80E948E0C0E94DA0BDC0132
:101A000012960D911C9113970115110569F0D801DB
:101A1000ED91FC910280F381E02DBE016F5F7F4F5D
:101A2000C801099597FF07C089810F90DF91CF9179
:101A30001F910F910895F80100851185E5CF1F9240
:101A40000F920FB60F921124CF92DF92EF92FF9276
:101A50000F931F932F933F934F935F936F937F93B6
:101A60008F939F93AF93BF93EF93FF93CF93DF93A6
:101A7000CDB7DEB76C97DEBFCDBF1092E900809185
:101A8000E80083FFFAC168E0CE0145960E94B50CDC
:101A900082EF8093E8008D8987FF05C09091E80070
:101AA00090FFFCCF03C09EEF9093E800982F9076B4
:101AB00009F0C6C09E892F89188D91110CC08038FD
:101AC00029F480914F038093F10002C01092F1003D
:101AD0001092F10047C1422F50E0512B913051F448
:101AE000811140C14130510509F03CC180914F0343
:101AF0008D7F0BC0933061F4811134C141305105A9
:101B000009F030C180914F03826080934F032AC156
:101B1000953041F48091E80080FFFCCF206820934D
:101B2000E30020C1963009F05FC0EB8CFC8C109272
:101B3000E9001092540310925303123091F5109261
:101B40005203109251030E94ED0C99E0BE016F5FA9
:101B50007F4FDB01E92F1D92EA95E9F799831A83FC
:101B600091E09E8390EA98879AEF9987209153039A
:101B700030915403275F3F4F3C832B838D8310921A
:101B8000E9001092540310925303F0925203E09232
:101B9000510349E050E080E00E948E0C0E94ED0C61
:101BA000E1C0F0925203E09251030E94DA0BDC0193
:101BB0001296ED90FC901397E114F10409F4C0C063
:101BC000D701ED91FC910480F581E02DBE016B5EA3
:101BD0007F4FC7010995009719F00CF0C3C0C6C02C
:101BE000F701E084F184E8CF973009F4BFC0983062
:101BF00021F481E08093F100B5C0993009F0B2C0C2
:101C0000837009F0B3C0EDE4F1E081E021E036E358
:101C10009081992361F08093E9002093EB009191EA
:101C20009093EC003093ED008F5F873089F78EE75B
:101C30008093EA001092EA008F898093350292C067
:101C40008B8D9C8D1092E9001092540310925303D7
:101C50009093520380935103898D811156C08E89D0
:101C60009D89913A59F4813209F080C047E050E0F3
:101C70006EE071E080E00E948E0C74C0913209F039
:101C800075C0833289F4888D90E0982F88272F893A
:101C9000822BA0E0B0E080930A0190930B01A09307
:101CA0000C01B0930D015EC0803269F48091E800B0
:101CB00082FFFCCF67E08EE091E00E94B50C8BEFD5
:101CC0008093E80006C0823209F04CC08F8980936F
:101CD000150180914E03882319F0EEEFFAE002C05F
:101CE000E0E0F8E080910E0190910F01A0911001C9
:101CF000B0911101803B9440A105B10509F088C065
:101D00008091150180FFA0C083C00E94DA0BDC0126
:101D100012960D911C9113970115110539F1D801F7
:101D2000ED91FC910190F081E02DBE016B5E7F4F43
:101D3000C8010995811116C0F80100851185ECCF05
:101D40001130C1F0133091F48F89882309F455C004
:101D50008230E9F440E86DE080E492E00E945014A3
:101D6000882321F08EEF8093E80087C081E2809382
:101D7000EB0083C08B8D9C8D089711F4109350035A
:101D800080915003811136C06EE472E038C081301A
:101D900029F440E86BE084E392E0E0CF833031F750
:101DA0000E94DA0BDC011296ED90FC9013978E01E5
:101DB0000F5F1F4F6801E114F10479F0D701ED9135
:101DC000FC910680F781E02DB801C7010995080F45
:101DD000111DF701E084F184EECFD8011C92F601C9
:101DE00001900020E9F73197BF016C197D0940E0AF
:101DF000C601B4CF60E672E002C060E372E0611534
:101E0000710509F4B3CFFB01449150E080E833CF72
:101E10000FB6F894A8958091600088618093600067
:101E2000109260000FBEA895EE3F2AE0F20739F04D
:101E30008091FE0A9091FF0A9183808393CF109244
:101E4000FF0A1092FE0A8ECFEE3F8AE0F80731F0CB
:101E5000808191819093FF0A8093FE0A87E797E73C
:101E6000918380839BE088E10FB6F894A8958093D6
:101E700060000FBE9093600075CF6C960FB6F8941B
:101E8000DEBF0FBECDBFDF91CF91FF91EF91BF912C
:101E9000AF919F918F917F916F915F914F913F9102
:101EA0002F911F910F91FF90EF90DF90CF900F90A7
:101EB0000FBE0F901F90189580E491E09093DE0282
:101EC0008093DD028DED92E00C949507CF93DF9324
:101ED0001F92CDB7DEB7789484B5826084BD84B597
:101EE000816084BD85B5826085BD85B5816085BD15
:101EF00080916E00816080936E00109281008091CD
:101F00008100826080938100809181008160809354
:101F10008100809180008160809380008091910099
:101F20008260809391008091910081608093910004
:101F3000809190008160809390008091C1008460C6
:101F40008093C1008091C10082608093C100809124
:101F5000C10081608093C1008091C3008160809343
:101F6000C3008091C00082608093C0008091C20055
:101F700081608093C20080917A00846080937A00AF
:101F800080917A00826080937A0080917A008160EB
:101F900080937A0080917A00806880937A00109212
:101FA000350210924F03109232028091D700816067
:101FB0008093D70080EA8093D80089B5806189BD7D
:101FC00089B5826089BD09B400FEFDCF61E070E093
:101FD00080E090E00E943A048091D8008F7C80617C
:101FE0008093D8008091E000807F8093E000809112
:101FF000E1008E7E8093E1008DE08093E200559AAF
:10200000209A5D982898EEEFFFE7859194918B3F99
:102010009C4D19F481E080934E0361E08DE00E94B5
:10202000FE0361E082E10E94FE0362E087E00E941D
:10203000FE0361E08DE00E949B0361E082E10E946B
:102040009B0388E593E090930901809308018091B8
:102050006A008F7C806280936A00EE9A8FEF9FEF18
:1020600090938E0280938D0286E891E00E94A20BED
:1020700086E691E00E94630B1092F8021092F7023C
:102080001092F6021092F5021092F4021092F302EE
:102090008DE991E09093FA028093F9028091E90230
:1020A00098EF980F943048F022EF280F243028F052
:1020B00026EE280F233008F060C02DEB30E030937F
:1020C000F4022093F3022BE931E03093F6022093DF
:1020D000F5022CE231E03093F8022093F7029430BD
:1020E00058F092EF980F943038F08A51833008F40A
:1020F000E0C2A0E0B0E0DFC2A8E6B0E0E8E6F0E0D1
:10210000808181608C938091E90298EF980F9430E0
:1021100058F022EF280F243038F026EE280F233015
:1021200018F020E030E002C02BE630E03093F102FE
:102130002093F002943010F49CEF09C08E3071F0BF
:102140008F3071F0803171F0813171F09AEE980F1B
:1021500081E001C0880F9A95EAF707C088E005C0C2
:1021600082E003C084E001C081E08093F2028091AC
:10217000F9029091FA020197F1F78091F70290919C
:10218000F802892B21F1809130029091310222E0F6
:102190008D3D9207E1F0009711F00E949507809124
:1021A000FB028E7F8093FB0210922F0210922E0270
:1021B0008DED92E09093310280933002E091F00235
:1021C000F091F10290818091F202892B808382E666
:1021D00091E00E9486098FE591E00E94860983E0E4
:1021E00091E00E94A20B01E023E042E06BE68091C7
:1021F00032030E94CA0600E022E044E06BE18091D5
:1022000032030E94CA0622E044E06CE1809132036E
:102210000E94CA0620E046E06BE6809132030E94ED
:102220008F0668EE73E080E090E00E943A0487EF4A
:1022300090E00E94630B08EE13E09E012F5F3F4F7A
:1022400041E065E7809132030E948105882329F0EF
:1022500089818F7790E0809333036091330370E03E
:1022600080E090E040E10E94F1098FE591E00E945A
:10227000860908EE13E09E012F5F3F4F41E065E7BE
:10228000809132030E948105882329F089818F770C
:1022900090E08093330380913303813729F08CE4FD
:1022A00091E00E94A20B9BCF8CE291E00E94A20BD6
:1022B00083E08093410320E045E06CE680913203A7
:1022C0000E948F0620E044E06CE6809132030E9479
:1022D0008F0620E043E06CE6809132030E948F0677
:1022E0008091410381FF15C020E042E06CE68091BF
:1022F00032030E948F0620E041E06CE680913203B9
:102300000E948F0620E040E06CE6809132030E943C
:102310008F068BE191E00E94630B60914103617035
:1023200070E080E090E04AE00E94F1096091410392
:10233000627070E080E090E04AE00E94F1098FE571
:1023400091E00E94860960E0262E60E0362E08EEBD
:1023500013E023E333E04EE06BE3809132030E940D
:1023600081056091330370E0762F662780913403F6
:10237000682B709321036093200360903503712CC8
:10238000762C662480913603682A7092230360922B
:102390002203A0903703B12CBA2CAA2480913803D1
:1023A000A82AB0922503A0922403C0903B03D12C0D
:1023B000DC2CCC2480913C03C82AD0922703C09205
:1023C0002603E0903D03F12CFE2CEE2480913E0389
:1023D000E82AF0922903E092280300913F0310E0DD
:1023E000102F002780914003082B10932B0300939C
:1023F0002A035090410350FE2AC0072E000C880B80
:10240000990B0E94F2156093FC027093FD02809379
:10241000FE029093FF02B301770C880B990B0E9488
:10242000F21560930003709301038093020390936D
:102430000303B501BB0C880B990B0E94F215609346
:10244000040370930503809306039093070320E031
:1024500030E040E858E36091FC027091FD02809109
:10246000FE029091FF020E94A7164B015C0160934F
:10247000FC027093FD028093FE029093FF0220E025
:1024800030E040E858E360910003709101038091CF
:102490000203909103030E94A716609300037093B8
:1024A0000103809302039093030320E030E040E8AF
:1024B00058E36091040370910503809106039091A5
:1024C00007030E94A716609304037093050380938B
:1024D00006039093070351FE2AC0B601DD0C880B5A
:1024E000990B0E94F215609308037093090380937F
:1024F0000A0390930B03B701FF0C880B990B0E9402
:10250000F21560930C0370930D0380930E03909368
:102510000F03B801110F880B990B0E94F2156093FD
:10252000100370931103809312039093130320E020
:1025300030E040E858E3609108037091090380910E
:102540000A0390910B030E94A716609308037093EF
:10255000090380930A0390930B0320E030E040E8E6
:1025600058E360910C0370910D0380910E039091DC
:102570000F030E94A71660930C0370930D038093C2
:102580000E0390930F0320E030E040E858E36091A1
:1025900010037091110380911203909113030E9414
:1025A000A716609310037093110380931203909306
:1025B00013030E949E099B01AC01C501B4010E9456
:1025C0004F1542E00E94320A80E20E94E609C09064
:1025D0000003D0900103E0900203F09003030E94F7
:1025E0009E099B01AC01C701B6010E944F1542E054
:1025F0000E94320A80E20E94E609C0900403D09053
:102600000503E0900603F09007030E949E099B01DA
:10261000AC01C701B6010E944F1542E00E94320A88
:1026200080E20E94E609609108037091090380919D
:102630000A0390910B0342E00E94320A80E20E945A
:10264000E60960910C0370910D0380910E03909147
:102650000F0342E00E94320A80E20E94E609609184
:10266000100370911103809112039091130342E0C3
:102670000E94320A8FE591E00E94860961E082E1C2
:102680000E949B0362E370E080E090E00E943A04C5
:1026900060E082E10E949B0362E370E080E090E0F2
:1026A0000E943A042114310409F451CE0E94000022
:1026B0004ECEA8E6B0E0833008F420CDE0E0F0E0B4
:1026C0001FCDCF93DF93109284021092830288EE85
:1026D00093E0A0E0B0E08093850290938602A093FF
:1026E0008702B093880220E231E030938202209387
:1026F00081022FEF3FEF30938E0220938D021092D4
:10270000D4021092D3028093D5029093D602A09364
:10271000D702B093D80220E331E03093D202209365
:10272000D1021092FC021092FD021092FE02109251
:10273000FF02109200031092010310920203109204
:1027400003031092040310920503109206031092E3
:102750000703109208031092090310920A031092C3
:102760000B0310920C0310920D0310920E031092A3
:102770000F03109210031092110310921203109283
:102780001303109214031092150310921603109263
:102790001703109218031092190310921A03109243
:1027A0001B0310921C0310921D0310921E03109223
:1027B0001F0322E1E0E2F3E0EF0119922A95E9F725
:1027C00028E620933203109241031092E002109207
:1027D000DF028093E1029093E202A093E302B093C0
:1027E000E40280E491E09093DE028093DD02109297
:1027F000F4021092F3021092F6021092F502109277
:10280000F8021092F7021092FA021092F902609107
:10281000FB026E7F6D7F6093FB026695617081E0C5
:10282000682786E10E949B0361E086E10E94FE0327
:10283000E5EEF1E0E491E093ED02E6ECF1E0E49105
:10284000F0E0EE0FFF1FEC56FE4F859194919093B0
:10285000EF028093EE0260E087E10E94FE03809128
:10286000FB0281FD04C061E087E10E949B0387E1D8
:102870008093E902E6EEF1E0E491E093EA02E7EC0E
:10288000F1E0E491F0E0EE0FFF1FEE55FE4F859171
:1028900094919093EC028093EB02DF91CF91089595
:1028A000CF92DF92EF92FF920F931F93CF93DF931C
:1028B0001F92CDB7DEB7182F062FE42E862F880F74
:1028C0008E5F99830E94600C83E00E94600CF12E61
:1028D000C12E9981D92E8C2D8F19801798F4F6016D
:1028E000E7FE02C0849101C080810E94600C182F15
:1028F00080E00E94600C8123FFEFCF1ADF0A811174
:10290000EACF01C081E00F90DF91CF911F910F912D
:10291000FF90EF90DF90CF90089597FB072E16F46D
:10292000009407D077FD09D00E94C91407FC05D098
:102930003EF4909581959F4F0895709561957F4FD6
:102940000895A1E21A2EAA1BBB1BFD010DC0AA1FF0
:10295000BB1FEE1FFF1FA217B307E407F50720F008
:10296000A21BB30BE40BF50B661F771F881F991F83
:102970001A9469F760957095809590959B01AC01CC
:10298000BD01CF010895EE0FFF1F0590F491E02DDA
:102990000994AA1BBB1B51E107C0AA1FBB1FA617A6
:1029A000B70710F0A61BB70B881F991F5A95A9F7F8
:1029B00080959095BC01CD0108955058BB27AA275A
:1029C0000E94F5140C9468160E945A1638F00E9462
:1029D000611620F039F49F3F19F426F40C94571631
:1029E0000EF4E095E7FB0C945116E92F0E9479163E
:1029F00058F3BA17620773078407950720F079F434
:102A0000A6F50C949B160EF4E0950B2EBA2FA02D74
:102A10000B01B90190010C01CA01A0011124FF278B
:102A2000591B99F0593F50F4503E68F11A16F04086
:102A3000A22F232F342F4427585FF3CF4695379585
:102A40002795A795F0405395C9F77EF41F16BA0B4A
:102A5000620B730B840BBAF09150A1F0FF0FBB1FF8
:102A6000661F771F881FC2F70EC0BA0F621F731F41
:102A7000841F48F4879577956795B795F7959E3F9E
:102A800008F0B0CF9395880F08F09927EE0F97952F
:102A9000879508950E942D1608F481E008950E94FC
:102AA00063150C9468160E94611658F00E945A161D
:102AB00040F029F45F3F29F00C94511651110C9409
:102AC0009C160C9457160E94791668F39923B1F35B
:102AD000552391F3951B550BBB27AA276217730744
:102AE000840738F09F5F5F4F220F331F441FAA1FD8
:102AF000A9F335D00E2E3AF0E0E832D09150504094
:102B0000E695001CCAF72BD0FE2F29D0660F771F41
:102B1000881FBB1F261737074807AB07B0E809F027
:102B2000BB0B802DBF01FF2793585F4F3AF09E3FAC
:102B3000510578F00C9451160C949C165F3FE4F309
:102B4000983ED4F3869577956795B795F7959F5FEF
:102B5000C9F7880F911D9695879597F90895E1E03B
:102B6000660F771F881FBB1F621773078407BA079A
:102B700020F0621B730B840BBA0BEE1F88F7E095F5
:102B800008950E94811688F09F5798F0B92F9927D1
:102B9000B751B0F0E1F0660F771F881F991F1AF048
:102BA000BA95C9F714C0B13091F00E949B16B1E0FC
:102BB00008950C949B16672F782F8827B85F39F0FB
:102BC000B93FCCF3869577956795B395D9F73EF4E1
:102BD00090958095709561957F4F8F4F9F4F089589
:102BE000E89409C097FB3EF49095809570956195A7
:102BF0007F4F8F4F9F4F9923A9F0F92F96E9BB275D
:102C00009395F695879577956795B795F111F8CFD8
:102C1000FAF4BB0F11F460FF1BC06F5F7F4F8F4F43
:102C20009F4F16C0882311F096E911C0772321F039
:102C30009EE8872F762F05C0662371F096E8862FD1
:102C400070E060E02AF09A95660F771F881FDAF728
:102C5000880F9695879597F90895990F0008550F55
:102C6000AA0BE0E8FEEF16161706E807F907C0F012
:102C700012161306E407F50798F0621B730B840B1A
:102C8000950B39F40A2661F0232B242B252B21F4F4
:102C900008950A2609F4A140A6958FEF811D811D94
:102CA000089597F99F6780E870E060E008959FEFCE
:102CB00080EC089500240A941616170618060906D3
:102CC000089500240A9412161306140605060895A2
:102CD000092E0394000C11F4882352F0BB0F40F42A
:102CE000BF2B11F460FF04C06F5F7F4F8F4F9F4F6A
:102CF000089557FD9058440F551F59F05F3F71F0EC
:102D00004795880F97FB991F61F09F3F79F0879552
:102D10000895121613061406551FF2CF4695F1DFDB
:102D200008C0161617061806991FF1CF869571056B
:102D3000610508940895E894BB2766277727CB019F
:102D400097F908950E942D1608F48FEF08950E94B8
:102D5000BA160C9468160E945A1638F00E94611632
:102D600020F0952311F00C9451160C945716112451
:102D70000C949C160E94791670F3959FC1F3950FE1
:102D800050E0551F629FF001729FBB27F00DB11DEF
:102D9000639FAA27F00DB11DAA1F649F6627B00D7F
:102DA000A11D661F829F2227B00DA11D621F739F68
:102DB000B00DA11D621F839FA00D611D221F749F76
:102DC0003327A00D611D231F849F600D211D822FBD
:102DD000762F6A2F11249F5750409AF0F1F08823E4
:102DE0004AF0EE0FFF1FBB1F661F771F881F915011
:102DF0005040A9F79E3F510580F00C9451160C9459
:102E00009C165F3FE4F3983ED4F3869577956795DB
:102E1000B795F795E7959F5FC1F7FE2B880F911D3A
:102E20009695879597F9089519F416F40C9457160A
:102E30000C945F170E948116B8F39923C9F3B6F377
:102E40009F57550B87FF0E946D170024A0E640EAAC
:102E5000900180585695979528F4805C660F771FEF
:102E6000881F20F026173707480730F4621B730BC2
:102E7000840B202931294A2BA695179407942025E5
:102E800031254A2758F7660F771F881F20F026172D
:102E90003707480730F4620B730B840B200D311D8C
:102EA000411DA09581F7B901842F9158880F9695FF
:102EB000879508950E942D16880B990B08959F3FC2
:102EC00031F0915020F4879577956795B795880FE5
:102ED000911D9695879597F9089591505040660FEA
:102EE000771F881FD2F7089581E090E0F8940C9442
:102EF000791711E0CAE3D1E004C0FE010E94C314B7
:0C2F00002196CB33D107C9F7F894FFCF1E
:102F0C00B001B001B001B001B001FFFFFFFF00E163
:102F1C0000000000000000005503800000000000CD
:102F2C00D908FA08650138031403EF080000000003
:102F3C00E502B502B101A10292029102000000006B
:102F4C00D201C20C26023E02B901D10100C180811E
:102F5C0000000062746E2074696D65206F6E000D48
:102F6C000A004F4B006E616E00696E66006F7666EC
:022F7C00000053
:00000001FF
