:100000000C942F010C9485130C94AC130C94D31303
:100010000C94FA130C9476010C9476010C94211430
:100020000C9476010C94480D0C94831C0C94121BB8
:100030000C9476010C9476010C9476010C94760164
:100040000C9476010C9476010C9476010C94760154
:100050000C9476010C9476010C9476010C9448145F
:100060000C9476010C9476010C9476010C94760134
:100070000C9476010C9476010C9476010C94760124
:100080000C9476010C9476010C9476010C942C055A
:100090000C94360B0C9476010C9476010C9476013A
:1000A0000C9476010C9476010C9476016D15701504
:1000B0005F156315691591159115911574157815CE
:1000C0007C158215861591158C1553656E736F72AC
:1000D00020656E61626C65643A20004465766963F0
:1000E000652049443A200047593932353020696E3D
:1000F000697469616C697A696E672E2E2E2E0047CD
:10010000593932353020636F6E6E656374696F6E76
:10011000207375636365737366756C6C792E004923
:100120006E697469616C6C697A696E6720425420EB
:1001300053657269616C20706F72742E2E2E00539D
:10014000657269616C2072656164792E000000003F
:100150000200090F0000030401000C000000000071
:100160000000000000000000000000000408020180
:1001700010408040102040804080080204018040F0
:1001800020100201108010204040200404040404C8
:10019000030405020202020403020202020606062A
:1001A0000606060404020202040400000000230004
:1001B000260029002C002F00000000002500280048
:1001C0002B002E00310000000000240027002A0030
:1001D0002D003000080B000202020100090400009B
:1001E00001020200000524001001052401010104A0
:1001F00024020605240600010705810310004009BA
:10020000040100020A000000070502024000000786
:1002100005830240000012010002EF020140EB03DF
:100220000424000101020301120100020000004049
:10023000EB030424000101020301556E6B6E6F771E
:100240006E00426C656E644D6963726F20384D4874
:100250007A00040309043A055C0A2C1725061124C8
:100260001FBECFEFDAE0DEBFCDBF94B784B7877F84
:1002700084BF0FB6F894A895809160008861809340
:100280006000109260000FBE93FF0EC08091460484
:100290009091470482349C4D39F410924704109297
:1002A0004604E0E0F0E7099511E0A0E0B1E0E4E603
:1002B000F3E402C005900D92A83AB107D9F724E003
:1002C000A8EAB1E001C01D92A634B207E1F711E03F
:1002D000CEE2D1E004C02197FE010E942A20CB3259
:1002E000D107C9F70E946B130C94A5210C94000050
:1002F0002F923F924F925F926F927F928F929F9236
:10030000AF92BF92CF92DF92EF92FF920F931F9323
:10031000CF93DF93CDB7DEB72A970FB6F894DEBF41
:100320000FBECDBF9A8789876C012AE6C20ED11C09
:100330007C0138E6E30EF11C8C010A591F4F8C59E1
:100340009F4F9A83898329843A8442E6240E311C84
:1003500089859A85805A9F4F9E838D8329813A8112
:10036000A101BC0189859A858B569F4F0E94C810B8
:10037000E985FA85EC55FF4F108110FF4DC1E985E5
:10038000FA85448855886688778880889188A2880D
:10039000B388C484D584E684F784E981FA816081D6
:1003A0007181072E000C880B990B0E94A31E20E080
:1003B0003CE249E456E40E94BD1D2DEC3CEC4CE9C6
:1003C00051EC0E94581F20E031E942E057EC0E94B6
:1003D0002F1E2DEC3CEC4CE151E40E94BE1DA3010C
:1003E00092010E94BD1D2FE832EC45EF5CE30E94B4
:1003F000581F2AEA3AE84AE65EE30E942F1E9B0154
:10040000AC01C301B2010E94BE1D2B013C01F101F0
:1004100060817181072E000C880B990B0E94A31E2E
:1004200020E030E14BE856E40E94BD1D2DEC3CEC91
:100430004CE951EC0E94581F20E030E240E057ECBC
:100440000E942F1E2DEC3CEC4CE151E40E94BE1D9D
:10045000A50194010E94BD1D2FE832EC45EF5CE33D
:100460000E94581F2AEA3AE84AE65EE30E942F1EDD
:100470009B01AC01C501B4010E94BE1D4B015C0192
:10048000ED81FE8160817181072E000C880B990B34
:100490000E94A31E20E03CE742E956E40E94BD1DF5
:1004A0002DEC3CEC4CE951EC0E94581F20E038E761
:1004B0004FEF56EC0E942F1E2DEC3CEC4CE151E42A
:1004C0000E94BE1DA70196010E94BD1D2FE832ECBF
:1004D00045EF5CE30E94581F2AEA3AE84AE65EE3E9
:1004E0000E942F1E9B01AC01C701B6010E94BE1DD8
:1004F000E985FA8560837183828393838482958200
:10050000A682B782408651866286738624A535A569
:1005100046A557A529833A834B835C8320A531A543
:1005200042A553A52D833E834F835887C4A0D5A0F1
:10053000E6A0F7A0A70196010E94BD1D2FE832ECAE
:1005400045EF5CE30E94581F25ED3AE642EB5EE37F
:100550000E942F1E9B01AC01C701B6010E94BE1D67
:10056000E985FA85608F718F828F938F2D813E810F
:100570004F815885C501B4010E94BD1D2FE832ECA2
:1005800045EF5CE30E94581F25ED3AE642EB5EE33F
:100590000E942F1E9B01AC016D817E818F81988509
:1005A0000E94BE1DE985FA85648F758F868F978FAF
:1005B00029813A814B815C81C301B2010E94BD1D3A
:1005C0002FE832EC45EF5CE30E94581F25ED3AE638
:1005D00042EB5EE30E942F1E9B01AC0169817A8190
:1005E0008B819C810E94BE1DE985FA8560A371A361
:1005F00082A393A38CE0DF011C9601900D928A9553
:10060000E1F78CE0E985FA857896A985BA85949614
:1006100001900D928A95E1F711FF95C0E985FA8561
:10062000EC5BFF4F80809180A280B380E985FA85E2
:10063000E05CFF4F4080518062807380E985FA85DD
:10064000C4ACD5ACE6ACF7ACE659FF4F6081718124
:10065000072E000C880B990B0E94A31EA501940184
:100660000E94BD1D2FE832EC45EF5CE30E94581F4D
:100670002AEA3AE84AE65EE30E942F1E9B01AC019B
:10068000C501B4010E94BE1D4B015C01E985FA85DC
:10069000E859FF4F60817181072E000C880B990B80
:1006A0000E94A31EA30192010E94BD1D2FE832ECFF
:1006B00045EF5CE30E94581F2AEA3AE84AE65EE307
:1006C0000E942F1E9B01AC01C301B2010E94BE1DFE
:1006D0002B013C01E985FA85EA59FF4F6081718160
:1006E000072E000C880B990B0E94A31EA7019601F0
:1006F0000E94BD1D2FE832EC45EF5CE30E94581FBD
:100700002AEA3AE84AE65EE30E942F1E9B01AC010A
:10071000C701B6010E94BE1DE985FA8560AB71ABC9
:1007200082AB93AB44AA55AA66AA77AA80AE91AED3
:10073000A2AEB3AE8CE0F096A985BA85DC960190A6
:100740000D928A95E1F72A960FB6F894DEBF0FBE98
:10075000CDBFDF91CF911F910F91FF90EF90DF9070
:10076000CF90BF90AF909F908F907F906F905F9051
:100770004F903F902F9008958F929F92AF92BF928B
:10078000CF92DF92EF92FF920F931F93CF93DF935D
:10079000EC016A017B0148015901C901B80120E857
:1007A00031E541E050E00E94E91F88819981AA81EA
:1007B000BB81281739074A075B0731F4CC82DD82F9
:1007C000EE82FF8281E00BC088859985009731F029
:1007D00095018401B701A6010E94BC0380E0DF916E
:1007E000CF911F910F91FF90EF90DF90CF90BF902E
:1007F000AF909F908F9008950F931F93FC0160E03E
:1008000070E0CB01019120ED200F2A30C0F4AAE066
:10081000B0E09B01AC010E943F20AB01BC01405302
:10082000510961097109002E000C110B220B330BC9
:10083000CB01BA01600F711F821F931FE3CF1F917D
:100840000F9108950F931F930E9492146093B50126
:100850007093B6018093B7019093B8010091B101F4
:100860001091B2012091B3013091B401DC01CB01B0
:10087000801B910BA20BB30B86399105A105B10525
:1008800090F1EDECF1E001900020E9F73197BF0124
:100890006D5C71404AE050E08AED93E00E94AF1831
:1008A0008091B5019091B601A091B701B091B801C6
:1008B0008093B1019093B201A093B301B093B401BE
:1008C0008091E2019091E301A091E401B091E501F2
:1008D0000196A11DB11D8093E2019093E301A093C5
:1008E000E401B093E5011F910F91089561E08DE05F
:1008F0000E94921561E082E10E94921562E089E017
:100900000E94921561E08DE00E94CE1561E082E1C7
:100910000E94CE1540E052EC61E070E08AED93E079
:100920000E9417178AED93E00E941D17811105C0E0
:1009300089E00E94FE15892BA9F76FE371E08AED2B
:1009400093E00E94B6176FE171E08AED93E00E9498
:10095000851740E855E260E070E086EE91E00E9485
:10096000460E69E271E08AED93E00E94C81767EED7
:1009700070E08AED93E00E94B61780EA92E00E9450
:10098000421168EE73E080E090E00E94C3146BEDCA
:1009900070E08AED93E00E94851780EA92E00E9461
:1009A000801140E150E0682F8AED93E00E94981892
:1009B0006FEF70E08AED93E00E94B61783E08093BA
:1009C000AF0260E080EA92E00E94561160E080EAA7
:1009D00092E00E945D1160E080EA92E00E94641162
:1009E0008091AF0281FF0FC060E080EA92E00E9438
:1009F0006B1160E080EA92E00E94721160E080EA90
:100A000092E00E9479116AEC70E08AED93E00E9416
:100A100085176091AF0261704AE050E070E08AEDA6
:100A200093E00E946D186091AF02627070E04AE03E
:100A300050E08AED93E00E947418F8948091710060
:100A4000816080937100809190008091910083601B
:100A500080939100789408951F920F920FB60F9291
:100A600011241092B1021092B0020F900FBE0F909D
:100A70001F901895CF93DF93EBE0F2E01082118284
:100A800012821382148215821682178210861186B2
:100A9000128613861486158616861786108A118A82
:100AA000128A138A148A158A168A178A108E118E52
:100AB000128E138E148E158E168E178E10A211A202
:100AC00012A213A214A215A216A217A210A611A672
:100AD00012A613A614A615A616A617A610AA11AA42
:100AE00012AA13AA14AA15AA16AA17AA10AE11AE12
:100AF00012AE13AE14AE15AE16AE17AE10924B0278
:100B000010924C0210924D0210924E0210924F021F
:100B100010925002109251021092520210925302FF
:100B200010925402109255021092560210925702DF
:100B3000109258021092590210925A0210925B02BF
:100B400010925C0210925D0210925E0210925F029F
:100B5000109260021092610210926202109263027F
:100B6000109264021092650210926602109267025F
:100B7000109268021092690210926A02D2E1EBE6CA
:100B8000F2E0DF018D2F1D928A95E9F781E08093D5
:100B90007D0280937E0280937F02CCE0E0E8F2E069
:100BA000DF018C2F1D928A95E9F7ECE8F2E0DF0176
:100BB0008C2F1D928A95E9F7109298021092990253
:100BC00010929A0210929B0210929C0210929D0227
:100BD00010929E0210929F0280EA92E00E94AE1054
:100BE0001092AF0281E090E09093B1028093B00246
:100BF000E7E0F2E0118213828DE08083D283E5E0AA
:100C0000F2E01082118260E088E00E94921560E0BC
:100C100085E00E94921520E046E16BE086EE91E0CF
:100C20000E941B0E8CE090E00E944117DC011D9297
:100C3000CA95E9F79093CC018093CB019093CA01B8
:100C40008093C901DF91CF91089586EE91E00C94D5
:100C5000C20D4F925F926F927F928F929F92AF924E
:100C6000BF92CF92DF92EF92FF920F931F93CF9399
:100C7000DF938091B0029091B102892B09F0E9C213
:100C80008091C10181110DC00E9492146093AD0149
:100C90007093AE018093AF019093B00181E0809397
:100CA000C1010E9492140091AD011091AE012091FA
:100CB000AF013091B001DC01CB01801B910BA20B85
:100CC000B30B4F97A105B10508F4E6C00E9492143A
:100CD0006093AD017093AE018093AF019093B0012A
:100CE00060E082E10E94CE158BE092E00E947801E4
:100CF00080917D0220E030E040E85FE38823E1F06E
:100D00006091230270912402809125029091260225
:100D10000E94BE1D9B01AC0160910B0270910C0200
:100D200080910D0290910E020E94531F18160CF034
:100D30009BC010927D0298C06091230270912402A2
:100D400080912502909126020E94BD1D9B01AC015D
:100D500060910B0270910C0280910D0290910E0235
:100D60000E942A1E87FF80C081E080937D020E943E
:100D700092148090800290908102A0908202B090A4
:100D800083026B017C01C818D908EA08FB0880912E
:100D90008C0290918D02A0918E02B0918F02A501DC
:100DA0009401281B390B4A0B5B0BCA01B9010E9445
:100DB000A11E2B013C01C701B6010E94A11E9B018F
:100DC000AC01C301B2010E942F1E2B013C012DEC8E
:100DD0003CEC4CE45FE30E94531F181684F52AE9AB
:100DE00039E949E95FE3C301B2010E942A1E87FF86
:100DF00026C037EEC31AD108E108F10849EEC4163F
:100E000046E0D406E104F104D0F420919B022F5F68
:100E100080919C0290919D02A0919E02B0919F02B0
:100E2000820F911DA11DB11D80939C0290939D0284
:100E3000A0939E02B0939F0210929B0203C082E097
:100E400080939B0280928C0290928D02A0928E02DF
:100E5000B0928F020E94921460938002709381027C
:100E6000809382029093830261E082E10E94CE151A
:100E700089E00E94FE15892B29F48091AC0188231A
:100E800009F4DEC18091AC01882331F089E00E9431
:100E9000FE15892B09F0DAC18091B90181110DC0CD
:100EA0000E9492146093A8017093A9018093AA01F3
:100EB0009093AB0181E08093B9010E94921400915C
:100EC000A8011091A9012091AA013091AB01DC0188
:100ED000CB01801B910BA20BB30B893E9340A10564
:100EE000B10508F474C00E9492146093A801709335
:100EF000A9018093AA019093AB01E091C901F091FF
:100F0000CA01208131814281538160E871E581E02D
:100F100090E00E94C51F6B017C01A0E8CA0EA1E50C
:100F2000DA1EA1E0EA1EF11C0E94D812C616D706EE
:100F3000E806F90650F58CE090E00E944117EC01BC
:100F40008CE0FE0111928A95E9F70E94D81220E800
:100F500031E541E050E00E94E91F288339834A834C
:100F60005B83E091C901F091CA01D387C287F987F9
:100F7000E887D093CA01C093C90110929C021092D5
:100F80009D0210929E0210929F020E94D8128B0125
:100F90009C0140919C0250919D0260919E02709133
:100FA0009F028091C9019091CA010E94BC036CE22A
:100FB00071E08AED93E00E94A9170E94D812AB015C
:100FC000BC012AE030E08AED93E00E94C5188AED6A
:100FD00093E00E945116892B09F42BC18AED93E00E
:100FE0000E946116CDECD1E0A091E101E1E0EA0FB1
:100FF000E093E101B0E0A353BE4F8C938A3009F037
:1010000018C1F0E0E453FE4F108264E371E08AED12
:1010100093E00E94A917BE018AED93E00E94A917F0
:101020008AED93E00E94B21768E371E0CE010E945E
:101030008B21892B61F16BE371E08AED93E00E94D3
:10104000A91760ED71E08AED93E00E94C81767E48C
:1010500071E08AED93E00E94A917FE010190002043
:10106000E9F73197BF016D5C71404AE050E08AEDCD
:1010700093E00E94AF1880ED91E00E94FC030E9473
:10108000A51284E1DE011D928A95E9F7C9C066E5E3
:1010900071E08DEC91E00E948B21892B09F4C0C096
:1010A000E091CB01F091CC012081318142815381CB
:1010B00060E871E581E090E00E94C51F6B017C0152
:1010C00069E571E08AED93E00E94A917C701B601B6
:1010D0000E949D124AE050E0BC018AED93E00E941C
:1010E0006D186DE28AED93E00E942716C701B601E4
:1010F0000E9497124AE050E0BC018AED93E00E9402
:101100006D186DE28AED93E00E942716C701B601C3
:101110000E9491124AE050E0BC018AED93E00E94E7
:101120006D186FE28AED93E00E942716E091CB01E3
:10113000F091CC0144815581668177812AE030E0CD
:101140008AED93E00E948B186AE08AED93E00E949A
:101150002716C701B6010E949D124AE050E0BC016B
:1011600086EE91E00E946D186DE286EE91E00E949D
:10117000840CC701B6010E9497124AE050E0BC01FE
:1011800086EE91E00E946D186DE286EE91E00E947D
:10119000840CC701B6010E9491124AE050E0BC01E4
:1011A00086EE91E00E946D186FE286EE91E00E945B
:1011B000840CE091CB01F091CC0144815581668192
:1011C00077812AE030E086EE91E00E948B186AE099
:1011D00070E080E090E00E94C31460E486EE91E04D
:1011E0000E94840C61E070E080E090E00E94C314F3
:1011F000E091CB01F091CC010284F385E02D309792
:1012000079F0F093CC01E093CB01808591850E9429
:101210004317E091CB01F091CC011186108640CFAD
:101220001092E10184E1EDECF1E0DF011D928A957D
:10123000E9F781E090E09093B1028093B00209C099
:101240000E94220481E08093AC011CCE1092AC017C
:1012500023CEDF91CF911F910F91FF90EF90DF9000
:10126000CF90BF90AF909F908F907F906F905F9046
:101270004F9008958091E20290E02091E302821B5A
:10128000910908959091E3028091E202981750F439
:10129000E92FF0E0EC51FD4F208130E09F5F90930B
:1012A000E30202C02FEF3FEFC9010895E091E3028E
:1012B0008091E202E81730F4F0E0EC51FD4F8081BC
:1012C00090E008958FEF9FEF08950895CF92DF92F9
:1012D000EF92FF920F931F93CF93DF937C01262F02
:1012E000972F8A018091BE02882391F0C62FD72FB5
:1012F0006E01C40ED51ECC15DD0571F06991D701C4
:10130000ED91FC910190F081E02DC7010995F3CF9B
:10131000642F822F0E94FE0AC801DF91CF911F9196
:101320000F91FF90EF90DF90CF900895CF93DF93D0
:101330001F92CDB7DEB769832091BE022223D1F080
:101340002091BF02203240F021E030E0FC013383E5
:10135000228380E090E015C08091C002E82FF0E089
:10136000EF53FD4F998190838F5F8093C0028093EC
:10137000BF0205C061E0CE0101960E94FE0A81E035
:1013800090E00F90DF91CF910895FC0113821282BB
:1013900088EE93E0A0E0B0E084839583A683B783D2
:1013A00081E691E091838083089581E08093BE027D
:1013B0006093E1021092C0021092BF0208950F9351
:1013C000062F21E04091BF0261EC72E08091E102C2
:1013D0000E94A80A1092C0021092BF021092BE0290
:1013E0000F9108954F925F926F927F92AF92BF924A
:1013F000CF92EF92FF920F931F93CF93DF935C01F5
:10140000F62ED42F28013901EE2021F10E94D509B2
:10141000CE2DC43008F0C3E0C150C0F0D501ED912D
:10142000FC91B8E0CB9FC0011124A301920104C03C
:1014300056954795379527958A95D2F7CA01B901F0
:101440000190F081E02DC5010995E6CF60E0C5016E
:101450000E94DF094D2FD13208F040E22C2D64EEBE
:1014600072E08F2D0E94600A1092E3028093E202E4
:10147000DF91CF911F910F91FF90EF90CF90BF9090
:10148000AF907F906F905F904F900895CF92EF92C2
:101490000F931F93C22EE12C00E010E098010E94F0
:1014A000F2091F910F91EF90CF90089521E00C94D5
:1014B000460A61E00C94DF0982EB92E00C94C509C6
:1014C000413208F043C0909171039111FCCF91E03B
:1014D0009093710320936F032FEF209304031092D6
:1014E0004903240F20934803909370039091700355
:1014F000880F892B8093700380916E03813061F493
:1015000010926E03809170038093BB008091BC00A9
:1015100083FDF8CF85EC01C085EE8093BC008091FF
:1015200071038130E1F380914903841710F44091F5
:1015300049032AE433E0FB01D9018A2F821B841777
:1015400018F48D918193F9CF842F089580E0089548
:101550000F93413208F04AC0909171039111FCCF72
:1015600032E03093710300936F033FEF3093040335
:101570001092490340934803FB016AE473E0DB01E6
:101580003A2F361B341718F431913D93F9CF10924E
:10159000700330917003880F832B809370038091C8
:1015A0006E03813061F410926E038091700380931A
:1015B000BB008091BC0083FDF8CF85EC01C085EEB7
:1015C0008093BC00222321F0809171038230D1F3FB
:1015D000809104038F3F79F080910403803241F0C1
:1015E00080910403803331F094E005C091E003C0A2
:1015F00092E001C093E0892F0F9108954091260356
:10160000262F30E0240F311D21323105DCF42091EA
:1016100071032430C9F4FC0180E090E0861758F48F
:10162000309126032191DC01A85DBC4FA30FB11DB1
:101630002C930196F3CF80912603680F60932603C5
:1016400080E0089581E0089582E0089585ED80931B
:10165000BC008091BC0084FDFCCF10927103089502
:1016600085EC8093BC001092710308951F920F9235
:101670000FB60F9211242F933F934F935F936F9365
:101680007F938F939F93AF93BF93EF93FF9380913B
:10169000B900887F803609F49EC078F5883209F455
:1016A0005DC090F4803109F456C038F4882309F401
:1016B000F5C0883009F44FC0F5C0883109F44EC038
:1016C000803209F45FC0EEC0803409F46AC058F477
:1016D000803309F457C0883309F0E4C080930403D1
:1016E0000E94300BDFC0803509F44FC0883509F403
:1016F0005DC0883409F0D6C0D3C0883909F4C4C0AD
:10170000A8F4883709F467C038F4883609F463C050
:10171000803709F460C0C6C0883809F4B5C0803984
:1017200009F45FC0803809F0BDC05BC0803B09F49C
:1017300083C038F4803A09F466C0883A09F47CC062
:10174000B1C0803C09F4A4C0883C09F4A1C0883B26
:1017500009F487C0A7C08091700310C0909149031D
:1017600080914803981770F5E091490381E08E0F4E
:1017700080934903F0E0E65BFC4F80818093BB00DF
:1017800085EC83C0809304038BC0E091490381E022
:101790008E0F809349038091BB00F0E0E65BFC4F25
:1017A000808390914903809148036BC0E091490385
:1017B00081E08E0F809349038091BB00F0E0E65BEF
:1017C000FC4F808380916F0381116AC081E0809318
:1017D0006E0384EA5EC083E0809371031092050378
:1017E000CFCF80910503803208F04EC0E091050311
:1017F00081E08E0F809305038091BB00F0E0EA5FEB
:10180000FC4F8083BDCF0E94300B80910503803256
:1018100030F4E0910503F0E0EA5FFC4F1082609144
:10182000050370E0E0916A03F0916B0386E093E0BA
:1018300009951092050336C084E0809371031092DD
:10184000270310922603E0916C03F0916D03099534
:1018500080912603811105C081E0809326031092B8
:101860002803E091270381E08E0F80932703F0E0A7
:10187000E85DFC4F80818093BB00909127038091AD
:101880002603981708F47CCF85E88093BC000AC033
:1018900085EC8093BC001092710304C01092040385
:1018A0000E94260BFF91EF91BF91AF919F918F9175
:1018B0007F916F915F914F913F912F910F900FBE4C
:1018C0000F901F9018952091B4033091B5032817FD
:1018D0003907B9F49091720380917303981789F0D6
:1018E000E0917203F0E0EC58FC4F8081209172038C
:1018F00030E02F5F3F4F2F7333272093720390E028
:1019000008958FEF9FEF08951F93CF93DF93DC012E
:101910005C962D913C915D972115310539F481E05C
:1019200090E013969C938E9312973DC05196ED9143
:10193000FC91529750969C915097892F80951FB794
:101940005E964C915E9741FB772770F941FD60955B
:10195000F8944081772311F0492B01C0482340833C
:10196000E9012197F1F748E0508160FF02C0592B4F
:1019700001C058235083E9012197F1F76695415042
:1019800099F7772321F090818923808303C0808198
:10199000982B90831FBF5C968D919C915D970197CA
:1019A000F1F721E030E0C901DF91CF911F91089557
:1019B00008952091B4033091B5032817390771F4C5
:1019C0009091720380917303981741F0E091720334
:1019D000F0E0EC58FC4F808190E008958FEF9FEF8E
:1019E00008952091B4033091B5032817390771F495
:1019F000809173032091720390E0805C9F4F821B63
:101A0000910960E470E00E94D51F089580E090E0A5
:101A10000895E091B403F091B503E817F90769F46C
:101A2000A389B4899C918589809589238C93109290
:101A3000B5031092B40381E0089580E00895CF9338
:101A4000DF93EC018A8D9B8D892BF1F08091B4039B
:101A50009091B5038C179D07B9F0009711F00E9483
:101A6000090D8E8D8E7F8E8F1092730310927203EC
:101A7000D093B503C093B403EB89FC8990818D8921
:101A8000892B808381E001C080E0DF91CF910895B0
:101A90001F920F920FB60F9211242F933F934F93E3
:101AA0005F936F937F938F939F93AF93BF93EF93C6
:101AB000FF93E091B403F091B503309709F451C05E
:101AC000968DA685B785858591FF04C09C91892355
:101AD00029F447C09C91892309F043C0A389B489A4
:101AE0009C918589809589238C9386899789019714
:101AF000F1F7608D718DA685B785558538E020E0BA
:101B0000CB010197F1F7822F90E095958795282FCB
:101B10004C91452309F02068315091F7868D81FD65
:101B200020958091730390E001968F7399273091EF
:101B30007203381749F0A0917303B0E0AC58BC4F62
:101B40002C938093730303C0868D8160868F828D72
:101B5000938D0197F1F7A389B4899C918589892B8D
:101B60008C93FF91EF91BF91AF919F918F917F9156
:101B70006F915F914F913F912F910F900FBE0F90FA
:101B80001F90189521E731E0FC01318320830C94EC
:101B9000090D1F93CF93DF93EC01162F6E8D669581
:101BA000617081E06827812F0E94CE1561E0812F4E
:101BB0000E949215612F70E0FB01E459FE4FE49101
:101BC000E88BFB01E557FE4FE491F0E0EE0FFF1FBD
:101BD000E854FE4F859194919A8B898BDF91CF9138
:101BE0001F9108951F93CF93DF93EC01162F60E0B0
:101BF000812F0E9492158E8D81FD04C061E0812F9E
:101C00000E94CE151C87612F70E0FB01E459FE4F46
:101C1000E491ED87FB01E557FE4FE491F0E0EE0F14
:101C2000FF1FE655FE4F859194919F878E87DF9128
:101C3000CF911F9108951F93CF93DF93EC01162F3F
:101C40001B821A8288EE93E0A0E0B0E08C839D8333
:101C5000AE83BF8381E791E0998388831F8A1E8AC0
:101C6000198E188E1B8E1A8E1D8E1C8E8E8D8E7F59
:101C700020FB81F98E8F642FCE010E94C90D612F48
:101C8000CE01DF91CF911F910C94F20DCF93DF9392
:101C9000EC019A01AB011B8E1A8E198E188E1F8AC9
:101CA0001E8A60E874E88EE190E00E940B20F90142
:101CB0002430310518F0C901039702C081E090E09B
:101CC0009D8F8C8F8C8598EF980F943048F062EF41
:101CD000680F643028F066EE680F633008F071C05A
:101CE000B901769567956431710518F063517109F2
:101CF00002C061E070E07F8B6E8B369720F0B901F7
:101D00006550710902C061E070E0798F688FB90198
:101D1000660F771F260F371F36952795369527951F
:101D20002D30310518F02C50310902C021E030E08F
:101D30003B8F2A8F943058F092EF980F943038F000
:101D40008A51833008F442C0A0E0B0E041C0A8E668
:101D5000B0E0E8E6F0E0808181608C938C8598EFBC
:101D6000980F943058F022EF280F243038F026EEE8
:101D7000280F233018F020E030E002C02BE630E0DE
:101D80003C8B2B8B943010F4845009C08E3069F05A
:101D90008F3069F0803169F0813169F0865191E0CE
:101DA00001C0990F8A95EAF707C098E005C092E054
:101DB00003C094E001C091E09D8B8C8D9D8D0197B7
:101DC000F1F7CE01DF91CF910C941F0DA8E6B0E0A2
:101DD000833008F4BECFE0E0F0E0BDCFEF92FF9299
:101DE0000F931F93CF93DF9300D0CDB7DEB7062FAD
:101DF000142F682F82EB92E029833A830E94D50941
:101E0000602F82EB92E00E9496092981022FE22E38
:101E10003A81F32E8E2D801B811740F4F7016191DA
:101E20007F0182EB92E00E949609F4CF82EB92E070
:101E30000E94590A91E0811190E0892F0F900F9034
:101E4000DF91CF911F910F91FF90EF900895CF9365
:101E5000DF931F92CDB7DEB749839E012F5F3F4FBF
:101E600041E00E94EE0E0F90DF91CF9108952F92E6
:101E70003F924F925F926F927F928F929F92AF921A
:101E8000BF92CF92DF92EF92FF920F931F93CF9367
:101E9000DF9300D000D01F92CDB7DEB7F82EE62E2C
:101EA000242E69010E9492144B015C01312C1D8289
:101EB000822D90E09C838B832801612C712C32143D
:101EC00008F051C06F2D82EB92E00E94D5096E2D73
:101ED00082EB92E00E94960982EB92E00E94590AFE
:101EE0006F2D82EB92E00E94D5094B815C814319F2
:101EF00051094132510514F040E250E06F2D82EB60
:101F000092E00E94560A82EB92E00E943A09892BE5
:101F100019F10115110599F4F6012D81E20FF11D5A
:101F200027FDFA95FA83E98382EB92E00E94420949
:101F3000E981FA8180832D812F5F2D83E4CF0E9478
:101F40009214DC01CB0188199909AA09BB098415EF
:101F50009505A605B70500F3822D40E2421508F469
:101F600080E2380EACCF01151105D1F00E94921419
:101F7000DC01CB0188199909AA09BB0920E030E0EE
:101F800080179107A207B30758F0822D90E0ED81EA
:101F90002E2FEE0F330B2817390714F42FEF2D8354
:101FA0008D810F900F900F900F900F90DF91CF9138
:101FB0001F910F91FF90EF90DF90CF90BF90AF9067
:101FC0009F908F907F906F905F904F903F902F9059
:101FD00008950F931F9389019A0141E00E94370FE2
:101FE0001F910F910895CF92DF92EF92FF920F937E
:101FF0001F93CF93DF931F92CDB7DEB7D42EC22E9F
:102000009701AE014F5F5F4F0E94E90F8823F1F007
:102010004D2D50E04C1951094F5F5F4F21E030E0EA
:1020200002C0220F331FCA94E2F721503109042E57
:1020300001C0220F0A94EAF79981292330E002C0F7
:10204000359527954A95E2F7F80120830F90DF91A7
:10205000CF911F910F91FF90EF90DF90CF90089557
:10206000EF92FF920F931F93CF93DF931F92CDB701
:10207000DEB7182F062FF42EE22E209106013091A4
:102080000701AE014F5F5F4F0E94E90F9981EE207B
:1020900041F041E050E001C0440FFA94EAF7492BC7
:1020A00009C021E030E0A90101C0440FFA94EAF729
:1020B000409549234983602F812F0E94270F0F905D
:1020C000DF91CF911F910F91FF90EF900895DF92D4
:1020D000EF92FF920F931F93CF93DF931F92CDB791
:1020E000DEB7182FF62EE42ED22E20910601309165
:1020F0000701AE014F5F5F4F0E94E90F882321F176
:10210000EE2DF0E0ED19F109319621E030E002C04A
:10211000220F331FDA94E2F7215031090E2E01C04D
:10212000220F0A94EAF7802F01C0880FEA95EAF798
:10213000422F4095998149232823422B49836F2DB3
:10214000812F0E94270F01C080E00F90DF91CF9177
:102150001F910F91FF90EF90DF90089528E6FC010A
:10216000208308950F93062F22E044E06BE1FC01E9
:1021700080810E9467100F9108950F93062F22E02F
:1021800044E06CE1FC0180810E9467100F9108958A
:102190004F925F926F927F928F929F92AF92BF9277
:1021A000CF92DF92EF92FF920F931F93CF93DF9323
:1021B000EC013B014A0159012801009106011091EF
:1021C00007019C012F5F3F4F4EE06BE388810E9427
:1021D000370F898190E0982F88272A81822BF3017D
:1021E000918380838B8190E0982F88272C81822B8C
:1021F000F401918380838D8190E0982F88272E8130
:10220000822BF50191838083898590E0982F882720
:102210002A85822BF201918380838B8590E0982F11
:1022200088272C85822BF701918380838D8590E010
:10223000982F88272E85822BF60191838083DF914A
:10224000CF911F910F91FF90EF90DF90CF90BF90B3
:10225000AF909F908F907F906F905F904F90089578
:10226000262F46E06BE6FC0180810C9430100F9322
:10227000062F23E042E06BE6FC0180810E9467109C
:102280000F910895CF93DF93EC0161E00E94371125
:1022900060E0CE010E94B21060E0CE010E94BD104D
:1022A00060E0CE01DF91CF910C943011262F45E0F4
:1022B0006CE6FC0180810C943010262F44E06CE623
:1022C000FC0180810C943010262F43E06CE6FC0169
:1022D00080810C943010262F42E06CE6FC01808156
:1022E0000C943010262F41E06CE6FC0180810C94A8
:1022F0003010262F40E06CE6FC0180810C943010F9
:10230000EF92FF920F931F93CF93DF93EC01E09036
:102310000601F09007018C010F5F1F4F28E046E097
:1023200065E788810E94F30F8981DF91CF911F912A
:102330000F91FF90EF9008956F927F928F929F92EE
:10234000AF92BF92CF92DF92EF92FF920F931F93C3
:10235000CF93DF93EA012CE3C22ED12CE12CF12C98
:10236000A70196010E94E91F6883CA01B901A7016C
:1023700096010E94E91F6983CA01B90128E130E092
:1023800040E050E00E94E91F69017A016A83CA01B6
:10239000B9016C5F7F4F8F4F9F4F27E030E040E0E7
:1023A00050E00E94E91F6F5F6B83812C912C5401D8
:1023B00040E034E6632E712C00E911E0242F30E078
:1023C0002E54384FF901E370FF27309789F4C90183
:1023D000B3010E94D51F892B31F4C901B8010E94B5
:1023E000D51F892B29F48EE691E0A0E0B0E004C06F
:1023F0008DE691E0A0E0B0E0880E991EAA1EBB1EFB
:10240000D501C401AA27BB27C816D906EA06FB06D0
:1024100010F04F5FD3CF4E83309799F4C90164E633
:1024200070E00E94D51F892B39F4C90160E971E081
:102430000E94D51F892B29F48EE691E0A0E0B0E040
:1024400004C08DE691E0A0E0B0E0881A990AAA0ADB
:10245000BB0AC818D908EA08FB08C90164E670E09D
:102460000E94D51F8C01C90160E971E00E94D51F4F
:10247000ADE7B1E020E0213041F4309751F401158F
:10248000110529F4009729F402C04C9103C04DE1D5
:1024900001C04CE150E060E070E0C416D506E606ED
:1024A000F70640F0C41AD50AE60AF70A2F5F11961C
:1024B0002C3009F72F5F2D83C394CC82DF91CF910D
:1024C0001F910F91FF90EF90DF90CF90BF90AF9052
:1024D0009F908F907F906F900895CF92DF92EF92B0
:1024E000FF92C090C603D090C703E090C803F0905D
:1024F000C9036C157D058E059F0571F06B017C018C
:102500004AEC53E00E949C11C092C603D092C703CC
:10251000E092C803F092C903FF90EF90DF90CF9054
:1025200008950E946D128091CE0390E008950E945C
:102530006D128091CF0390E008950E946D128091FA
:10254000D00390E08E54984F08950F931F9360939B
:10255000C2037093C3038093C4039093C503009197
:1025600008011091090120910A0130910B01DC0151
:10257000CB01800F911FA21FB31F8093BA039093CA
:10258000BB03A093BC03B093BD0382E090E09093A3
:10259000B9038093B8030E9492146093BE037093B2
:1025A000BF038093C0039093C1031F910F910895BF
:1025B000CF92DF92EF92FF920F931F930E9492149B
:1025C000C090BE03D090BF03E090C003F090C10361
:1025D0008B019C010C191D092E093F098091C20332
:1025E0009091C303A091C403B091C503083E13406A
:1025F00021053105D0F00196A11DB11D8093C203C4
:102600009093C303A093C403B093C503B701A6017D
:1026100048515C4F6F4F7F4F4093BE035093BF03B1
:102620006093C0037093C103C9CF4091BA03509126
:10263000BB036091BC037091BD0384179507A60787
:10264000B707C8F1E091B603F091B703309799F15D
:102650000995611571058105910519F00E94A51272
:102660002AC0409108015091090160910A017091BE
:102670000B018091C2039091C303A091C403B09158
:10268000C503840F951FA61FB71F8093BA039093AD
:10269000BB03A093BC03B093BD0381E090E0209105
:1026A000B8033091B903232B11F480E090E09093AC
:1026B000B9038093B8036091C2037091C303809102
:1026C000C4039091C5031F910F91FF90EF90DF908D
:1026D000CF90089508950E94FF140E946A138BE220
:1026E00094E00E94041D89B5806189BD09B400FE93
:1026F000FDCF0E947604C0E0D0E00E94290620971A
:10270000E1F30E940000F9CF08951F920F920FB6D7
:102710000F9211242F933F934F935F936F937F9367
:102720008F939F93AF93BF93EF93FF93E0910C012F
:10273000F0910D010995FF91EF91BF91AF919F919C
:102740008F917F916F915F914F913F912F910F905A
:102750000FBE0F901F9018951F920F920FB60F92F9
:1027600011242F933F934F935F936F937F938F9396
:102770009F93AF93BF93EF93FF93E0910E01F0917E
:102780000F010995FF91EF91BF91AF919F918F91AB
:102790007F916F915F914F913F912F910F900FBE5D
:1027A0000F901F9018951F920F920FB60F92112441
:1027B0002F933F934F935F936F937F938F939F9349
:1027C000AF93BF93EF93FF93E0911001F09111014C
:1027D0000995FF91EF91BF91AF919F918F917F915B
:1027E0006F915F914F913F912F910F900FBE0F907E
:1027F0001F9018951F920F920FB60F9211242F93CE
:102800003F934F935F936F937F938F939F93AF9378
:10281000BF93EF93FF93E0911201F091130109959B
:10282000FF91EF91BF91AF919F918F917F916F91A8
:102830005F914F913F912F910F900FBE0F901F907E
:1028400018951F920F920FB60F9211242F933F935A
:102850004F935F936F937F938F939F93AF93BF93A8
:10286000EF93FF93E0911401F09115010995FF9109
:10287000EF91BF91AF919F918F917F916F915F91F8
:102880004F913F912F910F900FBE0F901F90189571
:102890001F920F920FB60F9211242F933F938F9395
:1028A0009F93AF93BF938091D2039091D303A09154
:1028B000D403B091D5033091D10326E0230F2D37F7
:1028C00020F40296A11DB11D05C029E8230F03962F
:1028D000A11DB11D2093D1038093D2039093D30304
:1028E000A093D403B093D5038091D6039091D703DE
:1028F000A091D803B091D9030196A11DB11D809379
:10290000D6039093D703A093D803B093D903BF9174
:10291000AF919F918F913F912F910F900FBE0F908C
:102920001F9018952FB7F8946091D2037091D3033C
:102930008091D4039091D5032FBF08953FB7F894A9
:102940008091D6039091D703A091D803B091D90379
:1029500026B5A89B05C02F3F19F00196A11DB11DFA
:102960003FBFBA2FA92F982F8827820F911DA11D35
:10297000B11DBC01CD0143E0660F771F881F991F71
:102980004A95D1F708958F929F92AF92BF92CF92BE
:10299000DF92EF92FF926B017C010E949E144B012B
:1029A0005C01C114D104E104F10401F10E94231D72
:1029B0000E949E14DC01CB0188199909AA09BB0960
:1029C000883E9340A105B10560F321E0C21AD10809
:1029D000E108F10888EE880E83E0981EA11CB11C66
:1029E000C114D104E104F10419F7DBCFFF90EF909B
:1029F000DF90CF90BF90AF909F908F900895789484
:102A000084B5826084BD84B5816084BD85B58260F3
:102A100085BD85B5816085BDEEE6F0E08081816091
:102A20008083E1E8F0E01082808182608083808191
:102A300081608083E0E8F0E0808181608083E1E96B
:102A4000F0E0808182608083808181608083E0E922
:102A5000F0E0808181608083E1ECF0E0808184603F
:102A60008083808182608083808181608083E3ECC9
:102A7000F0E0808181608083E0ECF0E08081826022
:102A80008083E2ECF0E0808181608083EAE7F0E01F
:102A900080818460808380818260808380818E7F5A
:102AA0008083808180688083089590E0FC01319765
:102AB000EF30F105B0F5EA5AFF4F0C942A208091CF
:102AC00080008F7703C0809180008F7D809380008D
:102AD000089580918000877FF9CF84B58F7702C0F9
:102AE00084B58F7D84BD0895809190008F7707C055
:102AF000809190008F7D03C080919000877F8093AC
:102B0000900008958091C0008F7703C08091C0002D
:102B10008F7D8093C00008958091C200877F80934D
:102B2000C2000895CF93DF9390E0FC01E459FE4F7B
:102B30002491FC01E557FE4F8491882361F190E0D8
:102B4000880F991FFC01EA53FE4FC591D491FC01F7
:102B5000E854FE4FA591B491611109C09FB7F89454
:102B60008881209582238883EC912E230BC06230CC
:102B700061F49FB7F8943881822F809583238883EE
:102B8000EC912E2B2C939FBF06C08FB7F894E88151
:102B90002E2B28838FBFDF91CF9108951F93CF9362
:102BA000DF93282F30E0F901E35BFE4F8491F901B8
:102BB000E459FE4FD491F901E557FE4FC491CC235F
:102BC000C9F0162F81110E945515EC2FF0E0EE0F81
:102BD000FF1FE854FE4FA591B4918FB7F8941111DF
:102BE00005C09C91ED2FE095E92302C0EC91ED2BFF
:102BF000EC938FBFDF91CF911F910895CF93DF9317
:102C0000282F30E0F901E35BFE4F8491F901E4598C
:102C1000FE4FD491F901E557FE4FC491CC2391F0BA
:102C200081110E945515EC2FF0E0EE0FFF1FE655C5
:102C3000FE4FA591B491EC91ED2381E090E021F459
:102C400080E002C080E090E0DF91CF910895CF93C3
:102C5000DF931F92CDB7DEB76983DC01ED91FC9164
:102C60000280F381E02D41E050E0BE016F5F7F4FB5
:102C700009950F90DF91CF910895CF93DF93EC01E9
:102C80008C859D8597FF05C082E00E94E6199D878F
:102C90008C878C859D85DF91CF91089583E00C947E
:102CA000791CFC018485958597FD06C082E00E9411
:102CB000901990E00196089582E00E94901990E0AA
:102CC0000895FC018485958597FD05C02FEF3FEFA2
:102CD00035872487089582E00C94E619CF93DF931B
:102CE000EC0180912101882331F083E00E94171AC2
:102CF0001816190634F081E090E09B838A8380E007
:102D000090E0DF91CF910895FC0190819E5F9083C8
:102D100042E450E064ED71E080E80C94B81AFC01E4
:102D200081819081913A59F4813209F048C047E09D
:102D300050E06AE171E080E00E94B81A76C09132FA
:102D4000F1F5833291F49381892F90E0982F8827B1
:102D50002281822BA0E0B0E08093160190931701AE
:102D6000A0931801B093190160C0803239F467E074
:102D700070E08AE191E00E94DF1A06C0823209F019
:102D800054C082818093210180912A04882319F004
:102D9000EEEFFAE002C0E0E0F8E080911A019091D5
:102DA0001B01A0911C01B0911D01803B9440A10525
:102DB000B10539F48091210180FF1FC002C080E07D
:102DC00008950FB6F894A89580916000886180936B
:102DD0006000109260000FBEA895EE3F8AE0F807F1
:102DE00039F08091FE0A9091FF0A918380831DC083
:102DF0001092FF0A1092FE0A18C0EE3F2AE0F20776
:102E000031F0808191819093FF0A8093FE0A87E7D9
:102E100097E7918380839BE088E10FB6F894A895AB
:102E2000809360000FBE9093600081E008952FEFC3
:102E30003FEFFC01358724870895CF93C09121018E
:102E40006AE070E080E090E00E94C31481E0C1116C
:102E500001C080E0CF910895EAEDF3E01382128281
:102E600088EE93E0A0E0B0E084839583A683B783E7
:102E70008DE891E0918380838FEF9FEF9587848722
:102E800008950C945E200C94F320CF92DF92EF9281
:102E9000FF920F931F93CF93DF936C017A018B0105
:102EA000C0E0D0E0CE15DF0589F0D8016D918D012D
:102EB000D601ED91FC910190F081E02DC6010995BC
:102EC000892B11F47E0102C02196ECCFC701DF915E
:102ED000CF911F910F91FF90EF90DF90CF900895C9
:102EE0006115710579F0FB0101900020E9F7319738
:102EF000AF01461B570BDC01ED91FC910280F38181
:102F0000E02D099480E090E00895EF92FF920F93F6
:102F10001F93CF93DF938C017B01C0E0D0E0F701DA
:102F2000EC0FFD1F6491662361F0D801ED91FC91D7
:102F30000190F081E02DC8010995892B11F02196AF
:102F4000EECFCE01DF91CF911F910F91FF90EF90C7
:102F500008950C947017DC01ED91FC910190F081C3
:102F6000E02D099469E971E00C9470170F931F9399
:102F7000CF93DF93EC010E9485178C01CE010E9454
:102F8000B217800F911FDF91CF911F910F9108957C
:102F90000F931F93CF93DF93EC010E9470178C0166
:102FA000CE010E94B217800F911FDF91CF911F9128
:102FB0000F9108954F925F926F927F92EF92FF92DE
:102FC0000F931F93CF93DF93CDB7DEB7A1970FB6C3
:102FD000F894DEBF0FBECDBF7C01FA01CB0119A270
:102FE000223008F42AE08E010F5D1F4F422E512C33
:102FF000612C712CBF01A30192010E94E91FF9010C
:10300000CA01015011096A3014F4605D01C0695CA5
:10301000D8016C93232B242B252B61F7B801C70112
:103020000E947017A1960FB6F894DEBF0FBECDBFF9
:10303000DF91CF911F910F91FF90EF907F906F9054
:103040005F904F900895CF92DF92EF92FF920F938F
:103050001F93CF93DF93EC016A017B0121153105AA
:1030600079F4E881F9810190F081E02D642FDF91FE
:10307000CF911F910F91FF90EF90DF90CF90099427
:103080002A303105E9F477FF1AC06DE20E94AB17D0
:103090008C0144275527BA014C195D096E097F0937
:1030A0002AE0CE010E94DA17800F911FDF91CF91A5
:1030B0001F910F91FF90EF90DF90CF9008952AE03D
:1030C000B701A601CE01DF91CF911F910F91FF9023
:1030D000EF90DF90CF900C94DA179A01AB01770F45
:1030E000660B770B0C9423180F931F93CF93DF93EA
:1030F000EC019A01AB01770F660B770B0E94231846
:103100008C01CE010E94B217800F911FDF91CF91E9
:103110001F910F9108952115310541F4DC01ED91C6
:10312000FC910190F081E02D642F09940C94DA1742
:103130000F931F93CF93DF93EC019A01462F50E03A
:1031400060E070E00E948B188C01CE010E94B217E3
:10315000800F911FDF91CF911F910F9108950F93D1
:103160001F93CF93DF93EC019A01AB0160E070E015
:103170000E948B188C01CE010E94B217800F911F04
:10318000DF91CF911F910F9108950F931F93CF93CC
:10319000DF93EC010E948B188C01CE010E94B217C4
:1031A000800F911FDF91CF911F910F910895615072
:1031B00030F02091F100FC0120830196F8CF289A8D
:1031C00084E680933404089540912F045091300494
:1031D00020912D0430912E0442175307B4F490919E
:1031E000E8009570E1F39091E80092FD19C080939A
:1031F000F10080912F049091300401968F739927EC
:10320000892B19F48EEF8093E80080912F04909120
:10321000300401969093300480932F0481E0089548
:1032200080E00895CF92DF92EF92FF920F931F9369
:10323000CF93DF931F92CDB7DEB7182F062FE42E62
:10324000862F880F8E5F99830E94E41883E00E9486
:10325000E418F12EC12E9981D92E8C2D8F1980174B
:1032600098F4F601E7FE02C0849101C080810E94BB
:10327000E418182F80E00E94E4188123FFEFCF1A92
:10328000DF0A8111EACF01C081E00F90DF91CF9179
:103290001F910F91FF90EF90DF90CF900895809154
:1032A000D70081608093D70080EA8093D80089B5E9
:1032B0008F7E89BD89B5826089BD09B400FEFDCFCE
:1032C00061E070E080E090E00E94C3148091D8003B
:1032D0008F7C80618093D8008091E000807F809314
:1032E000E0000895CF93DF931F92CDB7DEB7198228
:1032F000CE0101960E9484160E94A91DBE016F5F37
:103300007F4F0E94241D89810F90DF91CF910895F6
:103310002FB7FC012083F89467706093E90008954B
:10332000CF93DF931F92CDB7DEB7682FCE01019602
:103330000E9488198091F20099819FBF0F90DF91C0
:10334000CF910895EF92FF920F931F93CF93DF9346
:103350001F92CDB7DEB790913304992311F057FF38
:1033600003C08FEF9FEF2AC08A017B01682FCE0137
:1033700001960E9488198091F20090E0A8018017C0
:1033800091070CF4AC01842FF70194E6815038F0DA
:10339000289A909334042091F1002193F7CF41159E
:1033A000510521F08091F200882321F089818FBF9F
:1033B000CA0104C08BE68093E800F8CF0F90DF913C
:1033C000CF911F910F91FF90EF900895CF93DF93CE
:1033D0001F92CDB7DEB741E050E0BE016F5F7F4F77
:1033E0000E94A219019719F4898190E002C08FEF21
:1033F0009FEF0F90DF91CF910895CF93DF931F92AE
:10340000CDB7DEB7682FCE0101960E948819909142
:10341000E800892F807295FF04C09091F2008FE33D
:10342000891B99819FBF0F90DF91CF9108956F9273
:103430007F928F929F92AF92BF92CF92DF92EF9244
:10344000FF920F931F93CF93DF931F92CDB7DEB7F9
:10345000A82E6B01B42E052F80913304811103C077
:103460008FEF9FEF6AC08091310480FF05C080918B
:10347000E00082608093E000EB2CF02E8AEF982E23
:103480008A2D8072782E9AE3892E8A2D8074682E78
:10349000E114F10409F447C08A2D0E94FD19182F88
:1034A00081110AC09A949920D9F261E070E080E01D
:1034B00090E00E94C314ECCF90E0E816F9060CF4FB
:1034C0001E2D6A2DCE0101960E9488198091E80078
:1034D00085FF26C0812F90E0E81AF90A772029F0AD
:1034E0001150A8F01092F100FBCFF601A7FE07C023
:1034F000115058F024912093F1003196F9CF1150DA
:1035000020F021912093F100FACFC80ED91E8091AE
:10351000E80085FF0FC0E114F10411F461100AC046
:1035200089818FBFB5CF5D9A84E6809335048B2D5A
:10353000902F03C08092E800F3CF0F90DF91CF91DE
:103540001F910F91FF90EF90DF90CF90BF90AF90C1
:103550009F908F907F906F9008951092E900109245
:10356000300410922F0490932E0480932D0408951C
:10357000DF92EF92FF920F931F93CF93DF93D82E9A
:103580008A017B01E40EF51EEB01CE15DF0571F01B
:10359000D7FE03C0FE01849101C088810E94E41817
:1035A00021968111F2CF8FEF9FEF01C0C801DF910B
:1035B000CF911F910F91FF90EF90DF900895BF92F0
:1035C000CF92DF92EF92FF920F931F93CF93DF93EF
:1035D0006C018B01EB019BEFB92E2097C1F07E01AE
:1035E000C134D1051CF080E4E82EF12C8091E80074
:1035F00082FFFCCFC8018C1B9D0B6E2D8C0D9D1D79
:103600000E94D718B092E800CE19DF09E6CFC801B2
:10361000DF91CF911F910F91FF90EF90DF90CF90AE
:10362000BF9008951F920F920FB60F921124CF9260
:10363000DF92EF92FF920F931F932F933F934F933D
:103640005F936F937F938F939F93AF93BF93EF930A
:10365000FF93CF93DF93CDB7DEB76C97DEBFCDBFBF
:103660001092E9008091E80083FF24C168E0CE0158
:1036700045960E94D71882EF8093E8008D8987FFD6
:1036800005C09091E80090FFFCCF03C09EEF90939F
:10369000E800982F907609F0F1C09E892F89188D47
:1036A00091110CC0803829F4809132048093F1008C
:1036B00002C01092F1001092F100F5C0422F50E0CC
:1036C000512B913051F48111EEC04130510509F078
:1036D000EAC0809132048D7F0BC0933061F4811178
:1036E000E2C04130510509F0DEC0809132048260B1
:1036F00080933204D8C0953041F48091E80080FF77
:10370000FCCF20682093E300CEC0963009F08CC037
:10371000EB8CFC8C123069F580E090E00E94AD1AD1
:103720000E94721999E09E012F5F3F4F6901F901D4
:10373000292F11922A95E9F799831A8391E09E83A4
:1037400090EA98879AEF998720912F04309130045E
:10375000275F3F4F3C832B838D83C7010E94AD1AA7
:1037600049E050E0B60180E00E94B81A0E94721948
:103770009AC0C7010E94AD1A0E94A91DBE016B5ECE
:103780007F4F0E944D1D009719F00CF08CC08FC028
:10379000113071F48B8D9C8D089719F481E0809322
:1037A0002C0480912C0481112FC068E272E031C09A
:1037B000133009F07CC08F89882349F1823029F4C5
:1037C00040E86FE082E492E006C0813039F440E8DE
:1037D00067E08AE392E00E94121963C0833009F027
:1037E00066C00E94A91D8E010F5F1F4FB8010E9485
:1037F0006C1DF80101900020E9F73197BF01601BB3
:10380000710B40E0C801E7CF66E172E002C062E5FB
:1038100072E06115710509F44AC0FB01449150E062
:1038200080E80E94B81A3FC0973009F440C0983031
:1038300021F481E08093F10036C09930A1F58370C6
:10384000B1F5E3E2F1E081E021E036E390819923F4
:1038500061F08093E9002093EB0091919093EC004C
:103860003093ED008F5F873089F78EE78093EA0011
:103870001092EA008F898093330415C08B8D9C8D44
:103880000E94AD1A898D811105C0CE0145960E9416
:103890008F1607C00E94A91DBE016B5E7F4F0E945C
:1038A0008B1D882321F08EEF8093E80003C081E216
:1038B0008093EB006C960FB6F894DEBF0FBECDBFC1
:1038C000DF91CF91FF91EF91BF91AF919F918F9138
:1038D0007F916F915F914F913F912F911F910F9128
:1038E000FF90EF90DF90CF900F900FBE0F901F9042
:1038F00018958093E9008091F200882319F08AE3FB
:103900008093E80008951F920F920FB60F92112432
:103910002F933F934F935F936F937F938F939F93D7
:10392000AF93BF93CF93EF93FF93C091E10080914A
:10393000E100837F8093E100C3FF0FC01092E90094
:1039400081E08093EB001092EC0082E38093ED0025
:103950001092330488E08093F000C2FF19C083E026
:103960000E94791C80913504882339F080913504B8
:10397000815080933504882389F180913404882311
:1039800039F080913404815080933404882341F1CC
:10399000C4FF10C08091E2008E7E81608093E200BF
:1039A0008091E1008F7E8093E100809131048E7ED2
:1039B000806111C0C0FF16C08091E2008E7E8061E0
:1039C0008093E2008091E1008E7E8093E1008091FF
:1039D00031048E7E81608093310404C05D98CDCF28
:1039E0002898D6CFFF91EF91CF91BF91AF919F9142
:1039F0008F917F916F915F914F913F912F910F9098
:103A00000FBE0F901F90189510923304109232043D
:103A1000109231040E944F198091E1008E7E8093B4
:103A2000E1008DE08093E200559A209A5D982898F5
:103A3000EEEFFFE7859194918B3F9C4D19F481E067
:103A400080932A0408950895EF92FF920F931F9395
:103A5000CF93DF937B01FC01C281D38100E010E0B2
:103A6000209781F0E881F9810280F381E02DB70190
:103A7000CE01099597FD08C0080F191F0884D98544
:103A8000C02DEECFC80102C08FEF9FEFDF91CF9125
:103A90001F910F91FF90EF9008950F931F93CF9375
:103AA000DF938B01FC01C281D381209771F0E88103
:103AB000F9810480F581E02DB801CE0109950097C8
:103AC00031F40884D985C02DF0CF80E090E0DF91FB
:103AD000CF911F910F9108950F931F93CF93DF9371
:103AE0008B01FC01C281D381209771F0E881F981BB
:103AF0000680F781E02DB801CE010995080F111D50
:103B00000884D985C02DF0CFF8011082DF91CF91C4
:103B10001F910F9108950F931F93CF93DF938B0104
:103B2000FC01C281D381209771F0E881F981019075
:103B3000F081E02DB801CE010995811105C00884FE
:103B4000D985C02DF0CF80E0DF91CF911F910F91EB
:103B5000089580913A0481110DC082E0809336046B
:103B600084E080933704109239041092380481E085
:103B700080933A0486E394E008955058BB27AA271F
:103B80000E94D51D0C94191F0E940B1F38F00E9433
:103B9000121F20F039F49F3F19F426F40C94081FEB
:103BA0000EF4E095E7FB0C94021FE92F0E942A1FF8
:103BB00058F3BA17620773078407950720F079F462
:103BC000A6F50C944C1F0EF4E0950B2EBA2FA02DE9
:103BD0000B01B90190010C01CA01A0011124FF27BA
:103BE000591B99F0593F50F4503E68F11A16F040B5
:103BF000A22F232F342F4427585FF3CF46953795B4
:103C00002795A795F0405395C9F77EF41F16BA0B78
:103C1000620B730B840BBAF09150A1F0FF0FBB1F26
:103C2000661F771F881FC2F70EC0BA0F621F731F6F
:103C3000841F48F4879577956795B795F7959E3FCC
:103C400008F0B0CF9395880F08F09927EE0F97955D
:103C5000879508950E94DE1E08F481E008950E9471
:103C6000431E0C94191F0E94121F58F00E940B1F34
:103C700040F029F45F3F29F00C94021F51110C947D
:103C80004D1F0C94081F0E942A1F68F39923B1F35B
:103C9000552391F3951B550BBB27AA276217730772
:103CA000840738F09F5F5F4F220F331F441FAA1F06
:103CB000A9F335D00E2E3AF0E0E832D091505040C2
:103CC000E695001CCAF72BD0FE2F29D0660F771F70
:103CD000881FBB1F261737074807AB07B0E809F056
:103CE000BB0B802DBF01FF2793585F4F3AF09E3FDB
:103CF000510578F00C94021F0C944D1F5F3FE4F3C4
:103D0000983ED4F3869577956795B795F7959F5F1D
:103D1000C9F7880F911D9695879597F90895E1E069
:103D2000660F771F881FBB1F621773078407BA07C8
:103D300020F0621B730B840BBA0BEE1F88F7E09523
:103D40000895E89409C097FB3EF49095809570958E
:103D500061957F4F8F4F9F4F9923A9F0F92F96E9D7
:103D6000BB279395F695879577956795B795F1114C
:103D7000F8CFFAF4BB0F11F460FF1BC06F5F7F4FE9
:103D80008F4F9F4F16C0882311F096E911C07723FB
:103D900021F09EE8872F762F05C0662371F096E804
:103DA000862F70E060E02AF09A95660F771F881FD3
:103DB000DAF7880F9695879597F90895990F000877
:103DC000550FAA0BE0E8FEEF16161706E807F907ED
:103DD000C0F012161306E407F50798F0621B730B88
:103DE000840B950B39F40A2661F0232B242B252B09
:103DF00021F408950A2609F4A140A6958FEF811DAC
:103E0000811D089597F99F6780E870E060E008954C
:103E10009FEF80EC089500240A94161617061806E2
:103E20000906089500240A941216130614060506BE
:103E30000895092E0394000C11F4882352F0BB0F4F
:103E400040F4BF2B11F460FF04C06F5F7F4F8F4FB2
:103E50009F4F089557FD9058440F551F59F05F3FED
:103E600071F04795880F97FB991F61F09F3F79F09C
:103E700087950895121613061406551FF2CF46951E
:103E8000F1DF08C0161617061806991FF1CF8695A0
:103E90007105610508940895E894BB276627772784
:103EA000CB0197F908950E94DE1E08F48FEF089564
:103EB0000E946B1F0C94191F0E940B1F38F00E9468
:103EC000121F20F0952311F00C94021F0C94081F70
:103ED00011240C944D1F0E942A1F70F3959FC1F36B
:103EE000950F50E0551F629FF001729FBB27F00DA8
:103EF000B11D639FAA27F00DB11DAA1F649F6627FD
:103F0000B00DA11D661F829F2227B00DA11D621F4B
:103F1000739FB00DA11D621F839FA00D611D221F05
:103F2000749F3327A00D611D231F849F600D211DE9
:103F3000822F762F6A2F11249F5750409AF0F1F06C
:103F400088234AF0EE0FFF1FBB1F661F771F881FD5
:103F500091505040A9F79E3F510580F00C94021FEC
:103F60000C944D1F5F3FE4F3983ED4F3869577950C
:103F70006795B795F795E7959F5FC1F7FE2B880F7B
:103F8000911D9695879597F90895DB018F939F93DF
:103F90000E943F20BF91AF91A29F800D911DA39FD2
:103FA000900DB29F900D1124089597FB072E16F4E3
:103FB000009407D077FD09D00E944A2007FC05D065
:103FC0003EF4909581959F4F0895709561957F4F30
:103FD0000895A1E21A2EAA1BBB1BFD010DC0AA1F4A
:103FE000BB1FEE1FFF1FA217B307E407F50720F062
:103FF000A21BB30BE40BF50B661F771F881F991FDD
:104000001A9469F760957095809590959B01AC0125
:10401000BD01CF010895052E97FB1EF400940E9468
:10402000222057FD07D00E94E91F07FC03D04EF461
:104030000C94222050954095309521953F4F4F4F3D
:104040005F4F089590958095709561957F4F8F4F44
:104050009F4F0895EE0FFF1F0590F491E02D0994F6
:10406000A29FB001B39FC001A39F700D811D1124B9
:10407000911DB29F700D811D1124911D08950E9404
:104080003020A59F900DB49F900DA49F800D911D91
:1040900011240895AA1BBB1B51E107C0AA1FBB1F17
:1040A000A617B70710F0A61BB70B881F991F5A95C4
:1040B000A9F780959095BC01CD010895CF93DF932A
:1040C0008230910510F482E090E0E0914404F09198
:1040D000450420E030E0C0E0D0E0309711F14081AD
:1040E000518148175907C0F04817590761F4828178
:1040F0009381209719F09B838A832BC0909345046A
:104100008093440426C02115310519F04217530746
:1041100018F49A01BE01DF01EF010280F381E02D66
:10412000DCCF2115310509F1281B390B243031056D
:1041300090F412968D919C9113976115710521F061
:10414000FB019383828304C09093450480934404CD
:10415000FD01329644C0FD01E20FF31F819391935C
:10416000225031092D933C933AC020914204309162
:104170004304232B41F42091020130910301309339
:104180004304209342042091000130910101211544
:10419000310541F42DB73EB740910401509105011E
:1041A000241B350BE0914204F0914304E217F3071E
:1041B000A0F42E1B3F0B2817390778F0AC014E5F97
:1041C0005F4F2417350748F04E0F5F1F509343048D
:1041D000409342048193919302C0E0E0F0E0CF016C
:1041E000DF91CF9108950F931F93CF93DF930097A3
:1041F00009F48CC0FC0132971382128200914404AE
:10420000109145040115110581F420813181820F3F
:10421000931F20914204309143042817390779F500
:10422000F0934304E093420471C0D80140E050E0B1
:10423000AE17BF0750F412962D913C911397AD0124
:104240002115310509F1D901F3CF9D01DA0133833D
:10425000228360817181860F971F8217930769F40B
:10426000EC0128813981260F371F2E5F3F4F3183A4
:1042700020838A819B8193838283452B29F4F09349
:104280004504E093440442C01396FC93EE931297C6
:10429000ED01499159919E01240F351FE217F30753
:1042A00071F480819181840F951F029611969C93E1
:1042B0008E938281938113969C938E931297E0E064
:1042C000F0E0D80112968D919C911397009719F008
:1042D000F8018C01F6CF8D919C9198012E5F3F4F94
:1042E000820F931F2091420430914304281739070D
:1042F00069F4309729F4109245041092440402C0E6
:10430000138212821093430400934204DF91CF91F1
:104310001F910F910895FB0151915523A9F0BF0101
:10432000DC014D9145174111E1F759F4CD010190A0
:10433000002049F04D9140154111C9F3FB01411195
:10434000EFCF81E090E00197089511E0CEE2D1E057
:1043500004C0FE010E942A202196CF32D107C9F75E
:04436000F894FFCFFF
:10436400000048048000E8032C0100008413841337
:10437400841384138413FFFFFFFF00E10000000097
:10438400000000C180810000004F4B006E6F772851
:10439400293A2000413A20007374007061727365F9
:1043A40074696D653A20006C656E28627472786277
:1043B4007566293A2000676300443A200000000033
:1043C40000960966093A0942095609650900000080
:1043D40000840C4517F10C630CD90CD80C1F1C1F5E
:1043E4001E1F1E1F1F1E1F1E1F0000000027166E0B
:1043F40016511661163D164E160D0A006E616E00BA
:08440400696E66006F76660028
:1070000055C000006EC000006CC000006AC00000E7
:1070100068C0000066C0000064C0000062C00000DC
:1070200060C000005EC00000EAC400005AC000005A
:1070300058C0000056C0000054C0000052C00000FC
:1070400050C000007DC000004CC000004AC00000DD
:1070500048C0000046C0000044C0000042C000001C
:1070600040C000003EC000003CC000003AC000002C
:1070700038C0000036C0000034C0000032C000003C
:1070800030C000002EC000002CC000002AC000004C
:1070900028C0000026C0000024C0000022C000005C
:1070A00020C000001EC000001CC0000011241FBE34
:1070B000CFEFDAE0DEBFCDBF11E0A0E0B1E0E6EF58
:1070C000FEE702C005900D92A83AB107D9F711E08A
:1070D000A8EAB1E001C01D92AE3BB107E1F787D34A
:1070E00008C78ECFE1E6F0E080E8808381E080830E
:1070F000F89410926F001092810010928500109207
:10710000840085BF15BE47985D9A289A0C940000AC
:1071100008952091B2013091B3012E5F3F4F30931B
:10712000B3012093B201932F37FF03C08EEF831B6F
:10713000982F990F921710F447980895479A089539
:107140001F920F920FB60F9211242F938F939F933C
:10715000EF93FF9310928500109284008091A80114
:107160009091A901009741F001979093A901809314
:10717000A801892B09F45D9A8091AA019091AB0135
:10718000009741F001979093AB018093AA01892B5E
:1071900009F4289AE0E0F0E0859194918F5F9F4F89
:1071A00049F08091AC019091AD0101969093AD01B1
:1071B0008093AC01FF91EF919F918F912F910F9050
:1071C0000FBE0F901F90189584E08093E9000DC0CA
:1071D0008091E8008B778093E80003C08EB388230A
:1071E00051F08091E80082FFF9CF8091E80085FF9F
:1071F000EFCF8091F1000895982F83E08093E9000C
:107200008091E80085FD0DC08091E8008E77809325
:10721000E80003C08EB3882369F08091E80080FF06
:10722000F9CF9093F1005D9884E690E09093A901E6
:107230008093A80108954F925F926F927F928F92F0
:107240009F92AF92BF92CF92DF92EF92FF920F93F5
:107250001F93CF93DF9384E08093E9008091E8004F
:1072600082FF4AC2289884E690E09093AB01809315
:10727000AA01AADF182F853481F48CEA9DE090934F
:10728000AD018093AC0107B600FCFDCFF999FECFAC
:1072900081E180935700E89503C0843519F494DFA9
:1072A0008DE000C28C34E1F38035D1F3843721F4D2
:1072B00084E4A2DF80E0F6C1813611F489E5F2C1F1
:1072C0008134F1F481DF182F7FDF90E0880F991F60
:1072D000AA2797FDA095BA2F312F330F20E044271E
:1072E00037FD4095542F822B932BA42BB52B8093E5
:1072F000AE019093AF01A093B001B093B101D0CF94
:10730000803711F483E5CEC1833549F4C0E0D1E084
:10731000899172DF21E0C730D207D1F7C4C1863529
:1073200021F481E369DF80E3BDC1833731F487E86D
:1073300063DF85E961DF8EE1B5C18536B9F4E0E050
:10734000F0E093E085E090935700E89507B600FCE5
:10735000FDCF80935700E89507B600FCFDCFE058BD
:10736000FF4FA0E7E030FA0771F79ACF823739F480
:1073700089E0E1E0F0E080935700849193C1863486
:1073800039F489E0E0E0F0E08093570084918AC10D
:107390008E3439F489E0E3E0F0E080935700849183
:1073A00081C1813539F489E0E2E0F0E08093570053
:1073B000849178C1823631F489E51EDF80E01CDFDC
:1073C00080E870C1823419F0873609F0D3C010927A
:1073D000AD011092AC01F8DE082FF6DEF82EF4DED7
:1073E000682E8554823008F05CC1902F80E08F2C8D
:1073F0009924882A992A10926F00A090AE01B0902B
:10740000AF01C090B001D090B101173609F044C06F
:1074100081E180935700E89586017501DD24CC2435
:10742000C3942EC0B6E46B1699F4ED2DF0E0EE296E
:10743000FF29E4918E2FE0DEDD2041F082E090E034
:10744000A0E0B0E0E80EF91E0A1F1B1FDC2415C0E7
:10745000F999FECFD801C701B695A795979587955D
:1074600092BD81BDF89A80B5C7DE82E090E0A0E0D1
:10747000B0E0E80EF91E0A1F1B1F0894810891084E
:107480008114910479F6E092AE01F092AF0100937D
:10749000B0011093B1016AC096E4691609F047C0C3
:1074A00083E0F50180935700E89507B600FCFDCF17
:1074B0003EC0F6E46F16E1F47720B1F085DED82FF8
:1074C000C0E0852D90E08C2B9D2BF7010C014092A4
:1074D0005700E895112482E090E0A0E0B0E0E80ECB
:1074E000F91E0A1F1B1F02C06FDE582E74241BC01A
:1074F0006BDE282FF999FECF1FBAD801C701B695C8
:10750000A7959795879592BD81BD20BD0FB6F8943C
:10751000FA9AF99A0FBE82E090E0A0E0B0E0E80E9F
:10752000F91E0A1F1B1F08948108910806C08601D6
:10753000750155247724442443948114910409F05F
:10754000B8CFE092AE01F092AF010093B00110937A
:10755000B10196E4691641F485E0F5018093570086
:10756000E89507B600FCFDCF8DE046DE82E0809313
:107570006F0099C0833471F40091AE011091AF0196
:1075800023DE90E021E0F8010C0120935700E895FC
:10759000112486CE833699F4E090AE01F090AF01CD
:1075A0000091B0011091B1010FDEF701E16090E0B0
:1075B00021E00C0120935700E895112437C08D3647
:1075C00061F4E091AE01F091AF0185E08093570046
:1075D000E89507B600FCFDCF63CE823551F4E0910B
:1075E000AE01F091AF0105911491812F05DE802F3E
:1075F00059C0843461F5E090AE01F090AF01009184
:10760000B0011091B101E0DD282FF999FECF1FBA2A
:10761000D801C701B695A7959795879592BD81BD6D
:1076200020BD0FB6F894FA9AF99A0FBE82E090E066
:10763000A0E0B0E0E80EF91E0A1F1B1FE092AE01A9
:10764000F092AF010093B0011093B10129CE8436BE
:1076500031F5E090AE01F090AF010091B0011091D2
:10766000B101F999FECFD801C701B695A7959795B5
:10767000879592BD81BDF89A80B5BEDD82E090E02D
:10768000A0E0B0E0E80EF91E0A1F1B1FE092AE0159
:10769000F092AF010093B0011093B10104C08B319F
:1076A00011F08FE3A9DD83E08093E9009091E80079
:1076B0008091E8008E778093E80095FF04C010C0A9
:1076C0008EB38823C9F08091E80080FFF9CF8091C4
:1076D000E8008E778093E80003C08EB3882361F0C2
:1076E0008091E80080FFF9CF84E08093E9008091E9
:1076F000E8008B778093E800DF91CF911F910F9185
:10770000FF90EF90DF90CF90BF90AF909F908F90C1
:107710007F906F905F904F9008959091B601892F60
:107720008F77813249F58091B7018032A1F08132A3
:1077300019F5913A09F58091E800877F8093E80078
:107740008DE091E067E070E00BD28091E8008B77EC
:107750008093E8000895913279F48091E800877F62
:107760008093E8008DE091E067E070E05DD2809169
:10777000E8008E778093E800089582E061EC42E0B3
:10778000B5D083E061E842E1B1D084E060E842E155
:10779000ADC084B7877F84BF88E10FB6F89480932B
:1077A0006000109260000FBE20E881E090E00FB60C
:1077B000F89420936100809361000FBE81E085BF43
:1077C00092E095BF3F9A209A559AE1E6F0E0208337
:1077D000808347985D9A289A109289008AEF809357
:1077E000880090936F0083E080938100F0C0409107
:1077F000000850910108109201081092000894B7F7
:1078000014BE88E10FB6F894809360001092600077
:107810000FBE292F30E0F901E270F07091FD18C021
:1078200090FF05C0859194918F5F9F4F81F423FF56
:107830000FC08091090190910A014817590741F042
:10784000E0E0F0E0859194918F5F9F4F09F04ADC72
:10785000A0DF78941092AD011092AC010CC0EBDC6B
:1078600036D38091AC019091AD01815A9F4010F0C8
:10787000109214014EDC80911401882381F78091CD
:10788000E00081608093E0002DDC80E090E00895CE
:10789000FA01923049F0933061F09130F9F485E1CA
:1078A00091E022E130E01EC087E291E02EE330E07B
:1078B00019C0882329F485E691E024E030E012C065
:1078C000813029F489E691E022E230E00BC0823079
:1078D00029F48DE891E028E130E004C080E090E0F8
:1078E00020E030E091838083C90108958093E9000E
:1078F0008091EB0081608093EB001092ED0060932B
:10790000EC004093ED008091EE00881F8827881FCF
:1079100008958091B60188238CF403C08EB3882328
:10792000B1F08091E80082FFF9CF8091E8008B7779
:107930008093E80008958EB3882349F08091E80091
:1079400080FFF9CF8091E8008E778093E80008955A
:10795000EF92FF920F931F9345D04CD008ED10E0AB
:10796000F80180818F778083808180688083808127
:107970008F7D808319BC1EBA1092B40180EEE82E70
:10798000F12CF70180818B7F8083F80180818160F9
:10799000808380E060E042E0A9DFE1EEF0E08081FA
:1079A0008E7F8083E2EEF0E0808181608083808141
:1079B00088608083F70180818E7F8083F8018081D9
:1079C000806180831F910F91FF90EF900895E7ED04
:1079D000F0E08081816080838AE482BF81E08093CF
:1079E000B501B6CFE8EDF0E080818E7F8083109204
:1079F000E20008951092DA001092E10008951F92BB
:107A00000F920FB60F9211242F933F934F935F93D2
:107A10006F937F938F939F93AF93BF93EF93FF9356
:107A20008091DA0080FF1BC08091D80080FF17C0D2
:107A30008091DA008E7F8093DA008091D90080FFF8
:107A40000BC080E189BD82E189BD09B400FEFDCF94
:107A500081E08EBB3BD203C019BC1EBA37D28091E5
:107A6000E10080FF17C08091E20080FF13C0809189
:107A7000E2008E7F8093E2008091E200806180933B
:107A8000E2008091D80080628093D80019BC85E024
:107A90008EBB1CD28091E10084FF2CC08091E2005B
:107AA00084FF28C080E189BD82E189BD09B400FE60
:107AB000FDCF8091D8008F7D8093D8008091E10028
:107AC0008F7E8093E1008091E2008F7E8093E200C0
:107AD0008091E20081608093E2008091B40188236C
:107AE00031F48091E30087FD02C081E001C084E0B1
:107AF0008EBBECD18091E10083FF21C08091E20038
:107B000083FF1DC08091E100877F8093E10082E0C8
:107B10008EBB1092B4018091E1008E7F8093E100D2
:107B20008091E2008E7F8093E2008091E20080618C
:107B30008093E20080E060E042E0D8DEC7D1FF91B0
:107B4000EF91BF91AF919F918F917F916F915F91D5
:107B50004F913F912F910F900FBE0F901F9018954E
:107B60009C014091BC015091BD014617570718F484
:107B7000F90190E044C06115710511F0AB01F8CF37
:107B80008091E8008E778093E80040E050E0F0CFED
:107B90008EB3882309F444C0853009F443C0809132
:107BA000E80083FF02C081E008958091E80082FD33
:107BB00031C08091E80080FF22C08091F300909155
:107BC000F200782F60E0292F30E0262B372B07C0FA
:107BD00081918093F100415050402F5F3F4F4115FC
:107BE000510519F02830310598F390E0283031051F
:107BF00009F491E08091E8008E778093E8004115C8
:107C0000510531F6992321F605C08EB3882341F042
:107C1000853041F08091E80082FFF7CF80E0089541
:107C200082E0089583E008959C016115710529F4AF
:107C30008091E8008B778093E800F90126C08EB32D
:107C4000882391F1853091F18091E80083FF02C093
:107C500081E008958091E80082FFF1CF06C0809115
:107C6000F10081936150704059F02091F3008091B0
:107C7000F200322F20E090E0822B932B892B79F7B2
:107C80008091E8008B778093E80061157105B9F663
:107C900005C08EB3882341F0853041F08091E80023
:107CA00080FFF7CF80E0089582E0089583E0089593
:107CB0000F931F93DF93CF9300D0CDB7DEB7E6EBE2
:107CC000F1E08091F100819381E0EE3BF807C9F784
:107CD00024DD8091E80083FFE4C08091B60190919B
:107CE000B701953009F46DC0963040F4913081F1C0
:107CF000913070F0933009F0D4C02AC0983009F464
:107D0000A3C0993009F4B2C0963009F0CAC07CC053
:107D1000803809F4C6C0823809F0C3C08091BA0126
:107D200087708093E9008091EB001092E900209128
:107D3000E800277F2093E80090E025E0969587955E
:107D40002A95E1F781708093F1001092F10087C0CD
:107D5000882319F0823009F0A4C08F71823009F0B5
:107D6000A0C08091B801882331F52091BA01277015
:107D700009F497C02093E9008091EB0080FF1BC0BD
:107D8000933021F48091EB00806213C08091EB006E
:107D900080618093EB0081E090E002C0880F991F22
:107DA0002A95E2F78093EA001092EA008091EB00B6
:107DB00088608093EB001092E9008091E800877F53
:107DC00051C0882309F06DC01091B8011F770FB71B
:107DD000F8948091E800877F8093E8009ADD809195
:107DE000E80080FFFCCF8091E3008078812B8093B6
:107DF000E30080688093E300112311F482E001C066
:107E000083E08EBB0FBF4DC08058823008F049C060
:107E10008091B8019091B9016091BA01AE014F5FB4
:107E20005F4F36DDBC01009709F43BC08091E8004C
:107E3000877F8093E80089819A8192DE8091E800B3
:107E40008B778093E8002DC0803859F58091E80049
:107E5000877F8093E8008091B4018093F100809146
:107E6000E8008E778093E80054DD1BC08823C9F4B6
:107E70009091B8019230A8F48091E800877F8093B8
:107E8000E8009093B40145DD8091B401882331F47A
:107E90008091E30087FD02C081E001C084E08EBBD9
:107EA0006CDC8091E80083FF0AC08091EB00806267
:107EB0008093EB008091E800877F8093E8000F902B
:107EC0000F90CF91DF911F910F91089508951F9307
:107ED0008EB3882361F01091E9001092E90080913F
:107EE000E80083FF01C0E4DE17701093E9001F91E2
:067EF0000895F894FFCF95
:107EF6004341544552494E4100777700080000003F
:107F060000000008011201100102000008EB030442
:107F16002401000201000109023E00020100803234
:107F260009040000010202010005240010010424D6
:107F360002040524060001070582030800FF090460
:107F46000100020A000000070504021000010705EF
:107F5600830210000104030904220342006C006539
:107F6600006E00640020004D006900630072006F1F
:107F760000200020002000200020000000180352EE
:107F86000042004C0020002000200020002000209D
:087F96000020002000000000A3
:040000030000700089
:00000001FF