:100000000C943B010C941B060C94F4050C94CD0548
:100010000C94A6050C9463010C9463010C947F0569
:100020000C9463010C94C3060C94AE0A0C941C0C43
:100030000C9463010C9463010C9463010C946301B0
:100040000C9463010C9463010C9463010C946301A0
:100050000C9463010C9463010C9463010C943505BA
:100060000C9463010C9463010C9463010C94630180
:100070000C9463010C9463010C9463010C94630170
:100080000C9463010C9463010C9463010C94630160
:100090000C9453070C9463010C9463010C9463015A
:1000A0000C9463010C9463010C9463011104140417
:1000B000030407040D0435043504350418041C0436
:1000C000200426042A04350430040000000200093C
:1000D0000F0000030401000C0000000000000000FD
:1000E00000000000000000000044657669636520A0
:1000F00049443A200047593932353020696E6974D5
:1001000069616C697A696E672E2E2E2E0053656EBA
:10011000736F7220656E61626C65643A20004759A6
:100120003932353020636F6E6E656374696F6E208F
:100130007375636365737366756C6C792E004759CC
:100140003932353020636F6E6E656374696F6E206F
:100150006661696C65642E00496E697469616C6CD6
:10016000697A696E672042542053657269616C2018
:10017000706F72742E2E2E0053657269616C20723E
:10018000656164792E0000000000240027002A0029
:100190002D00300000000000250028002B002E005C
:1001A0003100000000002300260029002C002F0051
:1001B000040404040403040502020202040302020C
:1001C00002020606060606060404020202040404ED
:1001D0000802011040804010204080408008020446
:1001E0000180402010020110801020404020080BA8
:1001F00000020202010009040000010202000005E1
:10020000240010010524010101042402060524062E
:1002100000010705810310004009040100020A00E3
:1002200000000705020240000007058302400000AD
:100230000403090441726475696E6F204C4C4300DD
:1002400041726475696E6F204D6963726F001201AF
:100250000002000000404123378000010102030139
:1002600012010002EF020140412337800001010228
:1002700003014211381111241FBECFEFDAE0DEBFB7
:10028000CDBF11E0A0E0B1E0E6E5F5E202C00590E7
:100290000D92A436B107D9F723E0A4E6B1E001C07E
:1002A0001D92A535B207E1F711E0CAE3D1E004C021
:1002B0002197FE010E947F12C933D107C9F70E941E
:1002C000590E0C949E120C940000CF93DF931F9252
:1002D000CDB7DEB76983DC01ED91FC910280F3813B
:1002E000E02D41E050E0BE016F5F7F4F09950F9018
:1002F000DF91CF91089583E08093E9008091F2002F
:10030000882319F08AE38093E8000895FC0184852E
:10031000958597FD0BC09FB7F89482E08093E90024
:100320008091F2009FBF90E0019608959FB7F894E6
:1003300082E08093E9008091F2009FBF90E00895F1
:100340008F929F92AF92BF92CF92DF92EF92FF92E5
:100350000F931F93CF93DF935C016B018A01809110
:100360001901882309F45EC080910702882309F4EB
:1003700059C08091040280FF05C08091E000826036
:100380008093E000E8018AEFF82E93E0E92E2FE356
:10039000822E3AE3932E209709F43DC08FB7F8944C
:1003A000E092E9009091E80095FF06C09091F2007C
:1003B000282D291B922F01C090E08FBF91110AC0F8
:1003C000FA94FF2079F161E070E080E090E00E9413
:1003D000A204E1CF292F30E0C217D3070CF49C2FE1
:1003E0008FB7F894E092E9002091E80025FF11C052
:1003F000292F30E0C21BD30BF601915020F0419120
:100400004093F100FACFC20ED31E9091E80095FF01
:1004100013C08FBFC0CF5D9A84E68093050210168B
:10042000110644F081E090E0F5019383828380E03F
:1004300090E005C0C80103C09092E800EACFDF91C8
:10044000CF911F910F91FF90EF90DF90CF90BF90D1
:10045000AF909F908F900895CF93DF931F92CDB769
:10046000DEB7FC018485958597FD05C02FEF3FEF32
:10047000358724870BC0CE0101960E94700A019730
:1004800019F4898190E002C08FEF9FEF0F90DF9108
:10049000CF9108950F931F93CF93DF931F92CDB702
:1004A000DEB78C01FC018485958597FF0EC0CE01D7
:1004B00001960E94700A019719F4298130E002C068
:1004C0002FEF3FEFF80135872487F8018485958564
:1004D0000F90DF91CF911F910F9108950E94991273
:1004E0003FB7F8948091000290910102A09102021E
:1004F000B091030226B5A89B05C02F3F19F00196C5
:10050000A11DB11D3FBFBA2FA92F982F8827820F99
:10051000911DA11DB11DBC01CD0142E0660F771FE9
:10052000881F991F4A95D1F7089508952091660173
:10053000309167012817390771F490916401809117
:100540006501981741F0E0916401F0E0E554FE4F39
:10055000808190E008958FEF9FEF089508951F9395
:10056000CF93DF93DC015C962D913C915D97211533
:10057000310539F481E090E013969C938E931297A5
:100580003DC05196ED91FC91529750969C91509799
:10059000892F80951FB75E964C915E9741FB772718
:1005A00070F941FD6095F8944081772311F0492B53
:1005B00001C048234083E9012197F1F748E05081C9
:1005C00060FF02C0592B01C058235083E9012197D5
:1005D000F1F76695415099F7772321F090818923AF
:1005E000808303C08081982B90831FBF5C968D9180
:1005F0009C915D970197F1F721E030E0C901DF910F
:10060000CF911F91089520916601309167012817BD
:10061000390771F4809165012091640190E0805C5C
:100620009F4F821B910960E470E00E944912089577
:1006300080E090E0089520916601309167012817CD
:100640003907B9F49091640180916501981789F098
:10065000E0916401F0E0E554FE4F80812091640157
:1006600030E02F5F3F4F2F7333272093640190E0DA
:1006700008958FEF9FEF089585ED8093BC008091E2
:10068000BC0084FDFCCF1092500208954091960169
:10069000262F30E0240F311D21323105DCF420916A
:1006A00050022430C9F4FC0180E090E0861758F431
:1006B000309196012191DC01AC58BE4FA30FB11DC2
:1006C0002C930196F3CF80919601680F6093960169
:1006D00080E0089581E0089582E008950895E09112
:1006E000090280910802E81730F4F0E0E65FFD4F60
:1006F000808190E008958FEF9FEF08959091090217
:1007000080910802981750F4E92FF0E0E65FFD4F62
:10071000208130E09F5F9093090202C02FEF3FEFEE
:10072000C90108958091080290E020910902821B7E
:1007300091090895CF92DF92EF92FF920F931F934A
:10074000CF93DF937C01262F972F8A01809151024E
:10075000882391F0C62FD72F6E01C40ED51ECC155D
:10076000DD0571F06991D701ED91FC910190F08167
:10077000E02DC7010995F3CF642F822F0E94460315
:10078000C801DF91CF911F910F91FF90EF90DF9003
:10079000CF900895CF93DF931F92CDB7DEB76983D3
:1007A000209151022223D1F020917302203240F097
:1007B00021E030E0FC013383228380E090E015C02B
:1007C00080915202E82FF0E0ED5AFD4F998190831D
:1007D0008F5F809352028093730205C061E0CE0167
:1007E00001960E94460381E090E00F90DF91CF9147
:1007F000089590E0FC013197EF30F105B0F5EA5A29
:10080000FF4F0C947F12809180008F7703C08091FE
:1008100080008F7D80938000089580918000877F85
:10082000F9CF84B58F7702C084B58F7D84BD0895DC
:10083000809190008F7707C0809190008F7D03C0DA
:1008400080919000877F8093900008958091C000F0
:100850008F7703C08091C0008F7D8093C000089582
:100860008091C200877F8093C20008951F93CF9329
:10087000DF93282F30E0F901E653FF4F8491F9010F
:10088000E153FE4FD491F901E055FE4FC491CC23C2
:10089000C9F0162F81110E94F903EC2FF0E0EE0F42
:1008A000FF1FEC56FE4FA591B4918FB7F89411112C
:1008B00005C09C91ED2FE095E92302C0EC91ED2B52
:1008C000EC938FBFDF91CF911F910895CF93DF936A
:1008D00090E0FC01E153FE4F2491FC01E055FE4FF6
:1008E0008491882361F190E0880F991FFC01EA57F9
:1008F000FE4FC591D491FC01EC56FE4FA591B491E9
:10090000611109C09FB7F89488812095822388835C
:10091000EC912E230BC0623061F49FB7F8943881BC
:10092000822F809583238883EC912E2B2C939FBF5D
:1009300006C08FB7F894E8812E2B28838FBFDF91F4
:10094000CF9108958F929F92AF92BF92CF92DF92F4
:10095000EF92FF926B017C010E9470024B015C01DF
:10096000C114D104E104F104F1F00E947002DC0131
:10097000CB0188199909AA09BB09883E9340A105B2
:10098000B10570F321E0C21AD108E108F10888EE40
:10099000880E83E0981EA11CB11CC114D104E1048F
:1009A000F10419F7DDCFFF90EF90DF90CF90BF906B
:1009B000AF909F908F9008952FB7F8946091FC01AD
:1009C0007091FD018091FE019091FF012FBF08956C
:1009D0000F931F930E94DC04609370017093710168
:1009E000809372019093730100916C0110916D01DD
:1009F00020916E0130916F01DC01CB01801B910BC6
:100A0000A20BB30B86399105A105B10558F187E515
:100A100091E00E94DE0884E591E00E94DE0880916A
:100A2000700190917101A0917201B0917301809356
:100A30006C0190936D01A0936E01B0936F01809152
:100A40000A0190910B01A0910C01B0910D0101964A
:100A5000A11DB11D80930A0190930B01A0930C017D
:100A6000B0930D011F910F9108951F920F920FB631
:100A70000F9211242F933F938F939F93AF93BF9324
:100A80008091FC019091FD01A091FE01B091FF01C8
:100A90003091FB0123E0230F2D3720F40196A11D97
:100AA000B11D05C026E8230F0296A11DB11D20939C
:100AB000FB018093FC019093FD01A093FE01B09394
:100AC000FF018091000290910102A0910202B09179
:100AD00003020196A11DB11D8093000290930102B3
:100AE000A0930202B0930302BF91AF919F918F91A7
:100AF0003F912F910F900FBE0F901F9018951F924E
:100B00000F920FB60F9211242F933F934F935F9341
:100B10006F937F938F939F93AF93BF93EF93FF93C5
:100B2000E0910801F09109010995FF91EF91BF91C2
:100B3000AF919F918F917F916F915F914F913F9175
:100B40002F910F900FBE0F901F9018951F920F922C
:100B50000FB60F9211242F933F934F935F936F9390
:100B60007F938F939F93AF93BF93EF93FF93E09106
:100B70000601F09107010995FF91EF91BF91AF91A7
:100B80009F918F917F916F915F914F913F912F91A5
:100B90000F900FBE0F901F9018951F920F920FB6D7
:100BA0000F9211242F933F934F935F936F937F93F3
:100BB0008F939F93AF93BF93EF93FF93E0910401C3
:100BC000F09105010995FF91EF91BF91AF919F9130
:100BD0008F917F916F915F914F913F912F910F90E6
:100BE0000FBE0F901F9018951F920F920FB60F9285
:100BF00011242F933F934F935F936F937F938F9322
:100C00009F93AF93BF93EF93FF93E0910201F09115
:100C100003010995FF91EF91BF91AF919F918F9142
:100C20007F916F915F914F913F912F910F900FBEE8
:100C30000F901F9018951F920F920FB60F921124CC
:100C40002F933F934F935F936F937F938F939F93D4
:100C5000AF93BF93EF93FF93E0910001F0910101F7
:100C60000995FF91EF91BF91AF919F918F917F91E6
:100C70006F915F914F913F912F910F900FBE0F9009
:100C80001F901895DF92EF92FF920F931F93CF93CF
:100C9000DF9300D0CDB7DEB7182FF62EE42ED22E7C
:100CA00028EE33E0AE014E5F5F4F0E94F6088823C6
:100CB00049F14E2D50E04D1951094F5F5F4F21E032
:100CC00030E002C0220F331FDA94E2F721503109DD
:100CD000042E01C0220F0A94EAF7802F01C0880F6A
:100CE0004A95EAF7022F00959A8109232823202BA1
:100CF0002A832983AE014F5F5F4F6F2D812F0E94A2
:100D00001D0A01C080E00F900F90DF91CF911F91DD
:100D10000F91FF90EF90DF900895EF92FF920F9365
:100D20001F93CF93DF9300D0CDB7DEB7182F062FD8
:100D3000F42EE22E28EE33E0AE014E5F5F4F0E94AC
:100D4000F6083A81E1E0F0E0AF0101C0440FFA9407
:100D5000EAF7EE2019F0932F942B03C0942F90956F
:100D600093239A839983AE014F5F5F4F602F812F4A
:100D70000E941D0A0F900F90DF91CF911F910F914C
:100D8000FF90EF9008951F920F920FB60F921124CB
:100D90002F933F934F935F936F937F938F939F9383
:100DA000AF93BF93EF93FF93E0916601F0916701DA
:100DB000309709F451C0968DA685B785858591FF3A
:100DC00004C09C91892329F447C09C91892309F090
:100DD00043C0A389B4899C918589809589238C938C
:100DE000868997890197F1F7608D718DA685B78502
:100DF000558538E020E0CB010197F1F7822F90E094
:100E000095958795282F4C91452309F020683150FE
:100E100091F7868D81FD20958091650190E0019686
:100E20008F73992730916401381749F0A0916501BB
:100E3000B0E0A554BE4F2C938093650103C0868D0E
:100E40008160868F828D938D0197F1F7A389B48994
:100E50009C918589892B8C93FF91EF91BF91AF91E4
:100E60009F918F917F916F915F914F913F912F91C2
:100E70000F900FBE0F901F901895E0916601F091B2
:100E80006701E817F90769F4A389B4899C918589FA
:100E9000809589238C93109267011092660181E0FE
:100EA000089580E008951F920F920FB60F921124BB
:100EB0002F933F934F935F936F937F938F939F9362
:100EC000AF93BF93EF93FF938091B900887F8036F3
:100ED00009F49CC068F5883209F45BC090F4803155
:100EE00009F454C038F4882309F4F6C0883009F4B2
:100EF0004DC0F6C0883109F44CC0803209F45DC0A1
:100F0000EFC0803409F468C048F4803309F455C058
:100F1000883309F0E5C080934E02D8C0803509F4CB
:100F20004FC0883509F45DC0883409F0D9C0D6C0F7
:100F3000883909F4C7C0A8F4883709F467C038F4C1
:100F4000883609F463C0803709F460C0C9C08838A6
:100F500009F4B8C0803909F45FC0803809F0C0C016
:100F60005BC0803B09F486C038F4803A09F466C05F
:100F7000883A09F47FC0B4C0803C09F4A7C0883C1B
:100F800009F4A4C0883B09F48AC0AAC080912B024E
:100F900010C090914D0280914C02981770F5E0912D
:100FA0004D0281E08E0F80934D02F0E0E45DFD4F35
:100FB00080818093BB0085EC86C080934E028EC0FA
:100FC000E0914D0281E08E0F80934D028091BB0035
:100FD000F0E0E45DFD4F808390914D0280914C02E2
:100FE0006EC0E0914D0281E08E0F80934D028091A2
:100FF000BB00F0E0E45DFD4F808380914F028111E2
:101000006DC081E080932A0284EA61C083E080930E
:1010100050021092BA01CFCF8091BA01803208F00D
:1010200051C0E091BA0181E08E0F8093BA018091A6
:10103000BB00F0E0E656FE4F8083BDCF85EC809389
:10104000BC00109250028091BA01803230F4E091DD
:10105000BA01F0E0E656FE4F10826091BA0170E0EE
:10106000E0919801F09199018AE991E00995109237
:10107000BA0136C084E0809350021092970110921A
:101080009601E0919401F091950109958091960166
:10109000811105C081E08093960110927401E09166
:1010A000970181E08E0F80939701F0E0EC58FE4F9E
:1010B00080818093BB009091970180919601981751
:1010C00008F479CF85E88093BC000AC085EC809352
:1010D000BC001092500204C010924E020E943C03C9
:1010E000FF91EF91BF91AF919F918F917F916F9100
:1010F0005F914F913F912F910F900FBE0F901F90D6
:1011000018952091730290914103213208F04AC052
:10111000809150028111FCCF32E03093500231E0D7
:1011200030934F023FEF30934E0210924D022093C6
:101130004C02A3E5B2E04CE252E0FA013E2F341B30
:10114000321718F43D913193F9CF10922B02209170
:101150002B02990F922B90932B0290912A0291309F
:1011600061F410922A0290912B029093BB0090910F
:10117000BC0093FDF8CF95EC01C095EE9093BC00B8
:10118000909150029230E1F390914E029F3F79F09E
:1011900080914E02803241F080914E02803331F0D6
:1011A00084E005C081E003C082E001C083E01092CA
:1011B000520210927302109251020895BC010097DE
:1011C00091F0FC0101900020E9F73197AF01481B35
:1011D000590BE0917402F09175020280F381E02DC9
:1011E00084E792E0099480E090E008954F925F9246
:1011F0006F927F928F929F92AF92BF92CF92DF9227
:10120000EF92FF920F931F93CF93DF93C82FD62EA9
:101210007A0189010E94DC044B015C01D1E0D0938A
:101220005102C093410310925202109273026D2D2D
:1012300082E493E00E94CA030E948108D093510285
:101240001092520210927302809150028111FCCFD1
:1012500081E08093500280934F029FEF90934E0263
:1012600010924D0210924C0280932B0280912B021F
:10127000CC0FC82BC0932B0280912A02813061F4DD
:1012800010922A0280912B028093BB008091BC00B7
:1012900083FDF8CF85EC01C085EE8093BC00809182
:1012A00050028130E1F380914D02811103C08091A1
:1012B0004D0201C081E0ACE2B2E02AE032E0F90187
:1012C0009E2F921B981718F49D919193F9CF10922D
:1012D000090280930802C0E02801612C712C9091D2
:1012E0000802809109029817E9F00115110569F4C7
:1012F0006701CC0ED11CC7FDDA9482E493E00E9412
:101300007E03F6018083CF5FEACF0E94DC04DC011C
:10131000CB0188199909AA09BB0984159505A60569
:10132000B70530F30E9481080115110591F00E9464
:10133000DC04DC01CB0188199909AA09BB0920E06A
:1013400030E080179107A207B30718F01C160CF0C5
:10135000CFEF8C2FDF91CF911F910F91FF90EF90E6
:10136000DF90CF90BF90AF909F908F907F906F90C5
:101370005F904F9008958F929F92AF92BF920F937C
:101380001F93CF93DF93CDB7DEB7A1970FB6F89435
:10139000DEBF0FBECDBF19A2423008F44AE08E0175
:1013A0000F5D1F4F842E912CA12CB12CA50194010F
:1013B0000E945D12E62FB901CA0101501109EA30FD
:1013C00014F4E05D01C0E95CD801EC93232B242BDD
:1013D000252B61F7C8010E94DE08A1960FB6F8948C
:1013E000DEBF0FBECDBFDF91CF911F910F91BF9098
:1013F000AF909F908F9008950F931F93CF93DF939B
:101400008C01C0E0D0E0F801EC0FFD1F6491662371
:1014100071F0E0917402F09175020190F081E02D7D
:1014200084E792E00995892B11F02196ECCFCE014B
:10143000DF91CF911F910F910895CF93DF93EA0130
:1014400091E09093510280934103109252021092C6
:10145000730282E493E00E94CA03688182E493E00D
:101460000E94CA030E94810891E0811190E0892FB7
:10147000DF91CF910895CF93DF930E94FC09EC0197
:1014800084E591E00E94DE088C0F9D1FDF91CF91D3
:101490000895CF92DF92EF92FF92CF93DF936B018B
:1014A0007C01E0917402F09175020190F081E02DD1
:1014B0006DE284E792E00995EC0166277727CB017E
:1014C0006C197D098E099F094AE00E94BB098C0FA7
:1014D0009D1FDF91CF91FF90EF90DF90CF90089507
:1014E000FC0180910702811103C08FEF9FEF0895E7
:1014F0009FB7F89482E08093E9002091F20030E0F9
:101500001216130614F421E030E02115310559F0CC
:10151000289A84E6809306028091F100808380916E
:10152000F200882319F09FBFC90108958BE68093CC
:10153000E800F9CF8091390381110DC082E08093DA
:10154000350384E0809336031092380310923703FA
:1015500081E08093390385E393E008951F920F9211
:101560000FB60F9211248F939F938091E100909179
:10157000E100937F9093E10083FF0FC01092E90098
:1015800091E09093EB001092EC0092E39093ED00C9
:101590001092070298E09093F00082FF20C093E041
:1015A0009093E9009091F200992319F09AE39093B7
:1015B000E80090910502992339F09091050291502D
:1015C00090930502992389F190910602992339F0AD
:1015D00090910602915090930602992341F184FF65
:1015E00010C08091E2008E7E81608093E200809145
:1015F000E1008F7E8093E100809104028E7E806105
:1016000011C080FF16C08091E2008E7E80618093C1
:10161000E2008091E1008E7E8093E10080910402DF
:101620008E7E81608093040204C05D98CDCF28989F
:10163000D6CF9F918F910F900FBE0F901F9018954E
:101640004091530350915403209151033091520320
:1016500042175307B4F49091E8009570E1F390912C
:10166000E80092FD19C08093F1008091530390919E
:10167000540301968F739927892B19F48EEF809369
:10168000E800809153039091540301969093540382
:101690008093530381E0089580E00895CF92DF9214
:1016A000EF92FF920F931F93CF93DF931F92CDB7CB
:1016B000DEB7182F062FE42E862F880F8E5F9983B2
:1016C0000E94200B83E00E94200BF12EC12E9981F5
:1016D000D92E8C2D8F19801798F4F601E7FE02C0E1
:1016E000849101C080810E94200B182F80E00E940D
:1016F000200B8123FFEFCF1ADF0A8111EACF01C04F
:1017000081E00F90DF91CF911F910F91FF90EF90AB
:10171000DF90CF900895DF92EF92FF920F931F9387
:10172000CF93DF93D82E8A017B01E40EF51EEB01E7
:10173000CE15DF0571F0D7FE03C0FE01849101C014
:1017400088810E94200B21968111F2CF8FEF9FEFAD
:1017500001C0C801DF91CF911F910F91FF90EF90D1
:10176000DF900895615030F02091F100FC0120835A
:101770000196F8CF289A84E6809306020895CF92C6
:10178000DF92EF92FF920F931F93CF93DF936C0141
:101790007A018B01C0E0D0E0CE15DF0589F0D801D9
:1017A0006D918D01D601ED91FC910190F081E02DBC
:1017B000C6010995892B11F47E0102C02196ECCF58
:1017C000C701DF91CF911F910F91FF90EF90DF90B4
:1017D000CF9008950F931F93CF93DF931F92CDB7B0
:1017E000DEB782E0898342E450E06EEE71E080E88B
:1017F0000E948B0B0E949A0ADC0112960D911C919B
:1018000013970115110569F0D801ED91FC91028043
:10181000F381E02DBE016F5F7F4FC801099597FFEF
:1018200007C089810F90DF91CF911F910F9108958B
:10183000F80100851185E5CF1F920F920FB60F9228
:101840001124CF92DF92EF92FF920F931F932F9369
:101850003F934F935F936F937F938F939F93AF9338
:10186000BF93EF93FF93CF93DF93CDB7DEB76C9722
:10187000DEBFCDBF1092E9008091E80083FFFAC17E
:1018800068E0CE0145960E94B20B82EF8093E8009B
:101890008D8987FF05C09091E80090FFFCCF03C0C1
:1018A0009EEF9093E800982F907609F0C6C09E892D
:1018B0002F89188D91110CC0803829F480914F0325
:1018C0008093F10002C01092F1001092F10047C124
:1018D000422F50E0512B913051F4811140C14130E1
:1018E000510509F03CC180914F038D7F0BC09330AF
:1018F00061F4811134C14130510509F030C180914A
:101900004F03826080934F032AC1953041F4809148
:10191000E80080FFFCCF20682093E30020C19630D0
:1019200009F05FC0EB8CFC8C1092E900109254031C
:1019300010925303123091F51092520310925103FA
:101940000E94EA0B99E0BE016F5F7F4FDB01E92F38
:101950001D92EA95E9F799831A8391E09E8390EAB4
:1019600098879AEF99872091530330915403275F0A
:101970003F4F3C832B838D831092E90010925403D8
:1019800010925303F0925203E092510349E050E069
:1019900080E00E948B0B0E94EA0BE1C0F0925203A0
:1019A000E09251030E949A0ADC011296ED90FC909D
:1019B0001397E114F10409F4C0C0D701ED91FC9133
:1019C0000480F581E02DBE016B5E7F4FC701099554
:1019D000009719F00CF0C3C0C6C0F701E084F18491
:1019E000E8CF973009F4BFC0983021F481E08093AC
:1019F000F100B5C0993009F0B2C0837009F0B3C0EE
:101A0000EBE4F1E081E021E036E39081992361F09D
:101A10008093E9002093EB0091919093EC00309338
:101A2000ED008F5F873089F78EE78093EA00109290
:101A3000EA008F898093070292C08B8D9C8D109253
:101A4000E900109254031092530390935203809331
:101A50005103898D811156C08E899D89913A59F41F
:101A6000813209F080C047E050E062E171E080E03F
:101A70000E948B0B74C0913209F075C0833289F4D7
:101A8000888D90E0982F88272F89822BA0E0B0E0E6
:101A900080930E0190930F01A0931001B093110158
:101AA0005EC0803269F48091E80082FFFCCF67E07D
:101AB00082E191E00E94B20B8BEF8093E80006C0B8
:101AC000823209F04CC08F898093190180914E03B6
:101AD000882319F0EEEFFAE002C0E0E0F8E0809130
:101AE000120190911301A0911401B0911501803B56
:101AF0009440A105B10509F088C08091190180FFCB
:101B0000A0C083C00E949A0ADC0112960D911C911C
:101B100013970115110539F1D801ED91FC91019050
:101B2000F081E02DBE016B5E7F4FC80109958111E8
:101B300016C0F80100851185ECCF1130C1F01330CB
:101B400091F48F89882309F455C08230E9F440E884
:101B50006DE080E492E00E944E0B882321F08EEF2E
:101B60008093E80087C081E28093EB0083C08B8D77
:101B70009C8D089711F410935003809150038111AC
:101B800036C06EE472E038C0813029F440E86BE082
:101B900084E392E0E0CF833031F70E949A0ADC01BF
:101BA0001296ED90FC9013978E010F5F1F4F680106
:101BB000E114F10479F0D701ED91FC910680F781F1
:101BC000E02DB801C7010995080F111DF701E08448
:101BD000F184EECFD8011C92F60101900020E9F7C4
:101BE0003197BF016C197D0940E0C601B4CF60E6B2
:101BF00072E002C060E372E06115710509F4B3CFD1
:101C0000FB01449150E080E833CF0FB6F894A895DB
:101C100080916000886180936000109260000FBE28
:101C2000A895EE3F2AE0F20739F08091FE0A9091E4
:101C3000FF0A9183808393CF1092FF0A1092FE0ACD
:101C40008ECFEE3F8AE0F80731F08081918190934A
:101C5000FF0A8093FE0A87E797E7918380839BE0E2
:101C600088E10FB6F894A895809360000FBE90931A
:101C7000600075CF6C960FB6F894DEBF0FBECDBF77
:101C8000DF91CF91FF91EF91BF91AF919F918F9194
:101C90007F916F915F914F913F912F911F910F9184
:101CA000FF90EF90DF90CF900F900FBE0F901F909E
:101CB0001895CF93DF93CDB7DEB72A970FB6F89478
:101CC000DEBF0FBECDBF789484B5826084BD84B57D
:101CD000816084BD85B5826085BD85B5816085BD27
:101CE00080916E00816080936E00109281008091DF
:101CF0008100826080938100809181008160809367
:101D000081008091800081608093800080919100AB
:101D10008260809391008091910081608093910016
:101D2000809190008160809390008091C1008460D8
:101D30008093C1008091C10082608093C100809136
:101D4000C10081608093C1008091C3008160809355
:101D5000C3008091C00082608093C0008091C20067
:101D600081608093C20080917A00846080937A00C1
:101D700080917A00826080937A0080917A008160FD
:101D800080937A0080917A00806880937A00109224
:101D9000070210924F03109204028091D7008160D5
:101DA0008093D70080EA8093D80089B5806189BD8F
:101DB00089B5826089BD09B400FEFDCF61E070E0A5
:101DC00080E090E00E94A2048091D8008F7C806126
:101DD0008093D8008091E000807F8093E000809124
:101DE000E1008E7E8093E1008DE08093E200559AC1
:101DF000209A5D982898EEEFFFE7859194918B3FAC
:101E00009C4D19F481E080934E0361E08DE00E94C7
:101E1000660461E082E10E94660462E087E00E945D
:101E2000660461E08DE00E94360461E082E10E9478
:101E3000360488EE94E09093090180930801809124
:101E40006A008F7C806280936A00EE9A8FEF9FEF2A
:101E5000909381028093800201ED10E056EDE52E13
:101E600051E0F52E67EBC62E61E0D62EB090190139
:101E70006AE070E080E090E00E94A204B11017C018
:101E8000F8018491F701A490F601B490BB2079F099
:101E900081110E94F9038B2D90E0880F991F8E55B8
:101EA0009E4FFC01A591B4918C91A822F9F688E788
:101EB00091E00E943B0A88E591E00E94FC091092A3
:101EC000DF021092DE021092DD021092DC0210920C
:101ED000DB021092DA028DE991E09093E1028093A7
:101EE000E0028091D00298EF980F943048F022EFF2
:101EF000280F243028F026EE280F233008F060C089
:101F00002DEB30E03093DB022093DA022BE931E055
:101F10003093DD022093DC022CE231E03093DF02CB
:101F20002093DE02943058F092EF980F943038F0FE
:101F30008A51833008F494C1A0E0B0E093C1A8E6D0
:101F4000B0E0E8E6F0E0808181608C938091D0027F
:101F500098EF980F943058F022EF280F243038F083
:101F600026EE280F233018F020E030E002C02BE6E8
:101F700030E03093D8022093D702943010F49CEFD5
:101F800009C08E3071F08F3071F0803171F0813185
:101F900071F09AEE980F81E001C0880F9A95EAF7E8
:101FA00007C088E005C082E003C084E001C081E092
:101FB0008093D9028091E0029091E1020197F1F7BC
:101FC0008091DE029091DF02892B21F180916601E0
:101FD00090916701F2E0843C9F07E1F0009711F0D7
:101FE0000E943D078091E2028E7F8093E202109270
:101FF00065011092640184EC92E0909367018093F4
:102000006601E091D702F091D80290818091D902C7
:10201000892B808381E591E00E94DE0884E591E0D0
:102020000E94DE0885EF90E00E943B0A01E023E079
:1020300042E06BE6809125030E94420600E022E028
:1020400044E06BE1809125030E94420622E044E0D7
:102050006CE1809125030E94420620E046E06BE699
:10206000809125030E948D0668EE73E080E090E089
:102070000E94A20489EE90E00E94FC0928EE33E061
:10208000AE014F5F5F4F65E7809125030E94F60820
:10209000882329F089818F7790E0809326036091CF
:1020A000260370E080E090E040E10E94BB0984E5F7
:1020B00091E00E94DE0828EE33E0AE014F5F5F4FF3
:1020C00065E7809125030E94F608882329F089811D
:1020D0008F7790E08093260380912603813729F043
:1020E0008EE391E00E943B0A9DCF8EE191E00E9439
:1020F0003B0A83E08093340320E045E06CE6809166
:1021000025030E948D0620E044E06CE680912503C3
:102110000E948D0620E043E06CE6809125030E943A
:102120008D068091340381FF15C020E042E06CE60B
:10213000809125030E948D0620E041E06CE68091AD
:1021400025030E948D0620E040E06CE68091250387
:102150000E948D068DE091E00E94FC09609134039D
:10216000617070E080E090E04AE00E94BB096091FD
:102170003403627070E080E090E04AE00E94BB09A6
:1021800084E591E00E94DE088E01055F1F4F80E02C
:10219000A82E80E0B82E91E1892E982C9A8289820F
:1021A00080910A0190910B01A0910C01B0910D0159
:1021B0008B839C83AD83BE83C0906801D0906901FE
:1021C000E0906A01F0906B01CF82D886E986FA86AA
:1021D000CE0101963C016016710641F0F301619158
:1021E0003F0184EC92E00E94AF02F5CFFFEFCF1ADF
:1021F000DF0AEF0AFF0AC0926801D0926901E092FB
:102200006A01F0926B0184E792E00E948601892BBB
:1022100051F084E792E00E942C02682F84EC92E057
:102220000E94AF02F0CF84EC92E00E940303892B5E
:1022300051F084EC92E00E941B03682F84E792E047
:102240000E946501F0CF68EE73E080E090E00E94AC
:10225000A204A114B10409F4A1CF0E9400009ECFF2
:10226000A8E6B0E0833008F46CCEE0E0F0E06BCE9E
:102270008EE391E09093C5028093C40284EC92E0D7
:102280000C943D07CF93DF93109277021092760261
:1022900088EE93E0A0E0B0E080937802909379021A
:1022A000A0937A02B0937B022EE131E03093750265
:1022B000209374022FEF3FEF30938102209380022E
:1022C0001092450310924403809346039093470372
:1022D000A0934803B09349032EE231E030934303C7
:1022E000209342031092E3021092E4021092E5025E
:1022F0001092E6021092E7021092E8021092E902B0
:102300001092EA021092EB021092EC021092ED028F
:102310001092EE021092EF021092F0021092F1026F
:102320001092F2021092F3021092F4021092F5024F
:102330001092F6021092F7021092F8021092F9022F
:102340001092FA021092FB021092FC021092FD020F
:102350001092FE021092FF021092000310920103ED
:1023600010920203109203031092040310920503CB
:1023700010920603109207031092080310920903AB
:1023800010920A0310920B0310920C0310920D038B
:1023900010920E0310920F0310921003109211036B
:1023A0001092120322E1E3E1F3E0EF0119922A9582
:1023B000E9F728E620932503109234031092C70210
:1023C0001092C6028093C8029093C902A093CA02D9
:1023D000B093CB028EE391E09093C5028093C40248
:1023E0001092DB021092DA021092DD021092DC02EF
:1023F0001092DF021092DE021092E1021092E002CF
:102400006091E2026E7F6D7F6093E202669561707B
:1024100081E0682786E10E94360461E086E10E943F
:102420006604E5EEF1E0E491E093D402E6ECF1E03D
:10243000E491F0E0EE0FFF1FEC56FE4F8591949172
:102440009093D6028093D50260E087E10E946604F3
:102450008091E20281FD04C061E087E10E943604C0
:1024600087E18093D002E6EEF1E0E491E093D102BF
:10247000E7ECF1E0E491F0E0EE0FFF1FEE55FE4FC8
:10248000859194919093D3028093D202DF91CF9162
:10249000089597FB072E16F4009407D077FD09D016
:1024A0000E94851207FC05D03EF4909581959F4FC0
:1024B0000895709561957F4F0895A1E21A2EAA1B89
:1024C000BB1BFD010DC0AA1FBB1FEE1FFF1FA217E4
:1024D000B307E407F50720F0A21BB30BE40BF50BE1
:1024E000661F771F881F991F1A9469F7609570956A
:1024F000809590959B01AC01BD01CF010895EE0F31
:10250000FF1F0590F491E02D0994AA1BBB1B51E11C
:1025100007C0AA1FBB1FA617B70710F0A61BB70B53
:10252000881F991F5A95A9F780959095BC01CD01F8
:10253000089581E090E0F8940C949E1211E0CAE3B3
:10254000D1E004C0FE010E947F122196CB33D10757
:06255000C9F7F894FFCF6B
:102556009502950295029502950278563412FFFF70
:10256600FFFF00E100000000000000000000650120
:10257600A00186012C024A027B0100000000CA036A
:102586009A0392037E036F036E0300000000AF02FE
:10259600BF0B03031B039602AE0200C1808100003D
:1025A600004F4B000D0A0062746E2074696D652041
:0425B6006F6E000044
:00000001FF
