:100000000C9432010C9409060C94E2050C94BB0587
:100010000C9494050C945A010C945A010C946D059F
:100020000C945A010C94CA070C94F00B0C94210DFB
:100030000C945A010C945A010C945A010C945A01D4
:100040000C945A010C945A010C945A010C945A01C4
:100050000C945A010C945A010C945A010C942305E7
:100060000C945A010C945A010C945A010C945A01A4
:100070000C945A010C945A010C945A010C945A0194
:100080000C945A010C945A010C945A010C945A0184
:100090000C945A080C945A010C945A010C945A016D
:1000A0000C945A010C945A010C945A01DE03E1039A
:1000B000D003D403D803020402040204E503E903D5
:1000C000ED03F303F7030204FD0300000000240026
:1000D00027002A002D0030000000000200090F0058
:1000E00000030401000C00000000000000000000FC
:1000F0000000000000000044657669636520494403
:100100003A200047593932353020696E6974696187
:100110006C697A696E672E2E2E2E0053656E736F92
:100120007220656E61626C65643A2000475939320D
:10013000353020636F6E6E656374696F6E20737502
:10014000636365737366756C6C792E004759393239
:10015000353020636F6E6E656374696F6E20666103
:10016000696C65642E00496E697469616C6C697AAA
:10017000696E672042542053657269616C20706F0C
:1001800072742E2E2E0053657269616C2072656147
:1001900064792E0000000000250028002B002E00AE
:1001A0003100000000002300260029002C002F0051
:1001B000040404040403040502020202040302020C
:1001C00002020606060606060404020202040404ED
:1001D0000802011040804010204080408008020446
:1001E0000180402010020110801020404020080BA8
:1001F00000020202010009040000010202000005E1
:10020000240010010524010101042402060524062E
:1002100000010705810310004009040100020A00E3
:1002200000000705020240000007058302400000AD
:100230000403090412010002EF0201404123378048
:1002400000010102030141726475696E6F204C4C1C
:10025000430041726475696E6F204D6963726F006F
:100260005C13510F11241FBECFEFDAE0DEBFCDBF0C
:1002700011E0A0E0B1E0E2E3FFE202C005900D92E0
:10028000AC36B107D9F723E0ACE6B1E001C01D926E
:10029000AA35B207E1F711E0C1E3D1E004C021972C
:1002A000FE010E946D17C033D107C9F70E945B0F92
:1002B0000C948C170C940000CF93DF931F92CDB752
:1002C000DEB76983DC01ED91FC910280F381E02DC2
:1002D00041E050E0BE016F5F7F4F09950F90DF91C5
:1002E000CF91089583E08093E9008091F200882304
:1002F00019F08AE38093E8000895FC0184859585D0
:1003000097FD0BC09FB7F89482E08093E90080913D
:10031000F2009FBF90E0019608959FB7F89482E0A5
:100320008093E9008091F2009FBF90E008953FB76D
:10033000F8948091220290912302A0912402B0911E
:10034000250226B5A89B05C02F3F19F00196A11DD7
:10035000B11D3FBFBA2FA92F982F8827820F911D5B
:10036000A11DB11DBC01CD0142E0660F771F881FA2
:10037000991F4A95D1F708952FB7F89460911E02FE
:1003800070911F0280912002909121022FBF089549
:10039000089580911C0290E020911B02821B91091C
:1003A000089520912802309129022817390771F405
:1003B0009091260280912702981741F0E091260241
:1003C000F0E0E554FE4F808190E008958FEF9FEFBD
:1003D000089508951F93CF93DF93DC015C962D91D0
:1003E0003C915D972115310539F481E090E0139639
:1003F0009C938E9312973DC05196ED91FC9152972C
:1004000050969C915097892F80951FB75E964C917E
:100410005E9741FB772770F941FD6095F894408124
:10042000772311F0492B01C048234083E90121972C
:10043000F1F748E0508160FF02C0592B01C05823FA
:100440005083E9012197F1F76695415099F7772399
:1004500021F090818923808303C08081982B908331
:100460001FBF5C968D919C915D970197F1F721E0FC
:1004700030E0C901DF91CF911F91089520912802AA
:10048000309129022817390771F4809127022091B1
:10049000260290E0805C9F4F821B910960E470E02F
:1004A0000E943717089580E090E008952091280277
:1004B0003091290228173907B9F4909126028091CA
:1004C0002702981789F0E0912602F0E0E554FE4FEC
:1004D00080812091260230E02F5F3F4F2F7333271A
:1004E0002093260290E008958FEF9FEF089585ED09
:1004F0008093BC008091BC0084FDFCCF109256021A
:10050000089540919601262F30E0240F311D2132AD
:100510003105DCF4209156022430C9F4FC0180E05E
:1005200090E0861758F4309196012191DC01AC5887
:10053000BE4FA30FB11D2C930196F3CF809196016E
:10054000680F6093960180E0089581E0089582E04D
:1005500008950895E0911B0280911C02E81730F481
:10056000F0E0E550FE4F808190E008958FEF9FEF1F
:10057000089590911B0280911C02981750F4E92F66
:10058000F0E0E550FE4F208130E09F5F90931B022A
:1005900002C02FEF3FEFC9010895CF92DF92EF9293
:1005A000FF920F931F93CF93DF937C01262F972FFA
:1005B0008A0180915702882391F0C62FD72F6E01B0
:1005C000C40ED51ECC15DD0571F06991D701ED91F2
:1005D000FC910190F081E02DC7010995F3CF642FC4
:1005E000822F0E948102C801DF91CF911F910F914C
:1005F000FF90EF90DF90CF900895CF93DF931F92FD
:10060000CDB7DEB76983209157022223D1F0209124
:100610007A02203240F021E030E0FC013383228373
:1006200080E090E015C080915802E82FF0E0E75A92
:10063000FD4F998190838F5F8093580280937A0257
:1006400005C061E0CE0101960E94810281E090E048
:100650000F90DF91CF9108950F931F93CF93DF9366
:100660001F92CDB7DEB78C01FC018485958597FF7D
:100670000EC0CE0101960E94B20B019719F4298198
:1006800030E002C02FEF3FEFF80135872487F801F3
:10069000848595850F90DF91CF911F910F910895DB
:1006A000CF93DF931F92CDB7DEB7FC01848595858C
:1006B00097FD05C02FEF3FEF358724870BC0CE0194
:1006C00001960E94B20B019719F4898190E002C053
:1006D0008FEF9FEF0F90DF91CF9108950E948717C2
:1006E0000F931F930E94BC0160937001709371017E
:1006F000809372019093730100916C0110916D01D0
:1007000020916E0130916F01DC01CB01801B910BB8
:10071000A20BB30B86399105A105B10508F18DE453
:1007200091E00E94880989E591E00E948809809102
:10073000700190917101A0917201B0917301809349
:100740006C0190936D01A0936E01B0936F01809145
:100750002A0290912B02019690932B0280932A02F9
:100760001F910F910895362F90E0FC01E852FF4F42
:100770004491FC01E153FE4F2491FC01E055FE4FF2
:100780008491882309F451C04423E1F150E0FA0137
:100790003197EF30F105B0F5EA5AFF4F0C946D1721
:1007A000909180009F7707C0909180009F7D03C04B
:1007B00090918000977F9093800024C094B59F779C
:1007C00002C094B59F7D94BD1DC0909190009F770D
:1007D00007C0909190009F7D03C090919000977FFB
:1007E000909390000FC09091C0009F7703C09091AC
:1007F000C0009F7D9093C00005C09091C200977F7C
:100800009093C200E82FF0E0EE0FFF1FEC56FE4F72
:10081000A591B4918FB7F894EC91311103C0209554
:100820002E2301C02E2B2C938FBF0895CF93DF93DF
:1008300090E0FC01E153FE4F2491FC01E055FE4F96
:100840008491882361F190E0880F991FFC01E653A1
:10085000FF4FC591D491FC01EC56FE4FA591B49188
:10086000611109C09FB7F8948881209582238883FD
:10087000EC912E230BC0623061F49FB7F89438815D
:10088000822F809583238883EC912E2B2C939FBFFE
:1008900006C08FB7F894E8812E2B28838FBFDF9195
:1008A000CF9108958F929F92AF92BF92CF92DF9295
:1008B000EF92FF926B017C010E9497014B015C015A
:1008C000C114D104E104F104F1F00E949701DC01AC
:1008D000CB0188199909AA09BB09883E9340A10553
:1008E000B10570F321E0C21AD108E108F10888EEE1
:1008F000880E83E0981EA11CB11CC114D104E10430
:10090000F10419F7DDCFFF90EF90DF90CF90BF900B
:10091000AF909F908F9008957F928F929F92AF9209
:10092000BF92CF92DF92EF92FF920F931F93CF93DC
:10093000DF936C015B017A0180911501882309F432
:100940006BC080912F02882309F466C080912C022D
:1009500080FF05C08091E00082608093E000E701A5
:1009600010E00AEF83E0982E90E4792E2AE3822E9D
:10097000209709F448C08FB7F8949092E9009091BD
:10098000E80095FF06C09091F200272D291B922FB9
:1009900001C090E08FBF91110AC0015009F43CC022
:1009A00061E070E080E090E00E945204E1CF292FE6
:1009B00030E0C217D3070CF49C2F8FB7F8949092B5
:1009C000E9002091E80025FF1CC0292F30E0C21B60
:1009D000D30BF501915020F041914093F100FACFF3
:1009E000A20EB31E112319F08092E80009C0909165
:1009F000E80095FD06C08092E80011E0209709F01C
:100A000010E08FBFB5CF1111B6CF5D9A84E6809309
:100A10002D021E141F0444F081E090E0F601938340
:100A2000828380E090E001C0C701DF91CF911F91E8
:100A30000F91FF90EF90DF90CF90BF90AF909F907D
:100A40008F907F9008951F920F920FB60F921124EE
:100A50002F933F938F939F93AF93BF9380911E02E9
:100A600090911F02A0912002B091210230911D02AD
:100A700023E0230F2D3720F40196A11DB11D05C0E1
:100A800026E8230F0296A11DB11D20931D0280931D
:100A90001E0290931F02A0932002B0932102809126
:100AA000220290912302A0912402B0912502019686
:100AB000A11DB11D8093220290932302A0932402D2
:100AC000B0932502BF91AF919F918F913F912F914C
:100AD0000F900FBE0F901F9018951F920F920FB698
:100AE0000F9211242F933F934F935F936F937F93B4
:100AF0008F939F93AF93BF93EF93FF93E091080180
:100B0000F09109010995FF91EF91BF91AF919F91EC
:100B10008F917F916F915F914F913F912F910F90A6
:100B20000FBE0F901F9018951F920F920FB60F9245
:100B300011242F933F934F935F936F937F938F93E2
:100B40009F93AF93BF93EF93FF93E0910601F091D2
:100B500007010995FF91EF91BF91AF919F918F91FF
:100B60007F916F915F914F913F912F910F900FBEA9
:100B70000F901F9018951F920F920FB60F9211248D
:100B80002F933F934F935F936F937F938F939F9395
:100B9000AF93BF93EF93FF93E0910401F0910501B0
:100BA0000995FF91EF91BF91AF919F918F917F91A7
:100BB0006F915F914F913F912F910F900FBE0F90CA
:100BC0001F9018951F920F920FB60F9211242F931A
:100BD0003F934F935F936F937F938F939F93AF93C5
:100BE000BF93EF93FF93E0910201F0910301099508
:100BF000FF91EF91BF91AF919F918F917F916F91F5
:100C00005F914F913F912F910F900FBE0F901F90CA
:100C100018951F920F920FB60F9211242F933F93A6
:100C20004F935F936F937F938F939F93AF93BF93F4
:100C3000EF93FF93E0910001F09101010995FF917D
:100C4000EF91BF91AF919F918F917F916F915F9144
:100C50004F913F912F910F900FBE0F901F901895BD
:100C60002F923F924F925F926F927F928F929F92BC
:100C7000AF92BF92CF92DF92EF92FF920F931F93AA
:100C8000CF93DF93CDB7DEB728970FB6F894DEBFCA
:100C90000FBECDBFD82EC62E4887190178010E94FD
:100CA000BC012B013C018D2C880C912C10E001E043
:100CB0004885A42EB12C970140E050E02B833C8363
:100CC0004D835E834885941608F0A0C000935702B8
:100CD000D09279021092580210927A026C2D8BEC0D
:100CE00092E00E94FD020E94080B00935702D092EE
:100CF00079021092580210927A0280915602811164
:100D0000FCCF9501291931092132310514F020E277
:100D100030E02F83213210F030E23F8300935602FF
:100D2000009355024FEF40935402109253028F816B
:100D300081508093520200933102809131028829C0
:100D40008093310280913002813071F41092300230
:100D5000809131028093BB008091BC0083FDF8CF6D
:100D600055EC5093BC0003C085EE8093BC0080918D
:100D700056028130E1F3809153022F81821718F4DB
:100D8000309153023F83A2E3B2E0EBEFF1E08E2F0C
:100D90004BEF51E0841B5F81851718F48D9181938F
:100DA000F6CF10921B0250931C0280911B022F81E0
:100DB000281721F1E114F10481F49101210F311D73
:100DC00017FD3A953A8329838BEC92E00E94B90291
:100DD000A981BA818C931F5FE8CF0E94BC01DC011E
:100DE000CB0184199509A609B7092B813C814D8156
:100DF0005E8182179307A407B507F8F20E94080BDB
:100E00008885813208F080E2980E5CCFE114F1040D
:100E1000D9F00E94BC01AB01BC0144195509660917
:100E20007709C701A0E0B0E0481759076A077B07B8
:100E300058F05885852F90E0212F012E000C330BA0
:100E4000281739070CF41FEF812F28960FB6F89456
:100E5000DEBF0FBECDBFDF91CF911F910F91FF90ED
:100E6000EF90DF90CF90BF90AF909F908F907F904A
:100E70006F905F904F903F902F900895CF92DF92A8
:100E8000EF92FF920F931F93CF93DF9300D0CDB7D4
:100E9000DEB7F82EE62ED42EC22E08EE13E09E0109
:100EA0002E5F3F4F41E00E9430063A81E1E0F0E0E2
:100EB000AF0101C0440FDA94EAF7CC2019F0932F68
:100EC000942B03C0942F909593239A839983AE011A
:100ED0004F5F5F4F6E2D8F2D0E94860B0F900F90EE
:100EE000DF91CF911F910F91FF90EF90DF90CF9006
:100EF0000895BF92CF92DF92EF92FF920F931F93CC
:100F0000CF93DF9300D0CDB7DEB7F82EE62EC42EF8
:100F1000B22ED02E08EE13E09E012E5F3F4F41E02F
:100F20000E943006882349F14C2D50E04B1951099D
:100F30004F5F5F4F21E030E002C0220F331FBA94B1
:100F4000E2F721503109042E01C0220F0A94EAF77A
:100F50008D2D01C0880F4A95EAF7322F30959A817E
:100F600093232823292B2A832983AE014F5F5F4FC8
:100F70006E2D8F2D0E94860B01C080E00F900F9088
:100F8000DF91CF911F910F91FF90EF90DF90CF9065
:100F9000BF9008951F920F920FB60F9211242F93B6
:100FA0003F934F935F936F937F938F939F93AF93F1
:100FB000BF93EF93FF93E0912802F09129023097BD
:100FC00009F451C0968DA685B785858591FF04C02B
:100FD0009C91892329F447C09C91892309F043C03F
:100FE000A389B4899C918589809589238C9386896E
:100FF00097890197F1F7608D718DA685B785558525
:1010000038E020E0CB010197F1F7822F90E0959531
:101010008795282F4C91452309F02068315091F78E
:10102000868D81FD20958091270290E001968F7337
:10103000992730912602381749F0A0912702B0E095
:10104000A554BE4F2C938093270203C0868D8160E8
:10105000868F828D938D0197F1F7A389B4899C9136
:101060008589892B8C93FF91EF91BF91AF919F91CF
:101070008F917F916F915F914F913F912F910F9041
:101080000FBE0F901F901895E0912802F091290251
:10109000E817F90769F4A389B4899C91858980953B
:1010A00089238C93109229021092280281E00895DE
:1010B00080E008951F920F920FB60F9211242F9384
:1010C0003F934F935F936F937F938F939F93AF93D0
:1010D000BF93EF93FF938091B900887F803609F426
:1010E0009CC068F5883209F45BC090F4803109F443
:1010F00054C038F4882309F4F6C0883009F44DC090
:10110000F6C0883109F44CC0803209F45DC0EFC0EC
:10111000803409F468C048F4803309F455C088333A
:1011200009F0E5C080935402D8C0803509F44FC05F
:10113000883509F45DC0883409F0D9C0D6C0883933
:1011400009F4C7C0A8F4883709F467C038F48836B2
:1011500009F463C0803709F460C0C9C0883809F455
:10116000B8C0803909F45FC0803809F0C0C05BC0E6
:10117000803B09F486C038F4803A09F466C0883AA6
:1011800009F47FC0B4C0803C09F4A7C0883C09F4CE
:10119000A4C0883B09F48AC0AAC08091310210C063
:1011A0009091530280915202981770F5E09153028A
:1011B00081E08E0F80935302F0E0EE5CFD4F808162
:1011C0008093BB0085EC86C0809354028EC0E09172
:1011D000530281E08E0F809353028091BB00F0E0B8
:1011E000EE5CFD4F808390915302809152026EC05D
:1011F000E091530281E08E0F809353028091BB00F7
:10120000F0E0EE5CFD4F80838091550281116DC04E
:1012100081E08093300284EA61C083E080935602CB
:101220001092BA01CFCF8091BA01803208F051C03C
:10123000E091BA0181E08E0F8093BA018091BB00EA
:10124000F0E0E656FE4F8083BDCF85EC8093BC0076
:10125000109256028091BA01803230F4E091BA01C6
:10126000F0E0E656FE4F10826091BA0170E0E09126
:101270009801F09199018AE991E009951092BA01DB
:1012800036C084E080935602109297011092960126
:10129000E0919401F0919501099580919601811159
:1012A00005C081E08093960110927401E09197014E
:1012B00081E08E0F80939701F0E0EC58FE4F808123
:1012C0008093BB009091970180919601981708F444
:1012D00079CF85E88093BC000AC085EC8093BC0080
:1012E0001092560204C0109254020E947702FF919D
:1012F000EF91BF91AF919F918F917F916F915F918E
:101300004F913F912F910F900FBE0F901F90189506
:10131000BC01009791F0FC0101900020E9F73197A2
:10132000AF01481B590BE0917B02F0917C020280D7
:10133000F381E02D8BE792E0099480E090E008953E
:101340004F925F926F927F928F929F92AF92BF92D5
:10135000CF92DF92EF92FF92E6EFF2E0608171812F
:101360008281938184809580A680B780C084D18457
:10137000E284F3849B01AC010E946A162B013C01BC
:10138000A5019401C501B4010E946A169B01AC013C
:10139000C301B2010E94A1144B015C01A701960197
:1013A000C701B6010E946A169B01AC01C501B401D8
:1013B0000E94A114FF90EF90DF90CF90BF90AF906C
:1013C0009F908F907F906F905F904F900C94DD1660
:1013D000E0917B02F0917C020190F081E02D682F7A
:1013E0008BE792E009948F929F92AF92BF920F93F6
:1013F0001F93CF93DF93CDB7DEB7A1970FB6F894C5
:10140000DEBF0FBECDBF19A2423008F44AE08E0104
:101410000F5D1F4F842E912CA12CB12CA50194019E
:101420000E944B17E62FB901CA0101501109EA3099
:1014300014F4E05D01C0E95CD801EC93232B242B6C
:10144000252B61F7C8010E948809A1960FB6F89470
:10145000DEBF0FBECDBFDF91CF911F910F91BF9027
:10146000AF909F908F9008954F925F926F927F926E
:101470008F929F92AF92BF92CF92DF92EF92FF92A4
:101480006B017C01B42E9B01AC010E941D178823C7
:1014900019F08FE591E027C026013701E89477F82D
:1014A0002FEF3FEF4FE75FE7C301B2010E941D1727
:1014B00081110DC02FEF3FEF4FE75FE7C301B2018E
:1014C0000E940D1518161CF483E691E00CC02FEF56
:1014D0003FEF4FE75FE4C701B6010E94651618169B
:1014E00084F487E691E0FF90EF90DF90CF90BF907B
:1014F000AF909F908F907F906F905F904F900C94E3
:1015000088092FEF3FEF4FE75FECC701B6010E945C
:101510000D1587FDE6CF20E030E0A901C701B60137
:101520000E940D1587FF09C08DE20E94E8094C0159
:10153000F7FAF094F7F8F09402C0812C912CA12CCA
:1015400060E070E080E09FE3AB1441F020E030E029
:1015500040E251E40E941215A394F6CF9B01AC0126
:10156000C701B6010E94A1142B013C010E94841501
:101570006B017C010E94B3159B01AC01C301B20158
:101580000E94A0142B013C014AE0C701B6010E9451
:10159000F3097C01E80CF91CBB2029F08EE20E94C3
:1015A000E809E80EF91EDB2CDD2021F120E030E017
:1015B00040E251E4C301B2010E946A162B013C01D2
:1015C0000E9484154B01A12CB12C4AE0C501B40145
:1015D0000E94F309E80EF91EC501B4010E94B3157B
:1015E0009B01AC01C301B2010E94A0142B013C017C
:1015F000DA94DACFC701FF90EF90DF90CF90BF90E1
:10160000AF909F908F907F906F905F904F900895D4
:1016100020917A0290917902213208F04AC080919B
:1016200056028111FCCF32E03093560231E0309304
:1016300055023FEF3093540210925302209352020E
:10164000A9E5B2E042E352E0FA013E2F341B321723
:1016500018F43D913193F9CF10923102209131026B
:10166000990F922B9093310290913002913061F456
:1016700010923002909131029093BB009091BC0087
:1016800093FDF8CF95EC01C095EE9093BC0090913E
:1016900056029230E1F3909154029F3F79F080918D
:1016A0005402803241F080915402803331F084E062
:1016B00005C081E003C082E001C083E010925802BF
:1016C00010927A021092570208950F931F93CF93AE
:1016D000DF938C01C0E0D0E0F801EC0FFD1F6491B6
:1016E000662371F0E0917B02F0917C020190F08121
:1016F000E02D8BE792E00995892B11F02196ECCF34
:10170000CE01DF91CF911F910F910895CF93DF9379
:10171000EA0191E090935702809379021092580267
:1017200010927A028BEC92E00E94FD0268818BECB1
:1017300092E00E94FD020E94080B91E0811190E06E
:10174000892FDF91CF910895CF93DF930E94650B8E
:10175000EC0189E591E00E9488098C0F9D1FDF91C3
:10176000CF910895FC0180912F02811103C08FEF6A
:101770009FEF08959FB7F89482E08093E90020914D
:10178000F20030E01216130614F421E030E02115C7
:10179000310559F0289A84E680932E028091F10059
:1017A00080838091F200882319F09FBFC9010895BA
:1017B0008BE68093E800F9CF80914C0381110DC036
:1017C00082E08093480384E08093490310924B03A6
:1017D00010924A0381E080934C0388E493E00895DB
:1017E0001F920F920FB60F9211248F939F938091A7
:1017F000E1009091E100937F9093E10083FF0FC09F
:101800001092E90091E09093EB001092EC0092E3CB
:101810009093ED0010922F0298E09093F00082FFD9
:1018200020C093E09093E9009091F200992319F081
:101830009AE39093E80090912D02992339F09091CA
:101840002D02915090932D02992389F190912E02AF
:10185000992339F090912E02915090932E02992362
:1018600041F184FF10C08091E2008E7E8160809300
:10187000E2008091E1008F7E8093E10080912C0254
:101880008E7E806111C080FF16C08091E2008E7E46
:1018900080618093E2008091E1008E7E8093E10080
:1018A00080912C028E7E816080932C0204C05D9812
:1018B000CDCF2898D6CF9F918F910F900FBE0F90CC
:1018C0001F90189540915803509159032091560349
:1018D0003091570342175307B4F49091E800957084
:1018E000E1F39091E80092FD19C08093F10080919E
:1018F00058039091590301968F739927892B19F4F6
:101900008EEF8093E80080915803909159030196DF
:10191000909359038093580381E0089580E00895DF
:10192000DF92EF92FF920F931F93CF93DF93D82E06
:101930008A017B01E40EF51EEB01CE15DF0571F087
:10194000D7FE03C0FE01849101C088810E94620C11
:1019500021968111F2CF8FEF9FEF01C0C801DF9177
:10196000CF911F910F91FF90EF90DF9008956150FC
:1019700030F02091F100FC0120830196F8CF289AE5
:1019800084E680932E020895CF92DF92EF92FF9229
:101990000F931F93CF93DF936C017A018B01C0E00B
:1019A000D0E0CE15DF0589F0D8016D918D01D6010B
:1019B000ED91FC910190F081E02DC6010995892BF4
:1019C00011F47E0102C02196ECCFC701DF91CF91C7
:1019D0001F910F91FF90EF90DF90CF9008950F939C
:1019E0001F93CF93DF931F92CDB7DEB782E0898339
:1019F00042E450E06EEE71E080E80E94900C0E949C
:101A0000DC0BDC0112960D911C9113970115110549
:101A100069F0D801ED91FC910280F381E02DBE01C7
:101A20006F5F7F4FC801099597FF07C089810F90AD
:101A3000DF91CF911F910F910895F80100851185D5
:101A4000E5CF1F920F920FB60F921124CF92DF9223
:101A5000EF92FF920F931F932F933F934F935F93B8
:101A60006F937F938F939F93AF93BF93EF93FF9366
:101A7000CF93DF93CDB7DEB76C97DEBFCDBF1092AB
:101A8000E9008091E80083FFEDC168E0CE01459652
:101A90000E94B70C82EF8093E8008D8987FF05C014
:101AA0009091E80090FFFCCF03C09EEF9093E80078
:101AB000982F907609F0C6C09E892F89188D9111B4
:101AC0000CC0803829F4809155038093F10002C046
:101AD0001092F1001092F10048C1422F50E0512BBA
:101AE000913051F4811141C14130510509F03DC19E
:101AF000809155038D7F0BC0933061F4811135C106
:101B00004130510509F031C18091550382608093C5
:101B100055032BC1953041F48091E80080FFFCCF44
:101B200020682093E30021C1963009F05FC0EB8C60
:101B3000FC8C1092E9001092590310925803123055
:101B400091F510925703109256030E94EF0C99E002
:101B5000BE016F5F7F4FDB01E92F1D92EA95E9F728
:101B600099831A8391E09E8390EA98879AEF9987E8
:101B70002091580330915903275F3F4F3C832B83BB
:101B80008D831092E9001092590310925803F0923D
:101B90005703E092560349E050E080E00E94900C29
:101BA0000E94EF0CE2C0F0925703E09256030E94AD
:101BB000DC0BDC011296ED90FC901397E114F1041C
:101BC00009F4C0C0D701ED91FC910480F581E02DAE
:101BD000BE016B5E7F4FC7010995009719F00CF0AD
:101BE000C4C0C7C0F701E084F184E8CF973009F49E
:101BF000C0C0983021F481E08093F100B6C09930E4
:101C000009F0B3C0837009F0B4C0E7E4F1E081E00B
:101C100021E036E39081992361F08093E9002093DD
:101C2000EB0091919093EC003093ED008F5F873043
:101C300089F78EE78093EA001092EA008F898093FB
:101C40002F0293C08B8D9C8D1092E9001092590346
:101C5000109258039093570380935603898D8111F6
:101C600056C08E899D89913A59F4813209F081C01C
:101C700047E050E06EE071E080E00E94900C75C09B
:101C8000913209F076C0833289F4888D90E0982FE4
:101C900088272F89822BA0E0B0E080930A019093DF
:101CA0000B01A0930C01B0930D015FC0803269F469
:101CB0008091E80082FFFCCF67E08EE091E00E9417
:101CC000B70C8BEF8093E80006C0823209F04DC05C
:101CD0008F898093150180915403882319F0EEEFCA
:101CE000FAE002C0E0E0F8E080910E0190910F016F
:101CF000A0911001B0911101803B9440A105B10564
:101D000009F07BC08091150180FF93C076C00E94CE
:101D1000DC0BDC0112960D911C9113970115110536
:101D200041F1D801ED91FC910190F081E02DBE01CF
:101D30006B5E7F4FC8010995811117C0F8010085BE
:101D40001185ECCF113009F44EC0133091F48F8916
:101D5000882309F445C0823081F440E86DE082E5D3
:101D600092E00E946314882321F08EEF8093E800B4
:101D700079C081E28093EB0075C0813029F440E89E
:101D80006BE086E492E0EDCF833099F70E94DC0BA4
:101D9000DC011296ED90FC9013978E010F5F1F4FA0
:101DA0006801E114F10479F0D701ED91FC9106800E
:101DB000F781E02DB801C7010995080F111DF70142
:101DC000E084F184EECFD8011C92F601019000204E
:101DD000E9F73197BF016C197D0940E0C601C1CF19
:101DE00060E372E002C064E372E06115710509F21C
:101DF000FB01449150E080E840CF0FB6F894A895DD
:101E000080916000886180936000109260000FBE36
:101E1000A895EE3F2AE0F20739F08091FE0A9091F2
:101E2000FF0A91838083A1CF1092FF0A1092FE0ACD
:101E30009CCFEE3F8AE0F80731F08081918190934A
:101E4000FF0A8093FE0A87E797E7918380839BE0F0
:101E500088E10FB6F894A895809360000FBE909328
:101E6000600083CF6C960FB6F894DEBF0FBECDBF77
:101E7000DF91CF91FF91EF91BF91AF919F918F91A2
:101E80007F916F915F914F913F912F911F910F9192
:101E9000FF90EF90DF90CF900F900FBE0F901F90AC
:101EA00018958AE391E09093D8028093D70287ED4A
:101EB00092E00C944408CF93DF931F92CDB7DEB726
:101EC000789484B5826084BD84B5816084BD85B515
:101ED000826085BD85B5816085BD80916E00816021
:101EE00080936E00109281008091810082608093C7
:101EF00081008091810081608093810080918000C9
:101F00008160809380008091910082608093910035
:101F10008091910081608093910080919000816018
:101F2000809390008091C10084608093C100809173
:101F3000C10082608093C1008091C1008160809364
:101F4000C1008091C30081608093C3008091C00074
:101F500082608093C0008091C20081608093C20043
:101F600080917A00846080937A0080917A00826008
:101F700080937A0080917A00816080937A008091CA
:101F80007A00806880937A0010922F021092550395
:101F900010922C028091D70081608093D70080EA54
:101FA0008093D80089B5806189BD89B5826089BD7B
:101FB00009B400FEFDCF61E070E080E090E00E9497
:101FC00052048091D8008F7C80618093D8008091EA
:101FD000E000807F8093E0008091E1008E7E80931E
:101FE000E1008DE08093E200559A209A5D98289850
:101FF000EEEFFFE7859194918B3F9C4D19F481E0C2
:102000008093540361E08DE00E94160461E082E158
:102010000E94160462E087E00E94160461E08DE0F1
:102020000E94B30361E082E10E94B30380E793E082
:10203000909309018093080180916A008F7C8062EF
:1020400080936A00EE9A8FEF9FEF909388028093BF
:10205000870286E891E00E94A40B86E691E00E9448
:10206000650B1092F2021092F1021092F00210929F
:10207000EF021092EE021092ED028DE991E0909342
:10208000F4028093F3028091E30298EF980F94306A
:1020900048F022EF280F243028F026EE280F2330B6
:1020A00008F060C02DEB30E03093EE022093ED029B
:1020B0002BE931E03093F0022093EF022CE231E083
:1020C0003093F2022093F102943058F092EF980F7F
:1020D000943038F08A51833008F4E6C2A0E0B0E0D2
:1020E000E5C2A8E6B0E0E8E6F0E0808181608C938C
:1020F0008091E30298EF980F943058F022EF280F68
:10210000243038F026EE280F233018F020E030E09D
:1021100002C02BE630E03093EB022093EA029430C9
:1021200010F49CEF09C08E3071F08F3071F0803167
:1021300071F0813171F09AEE980F81E001C0880F43
:102140009A95EAF707C088E005C082E003C084E002
:1021500001C081E08093EC028091F3029091F4023F
:102160000197F1F78091F1029091F202892B21F110
:10217000809128029091290222E0873D9207E1F0A8
:10218000009711F00E9444088091F5028E7F8093A1
:10219000F502109227021092260287ED92E09093AA
:1021A000290280932802E091EA02F091EB029081EB
:1021B0008091EC02892B80838CE591E00E94880954
:1021C00089E591E00E94880983E091E00E94A40BD8
:1021D00001E023E042E06BE6809138030E9479073A
:1021E00000E022E044E06BE1809138030E9479072F
:1021F00022E044E06CE1809138030E94790720E0FE
:1022000046E06BE6809138030E943E0768EE73E07B
:1022100080E090E00E94520487EF90E00E94650BFE
:1022200008EE13E09E012F5F3F4F41E065E780918C
:1022300038030E943006882329F089818F7790E047
:10224000809339036091390370E080E090E040E1D1
:102250000E94F30989E591E00E94880908EE13E0E5
:102260009E012F5F3F4F41E065E7809138030E9458
:102270003006882329F089818F7790E08093390395
:1022800080913903813729F08CE491E00E94A40BFE
:102290009BCF8CE291E00E94A40B83E080934703E4
:1022A00020E045E06CE6809138030E943E0720E084
:1022B00044E06CE6809138030E943E0720E043E052
:1022C0006CE6809138030E943E078091470381FFAE
:1022D00015C020E042E06CE6809138030E943E0782
:1022E00020E041E06CE6809138030E943E0720E048
:1022F00040E06CE6809138030E943E078BE191E05C
:102300000E94650B60914703617070E080E090E08F
:102310004AE00E94F30960914703627070E080E038
:1023200090E04AE00E94F30989E591E00E94880963
:1023300060E0262E60E0362E08EE13E029E333E05D
:102340004EE06BE3809138030E94300660913903C0
:1023500070E0762F662780913A03682B70932703ED
:102360006093260360903B03712C762C6624809149
:102370003C03682A7092290360922803A0903D03D1
:10238000B12CBA2CAA2480913E03A82AB0922B0328
:10239000A0922A03C0904103D12CDC2CCC24809144
:1023A0004203C82AD0922D03C0922C03E09043032D
:1023B000F12CFE2CEE2480914403E82AF0922F03A6
:1023C000E0922E030091450310E0102F002780912A
:1023D0004603082B109331030093300350904703BA
:1023E00050FE2AC0072E000C880B990B0E94B515D1
:1023F0006093F6027093F7028093F8029093F902CB
:10240000B301770C880B990B0E94B5156093FA0203
:102410007093FB028093FC029093FD02B501BB0C0C
:10242000880B990B0E94B5156093FE027093FF0212
:10243000809300039093010320E030E040E858E3EC
:102440006091F6027091F7028091F8029091F90282
:102450000E946A164B015C016093F6027093F702CA
:102460008093F8029093F90220E030E040E858E3CE
:102470006091FA027091FB028091FC029091FD0242
:102480000E946A166093FA027093FB028093FC022A
:102490009093FD0220E030E040E858E36091FE02B6
:1024A0007091FF0280910003909101030E946A16CF
:1024B0006093FE027093FF028093000390930103E8
:1024C00051FE2AC0B601DD0C880B990B0E94B51590
:1024D00060930203709303038093040390930503B6
:1024E000B701FF0C880B990B0E94B515609306038A
:1024F000709307038093080390930903B801110FA9
:10250000880B990B0E94B51560930A0370930B0317
:1025100080930C0390930D0320E030E040E858E3F3
:10252000609102037091030380910403909105036D
:102530000E946A166093020370930303809304035E
:102540009093050320E030E040E858E360910603F3
:102550007091070380910803909109030E946A1605
:102560006093060370930703809308039093090315
:1025700020E030E040E858E360910A0370910B03DB
:1025800080910C0390910D030E946A1660930A03D8
:1025900070930B0380930C0390930D030E94A0098A
:1025A0009B01AC01C501B4010E94121542E00E94DA
:1025B000340A80E20E94E809C090FA02D090FB023F
:1025C000E090FC02F090FD020E94A0099B01AC018A
:1025D000C701B6010E94121542E00E94340A80E24F
:1025E0000E94E809C090FE02D090FF02E090000334
:1025F000F09001030E94A0099B01AC01C701B60144
:102600000E94121542E00E94340A80E20E94E8090A
:10261000609102037091030380910403909105037C
:1026200042E00E94340A80E20E94E80960910603B9
:1026300070910703809108039091090342E00E9482
:10264000340A80E20E94E80960910A0370910B034A
:1026500080910C0390910D0342E00E94340A89E5B9
:1026600091E00E94880960912A0287ED92E00E9421
:10267000EA0161E082E10E94B30364EF71E080E06F
:1026800090E00E94520460E082E10E94B30364EF94
:1026900071E080E090E00E9452042114310409F4BA
:1026A0004BCE0E94000048CEA8E6B0E0833008F48C
:1026B0001ACDE0E0F0E019CDCF93DF9310927E02C7
:1026C00010927D0288EE93E0A0E0B0E080937F025C
:1026D00090938002A0938102B09382022AE131E0BC
:1026E00030937C0220937B022FEF3FEF30938802E0
:1026F000209387021092CE021092CD028093CF02D7
:102700009093D002A093D102B093D2022AE231E09A
:102710003093CC022093CB021092F6021092F70273
:102720001092F8021092F9021092FA021092FB0233
:102730001092FC021092FD021092FE021092FF0213
:1027400010920003109201031092020310920303EF
:1027500010920403109205031092060310920703CF
:10276000109208031092090310920A0310920B03AF
:1027700010920C0310920D0310920E0310920F038F
:10278000109210031092110310921203109213036F
:10279000109214031092150310921603109217034F
:1027A000109218031092190310921A0310921B032F
:1027B00010921C0310921D0310921E0310921F030F
:1027C00010922003109221031092220310922303EF
:1027D000109224031092250322E1E6E2F3E0EF01D8
:1027E00019922A95E9F728E62093380310924703B7
:1027F0001092DA021092D9028093DB029093DC02ED
:10280000A093DD02B093DE028AE391E09093D802B8
:102810008093D7021092EE021092ED021092F00215
:102820001092EF021092F2021092F1021092F40252
:102830001092F3026091F5026E7F6D7F6093F50256
:102840006695617081E0682786E10E94B30361E0CC
:1028500086E10E941604E5EEF1E0E491E093E702E0
:10286000E6ECF1E0E491F0E0EE0FFF1FEC56FE4FD6
:10287000859194919093E9028093E80260E087E16A
:102880000E9416048091F50281FD04C061E087E199
:102890000E94B30387E18093E302E6EEF1E0E49166
:1028A000E093E402E7ECF1E0E491F0E0EE0FFF1FCB
:1028B000EE55FE4F859194919093E6028093E50248
:1028C000DF91CF910895CF92DF92EF92FF920F9315
:1028D0001F93CF93DF931F92CDB7DEB7182F062F2C
:1028E000E42E862F880F8E5F99830E94620C83E00E
:1028F0000E94620CF12EC12E9981D92E8C2D8F1938
:10290000801798F4F601E7FE02C0849101C080812F
:102910000E94620C182F80E00E94620C8123FFEF5E
:10292000CF1ADF0A8111EACF01C081E00F90DF9159
:10293000CF911F910F91FF90EF90DF90CF9008956E
:102940005058BB27AA270E94B8140C942B160E943B
:102950001D1638F00E94241620F039F49F3F19F418
:1029600026F40C941A160EF4E095E7FB0C9414165A
:10297000E92F0E943C1658F3BA17620773078407C1
:10298000950720F079F4A6F50C945E160EF4E09508
:102990000B2EBA2FA02D0B01B90190010C01CA0119
:1029A000A0011124FF27591B99F0593F50F4503EC4
:1029B00068F11A16F040A22F232F342F4427585FB6
:1029C000F3CF469537952795A795F0405395C9F7CE
:1029D0007EF41F16BA0B620B730B840BBAF0915086
:1029E000A1F0FF0FBB1F661F771F881FC2F70EC025
:1029F000BA0F621F731F841F48F4879577956795F8
:102A0000B795F7959E3F08F0B0CF9395880F08F0E3
:102A10009927EE0F9795879508950E94F01508F471
:102A200081E008950E9426150C942B160E9424160E
:102A300058F00E941D1640F029F45F3F29F00C94D5
:102A4000141651110C945F160C941A160E943C1621
:102A500068F39923B1F3552391F3951B550BBB27CD
:102A6000AA2762177307840738F09F5F5F4F220F12
:102A7000331F441FAA1FA9F335D00E2E3AF0E0E809
:102A800032D091505040E695001CCAF72BD0FE2F53
:102A900029D0660F771F881FBB1F261737074807E7
:102AA000AB07B0E809F0BB0B802DBF01FF2793589F
:102AB0005F4F3AF09E3F510578F00C9414160C9439
:102AC0005F165F3FE4F3983ED4F38695779567955C
:102AD000B795F7959F5FC9F7880F911D96958795D4
:102AE00097F90895E1E0660F771F881FBB1F6217F3
:102AF00073078407BA0720F0621B730B840BBA0BB1
:102B0000EE1F88F7E09508950E94441688F09F57BD
:102B100098F0B92F9927B751B0F0E1F0660F771F01
:102B2000881F991F1AF0BA95C9F714C0B13091F0F7
:102B30000E945E16B1E008950C945E16672F782F00
:102B40008827B85F39F0B93FCCF3869577956795BC
:102B5000B395D9F73EF490958095709561957F4F28
:102B60008F4F9F4F0895E89409C097FB3EF49095CE
:102B70008095709561957F4F8F4F9F4F9923A9F056
:102B8000F92F96E9BB279395F695879577956795E5
:102B9000B795F111F8CFFAF4BB0F11F460FF1BC029
:102BA0006F5F7F4F8F4F9F4F16C0882311F096E9BC
:102BB00011C0772321F09EE8872F762F05C066236A
:102BC00071F096E8862F70E060E02AF09A95660F23
:102BD000771F881FDAF7880F9695879597F90895DC
:102BE000990F0008550FAA0BE0E8FEEF161617061E
:102BF000E807F907C0F012161306E407F50798F086
:102C0000621B730B840B950B39F40A2661F0232B9E
:102C1000242B252B21F408950A2609F4A140A6951A
:102C20008FEF811D811D089597F99F6780E870E0FF
:102C300060E008959FEF80EC089500240A94161632
:102C4000170618060906089500240A94121613069A
:102C5000140605060895092E0394000C11F4882328
:102C600052F0BB0F40F4BF2B11F460FF04C06F5F44
:102C70007F4F8F4F9F4F089557FD9058440F551F1A
:102C800059F05F3F71F04795880F97FB991F61F0EE
:102C90009F3F79F087950895121613061406551F65
:102CA000F2CF4695F1DF08C0161617061806991FD1
:102CB000F1CF86957105610508940895E894BB27C6
:102CC00066277727CB0197F908950E94F01508F43D
:102CD0008FEF08950E947D160C942B160E941D16EE
:102CE00038F00E94241620F0952311F00C9414164D
:102CF0000C941A1611240C945F160E943C1670F363
:102D0000959FC1F3950F50E0551F629FF001729F90
:102D1000BB27F00DB11D639FAA27F00DB11DAA1F9F
:102D2000649F6627B00DA11D661F829F2227B00DEC
:102D3000A11D621F739FB00DA11D621F839FA00D77
:102D4000611D221F749F3327A00D611D231F849FC7
:102D5000600D211D822F762F6A2F11249F5750401E
:102D60009AF0F1F088234AF0EE0FFF1FBB1F661F99
:102D7000771F881F91505040A9F79E3F510580F062
:102D80000C9414160C945F165F3FE4F3983ED4F352
:102D9000869577956795B795F795E7959F5FC1F706
:102DA000FE2B880F911D9695879597F9089519F434
:102DB00016F40C941A160C9422170E944416B8F3B9
:102DC0009923C9F3B6F39F57550B87FF0E9430171D
:102DD0000024A0E640EA900180585695979528F483
:102DE000805C660F771F881F20F02617370748077B
:102DF00030F4621B730B840B202931294A2BA695D2
:102E000017940794202531254A2758F7660F771F16
:102E1000881F20F026173707480730F4620B730B22
:102E2000840B200D311D411DA09581F7B901842F20
:102E30009158880F9695879508950E94F015880BF4
:102E4000990B08959F3F31F0915020F48795779525
:102E50006795B795880F911D9695879597F9089571
:102E600091505040660F771F881FD2F7089597FB47
:102E7000072E16F4009407D077FD09D00E9473172F
:102E800007FC05D03EF4909581959F4F089570956D
:102E900061957F4F0895A1E21A2EAA1BBB1BFD016D
:102EA0000DC0AA1FBB1FEE1FFF1FA217B307E40729
:102EB000F50720F0A21BB30BE40BF50B661F771F81
:102EC000881F991F1A9469F7609570958095909561
:102ED0009B01AC01BD01CF010895EE0FFF1F0590CE
:102EE000F491E02D0994AA1BBB1B51E107C0AA1F56
:102EF000BB1FA617B70710F0A61BB70B881F991F9B
:102F00005A95A9F780959095BC01CD01089581E06F
:102F100090E0F8940C948C1711E0C1E3D1E004C068
:102F2000FE010E946D172196C233D107C9F7F894AC
:022F3000FFCFD1
:102F3200C801C801C801C801C801FFFFFFFF00E1C5
:102F4200000000000000000000005C018C047D0114
:102F520050032C03720100000000FD02CD02C901E2
:102F6200B902AA02A90200000000EA01C40C3E0252
:102F72005602D101E90100C1808100000062746E35
:102F82002074696D65206F6E000D0A004F4B006E54
:0C2F9200616E00696E66006F76660000DC
:00000001FF
