:100000000C94E4000C940C010C940C010C940C0165
:100010000C940C010C940C010C940C010C940C012C
:100020000C940C010C944C050C944A070C94BC07DE
:100030000C940C010C940C010C940C010C940C010C
:100040000C940C010C940C010C940C010C940C01FC
:100050000C940C010C940C010C940C010C940205F2
:100060000C940C010C940C010C940C010C940C01DC
:100070000C940C010C940C010C940C010C940C01CC
:100080000C940C010C940C010C940C010C940C01BC
:100090000C94C6050C940C010C940C010C940C01EE
:1000A0000C940C010C940C010C940C018E04910422
:1000B000800484048804B204B204B2049504990450
:1000C0009D04A304A704B204AD04000000002400B2
:1000D00027002A002D0030000000000200090F0058
:1000E00000030401000C00000000000000000000FC
:1000F00000000000000000080B00020202010009DD
:100100000400000102020000052400100105240182
:1001100001010424020605240600010705810310DD
:10012000004009040100020A000000070502024025
:1001300000000705830240000004030904120100C7
:1001400002EF020140412337800001010203014117
:10015000726475696E6F204C4C430041726475691E
:100160006E6F204D6963726F00000000002500284B
:10017000002B002E00310000000000230026002983
:10018000002C002F000404040404030405020202EE
:100190000204030202020206060606060604040220
:1001A0000202040404080201104080401020408034
:1001B00040800802040180402010020110801020BD
:1001C00040402000D10BC70B11241FBECFEFDAE057
:1001D000DEBFCDBF11E0A0E0B1E0E0EBF9E102C08D
:1001E00005900D92A837B107D9F722E0A8E7B1E052
:1001F00001C01D92A93DB207E1F710E0C3EED0E0C7
:1002000004C02197FE010E94AC0CC23ED107C9F781
:100210000E94290A0C94CB0C0C94000040913602E9
:100220005091370220913402309135024217530722
:10023000B4F49091E8009570E1F39091E80092FD9C
:1002400019C08093F1008091360290913702019697
:100250008F739927892B19F48EEF8093E800809192
:1002600036029091370201969093370280933602BE
:1002700081E0089580E00895CF92DF92EF92FF929F
:100280000F931F93CF93DF936C017A018B01C0E032
:10029000D0E0CE15DF0589F0D8016D918D01D60132
:1002A000ED91FC910190F081E02DC6010995892B1B
:1002B00011F47E0102C02196ECCFC701DF91CF91EE
:1002C0001F910F91FF90EF90DF90CF900895CF9303
:1002D000DF931F92CDB7DEB76983DC01ED91FC910E
:1002E0000280F381E02D41E050E0BE016F5F7F4F5F
:1002F00009950F90DF91CF91089583E08093E900F5
:100300008091F200882319F08AE38093E800089531
:10031000FC018485958597FD0BC09FB7F89482E01A
:100320008093E9008091F2009FBF90E001960895CC
:100330009FB7F89482E08093E9008091F2009FBF1C
:1003400090E008953FB7F89480912C0290912D028F
:10035000A0912E02B0912F0226B5A89B05C02F3F79
:1003600019F00196A11DB11D3FBFBA2FA92F982FDB
:100370008827820F911DA11DB11DBC01CD0142E056
:10038000660F771F881F991F4A95D1F708958F929E
:100390009F92AF92BF92CF92DF92EF92FF926B014A
:1003A0007C010E94A2014B015C01C114D104E10453
:1003B000F104F1F00E94A201DC01CB018819990936
:1003C000AA09BB09883E9340A105B10570F321E05D
:1003D000C21AD108E108F10888EE880E83E0981E61
:1003E000A11CB11CC114D104E104F10419F7DDCF43
:1003F000FF90EF90DF90CF90BF90AF909F908F9045
:1004000008957F928F929F92AF92BF92CF92DF9288
:10041000EF92FF920F931F93CF93DF936C015B01D9
:100420007A0180910B01882309F46BC080913D0211
:10043000882309F466C080913A0280FF05C080914C
:10044000E00082608093E000E70110E00AEF83E0C3
:10045000982E90E4792E2AE3822E209709F448C042
:100460008FB7F8949092E9009091E80095FF06C04C
:100470009091F200272D291B922F01C090E08FBF91
:1004800091110AC0015009F43CC061E070E080E0C5
:1004900090E00E94C701E1CF292F30E0C217D307B7
:1004A0000CF49C2F8FB7F8949092E9002091E8000B
:1004B00025FF1CC0292F30E0C21BD30BF501915042
:1004C00020F041914093F100FACFA20EB31E112308
:1004D00019F08092E80009C09091E80095FD06C0EF
:1004E0008092E80011E0209709F010E08FBFB5CFAF
:1004F0001111B6CF5D9A84E680933B021E141F044F
:1005000044F081E090E0F6019383828380E090E004
:1005100001C0C701DF91CF911F910F91FF90EF9024
:10052000DF90CF90BF90AF909F908F907F90089575
:1005300020913202309133022817390771F49091DB
:10054000300280913102981741F0E0913002F0E0E2
:10055000E951FE4F808190E008958FEF9FEF08955D
:1005600008951F93CF93DF93DC015C962D913C910E
:100570005D972115310539F481E090E013969C9345
:100580008E9312973DC05196ED91FC9152975096E3
:100590009C915097892F80951FB75E964C915E97DE
:1005A00041FB772770F941FD6095F89440817723EE
:1005B00011F0492B01C048234083E9012197F1F74D
:1005C00048E0508160FF02C0592B01C0582350837E
:1005D000E9012197F1F76695415099F7772321F0CA
:1005E00090818923808303C08081982B90831FBFD3
:1005F0005C968D919C915D970197F1F721E030E039
:10060000C901DF91CF911F9108952091320230915D
:1006100033022817390771F480913102209130029A
:1006200090E0805C9F4F821B910960E470E00E9423
:10063000980C089580E090E0089520913202309166
:10064000330228173907B9F49091300280913102B2
:10065000981789F0E0913002F0E0E951FE4F808177
:100660002091300230E02F5F3F4F2F7333272093CC
:10067000300290E008958FEF9FEF0895E0913202ED
:10068000F0913302E817F90769F4A389B4899C91C2
:100690008589809589238C931092330210923202BF
:1006A00081E0089580E0089585ED8093BC008091FD
:1006B000BC0084FDFCCF1092C101089540919B01C4
:1006C000262F30E0240F311D21323105DCF420913A
:1006D000C1012430C9F4FC0180E090E0861758F491
:1006E00030919B012191DC01A758BE4FA30FB11D92
:1006F0002C930196F3CF80919B01680F60939B012F
:1007000080E0089581E0089582E0089508958FEFD4
:100710009FEF08958FEF9FEF08958091780190E00B
:100720009195819591090895CF93DF9300D0CDB72E
:10073000DEB7CB01642F49835A830E945E0349814F
:10074000842F5A81952F0F900F90DF91CF910895AC
:10075000CF93DF931F92CDB7DEB7698361E0CE01FF
:1007600001960E945E0381E090E00F90DF91CF91AF
:100770000895CF93DF931F92CDB7DEB7FC01848538
:10078000958597FD05C02FEF3FEF358724870BC078
:10079000CE0101960E940C07019719F4898190E01F
:1007A00002C08FEF9FEF0F90DF91CF9108950F93CD
:1007B0001F93CF93DF931F92CDB7DEB78C01FC015F
:1007C0008485958597FF0EC0CE0101960E940C0787
:1007D000019719F4298130E002C02FEF3FEFF801B3
:1007E00035872487F801848595850F90DF91CF9117
:1007F0001F910F9108950E94C60CDF92EF92FF9215
:100800000F931F93CF93DF93D82E8A017B01E40EC1
:10081000F51EEB01CE15DF0571F0D7FE03C0FE011A
:10082000849101C088810E940E0121968111F2CF2E
:100830008FEF9FEF01C0C801DF91CF911F910F9102
:10084000FF90EF90DF9008950F931F93CF93DF9366
:100850001F92CDB7DEB782E0898342E450E067EFB4
:1008600070E080E80E94FD030E943607DC011296CA
:100870000D911C9113970115110569F0D801ED91A7
:10088000FC910280F381E02DBE016F5F7F4FC801B4
:10089000099597FF07C089810F90DF91CF911F9134
:1008A0000F910895F80100851185E5CF615030F072
:1008B0002091F100FC0120830196F8CF289A84E66C
:1008C00080933C020895362F90E0FC01E852FF4FE0
:1008D0004491FC01EC55FE4F2491FC01EB57FE4F77
:1008E0008491882309F451C04423E1F150E0FA01D6
:1008F0003197EF30F105B0F5EA5AFF4F0C94AC0C8C
:10090000909180009F7707C0909180009F7D03C0E9
:1009100090918000977F9093800024C094B59F773A
:1009200002C094B59F7D94BD1DC0909190009F77AB
:1009300007C0909190009F7D03C090919000977F99
:10094000909390000FC09091C0009F7703C090914A
:10095000C0009F7D9093C00005C09091C200977F1A
:100960009093C200E82FF0E0EE0FFF1FE759FE4F13
:10097000A591B4918FB7F894EC91311103C02095F3
:100980002E2301C02E2B2C938FBF0895CF93DF937E
:1009900090E0FC01EC55FE4F2491FC01EB57FE4F1B
:1009A0008491882361F190E0880F991FFC01E65340
:1009B000FF4FC591D491FC01E759FE4FA591B49129
:1009C000611109C09FB7F89488812095822388839C
:1009D000EC912E230BC0623061F49FB7F8943881FC
:1009E000822F809583238883EC912E2B2C939FBF9D
:1009F00006C08FB7F894E8812E2B28838FBFDF9134
:100A0000CF9108951F920F920FB60F9211242F933A
:100A10003F938F939F93AF93BF93809128029091C0
:100A20002902A0912A02B0912B023091270223E0E3
:100A3000230F2D3720F40196A11DB11D05C026E816
:100A4000230F0296A11DB11D209327028093280237
:100A500090932902A0932A02B0932B0280912C023A
:100A600090912D02A0912E02B0912F020196A11D0E
:100A7000B11D80932C0290932D02A0932E02B0936F
:100A80002F02BF91AF919F918F913F912F910F9026
:100A90000FBE0F901F9018951F920F920FB60F92D6
:100AA00011242F933F934F935F936F937F938F9373
:100AB0009F93AF93BF93EF93FF93E0913202F09136
:100AC0003302309709F451C0968DA685B785858588
:100AD00091FF04C09C91892329F447C09C918923EC
:100AE00009F043C0A389B4899C91858980958923A5
:100AF0008C93868997890197F1F7608D718DA68512
:100B0000B785558538E020E0CB010197F1F7822FBA
:100B100090E095958795282F4C91452309F0206802
:100B2000315091F7868D81FD20958091310290E0C2
:100B300001968F73992730913002381749F0A091B0
:100B40003102B0E0A951BE4F2C938093310203C013
:100B5000868D8160868F828D938D0197F1F7A389B1
:100B6000B4899C918589892B8C93FF91EF91BF91DA
:100B7000AF919F918F917F916F915F914F913F9135
:100B80002F910F900FBE0F901F9018951F920F92EC
:100B90000FB60F9211242F933F934F935F936F9350
:100BA0007F938F939F93AF93BF93EF93FF93809126
:100BB000B900887F803609F49CC068F5883209F452
:100BC0005BC090F4803109F454C038F4882309F4F0
:100BD000F6C0883009F44DC0F6C0883109F44CC025
:100BE000803209F45DC0EFC0803409F468C048F475
:100BF000803309F455C0883309F0E5C08093C00103
:100C0000D8C0803509F44FC0883509F45DC08834F8
:100C100009F0D9C0D6C0883909F4C7C0A8F488370C
:100C200009F467C038F4883609F463C0803709F4E2
:100C300060C0C9C0883809F4B8C0803909F45FC001
:100C4000803809F0C0C05BC0803B09F486C038F42E
:100C5000803A09F466C0883A09F47FC0B4C0803C89
:100C600009F4A7C0883C09F4A4C0883B09F48AC0F1
:100C7000AAC08091E60110C09091E5018091E40145
:100C8000981770F5E091E50181E08E0F8093E50102
:100C9000F0E0EC53FE4F80818093BB0085EC86C072
:100CA0008093C0018EC0E091E50181E08E0F8093BA
:100CB000E5018091BB00F0E0EC53FE4F8083909102
:100CC000E5018091E4016EC0E091E50181E08E0FC5
:100CD0008093E5018091BB00F0E0EC53FE4F8083F0
:100CE0008091C30181116DC081E08093C20184EACB
:100CF00061C083E08093C1011092BF01CFCF80918A
:100D0000BF01803208F051C0E091BF0181E08E0F39
:100D10008093BF018091BB00F0E0E156FE4F8083DD
:100D2000BDCF85EC8093BC001092C1018091BF01C2
:100D3000803230F4E091BF01F0E0E156FE4F1082C6
:100D40006091BF0170E0E0919D01F0919E018FE9FB
:100D500091E009951092BF0136C084E08093C101F3
:100D600010929C0110929B01E0919901F0919A01DF
:100D7000099580919B01811105C081E080939B01C1
:100D800010927901E0919C0181E08E0F80939C018B
:100D9000F0E0E758FE4F80818093BB0090919C016A
:100DA00080919B01981708F479CF85E88093BC0067
:100DB0000AC085EC8093BC001092C10104C010925F
:100DC000C0010E945403FF91EF91BF91AF919F9199
:100DD0008F917F916F915F914F913F912F910F90E4
:100DE0000FBE0F901F901895BC01009791F0FC0169
:100DF00001900020E9F73197AF01481B590BE091B2
:100E00003E02F0913F020280F381E02D8EE392E0FA
:100E1000099480E090E00895FC0180913D028111E9
:100E200003C08FEF9FEF08959FB7F89482E08093FF
:100E3000E9002091F20030E01216130614F421E0CC
:100E400030E02115310559F0289A84E680933C0260
:100E50008091F10080838091F200882319F09FBF78
:100E6000C90108958BE68093E800F9CF8091BD0217
:100E700081110DC082E08093B90284E08093BA02B0
:100E80001092BC021092BB0281E08093BD0289EBFC
:100E900092E008951F920F920FB60F9211248F9334
:100EA0009F938091E1009091E100937F9093E10006
:100EB00083FF0FC01092E90091E09093EB00109235
:100EC000EC0092E39093ED0010923D0298E0909335
:100ED000F00082FF20C093E09093E9009091F2002F
:100EE000992319F09AE39093E80090913B0299239B
:100EF00039F090913B02915090933B02992389F1F4
:100F000090913C02992339F090913C02915090933A
:100F10003C02992341F184FF10C08091E2008E7E53
:100F200081608093E2008091E1008F7E8093E100F8
:100F300080913A028E7E806111C080FF16C0809140
:100F4000E2008E7E80618093E2008091E1008E7EDF
:100F50008093E10080913A028E7E816080933A0214
:100F600004C05D98CDCF2898D6CF9F918F910F90D8
:100F70000FBE0F901F9018951F920F920FB60F92F1
:100F80001124CF92DF92EF92FF920F931F932F9332
:100F90003F934F935F936F937F938F939F93AF9301
:100FA000BF93EF93FF93CF93DF93CDB7DEB76C97EB
:100FB000DEBFCDBF1092E9008091E80083FFEDC154
:100FC00068E0CE0145960E94560482EF8093E800C7
:100FD0008D8987FF05C09091E80090FFFCCF03C08A
:100FE0009EEF9093E800982F907609F0C6C09E89F6
:100FF0002F89188D91110CC0803829F48091390205
:101000008093F10002C01092F1001092F10048C1EB
:10101000422F50E0512B913051F4811141C14130A8
:10102000510509F03DC1809139028D7F0BC093308D
:1010300061F4811135C14130510509F031C1809110
:1010400039028260809339022BC1953041F480913E
:10105000E80080FFFCCF20682093E30021C1963098
:1010600009F05FC0EB8CFC8C1092E9001092370203
:1010700010923602123091F510923502109234021D
:101080000E94240499E0BE016F5F7F4FDB01E92FCE
:101090001D92EA95E9F799831A8391E09E8390EA7D
:1010A00098879AEF99872091360230913702275F0F
:1010B0003F4F3C832B838D831092E90010923702BF
:1010C00010923602F0923502E092340249E050E08C
:1010D00080E00E94FD030E942404E2C0F0923502E9
:1010E000E09234020E943607DC011296ED90FC90EB
:1010F0001397E114F10409F4C0C0D701ED91FC91FC
:101100000480F581E02DBE016B5E7F4FC70109951C
:10111000009719F00CF0C4C0C7C0F701E084F18457
:10112000E8CF973009F4C0C0983021F481E0809373
:10113000F100B6C0993009F0B3C0837009F0B4C0B3
:10114000EDE0F1E081E021E036E39081992361F068
:101150008093E9002093EB0091919093EC00309301
:10116000ED008F5F873089F78EE78093EA00109259
:10117000EA008F8980933D0293C08B8D9C8D1092E5
:10118000E900109237021092360290933502809354
:101190003402898D811156C08E899D89913A59F406
:1011A000813209F081C047E050E064E071E080E006
:1011B0000E94FD0375C0913209F076C0833289F434
:1011C000888D90E0982F88272F89822BA0E0B0E0AF
:1011D0008093000190930101A0930201B093030159
:1011E0005FC0803269F48091E80082FFFCCF67E045
:1011F00084E091E00E9456048BEF8093E80006C0E3
:10120000823209F04DC08F8980930B0180913802A2
:10121000882319F0EEEFFAE002C0E0E0F8E08091F8
:10122000040190910501A0910601B0910701803B56
:101230009440A105B10509F07BC080910B0180FFAE
:1012400093C076C00E943607DC0112960D911C9166
:1012500013970115110541F1D801ED91FC91019011
:10126000F081E02DBE016B5E7F4FC80109958111B1
:1012700017C0F80100851185ECCF113009F44EC07C
:10128000133091F48F89882309F445C0823081F4AA
:1012900040E86DE08BE591E00E94EC09882321F0A5
:1012A0008EEF8093E80079C081E28093EB0075C0F7
:1012B000813029F440E86BE08FE491E0EDCF83309A
:1012C00099F70E943607DC011296ED90FC90139777
:1012D0008E010F5F1F4F6801E114F10479F0D7010F
:1012E000ED91FC910680F781E02DB801C7010995C9
:1012F000080F111DF701E084F184EECFD8011C9294
:10130000F60101900020E9F73197BF016C197D09C2
:1013100040E0C601C1CF69E371E002C06DE371E056
:101320006115710509F2FB01449150E080E840CF5E
:101330000FB6F894A8958091600088618093600052
:10134000109260000FBEA895EE3F2AE0F20739F038
:101350008091FE0A9091FF0A91838083A1CF109221
:10136000FF0A1092FE0A9CCFEE3F8AE0F80731F0A8
:10137000808191819093FF0A8093FE0A87E797E727
:10138000918380839BE088E10FB6F894A8958093C1
:1013900060000FBE9093600083CF6C960FB6F894F8
:1013A000DEBF0FBECDBFDF91CF91FF91EF91BF9117
:1013B000AF919F918F917F916F915F914F913F91ED
:1013C0002F911F910F91FF90EF90DF90CF900F9092
:1013D0000FBE0F901F901895CF92DF92EF92FF9261
:1013E0000F931F93CF93DF931F92CDB7DEB7182FC4
:1013F000062FE42E862F880F8E5F99830E940E01A0
:1014000083E00E940E01F12EC12E9981D92E8C2DE0
:101410008F19801798F4F601E7FE02C0849101C08D
:1014200080810E940E01182F80E00E940E0181230E
:10143000FFEFCF1ADF0A8111EACF01C081E00F90E0
:10144000DF91CF911F910F91FF90EF90DF90CF90A0
:101450000895789484B5826084BD84B5816084BD2C
:1014600085B5826085BD85B5816085BD80916E0042
:10147000816080936E001092810080918100826073
:1014800080938100809181008160809381008091B0
:1014900080008160809380008091910082608093C1
:1014A00091008091910081608093910080919000E3
:1014B0008160809390008091C10084608093C1001E
:1014C0008091C10082608093C1008091C1008160E1
:1014D0008093C1008091C30081608093C30080919C
:1014E000C00082608093C0008091C20081608093C0
:1014F000C20080917A00846080937A0080917A00A3
:10150000826080937A0080917A00816080937A0073
:1015100080917A00806880937A0010923D02109248
:10152000390210923A028091D70081608093D700EF
:1015300080EA8093D80089B5806189BD89B58260D1
:1015400089BD09B400FEFDCF61E070E080E090E06D
:101550000E94C7018091D8008F7C80618093D80061
:101560008091E000807F8093E0008091E1008E7E9A
:101570008093E1008DE08093E200559A209A5D9877
:101580002898EEEFFFE7859194918B3F9C4D19F4DD
:1015900081E0809338028FEF9FEF90934B0280930E
:1015A0004A02C0910B016AE070E080E090E00E9486
:1015B000C701CC23B1F383E491E00E94F40681E5F6
:1015C00091E00E94F40684E591E00E94F4061092F6
:1015D000B5021092B4021092B3021092B2021092AD
:1015E000B1021092B0028FE190E09093B702809325
:1015F000B6028091A60298EF980F943048F022EF3F
:10160000280F243028F026EE280F233008F060C081
:1016100021E030E03093B1022093B0022DE130E0C0
:101620003093B3022093B2022DE030E03093B50244
:101630002093B402943058F092EF980F943038F021
:101640008A51833008F49BC0A0E0B0E09AC0A8E6BD
:10165000B0E0E8E6F0E0808181608C938091A602A2
:1016600098EF980F943058F022EF280F243038F07C
:1016700026EE280F233018F020E030E002C02BE6E1
:1016800030E03093AE022093AD02943010F49CEF22
:1016900009C08E3071F08F3071F0803171F081317E
:1016A00071F09AEE980F81E001C0880F9A95EAF7E1
:1016B00007C088E005C082E003C084E001C081E08B
:1016C0008093AF028091B6029091B7020197F1F733
:1016D0008091B4029091B502892B21F18091320260
:1016E0009091330222E08A399207E1F0009711F0DD
:1016F0000E943E038091B8028E7F8093B8021092C0
:101700003102109230028AE992E090933302809382
:101710003202E091AD02F091AE0290818091AF0271
:10172000892B808384E791E00E94F40661E08DE0DC
:101730000E94C604C0E0D0E08EE392E00E948801DF
:10174000892B49F08EE392E00E94B903682F8AE961
:1017500092E00E94B1028AE992E00E940503892B7F
:1017600049F08AE992E00E941D03682F8EE392E01F
:101770000E946701209701F30E940000DDCFA8E6D8
:10178000B0E0833008F465CFE0E0F0E064CF87E3B9
:1017900091E090939B0280939A028AE992E00C94E4
:1017A0003E03109241021092400288EE93E0A0E0C6
:1017B000B0E08093420290934302A0934402B0931E
:1017C000450227E131E030933F0220933E022FEFA4
:1017D0003FEF30934B0220934A024EE057EC6AE110
:1017E0007FE34093C9025093CA026093CB02709387
:1017F000CC021092C5021092C6021092C70210923B
:10180000C8021092D0021092CF028093D10290931E
:10181000D202A093D302B093D40227E231E03093F6
:10182000CE022093CD0210929D0210929C028093D2
:101830009E0290939F02A093A002B093A10287E31F
:1018400091E090939B0280939A021092B1021092C1
:10185000B0021092B3021092B2021092B50210922E
:10186000B4021092B7021092B6026091B8026E7F75
:101870006D7F6093B8026695617081E0682786E1AC
:101880000E94630461E086E10E94C604EAEBF1E095
:10189000E491E093AA02EBE9F1E0E491F0E0EE0FCD
:1018A000FF1FE759FE4F859194919093AC0280936E
:1018B000AB0260E087E10E94C6048091B80281FD1E
:1018C00004C061E087E10E94630487E18093A6027F
:1018D000EBEBF1E0E491E093A702ECE9F1E0E491B5
:1018E000F0E0EE0FFF1FE958FE4F85919491909321
:1018F000A9028093A80280E090E0A0E8BFE3809373
:101900008E0290938F02A0939002B09391028093E5
:10191000920290939302A0939402B09395028093C5
:10192000960290939702A0939802B093990208951B
:1019300097FB072E16F4009407D077FD09D00E947C
:10194000B20C07FC05D03EF4909581959F4F089509
:10195000709561957F4F0895EE0FFF1F0590F491EC
:10196000E02D0994AA1BBB1B51E107C0AA1FBB1F96
:10197000A617B70710F0A61BB70B881F991F5A951B
:10198000A9F780959095BC01CD01089581E090E084
:10199000F8940C94CB0C10E0C3EED0E004C0FE0130
:1019A0000E94AC0C2196C43ED107C9F7F894FFCF32
:1019B000FFFFFFFF00E100000000000000C1808188
:1019C00000000000000000670101028801B903D790
:1019D000037D0100000000A80394038D038A0387A0
:1019E00003860300000000B1023C0105031D0398BB
:1019F00002B00253657269616C2072656164792E70
:101A0000000D0A00496E697469616C6C697A696ECF
:101A1000672042542053657269616C20706F727444
:081A20002E2E2E004F4B00009A
:00000001FF
